:02000002B0004C
:1040000000400B003CE90B00000006000D0005021B
:084010000401810C0000000016
:0440180030D10B0098
:1040200009480A49884208B505D0094A824202D0A7
:10403000121A08F0AFFF0748074A0021121A08F0C9
:10404000B7FF014808BD00BF38E403209CE80B001F
:10405000B0E40320B0E40320EDE7032070B5074E81
:10406000074C05F06BF8A41BA4080025AC4200D156
:1040700070BD56F8043B98470135F7E76CE80B0034
:1040800090E80B0001F086BB08B501F08DF8BDE8A3
:10409000084005F00BB804F0FDBB04F0FBBB04F0D6
:1040A00001BC000008B5034A00210C2004F036FBD7
:1040B000FEE700BF1D840B000078B0FA80F04009D5
:1040C000704701230370704710B5074C04F0AEF938
:1040D0002368C01A162806D9044A136801331360EE
:1040E00004F0A4F9206010BDB0E40320B4E4032080
:1040F00070B506460C4615462AB90368BDE87040FF
:104100009B68C9B2184700290BDA0A2A09D12D2168
:1041100004F0D8FD6142EAB23046BDE8704004F0D8
:10412000ECBD2146F7E770B506460C4615462AB9A0
:104130000368BDE870409B68C9B2184700290BDAD4
:104140000A2A09D12D2104F0BDFD6142EAB23046B0
:10415000BDE8704004F0D1BD2146F7E712B903680D
:104160009B681847D2B204F0C8BD10B50446FFF7EB
:10417000F5FF2046BDE8104004F0A7BD10B5044689
:1041800042B90268C9B2926890472046BDE8104023
:1041900004F09BBDD2B204F0B0FDF6E713B50023E6
:1041A000214C8DF807300DF106020DF105018DF857
:1041B00006308DF805301D480DF1070302F0D8FFD9
:1041C00005F0CAF8214604F08CFD05F0C5F8184941
:1041D00004F074FD05F0C0F810229DF80510FFF7FB
:1041E000C4FF05F0B9F8134904F068FD05F0B4F810
:1041F00010229DF80610FFF7B8FF05F0ADF80E4944
:1042000004F05CFD05F0A8F810229DF80710FFF7F8
:10421000ACFF05F0A1F8214604F063FD4FF4FA70FD
:1042200004F018FF02B010BDA9D30B0038E503203D
:1042300044D10B0056D10B0068D10B00F8B50746EE
:1042400013480E4615461C4602F024F89FED117ADD
:10425000DFED117A0E48E0EE077AC7ED007A02F042
:1042600093F89FED0E7A0A48C0EE077A9FED0C7A1C
:1042700067EE877AC6ED007A02F03CF8044885EDD7
:10428000000A9FED080A02F04FF984ED000AF8BD1C
:10429000C4E403206666E63F0000004280E6C547AE
:1042A00000003E4400507D44F8B514461D460E46BD
:1042B000074605F051F8244904F000FD05F04CF8DC
:1042C00097ED000A022104F02DFE05F045F81F4984
:1042D00004F007FD05F040F81D4904F0EFFC05F07F
:1042E0003BF896ED000A022104F01CFE05F034F8BC
:1042F000184904F0F6FC05F02FF8174904F0DEFC2D
:1043000005F02AF895ED000A022104F00BFE05F0F5
:1043100023F8124904F0E5FC05F01EF8104904F0FA
:10432000CDFC05F019F894ED000A022104F0FAFD25
:1043300005F012F80B4904F0D4FC05F00DF8BDE8C7
:10434000F84004F0C2BC00BF7AD10B008BD10B0047
:104350008ED10B009AD10B00A0D10B00B4D10B0071
:10436000B7D10B00C3D10B0030B53B4D3B488BB0F0
:10437000694602F097FD04F0EFFF294604F0B1FC16
:1043800004F0EAFF364904F099FC04F0E5FF6946C1
:1043900004F0A7FC04F0E0FF324904F08FFC04F0C5
:1043A000DBFF0A2203990446FFF7BDFE204604F016
:1043B0008CFC04F0D1FF2C4904F080FC04F0CCFF0D
:1043C0000A2204990446FFF7AEFE204604F07DFC65
:1043D000264C04F0C1FF264904F070FC04F0BCFF39
:1043E0009DED060A022104F09DFD04F0B5FF214673
:1043F00004F077FC04F0B0FF1E4904F05FFC04F009
:10440000ABFF9DED070A022104F08CFD04F0A4FF30
:10441000214604F066FC04F09FFF174904F04EFCAF
:1044200004F09AFF9DED080A022104F07BFD04F0E0
:1044300093FF214604F055FC04F08EFF294604F05A
:1044400050FC04F089FF0D4904F04BFC4FF4FA7066
:1044500004F000FE0BB030BDC6D10B0038E50320E0
:10446000EBD10B00FAD10B0009D20B0027D20B00C5
:1044700018D20B002CD20B003BD20B00A9D30B009F
:1044800038B5044604F068FF4C494D4D04F029FC52
:1044900004F062FF4B4904F011FC04F05DFF0A22B6
:1044A000B4F90010FFF724FE04F056FF294604F08B
:1044B00005FC04F051FF0A22B4F90210FFF718FEC0
:1044C00004F04AFF294604F0F9FB04F045FF0A22F4
:1044D000B4F90410FFF70CFE04F03EFF294604F087
:1044E000EDFB04F039FF384904F0E8FB04F034FF39
:1044F0000A22B4F90C10FFF7FBFD04F02DFF29464A
:1045000004F0DCFB04F028FF0A22B4F90E10FFF7D8
:10451000EFFD04F021FF294604F0D0FB04F01CFF5E
:104520000A22B4F91010FFF7E3FD04F015FF294645
:1045300004F0C4FB04F010FF244904F0BFFB04F0B6
:104540000BFF0A22B4F90610FFF7D2FD04F004FFB6
:10455000294604F0B3FB04F0FFFE0A22B4F9081068
:10456000FFF7C6FD04F0F8FE294604F0A7FB04F0AF
:10457000F3FE0A22B4F90A10FFF7BAFD04F0ECFECC
:10458000294604F09BFB04F0E7FE114904F096FB7A
:1045900004F0E2FE0A22B4F91210FFF7A9FD04F0BC
:1045A000DBFE0C4904F08AFB04F0D6FEB4F91410CB
:1045B0000A22BDE83840FFF79BBD00BF4AD20B007E
:1045C0007ED30B0061D20B0071D20B0079D20B00AD
:1045D00080D20B0090D20B002DE9F04F2DED088B0F
:1045E00097B000238DF80F300DF10F0300930DF1FC
:1045F0000D020DF10E0303A9DB48DFF8A483DFF8F9
:10460000A4A3DFF8A493DFF8A4B39FEDD89A02F037
:10461000CFFD04A8D449082202F0C8FE0AA8D24956
:10462000142202F0C3FE10A8CF490E2202F0BEFEF3
:10463000DDE90801C2A3D3E9002307F0A7FFC0A367
:10464000D3E9002341EC180BDDE9040107F09EFFDC
:10465000B0EE481AF0EE681A41EC100B05F036FA8D
:1046600053EC102B10EE100A03F100410022C04B56
:1046700007F062FEB4A3D3E9002307F087FFBD4B28
:10468000002207F059FE08F04FF9ADA3D3E900234B
:10469000C8F80000DDE9080107F078FFA8A3D3E916
:1046A000002341EC180BDDE9060107F06FFFB0EEC7
:1046B000481AF0EE681A41EC100B05F007FA53ECBB
:1046C000102B10EE100A03F100410022A84B07F056
:1046D00033FE9DA3D3E9002307F058FF0022A54B2A
:1046E00007F02AFE08F020F9A34BCAF8000006469E
:1046F000186807F0C9FD96A3D3E9002307F01CFE54
:10470000044630460D4607F0BFFD93A3D3E90023CE
:1047100007F012FE02460B462046294607F056FCDB
:1047200008F002F9954908609548006807F0ACFD6B
:1047300087A3D3E9002307F0FFFD0446D8F8000063
:104740000D4607F0A1FD84A3D3E9002307F0F4FD93
:1047500002460B462046294607F038FC08F0E4F8EC
:10476000884C894D206003F061FE2B68874CC01A8D
:1047700007F068FD864B002207F008FF08F0D4F828
:10478000206003F053FE2860206807F07DFD02469C
:104790000B4643EC1A2BDDE90C2307F0CDFD064652
:1047A0000F46D9F8000007F06FFD32463B4607F090
:1047B0000DFC67A3D3E9002307F0BEFD0446D8F83B
:1047C00000000D4607F060FD63A3D3E9002307F066
:1047D000B3FD02460B462046294607F0F7FB08F0DA
:1047E000A3F8DDE90A2308EE900AC9F8000051ECAD
:1047F0001A0B07F0A1FD04460D46DBF8000007F098
:1048000043FD22462B4607F0DFFB51A3D3E90023EB
:1048100007F092FD8046DAF80000894607F034FD83
:104820004DA3D3E9002307F087FD02460B4640461F
:10483000494607F0CBFB08F077F8DFF87481CBF836
:10484000000008EE100AD8F8000007F01DFD3246FF
:104850003B4607F0BBFB08F067F84E4EC8F8000077
:10486000306807F011FD22462B4607F0ADFB08F03B
:104870005BF8C8EE097A306017EE900A07F004FD85
:1048800037A3D3E9002307F057FD08F04DF8C8EE31
:10489000897A414B186008EE100A17EE900A07F06B
:1048A000F3FC2FA3D3E9002307F046FD08F03CF802
:1048B0003A4B00EE100A186008EE900A05F094F8E2
:1048C00010EE104AB0EE480A05F0C6F810EE100AD5
:1048D00007F0DAFCB0EE680A41EC1A0B05F0BCF800
:1048E00010EE100A07F0D0FC9DED147BB0EE480AE4
:1048F000B0EE47BAF0EE67BA06460F4605F074F818
:1049000010EE100A07F0C0FC80462046894607F0EA
:10491000BBFCDDE9102307F00FFDDDE912AB53EC22
:104920001A2B04460D465046594607F005FD3246FF
:104930003B4607F001FD02460B4620463AE000BF29
:104940009A9999999999234050455254FB210940CD
:10495000666666666666EE3F9A9999999999A93F47
:104960001F85EB51B81E194038E503200000B44301
:104970000000E03F0080764024E6032020E603208C
:1049800058E6032054E6032018E60320CCE5032074
:1049900000408F4028E6032030E6032064E6032031
:1049A00060E603202CE6032050E603201CE60320EB
:1049B0005CE60320294607F007FB424604460D4605
:1049C0004B4651EC1B0B07F0B7FC32463B4607F059
:1049D000B3FC02460B462046294607F0F7FA07F0DB
:1049E000A3FF2B4B08EE100A186042464B46504678
:1049F000594607F0A1FC53EC1B2B04460D4651EC25
:104A00001A0B07F099FC02460B462046294607F090
:104A1000DDFA07F089FF1F4B1F4C1860F0EE480AC3
:104A200000EE100A05F026F91C491D4A0B681360B8
:104A30001C4A2368136010EE100A07F025FC12A32D
:104A4000D3E9002307F0A2FD174B002207F074FC06
:104A500007F06AFFDFED157A154B07EE100A77EEC7
:104A6000277AF4EEC97AF1EE10FAA8BF77EEC97A88
:104A7000C3ED007A93ED000A17B0BDEC088BBDE8DA
:104A8000F08F00BFAFF300801F85EB51B81E1940B7
:104A9000BCE40320C0E4032054E6032020E6032006
:104AA00024E6032058E603200080764000003443CB
:104AB00040E603202DE9F84304F04EFC2A492B4D33
:104AC000DFF8B880DFF8B89004F00BF90124A7B242
:104AD0002648394603F034FC37283FD1C8223946EE
:104AE000284603F009FC50B904F036FC494604F0AE
:104AF000E5F804F031FC10222146FFF73FFB0021CE
:104B0000284603F01DFC372206463946284603F0A6
:104B1000F3FB50B904F020FC414604F0CFF804F058
:104B20001BFC10222146FFF729FBC82E16D104F0EA
:104B300013FC0F4904F0D5F804F00EFC0D4904F005
:104B4000BDF804F009FC21460A2204F0D6F804F06E
:104B500003FCBDE8F843084904F0C3B8013447F644
:104B6000FF739C42B3D1E7E79ED20B00ECE5032034
:104B7000E5D20B00F7D20B000ED30B00C7D20B000F
:104B8000ACD20B0007B50D4B187804F082FE4FF441
:104B9000B4730093002340F6FF72194604F04EFAF6
:104BA000B0F5B47F04DDA0F5B47003B05DF804FB8C
:104BB0000028B8BF00F5B470F7E700BF3DE403205C
:104BC00038B50D461449044603F0FDFF152D05DCEC
:104BD0001249204604F030F8204638BD422D01DC51
:104BE0000F49F6E76F2D01DC0E49F2E79C2D01DC41
:104BF0000D49EEE7D32D01DC0C49EAE7F62D01DC87
:104C00000B49E6E7B5F5927F01DA0A49E1E7B5F528
:104C1000A87FDDDC0849DCE729D20B0015D30B00A7
:104C200017D30B0018D30B001AD30B001DD30B00A6
:104C30001FD30B0023D30B0022D30B00F8B505467E
:104C400012480C461E46174602F076F80F4885EDCE
:104C5000000A02F085F80D4884ED000A02F094F88D
:104C60000A4887ED000A02F09EF8069B9FED087A3D
:104C700083ED000AD5ED006AC6EE877A94ED007ADE
:104C800077EE877AC6ED007AF8BD00BFF4E5032021
:104C900000007A442DE9F041DDF8188014461D46E5
:104CA0000E46074604F058FB2D4904F007F804F0BF
:104CB00053FB97ED000A2B4F022104F033F904F067
:104CC0004BFB394604F00DF804F046FB264903F08F
:104CD000F5FF04F041FB96ED000A022104F022F9F1
:104CE00004F03AFB214903F0FCFF04F035FB2049B6
:104CF00003F0E4FF04F030FB95ED000A022104F01C
:104D000011F904F029FB394603F0EBFF04F024FB12
:104D1000184903F0D3FF04F01FFB94ED000A0221B1
:104D200004F000F904F018FB134903F0DAFF04F073
:104D300013FB124903F0C2FF04F00EFB98ED000ACA
:104D4000022104F0EFF804F007FB0D4903F0C9FF5E
:104D500004F002FBBDE8F0410A4903F0C2BF00BF06
:104D600025D30B0035D30B0038D30B0048D30B00F1
:104D70004CD30B005CD30B006CD30B0070D30B0037
:104D800080D30B00A9D30B0010B58AB001A9294824
:104D9000294C02F06BFB04F0DFFA284903F08EFF88
:104DA00004F0DAFA9DED060A042104F0BBF804F0E1
:104DB000D3FA234903F082FF04F0CEFA9DED070AEF
:104DC000042104F0AFF804F0C7FA1E4903F076FF9F
:104DD00004F0C2FA9DED080A042104F0A3F804F0DF
:104DE000BBFA194903F07DFF04F0B6FA174903F046
:104DF00078FFDDED067A9FED167A77EE877A9FEDE4
:104E0000157AF4EEC77AF1EE10FAC8BF77EEC77ADA
:104E1000C4ED007A04F0A0FA0F4903F04FFF04F04C
:104E20009BFA94ED000A042104F07CF894ED000A4A
:104E30000AB010BD38E5032064E5032084D30B00DD
:104E400088D30B008DD30B00A9D30B0092D30B009A
:104E50000000D0420000B44395D30B001FB51448A6
:104E600003F030FA4021134801F0EBFE124800F045
:104E70006BFF04F093FD114A1149CDE901214FF078
:104E8000FF3203460092402180220E4803F094F93D
:104E900004F084FD2822034637210B4802F026F84F
:104EA0000A490B4805B05DF804EB03F08CBE00BF67
:104EB000ECE50320F4E50320C4E40320801A060097
:104EC000A086010074E5032038E50320A9D30B0078
:104ED000DCE503201FB500238DF80F308DF80E3070
:104EE0008DF80D308DF80C300DF10F030DF10D0222
:104EF00003A93B4800930DF10E0302F059F904F0A9
:104F00002BFA384903F0DAFE9DF80C3023B904F08F
:104F100023FA354903F0D2FE04F01EFA3349344C2B
:104F200003F0CCFE04F018FA0A229DF80C10FFF7EB
:104F300015F904F011FA2F4903F0C0FE04F00CFA41
:104F40000A229DF80D10FFF709F904F005FA2A4925
:104F500003F0B4FE04F000FA0A229DF80E10FFF7E9
:104F6000FDF804F0F9F9254903F0A8FE04F0F4F97E
:104F70009DF80F100A22FFF7F1F8204602F0C4FB5B
:104F800000231A492361204603F098FE9DF80C1077
:104F90000A222046FFF7E2F81649204603F08EFE6B
:104FA0009DF80D100A222046FFF7D8F81249204636
:104FB00003F084FE9DF80E100A222046FFF7CEF87B
:104FC0000E49204603F07AFE9DF80F100A22204673
:104FD000FFF7C4F8204603F00CF804B010BD00BF82
:104FE00038E50320A8D30B00AAD30B00ADD30B00E8
:104FF00074E50320B2D30B00B6D30B00BAD30B0079
:105000002DE9F84F384CDDF83090804620461646A2
:105010000F461D46DDE90ABA02F076FB204602F093
:10502000E8FF002331492361204603F047FE0A22AE
:1050300041462046FFF777F82D49204603F051FE00
:105040002C49204603F03AFE0A2239462046FFF753
:105050006AF82949204603F044FE2849204603F017
:105060002DFE0A2231462046FFF75DF824492046EE
:1050700003F037FE2349204603F020FE0A2229468A
:105080002046FFF750F82049204603F02AFE1F492A
:10509000204603F013FE0A2259462046FFF743F844
:1050A0001B49204603F01DFE1A49204603F006FE68
:1050B0000A2251462046FFF736F81749204603F0EA
:1050C00010FE1649204603F0F9FD494620460A2203
:1050D000FFF729F82046124903F003FE2046BDE8F9
:1050E000F84F02F086BF00BF74E50320BED30B006B
:1050F0008BD10B00C7D30B009AD10B00B7D10B009B
:10510000C3D10B00A8D10B00B4D10B00D1D30B003D
:1051100035D30B00E0D30B006CD30B00EBD30B00AB
:1051200080D30B00F8B51A4C0746204615460E46AC
:1051300002F0EAFA204602F05CFF002315492361E1
:10514000204603F0BBFD0A2239462046FEF7EBFF5E
:105150001149204603F0C5FD1049204603F0AEFD7D
:105160003168204603F0BDFD0D49204603F0A6FD41
:1051700095ED000A0221204603F0D4FE204609499D
:1051800003F0AFFD2046BDE8F84002F032BF00BF9B
:1051900074E50320F4D30B0001D40B0004D40B00FE
:1051A0000FD40B001CD40B002DE9F04F2DED028B1A
:1051B000CF4BD04E1878D04FDFF8DC83DFF8DC938C
:1051C000DFF8DCB3DFF8DCA3CC4DCD4C89B0012196
:1051D00004F033FBFFF7D6FC3346CBF800003A4629
:1051E00041464846FFF72AF83A4641464846334684
:1051F000FFF75AF8FFF7C8FDC24B83ED000AFFF72F
:10520000EBF9C14AC14B82ED000A29465246C0481B
:105210000094FFF713FD04F09FF8BE4903F04EFD24
:1052200004F09AF89AED000A022103F07BFE04F0E4
:1052300093F8B94903F042FD52462846B34BB449AE
:105240000094FFF727FDD9ED007AB44895ED007A78
:105250000168AE4BB24DDFF85093DBF80020DFF869
:105260004CB3FDEEE77ABDEEC77A17EE90CAD8EDE3
:10527000007ADFF83C838C44C0F800C0FDEEE77A8A
:10528000A84817EE90CA0168D7ED007A8C44C0F8A0
:1052900000C0FDEEE77AA44817EE907A0168D6EDDB
:1052A000007AA24E0F440760FDEEE77AA04FD6EDDC
:1052B000006A396817EE900A08449E493860D1EDBB
:1052C000007AB8EEC77A77EE877AC1ED007AD3ED2F
:1052D000007A9949D9F80030FDEEE77A1344F8EEE8
:1052E000E77AC9F8003077EEA67A864BC6ED007AE9
:1052F000D5ED007A844A37EE877ADAED007A85EDCB
:10530000007AFDEEE77A91ED007ADFF8A8A2F8EED8
:10531000E77A77EE877A98ED007AC1ED007AD4EDDE
:10532000007AFDEEE77AF8EEE77A77EE877AC8ED55
:10533000007AD3ED007ADBF80030FDEEE77A17EE65
:10534000901A1944CBF80010D2ED007ADAF8003048
:10535000FDEEE77A17EE902A1A44CAF8002003F00F
:1053600065F8764B1B68C01A754B1B88984240F253
:105370009981744B93ED008A03F058F8F8EE487A5F
:10538000044617EE900A06F07FFF6F4B002206F0EE
:10539000D3FF41EC180B69490868201A07EE900A00
:1053A000F8EE677A694C17EE900A06F06DFF024638
:1053B0000B4651EC180B07F0E9F8654B002206F09C
:1053C000BBFF07F0B1FA634B54491860624B554874
:1053D000B3F800C00B68B3FBFCF307EE90CA236080
:1053E000036854485D4AD0ED006AB3FBFCF3F8EE65
:1053F000E77A136086EEA77A4B4A59491368594AEF
:10540000B3FBFCF31360584A3B68B3FBFCF3136037
:10541000564B5748574AD6ED006A83ED007A86EE20
:10542000A77A554B444ED5ED006A83ED007A86EE9F
:10543000A77A524D524BD6ED006A81ED007A86EE86
:10544000A77AD9F80060B6FBFCF60660DBF80060CE
:10545000B6FBFCF61E604B4EDAF80000B0FBFCF029
:10546000D8ED006A85ED007A86EEA77A82ED007AA3
:10547000306002F0DBFF314A3F4B10603D4A384953
:105480003A4800922A46FFF705FC03F065FF3E49C3
:1054900003F014FC03F060FF2A4A11680A2203F0AB
:1054A0002CFC03F059FF1C4903F008FC03F054FFE7
:1054B000364903F003FC03F04FFF0A22396803F07A
:1054C0001CFC03F049FF324903F0F8FB03F044FFF2
:1054D000304903F0F3FB03F03FFF10490A2209684B
:1054E00003F00BFC03F038FF294903F0E7FB63E00E
:1054F0003EE4032008E5032014E5032058E50320DB
:1055000034E60320D0E503204CE5032010E6032019
:105510004CE6032021D40B0093D30B0034E5032089
:1055200048E6032028E503201CE503200CE60320C1
:1055300010E5032060E5032070E5032068E6032002
:1055400038E40320B4E403200000024030E50320E7
:1055500000408F40B8E4032014E6032024E5032034
:1055600044E6032018E503200CE503205CE5032056
:1055700080E6032038E6032008E603206CE50320DC
:10558000D4E5032050E5032030D40B003DD40B00BC
:10559000A8D30B0054D40B0020E503202CE50320F6
:1055A0007CE6032068E5032084E60320D8E5032099
:1055B0003CE6032054E5032003F0CEFE5B4903F0F4
:1055C0007DFB03F0C9FE5A4B0A22198803F095FBB4
:1055D00003F0C2FE574903F071FB03F0BDFE5649CC
:1055E00003F06CFB03F0B8FE0A22216803F085FB90
:1055F00003F0B2FE4F4903F061FB03F0ADFE4F49EB
:1056000003F05CFB03F0A8FE0A222178FEF7A6FD5A
:1056100003F0A2FE474903F051FB03F09DFE484909
:1056200003F04CFB03F098FE95ED000A022103F015
:1056300079FC03F091FE3F4903F040FB41494248A9
:10564000424A00240C60424904600C6041484249CF
:10565000146000230B600360C8F800303C60C9F898
:105660000040CBF80040CAF8004003F075FE2F4917
:1056700003F024FB03F070FE2D4B0A2219881D460F
:1056800003F03BFB354B2C801968336819444908FB
:1056900004A8FFF795FA324804A903F0C5FA04A854
:1056A00003F046FA2F4C02F0C1FE2368C01A2E4BBD
:1056B0001B88984226D902F0B9FE20602B4C237833
:1056C00063B32B4B2B4AD3ED007A2B4B2B492C4841
:1056D000FDEEE77ACDED027AD3ED007A294BFDEEAF
:1056E000E77ACDED017AD3ED007A274BFDEEE77A2C
:1056F000CDED007A1B68126809680068FFF780FC2E
:10570000002323700A4A1388C8200133138009B08C
:10571000BDEC028BBDE8F04F03F09CBC1B4B1C4A58
:1057200018680F49FFF7FEFC0123EAE767D40B0076
:1057300014E6032093D30B0077D40B008CD40B001A
:1057400021D40B0034E5032028E50320B4E4032032
:105750001CE5032060E5032070E50320D4E5032069
:10576000DCE5032078E603203AE403203CE4032050
:1057700038E6032018E503206CE5032024E5032028
:1057800030E503205CE503200CE5032080E60320E0
:10579000B8E403202DE9F041A2B003F0DDFDC749D4
:1057A00003F09FFA04F0FAF80146C54801F032FB15
:1057B00040B903F0D1FDC34903F093FA0A2003F086
:1057C00049FCFBE7BE48C04E01F03FFB03F01CFC68
:1057D000C317C6E9000303F0BFFDBC4903F06EFA2E
:1057E00003F0BAFDD6E90054002C074680F2BF80D2
:1057F0002D2103F067FA6A4264EB44030A21009109
:10580000384603F098FA03F0A7FDB149B14C03F014
:1058100055FAB14B0021187803F0FEFFAF4B012180
:10582000187803F0F9FF03F097FDAD4903F059FA3A
:105830002078002103F0F0FF0023009302224FF0B4
:10584000FF33A849207803F0AFFD03F085FDA6499A
:1058500003F047FA03F080FDA44903F042FA03F095
:105860007BFD4FF4E13103F065FD03F075FD03F0BE
:1058700068FD0028F9D09E4C03F06EFD9D4903F0B1
:105880003AFA03F069FD9C4903F02BFA01223C210E
:10589000204602F0A5FC03F05FFD984903F021FAD1
:1058A000204602F0A6FB4FF47A7003F0D3FB2046AB
:1058B00001F02AFF204602F09CFB0121204602F065
:1058C0002AF903F049FD8E4903F00BFA0221042066
:1058D00003F0A2FF0221032003F09EFF02210846ED
:1058E00003F09AFF0121204602F07DFB00224FF0D9
:1058F0000113C4E904238349204603F0DFF98249F8
:10590000204603F0DBF9204602F073FB7F4800F0ED
:105910009CFE78BB03F020FD7D4903F0E2F903F023
:105920001BFD7C4903F0CAF903F016FD04467748D5
:1059300000F00EFA102201462046FEF71FFC03F08D
:105940000BFD754903F0BAF903F006FD734903F046
:10595000B5F903F001FD724903F0B0F903F0FCFC66
:10596000704903F0ABF90A2003F074FBFBE72A4609
:10597000234643E704F012F8502102466A4802F039
:10598000A5FCE0B103F0E8FC684903F0AAF9204661
:1059900001F0BAFE6649204603F0A3F9204602F062
:1059A00028FBFFF787F863480C2101F090FB0746BE
:1059B00070B903F0D1FC604903F080F9FEE703F011
:1059C000CBFC5E4903F08DF90A2003F043FBFBE7B3
:1059D00003F0C2FC3D4903F071F903F0BDFCD6E9C8
:1059E0000054002C804666DA2D2103F06BF96A42E0
:1059F00064EB44030A210091404603F09CF903F054
:105A0000ABFC334903F05AF94FF47A7003F022FBF0
:105A1000FEF7AAFC03F094FF042202A9002002F082
:105A200015FD444818A901F03DFA1C9A029B9A42C0
:105A300000F08E8003F090FC414903F052F94FF4DE
:105A4000FA7003F007FB00274FF47A7003F002FBB3
:105A5000FEF78AFCFEF7A2FB0121364801F07AFA34
:105A600002F0E4FC374B0FA91860324801F0FEFC4D
:105A7000002F00F08B8003F06FFC33492D4C03F0B6
:105A800030F91B4801F040FE3049194803F029F96C
:105A9000174802F0AEFA204601F0A2FB002840F0C1
:105AA000B4800FA9204601F0E1FCFFF713FA64204F
:105AB00003F0D0FAEFE72A4623469BE7AAD40B006F
:105AC000F4E50320B1D40B0070E60320CCD40B0026
:105AD00093D30B003FE403203DE403203EE4032086
:105AE000DED40B00C9400B00FBD40B0011D50B001A
:105AF00074E503201FD50B002BD50B0048D50B00F8
:105B000053D50B005FD50B007FD50B00C4E40320F9
:105B10008BD50B00D3D50B00E4D50B002BD60B0097
:105B200055D60B007FD60B00ECE50320A9D60B0061
:105B3000BAD60B0038E5032001D70B00C9D60B00FD
:105B40003ED70B0018E60320F6D70B0026D80B0033
:105B500003F002FC4D4903F0C4F803F0F1FE1622F5
:105B600003A9042002F072FC03A8FEF789FC03F0ED
:105B7000F3FB474903F0B5F803A9464801F00DFAD5
:105B800003F0EAFB444903F0ACF85DE703F0E4FB03
:105B90004249404C424E434D03F0A3F8204601F0E9
:105BA0001FFB90BB0FA9204601F060FC03F0D4FB63
:105BB000314603F083F803F0CFFB9DED140A042176
:105BC00003F0B0F903F0C8FB294603F077F803F0BF
:105BD000C3FB9DED150A042103F0A4F903F0BCFBFF
:105BE000314903F06BF803F0B7FB9DED160A042171
:105BF00003F098F9FFF76EF903F0AEFB2B4903F0C1
:105C000070F8642003F026FAC8E703F0A5FB2849E2
:105C100003F067F803F0A0FB264903F062F803F0F5
:105C20009BFB254903F05DF809A91A4801F011FB17
:105C300009A8FEF725FC03F08FFB204903F051F87B
:105C400018A9144801F02EF91C9B029303F078FE6A
:105C500002A90422002002F001FC03F071FE1622CA
:105C600009A9042002F0FAFB03F076FB144903F0C3
:105C700038F803F071FB134903F033F84FF4FA706E
:105C800003F0E8F922B0BDE8F08100BF74D70B0043
:105C9000A2D70B0038E50320D0D70B003BD80B0070
:105CA00084D30B0088D30B008DD30B00A9D30B003A
:105CB00055D80B00CAD10B0068D80B007ED80B005A
:105CC000A6D80B00BDD80B00704710B510210446B4
:105CD000FEF7E5F9204610BD0EB403B503AB002175
:105CE00053F8042B019303F02CF902B05DF804EB98
:105CF00003B0704773B5044608462279A36832B1F1
:105D0000A3B90B4902B0BDE8704002F0D7BF094A01
:105D1000267B094D0949647B012E18BF2946CDE930
:105D200000140749FFF7D8FF02B070BD054AEFE73E
:105D3000F1D80B00A9D30B00EDD80B00E9D80B006C
:105D400007D90B00E0D80B004FF0FF330361704719
:105D50008068704713B50B4C2178BFF35B8F11F04F
:105D600001010BD120460191FEF7A6F9019928B156
:105D7000054802F00BFE2046FEF7A3F9024802B0E8
:105D800010BD00BF88E603208CE6032008B5FFF7AE
:105D9000E1FFBDE8084002F017BE07B50190FFF72C
:105DA000D9FF019903B05DF804EB02F027BE2DE99D
:105DB000F04190F91330013305460F4606D1FFF745
:105DC000C9FF3946BDE8F04102F086BE002407262F
:105DD0004FF0010895F91300002180B203F02DFD6A
:105DE00095F9110008FA06F1394080B203F025FD5B
:105DF00095F91300012180B203F01FFD95F91200FF
:105E0000640080B2E4B203F031FD08B144F0010453
:105E1000013EDFD22046BDE8F08100007FB590F959
:105E20001030013304460E46154613D1017900683F
:105E300003F0F6FB2068036831469B6898472068AA
:105E4000036829469B689847206804B0BDE8704005
:105E500003F0EEBB90F9133001330CD1164B0093D5
:105E600000238DF80430154B029368460123ADF8EA
:105E70000C30FFF792FF94F91000002180B203F07C
:105E8000DCFC06F07F012046FFF791FF2946204603
:105E9000FFF78DFF94F91000012180B203F0CDFCD3
:105EA00094F91330013304D104B0BDE87040FFF71A
:105EB0006DBF04B070BD00BF2CD90B0020A107003E
:105EC000F8B5DB0002F0070203F03803134343EA9E
:105ED00081139DF8186080F83C3090F840309DF8B0
:105EE0001C509DF8207066F3471380F84030ED0099
:105EF00090F8383007F0070705F0380523F03F0326
:105F00003D4304461D4380F8385006F00702F22155
:105F1000FFF784FF94F83820C2F3C20302F00701B0
:105F20009B0043EA411343EAD2122046F521FFF7D2
:105F300075FF94F83C20C2F3C20302F007019B00F6
:105F400043EA411343EA92122046F421BDE8F840A7
:105F5000FFF764BF30B590F91030013385B00446C7
:105F60000D4618D10179006803F05AFB20680368D8
:105F700029469B689847206803F05AFB21792068DE
:105F8000012203F04AFB206803685B699847C5B2A9
:105F9000284605B030BD90F9133001330CD1154BB4
:105FA000009300238DF80430134B029368460123BD
:105FB000ADF80C30FFF7F1FE94F91000002180B22B
:105FC00003F03BFC45F080012046FFF7F0FE002186
:105FD0002046FFF7ECFE054694F91000012180B23F
:105FE00003F02BFC94F913300133D1D1FFF7CEFE2F
:105FF000CEE700BF2CD90B0020A1070008B5F32184
:10600000FFF7A8FF00F0010008BD000030B590F9CF
:106010001030013385B004460D461FD10179006868
:1060200003F0FEFA2068036829469B6898472068B9
:1060300003F0FEFA21792068022203F0EEFA2068CC
:1060400003685B6998470546206803685B69984761
:1060500040EA052085B2284605B030BD90F91330DE
:1060600001330CD1184B009300238DF80430174BEB
:10607000029368460123ADF80C30FFF78EFE94F9C9
:106080001000002180B203F0D8FB45F080012046CB
:10609000FFF78DFE00212046FFF789FE002105460F
:1060A0002046FFF784FE40EA052085B294F91000EF
:1060B000012180B203F0C1FB94F913300133CAD13E
:1060C000FFF764FEC7E700BF2CD90B0020A1070033
:1060D00008B5FFF79BFF40BA80B208BD38B58821EC
:1060E0000446FFF7F5FF8A21A0822046FFF7F0FF64
:1060F0008C21E0822046FFF7EBFF8E212083204693
:10610000FFF7E6FF902160832046FFF7E1FF922131
:10611000A0832046FFF7DCFF9421E0832046FFF7B1
:10612000D7FF962120842046FFF7D2FF9821608474
:106130002046FFF7CDFF9A21A0842046FFF7C8FF35
:106140009C21E0842046FFF7C3FF9E212085204646
:10615000FFF7BEFFA12160852046FFF7FBFEE1218E
:1061600084F82C002046FFF7B3FFE321E0852046AA
:10617000FFF7F0FEE42184F830002046FFF7EAFE46
:10618000E52105462046FFF7E5FE00F00F0343EA50
:1061900005106086E6212046FFF7DCFEE521054676
:1061A0002046FFF7D7FEC0F3071343EA0510A08689
:1061B000E7212046FFF7CEFE84F8360038BD000008
:1061C00030B590F91030013385B004460D4623D127
:1061D0000179006803F024FA2068036829469B6867
:1061E0009847206803F024FA21792068032203F0FD
:1061F00014FA206803685B69984705022068036801
:106200005B69984728430502206803685B699847E3
:106210000543284605B030BD90F9133001330CD149
:106220001A4B009300238DF80430194B02936846F3
:106230000123ADF80C30FFF7B0FD94F910000021F8
:1062400080B203F0FAFA45F080012046FFF7AFFD77
:1062500000212046FFF7ABFD002105022046FFF795
:10626000A6FD2843050200212046FFF7A0FD0543B7
:1062700094F91000012180B203F0DFFA94F9133091
:106280000133C6D1FFF782FDC3E700BF2CD90B0055
:1062900020A1070010B5FA210446FFF791FFB0F5E1
:1062A000000F1FD0A18A9FED117A4B00C1EB202275
:1062B000C3EBE011B4F91630594302FB02F3B4F911
:1062C00018201B1353439B1303EBE123E36003EB01
:1062D000830380331B1207EE903AF8EEE77A87EEDD
:1062E000870A10BD9FED020AFBE700BF0000C8420D
:1062F0000000C07F38B50446FFF7CCFFFD212046E3
:10630000FFF784FEB0F5004F38D0E168B4F93420CF
:10631000A1F59635B4F932100905C1EB803305FBC0
:10632000123303F58043DA1394F8303094F93610C1
:106330006B43DB126943891203F500434B439B1205
:10634000B4F92E1003F500134B4303F500539B13D0
:106350005343DA1394F82C105243D2114A43A3EB5F
:10636000221323EAE373B3F1C85FA8BF4FF0C85309
:106370001B1300EE103ABAEECB0A38BD9FED010AAE
:10638000FBE700BF0000C07F2DE9F8430546FFF79B
:1063900081FFF7212846FFF713FFB0F5000F00F04B
:1063A000B680E968B5F91C304FEAE17EB1F5FA3103
:1063B0004EF1FF3EDC1703FB0EF201FB0422A3FBB0
:1063C000013422441203A1FB01781C0301FB0EF6E9
:1063D00042EA1352B5F91E3008EB46084FEAE37C57
:1063E00003FB08F607FB0C66A3FB073C66441B0A8D
:1063F00043EA06631B1942EB26226E8B02F500422C
:10640000A3FB063406FB0244E317621053EA64045C
:106410004FF0000C7ED0B5F9244004FB08F64FEA9B
:10642000E47907FB0966A4FB07473E44B5F92270EF
:106430004FEAE77807FB0EFE01FB08EEA7FB0171B0
:106440007144490441EAD73100117F043F19C0F576
:10645000801446EB010604F00040B5F920101CEB57
:10646000070740EA5400E407E41B06EBC10640F6C8
:10647000354160EB0606A4FB010401FB064106F072
:10648000B1FBB5F92A20B5F928604FEA613C430B0E
:1064900043EAC14302FB0CF7D41703FB0477A2FBCA
:1064A00003243C4402FB0CF703FB0477A2FB032309
:1064B0001F44530E43EAC7131B184FEAE67206FB4C
:1064C00001F4864641EB676702FB0041A6FB0E061E
:1064D000B5F926403144C00C40EA413018184FEA63
:1064E000E47547EBE141000A2D0140EA016045EA0D
:1064F00014752401201845EB212106F035FB9FED92
:10650000070A07EE900A27EE800ABDE8F8839FEDA0
:10651000040AFAE79FED030AF7E700BF0000803B9B
:106520000000C07F0000000008B52DED028BB0EE2A
:10653000408AFFF729FF9FED167AC0EE077AC7EE73
:10654000887A17EE900A05F09FFE9FED0D1B41EC37
:10655000100B03F0BDFA0F4953EC102B002005F08F
:1065600033FD09A3D3E9002305F0E6FE06F0DCF9CC
:10657000BDEC028B00EE100A08BD00BFAFF3008037
:10658000EBE2361AC05BC83F0000000040A5E540C2
:106590000000C8420000F03F30B5044690F91000FA
:1065A000421C85B019D1206803F008F8D02120469C
:1065B000FFF7D0FC6028A06045D12046B622E0213C
:1065C000FFF72CFC4FF4967002F044FD2046FFF7D5
:1065D00015FD054628B36420F6E7012180B203F0DB
:1065E0002CF994F91000012180B203F015F994F907
:1065F0001300431C04D1FFF7ADFB02F0D1F9D5E73E
:10660000012180B203F008F994F91100012180B250
:1066100003F002F994F91200002180B203F0FCF8B3
:10662000C4E72046FFF75AFD052300931A460321CD
:106630002046CDE90155FFF743FC642002F00AFD36
:10664000012005B030BD0020FBE7772310B50371B2
:10665000044603F0A3F920602046FFF79DFF30B900
:10666000762323712046BDE81040FFF795BF10BD8B
:1066700030B50025C0E9001542819DF810109DF845
:106680000C20456141738273037330BDF0B54589B9
:10669000847A85B0034600688DF80C402D0A0E46BA
:1066A00017468DF80D5040B15B7B019303AB00930F
:1066B000012300F03BFA05B0F0BD58680028FAD07D
:1066C00093F808E093F80DC0BEF1030F0CD10CF164
:1066D000010325F0010500938DF80C508DF80D4055
:1066E00003AB00F092F9E6E7BEF1000F09D104F028
:1066F0007F048DF80C40CDF800C003AB3A4631461C
:10670000EFE7BEF1020F02D164F07F04F1E7BEF1C2
:10671000010F01BF9DF80C3003F07F0343F04003ED
:106720008DF80C30E7E7F0B40B4602B9027B042A7F
:1067300014D800F10F05436184182946844209D01A
:10674000877BDEB227B92E701B0A0135013CF5E7C5
:10675000A673F9E72046F0BCFFF798BF0020F0BC15
:1067600070477FB54689857A8DF80C5004460068DD
:10677000360A0B468DF80D6040B10021CDE90021AD
:1067800003A9627B00F040FA04B070BD6068002885
:10679000FAD0217A647B03290DD146F00106FF214E
:1067A000CDE900218DF80C608DF80D50621C03A915
:1067B00000F05DF9E8E741B965F07F058DF80C5010
:1067C000FF21CDE900212246F1E7022902D105F09F
:1067D0007F05F3E7012902BF9DF80C1061F03F012E
:1067E0008DF80C10ECE738B502220D4600F10F01D0
:1067F0000446FFF7B6FF38B1A37B33B9237C1B02F5
:106800002B80E27B13432B8038BDE37B1B022B8064
:10681000227CF7E710B50446406810B103689B6816
:106820009847204610BD38B5044690F90E00012166
:1068300080B202F0F1FF94F90E00012180B202F063
:10684000FCFF256835B1284602F0AAF8012084F83B
:10685000340038BD94F90F00012180B202F0DCFF52
:10686000637B94F90F00012B94BF2946012180B26C
:1068700002F0E3FF94F91000421C09D0012180B21C
:1068800002F0CAFF94F91000012180B202F0D5FF96
:1068900094F91100431CD9D0002180B202F0BCFF52
:1068A000D4E700002DE9F04F0446006885B00D469E
:1068B00040B10023009313460A4602F013F905B0D5
:1068C000BDE8F08F237BA068484FB7FBF0F7002BA3
:1068D0000B780CBF4FF0010B4FF0800B1BEA030F3E
:1068E00001EB02030CBF4FF001094FF00009FFB2AA
:1068F0000393039BAB42E2D095F800A05E464FF0B5
:10690000000817B1384601F089FD637B13F0FD0FD5
:1069100041D194F910305A1C0FD01AEA060114BF65
:10692000012300234B4508D06369606A1A68002977
:106930002CD002431A604FF00109A169E36A0A688A
:1069400013430B6017B1384601F068FD94F911301C
:10695000013306D0E3691A68A36A1A4218BF46EAEF
:106960000808A169E36A0A6822EA03030B6094F944
:106970001130013318BF85F80080237B002B32D102
:106980007600F6B2002EBCD10135B2E722EA000251
:106990001A608946D1E7A169E36A0A6813430B606C
:1069A00017B1384601F03AFD94F91030013308D0A0
:1069B0006369616A1A681AEA060F14BF0A438A43B8
:1069C0001A60A169E36A0A6822EA03030B6094F97A
:1069D00011300133CBD0E3691A68A36A1A4218BF99
:1069E00046EA0808C3E77608CCE700BF20A1070005
:1069F00007B501228DF807100DF10701FFF752FFCF
:106A00009DF8070003B05DF804FB2DE9F041044652
:106A100000680E4617461D4610B1616801F0EEFF92
:106A200094F90E00002180B202F007FF069B05EBEF
:106A30000308454508D13744B7420BD016F8011B6F
:106A40002046FFF7D5FFF7E715F8011B2046FFF7B3
:106A5000CFFFEEE794F90E00012180B202F0EDFEC7
:106A6000206808B101F0B0FF0120BDE8F0812DE9F8
:106A7000F041044600689DF81C800E4617461D46EE
:106A800010B1616801F0BAFF94F90E00002180B2E4
:106A900002F0D3FE3744BE420AD1069BEE18AE4246
:106AA0000CD041462046FFF7A3FF05F8010BF6E79F
:106AB00016F8011B2046FFF79BFFECE794F90E0048
:106AC000012180B202F0B9FE206808B101F07CFF1C
:106AD0000120BDE8F0814260002202722022017094
:106AE000C260704710B5037A044653B121786068DC
:106AF00002F096FD606802F09BFDB0FA80F040095C
:106B000010BD012100F003F80028EFD1F8E738B5F7
:106B1000044640680D4602F051FD0120207225B167
:106B20002046BDE83840FFF7DDBF38BD2DE9F8430A
:106B3000DDE908961F46C368154632449A4204466A
:106B4000884602D90020BDE8F8830178406802F049
:106B500067FD7EB9606803682A46DB68414698474E
:106B60008542EFD16068394602F05EFDB0FA80F0F0
:106B70004009E8E7B9F1000FECD0606803683246DD
:106B8000DB68494698478642DCD1E3E72DE9F041CE
:106B9000154604460E46D2B20178406802F02BFD3D
:106BA00085420DD100271FFA87F8A84507F1010794
:106BB00009D2606803685B69984706F80800F2E745
:106BC0000020BDE8F0810120FBE72DE9F8430746EE
:106BD0008846164699460025B54212D2FA68741BBB
:106BE000944228BF1446331BAB4294BF4B4600234C
:106BF000224608EB05013846FFF7C8FF10B12544CF
:106C0000EAE70120BDE8F88373B51D460023CDE90E
:106C100000339DF81C30069E0446FFF787FF40B105
:106C2000012332462946204602B0BDE87040FFF7F6
:106C3000CCBF02B070BD08B5406802F0BBFC0120BB
:106C400008BD00220260C2600022417102617047EB
:106C500010B501238AB0CDE9003302230168044650
:106C60001A4604A8FFF704FD0DF10E0104A8FFF772
:106C7000BAFD2071BDF80E00C00880000AB010BD3A
:106C800010B501228AB0CDE9002204460168022332
:106C900004A8FFF7EDFC0DF10E0104A8FFF7A3FD1A
:106CA0002071BDF90E000AB010BD30B5012591B0BC
:106CB000CDE90055044601680223052204A8FFF728
:106CC000D7FCA168022204A8FFF72DFD216802234A
:106CD0000422CDE900550AA8FFF7CAFC0DF10E0108
:106CE0000AA8FFF780FD2071BDF90E0011B030BD7C
:106CF00030B5012591B0CDE9005504460168022365
:106D0000052204A8FFF7B4FCA168022204A8FFF73B
:106D10000AFD216802230322CDE900550AA8FFF7E6
:106D2000A7FC0DF10E010AA8FFF75DFD2071BDF96A
:106D30000E0011B030BD000008B5FFF7A1FF05F04F
:106D400091FA05A3D3E9002305F0F6FA05F0ECFD6E
:106D500000EE100A08BD00BF7B14AE47E17A843F05
:106D600008B5FFF775FF05F07DFA05A3D3E9002309
:106D700005F0E2FA05F0D8FD00EE100A08BD00BFEC
:106D8000FCA9F1D24D62503F10B50446FFF78DFFCC
:106D900007EE900AB8EEE70AD4ED037AF8EE677AC8
:106DA00080EE270A10BD10B50446FFF7A1FF07EEDD
:106DB000900A94ED040AF8EEE77A27EE800A10BDF7
:106DC00030B54FF480520A238FB0C0E90223012569
:106DD0004FF080430361CDE900550446016802236A
:106DE000052202A8FFF744FCA168022202A8FFF7CF
:106DF0009AFC21680223CDE90055002208A8FFF77C
:106E000037FC022243F69F1108A8FFF78CFC207183
:106E10000FB030BD37B50368044653B91020019157
:106E2000FDF739F9054618B1019A6179FFF753FE6C
:106E3000256020680121FFF76AFE054610B1204653
:106E4000FFF7BEFF284603B030BD30B54FF4005207
:106E500014238FB0C0E9022301254FF07E53036154
:106E6000CDE90055044601680223052202A8FFF778
:106E7000FFFBA168022202A8FFF755FC216802234C
:106E8000CDE90055002208A8FFF7F2FB022240F2EC
:106E90009F1108A8FFF747FC20710FB030BD704765
:106EA0007047000038B50C4605462022002104F149
:106EB000080006F07DF807490B22204606F0BEF8D0
:106EC0000123E360EB68236103236361024B2362C8
:106ED00038BD00BFEFD70B000AD7233C10B51421F3
:106EE0000446FDF7DCF8204610BD000073B50193A1
:106EF000094B03600023C0E9023104461020164606
:106F0000FDF7C9F8054618B1019A3146FFF7E3FDD0
:106F10002046A56002B070BD40D90B001FB500230C
:106F2000CDE900338DF80C108DF80D2001230222DD
:106F300003A98068FFF7FAFD05B05DF804FB08B50A
:106F40000A4601743D21FFF7E9FFBDE808401E2015
:106F500002F080B870B50D4600210446067CFFF7AC
:106F6000EEFF192002F076F8002207212046FFF7F5
:106F7000D5FF85B180223F212046FFF7CFFF0A20B1
:106F800002F068F820463146FFF7D9FFBDE87040AF
:106F9000142002F05FB82A46EDE770B50D460021D7
:106FA0000446067CFFF7CBFF192002F053F82A783D
:106FB00055212046FFF7B2FF2A885621120A2046A3
:106FC000FFF7ACFFAA7857212046FFF7A7FF6A8892
:106FD0005821120A2046FFF7A1FF2A79592120469D
:106FE000FFF79CFFAA885A21120A2046FFF796FF56
:106FF000AA795B212046FFF791FFEA885C21120AFB
:107000002046FFF78BFF2A7A5D212046FFF786FF97
:107010002A895E21120A2046FFF780FFAA7A5F21A3
:107020002046FFF77BFF6A896021120A2046FFF79E
:1070300075FF2A7B61212046FFF770FFAA89622134
:10704000120A2046FFF76AFFAA7B63212046FFF75A
:1070500065FFEA896421120A2046FFF75FFF2A7C58
:1070600065212046FFF75AFF2A8A6621120A204628
:10707000FFF754FFAA7C67212046FFF74FFF6A8A7B
:107080006821120A2046FFF749FF2A7D6921204620
:10709000FFF744FFAA8A6A212046120AFFF73EFF43
:1070A00031462046BDE87040FFF749BF1FB50122B9
:1070B0000023CDE9002303AB8DF80C10806819463E
:1070C000FFF7A2FD9DF80C0005B05DF804FB70B55C
:1070D00004460E4680680121FFF719FD054610B9E8
:1070E0000025284670BD00212046FFF7DFFFA028BD
:1070F00013D100212046FFF722FF20223F21204606
:10710000FFF70CFF1E2001F0A5FF00212046FFF72E
:10711000CDFFA0280CD00A20F5E74FF47A7001F0DB
:1071200099FF00212046FFF7C1FFA028D8D1E0E752
:10713000322001F08FFF00223E212046FFF7EEFEB5
:107140000A2001F087FF002207212046FFF7E6FE14
:1071500000223F212046FFF7E1FE0A2001F07AFFDE
:1071600020463146FFF7EBFE142001F073FFB8E72D
:10717000F8B50F4616460721002204461D46FFF7C4
:10718000CDFE27B139212046FFF790FF387026B198
:1071900036212046FFF78AFF307025B13A2120467C
:1071A000FFF784FF2870BDE8F840C82001F052BF07
:1071B000F8B50E463521069F15461C46FFF776FFAB
:1071C0000EB18309337015B1C0F301132B7014B1E4
:1071D000C0F38103237017B100F003003870F8BDCD
:1071E0001FB504460DF10F0300930DF10D020DF1D3
:1071F0000E0303A9FFF7DCFF237C013B092B17D803
:10720000DFE803F00522101E0C13160C1E109DF86B
:107210000E00C31E5842584104B010BD9DF80E30F8
:10722000032B14D19DF80D00F3E79DF80F30F7E71D
:107230009DF80C30032B0AD19DF80D30032B06D19D
:107240009DF80E30032B02D19DF80F00E1E70020DE
:10725000E2E72DE9F04104460D46FFF7C1FF06467F
:10726000002800F091800021204694F81080FFF75C
:1072700066FE192001F0EEFE56212046FFF716FFAC
:10728000552107462046FFF711FF40EA07202880D6
:1072900058212046FFF70AFF572107462046FFF7EF
:1072A00005FF40EA072068805A212046FFF7FEFECE
:1072B000592107462046FFF7F9FE40EA0720A8803B
:1072C0005C212046FFF7F2FE5B2107462046FFF7D0
:1072D000EDFE40EA0720E8805E212046FFF7E6FE4B
:1072E0005D2107462046FFF7E1FE40EA072028819E
:1072F00060212046FFF7DAFE5F2107462046FFF7B0
:10730000D5FE40EA0720688162212046FFF7CEFEC5
:10731000612107462046FFF7C9FE40EA0720A88101
:1073200064212046FFF7C2FE632107462046FFF78F
:10733000BDFE40EA0720E88166212046FFF7B6FE41
:10734000652107462046FFF7B1FE40EA0720288264
:1073500068212046FFF7AAFE672107462046FFF76F
:10736000A5FE40EA072068826A212046FFF79EFEBC
:10737000692107462046FFF799FE40EA0720A882C8
:1073800041462046FFF7DBFD3046BDE8F0811FB5E2
:107390008DF80C100021CDE90031134603A901221C
:1073A0008068FFF731FC05B05DF804FBF7B50E46C9
:1073B000154600211822044605F0FAFD002300932B
:1073C000ADF80430304606236A462946FFF7DFFF52
:1073D0001A2DBDF90000BDF90270BDF904600DD091
:1073E00008D80E2D0AD0142D08D0082D21D0204603
:1073F00003B0F0BD282D1CD02E2DF7E704F032FF8E
:10740000184B002204F098FFC4E90001384604F04C
:1074100029FF144B002204F08FFFC4E9020130461B
:1074200004F020FF0F4B002204F086FFC4E90401A2
:10743000DDE704F017FF0C4B002205F0A7F8C4E9C4
:107440000001384604F00EFF074B002205F09EF8BD
:10745000C4E90201304604F005FF034B002205F0A9
:1074600095F8E3E70000B03F0000594030B50C4606
:1074700087B0054620220021201D05F099FD242318
:107480002360EB6863600323A36000F0CFFF1A2240
:10749000206129466846FFF789FFDDE9000105F014
:1074A00043FA6061DDE9020105F03EFAA061DDE921
:1074B000040105F039FAE061012007B030BD002970
:1074C000F0B566DBB0F90C408C4262DD002A60DB6F
:1074D000B0F90E4094425CDD847E022C5AD0032C1D
:1074E00061D0012C04D10489D24314440A4621B24C
:1074F000B0F938408C42A8BF0C460487B0F93A4036
:107500009442A8BF14464487B0F93C408C42B8BFAF
:107510000C468487B0F93E409442B8BF1446C487F5
:1075200090F84C40012C16D1012B42D0022B51D0A7
:107530008BB9002A0589476B1446B8BFD41DE410E7
:1075400014FB051402F00706012505FA06F63D5D59
:1075500025EA06053D5590F84C40042C19D10489C4
:1075600014FB02F202EBD27401EBD17242F34F0230
:1075700002EB6402446BA05CC9074BBF03F00F032E
:1075800000F00F0020F00F0040EA031348BF034350
:10759000A354F0BD0489013C611A4489D2432244BA
:1075A00009B212B2A4E74489013C641A114622B21E
:1075B0009EE7002A0589466B1446B8BFD41DE41027
:1075C00014FB051402F007070125BD40375D3D435C
:1075D0003555C0E7002A0589466B1446B8BFD41D4F
:1075E000E41014FB051402F007070125BD40375DC8
:1075F0007D40EDE738B50D46114604461AB209B292
:1076000000F098FA069A0B4BE262079A2360002377
:10761000C4E90933C4E90C234FF0FF33C4E9103344
:107620009DF91430A364049B84F84C5023652046D4
:1076300038BD00BF5CD90B0038B50C4B0360044665
:10764000406B18B101F02EF900236363656A35B110
:107650002846FFF7DFF838212846FCF720FDA06A0E
:1076600010B11021FCF71BFD204638BD5CD90B0082
:1076700030B587B0856A8DF80F1004467DB10023C0
:10768000CAB2CDE900338DF814308DF815200123EE
:10769000022205A92846FFF749FA07B030BD29465E
:1076A000B0F8400002F0C9F8606A00952B4601224C
:1076B0000DF10F01FFF7A9F9EFE7002914BFA7218A
:1076C000A621FFF7D5BFF0B5856A85B004460E4602
:1076D000174665B100230DF10F008DF80F3001231F
:1076E000009001932846FFF721FA05B0F0BD294626
:1076F000B0F8400002F0A1F8606A00952B463A46C7
:107700003146FFF782F9F0E710B5B0F90A100389A6
:1077100090F84C2012FB03F2CB1D48BF01F10E0381
:10772000DB1004465A43406B002105F041FC002366
:10773000A3632389013BA3876389013BE38710BDD2
:1077400070B5436B04460E4615460BB3002D33D17E
:10775000236D002B50D01020FCF79DFC054618B17E
:10776000226D3146FFF7B7F9A5621DB30121284606
:10777000FFF7CDF9F0B12046FFF7C6FF0023A36362
:107780002389013BA3876389013BE387012012E042
:107790002389B4F90A2090F84C0010FB03F0D31DA4
:1077A00048BF02F10E03DB10584301F073F8606329
:1077B0000028CBD1002070BDA06C0028C8DB0121BF
:1077C00080B202F029F8B4F84800012102F035F83F
:1077D0000A2001F03FFCB4F84800002102F02DF827
:1077E0000A2001F037FCB4F84800012102F025F826
:1077F0000A2001F02FFCABE7606A0028DAD0FFF71F
:1078000012F80028D6D0B4F84000012102F004F8A4
:10781000B1E707B581238DF80510022201A98DF883
:107820000430FFF750FF03B05DF804FB2DE9F04F83
:1078300085B01F46BDF93880BDF83C30A8EB020981
:10784000A7EB010AB9F1000FB8BFC9F10009BAF1FD
:10785000000FB8BFCAF1000AD14583460C46154651
:1078600004DD3A462C4647460D469046BC4205DDAF
:107870002A464546904622463C4617463E1BB2B233
:107880000092A8EB050282EAE271A1EBE271C6F375
:10789000C03202FA86F64545B4BF01224FF0FF32EE
:1078A000019176100292BC421CDCDBF800200393AD
:1078B000D145D2F81880C7BF294622462A4621461C
:1078C0005846C047019A039BB61AB1B236B2002E91
:1078D00005DA029A1544009A56182DB236B20134D0
:1078E00024B2E0E705B0BDE8F08F704710B404683B
:1078F0002469A4465DF8044B604730B40468BDF8C1
:1079000008500295A46BA44630BC604730B40468AC
:10791000BDF808500295E46BA44630BC604770B4D3
:10792000BDF90C50BDF810600468CDE90356246C15
:10793000A44670BC60472DE9F3411C460368BDF8BE
:1079400020805B6905461646013C34440F4624B24C
:1079500098472B68CDF8048000949C6A28463B46E3
:1079600032463946A0472B68DB6A284602B0BDE89C
:10797000F04118472DE9F3411D460368BDF820800A
:107980005B69044617460E469847CDE900782268A1
:107990006B1E3344956A20461BB23A463146A847CF
:1079A0002368DB6A204602B0BDE8F04118472DE9A4
:1079B000F3471E460368BDF928905B69BDF82C802B
:1079C0000C460546174698472644B4422B680BDA06
:1079D000CDF80080D3F820A021464B463A462846F1
:1079E0000134D04724B2F0E7DB6A284602B0BDE894
:1079F000F047184713B502680191B0F90E100091D5
:107A0000146CB0F90C3000221146A04702B010BD32
:107A10002DE9F74399421646BDF92870BDF82C9020
:107A2000026880460D461C4613D1BE42C8BF33468D
:107A3000CDF82890C4BF3E461F467B1C946B9B1B11
:107A40001BB2324629464046A44603B0BDE8F04387
:107A50006047BE420AD19942C2BF0B4625461C462A
:107A6000631CCDF82890D46B5B1BE9E753699847FA
:107A7000CDE90079D8F8003040469F6A3246234667
:107A80002946B847D8F80030DB6A404603B0BDE865
:107A9000F04318472DE9F3471D460368BDF82C80D5
:107AA0005B69BDF9289004460F461646984723683F
:107AB000CDF80080D3F824A032462B463946204624
:107AC000D0472368CDF8008009F1FF323244D3F863
:107AD00024A039462B46204612B2D0472368CDF861
:107AE0000080D3F820A032464B4639462046D04786
:107AF0006B1ED9192368CDF800801D6A20464B46BD
:107B0000324609B2A8472368DB6A204602B0BDE8C6
:107B1000F0471847704701F00303B0F90A20837655
:107B2000C907B0F9083059BF8381C2818281C381FE
:107B30007047000030B54281C281074A074D01817C
:107B4000002481814FF0FF31C0E9051244600560D7
:107B500004610477046230BD01010001B8DE0B004E
:107B60002DE9F04F89B0CDE902120268BDF94880D5
:107B70000493BDF94C3052690593BDF850A00446FA
:107B8000904718F107024FF0000648BF08F10E02B7
:107B90004FEAE20B01963546039B019ABDF90410AA
:107BA0009A18059B8B4212B227DD049B33444FF099
:107BB000000906930FFA89F080451FFA89F117DD55
:107BC0004F0705BF069BC0106D001D5C18BFEDB2CE
:107BD0002B060AD5029B206807921944836909B2D3
:107BE0001F4620465346B847079A09F10109E1E7C5
:107BF000019B013301935E44CEE72368DB6A204694
:107C000009B0BDE8F04F18472DE9F04F2DED028B7C
:107C100091B01646026ABDF874809DF878509DF8C0
:107C20007C4003911F46BDF8703004938346002AC0
:107C300040F0C580B0F90C308B4240F34C81B0F974
:107C40000E30B34240F34781062313FB0513002B8C
:107C500040F3418106EBC403002B40F33C81037FDA
:107C60001BB9AF2F84BF0137FFB2DBF80030584695
:107C70005B6998470522099200220592984A07EB12
:107C80008703D3180C93B3B20693059A0C9B9B5CA5
:107C90000793ABB20B93BDF80C300893039B02FB28
:107CA00005F919FA83F90FFA89F308EE103A082357
:107CB0000A93039B02EB030A4FF000090FFA8AFABA
:107CC000079ADBF80030D20752D5012D1FFA89F24E
:107CD0003ED1012C3CD19B6906991F46049B0A4466
:107CE00012B251465846B84709F101034FFA83F9D9
:107CF000079B5B0807930A9B013B13F0FF030A9362
:107D0000DED1059F01377BB20593099B013B13F040
:107D1000FF030993B9D1049B43450FD0012DDBF834
:107D200000303BD1012C39D10899CDF800800531C4
:107D30001C6A3246082309B25846A047DBF80030D7
:107D4000DB6A584611B0BDEC028BBDE8F04F184716
:107D5000069914FB02F20A44049901910094DB692C
:107D600018EE101A1F4612B22B465846B847BBE70A
:107D7000049A4245B8D0012D1FFA89F207D1012C8F
:107D800005D19B6906991F460A444346A8E7069910
:107D9000CDF8048014FB02F20A44DFE70B9ACDF819
:107DA000048002EB8201089AE4000A441146009420
:107DB000DC6932462B4609B25846A047BEE7137A23
:107DC000516812680B92FF1AFFB201EBC70331F83A
:107DD000372006929A780992DA780C92012D93F95D
:107DE000052093F906A00A9201D8012C57D9BDF9B4
:107DF000283008930FFA8AF30793DBF800305846CF
:107E00005B699847B3B24FF000080E931AFA86F3F5
:107E1000C14647460F930C9B9F428FD2079B0E9AF9
:107E20003B4403FB0423002205920F9A1BB202EB92
:107E3000070A08EE103A0FFA8AFA4346099A05999A
:107E4000914241D25A1CD2B25B070D9207D1069BD8
:107E500006990B9A01339BB212F80190069319F020
:107E6000800F12D0012DDBF80030BDF80C101AD1B4
:107E7000012C18D10A9A9B691144059A11441E4697
:107E80005246049B09B25846B047059E0136F3B2EC
:107E90004FEA490905935FFA89F90D9BCEE7002364
:107EA000CDE90733A9E70598089A024402FB0511BA
:107EB000049ACDE90042DB6918EE102A1E4609B289
:107EC0002B465846B047E0E7099B013798445FFAD4
:107ED00088F8FFB29FE711B0BDEC028BBDE8F08FD0
:107EE000B0D90B00F0B5026A85B004460B46002AF3
:107EF00034D10A2908D1438A0282427E03EBC203AD
:107F00006382012005B0F0BD0D29FAD0E17E007E2C
:107F1000657E71B1B4F91060062111FB0061B4F9FE
:107F20000C60B142C1BFB4F91210228201EBC5024C
:107F30006282E28A0192A28A0092CDE90205B4F936
:107F40001220B4F910102046FFF75EFE237E228A2D
:107F500003EB430302EB43032382D2E70A2907D151
:107F600000230382417E127B438A01FB0233C7E771
:107F70000D29C6D0157AA942C3D3917A9942C0D3AC
:107F800051685D1BEDB201EBC505A87828B3E9780F
:107F900019B3E17E267E677E91B195F905100844FC
:107FA000B4F9101006FB0011B4F90C00814207DD92
:107FB00000202082B4F91210127B02FB07126282A9
:107FC000E28A0192A28A0092CDE90267B4F91220F6
:107FD000B4F910102046FFF717FE2979227E238A74
:107FE00001FB0233B8E7012938BF01210176417650
:107FF00070472DE9F04F04468BB000F047FAB4F912
:108000000A30B4F93A50B4F9087094F83890DA1D8F
:1080100048BF03F10E0240238DF82330C2F3C7039B
:108020000393A36ADB68013B9BB20493B4F93C3031
:10803000FFB2002DB8BF073523EAE373B94507F156
:108040000102C5F3C70528BFB94652FA83F305FB01
:10805000079A06934FF0000B039B9D426BD2636B14
:10806000268994F8542003EB0A08069B4A449E1B79
:10807000A36A1111A6EB0906A5F15000F6B2C0B231
:10808000103102F00F02002B35D08DF825008DF84D
:1080900026101846E16A8DF827208DF824B0FEF7E7
:1080A000CAFD0123CDE900BBA06A042209A9FEF79D
:1080B0003DFD9DF810300593A06AAEB1059BB3421B
:1080C00028BF33461A46012301930DF12303009381
:1080D000414601230792FEF729FD079AB61A9044FC
:1080E000F6B200F0D3F9E7E7216BFEF7A4FD013506
:1080F000EDB2BA44B0E78DF824008DF82510B4F83D
:1081000040008DF826201946059301F096FB059B4B
:108110000093032209A9606AFEF777FCB4F84000D7
:10812000012101F08AFB059B606A009332464146BB
:10813000FEF76BFCDBE74FF004224FF0FF33C4E99E
:108140000E230BB0BDE8F08F30B585B004460A9D14
:108150000395099D02959DF92050CDE90035134600
:108160000A460121FFF746FA034B2360204600230D
:1081700084F8543005B030BD10DF0B0010B5034B50
:1081800003600446FFF758FA204610BD10DF0B00CD
:1081900010B5034B03600446FFF7F0FF204610BD07
:1081A0004CE10B0010B50446FFF7F2FF20465821C2
:1081B000FBF775FF204610BD30B585B004460A9D1B
:1081C0000295099D01959DF920500095FFF7BCFF90
:1081D000024B2360204605B030BD00BF4CE10B00D0
:1081E00030B5044685B0FFF7ABFA2F212046FFF7E4
:1081F00010FBA2682F4B9A4221D1236801211B6BEF
:1082000020469847B4F90820B4F90A102023203AF0
:1082100073390125CDE9013502EBD272732301EBED
:10822000D171009341F34F01234B204642F34F029B
:10823000FFF796FC236800211B6B20469847A36834
:10824000B3F1801F17D1B4F90820B4F90A10202324
:108250000120203A7339CDE9013002EBD272732349
:1082600001EBD171009342F34F02134B41F34F01E5
:108270002046FFF775FC114916222046FFF723FA26
:10828000054618B90025284605B030BDA368B3F1EE
:10829000801F07D0642000F0DDFEAF212046FFF7ED
:1082A000E7F9F0E7064904222046FFF70CFA002818
:1082B000F0D1E7E74000800064DF0B00A4E10B0091
:1082C000A0E10B00002202600271704773B5054601
:1082D00010200E460192FBF7DEFE044618B1019A0B
:1082E0003146FEF7F8FB012120462C602E7102B0CA
:1082F000BDE87040FEF70BBC30B585B00B0A8DF8B9
:108300000C300023CDE9003305468DF80D108DF8B3
:108310000E2000680123032203A9FEF707FC60B1C9
:108320006524013C14F0FF0407D02868FEF7DAFB4F
:1083300020B9012000F08EFEF3E7002005B030BD2B
:108340001FB50B0A00228DF80C300123CDE9003255
:1083500003AB8DF80D10006802221946FEF754FC9D
:1083600008B19DF80C0005B05DF804FB08B5024BA0
:108370001B689B68019308BD6802030008B5024BA7
:108380001B68DB68019308BD6802030008B5024B57
:108390001B685B68019308BD2C02030008B5024B03
:1083A0001B689B68019308BD2C02030008B5024BB3
:1083B0001B68DB68019308BD2C02030008B5024B63
:1083C0001B681B69019308BD2C02030008B5024B12
:1083D0001B685B69019308BD2C02030008B5024BC2
:1083E0001B689B69019308BD2C02030008B5024B72
:1083F0001B68DB69019308BD2C02030008B5024B22
:108400001B681B6B019308BD2C02030008B5024BCF
:108410001B685B68019308BD1802030008B5024B96
:108420001B68DB68019308BD1802030008B5024B06
:108430001B685B69019308BD1802030008B5024B75
:108440001B689B6A019308BD1802030008B5024B24
:108450001B685B6C019308BD1802030008B5024B52
:108460001B689B6C019308BD1802030008B5024B02
:108470001B689B6D019308BD1802030008B5024BF1
:108480001B685B6E019308BD1802030008B5024B20
:108490001B68DB68019308BD4802030008B5024B66
:1084A0001B685B6C019308BD4802030008B5024BD2
:1084B0001B685B69019308BD6402030008B5024BA9
:1084C0001B68DB68019308BD3C02030008B5024B42
:1084D0001B681B69019308BD3C02030008B5024BF1
:1084E0001B685B69019308BD3C02030008B5024BA1
:1084F0001B689B69019308BD3C02030008B5024B51
:108500001B68DB69019308BD3C02030008B5024B00
:108510001B681B6A019308BD3C02030008B5024BAF
:108520001B689B6A019308BD3C02030008B5024B1F
:108530001B681B6C019308BD3C02030008B5024B8D
:108540001B681B68019308BD2802030008B5024B95
:108550001B68DB68019308BD2802030008B5024BC5
:108560001B689B69019308BD2802030008B5024BF4
:108570001B68DB69019308BD2802030008B5024BA4
:108580001B681B6A019308BD2802030008B5024B53
:108590001B685B6A019308BD2802030008B5024B03
:1085A0001B689B6A019308BD2802030008B5024BB3
:1085B0001B68DB6A019308BD2802030008B5024B63
:1085C0001B681B6B019308BD2802030008B5024B12
:1085D0001B685B6B019308BD2802030008B5024BC2
:1085E0001B681B6C019308BD2802030008B5024BF1
:1085F0001B681B6D019308BD2802030008B5024BE0
:108600001B681B68019308BD3002030008B5024BCC
:108610001B685B69019308BD3002030008B5024B7B
:108620001B68DB69019308BD3002030008B5024BEB
:108630001B681B6A019308BD3002030008B5024B9A
:108640001B685B6A019308BD3002030008B5024B4A
:108650001B689B6A019308BD3002030008B5024BFA
:108660001B689B6B019308BD3002030008B5024BE9
:108670001B68DB6B019308BD3002030008B5024B99
:108680001B681B6C019308BD3002030008B5024B48
:108690001B685B6C019308BD3002030008B5024BF8
:1086A0001B681B68019308BD4C02030008B5024B10
:1086B0001B685B68019308BD4C02030008B5024BC0
:1086C0001B681B69019308BD4C02030008B5024BEF
:1086D0001B685B69019308BD4C02030008B5024B9F
:1086E0001B689B69019308BD4C02030008B5024B4F
:1086F0001B68DB69019308BD4C02030008B5024BFF
:108700001B681B6A019308BD4C02030008B5024BAD
:108710001B685B6A019308BD4C02030008B5024B5D
:108720001B685B6B019308BD6002030008B5024B38
:108730001B681B68019308BD2002030008B5024BAB
:108740001B685B68019308BD2002030008B5024B5B
:108750001B685B69019308BD2002030008B5024B4A
:108760001B689B6D019308BD2002030008B5034BF5
:108770001B68D3F88830019308BD00002002030075
:1087800008B5034B1B68D3F89430019308BD000073
:108790002002030008B5024B1B685B68019308BD0B
:1087A0004002030008B5024B1B689B68019308BD9B
:1087B0004002030008B5024B1B68DB68019308BD4B
:1087C0004002030008B5024B1B681B69019308BDFA
:1087D0004002030008B5024B1B685B69019308BDAA
:1087E0004002030008B5024B1B689B69019308BD5A
:1087F0004002030008B5024B1B68DB69019308BD0A
:108800004002030008B5024B1B681B6A019308BDB8
:108810004002030008B5024B1B681B6B019308BDA7
:108820004002030008B5024B1B685B6B019308BD57
:108830004002030008B5024B1B681B6C019308BD86
:108840004002030008B5024B1B685B6C019308BD36
:108850004002030008B5024B1B689B68019308BDEA
:108860004402030008B5024B1B685B69019308BD15
:108870004402030008B5024B1B681B6B019308BD43
:108880004402030008B5024B1B68DB6B019308BD73
:108890004402030008B5024B1B681B68019308BD26
:1088A0001C02030008B5024B1B685B68019308BDFE
:1088B0001C02030008B5024B1B689B68019308BDAE
:1088C0001C02030008B5024B1B685B6A019308BDDC
:1088D0001C02030008B5024B1B68DB6B019308BD4B
:1088E0001C02030008B5024B1B681B6C019308BDFA
:1088F0001C02030008B5024B1B685B6C019308BDAA
:108900001C020300002240681146FFF77BBF0022D3
:1089100040681146FFF786BF40680022FFF77ABF24
:108920004068002281F00101FFF764BF0023406826
:108930001A461946FFF756BF002340681A461946E3
:10894000FFF748BF002240681146FFF73BBF0022F7
:1089500040681146FFF726BF406800220221FFF75A
:1089600029BF002340681A46FFF714BF024B0322B9
:108970005A60024A1A60704794E60320C4E10B0073
:108980000021FFF783BE0021FFF778BE10B5044633
:1089900008462170FFF742FE00236360204610BDA9
:1089A00013B504460078FFF7EEFF58B92078019020
:1089B0004FF6FF71FFF722FE019802B0BDE81040AC
:1089C000FFF7DEBF02B010BD0078FFF7D9BF00008F
:1089D000400830B51860002418688842E5B206D90E
:1089E0000134082C02D040081860F5E70725024B37
:1089F0005B5D137030BD00BFF8E10B002DE9F04363
:108A000006468FB000780C46FFF7BDFF00281BDB41
:108A100035781422002109A804F0CAFA0B23002299
:108A200009A92846ADF82430FFF708FE9DF82D303F
:108A300013B19DF82C5055B10027B946B846012511
:108A400023795DB1C3B100200FB0BDE8F083DDF83C
:108A500030809DF834909DF83570F1E7002B35D1CA
:108A6000A368434508D18DF820908DF82170BDF89A
:108A70002020A3899A42E6D00023A1688DF80F3008
:108A80000A9804AB0DF10F02FFF7A2FF217985B917
:108A900089B9A36843450ED38DF820908DF82170D5
:108AA000BDF82020A3899A4205D1049B434502D1F9
:108AB000C9E70029F9D100230193637B00939DF856
:108AC0000F20237B3078FFF7D1FDBCE7CDE90055BF
:108AD0002B462A460121F5E708B50078FFF796FDF9
:108AE000C0B208BD30B587B004460A9D0095007835
:108AF000FFF7ACFD3DB9207802A9FFF7AFFD9DF867
:108B00001430DB07F7D407B030BD0000054B02225C
:108B10001A60054B054A9A600020C3E90000FFF780
:108B20000DBE00BFA8E603209CE603200000FFFF67
:108B300010B504460068FFF7B5FE204610BD10B51D
:108B40000446006808B1FFF7ADFE0023C4E9013315
:108B5000236010BD38B504460D4600680131FFF7AB
:108B6000A9FE10B1C4E90005012038BD10B50368A5
:108B7000044623B143688B4201D3012010BD204637
:108B8000FFF7E8FF0028F9D0A368002BF5D1226891
:108B90001370F2E737B50D46114601920446FFF710
:108BA000E5FF019A28B92046FFF7C9FF204603B028
:108BB00030BDA2602946206804F0ECF92268A36861
:108BC0000021D154F2E7002313B5C0E90033044675
:108BD0008360037341B10846019104F027FA0199BB
:108BE00002462046FFF7D6FF204602B010BD38B53A
:108BF000054600680C4668B16A688B689A4207D3DC
:108C0000096804F00BFAA368AB600023A36038BDC9
:108C1000FFF748FE23682B6063686B60A368AB6056
:108C20000023C4E90033F1E7884210B5044601D0BF
:108C3000FFF7DDFF204610BD13B5044659B10846C5
:108C4000019104F0F3F9019902462046FFF7A2FFD3
:108C5000204602B010BDFFF772FFF9E7024800237B
:108C60000360FFF71BBC00BFACE60320F8B5064667
:108C70000D468F180024BD420CD0336815F8011B37
:108C80009B6830469847031E01DB1C44F3E7002C29
:108C900008BF1C462046F8BD13B50446084659B126
:108CA000019104F0C3F923680199DB68024620466C
:108CB00002B0BDE81040184702B010BD08B5FFF77C
:108CC000EBFF08BD03689B68184738B50D210546C2
:108CD000FFF7F8FF0A2104462846FFF7F3FF204478
:108CE00038BD38B50546FFF7D7FF04462846FFF7DD
:108CF000ECFF204438BDFFF7F4BF30B58BB0002344
:108D0000012A8DF8243098BF0A2209AC0D46B1FB28
:108D1000F2F101FB125303F0FF03092B94BF303330
:108D20003733DBB2AA4204F8013DEFD92146FFF701
:108D3000B3FF0BB030BD2DE9F04393B000219DF897
:108D400068908DF84410B9F1010F054698BF4FF0B7
:108D50000A0911AE174698464A460023384641464E
:108D600003F090FF0B4609FB107101F0FF01092988
:108D700094BF30313731C9B24F4506F8011D78F143
:108D800000010246E6D231462846FFF785FF13B0C0
:108D9000BDE8F0832DE9F74F55EC104B06460F4622
:108DA00010EE102A10EE100A2B46294603F05EFD45
:108DB00040B153493046FFF76FFF8246504603B03B
:108DC000BDE8F08F25F000494E4B4FF0FF322046B2
:108DD000494603F04BFD48B94A4B4FF0FF3220465D
:108DE000494603F025FD08B94749E3E7474B4FF0F3
:108DF00060422046294603F02FFD08B14449D9E7D7
:108E0000444B4FF060422046294603F007FD0028FE
:108E1000F4D1002200232046294603F0FFFCD0B104
:108E20002D213046FFF74EFF05F1004382461D46D7
:108E30003949DFF8EC904FF0000B00204FF00008AC
:108E40005FFA8BF39F4208D942464B4603F09EFBE4
:108E50000BF1010BF4E78246EAE722462B4603F0CA
:108E6000B5F80D46044603F03FFD804603F0EAF9ED
:108E700002460B462046294603F0A6F80A2204467D
:108E80000D4630464146FFF738FF8244002F95D00B
:108E90002249DFF88C903046FFF7FEFE4FF00008C5
:108EA0008244002F8AD042464B462046294603F092
:108EB00043FA04460D4603F0EFFCB0F1000B1CDA58
:108EC0002D213046FFF7FEFECBF1000103460A22BA
:108ED00030460193FFF711FF019B18448244584626
:108EE00003F0C0F902460B462046294603F06CF811
:108EF000013F04460D46FFB2D3E759460023E6E79B
:108F000000E20B00FFFFEF7F04E20B00FFFFEF41E9
:108F100008E20B00FFFFEFC10000E03FCED70B00DF
:108F20000000244038B5044610EE100ACDB203F01C
:108F3000ABF941EC100B29462046BDE83840FFF75D
:108F400029BF2DE9F04186B000AF05460E46381D19
:108F5000142114463B60FFF7B5FC13280ED8391DC9
:108F60002846FFF799FE04461EB12846FFF7ADFEDE
:108F7000044420461837BD46BDE8F08100F10803DF
:108F800023F00703E846ADEB030D2246411C3B6886
:108F90006846FFF797FC69462846FFF77DFE0446C2
:108FA000C546E1E7014B024A1A607047B0E603206C
:108FB0000CE20B0008B50020FFF75CFC28B1FFF7BE
:108FC00051FC80F00100C0B208BD0120FCE710B5E3
:108FD0000020FFF74BFA0446A0B9FFF7A7FB0128D2
:108FE00010D12046FFF7BAFB60B9FFF7E3FF10B9D5
:108FF000FFF730FCF9E7FFF7DDFFBDE81040002088
:10900000FFF734BA204610BD1FB5FFF7E0FF10226E
:109010000021684603F0CCFF00216846FFF72EFAD6
:10902000009805B05DF804FB024B1A68024B1A6009
:10903000704700BF40E40320B4E603208A4210B525
:1090400007D0441A0298C01A4443501A94FBF0F017
:10905000184410BD0021FFF779BB0000014B00222E
:109060009A607047B8E60320014B1860704700BF54
:1090700048E4032008B50B4B43B100F06DF90368D9
:109080001B699847002801DDAFF30080064B43B110
:1090900000F032FC03681B699847002801DDAFF33C
:1090A000008008BD000000000000000008B5FFF7C8
:1090B000E1FFFFF7BBF9014B186008BD38E703205B
:1090C0000548064A064908B5121A03F063FF054B26
:1090D000054A1A6008BD00BF00F4032004F4032011
:1090E00098E80B0000F403201E1C279A07B5002304
:1090F00000931A466FF07701FFF742FB03B05DF86B
:1091000004FB000007B543880A2B08D0502B0BD175
:10911000094B1B684BB103B05DF804EB1847FFF730
:10912000E5FF03B05DF804FB002300931A466FF0DF
:109130007701FFF725FBF4E7CCE6032010B51248D2
:109140000021FFF7D7FB114B1A68114B9A42114BC4
:109150000CBF012200221A7001D0FFF7B1FFFFF708
:1091600055F9044603F02CFF0B4B13B12046AFF327
:10917000008000210848FFF785FBBDE81040074844
:109180000021FFF7F3BA00BF69900B0000F4032041
:109190001E1C279AC8E603200000000005910B0062
:1091A000704710B518210446FAF779FF204610BD24
:1091B000F0B5037D062B8DB00E4600F104074FF08D
:1091C000000412D000F1080515F8011D0A223046EE
:1091D000FFF793FDAF42044419D0002CF4D02E21A8
:1091E0003046FFF76FFD0444EEE72F236A46394609
:1091F0000A208DF80040FFF759F9684603F016FF82
:1092000033680246DB686946304698470446204684
:109210000DB0F0BD10B5054B0446112240F8043BDB
:10922000002103F0C5FE204610BD00BF34E20B0054
:109230000346074A10B543F8042B01F1100251F818
:10924000044B43F8044B9142F9D10A781A7010BDCF
:1092500034E20B0010B59DF8084044EA032343EACA
:10926000024242EA016104234160037510BD00001F
:1092700007B5064B0360CB7800938B784A78097862
:10928000FFF7E8FF03B05DF804FB00BF34E20B001A
:10929000417470477047704708B50021007CFFF7A4
:1092A0001DFA40EAE07008BD08B50121007CFFF717
:1092B00015FA40EAE07008BD08B5007CFFF706FA31
:1092C00020EAE07008BD08B5007CFFF7F7F920EA56
:1092D000E07008BD13B50446007C0191FFF7F6F974
:1092E0000028019901DC607C20B1207CFFF7FEF9A9
:1092F00020EAE07002B010BD007CFFF7FFB910B5A6
:1093000014210446FAF7CBFE204610BD10B54FF4E9
:109310007A73044608460021C4E90113044B236014
:109320000123207463741146FFF7B8F9204610BD7D
:1093300048E20B00007C0022FFF7B8B9007CFFF781
:10934000E5B9FFF7FBBF10B514220446002103F076
:109350002FFE204610BD000010B50F4C88B003A8AA
:10936000FFF7F1FF2178BFF35B8F11F001010FD1FF
:1093700020460191FAF7A0FE019948B103AA0748D7
:10938000FFF7C4FF2046FAF79CFE054803F0FCFDFA
:10939000024808B010BD00BFD0E60320D4E6032089
:1093A00095920B00004700002DE9FF4100241D4667
:1093B0000F4690460646FFF719F8A5424FF0040302
:1093C000ADF80D408DF80C308DF80F40A2BF9DF820
:1093D00028308DF80E3003AC0749009443463A46D6
:1093E0003046A8BF8DF80D50FEF7F8FFB0FA80F0B8
:1093F000400904B0BDE8F081A5930B00002240684D
:109400001146FFF7DFB9002240681146FFF7FAB9AD
:10941000002240681146FFF705BA40680022FFF7B6
:10942000F9B94068002281F00101FFF7E3B9002398
:1094300040681A461946FFF7D5B9002340681A4616
:109440001946FFF7C7B9002240681146FFF7AAB9CD
:10945000406800220221FFF7ADB9002340681A4698
:10946000FFF798B9084B10B528242246184600216A
:1094700003F09EFD054B04804FF0FF324260042252
:109480005A60034A1A6010BDF0E60320E8E60320A4
:1094900078E20B0070474174704708B5007CFFF715
:1094A0003DF820EAE07008BD08B5007CFFF70EF833
:1094B00020EAE07008BD08B5007CFFF717F840EA25
:1094C000E07008BD08B5007CFFF708F840EAE070DE
:1094D00008BD007CFFF712B837B5457C04462DB1B6
:1094E000207C03B0BDE83040FEF7E8BF007C01916E
:1094F000FFF714F800280199F2DC284603B030BDCC
:1095000010B514210446FAF7CAFD204610BD00002C
:1095100010B54FF47A730446084611460022C4E998
:109520000123044B2360012320746374FEF7FEFFC4
:10953000204610BDB4E20B007047F8B5064615464C
:109540000C468F18BC4206D0336814F8011B9B6888
:1095500030469847F6E72846F8BD007C0022FFF722
:109560000DB8007C0021FFF711B8007C0021FFF747
:1095700015B8007C0021FFF719B8007C0021FFF727
:109580001DB810B514210446FAF789FD204610BD18
:1095900010B54FF47A73044608460021C4E901135C
:1095A000034B236020741146FFF718F8204610BDC6
:1095B000E4E20B00007C0022FEF7C0BF0023007C29
:1095C0001A461946FEF7C2BF7FB500221423CDE923
:1095D0000122ADF804300B788DF808304B68039306
:1095E000CB680493007C0B7A059301A9FEF7FEFF7C
:1095F00007B05DF804FB1FB5003B8DF800104FF07D
:109600006401039118BF0123694601928DF8083067
:10961000FFF7DAFF05B05DF804FB0123FFF7EBBFAE
:10962000007C0022FEF79ABF007C0022FEF79EBF5E
:109630000121FFF7F9BF002340681A46FFF7AAB8D7
:10964000406800220221FFF7B5B8002240681146A9
:10965000FFF7A8B8002240681146FFF7B3B800230F
:1096600040681A461946FFF7B5B8002340681A4605
:109670001946FFF7B7B840680021FFF7DBB840682C
:109680000021FFF7DFB84068002281F00101FFF7F9
:10969000B1B840680022FFF7BDB80022406811460B
:1096A000FFF7C0B8002240681146FFF7ABB82DE9BC
:1096B000F04395B014460D460746FFF7ABFD002179
:1096C0001C220DA8009103F073FC40230C9320464C
:1096D0006B460CAA0021FEF751FE044600284BD130
:1096E000024601216868FFF76DF802218046224694
:1096F0006868FFF767F8009E81462146002E3BD040
:10970000002939D17368022B03D00A2B11D0F669D6
:10971000F4E7B8F1000FFAD0716906A8043107AD7B
:10972000FFF7A6FD0FCD3C1D0FC42B6823704146EB
:10973000EDE7B9F1000FEAD07469102201A803F037
:1097400037FC06238DF8143001AD04F108031834FA
:10975000186859682A4603C20833A3421546F7D150
:1097600001A906A807ADFFF763FD0FCD3C1D0FC48F
:109770002B6823704946CAE70098FEF7F7FD384684
:1097800015B0BDE8F0830000024B034A1A600022C6
:109790005A60704718E703200CE30B00232813B529
:1097A00002D9002002B010BDA0F10B03022B1AD881
:1097B000174C2178BFF35B8F11F001010BD12046CC
:1097C0000191FAF779FC019928B11248FFF7DEF808
:1097D0002046FAF776FC0F4B1878FEF727FF002893
:1097E000DFD10120DEE7012809D800F0D7F80021F9
:1097F000007CFEF7EBFE80F00100C0B2D2E7093832
:109800000128EED800F078F8007CFEF77FFEF2E742
:1098100088E603208CE60320232838B504460D464D
:109820000AD8FF2908D0FFF7B9FF28B129462046FA
:10983000BDE83840FEF7B2BD38BD38B504460D4628
:10984000FEF7B4FDFF2810D0062804D84D2323FAD4
:1098500000F0C30709D42046FFF7A0FF28B129462E
:109860002046BDE83840FEF7A9BD38BD10B5044616
:10987000FEF79CFD031FDBB2012B08D92046FFF742
:109880008DFF20B12046BDE81040FEF79FBD0020AF
:1098900010BD0D2810B504469CBF0E34A4B220465E
:1098A000FFF77CFF50B103212046FEF76FFD032830
:1098B00004D12046BDE81040FEF7A0BD002010BD39
:1098C0007047000038B5044614252A46002103F0ED
:1098D0006FFB25804025074925812846258200F019
:1098E00081F804496060284600F07CF8E06020467A
:1098F00038BD00BF40E30B0030B50E4D2978BFF3F3
:109900005B8F11F0010487B011D12846FAF7D4FB20
:1099100068B101A8FFF7D6FF01AA21460648FFF764
:10992000F7FD2846FAF7CDFB044803F02DFB02486B
:1099300007B030BD20E7032024E70320C1980B00C7
:1099400010B5084C2378BFF35B8FDB0708D42046A3
:10995000FAF7B2FB20B1FEF771FD2046FAF7B1FB32
:10996000014810BD3CE7032040E70320704700009A
:1099700038B5202514230446036085600561064937
:10998000284600F02FF804496060284600F02AF8C5
:10999000E060204638BD00BF40E30B0030B50E4DFF
:1099A0002978BFF35B8F11F0010487B011D12846ED
:1099B000FAF782FB68B101A8FFF7DAFF01AA214696
:1099C0000648FFF7E5FD2846FAF77BFB044803F05D
:1099D000DBFA024807B030BD44E7032048E7032024
:1099E0006D990B00FAF759BB10EE103A184A23F0A4
:1099F000004393421BDDB3F1FF4F02DB30EE400A20
:109A0000704700B583B0684601F01CF900F0030010
:109A10000128DDED010A9DED000A0CD0022812D0CC
:109A200070B1012001F0FCFD03B05DF804FBDFED37
:109A3000090A01F039BA01F0F3FDB1EE400AF3E78B
:109A400001F032FAF0E701F02FFAB1EE400AEBE74D
:109A5000D80F493F0000000010EE103A194A23F0D9
:109A6000004393421CDDB3F1FF4F02DB30EE400AAE
:109A7000704700B583B0684601F0E4F800F00300D9
:109A80000128DDED010A9DED000A0ED0022813D059
:109A900070B101F009FAB1EE400A03B05DF804FBC1
:109AA000DFED090A002001F0BBBD01F0FDF9F4E78C
:109AB000012001F0B5FDF0E7012001F0B1FDB1EEAC
:109AC000400AEAE7D80F493F0000000000F0D4B890
:109AD000F8B52DED028B57EC106B55EC114B00F0E7
