:02000004080AE8
:1000000000000A081CA90A080000060006000501F5
:080010000402810C0000000055
:040018006C910A08D5
:1000200009480A4908B5884205D0094A824202D0E7
:10003000121A08F0CBFF0748074A0021121A08F0ED
:10004000D3FF064808BD00BF000000207CA80A08B6
:100050007800002078000020A9060020A9060020D2
:1000600070B504F039FE0025054E064CA41BA4080B
:10007000AC4200D170BD56F8043B98470135F7E714
:1000800044A80A0864A80A0801F01ABA08B500F0E2
:10009000CDFFBDE8084004F0D7BD04F005BA04F078
:1000A00003BA04F009BA000000210C2008B5024A86
:1000B00004F03EF9FEE700BF19400A080078B0FAE4
:1000C00080F04009704701230370704710B503F0BA
:1000D000ABFF064C2368C01A162806D9044A1368D9
:1000E0000133136003F0A0FF206010BD78000020F2
:1000F0007C00002070B506460C4615462AB9BDE8BE
:1001000070400368C9B29B68184700290BDA0A2AB5
:1001100009D12D2104F091FB61423046EAB2BDE8DD
:10012000704004F0A5BB2146F7E770B506460C46C3
:1001300015462AB9BDE870400368C9B29B681847E4
:1001400000290BDA0A2A09D12D2104F076FB61423D
:100150003046EAB2BDE8704004F08ABB2146F7E7BA
:1001600012B903689B681847D2B204F081BB10B57E
:100170000446FFF7F5FF2046BDE8104004F060BBE1
:1001800010B5044642B90268C9B292689047204649
:10019000BDE8104004F054BBD2B204F069FBF6E7AE
:1001A000002313B5214C0DF106020DF105018DF868
:1001B00007308DF806308DF805301D480DF1070326
:1001C00002F0FEFD04F090FE214604F045FB04F031
:1001D0008BFE184904F02DFB04F086FE10229DF8DA
:1001E0000510FFF7C4FF04F07FFE134904F021FB64
:1001F00004F07AFE10229DF80610FFF7B8FF04F015
:1002000073FE0E4904F015FB04F06EFE10229DF8FB
:100210000710FFF7ACFF04F067FE214604F01CFB5B
:100220004FF4FA7004F0D0FC02B010BDE5930A0858
:100230000001002080910A0892910A08A4910A08FE
:100240002DE9F041124C8046204616461D460F46C9
:1002500001F0AAFE0F4908F0F3FA4FF0844108F0CC
:10026000E7F9C8F80000204601F014FF0A4908F039
:100270009BFB0A4908F0E4FA3860204601F0C0FE12
:1002800007493060204601F0CBFF2860BDE8F081CF
:100290008C0000206666E63F80E6C54700003E44CD
:1002A00000507D44F8B507460E461D46144604F03E
:1002B0001BFE224904F0BDFA04F016FE0222396842
:1002C00004F0E4FB04F010FE1D4904F0C5FA04F04C
:1002D0000BFE1C4904F0ADFA04F006FE0222316860
:1002E00004F0D4FB04F000FE174904F0B5FA04F062
:1002F000FBFD164904F09DFA04F0F6FD0222296880
:1003000004F0C4FB04F0F0FD114904F0A5FA04F078
:10031000EBFD104904F08DFA04F0E6FD022221689D
:1003200004F0B4FB04F0E0FD0B4904F095FA04F08E
:10033000DBFDBDE8F84004F083BA00BFB6910A08BF
:10034000C7910A08CA910A08D6910A08DC910A08DE
:10035000F0910A08F3910A08FF910A0830B53A4D66
:100360008BB06946394802F0C5FB04F0BDFD294653
:1003700004F072FA04F0B8FD354904F05AFA04F0BA
:10038000B3FD694604F068FA04F0AEFD314904F0AB
:1003900050FA04F0A9FD04460A220399FFF7C5FEAE
:1003A000204604F04DFA04F09FFD2B4904F041FA79
:1003B00004F09AFD04460A220499FFF7B6FE20468F
:1003C00004F03EFA254C04F08FFD254904F031FA83
:1003D00004F08AFD0222069904F058FB04F084FD23
:1003E000214604F039FA04F07FFD1E4904F021FA99
:1003F00004F07AFD0222079904F048FB04F074FD32
:10040000214604F029FA04F06FFD174904F011FAAF
:1004100004F06AFD0222089904F038FB04F064FD40
:10042000214604F019FA04F05FFD294604F014FA9D
:1004300004F05AFD0D4904F00FFA4FF4FA7004F07D
:10044000C3FB0BB030BD00BF02920A0800010020C0
:1004500027920A0836920A0845920A0863920A0807
:1004600054920A0868920A0877920A08E5930A08E3
:1004700038B5044604F038FD4C494D4D04F0ECF914
:1004800004F032FD4B4904F0D4F904F02DFD0A22AA
:10049000B4F90010FFF72EFE04F026FD294604F003
:1004A000C8F904F021FD0A22B4F90210FFF722FE78
:1004B00004F01AFD294604F0BCF904F015FD0A22E7
:1004C000B4F90410FFF716FE04F00EFD294604F0FF
:1004D000B0F904F009FD384904F0ABF904F004FD6B
:1004E0000A22B4F90C10FFF705FE04F0FDFC2946C2
:1004F00004F09FF904F0F8FC0A22B4F90E10FFF79B
:10050000F9FD04F0F1FC294604F093F904F0ECFC49
:100510000A22B4F91010FFF7EDFD04F0E5FC2946BE
:1005200004F087F904F0E0FC244904F082F904F0B7
:10053000DBFC0A22B4F90610FFF7DCFD04F0D4FC62
:10054000294604F076F904F0CFFC0A22B4F9081029
:10055000FFF7D0FD04F0C8FC294604F06AF904F066
:10056000C3FC0A22B4F90A10FFF7C4FD04F0BCFC76
:10057000294604F05EF904F0B7FC114904F059F97A
:1005800004F0B2FC0A22B4F91210FFF7B3FD04F034
:10059000ABFC0C4904F04DF904F0A6FCB4F91410BE
:1005A0000A22BDE83840FFF7A5BD00BF86920A08C1
:1005B000BA930A089D920A08AD920A08B5920A08F1
:1005C000BC920A08CC920A0800232DE9F04F9DB096
:1005D0008DF827300DF12703C94800930DF125024E
:1005E0000DF1260309A902F00BFC0822C4490AA850
:1005F00002F004FD1422C24910A802F0FFFC0E22F2
:10060000BF4916A802F0FAFCB3A3D3E90023DDE941
:100610000E0107F0E9FDB0A3D3E9002304460D461F
:10062000DDE90A0107F0E0FD22462B4605F030F82F
:1006300001F1004700223946B24B07F0ABFCA8A3FA
:10064000D3E9002307F0D0FD0022AF4B07F0A2FC56
:1006500007F098FFA0A3D3E90023AC4CAC4D206079
:10066000DDE90E0107F0C0FD9BA3D3E90023064698
:100670000F46DDE90C0107F0B7FD32463B4605F0B9
:1006800007F801F10047002239469E4B07F082FC33
:1006900093A3D3E9002307F0A7FD00229A4B07F0AC
:1006A00079FC07F06FFF9B4B80462860186807F0C5
:1006B00019FC8DA3D3E9002307F06CFC06464046E5
:1006C0000F4607F00FFC8AA3D3E9002307F062FC72
:1006D00002460B463046394607F0A6FA07F052FFAD
:1006E000DFF834B28D49CBF80000086807F0FAFB58
:1006F0007DA3D3E9002307F04DFC064620680F4692
:1007000007F0F0FB7AA3D3E9002307F043FC02468D
:100710000B463046394607F087FA07F033FF804E24
:10072000804F306003F080FC3B687F4EC01A07F0BA
:10073000B7FB00227D4B07F057FD07F023FF306029
:1007400003F072FC3860306807F0CCFBDDE912235F
:1007500006460F4607F01EFCDFF8D4A1CDE90201E2
:10076000DAF8000007F0BEFBDDE9022307F05CFACF
:100770005DA3D3E9002307F00DFC8046206889467D
:1007800007F0B0FB5AA3D3E9002307F003FC0246AD
:100790000B464046494607F047FA07F0F3FEDDE90D
:1007A00010230446CAF800003946304607F0F2FB31
:1007B00006460F46DFF87CA1DAF8000007F092FB4E
:1007C00032463B4607F02EFA47A3D3E9002307F051
:1007D000E1FB80462868894607F084FB44A3D3E9FF
:1007E000002307F0D7FB02460B464046494607F078
:1007F0001BFA07F0C7FEDFF840810546CAF8000083
:10080000D8F8000007F06EFBDDE9022307F00CFAD0
:1008100007F0B8FEC8F80000DFF82081D8F8000023
:1008200007F060FB32463B4607F0FCF907F0AAFEF2
:100830004349C8F80000284608F0B6F807F052FB14
:100840002DA3D3E9002307F0A5FB07F09BFE3D4B4A
:10085000054618603A49204608F0A6F807F042FB22
:1008600025A3D3E9002307F095FB07F08BFE364B59
:100870000446186004F09AFEDDE9182382462846F3
:10088000CDE9022304F0CAFE07F02CFBCDE90401F8
:10089000204604F0C3FE07F025FBDDE91A340646C6
:1008A0002846CDE906340F4604F080FE07F01AFB17
:1008B00080465046894607F015FBDDE9162307F010
:1008C00069FBDDE9042304460D46DDE9020107F07A
:1008D00061FB32463B4639E09A99999999992340B0
:1008E00050455254FB210940666666666666EE3FD7
:1008F0009A9999999999A93F1F85EB51B81E19406A
:10090000000100200000E03F008076401802002037
:10091000EC010020E4010020E00100201002002092
:100920000C020020D80100209401002000408F40DC
:1009300008020020DC01002014020020E801002051
:100940000000B443F00100201C02002007F022FB4D
:1009500002460B462046294607F064F94246044603
:100960000D46DDE906014B4607F014FB32463B46D7
:1009700007F010FB02460B462046294607F054F9C3
:1009800007F000FE264B064618604246DDE90201EC
:100990004B4607F0FFFADDE9062304460D46DDE984
:1009A000040107F0F7FA02460B462046294607F0F5
:1009B0003BF907F0E7FD1B4B314618601A4E04F077
:1009C00029FF1A4ADBF80030194913603368194DC2
:1009D0000B6007F087FA10A3D3E9002307F004FCAB
:1009E0000022154B07F0D6FA07F0CCFD134907F0AB
:1009F0001FFE1349044608F0D5F820B92C6028687A
:100A00001DB0BDE8F08F20460D4907F00FFE2860AD
:100A1000F5E700BFAFF300801F85EB51B81E19400A
:100A200084000020880000200C020020E401002047
:100A300010020020000200200080764000003443B5
:100A40000000B4432DE9F84304F04EFA2A4903F0BC
:100A500003FF0124294DDFF8A880DFF8A890A7B292
:100A60003946264803F079FA37283FD1C82239465B
:100A7000284603F04EFA50B904F036FA494603F01E
:100A8000D8FE04F031FA10222146FFF779FB00214D
:100A9000284603F062FA372206463946284603F014
:100AA00038FA50B904F020FA414603F0C2FE04F0CF
:100AB0001BFA10222146FFF763FBC82E16D104F063
:100AC00013FA114903F0C8FE04F00EFA0F4903F0BF
:100AD000B0FE04F009FA21460A2203F0C9FE04F030
:100AE00003FABDE8F8430A4903F0B6BE47F6FF73C0
:100AF00001349C42B3D1E7E7DA920A08B40100203E
:100B000003930A08E8920A0821930A0833930A0813
:100B10004A930A0807B50D4B187804F08EFC4FF481
:100B2000B4730093002340F6FF72194604F040F8B6
:100B3000B0F5B47F04DDA0F5B47003B05DF804FB3C
:100B40000028B8BF00F5B470F7E700BF050000202B
:100B500038B50D461449044603F0FCFD152D05DC9F
:100B60001249204603F02EFE204638BD422D01DCFE
:100B70000F49F6E76F2D01DC0E49F2E79C2D01DCF1
:100B80000D49EEE7D32D01DC0C49EAE7F62D01DC37
:100B90000B49E6E7B5F5927F01DA0A49E1E7B5F5D9
:100BA000A87FDDDC0849DCE765920A0851930A0852
:100BB00053930A0854930A0856930A0859930A084B
:100BC0005B930A085F930A085E930A082DE9F041D7
:100BD000104E054630460C4690461F4601F01CFF5D
:100BE0002860304601F02CFF2060304601F03CFFC9
:100BF000C8F80000304601F046FF069B0649186021
:100C0000286807F0D1FE216807F012FD3860BDE8C2
:100C1000F08100BFBC01002000007A4430B58BB0E9
:100C200001A9264802F04AFA04F05EF9244903F0CB
:100C300000FE04F059F90422069903F027FF04F09E
:100C400053F9204903F0F5FD04F04EF90422079909
:100C500003F01CFF04F048F91B4903F0EAFD04F01F
:100C600043F90422089903F011FF04F03DF91749F4
:100C700003F0F2FD04F038F9154903F0EDFD1549D4
:100C8000069807F0D5FC1449054607F095FF134C6C
:100C900070B9256004F028F9114903F0CAFD04F089
:100CA00023F90422216803F0F1FE20680BB030BD67
:100CB0002846094907F0BAFC2060EBE70001002054
:100CC000C0930A08C4930A08C9930A08E5930A085E
:100CD000CE930A080000D0420000B4432C0100204B
:100CE000D1930A081FB5144803F0FAF840211348BD
:100CF00001F015FE124800F0B1FE04F031FC114A7B
:100D000011490346CDE901214FF0FF324021009205
:100D10000E48802203F05EF804F022FC28220346ED
:100D200037210B4801F00AFF0A490B4805B05DF86E
:100D300004EB03F00FBD00BFB4010020BC01002094
:100D40008C000020801A0600A08601003C010020D3
:100D500000010020E5930A08A40100201FB500232C
:100D60008DF80F308DF80E308DF80D308DF80C3079
:100D70000DF10F030DF10D0203A93B4800930DF196
:100D80000E0302F03DF804F0AFF8384903F051FDCE
:100D90009DF80C3023B904F0A7F8354903F049FD5C
:100DA00004F0A2F8334903F044FD04F09DF80A2250
:100DB0009DF80C10FFF7D4F904F096F82E4903F0D3
:100DC00038FD04F091F80A229DF80D10FFF7C8F9DC
:100DD00004F08AF8294903F02CFD04F085F80A2272
:100DE0009DF80E10264CFFF7BBF904F07DF825495D
:100DF00003F01FFD04F078F80A229DF80F10FFF7AA
:100E0000AFF9204602F0AEFA0023204619492361CB
:100E100003F00FFD0A2220469DF80C10FFF7A0F901
:100E20002046154903F005FD0A2220469DF80D10C5
:100E3000FFF796F92046114903F0FBFC0A222046F1
:100E40009DF80E10FFF78CF920460E4903F0F1FCD7
:100E50000A2220469DF80F10FFF782F9204602F083
:100E6000D8FE04B010BD00BF00010020E4930A08C2
:100E7000E6930A08E9930A08EE930A08F2930A082F
:100E80003C010020F6930A082DE9F84F384C8046C3
:100E9000DDE90ABA204616460F461D46DDF83090B9
:100EA00002F060FA204602F0B4FE002320463149E9
:100EB000236103F0BEFC0A2241462046FFF735F9C4
:100EC00020462D4903F0C8FC20462C4903F0B1FC14
:100ED0000A2239462046FFF728F92046284903F020
:100EE000BBFC2046274903F0A4FC0A2231462046D9
:100EF000FFF71BF92046244903F0AEFC20462349A6
:100F000003F097FC0A2229462046FFF70EF92046F7
:100F10001F4903F0A1FC20461E4903F08AFC0A2267
:100F200059462046FFF701F920461B4903F094FC7F
:100F300020461A4903F07DFC0A2251462046FFF75D
:100F4000F4F82046164903F087FC2046154903F0C3
:100F500070FC494620460A22FFF7E7F8204612496E
:100F600003F07AFC2046BDE8F84F02F052BE00BF05
:100F70003C010020FA930A08C7910A0803940A0862
:100F8000D6910A08F3910A08FF910A08E4910A0829
:100F9000F0910A080D940A0871930A081C940A0833
:100FA000A8930A0827940A08BC930A08F8B5194CB4
:100FB0000746204615460E4602F0D4F9204602F0B8
:100FC00028FE002320461449236103F032FC0A2244
:100FD00039462046FFF7A9F82046104903F03CFCAB
:100FE00020460F4903F025FC3168204603F034FC0D
:100FF00020460C4903F01DFC29680222204603F01C
:1010000045FD2046084903F027FC2046BDE8F8408E
:1010100002F0FFBD3C01002030940A083D940A080C
:1010200040940A084B940A0858940A082DE9F04F96
:10103000C34B8BB00121187804F0D3F9FFF76AFD98
:10104000C04CC14DC14EC24FDFF808A323462A460B
:101050003146CAF800003846FFF7F2F823462A4620
:1010600031463846FFF71EF9FFF7D8FDDFF8E89262
:10107000DFF8E8B2C9F80000FFF7A6FADFF8E0826F
:10108000B849B94AB94BC8F80000B948CDF800B022
:10109000FFF79CFD386807F099FDB64AB64F136814
:1010A00018441060306807F091FD3B68B34E184457
:1010B0003860286807F08AFD3368B14D1844306005
:1010C000206807F083FD2B68A6491844286008684B
:1010D00007F07CFDAB4AAC4C136818441060A24A80
:1010E000106807F073FDA94A136818441060DBF814
:1010F000000007F06BFDA64ADFF898B213681844A9
:101100001060DBF80030DAF80020D9F80000134452
:10111000CBF8003007F05AFD9F4ADFF880A2136831
:1011200018441060D8F8000007F050FDDAF80030DD
:101130001844CAF8000002F077FF2368C01A984BE1
:101140001B88984240F26981964BD3F8008002F0E8
:101150006BFF0590404607F01BFB06F0C3FE002224
:10116000914B06F017FF059B804620688946181AA8
:1011700007F00EFB06F0B6FE02460B464046494617
:1011800007F032F80022894B06F004FF07F0FAF965
:10119000DFF81C827749B8F800200968DFF814925C
:1011A000B1FBF2F1C9F800103968834BB1FBF2F1E1
:1011B00018608248DFF8D4C1016031688048B1FB13
:1011C000F2F1016029687F48B1FBF2F101606D48DE
:1011D000DFF8BCE101687C48B1FBF2F10160DCF8AA
:1011E00000107A48B1FBF2F10160DEF80010784897
:1011F000B1FBF2F10160DBF800107648B1FBF2F1CF
:10120000654B016019687448B1FBF2F10160DAF8CE
:101210000010724BB1FBF2F21A6002F005FF206081
:10122000002403F061FE6E4903F003FB03F05CFE53
:101230005C4B0A22196803F01BFB03F055FE694959
:1012400003F0F7FA03F050FE674903F0F2FA03F0F7
:101250004BFE0A22296803F00BFB03F045FE6349AD
:1012600003F0E7FA03F040FE614903F0E2FA03F00D
:101270003BFE40490A22096803F0FAFA03F034FE03
:101280005A4903F0D6FA03F02FFE5A4903F0D1FA77
:1012900003F02AFE0A22B8F8001003F0E9FA03F07E
:1012A00023FE504903F0C5FA03F01EFE524903F035
:1012B000C0FA03F019FE0A22D9F8001003F0D8FA98
:1012C00003F012FE474903F0B4FA03F00DFE4B4958
:1012D00003F0AFFA03F008FE0A2299F80010FEF7B7
:1012E0003FFF03F001FE3F4903F0A3FADFF89CC083
:1012F000DFF89CE02B4B284A1E492248CCF80040DE
:10130000CEF800401C6014600C603C6034602C60BF
:101310000460CBF80040CAF8004003F0E5FD354911
:1013200003F087FA03F0E0FD0A22B8F8001003F09A
:101330009FFA2948294B01681B6806A860E000BF96
:1013400006000020D0000020DC000020E800002083
:10135000F40000203402002098010020F401002055
:10136000140100202001002030010020D0010020C5
:1013700004020020FC000020F0000020E400002017
:10138000D800002028010020200200203801002081
:10139000FC0100203C020020A00100201C010020D4
:1013A000000000207C0000200000024000408F4030
:1013B000D4010020F800002080000020EC00002074
:1013C000E0000020D400002024010020340100208F
:1013D000F8010020380200209C01002018010020A4
:1013E0005D940A08CF930A086A940A08E4930A08ED
:1013F00081940A0894940A08A4940A08B9940A08E3
:1014000019444908A8F80040FFF7A2FB1E4806A9A6
:1014100003F0D0F906A803F053F902F005FE1B4CC7
:101420002368C01A1A4B1B8898421AD902F0FCFD97
:101430002060184C2378F3B1174B184A1B681849E1
:101440000293184B18481B680193184B1B680093B4
:10145000174B12681B6809680068FFF715FD002329
:101460002370C820134A1388013313800BB0BDE8E2
:10147000F04F03F0A9BB104B104A18680249FFF760
:1014800095FD0123ECE700BFA401002030020020FD
:101490000200002004000020F8010020E0000020ED
:1014A000EC00002034010020F8000020240100207E
:1014B000D4000020D4010020380200208000002049
:1014C0002DE9F041A2B003F00FFDCE4903F0C4F9BD
:1014D000CD4801F0E2FA03F051FBCC4EC317C6E948
:1014E000000303F001FDCA4903F0A3F903F0FCFC7B
:1014F000D6E90054002C074680F2BF802D2103F06E
:101500009CF96A4264EB44030A213846009103F0D7
:10151000CCF903F0E9FCBF4903F08BF9BE4B002185
:10152000187803F04DFFBD4B01211878BC4C03F037
:1015300047FF03F0D9FCBB4903F08EF90021207866
:1015400003F03EFF0023009302224FF0FF33B64921
:10155000207803F029FD03F0C7FCB44903F07CF9BF
:1015600003F0C2FCB24903F077F903F0BDFC4FF47D
:10157000E13103F099FC03F0B7FC03F09CFC002878
:10158000F9D0AC4C03F0B0FCAB4903F06FF903F0B9
:10159000ABFCAA4903F060F901223C21204602F08D
:1015A0002DFC03F0A1FCA64903F056F9204602F0F9
:1015B00030FB4FF47A7003F007FB204601F0D2FEB7
:1015C000204602F026FB0121204602F0D0F803F06D
:1015D0008BFC9C4903F040F90221042003F0F0FE4B
:1015E0000221032003F0ECFE0221084603F0E8FE8E
:1015F0000121204602F007FB00224FF0011392491F
:10160000C4E90423204603F014F99049204603F06E
:1016100010F9204602F0FDFA8D4800F086FE78BBF6
:1016200003F062FC8B4903F017F903F05DFC8A4973
:1016300003F0FFF803F058FC0446854800F012FA66
:10164000102201462046FEF79BFD03F04DFC834926
:1016500003F0EFF803F048FC814903F0EAF803F0E7
:1016600043FC804903F0E5F803F03EFC7E4903F0BB
:10167000E0F80A2003F0A8FAFBE72A46234643E7EE
:1016800003F06EFF50210246784802F02DFCE0B1D5
:1016900003F02AFC764903F0DFF8204601F062FEF1
:1016A0007449204603F0D8F8204602F0B2FAFFF75A
:1016B000C9F90C21704801F032FB074670B903F0FC
:1016C00013FC6E4903F0B5F8FEE703F00DFC6C491E
:1016D00003F0C2F80A2003F077FAFBE703F004FCFA
:1016E0004B4903F0A6F803F0FFFBD6E90054002CA9
:1016F000804665DA2D2103F0A0F86A4264EB4403CA
:101700000A214046009103F0D0F803F0EDFB414977
:1017100003F08FF84FF47A7003F056FAFEF71EFECE
:1017200003F0E2FE0422002002A902F08DFC5248E0
:1017300018A901F0DFF91C9A029B9A4243D003F0EA
:10174000D3FB504903F088F84FF4FA7003F03CFAE9
:1017500000274FF47A7003F037FAFEF7FFFDFEF72B
:101760001FFD0121444801F01DFA02F05DFC464BCB
:101770000FA91860404801F0A1FC002F00F09080F4
:1017800003F0B2FB414903F067F82A4801F0EAFD93
:101790003F49284803F060F8264802F03AFA364CF0
:1017A000204601F045FB002840F0B6800FA92046F6
:1017B00001F084FCFFF7D2FA642003F005FAEFE7AA
:1017C0002A4623469CE703F08FFB324903F044F896
:1017D00003F08AFE162203A9042002F035FC03A8B8
:1017E000FEF746FE03F080FB2B4903F035F803A912
:1017F000214801F0FAF903F077FB284903F02CF8AF
:10180000A7E700BFD7940A08BC01002028020020E7
:10181000DE940A08CF930A08050000200600002085
:1018200007000020F0940A08CD000A080D950A0868
:1018300023950A083C01002031950A083D950A08C5
:101840005A950A0865950A0871950A0891950A083B
:101850008C0000209D950A08E5950A08F6950A086F
:101860003D960A0867960A0891960A08B401002076
:10187000BB960A08CC960A080001002013970A08B4
:10188000DB960A0850970A08D801002008980A0831
:1018900038980A0886970A08B4970A08E2970A084F
:1018A00003F022FB3C4902F0D7FF3C4C3C4E3D4D3F
:1018B000204601F0BDFA78BB0FA9204601F0FEFBDF
:1018C00003F012FB314602F0B4FF03F00DFB0422DB
:1018D000149903F0DBF803F007FB294602F0A9FF97
:1018E00003F002FB0422159903F0D0F803F0FCFA90
:1018F0002D4902F09EFF03F0F7FA0422169903F037
:10190000C5F8FFF72BFA03F0EFFA284902F0A4FF1D
:10191000642003F059F9CBE703F0E6FA244902F01A
:101920009BFF03F0E1FA234902F096FF03F0DCFA93
:10193000214902F091FF09A9184801F0B2FA09A85B
:10194000FEF796FD03F0D0FA1C4902F085FF18A9B6
:10195000124801F0CFF81C9B029303F0C5FD02A9C9
:101960000422002002F078FB03F0BEFD162209A934
:10197000042002F071FB03F0B7FA114902F06CFF8A
:1019800003F0B2FA0F4902F067FF4FF4FA7003F068
:101990001BF922B0BDE8F0814D980A080001002033
:1019A000C0930A08C4930A08C9930A08E5930A0871
:1019B00067980A0806920A087A980A0890980A080E
:1019C000B8980A08CF980A0870470000024B986838
:1019D00008B102F069BB70474402002010B504460C
:1019E0001021FEF75EFB204610BD0EB403B503AB1D
:1019F00053F8042B0021019303F057F802B05DF86F
:101A000004EB03B07047000073B504462279084622
:101A1000A36832B1A3B90B4902B0BDE8704002F02F
:101A200008BF094A267B094D0949647B012E18BF6E
:101A30002946CDE900140749FFF7D7FF02B070BD72
:101A4000054AEFE703990A08E5930A08FF980A0890
:101A5000FB980A0819990A08F2980A084FF0FF3310
:101A6000036170478068704738B50B4D2978BFF324
:101A70005B8F11F001040DD12846FEF71FFB48B122
:101A80002146064802F04CFD2846FEF71CFB0448A0
:101A900007F096FA014838BD4002002044020020B9
:101AA000CD190A0808B5FFF7DFFFBDE8084002F0CE
:101AB00055BD10B50446FFF7D7FF2146BDE81040DD
:101AC00002F066BD2DE9F04190F91330054601336F
:101AD0000F4606D1FFF7C8FF3946BDE8F04102F0D6
:101AE000C3BD002407264FF0010895F9130000211B
:101AF00080B203F076FC95F9110008FA06F139403E
:101B000080B203F06EFC95F91300012180B203F05E
:101B100068FC95F91200640080B2E4B203F07AFC2C
:101B200008B144F00104013EDFD22046BDE8F08157
:101B30007FB590F91030044601330E46154613D197
:101B40000179006803F01EFB2068314603689B683A
:101B500098472068294603689B689847206804B026
:101B6000BDE8704003F016BB90F9133001330CD17F
:101B7000164B6846009300238DF80430144B0293F3
:101B80000123ADF80C30FFF794FF94F91000002109
:101B900080B203F026FC06F07F012046FFF792FF9B
:101BA00029462046FFF78EFF94F91000012180B2EC
:101BB00003F017FC94F91330013304D104B0BDE8ED
:101BC0007040FFF76FBF04B070BD00BF40990A08B6
:101BD00020A10700F8B50446DB0002F0070203F07D
:101BE0003803134343EA81139DF8186080F83C30B2
:101BF00090F840309DF81C509DF8207066F3471314
:101C000080F84030ED0090F8383007F0070705F015
:101C1000380523F03F033D431D4380F8385006F05C
:101C20000702F221FFF784FF94F838202046C2F320
:101C3000C20302F007019B0043EA411343EAD212B8
:101C4000F521FFF775FF94F83C202046C2F3C2034C
:101C500002F007019B0043EA411343EA9212F42188
:101C6000BDE8F840FFF764BF30B590F91030044686
:101C700001330D4685B018D10179006803F082FA6E
:101C80002068294603689B689847206803F082FA19
:101C900001222179206803F072FA206803685B69E9
:101CA0009847C5B2284605B030BD90F913300133CE
:101CB0000CD1154B6846009300238DF80430134B6C
:101CC00002930123ADF80C30FFF7F3FE94F91000F6
:101CD000002180B203F085FB45F080012046FFF72C
:101CE000F1FE00212046FFF7EDFE054694F91000B5
:101CF000012180B203F075FB94F913300133D1D187
:101D0000FFF7D0FECEE700BF40990A0820A10700E8
:101D1000F32108B5FFF7A8FF00F0010008BD00009F
:101D200030B590F91030044601330D4685B01FD10F
:101D30000179006803F026FA2068294603689B6849
:101D40009847206803F026FA02222179206803F0E0
:101D500016FA206803685B6998470546206803689F
:101D60005B69984740EA0525ADB2284605B030BD0D
:101D700090F9133001330CD1184B684600930023BF
:101D80008DF80430164B02930123ADF80C30FFF7A9
:101D900090FE94F91000002180B203F022FB45F080
:101DA00080012046FFF78EFE00212046FFF78AFEC5
:101DB000002105462046FFF785FE40EA052594F9F7
:101DC0001000012180B203F00CFB94F91330ADB286
:101DD0000133CAD1FFF766FEC7E700BF40990A0882
:101DE00020A1070008B5FFF79BFF40BA80B208BDED
:101DF00038B588210446FFF7F5FF8A21A0822046E6
:101E0000FFF7F0FF8C21E0822046FFF7EBFF8E21E9
:101E100020832046FFF7E6FF902160832046FFF7EE
:101E2000E1FF9221A0832046FFF7DCFF9421E083AD
:101E30002046FFF7D7FF962120842046FFF7D2FFE8
:101E4000982160842046FFF7CDFF9A21A084204688
:101E5000FFF7C8FF9C21E0842046FFF7C3FF9E21C7
:101E600020852046FFF7BEFFA12160852046FFF7B1
:101E7000FBFEE12184F82C002046FFF7B3FFE321AD
:101E8000E0852046FFF7F0FEE42184F8300020468C
:101E9000FFF7EAFEE52105462046FFF7E5FE00F0E4
:101EA0000F0343EA0510E62160862046FFF7DCFEBB
:101EB000E52105462046FFF7D7FEC0F3071343EAA6
:101EC0000510A086E7212046FFF7CEFE84F83600F5
:101ED00038BD000030B590F91030044601330D468E
:101EE00085B023D10179006803F04CF920682946B8
:101EF00003689B689847206803F04CF90322217916
:101F0000206803F03CF9206803685B699847050284
:101F1000206803685B699847054320682D020368C1
:101F20005B6998470543284605B030BD90F91330EA
:101F300001330CD11A4B6846009300238DF804300E
:101F4000184B02930123ADF80C30FFF7B2FD94F962
:101F50001000002180B203F044FA45F080012046D1
:101F6000FFF7B0FD00212046FFF7ACFD0021050280
:101F70002046FFF7A7FD002105432046FFF7A2FDFD
:101F80002D02054394F91000012180B203F029FAD3
:101F900094F913300133C6D1FFF784FDC3E700BFC6
:101FA00040990A0820A1070010B5FA210446FFF75E
:101FB00091FFB0F5000F1DD0A18AB4F91630C1EB26
:101FC00020224900C1EBE011594302FB02F3B4F9AE
:101FD00018201B1353439B1303EBE123E36003EB34
:101FE000830303F18000001206F0D6FB024906F0DD
:101FF000DBFC10BD0148FCE70000C8420000C07FC8
:1020000010B50446FFF7D0FFFD212046FFF788FEFC
:10201000B0F5004F3AD0B4F93230E2681B05C3EB9B
:102020008033B4F93400A2F5963101FB103303F587
:102030008043D81394F8303094F936204B434A4308
:10204000DB12921203F500435343B4F92E209B1286
:1020500003F50013534303F500539B134343DA1373
:102060005243D01194F82C205043A3EB201323EAC1
:10207000E373B3F1C85FA8BF4FF0C853181306F05D
:102080008BFB4FF06A5106F0DBFB10BD0048FCE70C
:102090000000C07F2DE9F8430546FFF785FFF721D3
:1020A0002846FFF717FFB0F5000F00F0B180E96890
:1020B000B5F91C304FEAE17EB1F5FA314EF1FF3E41
:1020C00003FB0EF2DC1701FB0422A3FB0134A1FB8E
:1020D000017801FB0EF6224412031C0342EA13525C
:1020E000B5F91E3008EB460803FB08F64FEAE37C1F
:1020F00007FB0C66A3FB073C66441B0A43EA066326
:102100001B1942EB26226E8B02F50042A3FB06341C
:1021100006FB0244E317621053EA64044FF0000C1C
:1021200078D0B5F92440001104FB08F64FEAE479B1
:1021300007FB0966A4FB07473E44B5F9227007FB7D
:102140000EFE4FEAE77801FB08EEA7FB0171714430
:10215000490441EAD7317F043F1946EB0106B5F93E
:102160002010C0F5801406EBC10640F6354104F09E
:1021700000401CEB070740EA5400E407E41B60EB57
:102180000606A4FB010401FB064106F045FD84465A
:10219000B5F92A204F1302FB07F6430B43EAC1436C
:1021A000D41703FB0466A2FB0324344402FB07F6A6
:1021B00003FB0466A2FB03231E44530EB5F928401B
:1021C00043EAC6131B1841EB66666143E21702FB44
:1021D0000C11A4FB00042144C00CB5F9264040EAD0
:1021E000413018184FEAE47546EBE141000A2D0131
:1021F00040EA016045EA14752401201845EB2121CD
:1022000006F0E0FA4FF06E5106F01AFBBDE8F883D5
:102210000148FBE70020F9E70000C07F0000000054
:1022200010B50C46FFF736FF114906F0BDFB2146FD
:1022300006F0BAFB05F056FE09A3D3E9002303F02C
:1022400029FA02460B4600200A4905F0EBFC06A3DA
:10225000D3E9002305F09EFE06F094F910BD00BFFF
:10226000EBE2361AC05BC83F0000000040A5E54025
:102270000000C8420000F03F30B5044690F910005D
:1022800085B0421C19D1206802F04AFFD0212046B7
:10229000FFF7EAFC6028A06045D12046B622E02185
:1022A000FFF746FC4FF4967002F08EFC2046FFF7D5
:1022B0002FFD054628B36420F6E7012180B203F024
:1022C00090F894F91000012180B203F079F894F9A4
:1022D0001300431C04D1FFF7C7FB02F030F9D5E728
:1022E000012180B203F06CF894F91100012180B251
:1022F00003F066F894F91200002180B203F060F850
:10230000C4E72046FFF774FD052303211A46204643
:102310000093CDE90155FFF75DFC642002F054FC09
:10232000012005B030BD0020FBE7772310B5037115
:10233000044603F015F920602046FFF79DFF30B9F1
:10234000762320462371BDE81040FFF795BF10BDEE
:1023500030B500254281C0E900159DF80C209DF89C
:102360001010456141738273037330BDF0B5458928
:10237000847A0346006885B02D0A0E4617468DF80C
:102380000C408DF80D5040B15B7B019303AB009383
:10239000012300F039FA05B0F0BD58680028FAD0E2
:1023A00093F808E093F80DC0BEF1030F0CD10CF1C7
:1023B000010325F0010500938DF80C508DF80D40B8
:1023C00003AB00F090F9E6E7BEF1000F09D104F08D
:1023D0007F048DF80C403A463146CDF800C003AB7F
:1023E000EFE7BEF1020F02D164F07F04F1E7BEF126
:1023F000010F01BF9DF80C3003F07F0343F0400351
:102400008DF80C30E7E7F0B403460C4602B9027BC6
:10241000042A13D803F10F0529465C6198189842E5
:1024200009D09F7BE6B227B92E70240A0135013806
:10243000F5E78673F9E7F0BCFFF798BF0020F0BC22
:102440007047F0B54689857A0446006885B0360A3B
:102450000B468DF80C5011468DF80D6040B10022EE
:10246000CDE9001203A9627B00F03CFA05B0F0BD93
:1024700060680028FAD0277A627B032F0DD1FF24F1
:10248000CDE9001446F001068DF80C608DF80D5072
:10249000013203A900F059F9E8E73FB965F07F057B
:1024A0008DF80C50FF24CDE90014F2E7022F02D181
:1024B00005F07F05F4E7012F02BF9DF80C4064F0A2
:1024C0003F048DF80C40EDE738B502220D4600F1CF
:1024D0000F010446FFF7B5FF38B1A37B33B9237C66
:1024E0001B022B80E27B13432B8038BDE37B1B0256
:1024F0002B80227CF7E710B50446406810B10368D2
:102500009B689847204610BD38B5044690F90E00E8
:10251000012180B202F054FF94F90E00012180B233
:1025200002F05FFF256835B1284602F008F8012067
:1025300084F8340038BD94F90F00012180B202F014
:102540003FFF637B94F90F00012B94BF29460121C3
:1025500080B202F046FF94F91000421C09D001211C
:1025600080B202F02DFF94F91000012180B202F038
:1025700038FF94F91100431CD9D0002180B202F039
:102580001FFFD4E72DE9F04F044600680D461346BF
:1025900085B038B1002200920A4602F06BF805B00F
:1025A000BDE8F08F227BA068002A0CBF4FF0010B22
:1025B0004FF0800B0A78444F1BEA020FB7FBF0F78D
:1025C0000CBF4FF001094FF00009CB18FFB2039385
:1025D000039BAB42E3D05E464FF0000895F800A0A5
:1025E00017B1384601F018FD637B13F0FD0F41D1A0
:1025F00094F910305A1C0FD01AEA060114BF0123B7
:1026000000234B4508D06369606A1A6800292CD002
:102610004FF0010902431A60A169E36A0A68134393
:102620000B6017B1384601F0F7FC94F91130013313
:1026300006D0E3691A68A36A1A4218BF46EA080876
:10264000A169E36A0A6822EA03030B6094F9113076
:10265000013318BF85F80080237B002B32D1760030
:10266000F6B2002EBCD10135B2E722EA000289465B
:102670001A60D1E7A169E36A0A6813430B6017B1D6
:10268000384601F0C9FC94F91030013308D0636971
:10269000616A1A681AEA060F14BF0A438A431A606D
:1026A000A169E36A0A6822EA03030B6094F9113016
:1026B0000133CBD0E3691A68A36A1A4218BF46EA0D
:1026C0000808C3E77608CCE720A1070007B5012278
:1026D0008DF807100DF10701FFF754FF9DF8070073
:1026E00003B05DF804FB2DE9F041044600680E4696
:1026F00017461D4610B1616801F04AFF94F90E00BB
:10270000002180B202F06DFE069B05EB03084545F3
:1027100008D13744B7420BD0204616F8011BFFF70B
:10272000D5FFF7E7204615F8011BFFF7CFFFEEE7CF
:1027300094F90E00012180B202F053FE206808B126
:1027400001F00CFF0120BDE8F0812DE9F0410446C5
:1027500000680E4617461D469DF81C8010B1616842
:1027600001F016FF94F90E00002180B202F039FE4C
:102770003744BE420AD1069BEE18AE420CD0414609
:102780002046FFF7A3FF05F8010BF6E7204616F8F1
:10279000011BFFF79BFFECE794F90E00012180B2CB
:1027A00002F01FFE206808B101F0D8FE0120BDE84C
:1027B000F08142600022027220220170C2607047E4
:1027C00010B5037A044653B12178606802F0DAFC50
:1027D000606802F0DFFCB0FA80F0400910BD012112
:1027E00000F003F80028EFD1F8E738B50446406858
:1027F0000D4602F095FC0120207225B12046BDE86F
:102800003840FFF7DDBF38BD2DE9F8431F46DDE94D
:102810000896C368154632449A420446884602D94F
:102820000020BDE8F8830178406802F0ABFC7EB977
:1028300060682A4603684146DB6898478542EFD1C5
:102840003946606802F0A2FCB0FA80F04009E8E77F
:10285000B9F1000FECD06068324603684946DB6886
:1028600098478642DCD1E3E72DE9F041154604465E
:102870000E46D2B20178406802F06FFC85420DD15D
:1028800000271FFA87F8A84507F1010709D26068F9
:1028900003685B69984706F80800F2E70020BDE886
:1028A000F0810120FBE72DE9F843074688461646EC
:1028B00099460025B54212D2FA68741B944228BF8B
:1028C0001446331BAB4294BF4B4600232246384686
:1028D00008EB0501FFF7C8FF10B12544EAE7012026
:1028E000BDE8F88373B51D460023CDE900339DF89C
:1028F0001C300446069EFFF787FF40B10123324695
:102900002946204602B0BDE87040FFF7CCBF02B0B8
:1029100070BD08B5406802F0FFFB012008BD002231
:102920000260C2600022417102617047012310B54C
:102930008AB0CDE90033022304461A46016804A890
:10294000FFF706FD0DF10E0104A8FFF7BDFD207194
:10295000BDF80E00C00880000AB010BD012210B5FD
:102960008AB0CDE9002204460223016804A8FFF7DB
:10297000EFFC0DF10E0104A8FFF7A6FD2071BDF9D3
:102980000E000AB010BD30B50125044691B0CDE966
:10299000005502230168052204A8FFF7D9FCA168AD
:1029A000022204A8FFF72FFD022304222168CDE9AB
:1029B00000550AA8FFF7CCFC0DF10E010AA8FFF79D
:1029C00083FD2071BDF90E0011B030BD30B5012579
:1029D000044691B0CDE9005502230168052204A800
:1029E000FFF7B6FCA168022204A8FFF70CFD022342
:1029F00003222168CDE900550AA8FFF7A9FC0DF1D3
:102A00000E010AA8FFF760FD2071BDF90E0011B09C
:102A100030BD00000000000008B5FFF79FFF05F083
:102A20004FFA05A3D3E9002305F0B4FA05F0AAFD97
:102A300008BD00BFAFF300807B14AE47E17A843F4E
:102A400008B5FFF773FF05F03BFA05A3D3E90023B0
:102A500005F0A0FA05F096FD08BD00BFAFF30080B9
:102A6000FCA9F1D24D62503F38B50546FFF78BFF08
:102A700005F092FE0446E86805F08AFE014620460D
:102A800005F092FF38BD10B50446FFF79FFF05F033
:102A900083FE216905F0D4FE10BD4FF400521423CB
:102AA00030B5C0E9022301254FF07E5304468FB0B4
:102AB0000361CDE9005502230168052202A8FFF752
:102AC00047FCA168022202A8FFF79DFC02232168AF
:102AD0000022CDE9005508A8FFF73AFC022240F297
:102AE0009F1108A8FFF78FFC20710FB030BD704711
:102AF0007047000038B50C4605462022002104F13D
:102B0000080006F071FA0B222046064906F0B2FAD8
:102B10000123E360EB68236103236361024B2362BB
:102B200038BD00BF01980A080AD7233C10B50446F7
:102B30001421FDF7B6FA204610BD0000F8B51F4677
:102B4000094B044603600023C0E9023110201646F9
:102B5000FDF7A3FA054618B13A463146FFF729FEBC
:102B60002046A560F8BD00BF54990A081FB5002390
:102B7000CDE900338DF80C108DF80D2001230222D1
:102B800003A98068FFF740FE05B05DF804FB08B5B7
:102B90000A4601743D21FFF7E9FFBDE808401E2009
:102BA00002F012B870B504460D460021067CFFF70E
:102BB000EEFF192002F008F8002207212046FFF757
:102BC000D5FF85B180223F212046FFF7CFFF0A20A5
:102BD00001F0FAFF20463146FFF7D9FFBDE870400B
:102BE000142001F0F1BF2A46EDE770B504460D460A
:102BF0000021067CFFF7CBFF192001F0E5FF2A78C2
:102C000055212046FFF7B2FF2A8856212046120A96
:102C1000FFF7ACFFAA7857212046FFF7A7FF6A8885
:102C200058212046120AFFF7A1FF2A795921204690
:102C3000FFF79CFFAA885A212046120AFFF796FF49
:102C4000AA795B212046FFF791FFEA885C212046A4
:102C5000120AFFF78BFF2A7A5D212046FFF786FFD5
:102C60002A895E212046120AFFF780FFAA7A5F2197
:102C70002046FFF77BFF6A8960212046120AFFF792
:102C800075FF2A7B61212046FFF770FFAA89622128
:102C90002046120AFFF76AFFAA7B63212046FFF74E
:102CA00065FFEA8964212046120AFFF75FFF2A7C4C
:102CB00065212046FFF75AFF2A8A66212046120A1C
:102CC000FFF754FFAA7C67212046FFF74FFF6A8A6F
:102CD00068212046120AFFF749FF2A7D6921204614
:102CE000FFF744FFAA8A6A212046120AFFF73EFF37
:102CF00031462046BDE87040FFF749BF1FB50122AD
:102D00000023CDE9002303AB8DF80C108068194631
:102D1000FFF7E8FD9DF80C0005B05DF804FB70B509
:102D200004460E4680680121FFF75FFD054610B995
:102D30000025284670BD00212046FFF7DFFFA028B0
:102D400013D100212046FFF722FF20223F212046F9
:102D5000FFF70CFF1E2001F037FF00212046FFF790
:102D6000CDFFA0280CD00A20F5E74FF47A7001F0CF
:102D70002BFF00212046FFF7C1FFA028D8D1E0E7B4
:102D8000322001F021FF00223E212046FFF7EEFE17
:102D90000A2001F019FF002207212046FFF7E6FE76
:102DA00000223F212046FFF7E1FE0A2001F00CFF40
:102DB00020463146FFF7EBFE142001F005FFB8E78F
:102DC000F8B50F4616460721002204461D46FFF7B8
:102DD000CDFE27B139212046FFF790FF387026B18C
:102DE00036212046FFF78AFF307025B13A21204670
:102DF000FFF784FF2870C820BDE8F84001F0E4BE6A
:102E0000F8B50E46352115461C46069FFFF776FF9E
:102E10000EB18309337015B1C0F301132B7014B1D7
:102E2000C0F38103237017B100F003003870F8BDC0
:102E30001FB504460DF10F0300930DF10D020DF1C6
:102E40000E0303A9FFF7DCFF237C013B092B17D8F6
:102E5000DFE803F00522101E0C13160C1E109DF85F
:102E60000E00C31E5842584104B010BD9DF80E30EC
:102E7000032B14D19DF80D00F3E79DF80F30F7E711
:102E80009DF80C30032B0AD19DF80D30032B06D191
:102E90009DF80E30032B02D19DF80F00E1E70020D2
:102EA000E2E72DE9F04104460D46FFF7C1FF064673
:102EB000002800F091800021204694F81080FFF750
:102EC00066FE192001F080FE56212046FFF716FF0E
:102ED000552107462046FFF711FF40EA07205821F9
:102EE00028802046FFF70AFF572107462046FFF7B4
:102EF00005FF40EA07205A2168802046FFF7FEFEC2
:102F0000592107462046FFF7F9FE40EA07205C21D9
:102F1000A8802046FFF7F2FE5B2107462046FFF718
:102F2000EDFE40EA07205E21E8802046FFF7E6FE3E
:102F30005D2107462046FFF7E1FE40EA07206021B9
:102F400028812046FFF7DAFE5F2107462046FFF77B
:102F5000D5FE40EA0720622168812046FFF7CEFEB9
:102F6000612107462046FFF7C9FE40EA0720642199
:102F7000A8812046FFF7C2FE632107462046FFF7DF
:102F8000BDFE40EA07206621E8812046FFF7B6FE35
:102F9000652107462046FFF7B1FE40EA0720682179
:102FA00028822046FFF7AAFE672107462046FFF742
:102FB000A5FE40EA07206A2168822046FFF79EFEB0
:102FC000692107462046FFF799FE40EA0720A882BC
:102FD00041462046FFF7DBFD3046BDE8F0811FB5D6
:102FE0008DF80C100021CDE90031134603A9012210
:102FF0008068FFF777FC05B05DF804FBF7B50E4677
:10300000154600211822044605F0EEFF0023304645
:103010000093ADF804306A4606232946FFF7DFFF28
:103020001A2DBDF90000BDF90270BDF904600DD084
:1030300008D80E2D0AD0142D08D0082D21D02046F6
:1030400003B0F0BD282D1CD02E2DF7E704F038FF7B
:103050000022184B04F09EFFC4E90001384604F03A
:103060002FFF0022134B04F095FFC4E90201304604
:1030700004F026FF00220F4B04F08CFFC4E904018A
:10308000DDE704F01DFF00220B4B05F0ADF8C4E9AD
:103090000001384604F014FF0022074B05F0A4F8A5
:1030A000C4E90201304604F00BFF0022024B05F098
:1030B0009BF8E3E70000B03F0000594030B50C46F4
:1030C00087B0054620220021201D05F08DFF242316
:1030D0002360EB6863600323A36000F0A5FF1A225E
:1030E000294620616846FFF789FFDDE9000105F008
:1030F00049FA6061DDE9020105F044FAA061DDE909
:10310000040105F03FFAE061012007B030BD00295D
:10311000F0B568DBB0F90C408C4264DD002A62DB5C
:10312000B0F90E4094425EDD847E022C5CD0032C0C
:1031300063D0012C04D1D243048914440A4621B23D
:10314000B0F938408C42A8BF0C460487B0F93A4029
:103150009442A8BF14464487B0F93C408C42B8BFA3
:103160000C468487B0F93E409442B8BF1446C487E9
:1031700090F84C40012C18D1012B44D0022B55D093
:103180009BB91446002AB0F90850B8BFD41D44F3C7
:10319000CF0405FB04140125476B02F0070605FA6E
:1031A00006F63D5D25EA06053D5590F84C40042C99
:1031B00019D1B0F90840624302EBD27401EBD1722D
:1031C00042F34F0202EB6402446BC907A05C4BBFA1
:1031D00003F00F0300F00F0020F00F0040EA03138C
:1031E00048BF0343A354F0BDD2430489013C611A94
:1031F000448909B2224412B2A2E74489013C641A0C
:10320000114622B29CE71446002AB0F90850B8BF14
:10321000D41D44F3CF0405FB04140125466B02F0D2
:103220000707BD40375D3D433555BEE71446002ACC
:10323000B0F90850B8BFD41D44F3CF0405FB041403
:103240000125466B02F00707BD40375D7D40EBE787
:1032500038B50D46114604461AB209B200F096FA86
:103260000B4B069A23600023E262079AC4E90933F4
:10327000C4E90C234FF0FF33C4E910339DF9143037
:103280002046A364049B84F84C50236538BD00BFDE
:1032900070990A0838B50C4B04460360406B18B1AE
:1032A00001F00AF900236363656A35B12846FFF728
:1032B00022F938212846FCF7F4FEA06A10B110214B
:1032C000FCF7EFFE204638BD70990A0830B5856AD4
:1032D00087B004468DF80F107DB10023CAB2CDE946
:1032E00000338DF814308DF8152001230222284672
:1032F00005A9FFF789FA07B030BD2946B0F84000AC
:1033000002F06FF82B460122606A00950DF10F0163
:10331000FFF7E9F9EFE7002914BFA721A621FFF77E
:10332000D5BFF0B5856A04460E46174685B065B12F
:1033300000238DF80F3001230DF10F000090019351
:103340002846FFF761FA05B0F0BD2946B0F8400005
:1033500002F047F82B463A463146606A0095FFF77F
:10336000C2F9F0E710B5B0F9083090F84C20B0F988
:103370000A105A43CB1D48BF01F10E03DB1004466F
:103380005A430021406B05F02FFE0023A3632389DD
:10339000013BA3876389013BE38710BD70B5436B95
:1033A00004460E4615460BB3002D33D1236D002B7A
:1033B00050D01020FCF771FE054618B13146226D41
:1033C000FFF7F7F9A5621DB301212846FFF70DFAB3
:1033D000F0B12046FFF7C6FF0023A3632389012035
:1033E000013BA3876389013BE38712E0B4F908300E
:1033F00090F84C00B4F90A205843D31D48BF02F19D
:103400000E03DB10584301F04FF860630028CBD166
:10341000002070BDA06C0028C8DB012180B201F043
:10342000CFFF0121B4F8480001F0DBFF0A2001F0D2
:10343000CBFB0021B4F8480001F0D3FF0A2001F0D3
:10344000C3FBB4F84800012101F0CBFF0A2001F0D2
:10345000BBFBABE7606A0028DAD0FFF755F800281D
:10346000D6D00121B4F8400001F0AAFFB1E78123D2
:1034700007B502228DF8051001A98DF80430FFF779
:1034800050FF03B05DF804FB2DE9F04F1F4685B0F7
:10349000BDF93880A7EB010AA8EB0209B9F1000FCA
:1034A000B8BFC9F10009BAF1000FB8BFCAF1000AEC
:1034B000D14583460C461646BDF83C3004DD3A46FD
:1034C000344647460E469046BC4205DD32464646E7
:1034D000904622463C4617463A1B91B20091A8EB13
:1034E000060181EAE170A0EBE170C2F3C03511B2D0
:1034F0004645B4BF01224FF0FF320D4401906D10DC
:103500000292BC421CDCDBF80020D145D2F81880C6
:10351000C7BF314622463246214603935846C0472C
:10352000019A039BAD1AA9B22DB2002D05DA029AB9
:103530001644009A36B255182DB2013424B2E0E791
:1035400005B0BDE8F08F704710B404682469A44644
:1035500010BC604730B4BDF8085004680295A46BF5
:10356000A44630BC604730B4BDF8085004680295EA
:10357000E46BA44630BC604770B4BDF90C50BDF894
:1035800010600468CDE90356246CA44670BC604703
:103590002DE9F3411C46164605460F460368013CDB
:1035A000BDF820805B693444984724B22B68CDF87D
:1035B0000480009428469C6A32463B463946A04720
:1035C00028462B68DB6A02B0BDE8F04118472DE9B8
:1035D000F341174604461D460E460368BDF8208099
:1035E0005B699847CDE9007822686B1E334420461A
:1035F000956A31463A461BB2A84720462368DB6AE3
:1036000002B0BDE8F04118472DE9F3471E460368B4
:103610000C465B6905461746BDF92880BDF82C901D
:1036200098472644B4422B680BDACDF80090214627
:10363000D3F820A03A46434628460134D04724B266
:10364000F0E72846DB6A02B0BDE8F047184713B53B
:103650000191B0F90E1002680091146C0022B0F9CB
:103660000C301146A04702B010BD2DE9F743994236
:10367000164680460D461C46BDF92870BDF82C90B4
:10368000026812D1BE42C2BF33463E461F46CDF845
:1036900028907B1C946B9B1B324629464046A446CF
:1036A0001BB203B0BDE8F0436047BE420AD1994265
:1036B000C2BF0B4625461C46CDF82890631C5B1BF9
:1036C000D46BE9E753699847CDE90079D8F8003021
:1036D00040469F6A324623462946B8474046D8F8B6
:1036E0000030DB6A03B0BDE8F04318472DE9F3472B
:1036F00004460F4616461D460368BDF82C805B69DC
:10370000BDF9289098472368CDF8008032463946A5
:103710002046D3F824A02B46D047236809F1FF3276
:10372000CDF80080324439462046D3F824A012B2A6
:103730002B46D0472368CDF80080324639462046D4
:10374000D3F820A04B46D047013D2368E919CDF8B6
:10375000008020461D6A32464B4609B2A8472046E3
:103760002368DB6A02B0BDE8F0471847704701F0F4
:103770000303B0F90A208376B0F90830C90759BFAE
:103780008381C2818281C3817047000030B501818D
:10379000002481814FF0FF31054D4281C281054AED
:1037A0004460C0E90512056004610477046230BD1D
:1037B000CC9E0A08010100012DE9F04F0026374692
:1037C000354687B00293BDF94430BDF9408003937C
:1037D0000368CDE900125B690446BDF848A098472C
:1037E00018F1070348BF08F10E034FEAE30B019BF2
:1037F0000399DA193BB2994212B225DD4FF0000964
:10380000029B334404930FFA89F398451FFA89F118
:1038100017DD480705BF0498DB106D00C55C18BFB5
:10382000EDB22B060AD5009B059219442368204669
:103830009B6909B29C465346E047059A09F1010984
:10384000E1E701375E44D2E720462368DB6A07B030
:10385000BDE8F04F184700002DE9F04F91B0174632
:103860001E46026ABDF868308246BDF86C809DF83D
:1038700070509DF8744006910393002A40F0B9807F
:10388000B0F90C308B4240F33781B0F90E30BB42B7
:1038900040F33281062303FB0513002B40F32C81F8
:1038A00007EBC403002B40F32781037F1BB9AF2E26
:1038B00084BF0136F6B2DAF8003050465B699847AB
:1038C00005230A93002305938D4B06EB86063344AC
:1038D0000D93BBB207930D9B059ABDF814609B5CDA
:1038E0004FF000090893ABB20C93BDF81830049365
:1038F00005FB06331BB2099308230B93049B1E445C
:1039000036B2089ADAF80030D2074DD5012D079962
:103910001FFA89F23BD1012C39D1D3F818B0039B9F
:103920000A443146504612B2D847089B09F10109B2
:103930005B0808930B9B4FFA89F9013B13F0FF03D7
:103940000B93DED1059B01335BB205930A9B013BD0
:1039500013F0FF030A93BED1039B43450FD0012D03
:10396000DAF8003034D1012C32D10499CDF800803E
:1039700005311C6A3A460823504609B2A047504612
:10398000DAF80030DB6A11B0BDE8F04F184704FBED
:103990000212039901910094D3F81CB050462B46B3
:1039A000099912B2D847C0E7039A4245BDD0012D0C
:1039B00007991FFA89F206D1012C04D1D3F818B067
:1039C0000A444346ADE704FB0212CDF80480E2E767
:1039D0000C9AE40002EB8201049ACDF804800A44B8
:1039E00011460094DC693A462B46504609B2A0477E
:1039F000C5E7137A5168F61A1268F6B20C9231F8DC
:103A0000362001EBC60304929A78012D0892DA78E9
:103A100093F906B00D9293F90520099201D8012C73
:103A200050D9BDF9243005930FFA8BF307934FF06B
:103A30000008C1464646DAF8003050465B699847B0
:103A4000BBB20A935B440F930D9B9E4297D2079B98
:103A50000A9A334403FB04231BB20B93002743460B
:103A60000F9A02EB060B0FFA8BFB089A97423CD297
:103A70005A1CD2B25B070E9207D1049B04990C9A90
:103A800001339BB212F80190049319F0800F11D00A
:103A9000012DDAF80030BDF8181017D1012C15D11E
:103AA000099A9B69114439449C465A465046039BE7
:103AB00009B2E0474FEA490901370E9B5FFA89F9DD
:103AC000FFB2D2E7002307930593B0E7059A50466B
:103AD0003A4402FB0511039A09B2CDE90042DB69C1
:103AE0000B9A9C462B46E047E4E7089B0136984436
:103AF0005FFA88F8F6B2A7E711B0BDE8F08F00BF13
:103B0000C4990A08F0B5026A04460B4685B0002A3B
:103B100034D10A2908D1438A0282427E03EBC203D0
:103B20006382012005B0F0BD0D29FAD0E17E007E50
:103B3000657E71B10626B4F9101006FB0011B4F9C8
:103B40000C60B142C1BFB4F91210228201EBC50270
:103B50006282E28ACDE902050192A28A20460092A1
:103B6000B4F91010B4F91220FFF776FE237E228AF2
:103B700003EB430302EB43032382D2E70A2907D175
:103B800000230382417E127B438A01FB0233C7E795
:103B90000D29C6D0157AA942C3D3917A9942C0D3D0
:103BA00051685D1BEDB201EBC505A87828B3E97833
:103BB00019B3E17E267E677E91B195F90510084420
:103BC000B4F9101006FB0011B4F90C00814207DDB6
:103BD00000202082B4F91210127B02FB07126282CD
:103BE000E28A20460192A28ACDE902670092B4F9E6
:103BF0001010B4F91220FFF72FFE2979227E238AB4
:103C000001FB0233B8E7012938BF01210176417673
:103C100070472DE9F04F04468BB000F035FAB4F947
:103C20000A30B4F93A50DA1D48BF03F10E024023BE
:103C3000B4F9087094F83890FFB2002DB8BF07357A
:103C4000B94528BFB9464FF0000B8DF82330C2F3B9
:103C5000C7030393A36AC5F3C705DB6807FB059A8F
:103C6000013B9BB20493B4F93C307A1C23EAE37322
:103C7000DBB213440693039B9D426AD2636B268991
:103C800094F8542003EB0A08069B4A449E1BA36A3F
:103C90001111A6EB0906A5F15000F6B2C0B2103121
:103CA00002F00F02002B34D08DF825008DF826107D
:103CB0001846E16A8DF827208DF824B0FEF729FE1A
:103CC00001230422CDE900BBA06A09A9FEF79CFDEF
:103CD0009DF810300593A06AA6B1059A0123B2425F
:103CE00028BF324601930DF123034146009301237F
:103CF0000792FEF789FD079AB61A9044F6B200F0D3
:103D0000C3F9E8E7216BFEF704FE0135EDB2BA44D2
:103D1000B1E78DF824008DF82510B4F8400019465D
:103D20008DF82620059301F05CFB059B0322009390
:103D300009A9606AFEF7D7FCB4F84000012101F040
:103D400050FB059B32464146606A0093FEF7CBFC70
:103D5000DBE74FF004224FF0FF33C4E90E230BB032
:103D6000BDE8F08F30B5044685B00A9D0395099DE6
:103D700002959DF92050CDE9003513460A460121F0
:103D8000FFF766FA034B20462360002384F8543083
:103D900005B030BD249F0A0810B50446024B0360ED
:103DA000FFF778FA204610BD249F0A0810B5044694
:103DB000024B0360FFF7F0FF204610BD60A10A0828
:103DC00010B50446FFF7F2FF20465821FCF769F9C9
:103DD000204610BD30B5044685B00A9D0295099D68
:103DE00001959DF920500095FFF7BCFF2046024B3E
:103DF000236005B030BD00BF60A10A0830B504469D
:103E000085B0FFF7CBFA2F212046FFF730FBA268E1
:103E10002F4B9A4221D12368012120461B6B9847E2
:103E200001252023CDE901357323B4F90820B4F925
:103E30000A10203A733902EBD27201EBD17120469D
:103E4000009341F34F01234B42F34F02FFF7B4FCC1
:103E50002368002120461B6B9847A368B3F1801F9D
:103E600017D120230120CDE901307323B4F90820B4
:103E7000B4F90A10203A733902EBD27201EBD17116
:103E800000932046134B42F34F0241F34F01FFF7DB
:103E900093FC162220461049FFF743FA054618B94D
:103EA0000025284605B030BDA368B3F1801F07D0B8
:103EB000642000F089FEAF212046FFF707FAF0E703
:103EC000042220460549FFF72CFA0028F0D1E7E745
:103ED00040008000789F0A08B8A10A08B4A10A0827
:103EE0000022026002717047F8B5054610200E46A8
:103EF0001746FCF7D2F8044618B13A463146FEF7A9
:103F000058FC20462C602E710121BDE8F840FEF7D8
:103F10006CBC30B50B0A85B08DF80C300023CDE9B0
:103F2000003305468DF80D108DF80E200123032275
:103F3000006803A9FEF768FC60B16524013C14F039
:103F4000FF0407D02868FEF73BFC20B9012000F0F1
:103F50003BFEF3E7002005B030BD1FB50B0A002281
:103F60008DF80C300123CDE9003203AB8DF80D1034
:103F7000022219460068FEF7B5FC08B19DF80C0056
:103F800005B05DF804FB000008B5024B1B685B68D8
:103F9000019308BDB001060808B5024B1B689B6879
:103FA000019308BDB001060808B5024B1B68DB6829
:103FB000019308BDB001060808B5024B1B681B69D8
:103FC000019308BDB001060808B5024B1B685B6988
:103FD000019308BDB001060808B5024B1B689B6938
:103FE000019308BDB001060808B5024B1B68DB69E8
:103FF000019308BDB001060808B5024B1B681B6B96
:10400000019308BDB001060808B5024B1B685B6848
:10401000019308BD9C01060808B5024B1B68DB68CC
:10402000019308BD9C01060808B5024B1B685B693B
:10403000019308BD9C01060808B5024B1B689B6AEA
:10404000019308BD9C01060808B5024B1B685B6C18
:10405000019308BD9C01060808B5024B1B689B6CC8
:10406000019308BD9C01060808B5024B1B689B6DB7
:10407000019308BD9C01060808B5024B1B685B6EE6
:10408000019308BD9C01060808B5024B1B68DB685C
:10409000019308BDD001060808B5024B1B685B6C94
:1040A000019308BDD001060808B5024B1B689B6C44
:1040B000019308BDD001060808B5024B1B68DB6CF4
:1040C000019308BDD001060808B5024B1B685B6D63
:1040D000019308BDD001060808B5024B1B685B6A56
:1040E000019308BDC401060808B5024B1B689B6A12
:1040F000019308BDC401060808B5024B1B68DB6AC2
:10410000019308BDC401060808B5024B1B681B6B70
:10411000019308BDC401060808B5024B1B685B6B20
:10412000019308BDC401060808B5024B1B689B6BD0
:10413000019308BDC401060808B5024B1B681B6C3F
:10414000019308BDC401060808B5024B1B681B6E2D
:10415000019308BDC401060808B5024B1B681B6C1F
:10416000019308BDAC01060808B5024B1B68DB6C67
:10417000019308BDAC01060808B5024B1B689B6D96
:10418000019308BDAC01060808B5024B1B68DB6D46
:10419000019308BDAC01060808B5024B1B681B6EF5
:1041A000019308BDAC01060808B5024B1B685B6EA5
:1041B000019308BDAC01060808B5024B1B689B6E55
:1041C000019308BDAC01060808B5024B1B68DB6E05
:1041D000019308BDAC01060808B5024B1B681B6FB4
:1041E000019308BDAC01060808B5024B1B685B6F64
:1041F000019308BDAC01060808B5034B1B68D3F852
:104200008030019308BD0000AC01060808B5034BDF
:104210001B68D3F89030019308BD0000AC0106087C
:1042200008B5024B1B681B68019308BDB401060862
:1042300008B5024B1B685B69019308BDB401060811
:1042400008B5024B1B68DB69019308BDB401060881
:1042500008B5024B1B681B6A019308BDB401060830
:1042600008B5024B1B685B6A019308BDB4010608E0
:1042700008B5024B1B689B6A019308BDB401060890
:1042800008B5024B1B689B6B019308BDB40106087F
:1042900008B5024B1B68DB6B019308BDB40106082F
:1042A00008B5024B1B681B68019308BDD8010608BE
:1042B00008B5024B1B685B68019308BDD80106086E
:1042C00008B5024B1B681B69019308BDD80106089D
:1042D00008B5024B1B685B69019308BDD80106084D
:1042E00008B5024B1B689B69019308BDD8010608FD
:1042F00008B5024B1B68DB69019308BDD8010608AD
:1043000008B5024B1B681B6A019308BDD80106085B
:1043100008B5024B1B685B6A019308BDD80106080B
:1043200008B5024B1B689B6C019308BDC0010608D1
:1043300008B5024B1B685B6B019308BDA80102081E
:1043400008B5024B1B681B68019308BDA401060851
:1043500008B5024B1B685B68019308BDA401060801
:1043600008B5024B1B685B69019308BDA4010608F0
:1043700008B5024B1B689B6D019308BDA40106089C
:1043800008B5034B1B68D3F89030019308BD0000BB
:10439000A401060808B5034B1B68D3F89C300193B1
:1043A00008BD0000A401060808B5024B1B685B6845
:1043B000019308BDC801060808B5024B1B689B683D
:1043C000019308BDC801060808B5024B1B68DB68ED
:1043D000019308BDC801060808B5024B1B681B699C
:1043E000019308BDC801060808B5024B1B685B694C
:1043F000019308BDC801060808B5024B1B689B69FC
:10440000019308BDC801060808B5024B1B68DB69AB
:10441000019308BDC801060808B5024B1B681B6A5A
:10442000019308BDC801060808B5024B1B681B6B49
:10443000019308BDC801060808B5024B1B685B6BF9
:10444000019308BDC801060808B5024B1B681B6C28
:10445000019308BDC801060808B5024B1B685B6CD8
:10446000019308BDC801060808B5024B1B689B688C
:10447000019308BDCC01060808B5024B1B685B69B7
:10448000019308BDCC01060808B5024B1B681B6BE5
:10449000019308BDCC01060808B5024B1B68DB6B15
:1044A000019308BDCC01060808B5024B1B681B68C8
:1044B000019308BDA001060808B5024B1B685B68A4
:1044C000019308BDA001060808B5024B1B689B6854
:1044D000019308BDA001060808B5024B1B685B6A82
:1044E000019308BDA001060808B5024B1B68DB6BF1
:1044F000019308BDA001060808B5024B1B681B6CA0
:10450000019308BDA001060808B5024B1B685B6C4F
:10451000019308BDA0010608FFF7D6BDFFF7CCBD8B
:1045200070B5002604460D4640F8086FFFF7B4FD4D
:1045300028462570FFF784FE2046666070BD10B5E2
:1045400004468068FFF7EAFF20784FF6FF71FFF717
:1045500067FEA068BDE81040FFF7DEBF8068FFF788
:10456000DBBF000030B50024400818601868E5B2D1
:10457000884206D90134082C02D040081860F5E7BB
:104580000725024B5B5D137030BD00BFCEA10A084A
:104590002DE9F04306468FB080680C46FFF7BEFF5A
:1045A0001422002109A8357804F01EFD0B230022F7
:1045B000284609A9ADF82430FFF752FE9DF82D30AA
:1045C00013B19DF82C5055B100270125B946B846C6
:1045D00023795DB1C3B100200FB0BDE8F083DDF8F1
:1045E00030809DF834909DF83570F1E7002B35D17F
:1045F000A368434508D18DF820908DF82170BDF84F
:104600002020A3899A42E6D00023A1688DF80F30BC
:104610000A9804AB0DF10F02FFF7A4FF217985B9C9
:1046200089B9A36843450ED38DF820908DF8217089
:10463000BDF82020A3899A4205D1049B434502D1AD
:10464000C9E70029F9D100230193637B9DF80F206E
:104650000093237B3078FFF71BFEBCE72B462A46EE
:104660000121CDE90055F5E708B50078FFF7E0FD39
:10467000C0B208BD30B587B00A9D044600950078E9
:10468000FFF7F6FD3DB9207802A9FFF7F9FD9DF887
:104690001430DB07F7D407B030BD00000222002041
:1046A000044B1A60044B054AC3E900009A60FFF707
:1046B0004FBE00BF5C020020500200200000FFFF40
:1046C00010B504460068FFF7F7FE204610BD10B590
:1046D0000446006808B1FFF7EFFE0023C4E9013388
:1046E000236010BD38B504460D4600680131FFF760
:1046F000EBFE10B1C4E90005012038BD10B5036818
:10470000044623B143688B4201D3012010BD2046EB
:10471000FFF7E8FF0028F9D0A368002BF5D1226845
:104720001370F2E770B50E46114604461546FFF7C2
:10473000E5FF20B92046FFF7CAFF204670BD2A4694
:1047400031462068A56004F041FC00212268A3687E
:10475000D154F2E738B5002304460D46C0E90033D2
:104760008360037339B1084604F07CFC2946024695
:104770002046FFF7D7FF204638BD38B5054600680C
:104780000C4668B16A688B689A4207D3096804F0DE
:1047900061FCA368AB600023A36038BDFFF78CFE0B
:1047A00023682B6063686B60A368AB600023C4E977
:1047B0000033F1E7884210B5044601D0FFF7DDFF72
:1047C000204610BD38B505460C4649B1084604F0F0
:1047D00049FC214602462846FFF7A4FF284638BD7B
:1047E000FFF775FFFAE7F8B506460D4600248F1867
:1047F000BD420CD0336830469B6815F8011B9847C2
:10480000031E01DB1C44F3E7002C08BF1C462046B6
:10481000F8BD70B505460C46084649B104F022FCC7
:104820002B68024621462846BDE87040DB681847E1
:1048300070BD08B5FFF7EDFF08BD03689B6818471A
:1048400038B50D210546FFF7F8FF0A210446284632
:10485000FFF7F3FF204438BD38B50546FFF7D9FF11
:1048600004462846FFF7ECFF204438BDFFF7F4BFAD
:104870000023012A98BF0A2230B58BB00C468DF870
:10488000243009A92546B4FBF2F404FB1253DBB231
:10489000092B94BF30333733DBB2AA4201F8013D14
:1048A000F0D9FFF7B6FF0BB030BD2DE9F04192B063
:1048B0009DF860800021B8F1010F044698BF4FF0C9
:1048C0000A088DF8441011AD16461F4642460023D3
:1048D0003046394604F0F0F9024608FB10600B46FA
:1048E000C1B2092994BF30313731C9B2464505F804
:1048F000011D77F10001E7D229462046FFF789FF25
:1049000012B0BDE8F08100002DE9F74F05461946C9
:10491000104692461F469DF8306003F0D5FD40B129
:1049200051492846FFF775FF0446204603B0BDE80D
:10493000F08F27F000444FF0FF32504621464B4B9A
:1049400003F0C2FD48B94FF0FF3250462146474BB5
:1049500003F09CFD08B94649E3E74FF0604250463A
:104960003946444B03F0A6FD08B14349D9E74FF05F
:10497000604250463946414B03F07EFD0028F4D199
:10498000002200235046394603F076FD044630B13C
:104990002D212846FFF751FF044607F100474FF04D
:1049A000000B00204FF000083549DFF8D8905FFA7F
:1049B0008BF39E4206D942464B4603F015FC0BF1A1
:1049C000010BF4E73B46524603F02EF98946804638
:1049D00003F0B8FD074603F063FA02460B46404673
:1049E000494603F01FF90A2280468946284639467F
:1049F000FFF73EFF0444002E97D028462249FFF7D8
:104A000008FF4FF0000ADFF87CB00444002E8CD081
:104A100052465B464046494603F0BCFA804689460A
:104A200003F068FD071E1BDA2D212846FFF705FF5E
:104A3000034679420A2228460193FFF719FF019B9A
:104A4000013E034438461C4403F03AFA02460B4642
:104A50004046494603F0E6F8F6B280468946D5E777
:104A600039460023E6E700BFD6A10A08FFFFEF7F23
:104A7000DAA10A08FFFFEF41DEA10A08FFFFEFC13C
:104A80000000E03F00002440E0970A0837B50546E3
:104A90001446084603F026FAE4B202460B462846BE
:104AA0000094FFF731FF03B030BD2DE9F04186B02F
:104AB00000AF05460E46381D142114463B60FFF733
:104AC0000BFD13280ED82846391DFFF7A2FE044619
:104AD0001EB12846FFF7B4FE044420461837BD46F1
:104AE000BDE8F08100F1080323F00703E846ADEBD1
:104AF000030D2246411C3B686846FFF7EDFC694602
:104B00002846FFF786FE0446C546E1E700234068D5
:104B10001A461946FFF768BC014B024A1A607047F3
:104B200060020020E2A10A0808B50020FFF7ACFCF3
:104B300028B1FFF7A1FC80F00100C0B208BD012040
:104B4000FCE710B50020FFF78FFA0446A0B9FFF785
:104B5000F7FB012810D12046FFF70AFC60B9FFF7E8
:104B6000E3FF10B9FFF780FCF9E7FFF7DDFFBDE8D1
:104B700010400020FFF778BA204610BD1FB5FFF7A0
:104B8000E0FF10220021684604F02EFA002168465A
:104B9000FFF772FA009805B05DF804FB024B1A6843
:104BA000024B1A60704700BF08000020640200201A
:104BB0008A4210B507D0029C401AE41A6043521A88
:104BC00090FBF2F0184410BD0021FFF7C9BB0000B4
:104BD0000022014B9A60704768020020014B186068
:104BE000704700BF1000002008B5134B43B100F020
:104BF0007BF903681B699847002801DDAFF300804B
:104C00000E4B43B100F04CFC03681B699847002829
:104C100001DDAFF300800A4B0BB1AFF30080094B0D
:104C200043B100F09BF903681B699847002801DD38
:104C3000AFF3008008BD00BF0000000000000000CE
:104C4000000000000000000008B5FFF7CDFFFFF7EF
:104C5000EBF9014B186008BDDC0500200548064A49
:104C600008B5121A054904F0B1F9054B054A1A6056
:104C700008BD00BF004002400440024078A80A0876
:104C8000004002401E1C279A002307B51A466FF009
:104C900077010093FFF77EFB03B05DF804FB000093
:104CA00007B543880A2B08D0502B0BD1094B1B6842
:104CB0004BB103B05DF804EB1847FFF7E5FF03B015
:104CC0005DF804FB00231A466FF077010093FFF7AD
:104CD00061FBF4E77C020020002110B51148FFF7CA
:104CE00013FC114B1A68114B9A420CBF012200228F
:104CF0000F4B1A7001D0FFF7B1FFFFF785F904469B
:104D000004F07AF90B4B13B12046AFF30080002179
:104D10000848FFF7C1FBBDE8104000210648FFF737
:104D20002FBB00BFDD4B0A08004002401E1C279A23
:104D30007802002000000000A14C0A087047F8B576
:104D40000E46002400F10807051D17F8011D0A2270
:104D50003046FFF78DFDAF42044401D12046F8BD37
:104D6000002CF2D02E213046FFF767FD0444ECE71B
:104D700010B504461821FBF794F9204610BD000039
:104D800010B50446044B1122002140F8043B04F006
:104D90002BF9204610BD00BF0CA20A080346074AA3
:104DA00010B543F8042B01F1100251F8044B914265
:104DB00043F8044BF9D10A781A7010BD0CA20A0806
:104DC000024AC0E900210422027570470CA20A08B9
:104DD00010B59DF8084044EA0324042344EA024441
:104DE00044EA01644460037510BD000013B5044C2F
:104DF00004609DF810400094FFF7EAFF02B010BD78
:104E00000CA20A08417470477047704708B500212A
:104E1000007CFFF765FA40EAE07008BD08B50121A3
:104E2000007CFFF75DFA40EAE07008BD08B5007C41
:104E3000FFF74EFA20EAE07008BD08B5007CFFF7E6
:104E40003FFA20EAE07008BD38B50446007C0D4604
:104E5000FFF73EFA002801DC607C28B12946207C5F
:104E6000FFF746FA20EAE07038BD007CFFF748BA49
:104E700010B504461421FBF714F9204610BD704705
:104E800010B54FF47A73044608460021C4E90113B3
:104E9000044B20742360012311466374FFF700FA6A
:104EA000204610BD20A20A080022007CFFF700BAAD
:104EB000007CFFF72DBAFFF7FBBF000010B50446DA
:104EC0001422002104F090F8054B20466360054B46
:104ED000E36040F2011323818123238210BD00BFD0
:104EE000B0020020B103002030B50E4D87B001A8FC
:104EF000FFF7E4FF2978BFF35B8F11F001040ED1B7
:104F00002846FBF7DBF850B1214601AA0648FFF717
:104F1000B7FF2846FBF7D7F8044804F051F80248D9
:104F200007B030BD8002002088020020094E0A0828
:104F300010B504461422002104F056F8054B204613
:104F40006360054BE36040F20113238181232382D8
:104F500010BD00BF320400203305002010B50E4CF8
:104F600086B001A8FFF7E4FF2378BFF35B8FDB0770
:104F70000ED42046FBF7A2F850B1012101AA074840
:104F8000FFF77EFF2046FBF79EF8054804F018F86F
:104F9000024806B010BD00BF840200209C02002021
:104FA0007F4E0A08004700002DE9FF4100241D46FE
:104FB0000F4690460646FFF717F80423A5428DF8E2
:104FC0000C30A8BF9DF82830ADF80D408DF80F408B
:104FD000A4BF03AC8DF80E303A464346304606492E
:104FE0000094A8BF8DF80D50FEF7F6FFB0FA80F0E0
:104FF000400904B0BDE8F081A54F0A08704741742C
:10500000704708B5007CFFF797F820EAE07008BD0C
:1050100008B5007CFFF768F820EAE07008BD08B525
:10502000007CFFF771F840EAE07008BD08B5007C2D
:10503000FFF762F840EAE07008BD007CFFF76CB84B
:1050400070B5467C04460D462EB12946207CBDE84D
:105050007040FFF741B8007CFFF76EF80028F4DCE1
:10506000304670BD10B504461421FBF71AF82046EF
:1050700010BD000010B54FF47A730446084611467F
:105080000022C4E90123044B2074236001236374CC
:10509000FFF75AF8204610BD50A20A087047F8B52D
:1050A000064615460C468F18BC4206D0336830467B
:1050B0009B6814F8011B9847F6E72846F8BD0022C4
:1050C000007CFFF769B80021007CFFF76DB8002174
:1050D000007CFFF771B80021007CFFF775B8002154
:1050E000007CFFF779B810B504461421FAF7D9FF10
:1050F000204610BD10B54FF47A73044608460021CF
:10510000C4E90113034B114623602074FFF774F8C0
:10511000204610BD80A20A080022007CFFF71CB8C0
:105120000023007C1A461946FFF71EB87FB50022FF
:105130001423CDE90122ADF804300B78007C8DF802
:1051400008304B680393CB6804930B7A01A905934D
:10515000FFF75CF807B05DF804FB1FB5003B8DF866
:1051600000104FF0640118BF0123039169460192BA
:105170008DF80830FFF7DAFF05B05DF804FB012376
:10518000FFF7EBBF0022007CFEF7F6BF0022007C99
:10519000FEF7FABF0121FFF7F9BF00224068114670
:1051A000FFF71AB9F0B5154689B011220E4604462C
:1051B000002103A803F018FF284603F053FF00273F
:1051C00081B273682846009703AAFFF7A9F830B1A7
:1051D00039462046FFF7F4FD204609B0F0BD2046D1
:1051E00003A9FFF7DBFDF7E7002240681146FFF750
:1051F00013B9002240681146FFF71EB9002240682B
:10520000FFF712B90022406881F00101FFF7FCB8F6
:10521000002340681A461946FFF7EEB8002240689E
:105220001146FFF7C9B8002202214068FFF7CCB849
:10523000002340681A46FFF7B7B800000422024B6B
:105240005A60024A1A607047B4050020A8A20A08F2
:10525000002340681A46FFF7A7B8002202214068E1
:10526000FFF7B2B8002240681146FFF7A5B8002248
:1052700040681146FFF7B0B8002340681A46194647
:10528000FFF7B2B8002340681A461946FFF7B4B8D2
:1052900000214068FFF7D8B800214068FFF7DCB86C
:1052A0000022406881F00101FFF7AEB8002240689B
:1052B000FFF7BAB8002240681146FFF7BDB80022D8
:1052C00040681146FFF7A8B870B515468EB0044681
:1052D00008A8FFF755FD1122002103A803F084FE62
:1052E0000026284603F0BEFE0A4B009681B25B689A
:1052F000284603AAFFF714F830B131462046FFF7DD
:105300005FFD20460EB070BD204603A9FFF746FDA5
:10531000F7E700BFB4050020024B034A1A600022E1
:105320005A607047BC050020E4A20A08024B986846
:1053300008B1FEF7B9BE704744020020172870B5C7
:10534000044601D9002070BDA0F10D03022B0BD93A
:10535000012824D800F004F90021007CFEF744FF66
:1053600080F00100C0B2EEE7124E3178BFF35B8FE0
:1053700011F001050DD13046FAF7A0FE48B12946DB
:105380000D48FFF7CDF83046FAF79DFE0B4803F0C5
:1053900017FE094B1878FEF75BFF0028D2D1123CAC
:1053A000012C05D800F07CF8007CFEF7BDFED7E7A5
:1053B0000120C8E740020020440200202D530A08C3
:1053C000172838B504460D460AD8FF2908D0FFF73C
:1053D000B5FF28B129462046BDE83840FEF7DCBDC0
:1053E00038BD38B504460D46FEF7DEFDFF2810D067
:1053F000062804D84D2323FA00F0C30709D4204619
:10540000FFF79CFF28B129462046BDE83840FEF74B
:10541000D3BD38BD10B50446FEF7C6FD031FDBB291
:10542000012B08D92046FFF789FF20B12046BDE8AF
:105430001040FEF7C9BD002010BD10B50446092874
:105440009CBF0A34A4B22046FFF778FF50B1032175
:105450002046FEF799FD032804D12046BDE8104000
:10546000FEF7CABD002010BD7047000070B51425BE
:1054700004462A46002103F0B7FD25808025074E0B
:10548000284631462581258200F08EF8314660603D
:10549000284600F089F8E060204670BD18A30A088D
:1054A00030B50E4D87B02978BFF35B8F11F0010442
:1054B00011D12846FAF702FE68B101A8FFF7D6FF1E
:1054C000214601AA0648FFF7D5FD2846FAF7FBFD5D
:1054D000044803F075FD024807B030BDC405002044
:1054E000C805002069540A0810B5084C2378BFF39A
:1054F0005B8FDB0708D42046FAF7E0FD20B1FEF70A
:105500009BFD2046FAF7DFFD014810BDE0050020B5
:10551000E4050020002307B51A4619460093034806
:10552000FFF764FC03B05DF804FB00BFE805002052
:105530007047000070B514232025084E0446036010
:10554000314685600561284600F02EF831466060DE
:10555000284600F029F8E060204670BD18A30A082C
:1055600030B50E4D87B02978BFF35B8F11F0010481
:1055700011D12846FAF7A2FD68B101A8FFF7DAFFBA
:10558000214601AA0648FFF7B5FD2846FAF79BFD1C
:10559000044803F015FD024807B030BD00060020A6
:1055A0000406002031550A08FAF779BD1A4A20F09E
:1055B000004393421ADD00B5B3F1FF4F83B005DB22
:1055C000014603F033F803B05DF804FB694601F0CF
:1055D000A5F800F00302012A0BD0022A15D07AB1F7
:1055E00001220199009801F03FFEECE7002101F053
:1055F00007BA0199009801F037FE00F10040E2E798
:105600000199009801F0FCF9DDE70199009801F09B
:10561000F7F900F10040D6E7D80F493F1B4A20F0C8
:10562000004393421BDD00B5B3F1FF4F83B005DBB0
:10563000014602F0FBFF03B05DF804FB694601F090
:105640006DF800F0030001280DD0022816D078B1C3
:105650000199009801F0D4F900F10040EBE7002235
:10566000002101F001BE0199009801F0C9F9E2E7BB
:1056700001220199009801F0F7FDDCE70122019970
:10568000009801F0F1FD00F10040D4E7D80F493F48
:1056900000F0C2B82DE9F8431D4606460F461446F1
:1056A00000F086F9574B804693F900308946013364
:1056B0002AD022462B462046294602F005FF18BB79
:1056C00032463B463046394602F0FEFE002841D1C4
:1056D000002200233046394602F0C4FEC0B1002249
:1056E00000232046294602F0BDFE00283AD120467C
:1056F000294601F0BFFF38B1204629460022002389
:1057000002F0BAFE002859D140464946BDE8F88368
:105710004046494601F0AEFF60B3002200234046F8
:10572000494602F09FFE0028EED03046394601F08F
:10573000A1FF0028E8D02046294601F09BFF002861
:10574000E2D0FEF7D1FE22234FF000084FF000090F
:105750000360D9E7204629460022002302F082FE9A
:105760000028D1D04FF00008DFF89C904046494611
:10577000BDE8F8833046394601F07CFF0028CCD0E4
:105780002046294601F076FF0028C6D042464B4607
:105790004046494602F098FE30BBFEF7A5FE2222A5
:1057A000034639461A6030460022002302F064FEA8
:1057B0004FF0000858B9DFF85490A5E7FEF794FEC3
:1057C00021234FF00008DFF8489003609CE7204653
:1057D000294601F05BFF22462B4602F043FE0028DB
:1057E000E9D1DFF82C908FE7FEF77EFE0022002340
:1057F000212101601046194602F0F6FC80468946D8
:1058000082E700BF0C0000200000F03F0000F07FA6
:105810000000F0FF00F0FABE9C462DE9F84F53421D
:105820005F4C13432CF0004949EAD373A3429646D8
:1058300007460E463DD84542054321F0004A4AEA54
:10584000D575A54203468B4633D80CF1404505F586
:10585000801515433DD04FEAAC7505F002055AEAB4
:10586000030345EAD1752CD059EA020335D0A1458E
:1058700046D0A24531D0AAEB0909B9F1747F4FEAAD
:10588000295339DABCF1000F46DA3C3344DA002000
:105890000021012D58D0022D49D085B134A3D3E980
:1058A000002302F0BFF934A3D3E9002302F0BAF9D0
:1058B00005E03A4670466146334602F0B5F9BDE868
:1058C000F88F022D10D0032DF9D12DA1D1E90001BF
:1058D000F5E7BDE8F84F01F03BBDBBF1000F07DB7A
:1058E00029A1D1E90001EAE723A1D1E90001E6E716
:1058F00027A1D1E90001E2E723A1D1E90001C8E72E
:10590000CA4505F1FF3523D0022D29D8254B03EBDD
:10591000C505D5E90001D2E77246634638463146EF
:1059200002F062FC01F0A2FE01F012FDB1E710A34B
:10593000D3E9002302F076F902460B460EA1D1E925
:10594000000102F06FF9BAE701F100431946B6E72A
:10595000022D08D8144B03EBC505D5E90001AEE7CD
:1059600000200021ABE70CA1D1E90001A7E700BFAF
:10597000075C143326A6A13C182D4454FB21094092
:10598000182D4454FB2109C0182D4454FB21F93F24
:10599000182D4454FB21F9BF182D4454FB21E93F35
:1059A0000000F07F38A30A0820A30A0800000000C6
:1059B0002DE9F04F9946904629F000451E461346C2
:1059C00055EA080293B035D06B4A21F00044944266
:1059D00083468A460F46009025DC34D0954222DC6F
:1059E000654A95421DD0002F36DB00220292002B23
:1059F0004CD1614B9D4200F09780604B9D4200F07E
:105A0000A580B6F1804F00F0A3845D4B9E423DD14E
:105A1000002F3BDB5846514613B0BDE8F04F00F075
:105A20002FBD002BDFD0009B04F1404404F580140F
:105A300023430BD10023514CCDE90034DDE90001B3
:105A400013B0BDE8F08F08B9A542C9DD4D4813B0C9
:105A5000BDE8F04F01F014BE4B4A95427EDCA2F146
:105A6000547295420EDD2A15A2F2FF32142A40F339
:105A70007984C2F1340223FA02F101FA02F29A4265
:105A800000F0C58400220292002BB6D05846514641
:105A900001F0ECFD5B46CDE9000133BB24B1374B8F
:105AA00027F040429A4220D1002E07DADDE9002398
:105AB0000020324902F098FBCDE90001002FBDDA49
:105AC000029B04F1404404F58014234340F06F84AA
:105AD000DDE900231046194602F0A4F802460B4601
