:02000002D0002C
:1040000000400D00F8E20D00000006000D00050163
:0840100004019A080000000001
:044018009CCC0D002F
:1040200009480A49884208B505D0094A824202D0A7
:10403000121A08F06FFD0748074A0021121A08F00B
:1040400077FD014808BD00BF98E303205CE20D0046
:104050000CE4032010E40320F1E7032070B5074EC1
:10406000074C04F0CBFCA41BA4080025A54200D1FA
:1040700070BD56F8043B98470135F7E728E20D007C
:104080004CE20D0001F002B808B500F063FFBDE896
:10409000084004F06BBC04F067B804F065B804F0A5
:1040A0006BB8000008B5034A00210C2003F0A0FF04
:1040B000FEE700BFF17C0D000078B0FA80F0400907
:1040C000704701230370704710B5074C03F018FECA
:1040D0002368C01A162806D9044A136801331360EE
:1040E00003F00EFE206010BD10E4032014E4032052
:1040F000F8B50C1E074616460CDA0A2A0AD12D21FD
:1041000004F03EFA61420546F2B2384604F053FA32
:104110002844F8BD21460025F6E7000037B5002306
:10412000274D8DF807300DF106020DF105018DF8D0
:1041300006308DF8053023480DF1070302F049FBE6
:1041400004F064FD294604F02AFA04F05FFD1E49DC
:1041500004F012FA04F05AFD10229DF805100446EE
:1041600004F029FA204604F00EFA04F04FFD174936
:1041700004F002FA04F04AFD10229DF806100446ED
:1041800004F019FA204604F0FEF904F03FFD10494E
:1041900004F0F2F904F03AFD10229DF807100446ED
:1041A00004F009FA204604F0EEF904F02FFD294648
:1041B00004F0F5F94FF4FA7004F0ACFB03B030BD35
:1041C000E7CC0D0078E40320B0CC0D00C2CC0D008C
:1041D000D4CC0D001FB500238DF80F308DF80E30B4
:1041E0008DF80D308DF80C300DF10F030DF10D022F
:1041F00003A9234800930DF10E0302F00AFB04F01B
:1042000005FD204904F0B8F99DF80C3023B904F0FD
:10421000FDFC1D4904F0B0F904F0F8FC1B4904F062
:10422000ABF904F0F3FC0A229DF80C1004F0C3F97A
:1042300004F0ECFC164904F09FF904F0E7FC0A22B4
:104240009DF80D1004F0B7F904F0E0FC114904F0FA
:1042500093F904F0DBFC0A229DF80E1004F0ABF990
:1042600004F0D4FC0C4904F087F904F0CFFC9DF86D
:104270000F100A2204F09FF905B05DF804FB00BF9F
:1042800078E40320E6CC0D00E8CC0D00EBCC0D006B
:10429000F0CC0D00F4CC0D00F8CC0D00F8B50746BD
:1042A00013480E4615461C4601F08CFA9FED117A14
:1042B000DFED117A0E48E0EE077AC7ED007A01F0E3
:1042C000AFFA9FED0E7A0A48C0EE077A9FED0C7A9E
:1042D00067EE877AC6ED007A01F01EFC044885ED92
:1042E000000A9FED080A01F077FB84ED000AF8BD93
:1042F00024E403206666E63F0000004280E6C547EE
:1043000000003E4400507D4430B58BB069464248C1
:1043100002F000F904F07AFC404904F040F904F09E
:1043200075FC3F4904F028F904F070FC694604F07C
:1043300036F904F06BFC3B4904F01EF904F066FC0E
:10434000039C002C054663DA2D2104F019F9614223
:104350000A22284604F02FF9284604F014F904F044
:1043600055FC314904F008F904F050FC049C002C81
:1043700005464FDA2D2104F003F961420A2228464E
:1043800004F019F9284604F0FEF804F03FFC274930
:1043900004F0F2F804F03AFC9DED060A022104F064
:1043A00021FA04F033FC224904F0F9F804F02EFC61
:1043B000204904F0E1F804F029FC9DED070A0221F0
:1043C00004F010FA04F022FC194904F0E8F804F0B3
:1043D0001DFC194904F0D0F804F018FC9DED080A02
:1043E000022104F0FFF904F011FC114904F0D7F8A0
:1043F00004F00CFC094904F0D2F804F007FC0F4962
:1044000004F0CDF84FF4FA7004F084FA0BB030BD2C
:1044100021469DE72146B1E778E4032048CD0D0011
:104420006DCD0D007CCD0D008BCD0D009ACD0D0016
:10443000A9CD0D00AECD0D00BDCD0D00E7CC0D001A
:1044400038B5044604F0E2FB4C494D4D04F0A7F8A2
:1044500004F0DCFB4B4904F08FF804F0D7FB0A2290
:10446000B4F90010FFF744FE04F0D0FB294604F035
:1044700083F804F0CBFB0A22B4F90210FFF738FEF0
:1044800004F0C4FB294604F077F804F0BFFB0A22CD
:10449000B4F90410FFF72CFE04F0B8FB294604F031
:1044A0006BF804F0B3FB384904F066F804F0AEFB97
:1044B0000A22B4F90C10FFF71BFE04F0A7FB2946F3
:1044C00004F05AF804F0A2FB0A22B4F90E10FFF728
:1044D0000FFE04F09BFB294604F04EF804F096FB17
:1044E0000A22B4F91010FFF703FE04F08FFB2946EF
:1044F00004F042F804F08AFB244904F03DF804F08B
:1045000085FB0A22B4F90610FFF7F2FD04F07EFBEA
:10451000294604F031F804F079FB0A22B4F90810B6
:10452000FFF7E6FD04F072FB294604F025F804F0DD
:104530006DFB0A22B4F90A10FFF7DAFD04F066FBFE
:10454000294604F019F804F061FB114904F014F84D
:1045500004F05CFB0A22B4F91210FFF7C9FD04F065
:1045600055FB0C4904F008F804F050FBB4F91410A2
:104570000A22BDE83840FFF7BBBD00BFCCCD0D001F
:104580007ACD0D00E3CD0D00F3CD0D00FBCD0D0078
:1045900002CE0D0012CE0D002DE9F04F2DED088B4F
:1045A00097B000238DF80F300DF10F0300930DF13C
:1045B0000D020DF10E0303A9DB48DFF8A483DFF839
:1045C000A4A3DFF8A493DFF8A4B39FEDD89A02F078
:1045D00020F904A8D449082202F01AFA0AA8D249FC
:1045E000142202F015FA10A8CF490E2202F010FA98
:1045F000DDE90801C2A3D3E9002307F08DFDC0A3C4
:10460000D3E9002341EC180BDDE9040107F084FD38
:10461000B0EE481AF0EE681A41EC100B04F0B8FE48
:1046200053EC102B10EE100A03F100410022C04B96
:1046300007F048FCB4A3D3E9002307F06DFDBD4BA0
:10464000002207F03FFC07F035FFADA3D3E90023BC
:10465000C8F80000DDE9080107F05EFDA8A3D3E972
:10466000002341EC180BDDE9060107F055FDB0EE23
:10467000481AF0EE681A41EC100B04F089FE53EC76
:10468000102B10EE100A03F100410022A84B07F096
:1046900019FC9DA3D3E9002307F03EFD0022A54BA2
:1046A00007F010FC07F006FFA34BCAF8000006460F
:1046B000186807F0AFFB96A3D3E9002307F002FCCC
:1046C000044630460D4607F0A5FB93A3D3E900232B
:1046D00007F0F8FB02460B462046294607F03CFA55
:1046E00007F0E8FE954908609548006807F092FBDE
:1046F00087A3D3E9002307F0E5FB0446D8F80000C0
:104700000D4607F087FB84A3D3E9002307F0DAFB0B
:1047100002460B462046294607F01EFA07F0CAFE5D
:10472000884C894D206003F0EBFA2B68874CC01A47
:1047300007F04EFB864B002207F0EEFC07F0BAFEB6
:10474000206003F0DDFA2860206807F063FB024672
:104750000B4643EC1A2BDDE90C2307F0B3FB0646AE
:104760000F46D9F8000007F055FB32463B4607F0EC
:10477000F3F967A3D3E9002307F0A4FB0446D8F8B4
:1047800000000D4607F046FB63A3D3E9002307F0C2
:1047900099FB02460B462046294607F0DDF907F053
:1047A00089FEDDE90A2308EE900AC9F8000051EC01
:1047B0001A0B07F087FB04460D46DBF8000007F0F4
:1047C00029FB22462B4607F0C5F951A3D3E9002364
:1047D00007F078FB8046DAF80000894607F01AFBFC
:1047E0004DA3D3E9002307F06DFB02460B4640467C
:1047F000494607F0B1F907F05DFEDFF87481CBF8A8
:10480000000008EE100AD8F8000007F003FB32465B
:104810003B4607F0A1F907F04DFE4E4EC8F80000E8
:10482000306807F0F7FA22462B4607F093F907F0B5
:1048300041FEC8EE097A306017EE900A07F0EAFAF6
:1048400037A3D3E9002307F03DFB07F033FEC8EEA2
:10485000897A414B186008EE100A17EE900A07F0AB
:10486000D9FA2FA3D3E9002307F02CFB07F022FE8F
:104870003A4B00EE100A186008EE900A04F0F6FCBD
:1048800010EE104AB0EE480A04F038FD10EE100A9F
:1048900007F0C0FAB0EE680A41EC1A0B04F02EFDE6
:1048A00010EE100A07F0B6FA9DED147BB0EE480A40
:1048B000B0EE47BAF0EE67BA06460F4604F0D6FCF3
:1048C00010EE100A07F0A6FA80462046894607F047
:1048D000A1FADDE9102307F0F5FADDE912AB53EC9C
:1048E0001A2B04460D465046594607F0EBFA32465D
:1048F0003B4607F0E7FA02460B4620463AE000BF87
:104900009A9999999999234050455254FB2109400D
:10491000666666666666EE3F9A9999999999A93F87
:104920001F85EB51B81E194078E403200000B44302
:104930000000E03F008076403CE5032038E503209E
:1049400060E503205CE5032030E50320F8E4032064
:1049500000408F4040E5032048E503206CE503203C
:1049600068E5032044E5032058E5032034E50320EF
:1049700064E50320294607F0EDF8424604460D465B
:104980004B4651EC1B0B07F09DFA32463B4607F0B5
:1049900099FA02460B462046294607F0DDF807F053
:1049A00089FD2B4B08EE100A186042464B465046D4
:1049B000594607F087FA53EC1B2B04460D4651EC81
:1049C0001A0B07F07FFA02460B462046294607F0ED
:1049D000C3F807F06FFD1F4B1F4C1860F0EE480A3C
:1049E00000EE100A04F08EFE1C491D4A0B6813608D
:1049F0001C4A2368136010EE100A07F00BFA12A38A
:104A0000D3E9002307F088FB174B002207F05AFA7E
:104A100007F050FDDFED157A154B07EE100A77EE23
:104A2000277AF4EEC97AF1EE10FAA8BF77EEC97AC8
:104A3000C3ED007A93ED000A17B0BDEC088BBDE81A
:104A4000F08F00BFAFF300801F85EB51B81E1940F7
:104A50001CE4032020E403205CE5032038E5032068
:104A60003CE5032060E503200080764000003443ED
:104A700050E503202DE9F84304F0C8F82E492F4DE6
:104A8000DFF8C880DFF8C89003F089FD0124A7B2E1
:104A90002A48394602F092FF372847D1C8223946C2
:104AA000284602F069FF70B904F0B0F8494603F0F7
:104AB00063FD04F0ABF810220646214603F07BFDAF
:104AC000304603F060FD0021284602F077FF3722D0
:104AD00006463946284602F04FFF70B904F096F8B2
:104AE000414603F049FD04F091F8102207462146A3
:104AF00003F061FD384603F046FDC82E16D104F0E0
:104B000085F80F4903F04BFD04F080F80D4903F0E0
:104B100033FD04F07BF821460A2203F04CFD04F03B
:104B200075F8BDE8F843084903F039BD013447F68C
:104B3000FF739C42ABD1E7E720CE0D0010E50320C8
:104B400067CE0D0079CE0D0090CE0D0049CE0D0040
:104B50002ECE0D000000000010B503F0D1F84EF687
:104B60006023984211D90C4C03F0CAF8206807F072
:104B70002FF907A3D3E9002307F0A4F907F09AFC63
:104B8000002300EE100A236010BD9FED040AFBE72E
:104B9000333333333333A33F14E4032000000000E6
:104BA00007B50D4B187804F0F2FA4FF4B473009384
:104BB000002340F6FF72194603F0A0FEB0F5B47F63
:104BC00004DDA0F5B47003B05DF804FB0028B8BFA5
:104BD00000F5B470F7E700BF98E3032038B50D4641
:104BE0001449044603F04DFC152D05DC12492046FE
:104BF00003F080FC204638BD422D01DC0F49F6E76A
:104C00006F2D01DC0E49F2E79C2D01DC0D49EEE72A
:104C1000D32D01DC0C49EAE7F62D01DC0B49E6E770
:104C2000B5F5927F01DA0A49E1E7B5F5A87FDDDC49
:104C30000849DCE7ABCD0D0097CE0D0099CE0D00F5
:104C40009ACE0D009CCE0D009FCE0D00A1CE0D0082
:104C5000A5CE0D00A4CE0D00F8B5054612480C46B1
:104C60001E46174602F038FF0F4885ED000A02F095
:104C700047FF0D4884ED000A02F056FF0A4887ED11
:104C8000000A02F060FF069B9FED087A83ED000AA0
:104C9000D5ED006AC6EE877A94ED007A77EE877AD2
:104CA000C6ED007AF8BD00BF18E5032000007A4485
:104CB00010B58AB001A92948294C01F019FF03F069
:104CC000A5FF284903F058FC03F0A0FF9DED060A5C
:104CD000042103F087FD03F099FF234903F04CFC06
:104CE00003F094FF9DED070A042103F07BFD03F020
:104CF0008DFF1E4903F040FC03F088FF9DED080A7C
:104D0000042103F06FFD03F081FF194903F047FC14
:104D100003F07CFF174903F042FCDDED067A9FEDBE
:104D2000167A77EE877A9FED157AF4EEC77AF1EE70
:104D300010FAC8BF77EEC77AC4ED007A03F066FFB9
:104D40000F4903F019FC03F061FF94ED000A042100
:104D500003F048FD94ED000A0AB010BD78E403208A
:104D600094E40320A7CE0D00ABCE0D00B0CE0D0015
:104D7000E7CC0D00B5CE0D000000D0420000B443DA
:104D8000B8CE0D001FB5144802F0DCFD40211348D9
:104D900002F028FE124800F041FC04F03FFA114AEC
:104DA0001149CDE901214FF0FF3203460092402125
:104DB00080220E4802F040FD04F030FA282203461B
:104DC00037210B4801F0CEFB0A490B4805B05DF8CE
:104DD00004EB03F056BB00BF10E5032018E50320E9
:104DE00024E40320801A0600A0860100A0E403202A
:104DF00078E40320E7CC0D0000E503202DE9F84F0F
:104E0000444CDDF830808246204615460F461E464B
:104E1000DDE90AB901F0BAFF204602F02AFC0023BE
:104E20003D492361204603F0A7FB9AED000A0221C9
:104E3000204603F0D7FC3949204603F0B0FB38493F
:104E4000204603F099FB97ED000A0221204603F06B
:104E5000C9FC3449204603F0A2FB3349204603F045
:104E60008BFB96ED000A0221204603F0BBFC2F4984
:104E7000204603F094FB2E49204603F07DFB95ED80
:104E8000000A0221204603F0ADFC2A49204603F027
:104E900086FB2949204603F06FFB284B022193ED46
:104EA000000A204603F09EFC2549204603F077FBCC
:104EB0002449204603F060FBDBF80050002D27DA80
:104EC0002D21204603F05CFB69420A22114803F0C1
:104ED00072FB104803F057FB1B490E4803F04CFBD4
:104EE00099ED000A0B48022103F07CFC17490948A0
:104EF00003F055FB1649074803F03EFBD8F80010B5
:104F0000044803F039FBBDE8F84F024802F0B1BB9A
:104F10002946DAE7A0E40320CBCE0D000DCD0D002D
:104F2000D4CE0D001CCD0D002ACD0D0036CD0D00C8
:104F300039CD0D0045CD0D00DECE0D0094E40320EB
:104F4000EACE0D00EDCE0D00F9CE0D0007CF0D001D
:104F50000CCF0D0070B5394B394E1878394C88B0EC
:104F6000012104F0E8F8FFF71BFE3060FFF7F4FDC5
:104F7000354A3649364B374884ED000AFFF78EF93B
:104F8000354B186803F0C6FC042004F0EDF8254604
:104F900018B93249324803F0EFFA032004F0E4F87C
:104FA00018B930492E4803F0E7FA022004F0DCF883
:104FB00018B92D492A4803F0DFFA0A2003F0AAFCA9
:104FC00002F0CEFE2648294C02F053FBFFF770FE9C
:104FD00084ED000AFFF7E0FA254BD4ED007A83ED6B
:104FE000000A30EE270AF6EE007A20EE270A214C5E
:104FF000FDEEC07A04A817EE901AFFF7EFFD04A9A2
:10500000204603F06FFA04A803F0F0F91A4B00935E
:105010001A4A1B4B1B491C48FFF71EFE0C4B0A4A41
:105020000A490C480096CDE90154FFF7E7FE42F229
:10503000107003F06FFC08B070BD00BF99E303204F
:1050400078E5032018E403206CE4032070E40320D7
:1050500068E4032074E403209CE4032017CF0D00D0
:10506000A0E403203CD30D0019CF0D00FCE4032085
:105070008CE4032000E503204CE5032098E40320A2
:105080002CE5032090E4032054E503202DE9F041B2
:10509000A2B003F0BBFDCF4903F081FA04F0BEF8E3
:1050A0000146CD4802F086FD40B903F0AFFDCB4983
:1050B00003F075FA0A2003F02DFCFBE7C648C84F41
:1050C00002F093FD03F000FCC117C7E9000103F0F3
:1050D0009DFDC44903F050FA03F098FDD7E900455F
:1050E000002C75F10003064680F2C2802D2103F0EA
:1050F00047FA624265EB45030A210091304603F00E
:1051000078FA03F083FDB849B84C03F035FAB84B90
:105110000021187803F0FEFFB64B0121187803F048
:10512000F9FF03F073FDB44903F039FA2078002148
:1051300003F0F0FF0023009302224FF0FF33AF494A
:10514000207803F08BFD03F061FDAD4903F027FAF1
:1051500003F05CFDAB4903F022FA03F057FD4FF476
:10516000E13103F041FD03F051FD03F044FD00285F
:10517000F9D0A54C03F04AFDA44903F01AFA03F054
:1051800045FDA34903F00BFA01223C21204602F021
:1051900067FB03F03BFD9F4903F001FA204602F054
:1051A00068FA4FF47A7003F0B5FB204601F0EEFD8B
:1051B000204602F05EFA0121204601F0EDFF03F0E7
:1051C00025FD954903F0EBF90221042003F0A2FF2D
:1051D0000221032003F09EFF0221084603F09AFFFC
:1051E0000121204602F03FFA00224FF00113C4E9EA
:1051F00004238A49204603F0BFF98949204603F079
:10520000BBF9204602F035FA864800F08AFE90BBD2
:1052100003F0FCFC844903F0C2F903F0F7FC834976
:1052200003F0AAF903F0F2FC04467E4800F0FAF914
:1052300010220146204603F0BEF9204603F0A3F9F0
:1052400003F0E4FC7A4903F097F903F0DFFC7949B5
:1052500003F092F903F0DAFC774903F08DF903F0DB
:10526000D5FC764903F088F90A2003F053FBFBE7ED
:1052700022462B4640E703F0D1FF502102467048FA
:1052800002F064FB90B103F0C1FC6E4903F087F9B2
:10529000FFF7F0FB6C480C2101F04AFA064670B9A2
:1052A00003F0B4FC694903F067F9FEE703F0AEFCD4
:1052B000674903F074F90A2003F02CFBFBE703F0C5
:1052C000A5FC484903F058F903F0A0FCD7E90045D4
:1052D000002C75F1000380465BDA2D2103F050F9B4
:1052E000624265EB45030A210091404603F081F9D3
:1052F00003F08CFC3C4903F03FF94FF47A7003F063
:1053000009FBFFF701F803F059FF042202A900206E
:1053100002F006FD4C4818A901F0FCF81C9A029B0B
:105320009A4239D003F072FC4A4903F038F94FF43D
:10533000FA7003F0EFFA00264FF47A7003F0EAFAFD
:10534000FEF7E2FFFEF7EAFE01213F4801F03EF9D9
:1053500002F0D6FC404B0FA918603B4801F0C8FB97
:10536000002E00F0838003F051FC3C49364C03F0E2
:1053700016F9204601F065FA002840F0B6800FA922
:10538000204601F0B5FBFEF725FF642003F0C2FACA
:10539000EFE722462B46A6E703F038FC304903F03E
:1053A000FEF803F00BFF162203A9042002F0B8FC5C
:1053B00003A8FFF745F803F029FC2A4903F0EFF8AA
:1053C00003A9214801F025F903F020FC264903F048
:1053D000E6F8B1E71BCF0D0018E5032022CF0D0042
:1053E00070E503203DCF0D00B6CE0D009AE30320FB
:1053F00098E3032099E303204FCF0D00C9400D002F
:105400006CCF0D0082CF0D00A0E4032090CF0D00E3
:105410009CCF0D00B9CF0D00C4CF0D00D0CF0D0033
:10542000F0CF0D0024E40320FCCF0D0044D00D008C
:1054300055D00D009CD00D00C6D00D00F0D00D0051
:1054400010E503201AD10D0078E4032063D10D008C
:105450002BD10D00A0D10D0030E5032058D20D0056
:10546000D6D10D0004D20D0032D20D0003F0CEFBD8
:105470003E493F4C3F4E404D03F091F8204601F02D
:10548000E0F990BB0FA9204601F032FB03F0BEFB10
:10549000314603F071F803F0B9FB9DED140A0421C5
:1054A00003F0A0F903F0B2FB294603F065F803F01E
:1054B000ADFB9DED150A042103F094F903F0A6FB62
:1054C0002E4903F059F803F0A1FB9DED160A0421C3
:1054D00003F088F9FEF77EFE03F098FB284903F0FD
:1054E0005EF8642003F016FAC8E703F08FFB254945
:1054F00003F055F803F08AFB234903F050F803F05A
:1055000085FB224903F04BF809A9194801F0D2F9AB
:1055100009A8FEF795FF03F079FB1D4903F03FF85A
:1055200018A9134800F0F6FF1C9B029303F046FEF7
:1055300002A90422002002F0FBFB03F03FFE16222A
:1055400009A9042002F0F4FB03F060FB114903F009
:1055500026F803F05BFB104903F021F84FF4FA70D2
:1055600003F0D8F922B0BDE8F08100BF88D20D0069
:1055700078E40320A7CE0D00ABCE0D00B0CE0D0019
:10558000E7CC0D00A2D20D004CCD0D00B5D20D0020
:10559000CBD20D00F3D20D000AD30D00704710B529
:1055A0001021044603F05EFE204610BD0EB403B584
:1055B00003AB002153F8042B019303F022F902B04E
:1055C0005DF804EB03B0704773B5044608462279D2
:1055D000A36832B1A3B90B4902B0BDE8704002F034
:1055E000CBBF094A267B094D0949647B012E18BFB0
:1055F0002946CDE900140749FFF7D8FF02B070BD76
:10560000054AEFE73ED30D00E7CC0D003AD30D007D
:1056100036D30D0054D30D002DD30D004FF0FF33C2
:10562000036170478068704713B50B4C2178BFF356
:105630005B8F11F001010BD120460191FEF73CFD7B
:10564000019928B1054802F003FE2046FEF739FD16
:10565000024802B010BD00BF7CE5032080E50320B6
:105660002DE9F04190F91330013305460F4606D17C
:10567000FFF7DAFF3946BDE8F04102F08BBE0024A7
:1056800007264FF0010895F91300002180B203F0BE
:1056900052FD95F9110008FA06F1394080B203F085
:1056A0004AFD95F91300012180B203F044FD95F9FC
:1056B0001200640080B2E4B203F056FD08B144F079
:1056C0000104013EDFD22046BDE8F08108B5FFF7B6
:1056D000ABFFBDE8084002F0D6BD07B50190FFF76B
:1056E000A3FF019903B05DF804EB02F0E5BD0000F3
:1056F00030B590F91030013385B004460D4623D102
:105700000179006803F00EFC2068036829469B6855
:105710009847206803F00EFC21792068032203F0EB
:10572000FEFB206803685B699847050220680368F0
:105730005B69984728430502206803685B699847BE
:105740000543284605B030BD90F9133001330CD124
:105750001A4B009300238DF80430194B02936846CE
:105760000123ADF80C30FFF7B8FF94F910000021C9
:1057700080B203F0E0FC45F080012046FFF770FFA7
:1057800000212046FFF76CFF002105022046FFF7AD
:1057900067FF2843050200212046FFF761FF05430C
:1057A00094F91000012180B203F0C5FC94F9133084
:1057B0000133C6D1FFF78AFFC3E700BF7CD30D00DA
:1057C00020A1070010B5FA210446FFF791FFB0F5BC
:1057D000000F1ED0A18A9FED107A4B00C1EB202252
:1057E000C3EBE011B4F9163052435943B4F9183001
:1057F000121353439B1303EBE123E36003EB830397
:1058000080331B1207EE903AF8EEE77A87EE870AAC
:1058100010BD9FED020AFBE70000C8420000C07FF8
:105820002DE9F8430446FFF7CDFFF7212046FFF7A7
:105830005FFFB0F5000F054600F0BF80E068B4F9E7
:105840001C60B0F5FA334FEAE07141F1FF32A3FB7F
:10585000038903FB02F109EB4109F71706FB02F18B
:1058600003FB0711A6FB03670F44390341EA1651F6
:105870003003B4F91E60F71706FB09FC08FB07CCE0
:10588000A6FB086767444FEA162C4CEA076C668B48
:105890004FEA272E1CEB00004EEB010E00304EF5B8
:1058A000004EA0FB060106FB0E114E10CF1756EA64
:1058B000070100F08580B4F9240000FB09FCC11742
:1058C00008FB01CCA0FB0801B4F922804FEAE8797B
:1058D00008FB02F203FB0922A8FB038991446144FF
:1058E0004FEA48424FEA494C2D111218C5F5801570
:1058F0004CEAD83CB4F920804CEB010C0023E917AA
:105900009B184FEAC17E4FEAC5704FEAC80141EBD0
:105910000C0C4EEA550EC01A40F635436EEB0C0ED9
:10592000A0FB030103FB0E1132463B4606F020FFAD
:10593000B4F92A204D13460B46EAC14602FB05F78F
:10594000D31706FB0377A2FB06233B44554306FB14
:105950000355A2FB06232B44550E45EAC315B4F9A3
:105960002820B4F926402D184FEA636641EB06065D
:10597000D317514300FB0311A2FB00230B44D10CAE
:1059800041EA43316D184FEAE34046EB00032A0A2F
:10599000E51742EA0362191220012B0143EA14734E
:1059A000801843EB010106F0A5FE9FED070A07EE04
:1059B000900A27EE800ABDE8F8839FED040AFAE713
:1059C0009FED030AF7E700BF0000803B0000C07FA7
:1059D000000000000000000008B52DED028BB0EEC5
:1059E000408AFFF71DFF9FED167AC0EE077AC7EEDB
:1059F000887A17EE900A06F00DFA9FED0D1B41EC28
:105A0000100B03F0C9FC0F4953EC102B002006F0DB
:105A1000A1F809A3D3E9002306F054FA06F04AFDE1
:105A2000BDEC028B00EE100A08BD00BFAFF3008092
:105A3000EBE2361AC05BC83F0000000040A5E5401D
:105A40000000C8420000F03F30B590F9103001333B
:105A500085B004460D461FD10179006803F062FA53
:105A60002068036829469B689847206803F062FA1B
:105A700021792068022203F052FA206803685B69EA
:105A800098470546206803685B69984740EA052007
:105A900085B2284605B030BD90F9133001330CD1E2
:105AA000184B009300238DF80430174B029368467F
:105AB0000123ADF80C30FFF710FE94F9100000211F
:105AC00080B203F038FB45F080012046FFF7C8FDA7
:105AD00000212046FFF7C4FD002105462046FFF7C0
:105AE000BFFD40EA052085B294F91000012180B283
:105AF00003F021FB94F913300133CAD1FFF7E6FD1F
:105B0000C7E700BF7CD30D0020A1070008B5FFF751
:105B10009BFF40BA80B208BD38B50446FFF752FE7D
:105B2000FD212046FFF790FFB0F5004F38D0B4F9C3
:105B30003250E268B4F934302D05A2F59632C5EB47
:105B4000803002FB130303F58043D91394F83030FF
:105B50005343DB1203F5004094F9363053439B1254
:105B600043439B1203F50012B4F92E30534303F55F
:105B700000539B134B43DA1394F82C105243D21169
:105B80004A43A3EB221323EAE373B3F1C85FA8BF30
:105B90004FF0C8531B1300EE103ABAEECB0A38BDD3
:105BA0009FED010AFBE700BF0000C07F30B590F910
:105BB0001030013385B004460D4618D101790068D4
:105BC00003F0B0F92068036829469B68984720686D
:105BD00003F0B0F921792068012203F0A0F92068D0
:105BE00003685B699847C5B2284605B030BD90F997
:105BF000133001330CD1154B009300238DF8043082
:105C0000134B029368460123ADF80C30FFF765FD96
:105C100094F91000002180B203F08DFA45F0800164
:105C20002046FFF71DFD00212046FFF719FD054620
:105C300094F91000012180B203F07DFA94F9133039
:105C40000133D1D1FFF742FDCEE700BF7CD30D0079
:105C500020A1070008B5F321FFF7A8FF00F001001D
:105C600008BD38B588210446FFF750FF8A21A0827D
:105C70002046FFF74BFF8C21E0822046FFF746FFCE
:105C80008E2120832046FFF741FF9021608320462C
:105C9000FFF73CFF9221A0832046FFF737FF9421B6
:105CA000E0832046FFF732FF962120842046FFF74D
:105CB0002DFF982160842046FFF728FF9A21A084B9
:105CC0002046FFF723FF9C21E0842046FFF71EFFBC
:105CD0009E2120852046FFF719FFA12160852046DF
:105CE000FFF764FFE12184F82C002046FFF70EFF48
:105CF000E321E0852046FFF759FFE42184F83000D6
:105D00002046FFF753FFE52105462046FFF74EFFEB
:105D100000F00F0343EA05106086E6212046FFF7F6
:105D200045FFE52105462046FFF740FF031143EA02
:105D30000510A086E7212046FFF738FF84F83600DB
:105D400038BD00007FB590F91030013304460E468F
:105D5000154612D10179006803F0E4F82068036861
:105D600031469B6898472068036829469B68984796
:105D7000206803F0DFF804B070BD90F913300133F0
:105D80000CD1144B009300238DF80430124B029376
:105D900068460123ADF80C30FFF79FFC94F9100022
:105DA000002180B203F0C7F906F07F012046FFF71B
:105DB00057FC29462046FFF753FC94F910000121B7
:105DC00080B203F0B8F994F913300133D3D1FFF75F
:105DD0007DFCD0E77CD30D0020A10700F8B5DB00E7
:105DE00002F0070203F03803134343EA81139DF8DE
:105DF000186080F83C3090F840309DF81C509DF8B9
:105E0000207066F3471380F84030ED0090F838308A
:105E100007F0070705F0380523F03F033D4304462C
:105E20001D4380F8385006F00702F221FFF78AFF81
:105E300094F83820C2F3C20302F007019B0043EA42
:105E4000411343EAD2122046F521FFF77BFF94F875
:105E50003C20C2F3C20302F007019B0043EA411356
:105E600043EA92122046F421BDE8F840FFF76ABFEA
:105E700030B5044690F91000421C85B019D1206855
:105E800003F01EF8D0212046FFF790FE6028A060A6
:105E900045D12046B622E021FFF754FF4FF496701B
:105EA00002F038FD2046FFF7D5FE054628B36420F2
:105EB000F6E7012180B203F03EF994F910000121C8
:105EC00080B203F027F994F91300431C04D1FFF7C3
:105ED000ABFB02F0C7F9D5E7012180B203F01AF954
:105EE00094F91100012180B203F014F994F9120021
:105EF000002180B203F00EF9C4E72046FFF7B1FE9F
:105F0000052300931A4603212046CDE90155FFF7EA
:105F100065FF642002F0FEFC012005B030BD0020CA
:105F2000FBE7772310B50371044603F077F920608F
:105F30002046FFF79DFF30B9762323712046BDE848
:105F40001040FFF795BF10BD30B50025C0E9001522
:105F500042819DF810109DF80C20456141738273B9
:105F6000037330BDF0B5034685B04089ADF80C0031
:105F70004FEA102E18689C7A0E46174640B15B7B9C
:105F8000019303AB0093012300F036FA05B0F0BD96
:105F900058680028FAD093F808C05D7BBCF1030F65
:105FA0000BD12EF0010E01358DF80CE08DF80D406F
:105FB000009503AB00F08FF9E8E7BCF1000F08D1C2
:105FC00004F07F048DF80C40009503AB3A4631464F
:105FD000F0E7BCF1020F02D164F07F04F2E7BCF1FC
:105FE000010F01BF9DF80C3003F07F0343F0400325
:105FF0008DF80C30E8E7F0B40B4602B9027B042AB6
:1060000014D800F10F05436184182946844209D051
:10601000877BDEB227B92E701B0A0135013CF5E7FC
:10602000A673F9E72046F0BCFFF79CBF0020F0BC48
:1060300070477FB50446857A0B4641890068ADF804
:106040000C100E0A40B10021CDE9002103A9627BAA
:1060500000F040FA04B070BD60680028FAD0217AE0
:10606000647B03290DD146F00106FF21CDE9002113
:106070008DF80C608DF80D50621C03A900F05DF9DD
:10608000E8E741B965F07F058DF80C50FF21CDE9B7
:1060900000212246F1E7022902D105F07F05F3E74E
:1060A000012902BF9DF80C1061F03F018DF80C1022
:1060B000ECE738B502220D4600F10F010446FFF768
:1060C000B8FF38B1A37B33B9237C1B022B80E27B62
:1060D00013432B8038BDE37B1B022B80227CF7E728
:1060E00010B50446406810B103689B689847204685
:1060F00010BD38B5044690F90E00012180B203F0BE
:1061000009F894F90E00012180B203F014F8256813
:1061100035B1284602F0A6F8012084F8340038BDD5
:1061200094F90F00012180B202F0F4FF637B94F92F
:106130000F00012B94BF2946012180B202F0FBFF22
:1061400094F91000421C09D0012180B202F0E2FF54
:1061500094F91000012180B202F0EDFF94F91100D2
:10616000431CD9D0002180B202F0D4FFD4E7000054
:106170002DE9F04F0446006885B00D4640B100237C
:10618000009313460A4602F00BF905B0BDE8F08F04
:10619000237BA068484FB7FBF0F7002B0B780CBFB0
:1061A0004FF0010B4FF0800B1BEA030F01EB0203D2
:1061B0000CBF4FF001094FF00009FFB20393039B9E
:1061C000AB42E2D095F800A05E464FF0000817B150
:1061D000384601F08DFD637B13F0FD0F41D194F93A
:1061E00010305A1C0FD01AEA060114BF01230023F5
:1061F0004B4508D06369606A1A6800292CD00243B5
:106200001A604FF00109A169E36A0A6813430B6041
:1062100017B1384601F06CFD94F91130013306D006
:10622000E3691A68A36A1A4218BF46EA0808A16916
:10623000E36A0A6822EA03030B6094F91130013320
:1062400018BF85F80080237B002B32D17600F6B290
:10625000002EBCD10135B2E722EA00021A6089465D
:10626000D1E7A169E36A0A6813430B6017B13846A6
:1062700001F03EFD94F91030013308D06369616A82
:106280001A681AEA060F14BF0A438A431A60A16902
:10629000E36A0A6822EA03030B6094F911300133C0
:1062A000CBD0E3691A68A36A1A4218BF46EA080805
:1062B000C3E77608CCE700BF20A1070007B501229D
:1062C0008DF807100DF10701FFF752FF9DF8070049
:1062D00003B05DF804FB2DE9F041044600680E466A
:1062E00017461D4610B1616801F0E6FF94F90E00F3
:1062F000002180B202F01FFF069B05EB0308454515
:1063000008D13744B7420BD016F8011B2046FFF7DF
:10631000D5FFF7E715F8011B2046FFF7CFFFEEE7A3
:1063200094F90E00012180B202F005FF206808B147
:1063300001F0A9FF0120BDE8F0812DE9F0410446FC
:1063400000689DF81C800E4617461D4610B1616816
:1063500001F0B2FF94F90E00002180B202F0EBFED2
:106360003744BE420AD1069BEE18AE420CD04146DD
:106370002046FFF7A3FF05F8010BF6E716F8011B0F
:106380002046FFF79BFFECE794F90E00012180B255
:1063900002F0D1FE206808B101F075FF0120BDE8D0
:1063A000F08142600022027220220170C2607047B8
:1063B00010B5037A044653B12178606802F0B2FD4B
:1063C000606802F0B7FDB0FA80F0400910BD01210D
:1063D00000F003F80028EFD1F8E738B5044640682C
:1063E0000D4602F06DFD0120207225B12046BDE86A
:1063F0003840FFF7DDBF38BD2DE9F843DDE90896E9
:106400001F46C368154632449A420446884602D95C
:106410000020BDE8F8830178406802F083FD7EB972
:10642000606803682A46DB68414698478542EFD199
:106430006068394602F07AFDB0FA80F04009E8E77A
:10644000B9F1000FECD0606803683246DB6849465A
:106450009847B042DCD1E3E72DE9F0411546044608
:106460000E46D2B20178406802F047FD85420DD158
:1064700000271FFA87F8A84507F1010709D26068CD
:1064800003685B69984706F80800F2E70020BDE85A
:10649000F0810120FBE72DE9F843074688461646C0
:1064A00099460025B54212D2FA68741B944228BF5F
:1064B0001446331BAB4294BF4B460023224608EBE5
:1064C00005013846FFF7C8FF10B12544EAE701206F
:1064D000BDE8F88373B51D460023CDE900339DF870
:1064E0001C30069E0446FFF787FF40B10123324669
:1064F0002946204602B0BDE87040FFF7CCBF02B08D
:1065000070BD08B5406802F0D7FC012008BD704797
:10651000704700000B4610B528220446002118469B
:1065200006F006FB09490B2206F03EFB0022012182
:10653000C272C160E168426200220161826103218E
:10654000C261034A4161026210BD00BF51D20D0019
:106550000AD7233C10B51421044602F083FE2046DE
:1065600010BD000073B50193094B03600023C0E91F
:106570000231044610201646FDF78DFD054618B180
:10658000019A3146FFF70DFF2046A56002B070BDAD
:1065900090D30D001FB50023CDE900338DF80C100A
:1065A0008DF80D200123022203A98068FFF724FF44
:1065B00005B05DF804FB08B50A4601743D21FFF7FC
:1065C000E9FFBDE808401E2002F0A4B970B50D46F1
:1065D00000210446067CFFF7EEFF192002F09AF92D
:1065E000002207212046FFF7D5FF85B180223F21F9
:1065F0002046FFF7CFFF0A2002F08CF920463146F3
:10660000FFF7D9FFBDE87040142002F083B92A4695
:10661000EDE770B50D4600210446067CFFF7CBFF81
:10662000192002F077F92A7855212046FFF7B2FFAA
:106630006A7856212046FFF7ADFFAA7857212046F9
:10664000FFF7A8FFEA7858212046FFF7A3FF2A7931
:1066500059212046FFF79EFF6A795A212046FFF70D
:1066600099FFAA795B212046FFF794FFEA795C2124
:106670002046FFF78FFF2A7A5D212046FFF78AFF29
:106680006A7A5E212046FFF785FFAA7A5F212046BD
:10669000FFF780FFEA7A60212046FFF77BFF2A7B25
:1066A00061212046FFF776FF6A7B62212046FFF7D3
:1066B00071FFAA7B63212046FFF76CFFEA7B642110
:1066C0002046FFF767FF2A7C65212046FFF762FF1F
:1066D0006A7C66212046FFF75DFFAA7C6721204681
:1066E000FFF758FFEA7C68212046FFF753FF2A7D19
:1066F00069212046FFF74EFF6A7D6A212046FFF799
:1067000049FF31462046BDE87040FFF754BF1FB532
:1067100001220023CDE9002303AB8DF80C10806823
:106720001946FFF7D7FE9DF80C0005B05DF804FB95
:1067300070B504460E4680680121FFF74EFE0546FF
:1067400010B90025284670BD00212046FFF7DFFF65
:10675000A02813D100212046FFF72DFF20223F2142
:106760002046FFF717FF1E2002F0D4F80021204634
:10677000FFF7CDFFA0280CD00A20F5E74FF47A7080
:1067800002F0C8F800212046FFF7C1FFA028D8D1A9
:10679000E0E7322002F0BEF800223E212046FFF75B
:1067A000F9FE0A2002F0B6F8002207212046FFF782
:1067B000F1FE00223F212046FFF7ECFE0A2002F006
:1067C000A9F820463146FFF7F6FE142002F0A2F8A1
:1067D000B8E7F8B50F4616460721002204461D46C5
:1067E000FFF7D8FE27B139212046FFF790FF387018
:1067F00026B136212046FFF78AFF307025B13A21B5
:106800002046FFF784FF2870BDE8F840C82002F05A
:1068100081B8F8B50E463521069F15461C46FFF790
:1068200076FF0EB18309337015B1C0F301132B70DD
:1068300014B1C0F38103237017B100F00300387066
:10684000F8BD1FB504460DF10F0300930DF10D02C5
:106850000DF10E0303A9FFF7DCFF237C013B092B9D
:1068600017D8DFE803F00522101E0C13160C1E10BB
:106870009DF80E00C31E5842584104B010BD9DF84B
:106880000E30032B14D19DF80D00F3E79DF80F3067
:10689000F7E79DF80C30032B0AD19DF80D30032B40
:1068A00006D19DF80E30032B02D19DF80F00E1E7D1
:1068B0000020E2E72DE9F04104460D46FFF7C1FF55
:1068C0000646002800F091800021204694F81080B0
:1068D000FFF771FE192002F01DF856212046FFF740
:1068E00016FF552107462046FFF711FF40EA072013
:1068F000288058212046FFF70AFF572107462046E7
:10690000FFF705FF40EA072068805A212046FFF77D
:10691000FEFE592107462046FFF7F9FE40EA072010
:10692000A8805C212046FFF7F2FE5B210746204647
:10693000FFF7EDFE40EA0720E8805E212046FFF7E2
:10694000E6FE5D2107462046FFF7E1FE40EA07200C
:10695000288160212046FFF7DAFE5F2107462046A6
:10696000FFF7D5FE40EA0720688162212046FFF745
:10697000CEFE612107462046FFF7C9FE40EA072008
:10698000A88164212046FFF7C2FE63210746204606
:10699000FFF7BDFE40EA0720E88166212046FFF7A9
:1069A000B6FE652107462046FFF7B1FE40EA072004
:1069B000288268212046FFF7AAFE67210746204665
:1069C000FFF7A5FE40EA072068826A212046FFF70C
:1069D0009EFE692107462046FFF799FE40EA072000
:1069E000A88241462046FFF7E6FD3046BDE8F0812B
:1069F0001FB58DF80C100021CDE90031134603A915
:106A000001228068FFF766FD05B05DF804FB000019
:106A1000F7B50D46164600211822044606F088F800
:106A200000230093ADF80430284606236A46314619
:106A3000FFF7DEFF9DF801309DF800009DF8027021
:106A40009DF8045040EA03209DF8033047EA0327ED
:106A50009DF805301A2E45EA032500B23FB22DB24B
:106A60000DD008D80E2E0AD0142E08D0082E21D012
:106A7000204603B0F0BD282E1CD02E2EF7E705F0DF
:106A8000B7F9194B002205F01DFAC4E90001384698
:106A900005F0AEF9144B002205F014FAC4E9020126
:106AA000284605F0A5F9104B002205F00BFAC4E9C1
:106AB0000401DDE705F09CF90C4B002205F02CFBEE
:106AC000C4E90001384605F093F9084B002205F0AF
:106AD00023FBC4E90201284605F08AF9034B002292
:106AE00005F01AFBE3E700BF0000B03F000059408B
:106AF00030B50C4687B0054620220021201D06F047
:106B000017F824232360EB6863600323A36001F07C
:106B1000F7F81A22206129466846FFF779FFDDE978
:106B2000000105F0C7FC6061DDE9020105F0C2FC6F
:106B3000A061DDE9040105F0BDFCE061012007B0C2
:106B400030BD0029F0B566DBB0F90C408C4262DD47
:106B5000002A60DBB0F90E4094425CDD847E022C9A
:106B60005AD0032C61D0012C04D10489D24314449F
:106B70000A4621B2B0F938408C42A8BF0C460487BF
:106B8000B0F93A409442A8BF14464487B0F93C405B
:106B90008C42B8BF0C468487B0F93E409442B8BFDF
:106BA0001446C48790F84C40012C16D1012B42D0DA
:106BB000022B51D08BB9002A0589476B1446B8BF08
:106BC000D41DE41014FB051402F00706012505FA94
:106BD00006F63D5D25EA06053D5590F84C40042C2F
:106BE00019D1048914FB02F202EBD27401EBD172C9
:106BF00042F34F0202EB6402446BA05CC9074BBF37
:106C000003F00F0300F00F0020F00F0040EA031321
:106C100048BF0343A354F0BD0489C94321444489B8
:106C2000D243224409B212B2A4E74489C9430C44B6
:106C3000114622B29EE7002A0589466B1446B8BF6A
:106C4000D41DE41014FB051402F007070125BD4014
:106C5000375D3D433555C0E7002A0589466B14462C
:106C6000B8BFD41DE41014FB051402F0070701257A
:106C7000BD40375D7D40EDE738B50D461146044611
:106C80001AB209B200F096FA069A0B4BE262079A22
:106C900023600023C4E90933C4E90C234FF0FF3318
:106CA000C4E910339DF91430A364049B84F84C505C
:106CB0002365204638BD00BFACD30D0038B50C4B62
:106CC00003600446406B18B101F056FA0023636379
:106CD000656A35B12846FFF703FA3821284602F0E5
:106CE000C1FAA06A10B1102102F0BCFA204638BDEA
:106CF000ACD30D0030B587B0856A8DF80F1004460F
:106D00007DB10023CAB2CDE900338DF814308DF87F
:106D100015200123022205A92846FFF76DFB07B0C5
:106D200030BD2946B0F8400002F005FA606A0095CF
:106D30002B4601220DF10F01FFF7CDFAEFE70029F5
:106D400014BFA721A621FFF7D5BFF0B5856A85B08E
:106D500004460E46174665B100230DF10F008DF86D
:106D60000F300123009001932846FFF745FB05B043
:106D7000F0BD2946B0F8400002F0DDF9606A0095E8
:106D80002B463A463146FFF7A6FAF0E710B5B0F9C0
:106D90000A10038990F84C2012FB03F2CB1D48BF68
:106DA00001F10E03DB1004465A43406B002105F04D
:106DB000BFFE0023A3632389013BA3876389013BB3
:106DC000E38710BD70B5436B04460E4615460BB302
:106DD000002D33D1236D002B50D01020FDF75BF92F
:106DE000054618B1226D3146FFF7DBFAA5621DB3E7
:106DF00001212846FFF7F1FAF0B12046FFF7C6FF60
:106E00000023A3632389013BA3876389013BE387B5
:106E1000012012E02389B4F90A2090F84C0010FBFD
:106E200003F0D31D48BF02F10E03DB10584301F0FD
:106E30009BF960630028CBD1002070BDA06C0028B6
:106E4000C8DB012180B202F065F9B4F848000121E5
:106E500002F071F90A2001F05DFDB4F8480000214C
:106E600002F069F90A2001F055FDB4F8480001214B
:106E700002F061F90A2001F04DFDABE7606A0028DD
:106E8000DAD0FFF736F90028D6D0B4F84000012157
:106E900002F040F9B1E707B581238DF80510022211
:106EA00001A98DF80430FFF750FF03B05DF804FB33
:106EB0002DE9F04F85B01F46BDF93880BDF83C3054
:106EC000A8EB0209A7EB010AB9F1000FB8BFC9F19D
:106ED0000009BAF1000FB8BFCAF1000AD1458346D4
:106EE0000C46154604DD3A462C4647460D4690466C
:106EF000BC4205DD2A464546904622463C4617469A
:106F00003E1BB2B20092A8EB0502002AB8BF524263
:106F10000192C6F3C03202FA86F64545B4BF01229B
:106F20004FF0FF3276100292BC421CDCDBF80020EE
:106F30000393D145D2F81880C7BF294622462A4676
:106F400021465846C047019A039BB61AB1B236B2E1
:106F5000002E05DA029A1544009A56182DB236B260
:106F6000013424B2E0E705B0BDE8F08F704710B4FB
:106F700004682469A4465DF8044B604730B4046893
:106F8000BDF808500295A46BA44630BC604730B4ED
:106F90000468BDF808500295E46BA44630BC604715
:106FA00070B4BDF90C50BDF810600468CDE903560B
:106FB000246CA44670BC60472DE9F3411C4603686D
:106FC000BDF820805B6905461646013C34440F46F7
:106FD00024B298472B68CDF8048000949C6A284618
:106FE0003B4632463946A0472B68DB6A284602B04A
:106FF000BDE8F04118472DE9F3411D460368BDF88F
:1070000020805B69044617460E469847CDE9007814
:1070100022686B1E3344956A20461BB23A463146BD
:10702000A8472368DB6A204602B0BDE8F041184754
:107030002DE9F3471E460368BDF928905B69BDF84A
:107040002C800C460546174698472644B4422B68C8
:107050000BDACDF80080D3F820A021464B463A4603
:1070600028460134D04724B2F0E7DB6A284602B054
:10707000BDE8F047184713B502680191B0F90E104A
:107080000091146CB0F90C3000221146A04702B0F8
:1070900010BD2DE9F3471D460368BDF82C805B69E0
:1070A000BDF9289004460F46164698472368CDF848
:1070B0000080D3F824A032462B4639462046D047DC
:1070C0002368CDF8008009F1FF323244D3F824A0C0
:1070D00039462B46204612B2D0472368CDF80080AF
:1070E000D3F820A032464B4639462046D0476B1E87
:1070F000D9192368CDF800801D6A20464B463246D8
:1071000009B2A8472368DB6A204602B0BDE8F04711
:10711000184770472DE9F74399421646BDF9287084
:10712000BDF82C90026880460D461C4613D1BE4225
:10713000C8BF3346CDF82890C4BF3E461F467B1CCF
:10714000946B9B1B1BB2324629464046A44603B0B3
:10715000BDE8F0436047BE420AD19942C2BF0B4628
:1071600025461C46631CCDF82890D46B5B1BE9E7D1
:1071700053699847CDE90079D8F8003040469F6AB6
:10718000324623462946B847D8F80030DB6A4046E5
:1071900003B0BDE8F043184701F00303B0F90A203B
:1071A0008376C907B0F9083059BF8381C2818281D3
:1071B000C381704730B54281C281074A074D0181C2
:1071C000002481814FF0FF31C0E905124460056061
:1071D00004610477046230BD0101000108D90D008B
:1071E0002DE9F04F89B0CDE902120268BDF948805F
:1071F0000493BDF94C3052690593BDF850A0044684
:10720000904718F107024FF0000648BF08F10E0240
:107210004FEAE20B01963546039B019ABDF9041033
:107220009A18059B8B4212B227DD049B33444FF022
:10723000000906930FFA89F080451FFA89F117DDDE
:107240004F0705BF069BC0106D001D5C18BFEDB257
:107250002B060AD5029B206807921944836909B25C
:107260001F4620465346B847079A09F10109E1E74E
:10727000019B013301935E44CEE72368DB6A20461D
:1072800009B0BDE8F04F18472DE9F04F2DED028B06
:1072900091B01646026ABDF874809DF878509DF84A
:1072A0007C4003911F46BDF8703004938346002A4A
:1072B00040F0C580B0F90C308B4240F34C81B0F9FE
:1072C0000E30B34240F34781062313FB0513002B16
:1072D00040F3418106EBC403002B40F33C81037F64
:1072E0001BB9AF2F84BF0137FFB2DBF8003058461F
:1072F0005B6998470522099200220592984A07EB9C
:107300008703D3180C93B3B20693059A0C9B9B5C2E
:107310000793ABB20B93BDF80C300893039B02FBB1
:1073200005F919FA83F90FFA89F308EE103A0823E0
:107330000A93039B02EB030A4FF000090FFA8AFA43
:10734000079ADBF80030D20752D5012D1FFA89F2D7
:107350003ED1012C3CD19B6906991F46049B0A44EF
:1073600012B251465846B84709F101034FFA83F962
:10737000079B5B0807930A9B013B13F0FF030A93EB
:10738000DED1059F01377BB20593099B013B13F0CA
:10739000FF030993B9D1049B43450FD0012DDBF8BE
:1073A00000303BD1012C39D10899CDF8008005314E
:1073B0001C6A3246082309B25846A047DBF8003061
:1073C000DB6A584611B0BDEC028BBDE8F04F1847A0
:1073D000069914FB02F20A44049901910094DB69B6
:1073E00018EE101A1F4612B22B465846B847BBE794
:1073F000049A4245B8D0012D1FFA89F207D1012C19
:1074000005D19B6906991F460A444346A8E7069999
:10741000CDF8048014FB02F20A44DFE70B9ACDF8A2
:10742000048002EB8201089AE4000A4411460094A9
:10743000DC6932462B4609B25846A047BEE7137AAC
:10744000516812680D92FF1AFFB201EBC70331F8C1
:10745000372006929A780992DA780B92012D93F9E7
:10746000052093F906A00A9201D8012C57D9BDF93D
:10747000283008930FFA8AF30793DBF80030584658
:107480005B699847B3B24FF000080E931AFA86F37F
:10749000C14647460F930B9B9F428FD2079B0E9A84
:1074A0003B4403FB0423002205920F9A1BB202EB1C
:1074B000070A08EE103A0FFA8AFA4346099A059924
:1074C000914241D25A1CD2B25B070C9207D1069B63
:1074D00006990D9A01339BB212F80190069319F0A8
:1074E000800F12D0012DDBF80030BDF80C101AD13E
:1074F000012C18D10A9A9B691144059A11441E4621
:107500005246049B09B25846B047059E0136F3B275
:107510004FEA490905935FFA89F90C9BCEE70023EE
:10752000CDE90733A9E70598089A024402FB051143
:10753000049ACDE90042DB6918EE102A1E4609B212
:107540002B465846B047E0E7099B013798445FFA5D
:1075500088F8FFB29FE711B0BDEC028BBDE8F08F59
:1075600000D40D00F0B5026A85B004460B46002A2F
:1075700034D10A2908D1438A0282427E03EBC20336
:107580006382012005B0F0BD0D29FAD0E17E007EB6
:10759000657E71B1B4F91060062111FB0061B4F988
:1075A0000C60B142C1BFB4F91210228201EBC502D6
:1075B0006282E28A0192A28A0092CDE90205B4F9C0
:1075C0001220B4F910102046FFF75EFE237E228AB7
:1075D00003EB430302EB43032382D2E70A2907D1DB
:1075E00000230382137B417E428A01FB0323C7E70A
:1075F0000D29C6D0157AA942C3D3917A9942C0D336
:1076000051685D1BEDB201EBC505AF782FB3E9788A
:1076100019B3E17E007E667E91B195F9051039447B
:10762000B4F9107000FB0171B4F90C70B94207DDB8
:1076300000272782B4F91210127B02FB0612628225
:10764000E28A0192A28A0092CDE90206B4F91220E0
:10765000B4F910102046FFF717FE2979237E228AFD
:1076600001FB0323B8E7012938BF012101764176E8
:1076700070472DE9F04F04468BB000F071FBB4F970
:107680000A30B4F93A50B4F9087094F83890DA1D19
:1076900048BF03F10E0240238DF82330C2F3C70325
:1076A0000393A36ADB68013B9BB20493B4F93C30BB
:1076B000FFB2002DB8BF073523EAE373B94507F1E0
:1076C0000102C5F3C70528BFB94652FA83F305FB8B
:1076D000079A06934FF0000B039B9D426BD2636B9E
:1076E000267A94F8542003EB0A08069B4A449E1B12
:1076F000A36A1111A6EB0906A5F15000F6B2C0B2BB
:10770000103102F00F02002B35D08DF825008DF8D6
:1077100026101846E16A8DF827208DF824B0FEF770
:10772000F0FE0123CDE900BBA06A042209A9FEF7FF
:1077300063FE9DF810300593A06AAEB1059BB3427D
:1077400028BF33461A46012301930DF1230300930A
:10775000414601230792FEF74FFE079AB61A90445E
:10776000F6B200F0FDFAE7E7216BFEF7CAFE01353D
:10777000EDB2BA44B0E78DF824008DF82510B4F8C6
:1077800040008DF826201946059301F0D4FC059B96
:107790000093032209A9606AFEF79DFDB4F840003A
:1077A000012101F0C8FC059B606A00933246414606
:1077B000FEF791FDDBE74FF004224FF0FF33C4E901
:1077C0000E230BB0BDE8F08F30B585B004460A9D9E
:1077D0000395099D02959DF92050CDE9003513468A
:1077E0000A460121FFF748FA034B23602046002395
:1077F00084F8543005B030BD60D90D0010B5034B8E
:1078000003600446FFF75AFA204610BD60D90D0008
:1078100010B5034B03600446FFF7F0FF204610BD90
:107820009CDB0D0010B50446FFF7F2FF20465821FF
:1078300001F018FD204610BD30B585B004460A9D04
:107840000295099D01959DF920500095FFF7BCFF19
:10785000024B2360204605B030BD00BF9CDB0D000D
:1078600030B5044685B0FFF7ADFA2F212046FFF76B
:1078700012FBA2682F4B9A4221D1236801211B6B76
:1078800020469847B4F90820B4F90A102023203A7A
:1078900073390125CDE9013502EBD272732301EB77
:1078A000D171009341F34F01234B204642F34F0225
:1078B000FFF796FC236800211B6B20469847A368BE
:1078C000B3F1801F17D1B4F90820B4F90A102023AE
:1078D0000120203A7339CDE9013002EBD2727323D3
:1078E00001EBD171009342F34F02134B41F34F016F
:1078F0002046FFF775FC114916222046FFF725FAAE
:10790000054618B90025284605B030BDA368B3F177
:10791000801F07D0642000F0FDFFAF212046FFF755
:10792000E9F9F0E7064904222046FFF70EFA00289D
:10793000F0D1E7E740008000B4D90D00F4DB0D0082
:10794000F0DB0D00002202600271704773B505463E
:1079500010200E460192FCF79EFB044618B1019AD6
:107960003146FEF71EFD012120462C602E7102B02B
:10797000BDE87040FEF731BD30B5002385B0CDE9DC
:10798000003349BA0546ADF80C108DF80E2000689A
:107990000123032203A9FEF72FFD60B16524013CFA
:1079A00014F0FF0407D02868FEF702FD20B901207B
:1079B00000F0B0FFF3E7002005B030BD1FB5012394
:1079C0000022CDE9003249BA03ABADF80C100068D3
:1079D00002221946FEF77EFD08B19DF80C0005B0A5
:1079E0005DF804FB00220260C26000224171026166
:1079F000704710B501238AB0CDE900330223016836
:107A000004461A4604A8FEF79FFA0DF10E0104A8D9
:107A1000FEF74FFB2071BDF80E00C01080000AB0C9
:107A200010BD10B501228AB0CDE9002204460168DC
:107A3000022304A8FEF788FA0DF10E0104A8FEF750
:107A400038FB2071BDF90E000AB010BD30B501251C
:107A500091B0CDE90055044601680223052204A82F
:107A6000FEF772FAA168022204A8FEF7C4FA2168A0
:107A700002230422CDE900550AA8FEF765FA0DF1AC
:107A80000E010AA8FEF715FB2071BDF90E0011B01A
:107A900030BD30B5012591B0CDE9005504460168EF
:107AA0000223052204A8FEF74FFAA168022204A8C7
:107AB000FEF7A1FA216802230322CDE900550AA8A6
:107AC000FEF742FA0DF10E010AA8FEF7F2FA207154
:107AD000BDF90E0011B030BD08B5FFF7A2FF04F0EC
:107AE00087F905A3D3E9002304F0ECF904F0E2FCE4
:107AF00000EE100A08BD00BF7B14AE47E17A843F58
:107B000008B5FFF776FF04F073F905A3D3E9002366
:107B100004F0D8F904F0CEFC00EE100A08BD00BF56
:107B2000FCA9F1D24D62503F10B50446FFF78EFF1D
:107B300007EE900AB8EEE70AD4ED037AF8EE677A1A
:107B400080EE270A10BD10B50446FFF7A2FF07EE2E
:107B5000900AB8EEE70AD4ED047A20EE270A10BDA9
:107B600030B54FF480520A238FB0C0E902230125BB
:107B70004FF080430361CDE90055044601680223BC
:107B8000052202A8FEF7E0F9A168022202A8FEF78A
:107B900032FA21680223CDE90055002208A8FEF739
:107BA000D3F9022243F69F1108A8FEF724FA2071A8
:107BB0000FB030BD37B50368044653B910200191AA
:107BC000FCF769FA054618B1019A6179FEF7E9FBFD
:107BD000256020680121FEF700FC054610B1204613
:107BE000FFF7BEFF284603B030BD30B54FF400525A
:107BF00014238FB0C0E9022301254FF07E530361A7
:107C0000CDE90055044601680223052202A8FEF7CB
:107C10009BF9A168022202A8FEF7EDF92168022370
:107C2000CDE90055002208A8FEF78EF9022240F2A5
:107C30009F1108A8FEF7DFF920710FB030BD0000DA
:107C400008B5024B1B689B68019308BD68020300DE
:107C500008B5024B1B68DB68019308BD680203008E
:107C600008B5024B1B685B68019308BD2C0203003A
:107C700008B5024B1B689B68019308BD2C020300EA
:107C800008B5024B1B68DB68019308BD2C0203009A
:107C900008B5024B1B681B69019308BD2C02030049
:107CA00008B5024B1B685B69019308BD2C020300F9
:107CB00008B5024B1B689B69019308BD2C020300A9
:107CC00008B5024B1B68DB69019308BD2C02030059
:107CD00008B5024B1B681B6B019308BD2C02030007
:107CE00008B5024B1B685B68019308BD18020300CE
:107CF00008B5024B1B68DB68019308BD180203003E
:107D000008B5024B1B685B69019308BD18020300AC
:107D100008B5024B1B689B6A019308BD180203005B
:107D200008B5024B1B685B6C019308BD1802030089
:107D300008B5024B1B689B6C019308BD1802030039
:107D400008B5024B1B689B6D019308BD1802030028
:107D500008B5024B1B685B6E019308BD1802030057
:107D600008B5024B1B68DB68019308BD480203009D
:107D700008B5024B1B685B6C019308BD4802030009
:107D800008B5024B1B685B69019308BD64020300E0
:107D900008B5024B1B681B68019308BD3C02030039
:107DA00008B5024B1B68DB68019308BD3C02030069
:107DB00008B5024B1B681B69019308BD3C02030018
:107DC00008B5024B1B685B69019308BD3C020300C8
:107DD00008B5024B1B689B69019308BD3C02030078
:107DE00008B5024B1B68DB69019308BD3C02030028
:107DF00008B5024B1B681B6A019308BD3C020300D7
:107E000008B5024B1B689B6A019308BD3C02030046
:107E100008B5024B1B681B68019308BD28020300CC
:107E200008B5024B1B68DB68019308BD28020300FC
:107E300008B5024B1B689B69019308BD280203002B
:107E400008B5024B1B68DB69019308BD28020300DB
:107E500008B5024B1B681B6A019308BD280203008A
:107E600008B5024B1B685B6A019308BD280203003A
:107E700008B5024B1B689B6A019308BD28020300EA
:107E800008B5024B1B68DB6A019308BD280203009A
:107E900008B5024B1B681B6B019308BD2802030049
:107EA00008B5024B1B685B6B019308BD28020300F9
:107EB00008B5024B1B681B6C019308BD2802030028
:107EC00008B5024B1B681B6D019308BD2802030017
:107ED00008B5024B1B681B68019308BD3002030004
:107EE00008B5024B1B685B69019308BD30020300B3
:107EF00008B5024B1B68DB69019308BD3002030023
:107F000008B5024B1B681B6A019308BD30020300D1
:107F100008B5024B1B685B6A019308BD3002030081
:107F200008B5024B1B689B6A019308BD3002030031
:107F300008B5024B1B689B6B019308BD3002030020
:107F400008B5024B1B68DB6B019308BD30020300D0
:107F500008B5024B1B681B6C019308BD300203007F
:107F600008B5024B1B685B6C019308BD300203002F
:107F700008B5024B1B681B68019308BD4C02030047
:107F800008B5024B1B685B68019308BD4C020300F7
:107F900008B5024B1B681B69019308BD4C02030026
:107FA00008B5024B1B685B69019308BD4C020300D6
:107FB00008B5024B1B689B69019308BD4C02030086
:107FC00008B5024B1B68DB69019308BD4C02030036
:107FD00008B5024B1B681B6A019308BD4C020300E5
:107FE00008B5024B1B685B6A019308BD4C02030095
:107FF00008B5024B1B685B6B019308BD6002030070
:1080000008B5024B1B681B68019308BD20020300E2
:1080100008B5024B1B685B68019308BD2002030092
:1080200008B5024B1B685B69019308BD2002030081
:1080300008B5024B1B689B6D019308BD200203002D
:1080400008B5034B1B68D3F88830019308BD0000C6
:108050002002030008B5034B1B68D3F8943001934A
:1080600008BD00002002030008B5024B1B685B68D6
:10807000019308BD4002030008B5024B1B689B68D2
:10808000019308BD4002030008B5024B1B68DB6882
:10809000019308BD4002030008B5024B1B681B6931
:1080A000019308BD4002030008B5024B1B685B69E1
:1080B000019308BD4002030008B5024B1B689B6991
:1080C000019308BD4002030008B5024B1B68DB6941
:1080D000019308BD4002030008B5024B1B681B6AF0
:1080E000019308BD4002030008B5024B1B681B6BDF
:1080F000019308BD4002030008B5024B1B685B6B8F
:10810000019308BD4002030008B5024B1B681B6CBD
:10811000019308BD4002030008B5024B1B685B6C6D
:10812000019308BD4002030008B5024B1B689B6821
:10813000019308BD4402030008B5024B1B685B694C
:10814000019308BD4402030008B5024B1B681B6B7A
:10815000019308BD4402030008B5024B1B68DB6BAA
:10816000019308BD4402030008B5024B1B681B685D
:10817000019308BD1C02030008B5024B1B685B6835
:10818000019308BD1C02030008B5024B1B689B68E5
:10819000019308BD1C02030008B5024B1B685B6A13
:1081A000019308BD1C02030008B5024B1B68DB6B82
:1081B000019308BD1C02030008B5024B1B685B6CF1
:1081C000019308BD1C020300002240681146FFF71E
:1081D00083BF002240681146FFF78EBF406800222F
:1081E000FFF782BF4068002281F00101FFF76CBFFA
:1081F000002340681A461946FFF75EBF0023406817
:108200001A461946FFF750BF002240681146FFF793
:1082100043BF002240681146FFF72EBF406800228E
:108220000221FFF731BF002340681A46FFF71CBF49
:10823000024B03225A60024A1A60704788E5032005
:1082400014DC0D000021FFF783BE0021FFF788BE7C
:1082500010B5044608462170FFF74AFE002363600C
:10826000204610BD10B504460078FFF7EBFF48B973
:1082700020784FF6FF71FFF72BFE2078BDE8104005
:10828000FFF7E3BF10BD0078FFF7DFBF400830B550
:108290001860002418688842E5B206D90134082C19
:1082A00002D040081860F5E70725024B5B5D1370AC
:1082B00030BD00BF48DC0D002DE9F04306468FB00D
:1082C00000780C46FFF7BEFF00281BDB3578142230
:1082D000002109A804F02CFC0B23002209A9284640
:1082E000ADF82430FFF714FE9DF82D3013B19DF842
:1082F0002C5055B10027B946B846012523795DB108
:10830000C3B100200FB0BDE8F083DDF830809DF8E8
:1083100034909DF83570F1E7002B35D1A3684345C3
:1083200008D18DF820908DF82170BDF82020A38908
:108330009A42E6D00023A1688DF80F300A9804AB6A
:108340000DF10F02FFF7A2FF217985B989B9A36862
:1083500043450ED38DF820908DF82170BDF8202074
:10836000A3899A4205D1049B434502D1C9E700295C
:10837000F9D100230193637B00939DF80F20237BA9
:108380003078FFF7DDFDBCE7CDE900552B462A46E6
:108390000121F5E708B50078FFF7A2FDC0B208BDDE
:1083A00030B587B004460A9D00950078FFF7B8FD08
:1083B0003DB9207802A9FFF7BBFD9DF81430DB071B
:1083C000F7D407B030BD0000054B02221A60054B00
:1083D000054A9A600020186098809871FFF718BECF
:1083E0009CE5032090E503200000FFFF10B5044644
:1083F0000068FFF7C1FE204610BD10B504460068B6
:1084000008B1FFF7B9FE0023C4E90133236010BDB2
:1084100038B504460D4600680131FFF7B5FE10B1CE
:10842000C4E90005012038BD10B50368044623B136
:1084300043688B4201D3012010BD2046FFF7E8FFBF
:108440000028F9D0A368002BF5D122681370F2E759
:1084500037B50D46114601920446FFF7E5FF019A34
:1084600028B92046FFF7C9FF204603B030BDA260FF
:108470002946206804F04EFB2268A3680021D154ED
:10848000F2E7002313B5C0E90033044683600373A9
:1084900041B10846019104F07FFB01990246204654
:1084A000FFF7D6FF204602B010BD38B5054600687C
:1084B0000C4668B16A688B689A4207D3096804F071
:1084C00063FBA368AB600023A36038BDFFF754FED5
:1084D00023682B6063686B60A368AB600023C4E90A
:1084E0000033F1E7884210B5044601D0FFF7DDFF05
:1084F000204610BD13B5044659B10846019104F059
:108500004BFB019902462046FFF7A2FF204602B02E
:1085100010BDFFF772FFF9E7024800230360FFF781
:1085200027BC00BFA0E50320F8B506460D468F180E
:108530000024BD420CD0336815F8011B9B683046FF
:108540009847031E01DB1C44F3E7002C08BF1C46C0
:108550002046F8BD13B50446084659B1019104F010
:108560001BFB23680199DB680246204602B0BDE888
:108570001040184702B010BD08B5FFF7EBFF08BD6B
:1085800003689B68184738B50D210546FFF7F8FFCB
:108590000A2104462846FFF7F3FF204438BD38B5CA
:1085A0000546FFF7D7FF04462846FFF7ECFF2044B7
:1085B00038BDFFF7F4BF30B58BB000238DF8243001
:1085C000012A98BF0A2209AC0D46B1FBF2F101FB6A
:1085D000125303F0FF03092B94BF30333733DBB260
:1085E000AA4204F8013DEFD92146FFF7B3FF0BB0D3
:1085F00030BD2DE9F04F93B019469DF87050012D14
:108600004FF0000398BF0A2582468DF8443010468B
:108610000DF1440B5FFA85F84FF0000942464B46D6
:1086200006460F4604F0F4F805FB106404F0FF045E
:10863000092C94BF303437344F45E4B208BF464567
:108640000BF8014DEAD259465046FFF783FF13B0AD
:10865000BDE8F08F2DE9F74F55EC104B06460F465D
:1086600010EE102A10EE100A2B46294603F0C4FE25
:1086700040B153493046FFF76DFF8246504603B084
:10868000BDE8F08F25F000494E4B4FF0FF322046F9
:10869000494603F0B1FE48B94A4B4FF0FF3220463D
:1086A000494603F08BFE08B94749E3E7474B4FF0D3
:1086B00060422046294603F095FE08B14449D9E7B7
:1086C000444B4FF060422046294603F06DFE0028DF
:1086D000F4D1002200232046294603F065FED0B1E4
:1086E0002D213046FFF74CFF05F1004382461D4621
:1086F0003949DFF8EC904FF0000B00204FF00008F4
:108700005FFA8BF39F4208D942464B4603F004FDC3
:108710000BF1010BF4E78246EAE722462B4603F011
:108720001BFA0D46044603F0A5FE804603F050FBFD
:1087300002460B462046294603F00CFA0A2204465C
:108740000D4630464146FFF736FF824427B12349A4
:108750003046FFF7FFFE8244DFF884904FF00008B8
:10876000013FFFB2FF2F89D042464B4620462946A3
:1087700003F0A8FB04460D4603F054FEB0F1000BD5
:108780001ADA2D213046FFF7FBFECBF1000103463C
:108790000A2230460193FFF70EFF019B18448244E2
:1087A000584603F025FB02460B462046294603F0B7
:1087B000D1F904460D46D3E759460023E8E700BF48
:1087C00050DC0D00FFFFEF7F54DC0D00FFFFEF4199
:1087D00058DC0D00FFFFEFC10000E03F30D20D007C
:1087E0000000244038B5044610EE100ACDB203F064
:1087F00011FB41EC100B29462046BDE83840FFF73D
:1088000029BF2DE9F04186B000AF05460E46381D60
:10881000142114463B60FFF7BFFC13280ED8391D06
:108820002846FFF797FE04461EB12846FFF7ABFE29
:10883000044420461837BD46BDE8F08100F1080326
:1088400023F00703E846ADEB030D2246411C3B68CD
:108850006846FFF7A1FC69462846FFF77BFE044601
:10886000C546E1E7014B024A1A607047A4E50320C0
:108870005CDC0D0008B50020FFF766FC28B1FFF7AF
:108880005BFC80F00100C0B208BD0120FCE710B520
:108890000020FFF755FA0446A0B9FFF7B1FB012805
:1088A00010D12046FFF7C4FB60B9FFF7E3FF10B912
:1088B000FFF73AFCF9E7FFF7DDFFBDE810400020C5
:1088C000FFF73EBA204610BD1FB5FFF7E0FF1022AC
:1088D0000021684604F02CF900216846FFF738FAB9
:1088E000009805B05DF804FB024B1A68024B1A6051
:1088F000704700BF9CE30320A8E503208A4210B51F
:1089000007D0029C401AE41A6043521A90FBF2F01E
:10891000184410BD0021FFF783BB0000014B00226B
:108920009A607047ACE50320014B1860704700BFA8
:10893000A4E3032008B50B4B43B100F067F90368CB
:108940001B699847002801DDAFF30080064B43B157
:1089500000F04EFA03681B699847002801DDAFF369
:10896000008008BD000000000000000008B5FFF70F
:10897000E1FFFFF7C5F9014B186008BD34E703209C
:108980000548064A064908B5121A04F0C3F8054B13
:10899000054A1A6008BD00BF00F4032004F4032058
:1089A00058E20D0000F403201E1C279A07B500238F
:1089B00000931A466FF07701FFF74CFB03B05DF8A8
:1089C00004FB000007B543880A2B08D0502B0BD1BD
:1089D000094B1B684BB103B05DF804EB1847FFF778
:1089E000E5FF03B05DF804FB002300931A466FF027
:1089F0007701FFF72FFBF4E7C0E5032010B512481D
:108A00000021FFF7D9FB114B1A68114B9A42114B09
:108A10000CBF012200221A7001D0FFF7B1FFFFF74F
:108A20005FF9044604F08CF80B4B13B12046AFF30A
:108A3000008000210848FFF78FFBBDE81040074881
:108A40000021FFF7FDBA00BF29890D0000F40320C3
:108A50001E1C279ABCE5032000000000C5890D00FC
:108A6000704710B51821044600F0FCFB204610BDED
:108A7000F0B5037D062B8DB00E4600F104074FF0D4
:108A8000000412D000F1080515F8011D0A22304635
:108A9000FFF791FDAF42044419D0002CF4D02E21F1
:108AA0003046FFF76DFD0444EEE72F236A46394652
:108AB0000A208DF80040FFF763F9684604F06CF86F
:108AC00033680246DB6869463046984704462046CC
:108AD0000DB0F0BD10B5054B0446112240F8043B23
:108AE000002104F025F8204610BD00BF84DC0D00F5
:108AF0000346074A10B543F8042B01F1100251F860
:108B0000044B43F8044B9142F9D10A781A7010BD16
:108B100084DC0D0010B59DF8084044EA032343EAC5
:108B2000024242EA016104234160037510BD13B59E
:108B3000CB7800938B784A780978FFF7EBFF02B087
:108B400010BD417470477047704708B50021007C24
:108B5000FFF72EFA40EAE07008BD08B50121007C5D
:108B6000FFF726FA40EAE07008BD08B5007CFFF781
:108B700017FA20EAE07008BD08B5007CFFF708FA94
:108B800020EAE07008BD13B50446007C0191FFF7B0
:108B900007FA0028019901DC607C20B1207CFFF7F6
:108BA0000FFA20EAE07002B010BD007CFFF710BAA7
:108BB00010B51421044600F055FB204610BD0000FE
:108BC00010B54FF47A73044608460021C4E9011336
:108BD000044B23600123207463741146FFF7C8F926
:108BE000204610BD98DC0D00007C0022FFF7C8B9BC
:108BF000007CFFF7F5B9FFF7FBBF10B51422044660
:108C0000002103F095FF204610BD000010B50F4C69
:108C100088B003A8FFF7F1FF2178BFF35B8F11F055
:108C200001010FD120460191FBF746FA019948B1A5
:108C300003AA0748FFF7C4FF2046FBF742FA05489E
:108C400003F062FF024808B010BD00BFC4E5032076
:108C5000C8E50320478B0D00004700002DE9FF41C8
:108C600000241D460F4690460646FFF729F8A54208
:108C70004FF00403ADF80D408DF80C308DF80F4027
:108C8000A2BF9DF828308DF80E3003AC0749009440
:108C900043463A463046A8BF8DF80D50FFF708F816
:108CA000B0FA80F0400904B0BDE8F081598C0D00A5
:108CB000002240681146FFF7EFB9002240681146D4
:108CC000FFF70ABA002240681146FFF715BA40685C
:108CD0000022FFF709BA4068002281F00101FFF786
:108CE000F3B9002340681A461946FFF7E5B9002397
:108CF00040681A461946FFF7D7B900224068114666
:108D0000FFF7BAB9406800220221FFF7BDB900237E
:108D100040681A46FFF7A8B9084B10B52824224628
:108D20001846002103F004FF054B04804FF0FF328A
:108D3000426004225A60034A1A6010BDE4E5032031
:108D4000DCE50320C8DC0D007047417470477047B4
:108D500008B5007CFFF754F820EAE07008BD08B5BC
:108D6000007CFFF725F820EAE07008BD08B5007C1C
:108D7000FFF72EF840EAE07008BD08B5007CFFF769
:108D80001FF840EAE07008BD007CFFF729B837B54E
:108D9000457C04462DB1207C03B0BDE83040FEF791
:108DA000FFBF007C0191FFF72BF800280199F2DC4E
:108DB000284603B030BD10B51421044600F052FA25
:108DC000204610BD10B54FF0000C04460846114671
:108DD0004FF47A72C4E901C2044A2260012220746D
:108DE00062741A46FEF7D4FF204610BD04DD0D0064
:108DF00013B50D4C2178BFF35B8F11F0010110D139
:108E000020460191FBF758F9019950B1074B084AE8
:108E10000848FFF7D7FF2046FBF753F9064803F051
:108E200073FE044802B010BD0CE6032094E6032054
:108E300010E6032018E703204F8D0D007047F8B5AA
:108E4000064615460C468F18BC4206D0336814F807
:108E5000011B9B6830469847F6E72846F8BD007C22
:108E60000022FEF7F5BF007C0021FEF7F9BF007C71
:108E70000021FEF7FDBF007C0021FFF701B8007C58
:108E80000021FFF705B810B51421044600F0EAF9F7
:108E9000204610BD10B54FF47A73044608460021F1
:108EA000C4E90113034B236020741146FFF700F857
:108EB000204610BD34DD0D00007C0022FEF7A8BF67
:108EC0000023007C1A461946FEF7AABF7FB5002290
:108ED0001423CDE90122ADF804300B788DF8083069
:108EE0004B680393CB680493007C0B7A059301A92C
:108EF000FEF7E6FF07B05DF804FB1FB5003B8DF8F9
:108F000000104FF06401039118BF012369460192DC
:108F10008DF80830FFF7DAFF05B05DF804FB012398
:108F2000FFF7EBBF007C0022FEF782BF007C00222F
:108F3000FEF786BF0121FFF7F9BF002340681A46FC
:108F4000FFF792B8406800220221FFF79DB8002287
:108F500040681146FFF790B8002240681146FFF7BD
:108F60009BB8002340681A461946FFF79DB80023B6
:108F700040681A461946FFF79FB840680021FFF77E
:108F8000C3B840680021FFF7C7B84068002281F0ED
:108F90000101FFF799B840680022FFF7A5B8002249
:108FA00040681146FFF7A8B8002240681146FFF755
:108FB00093B82DE9F043002495B016460D460746B8
:108FC000FFF788FD214618220EA8009403F0B0FD9B
:108FD0004023CDE90C3421466B460CAA3046FEF7FF
:108FE00037FE0446002846D1024601216868FFF793
:108FF00053F80221804622466868FFF74DF8009E2C
:1090000081462146002E36D0002934D17368022BC8
:1090100003D00A2B0BD0F669F4E7B8F1000F04D0A7
:10902000716938460431FFF782FD4146F3E7B9F133
:10903000000F01D14946EEE77469102201A803F040
:1090400077FD06238DF8143001AD04F108031834C0
:10905000186859682A4603C20833A3421546F7D157
:1090600001A906A807ADFFF743FD0FCD3C1D0FC4B6
:109070002B682370DEE70098FEF7E2FD384615B056
:10908000BDE8F083024B034A1A6000225A60704721
:109090002CE703205CDD0D00232813B502D9002046
:1090A00002B010BDA0F10B03022B1AD8174C217887
:1090B000BFF35B8F11F001010BD120460191FAF74C
:1090C000FBFF019928B11248FFF7C2F82046FAF7D2
:1090D000F8FF0F4B1878FEF713FF0028DFD10120AF
:1090E000DEE7012809D800F099F80021007CFEF79E
:1090F000D7FE80F00100C0B2D2E709380128EED8CF
:10910000FFF776FE007CFEF773FEF2E77CE50320B6
:1091100080E50320232838B504460D460AD8FF29E8
:1091200008D0FFF7B9FF28B129462046BDE83840EE
:10913000FEF79EBD38BD38B504460D46FEF7A0FDCE
:10914000FF2810D0062804D84D2323FA00F0C307C7
:1091500009D42046FFF7A0FF28B129462046BDE8E4
:109160003840FEF795BD38BD10B50446FEF788FDC2
:10917000031FDBB2012B08D92046FFF78DFF20B17A
:109180002046BDE81040FEF78BBD002010BD0D2825
:1091900010B504469CBF0E34A4B22046FFF77CFFF6
:1091A00050B103212046FEF75BFD032804D1204681
:1091B000BDE81040FEF78CBD002010BD10B5084C76
:1091C0002378BFF35B8FDB0708D42046FAF774FFE0
:1091D00020B1FEF79DFD2046FAF773FF014810BD50
:1091E00038E703203CE703207047000038B5002330
:1091F00020254380142304460380856005610649C9
:10920000284600F031F804496060284600F02CF848
:10921000E060204638BD00BF90DD0D0030B50E4D3A
:109220002978BFF35B8F11F0010487B011D1284674
:10923000FAF742FF68B101A8FFF7D8FF01AA21465B
:109240000648FFF727FE2846FAF73BFF044803F0DD
:109250005BFC024807B030BD40E7032044E7032031
:10926000E9910D00FAF71BBFFAF717BF00B510EE32
:10927000103A204A23F00043934283B019DDB3F142
:10928000FF4F04DB30EE400A03B05DF804FB684694
:1092900001F080FA00F00300012811D002281FD04D
:1092A000B8B1DDED010A9DED000A012001F074FF67
:1092B000EAE7DFED110A01F0B7FB03B05DF804FB4C
:1092C000DDED010A9DED000A01F066FFB1EE400AF6
:1092D000DAE7DDED010A9DED000A01F0A5FBD3E719
:1092E000DDED010A9DED000A01F09EFBB1EE400AA2
:1092F000CAE700BFD80F493F0000000000B510EEDC
:10930000103A214A23F00043934283B01ADDB3F1AF
:10931000FF4F04DB30EE400A03B05DF804FB684603
:1093200001F038FA00F00300012813D0022820D001
:10933000B8B1DDED010A9DED000A01F075FBB1EE5B
:10934000400AE9E7DFED110A002001F025FF03B034
:109350005DF804FBDDED010A9DED000A01F064FB00
:10936000DAE7DDED010A9DED000A012001F014FFAE
:10937000D2E7DDED010A9DED000A012001F00CFFAE
:10938000B1EE400AC8E700BFD80F493F0000000017
:1093900000F0BAB9000000002DE9F04F2DED028B6E
:1093A0008DB057EC106B55EC114B00F0ADFAAE4B95
:1093B000B0EE408AF0EE608A93F90090B9F1FF3F79
:1093C00037D022462B462046294603F015F883461F
:1093D00078BB32463B463046394603F00DF88046AE
:1093E000002840F093804FF0000A4FF0000B304609
:1093F000394652465B4602F0CDFF18B352465B46F3
:109400002046294602F0C6FF0090002857D0974B0F
:10941000CDF828800122CDE90467CDE90645CDE9E4
:1094200008AB02920393B9F1000F00F089809FED21
:109430008A8BB0EE480AF0EE680A0DB0BDEC028BE4
:10944000BDE8F08FB0EE480AF0EE680A02F0AAF824
:109450008046002800F082804FF000084FF000099D
:1094600051EC180B42464B4602F094FF0028E0D026
:1094700047EC106B02F096F80028DAD045EC104B60
:1094800002F090F80028D4D0774B784A93F9003056
:10949000039204210022022BCDE90467CDE90645A1
:1094A000CDE9088902910A9204D002A802F086F858
:1094B00000284AD1FEF778FE2223036045E045EC00
:1094C000104B02F06FF80028B3D052465B4620469E
:1094D000294602F069FF0028ABD0634B0099634A2C
:1094E00093F900300A910121CDE90467CDE90645E1
:1094F000CDE90212002B6FD1CDE908AB02A802F032
:109500005DF800286ED00A9B2BB320E000220023D8
:109510002046294602F03EFF00288AD09FED4E8B60
:10952000524BCDF828B00122B9F1020FCDE9046702
:10953000CDE906458DED088B029203933FF479AF98
:1095400002A802F03BF8002851D00A9B1BB1FEF79D
:109550002BFE0A9B03609DED088B6AE747EC106BBE
:1095600002F020F800283FF477AF45EC104B02F0F2
:1095700019F800283FF470AF53EC182B18EE100ABE
:10958000194602F039FF384B002840F0968093F9D5
:1095900000800A9003230293344B0393CDE90467C0
:1095A000CDE90645B8F1000F26D1DFF8D0904FF095
:1095B000604852465B4630463946CDE9088902F09C
:1095C000F3FE48BB02A801F0F9FF00289BD1FEF78B
:1095D000EBFD2223036096E725490020022BCDE90D
:1095E00008018BD1FEF7E0FD212303608BE7FEF736
:1095F000DBFD21230360A8E79FED197B52465B4604
:10960000304639468DED087B02F0CEFE002837D17A
:10961000B8F1020FDBD0D5E7164B002220462946D1
:1096200002F050FC02460B4643EC102BCDE9002320
:1096300001F0CEFFDDE9002351EC100B02F0AAFE91
:10964000002836D10C4B08494FF06042CDE9082381
:1096500091F90080DCE700BF000000000000F03F4F
:10966000000000000000F07FA0E3032094DD0D0067
:109670000000F0FF0000E03FFFFFEFC7FFFFEF47F4
:109680001C4B00222046294602F01CFC02460B46D9
:1096900043EC102BCDE9002301F09AFFDDE9002314
:1096A00051EC100B02F076FE18B9134B0022CDE9F5
:1096B0000823124B93F90080AAE793F90090104B0E
:1096C000CDF828800122CDE90467CDE90645CDE932
:1096D0000223B9F1000F3FF40FAF52465B465046EC
:1096E000594602F019FDB9F1020FCDE908013FF426
:1096F00079AF03E70000E03F0000F0FFA0E30320A4
:1097000094DD0D0000F09EBF51EC110B2DE9F047E8
:109710004342794E034321F0004C4CEAD373B342E9
:1097200055EC104B82B047D86342234325F0004AE2
:109730004AEAD373B34210EE10EAA9463CD801F1CD
:10974000404303F5801303434CD04FEAA17808F05F
:1097500002085AEA040348EAD57838D05CEA0003E4
:1097600048D0B4455DD0B24544D0AAEB0C0CBCF156
:10977000747F4FEA2C534FDA002961DA3C335FDA09
:109780009FED4F7B8DED007BB8F1010F78D0B8F1E4
:10979000020F64D0B8F1000F14D04BA3D3E900231B
:1097A000DDE9000102F0D6F949A3D3E9002302F074
:1097B000D1F9CDE9000105E022462B4602F0CCF9B3
:1097C000CDE900019DED000B02B0BDE8F087B8F1D6
:1097D000020F17D0B8F1030F09D19FED3F7B8DED3C
:1097E000007BEFE702B0BDE8F04701F01DBD8DED55
:1097F000000BE7E7B9F1000F09DB9FED397B8DED39
:10980000007BDFE79FED327B8DED007BDAE79FED9C
:10981000367B8DED007BD5E79FED317B8DED007BB9
:10982000B2E7E24508F1FF3832D0B8F1020F3AD87A
:10983000324B03EBC80898ED007B8DED007BC1E750
:1098400002460B462046294602F066FC41EC100B0E
:1098500001F09EFE01F0E8FC8DED000B94E71AA3E9
:10986000D3E90023DDE9000102F074F902460B465A
:1098700017A1D1E9000102F06DF9CDE90001A1E7DE
:10988000DDE90023019901F10043CDE9002399E7C7
:10989000B8F1020F0CD81A4B03EBC80898ED007B07
:1098A0008DED007B8EE79FED067B8DED007B89E7DC
:1098B0009FED0F7B8DED007B84E700BFAFF3008051
:1098C0000000000000000000075C143326A6A13C45
:1098D000182D4454FB210940182D4454FB2109C084
:1098E000182D4454FB21F93F182D4454FB21F9BF96
:1098F000182D4454FB21E93F0000F07FB0DD0D003E
:1099000098DD0D00000000002DE9F04F57EC116BC1
:109910002DED0A8B27F0004A5AEA060289B03DD0A5
:1099200055EC104B764925F00048884510EE102A7A
:10993000A9462CDC11EE103ABB463AD08A4526DC0B
:109940006F498A4521D0B9F1000F3DDB0021039119
:10995000002B55D16A4B9A4500F0A880694B9A4577
:1099600000F0B680BBF1804F00F00185664B9B454F
:1099700046D1B9F1000F43DB45EC104B09B0BDEC0B
:109980000A8BBDE8F04F00F099BD002BDBD008F149
:10999000404808F5801858EA02030DD19FED547B2A
:1099A0008DED007B9DED000B09B0BDEC0A8BBDE891
:1099B000F08F0CB9C245C3DD544809B0BDEC0A8B29
:1099C000BDE8F04F01F0FCBD51498A4500F38780A6
:1099D000A1F154718A450FDD4FEA2A51A1F2FF31FE
:1099E000142940F3CE84C1F1340123FA01F000FAC6
:1099F00001F1994200F0208500210391002BADD0A8
:109A000045EC104B069201F0C3FD069A8DED000B5C
:109A10005ABBB8F1000F04D03A4B29F040429A42A9
:109A200023D1BBF1000F07DADDE90023354900201F
:109A300002F072FBCDE90001B9F1000FB2DA039B2D
:109A400008F1404808F5801858EA030340F0BE8446
:109A5000DDE900231046194602F07CF802460B4669
:109A600002F05AFBCDE900019CE7039A4FEAD97353
:109A7000013B0693134335D0264B9A454EDD03F147
:109A800004739A45244B40F3ED83984540F36B8370
:109A9000BBF1000F40F36B8317A3D3E900231046FB
:109AA000194602F00FFACDE900017BE708F14043C7
:109AB00003F5801313433FF471AF174B984540F300
:109AC0008883BBF1000FC0F25283CDE9006769E7DC
:109AD000BBF1000FC0F24184CDE9004562E70221ED
