:02000002D0002C
:1040000000400D005CBF0D00000006000D00050122
:0840100004019A080000000001
:0440180054AD0D0096
:1040200009480A49884208B505D0094A824202D0A7
:10403000121A06F0D3FD0748074A0021121A06F0AB
:10404000DBFD014808BD00BF20E40320BCBE0D001D
:1040500098E4032098E40320EDE7032070B5074EB1
:10406000074C04F019F8A41BA4080025A54200D1B0
:1040700070BD56F8043B98470135F7E780BE0D0048
:10408000A4BE0D0000F03CBE08B500F0F5FBBDE895
:10409000084003F0B9BF03F0B5BC03F0B3BC03F0B4
:1040A000B9BC000008B5034A00210C2003F016FC3F
:1040B000FEE700BFFD750D000078B0FA80F0400902
:1040C000704701230370704710B5074C03F09EFA48
:1040D0002368C01A0F2806D9044A136801331360F5
:1040E00003F094FA206010BD9CE40320A8E40320B0
:1040F000F8B50C1E074616460CDA0A2A0AD12D21FD
:1041000003F0EEFD61420546F2B2384603F007FEC9
:104110002844F8BD21460025F6E7000038B504F034
:10412000C3F83649364C03F0D7FD04F0BDF8054618
:10413000204601F09FF9DFED337A60EE277A17EE23
:10414000900A05F0E3FE304B002205F081FD41ECC2
:10415000100B0221284603F0D8FE04F0A5F82B49E5
:1041600003F0D1FD04F0A0F8294903F0B5FD04F0F7
:104170009BF80546204601F0ABF9DFED267A80EE8C
:10418000277A022128469FED240A27EE000A03F031
:10419000ADFE04F089F8214903F0B5FD04F084F880
:1041A0001F4903F099FD04F07FF89FED1E0A0546B4
:1041B000204601F069FA0221284603F097FE04F038
:1041C00073F8194903F09FFD04F06EF8174903F0E6
:1041D00083FD04F069F80546204601F0F5FA022156
:1041E000284603F083FE04F05FF8114903F08BFDCD
:1041F00004F05AF8BDE8384003F079BD68AD0D0011
:10420000B4E403206666E63F0000404077AD0D0051
:104210007AAD0D0080E6C54700003E4486AD0D0036
:104220008CAD0D0000507D44A0AD0D00A3AD0D0080
:10423000AFAD0D0030B58BB06946424801F0C2FE0B
:1042400004F032F8404903F05EFD04F02DF83F49D8
:1042500003F042FD04F028F8694603F054FD04F031
:1042600023F83B4903F038FD04F01EF8039C002CB2
:10427000054663DA2D2103F033FD61420A22284608
:1042800003F04DFD284603F032FD04F00DF83149EE
:1042900003F022FD04F008F8049C002C05464FDAD8
:1042A0002D2103F01DFD61420A22284603F037FD4F
:1042B000284603F01CFD03F0F7FF274903F00CFD2F
:1042C00003F0F2FF9DED060A022103F00FFE03F05A
:1042D000EBFF224903F017FD03F0E6FF204903F04E
:1042E000FBFC03F0E1FF9DED070A022103F0FEFD58
:1042F00003F0DAFF194903F006FD03F0D5FF194971
:1043000003F0EAFC03F0D0FF9DED080A022103F060
:10431000EDFD03F0C9FF114903F0F5FC03F0C4FF04
:10432000094903F0F0FC03F0BFFF0F4903F0EBFC79
:104330004FF4FA7003F03CFE0BB030BD21469DE710
:104340002146B1E7F8E40320B2AD0D00D7AD0D0072
:10435000E6AD0D00F5AD0D0004AE0D0013AE0D0081
:1043600018AE0D0027AE0D001EAF0D0038B5044687
:1043700003F09AFF4C494D4D03F0C5FC03F094FF48
:104380004B4903F0A9FC03F08FFF0A22B4F9001097
:10439000FFF7AEFE03F088FF294603F09DFC03F013
:1043A00083FF0A22B4F90210FFF7A2FE03F07CFF9C
:1043B000294603F091FC03F077FF0A22B4F90410B8
:1043C000FFF796FE03F070FF294603F085FC03F02B
:1043D0006BFF384903F080FC03F066FF0A22B4F952
:1043E0000C10FFF785FE03F05FFF294603F074FC15
:1043F00003F05AFF0A22B4F90E10FFF779FE03F01A
:1044000053FF294603F068FC03F04EFF0A22B4F97B
:104410001010FFF76DFE03F047FF294603F05CFC28
:1044200003F042FF244903F057FC03F03DFF0A224A
:10443000B4F90610FFF75CFE03F036FF294603F0DF
:104440004BFC03F031FF0A22B4F90810FFF750FECD
:1044500003F02AFF294603F03FFC03F025FF0A2260
:10446000B4F90A10FFF744FE03F01EFF294603F0DB
:1044700033FC03F019FF114903F02EFC03F014FF85
:104480000A22B4F91210FFF733FE03F00DFF0C49B6
:1044900003F022FC03F008FFB4F914100A22BDE86F
:1044A0003840FFF725BE00BF36AE0D00E4AD0D006D
:1044B0004CAE0D005CAE0D0064AE0D006BAE0D0099
:1044C0007BAE0D00152808B506DC03F0EDFE18499B
:1044D000BDE8084003F017BC422803DC03F0E4FE0B
:1044E0001449F5E76F2803DC03F0DEFE1249EFE71D
:1044F0009C2803DC03F0D8FE1049E9E7D32803DC4D
:1045000003F0D2FE0E49E3E7F62803DC03F0CCFE0D
:104510000C49DDE7B0F5927F03DA03F0C5FE0A49E6
:10452000D6E7B0F5A87FD0DC03F0BEFE0749CFE7A1
:1045300089AE0D008BAE0D008CAE0D008EAE0D0061
:1045400091AE0D0093AE0D0097AE0D0096AE0D002E
:1045500012B903689B681847D2B203F0E0BB0000B1
:104560001FB500238DF80F308DF80E308DF80D300B
:104570008DF80C300DF10F030DF10D0203A9234846
:1045800000930DF10E0301F09CFE03F08DFE204917
:1045900003F0A2FB9DF80C3023B903F085FE1D4902
:1045A00003F09AFB03F080FE1B4903F095FB03F038
:1045B0007BFE0A229DF80C10FFF7CAFF03F074FE81
:1045C000164903F089FB03F06FFE0A229DF80D10D7
:1045D000FFF7BEFF03F068FE114903F07DFB03F017
:1045E00063FE0A229DF80E10FFF7B2FF03F05CFE97
:1045F0000C4903F071FB03F057FE9DF80F100A22DF
:10460000FFF7A6FF05B05DF804FB00BFF8E4032048
:104610001DAF0D0099AE0D009CAE0D00A1AE0D00BA
:10462000A5AE0D00A9AE0D0038B50546FFF790FF09
:104630000446284603F05BFB204438BD13B5002335
:10464000214C8DF807300DF106020DF105018DF8B2
:1046500006308DF805301D480DF1070301F011FEFD
:1046600003F022FE214603F04EFB03F01DFE184925
:1046700003F032FB03F018FE10229DF80510FFF73F
:10468000D3FF03F011FE134903F026FB03F00CFEE9
:1046900010229DF80610FFF7C7FF03F005FE0E4934
:1046A00003F01AFB03F000FE10229DF80710FFF73D
:1046B000BBFF03F0F9FD214603F025FB4FF4FA7030
:1046C00003F076FC02B010BD1EAF0D00F8E403202D
:1046D000ADAE0D00BFAE0D00D1AE0D001FB5104840
:1046E00002F0E4FE0F4800F0F1FD04F0E5F80E4A98
:1046F0000E49CDE901214FF0FF32034600924021DF
:1047000080220B4802F04CFE04F0D6F8034609481C
:104710002822372105B05DF804EB01F07BBC00BF17
:104720006CE50320B4E40320801A0600A086010093
:1047300014E50320F8E4032038B53D4C3D4D2046F8
:1047400002F0D8F8204602F048FD00233A492361E0
:10475000204603F0C1FA284600F08CFEDFED377AE0
:1047600060EE277A17EE900A05F0D0FB344B00225A
:1047700005F06EFA41EC100B0221204603F0C5FB58
:104780003049204603F0BFFA2F49204603F0A4FA2F
:10479000284600F09DFEDFED2D7A80EE277A02217B
:1047A00020469FED2B0A27EE000A03F09FFB2949C4
:1047B000204603F0A8FA2849204603F08DFA28463F
:1047C0009FED260A00F060FF0221204603F08EFBD9
:1047D0002349204603F097FA2249204603F07CFA49
:1047E000284600F0F1FF0221204603F07FFB1E491E
:1047F000204603F088FA03F057FD03F078FA1B49CE
:10480000204603F080FA03F04FFD03F070FA1849D8
:10481000204603F061FA174B204693ED000A02216F
:1048200003F064FB2046BDE8384002F0D6BC00BF70
:1048300014E50320B4E40320E3AE0D006666E63F12
:1048400000004040ECAE0D00F1AE0D0080E6C54723
:1048500000003E4486AD0D0094AD0D0000507D4437
:10486000A0AD0D00A3AD0D00AFAD0D00FBAE0D0072
:104870000CAF0D000CE503202DE9F0412DED028B6E
:10488000CF4BD04D1878D04CD04E9CB0012103F0C6
:10489000A0FFCF4B187803F0C8FF4FF4B473286023
:1048A00000930023194640F6FF7203F075FBC94BD5
:1048B000B0F5B47F1860C8BFA0F5B470206023685D
:1048C000002BBCBF03F5B473236002F09FFE336876
:1048D000C01AC14B1B88984263D9C04F23683A68FD
:1048E0009B1A002BB8BF5B42052B2CDD03F0DCFCD0
:1048F0002D68002D804680F2EF812D2103F0F0F924
:1049000069420A22404603F00AFA03F0CDFCB4499A
:1049100003F0E2F903F0C8FC2568002D804680F220
:10492000DD812D2103F0DCF969420A22404603F0C3
:10493000F6F903F0B9FCAA4903F0CEF92068FFF7B5
:10494000C1FD23683B60A74CA74D206805F0BCFA69
:1049500099A3D3E9002305F031FB05F027FE286079
:1049600003F0A2FC0A22216803F0D9F903F09CFCB1
:104970009B4903F0B1F903F097FC95ED000A022181
:1049800003F0B4FA03F090FC954903F0A5F903F0A5
:104990008BFC964903F0B7F902F038FE0023306033
:1049A000236013A9924801F057FEFFF7B7FBFFF70A
:1049B000C3FE904B186803F0FBFA042003F022FFBB
:1049C00018B98D498D4803F087F9032003F01AFFC9
:1049D00018B98B49894803F07FF9022003F012FFD0
:1049E00018B98849854803F077F90A2003F0E0FAFE
:1049F00002F02CFE81489FED848A02F0EEFB03F06A
:104A000053FC824903F06FF903F04EFC9DED180A48
:104A1000022138EE400A03F069FA03F045FC7C49B4
:104A200003F061F903F040FC9DED190A022103F047
:104A30005DFA03F039FC764903F055F903F034FCD4
:104A40009DED1A0A022103F051FA03F02DFC714981
:104A500003F063F9664801F033FD8DED0A0B8DED2F
:104A60000C1B8DED0E2B8DED103B03F01DFC6A49E8
:104A700003F039F903F018FC0446DDE90A0105F0FA
:104A800095FD022100EE100A204603F02FFA03F0F4
:104A90000BFC5F4903F027F903F006FC0446DDE94F
:104AA0000C0105F083FD022100EE100A204603F000
:104AB0001DFA03F0F9FB564903F015F903F0F4FB76
:104AC0000446DDE90E0105F071FD022100EE100A39
:104AD000204603F00BFA03F0E7FB4D4903F003F91E
:104AE00003F0E2FB0446DDE9100105F05FFD022161
:104AF00000EE100A204603F0F9F903F0D5FB454912
:104B0000464C03F00AF900238DF80F300DF10F0326
:104B10000DF10D0203A9009335480DF10E0301F0CC
:104B2000D0FB03F0C1FB3E4903F0DDF803F0BCFB12
:104B30000A229DF80C10FFF70BFD03F0B5FB34497A
:104B400003F0D1F803F0B0FB0A229DF80D10FFF737
:104B5000FFFC03F0A9FB2E4903F0C5F803F0A4FB0A
:104B60000A229DF80E10FFF7F3FC03F09DFB284985
:104B700003F0B9F803F098FB0A229DF80F10FFF735
:104B8000E7FC03F091FB234903F0C7F803F08CFB2B
:104B9000244903F0B8F813A9154801F05DFD03F0AE
:104BA00083FB214903F098F803F07EFB9DED180A82
:104BB0003CE000BFAFF30080CDCCCCCCCCCCDC3F14
:104BC00021E40320ACE4032098E4032074E50320EF
:104BD00020E40320A0E4032024E40320A4E4032031
:104BE0001CAF0D00A8E40320B0E403201FAF0D00AC
:104BF000F8E4032010E5032024AF0D0014E50320A2
:104C00000DB40D0026AF0D000000B44328AF0D0019
:104C100036AF0D001EAF0D0039AF0D000CE50320BF
:104C200046AF0D0054AF0D0057AF0D00042103F047
:104C30005DF903F039FB2C4903F04EF803F034FB27
:104C40009DED190A042103F051F903F02DFB2749CA
:104C500003F042F803F028FB9DED1A0A042103F04B
:104C600045F903F021FB224903F04DF803F01CFB4A
:104C7000204903F048F8189805F048F918A3D3E93B
:104C8000002304F0E5FF05F091FC07EE900AF4EE36
:104C9000C87AF1EE10FAC8BF77EEC87AC4ED007A90
:104CA00003F002FB144903F017F803F0FDFA94ED4A
:104CB000000A042103F01AF904A9104801F052FB7C
:104CC00004A8FFF753FB4FF47A7003F071F91CB09E
:104CD000BDEC028BBDE8F081294612E6294624E6A8
:104CE000CDCCCCCCCCCC49405BAF0D0060AF0D003F
:104CF0001EAF0D0054AF0D0065AF0D00F8E40320AA
:104D00002DE9F043CC4B01241C60CC4BA3B01878A8
:104D1000002103F04DFDCA4B21461878C94C03F021
:104D200047FD03F0C1FAC84902F0EDFF20780021E9
:104D300003F03EFD0023009302224FF0FF33C349EE
:104D4000207803F0D9FA03F0AFFAC14902F0DBFF93
:104D500003F0AAFABF4902F0D6FF03F0A5FA4FF418
:104D6000E13103F08FFA03F09FFA03F092FA002882
:104D7000F9D0B94C03F098FAB84902F0CEFF03F02D
:104D800093FAB74902F0BFFF01223C21204602F00E
:104D90001BFB03F089FAB34902F0B5FF204602F08D
:104DA0001CFA4FF47A7003F003F9204601F0A2FDDB
:104DB000204602F012FA0121204601F0A1FF03F083
:104DC00073FAA94902F09FFF0221042003F0F0FCCE
:104DD0000221032003F0ECFC0221084603F0E8FC6A
:104DE0000121204602F0F3F900224FF00113C4E93B
:104DF00004239E49204602F06FFF9D49204602F0A1
:104E00006BFF9C49204602F07EFF9B49204602F042
:104E10007AFF204602F0E1F9984800F0DAFE78BB0C
:104E200003F042FA964902F06EFF03F03DFA95490D
:104E300002F052FF03F038FA0446904800F04AFAB4
:104E400010220146204602F06AFF204602F04FFF82
:104E500003F02AFA8C4902F03FFF03F025FA8B4950
:104E600002F03AFF03F020FA894902F035FF03F01F
:104E70001BFA884902F030FF0A2003F099F8FBE79B
:104E800003F012FA4FF4165103F0FCF903F00CFA98
:104E9000814902F038FF03F007FA804902F033FF3E
:104EA00003F00AFD502102467D4802F003FB002872
:104EB00068D003F0F9F97B49794DDFF81082DFF80B
:104EC000109202F020FF03F0EFF9774902F01BFF88
:104ED0000124A7B23946284602F024FB37285AD1CC
:104EE000C8223946284602F0FBFA70B903F0DCF913
:104EF000494602F0F1FE03F0D7F91022064621469A
:104F000002F00DFF304602F0F2FE0021284602F0CA
:104F100009FB372206463946284602F0E1FA70B905
:104F200003F0C2F9414602F0D7FE03F0BDF91022AA
:104F30000746214602F0F3FE384602F0D8FEC82E9E
:104F400029D103F0B1F9594902F0DDFE03F0ACF9C3
:104F5000574902F0C1FE03F0A7F90A22214602F0E8
:104F6000DEFE03F0A1F9534902F0CDFE52480C21B8
:104F700001F036F90446A0B903F096F94F4902F062
:104F8000ABFEFEE703F090F94D4902F0BCFE0A20AB
:104F900003F00EF8FBE701344FF6FF739C4298D103
:104FA000D4E74FF47A7003F003F80121424801F08E
:104FB00065F8FFF73FF903F04FFC042202A9002037
:104FC00002F034FB3C4818A900F0FCFF1C9A029B3D
:104FD0009A427FD003F068F93A4902F094FE4FF408
:104FE000FA7002F0E5FF00244FF47A7002F0E0FF5F
:104FF000FFF720F9FFF722FB2F48012101F03EF8CF
:105000002D480FA901F028FB002C00F0818003F04F
:105010004BF92D49284C02F076FE204601F069F943
:10502000002840F0B5800FA9204601F015FB4FF491
:105030007A7002F0BDFFF0E7A4E4032020E403202F
:1050400021E4032022E4032078AF0D00C9400D00C5
:1050500095AF0D00ABAF0D0014E50320B9AF0D0007
:10506000C5AF0D00E2AF0D00EDAF0D00F9AF0D00C3
:1050700018B00D0023B00D0031B00D00B4E40320D2
:1050800040B00D0088B00D0099B00D00E0B00D00EB
:105090000AB10D0034B10D005EB10D001EAF0D0060
:1050A0006CE5032074B10D0085B10D0004B20D0054
:1050B00016B20D002DB20D00F8E4032034B20D003D
:1050C00093B10D0071B20D0029B30D00E6B10D00D2
:1050D000CBB10D0003F0E8F84D4902F014FE03F0E7
:1050E000BBFB162203A9042002F0A0FA03A8FFF7D5
:1050F0003DF903F0D9F8474902F005FE03A94648F7
:1051000000F0DFFF03F0D0F8444902F0FCFD6BE74C
:1051100003F0CAF84249404C424E434D02F0F3FDC1
:10512000204601F0E6F898BB0FA9204601F094FA5A
:1051300003F0BAF8314602F0CFFD03F0B5F89DED6B
:10514000140A042102F0D2FE03F0AEF8294602F060
:10515000C3FD03F0A9F89DED150A042102F0C6FE77
:1051600003F0A2F8314902F0B7FD03F09DF89DED80
:10517000160A042102F0BAFEFFF7F2F903F094F8E0
:105180002B4902F0C0FD4FF47A7002F011FFC7E71F
:1051900003F08AF8274902F0B6FD03F085F82649A6
:1051A00002F0B1FD03F080F8244902F0ACFD09A93A
:1051B000194801F0D7F809A8FFF7D8F803F074F8F8
:1051C0001F4902F0A0FD18A9134800F0FBFE1C9B2C
:1051D000029303F041FB02A90422002002F02EFA00
:1051E00003F03AFB162209A9042002F027FA03F083
:1051F0005BF8144902F087FD03F056F8124902F0FB
:1052000082FD4FF4FA7002F0D3FE23B0BDE8F083C4
:10521000A7B20D00D5B20D00F8E4032003B30D00D2
:1052200059B30D0057AF0D005BAF0D0060AF0D001F
:105230001EAF0D0073B30D00B6AD0D0086B30D00AB
:105240009CB30D00C4B30D00DBB30D00704710B567
:105250001021044603F054FB204610BD0EB403B5E4
:1052600003AB002153F8042B019302F051FE02B06E
:105270005DF804EB03B0704773B504460846227925
:10528000A36832B1A3B90B4902B0BDE8704002F087
:1052900023BD094A267B094D0949647B012E18BFAD
:1052A0002946CDE900140749FFF7D8FF02B070BDC9
:1052B000054AEFE70FB40D001EAF0D000BB40D0053
:1052C00007B40D0025B40D00FEB30D004FF0FF3301
:1052D000036170478068704713B50B4C2178BFF3AA
:1052E0005B8F11F001010BD120460191FEF7E4FE26
:1052F000019928B1054802F0F1FB2046FEF7E1FED6
:10530000024802B010BD00BF78E503207CE5032011
:105310002DE9F04190F91330013305460F4606D1CF
:10532000FFF7DAFF3946BDE8F04102F079BC00240E
:1053300007264FF0010895F91300002180B203F011
:1053400048FA95F9110008FA06F1394080B203F0E5
:1053500040FA95F91300012180B203F03AFA95F969
:105360001200640080B2E4B203F04CFA08B144F0D9
:105370000104013EDFD22046BDE8F08108B5FFF709
:10538000ABFFBDE8084002F0C4BB07B50190FFF7D2
:10539000A3FF019903B05DF804EB02F0D3BB00005A
:1053A00030B590F91030013385B004460D4623D155
:1053B0000179006803F004F92068036829469B68B6
:1053C0009847206803F004F921792068032203F04C
:1053D000F4F8206803685B69984705022068036851
:1053E0005B69984728430502206803685B69984712
:1053F0000543284605B030BD90F9133001330CD178
:105400001A4B009300238DF80430194B0293684621
:105410000123ADF80C30FFF7B8FF94F9100000211C
:1054200080B203F0D6F945F080012046FFF770FF07
:1054300000212046FFF76CFF002105022046FFF700
:1054400067FF2843050200212046FFF761FF05435F
:1054500094F91000012180B203F0BBF994F91330E4
:105460000133C6D1FFF78AFFC3E700BF4CB40D007C
:1054700020A1070010B5FA210446FFF791FFB0F50F
:10548000000F1ED0A18A9FED107A4B00C1EB2022A5
:10549000C3EBE011B4F9163052435943B4F9183054
:1054A000121353439B1303EBE123E36003EB8303EA
:1054B00080331B1207EE903AF8EEE77A87EE870A00
:1054C00010BD9FED020AFBE70000C8420000C07F4C
:1054D0002DE9F8430446FFF7CDFFF7212046FFF7FB
:1054E0005FFFB0F5000F054600F0BF80E068B4F93B
:1054F0001C60B0F5FA334FEAE07141F1FF32A3FBD3
:10550000038903FB02F109EB4109F71706FB02F1DE
:1055100003FB0711A6FB03670F44390341EA165149
:105520003003B4F91E60F71706FB09FC08FB07CC33
:10553000A6FB086767444FEA162C4CEA076C668B9B
:105540004FEA272E1CEB00004EEB010E00304EF50B
:10555000004EA0FB060106FB0E114E10CF1756EAB7
:10556000070100F08580B4F9240000FB09FCC11795
:1055700008FB01CCA0FB0801B4F922804FEAE879CE
:1055800008FB02F203FB0922A8FB03899144614452
:105590004FEA48424FEA494C2D111218C5F58015C3
:1055A0004CEAD83CB4F920804CEB010C0023E917FD
:1055B0009B184FEAC17E4FEAC5704FEAC80141EB24
:1055C0000C0C4EEA550EC01A40F635436EEB0C0E2D
:1055D000A0FB030103FB0E1132463B4605F044F9E4
:1055E000B4F92A204D13460B46EAC14602FB05F7E3
:1055F000D31706FB0377A2FB06233B44554306FB68
:105600000355A2FB06232B44550E45EAC315B4F9F6
:105610002820B4F926402D184FEA636641EB0606B0
:10562000D317514300FB0311A2FB00230B44D10C01
:1056300041EA43316D184FEAE34046EB00032A0A82
:10564000E51742EA0362191220012B0143EA1473A1
:10565000801843EB010105F0C9F89FED070A07EE3A
:10566000900A27EE800ABDE8F8839FED040AFAE766
:105670009FED030AF7E700BF0000803B0000C07FFA
:10568000000000000000000008B52DED028BB0EE18
:10569000408AFFF71DFF9FED167AC0EE077AC7EE2E
:1056A000887A17EE900A04F031FC9FED0D1B41EC57
:1056B000100B03F029F90F4953EC102B002004F0D4
:1056C000C5FA09A3D3E9002304F078FC04F06EFFC7
:1056D000BDEC028B00EE100A08BD00BFAFF30080E6
:1056E000EBE2361AC05BC83F0000000040A5E54071
:1056F0000000C8420000F03F30B590F9103001338F
:1057000085B004460D461FD10179006802F058FFAC
:105710002068036829469B689847206802F058FF74
:1057200021792068022202F048FF206803685B6943
:1057300098470546206803685B69984740EA05205A
:1057400085B2284605B030BD90F9133001330CD135
:10575000184B009300238DF80430174B02936846D2
:105760000123ADF80C30FFF710FE94F91000002172
:1057700080B203F02EF845F080012046FFF7C8FD07
:1057800000212046FFF7C4FD002105462046FFF713
:10579000BFFD40EA052085B294F91000012180B2D6
:1057A00003F017F894F913300133CAD1FFF7E6FD7F
:1057B000C7E700BF4CB40D0020A1070008B5FFF7F4
:1057C0009BFF40BA80B208BD38B50446FFF752FED1
:1057D000FD212046FFF790FFB0F5004F38D0B4F917
:1057E0003250E268B4F934302D05A2F59632C5EB9B
:1057F000803002FB130303F58043D91394F8303053
:105800005343DB1203F5004094F9363053439B12A7
:1058100043439B1203F50012B4F92E30534303F5B2
:1058200000539B134B43DA1394F82C105243D211BC
:105830004A43A3EB221323EAE373B3F1C85FA8BF83
:105840004FF0C8531B1300EE103ABAEECB0A38BD26
:105850009FED010AFBE700BF0000C07F30B590F963
:105860001030013385B004460D4618D10179006827
:1058700002F0A6FE2068036829469B6898472068C6
:1058800002F0A6FE21792068012202F096FE20682F
:1058900003685B699847C5B2284605B030BD90F9EA
:1058A000133001330CD1154B009300238DF80430D5
:1058B000134B029368460123ADF80C30FFF765FDEA
:1058C00094F91000002180B202F083FF45F08001BE
:1058D0002046FFF71DFD00212046FFF719FD054674
:1058E00094F91000012180B202F073FF94F9133093
:1058F0000133D1D1FFF742FDCEE700BF4CB40D001C
:1059000020A1070008B5F321FFF7A8FF00F0010070
:1059100008BD38B588210446FFF750FF8A21A082D0
:105920002046FFF74BFF8C21E0822046FFF746FF21
:105930008E2120832046FFF741FF9021608320467F
:10594000FFF73CFF9221A0832046FFF737FF942109
:10595000E0832046FFF732FF962120842046FFF7A0
:105960002DFF982160842046FFF728FF9A21A0840C
:105970002046FFF723FF9C21E0842046FFF71EFF0F
:105980009E2120852046FFF719FFA1216085204632
:10599000FFF764FFE12184F82C002046FFF70EFF9B
:1059A000E321E0852046FFF759FFE42184F8300029
:1059B0002046FFF753FFE52105462046FFF74EFF3F
:1059C00000F00F0343EA05106086E6212046FFF74A
:1059D00045FFE52105462046FFF740FF031143EA56
:1059E0000510A086E7212046FFF738FF84F836002F
:1059F00038BD00007FB590F91030013304460E46E3
:105A0000154612D10179006802F0DAFD20680368BA
:105A100031469B6898472068036829469B689847E9
:105A2000206802F0D5FD04B070BD90F91330013349
:105A30000CD1144B009300238DF80430124B0293C9
:105A400068460123ADF80C30FFF79FFC94F9100075
:105A5000002180B202F0BDFE06F07F012046FFF774
:105A600057FC29462046FFF753FC94F9100001210A
:105A700080B202F0AEFE94F913300133D3D1FFF7B8
:105A80007DFCD0E74CB40D0020A10700F8B5DB0089
:105A900002F0070203F03803134343EA81139DF831
:105AA000186080F83C3090F840309DF81C509DF80C
:105AB000207066F3471380F84030ED0090F83830DE
:105AC00007F0070705F0380523F03F033D43044680
:105AD0001D4380F8385006F00702F221FFF78AFFD5
:105AE00094F83820C2F3C20302F007019B0043EA96
:105AF000411343EAD2122046F521FFF77BFF94F8C9
:105B00003C20C2F3C20302F007019B0043EA4113A9
:105B100043EA92122046F421BDE8F840FFF76ABF3D
:105B200030B5044690F91000421C85B019D12068A8
:105B300002F014FDD0212046FFF790FE6028A060FF
:105B400045D12046B622E021FFF754FF4FF496706E
:105B500002F02EFA2046FFF7D5FE054628B3642052
:105B6000F6E7012180B202F034FE94F91000012121
:105B700080B202F01DFE94F91300431C04D1FFF71C
:105B8000ABFB01F0B5FFD5E7012180B202F010FEBA
:105B900094F91100012180B202F00AFE94F912007A
:105BA000002180B202F004FEC4E72046FFF7B1FEF8
:105BB000052300931A4603212046CDE90155FFF73E
:105BC00065FF642002F0F4F9012005B030BD00202B
:105BD000FBE7772310B50371044602F06DFE2060E9
:105BE0002046FFF79DFF30B9762323712046BDE89C
:105BF0001040FFF795BF10BD10B50446406810B1C6
:105C000003689B689847204610BD38B5044690F954
:105C10000E00012180B202F0CBFD94F90E000121AB
:105C200080B202F0D6FD256835B1284601F060FF4C
:105C3000012084F8340038BD94F90F00012180B2AE
:105C400002F0B6FD637B94F90F00012B94BF294647
:105C5000012180B202F0BDFD94F91000421C09D070
:105C6000012180B202F0A4FD94F91000012180B25C
:105C700002F0AFFD94F91100431CD9D0002180B28D
:105C800002F096FDD4E700002DE9F04F04460068CD
:105C900085B00D4640B10023009313460A4601F03B
:105CA000C5FF05B0BDE8F08F237BA068484FB7FB68
:105CB000F0F7002B0B780CBF4FF0010B4FF0800B6F
:105CC0001BEA030F01EB02030CBF4FF001094FF079
:105CD0000009FFB20393039BAB42E2D095F800A00A
:105CE0005E464FF0000817B1384601F087FC637B31
:105CF00013F0FD0F41D194F910305A1C0FD01AEA5D
:105D0000060114BF012300234B4508D06369606A74
:105D10001A6800292CD002431A604FF00109A169CA
:105D2000E36A0A6813430B6017B1384601F066FC5A
:105D300094F91130013306D0E3691A68A36A1A4254
:105D400018BF46EA0808A169E36A0A6822EA030361
:105D50000B6094F91130013318BF85F80080237B64
:105D6000002B32D17600F6B2002EBCD10135B2E75D
:105D700022EA00021A608946D1E7A169E36A0A684B
:105D800013430B6017B1384601F038FC94F910301A
:105D9000013308D06369616A1A681AEA060F14BFF2
:105DA0000A438A431A60A169E36A0A6822EA030384
:105DB0000B6094F911300133CBD0E3691A68A36A00
:105DC0001A4218BF46EA0808C3E77608CCE700BFC6
:105DD00020A1070007B501228DF807100DF107017A
:105DE000FFF752FF9DF8070003B05DF804FB2DE9B3
:105DF000F041044600680E4617461D4610B1616822
:105E000001F0A0FE94F90E00002180B202F0E1FC46
:105E1000069B05EB0308454508D13744B7420BD034
:105E200016F8011B2046FFF7D5FFF7E715F8011B11
:105E30002046FFF7CFFFEEE794F90E00012180B274
:105E400002F0C7FC206808B101F063FE0120BDE844
:105E5000F08142600022027220220170C26070470D
:105E600010B5037A044653B12178606802F0A8FBAC
:105E7000606802F0ADFBB0FA80F0400910BD01216E
:105E800000F003F80028EFD1F8E738B50446406881
:105E90000D4602F063FB0120207225B12046BDE8CB
:105EA0003840FFF7DDBF38BD2DE9F843DDE908963E
:105EB0001F46C368154632449A420446884602D9B2
:105EC0000020BDE8F8830178406802F079FB7EB9D4
:105ED000606803682A46DB68414698478542EFD1EF
:105EE0006068394602F070FBB0FA80F04009E8E7DC
:105EF000B9F1000FECD0606803683246DB684946B0
:105F00009847B042DCD1E3E72DE9F041154604465D
:105F10000E46D2B20178406802F03DFB85420DD1B9
:105F200000271FFA87F8A84507F1010709D2606822
:105F300003685B69984706F80800F2E70020BDE8AF
:105F4000F0810120FBE72DE9F84307468846164615
:105F500099460025B54212D2FA68741B944228BFB4
:105F60001446331BAB4294BF4B460023224608EB3A
:105F700005013846FFF7C8FF10B12544EAE70120C4
:105F8000BDE8F88373B51D460023CDE900339DF8C5
:105F90001C30069E0446FFF787FF40B101233246BE
:105FA0002946204602B0BDE87040FFF7CCBF02B0E2
:105FB00070BD08B5406802F0CDFA012008BD7047F9
:105FC000704700000B4610B52822044600211846F1
:105FD00004F012FE09490B2204F042FE00220121C6
:105FE000C272C160E16842620022016182610321E4
:105FF000C261034A4161026210BD00BF22B30D00BD
:106000000AD7233C10B51421044602F079FC20463F
:1060100010BD000073B50193094B03600023C0E974
:106020000231044610201646FEF735F8054618B131
:10603000019A3146FFF70DFF2046A56002B070BD02
:1060400060B40D001FB50023CDE900338DF80C10AE
:106050008DF80D200123022203A98068FFF724FF99
:1060600005B05DF804FB08B50A4601743D21FFF751
:10607000E9FFBDE808401E2001F09ABF70B50D464B
:1060800000210446067CFFF7EEFF192001F090FF87
:10609000002207212046FFF7D5FF85B180223F214E
:1060A0002046FFF7CFFF0A2001F082FF204631464D
:1060B000FFF7D9FFBDE87040142001F079BF2A46F0
:1060C000EDE770B50D4600210446067CFFF7CBFFD7
:1060D000192001F06DFF2A7855212046FFF7B2FF05
:1060E0006A7856212046FFF7ADFFAA78572120464F
:1060F000FFF7A8FFEA7858212046FFF7A3FF2A7987
:1061000059212046FFF79EFF6A795A212046FFF762
:1061100099FFAA795B212046FFF794FFEA795C2179
:106120002046FFF78FFF2A7A5D212046FFF78AFF7E
:106130006A7A5E212046FFF785FFAA7A5F21204612
:10614000FFF780FFEA7A60212046FFF77BFF2A7B7A
:1061500061212046FFF776FF6A7B62212046FFF728
:1061600071FFAA7B63212046FFF76CFFEA7B642165
:106170002046FFF767FF2A7C65212046FFF762FF74
:106180006A7C66212046FFF75DFFAA7C67212046D6
:10619000FFF758FFEA7C68212046FFF753FF2A7D6E
:1061A00069212046FFF74EFF6A7D6A212046FFF7EE
:1061B00049FF31462046BDE87040FFF754BF1FB588
:1061C00001220023CDE9002303AB8DF80C10806879
:1061D0001946FFF7D7FE9DF80C0005B05DF804FBEB
:1061E00070B504460E4680680121FFF74EFE054655
:1061F00010B90025284670BD00212046FFF7DFFFBB
:10620000A02813D100212046FFF72DFF20223F2197
:106210002046FFF717FF1E2001F0CAFE002120468E
:10622000FFF7CDFFA0280CD00A20F5E74FF47A70D5
:1062300001F0BEFE00212046FFF7C1FFA028D8D103
:10624000E0E7322001F0B4FE00223E212046FFF7B5
:10625000F9FE0A2001F0ACFE002207212046FFF7DC
:10626000F1FE00223F212046FFF7ECFE0A2001F05C
:106270009FFE20463146FFF7F6FE142001F098FEFF
:10628000B8E7F8B50F4616460721002204461D461A
:10629000FFF7D8FE27B139212046FFF790FF38706D
:1062A00026B136212046FFF78AFF307025B13A210A
:1062B0002046FFF784FF2870BDE8F840C82001F0B1
:1062C00077BEF8B50E463521069F15461C46FFF7EA
:1062D00076FF0EB18309337015B1C0F301132B7033
:1062E00014B1C0F38103237017B100F003003870BC
:1062F000F8BD1FB504460DF10F0300930DF10D021B
:106300000DF10E0303A9FFF7DCFF237C013B092BF2
:1063100017D8DFE803F00522101E0C13160C1E1010
:106320009DF80E00C31E5842584104B010BD9DF8A0
:106330000E30032B14D19DF80D00F3E79DF80F30BC
:10634000F7E79DF80C30032B0AD19DF80D30032B95
:1063500006D19DF80E30032B02D19DF80F00E1E726
:106360000020E2E72DE9F04104460D46FFF7C1FFAA
:106370000646002800F091800021204694F8108005
:10638000FFF771FE192001F013FE56212046FFF79A
:1063900016FF552107462046FFF711FF40EA072068
:1063A000288058212046FFF70AFF5721074620463C
:1063B000FFF705FF40EA072068805A212046FFF7D3
:1063C000FEFE592107462046FFF7F9FE40EA072066
:1063D000A8805C212046FFF7F2FE5B21074620469D
:1063E000FFF7EDFE40EA0720E8805E212046FFF738
:1063F000E6FE5D2107462046FFF7E1FE40EA072062
:10640000288160212046FFF7DAFE5F2107462046FB
:10641000FFF7D5FE40EA0720688162212046FFF79A
:10642000CEFE612107462046FFF7C9FE40EA07205D
:10643000A88164212046FFF7C2FE6321074620465B
:10644000FFF7BDFE40EA0720E88166212046FFF7FE
:10645000B6FE652107462046FFF7B1FE40EA072059
:10646000288268212046FFF7AAFE672107462046BA
:10647000FFF7A5FE40EA072068826A212046FFF761
:106480009EFE692107462046FFF799FE40EA072055
:10649000A88241462046FFF7E6FD3046BDE8F08180
:1064A0001FB58DF80C100021CDE90031134603A96A
:1064B00001228068FFF766FD05B05DF804FB00006F
:1064C00000B52DED068B002393B008AACDE9083363
:1064D00020210823FFF7E4FF9DF823309DF82200D8
:1064E00040EA032000B203F0FFFC0022214B03F03E
:1064F00065FD9DF8253041EC1A0B9DF8240040EA1B
:10650000032000B203F0F0FC00221A4B03F056FD0A
:106510009DF8273041EC190B9DF8260040EA032036
:1065200000B203F0E1FC0022124B03F047FD9DF89E
:10653000213041EC180B9DF8200040EA032000B206
:1065400003F0D2FC0B4B002203F038FDB0EE4A1AE8
:10655000F0EE6A1AB0EE492AF0EE692A41EC100B0F
:10656000B0EE483AF0EE683A13B0BDEC068B5DF839
:1065700004FB00BF0000103FF7B50D461646002192
:106580001822044604F038FB00230093ADF80430D1
:10659000284606236A463146FFF782FF9DF8013000
:1065A0009DF800009DF802709DF8045040EA032019
:1065B0009DF8033047EA03279DF805301A2E45EA77
:1065C000032500B23FB22DB20DD008D80E2E0AD04E
:1065D000142E08D0082E21D0204603B0F0BD282E5E
:1065E0001CD02E2EF7E703F07FFC194B002203F09E
:1065F000E5FCC4E90001384603F076FC144B0022A8
:1066000003F0DCFCC4E90201284603F06DFC104BEA
:10661000002203F0D3FCC4E90401DDE703F064FCCD
:106620000C4B002203F0F4FDC4E90001384603F0EE
:106630005BFC084B002203F0EBFDC4E90201284695
:1066400003F052FC034B002203F0E2FDE3E700BF3E
:106650000000B03F0000594030B50C4687B00546F9
:1066600020220021201D04F0C7FA24232360EB68B8
:1066700063600323A36000F0C9FF1A22206129464A
:106680006846FFF779FFDDE9000103F08FFF6061E5
:10669000DDE9020103F08AFFA061DDE9040103F0F6
:1066A00085FFE061012007B030BD0029F0B566DB51
:1066B000B0F90C408C4262DD002A60DBB0F90E407C
:1066C00094425CDD847E022C5AD0032C61D0012CD4
:1066D00004D10489D24314440A4621B2B0F93840A7
:1066E0008C42A8BF0C460487B0F93A409442A8BF38
:1066F00014464487B0F93C408C42B8BF0C468487AE
:10670000B0F93E409442B8BF1446C48790F84C405C
:10671000012C16D1012B42D0022B51D08BB9002A6B
:106720000589476B1446B8BFD41DE41014FB05144B
:1067300002F00706012505FA06F63D5D25EA060585
:106740003D5590F84C40042C19D1048914FB02F2F9
:1067500002EBD27401EBD17242F34F0202EB6402FE
:10676000446BA05CC9074BBF03F00F0300F00F00A0
:1067700020F00F0040EA031348BF0343A354F0BDC9
:106780000489C94321444489D243224409B212B244
:10679000A4E74489C9430C44114622B29EE7002A6B
:1067A0000589466B1446B8BFD41DE41014FB0514CC
:1067B00002F007070125BD40375D3D433555C0E771
:1067C000002A0589466B1446B8BFD41DE41014FB9B
:1067D000051402F007070125BD40375D7D40EDE758
:1067E00038B50D46114604461AB209B200F096FAC1
:1067F000069A0B4BE262079A23600023C4E909332F
:10680000C4E90C234FF0FF33C4E910339DF9143071
:10681000A364049B84F84C502365204638BD00BF18
:106820007CB40D0038B50C4B03600446406B18B1C6
:1068300001F0F0F800236363656A35B12846FFF77D
:10684000DBF93821284602F05BF8A06A10B110216C
:1068500002F056F8204638BD7CB40D0030B587B044
:10686000856A8DF80F1004467DB10023CAB2CDE9C8
:1068700000338DF814308DF815200123022205A96C
:106880002846FFF711FB07B030BD2946B0F840009D
:1068900001F09FFF606A00952B4601220DF10F0168
:1068A000FFF7A5FAEFE7002914BFA721A621FFF7FC
:1068B000D5BFF0B5856A85B004460E46174665B16A
:1068C00000230DF10F008DF80F300123009001938C
:1068D0002846FFF7E9FA05B0F0BD2946B0F84000B8
:1068E00001F077FF606A00952B463A463146FFF784
:1068F0007EFAF0E710B5B0F90A10038990F84C2041
:1069000012FB03F2CB1D48BF01F10E03DB1004465E
:106910005A43406B002104F06FF90023A3632389DD
:10692000013BA3876389013BE38710BD70B5436BCF
:1069300004460E4615460BB3002D33D1236D002BB4
:1069400050D01020FDF7A7FB054618B1226D314647
:10695000FFF77FFAA5621DB301212846FFF795FADC
:10696000F0B12046FFF7C6FF0023A3632389013B54
:10697000A3876389013BE387012012E02389B4F9EF
:106980000A2090F84C0010FB03F0D31D48BF02F121
:106990000E03DB10584301F035F860630028CBD1BB
:1069A000002070BDA06C0028C8DB012180B201F07E
:1069B000FFFEB4F84800012101F00BFF0A2001F0AE
:1069C000F7FAB4F84800002101F003FF0A2001F0B3
:1069D000EFFAB4F84800012101F0FBFE0A2001F0B3
:1069E000E7FAABE7606A0028DAD0FFF70EF9002873
:1069F000D6D0B4F84000012101F0DAFEB1E707B5C6
:106A000081238DF80510022201A98DF80430FFF7CB
:106A100050FF03B05DF804FB2DE9F04F85B01F4631
:106A2000BDF93880BDF83C30A8EB0209A7EB010A9C
:106A3000B9F1000FB8BFC9F10009BAF1000FB8BF32
:106A4000CAF1000AD14583460C46154604DD3A4694
:106A50002C4647460D469046BC4205DD2A46454633
:106A6000904622463C4617463E1BB2B20092A8EB27
:106A70000502002AB8BF52420192C6F3C03202FAA0
:106A800086F64545B4BF01224FF0FF3276100292E0
:106A9000BC421CDCDBF800200393D145D2F81880FF
:106AA000C7BF294622462A4621465846C047019A72
:106AB000039BB61AB1B236B2002E05DA029A15441B
:106AC000009A56182DB236B2013424B2E0E705B070
:106AD000BDE8F08F704710B404682469A4465DF8DF
:106AE000044B604730B40468BDF808500295A46BAD
:106AF000A44630BC604730B40468BDF80850029525
:106B0000E46BA44630BC604770B4BDF90C50BDF8CE
:106B100010600468CDE90356246CA44670BC60473D
:106B20002DE9F3411C460368BDF820805B690546EA
:106B30001646013C34440F4624B298472B68CDF8E2
:106B4000048000949C6A28463B4632463946A0475A
:106B50002B68DB6A284602B0BDE8F04118472DE9F2
:106B6000F3411D460368BDF820805B690446174663
:106B70000E469847CDE9007822686B1E3344956A2B
:106B800020461BB23A463146A8472368DB6A2046B6
:106B900002B0BDE8F04118472DE9F3471E460368EF
:106BA000BDF928905B69BDF82C800C460546174658
:106BB00098472644B4422B680BDACDF80080D3F80E
:106BC00020A021464B463A4628460134D04724B2FD
:106BD000F0E7DB6A284602B0BDE8F047184713B576
:106BE00002680191B0F90E100091146CB0F90C30EC
:106BF00000221146A04702B010BD2DE9F3471D4603
:106C00000368BDF82C805B69BDF9289004460F46E7
:106C1000164698472368CDF80080D3F824A0324662
:106C20002B4639462046D0472368CDF8008009F12D
:106C3000FF323244D3F824A039462B46204612B204
:106C4000D0472368CDF80080D3F820A032464B46C9
:106C500039462046D0476B1ED9192368CDF80080ED
:106C60001D6A20464B46324609B2A8472368DB6AB4
:106C7000204602B0BDE8F047184770472DE9F743BA
:106C800099421646BDF92870BDF82C9002688046DE
:106C90000D461C4613D1BE42C8BF3346CDF82890DE
:106CA000C4BF3E461F467B1C946B9B1B1BB23246E7
:106CB00029464046A44603B0BDE8F0436047BE42C3
:106CC0000AD19942C2BF0B4625461C46631CCDF82B
:106CD0002890D46B5B1BE9E753699847CDE90079AD
:106CE000D8F8003040469F6A324623462946B847C6
:106CF000D8F80030DB6A404603B0BDE8F0431847DF
:106D000001F00303B0F90A208376C907B0F908300F
:106D100059BF8381C2818281C381704730B542816E
:106D2000C281074A074D0181002481814FF0FF3164
:106D3000C0E905124460056004610477046230BD57
:106D400001010001D8B90D002DE9F04F89B0CDE95E
:106D500002120268BDF948800493BDF94C305269B3
:106D60000593BDF850A00446904718F107024FF074
:106D7000000648BF08F10E024FEAE20B01963546C5
:106D8000039B019ABDF904109A18059B8B4212B21D
:106D900027DD049B33444FF0000906930FFA89F076
:106DA00080451FFA89F117DD4F0705BF069BC0100C
:106DB0006D001D5C18BFEDB22B060AD5029B206842
:106DC00007921944836909B21F4620465346B847C3
:106DD000079A09F10109E1E7019B013301935E4440
:106DE000CEE72368DB6A204609B0BDE8F04F1847BC
:106DF0002DE9F04F2DED028B91B01646026ABDF8D9
:106E000074809DF878509DF87C4003911F46BDF832
:106E1000703004938346002A40F0C580B0F90C30EE
:106E20008B4240F34C81B0F90E30B34240F34781BE
:106E3000062313FB0513002B40F3418106EBC4032B
:106E4000002B40F33C81037F1BB9AF2F84BF013778
:106E5000FFB2DBF8003058465B699847052209927B
:106E600000220592984A07EB8703D3180C93B3B21C
:106E70000693059A0C9B9B5C0793ABB20B93BDF8F2
:106E80000C300893039B02FB05F919FA83F90FFAFA
:106E900089F308EE103A08230A93039B02EB030AD6
:106EA0004FF000090FFA8AFA079ADBF80030D20790
:106EB00052D5012D1FFA89F23ED1012C3CD19B699C
:106EC00006991F46049B0A4412B251465846B847D9
:106ED00009F101034FFA83F9079B5B0807930A9BAB
:106EE000013B13F0FF030A93DED1059F01377BB20C
:106EF0000593099B013B13F0FF030993B9D1049B50
:106F000043450FD0012DDBF800303BD1012C39D1A6
:106F10000899CDF8008005311C6A3246082309B271
:106F20005846A047DBF80030DB6A584611B0BDEC8C
:106F3000028BBDE8F04F1847069914FB02F20A4491
:106F4000049901910094DB6918EE101A1F4612B2E1
:106F50002B465846B847BBE7049A4245B8D0012DA6
:106F60001FFA89F207D1012C05D19B6906991F46AA
:106F70000A444346A8E70699CDF8048014FB02F2C0
:106F80000A44DFE70B9ACDF8048002EB8201089AED
:106F9000E4000A4411460094DC6932462B4609B2EB
:106FA0005846A047BEE7137A516812680D92FF1A3F
:106FB000FFB201EBC70331F8372006929A780992A5
:106FC000DA780B92012D93F9052093F906A00A9225
:106FD00001D8012C57D9BDF9283008930FFA8AF34C
:106FE0000793DBF8003058465B699847B3B24FF01F
:106FF00000080E931AFA86F3C14647460F930B9B7F
:107000009F428FD2079B0E9A3B4403FB042300222E
:1070100005920F9A1BB202EB070A08EE103A0FFA1C
:107020008AFA4346099A0599914241D25A1CD2B232
:107030005B070C9207D1069B06990D9A01339BB210
:1070400012F80190069319F0800F12D0012DDBF891
:107050000030BDF80C101AD1012C18D10A9A9B6986
:107060001144059A11441E465246049B09B25846E3
:10707000B047059E0136F3B24FEA490905935FFA1E
:1070800089F90C9BCEE70023CDE90733A9E70598E2
:10709000089A024402FB0511049ACDE90042DB691B
:1070A00018EE102A1E4609B22B465846B047E0E7B4
:1070B000099B013798445FFA88F8FFB29FE711B047
:1070C000BDEC028BBDE8F08FD0B40D00F0B5026AC4
:1070D00085B004460B46002A34D10A2908D1438AD8
:1070E0000282427E03EBC2036382012005B0F0BD41
:1070F0000D29FAD0E17E007E657E71B1B4F9106091
:10710000062111FB0061B4F90C60B142C1BFB4F9B2
:107110001210228201EBC5026282E28A0192A28AE7
:107120000092CDE90205B4F91220B4F910102046FE
:10713000FFF75EFE237E228A03EB430302EB430349
:107140002382D2E70A2907D100230382137B417EE1
:10715000428A01FB0323C7E70D29C6D0157AA9424D
:10716000C3D3917A9942C0D351685D1BEDB201EB54
:10717000C505AF782FB3E97819B3E17E007E667E4E
:1071800091B195F905103944B4F9107000FB017103
:10719000B4F90C70B94207DD00272782B4F9121048
:1071A000127B02FB06126282E28A0192A28A00929C
:1071B000CDE90206B4F91220B4F910102046FFF709
:1071C00017FE2979237E228A01FB0323B8E70129D0
:1071D00038BF01210176417670472DE9F04F044612
:1071E0008BB000F033FAB4F90A30B4F93A50B4F97C
:1071F000087094F83890DA1D48BF03F10E0240235E
:107200008DF82330C2F3C7030393A36ADB68013B05
:107210009BB20493B4F93C30FFB2002DB8BF0735E0
:1072200023EAE373B94507F10102C5F3C70528BF97
:10723000B94652FA83F305FB079A06934FF0000B09
:10724000039B9D426BD2636B267A94F8542003EB28
:107250000A08069B4A449E1BA36A1111A6EB090665
:10726000A5F15000F6B2C0B2103102F00F02002BAF
:1072700035D08DF825008DF826101846E16A8DF876
:1072800027208DF824B0FEF794FE0123CDE900BB42
:10729000A06A042209A9FEF707FE9DF810300593A5
:1072A000A06AAEB1059BB34228BF33461A460123FC
:1072B00001930DF123030093414601230792FEF74A
:1072C000F3FD079AB61A9044F6B200F0BFF9E7E76B
:1072D000216BFEF76EFE0135EDB2BA44B0E78DF8D2
:1072E00024008DF82510B4F840008DF826201946AA
:1072F000059301F06EFA059B0093032209A9606AC9
:10730000FEF775FDB4F84000012101F062FA059B1B
:10731000606A009332464146FEF769FDDBE74FF0B5
:1073200004224FF0FF33C4E90E230BB0BDE8F08F09
:1073300030B585B004460A9D0395099D02959DF9D7
:107340002050CDE9003513460A460121FFF748FADF
:10735000034B23602046002384F8543005B030BD31
:1073600030BA0D0010B5034B03600446FFF75AFA1C
:10737000204610BD30BA0D0010B5034B0360044623
:10738000FFF7F0FF204610BD6CBC0D0010B50446A1
:10739000FFF7F2FF2046582101F0B2FA204610BD57
:1073A00030B585B004460A9D0295099D01959DF969
:1073B00020500095FFF7BCFF024B2360204605B02C
:1073C00030BD00BF6CBC0D0030B5044685B0FFF782
:1073D000ADFA2F212046FFF712FBA2682F4B9A42ED
:1073E00021D1236801211B6B20469847B4F908205E
:1073F000B4F90A102023203A73390125CDE901356B
:1074000002EBD272732301EBD171009341F34F0170
:10741000234B204642F34F02FFF796FC23680021DE
:107420001B6B20469847A368B3F1801F17D1B4F9AE
:107430000820B4F90A1020230120203A7339CDE93D
:10744000013002EBD272732301EBD171009342F34E
:107450004F02134B41F34F012046FFF775FC1149D2
:1074600016222046FFF725FA054618B900252846BA
:1074700005B030BDA368B3F1801F07D0642000F0D1
:1074800097FDAF212046FFF7E9F9F0E7064904220E
:107490002046FFF70EFA0028F0D1E7E74000800011
:1074A00084BA0D00C4BC0D00C0BC0D0000220260F7
:1074B0000271704773B5054610200E460192FCF725
:1074C000EAFD044618B1019A3146FEF7C2FC0121DB
:1074D00020462C602E7102B0BDE87040FEF7D5BC8E
:1074E00030B5002385B0CDE9003349BA0546ADF883
:1074F0000C108DF80E2000680123032203A9FEF76B
:10750000D3FC60B16524013C14F0FF0407D0286867
:10751000FEF7A6FC20B9012000F04AFDF3E70020A9
:1075200005B030BD1FB501230022CDE9003249BAB4
:1075300003ABADF80C10006802221946FEF722FDDD
:1075400008B19DF80C0005B05DF804FB08B5024BCE
:107550001B689B68019308BD6802030008B5024BD5
:107560001B68DB68019308BD6802030008B5024B85
:107570001B685B68019308BD2C02030008B5024B31
:107580001B689B68019308BD2C02030008B5024BE1
:107590001B68DB68019308BD2C02030008B5024B91
:1075A0001B681B69019308BD2C02030008B5024B40
:1075B0001B685B69019308BD2C02030008B5024BF0
:1075C0001B689B69019308BD2C02030008B5024BA0
:1075D0001B68DB69019308BD2C02030008B5024B50
:1075E0001B681B6B019308BD2C02030008B5024BFE
:1075F0001B685B68019308BD1802030008B5024BC5
:107600001B68DB68019308BD1802030008B5024B34
:107610001B685B69019308BD1802030008B5024BA3
:107620001B689B6A019308BD1802030008B5024B52
:107630001B685B6C019308BD1802030008B5024B80
:107640001B689B6C019308BD1802030008B5024B30
:107650001B68DB68019308BD4802030008B5024BB4
:107660001B685B6C019308BD4802030008B5024B20
:107670001B685B69019308BD6402030008B5024BF7
:107680001B681B68019308BD3C02030008B5024B50
:107690001B68DB68019308BD3C02030008B5024B80
:1076A0001B681B69019308BD3C02030008B5024B2F
:1076B0001B685B69019308BD3C02030008B5024BDF
:1076C0001B689B69019308BD3C02030008B5024B8F
:1076D0001B68DB69019308BD3C02030008B5024B3F
:1076E0001B681B6A019308BD3C02030008B5024BEE
:1076F0001B689B6A019308BD3C02030008B5024B5E
:107700001B681B68019308BD2802030008B5024BE3
:107710001B68DB68019308BD2802030008B5024B13
:107720001B689B69019308BD2802030008B5024B42
:107730001B68DB69019308BD2802030008B5024BF2
:107740001B681B6A019308BD2802030008B5024BA1
:107750001B685B6A019308BD2802030008B5024B51
:107760001B689B6A019308BD2802030008B5024B01
:107770001B68DB6A019308BD2802030008B5024BB1
:107780001B681B6B019308BD2802030008B5024B60
:107790001B685B6B019308BD2802030008B5024B10
:1077A0001B681B6C019308BD2802030008B5024B3F
:1077B0001B681B6D019308BD2802030008B5024B2E
:1077C0001B681B68019308BD3002030008B5024B1B
:1077D0001B685B69019308BD3002030008B5024BCA
:1077E0001B68DB69019308BD3002030008B5024B3A
:1077F0001B681B6A019308BD3002030008B5024BE9
:107800001B685B6A019308BD3002030008B5024B98
:107810001B689B6A019308BD3002030008B5024B48
:107820001B689B6B019308BD3002030008B5024B37
:107830001B68DB6B019308BD3002030008B5024BE7
:107840001B681B6C019308BD3002030008B5024B96
:107850001B685B6C019308BD3002030008B5024B46
:107860001B681B68019308BD4C02030008B5024B5E
:107870001B685B68019308BD4C02030008B5024B0E
:107880001B681B69019308BD4C02030008B5024B3D
:107890001B685B69019308BD4C02030008B5024BED
:1078A0001B689B69019308BD4C02030008B5024B9D
:1078B0001B68DB69019308BD4C02030008B5024B4D
:1078C0001B681B6A019308BD4C02030008B5024BFC
:1078D0001B685B6A019308BD4C02030008B5024BAC
:1078E0001B685B6B019308BD6002030008B5024B87
:1078F0001B685B68019308BD2002030008B5024BBA
:107900001B685B69019308BD2002030008B5034BA7
:107910001B68D3F88830019308BD000020020300E3
:1079200008B5034B1B68D3F89430019308BD0000E1
:107930002002030008B5024B1B685B68019308BD79
:107940004002030008B5024B1B689B68019308BD09
:107950004002030008B5024B1B68DB68019308BDB9
:107960004002030008B5024B1B681B69019308BD68
:107970004002030008B5024B1B685B69019308BD18
:107980004002030008B5024B1B689B69019308BDC8
:107990004002030008B5024B1B68DB69019308BD78
:1079A0004002030008B5024B1B681B6A019308BD27
:1079B0004002030008B5024B1B681B6B019308BD16
:1079C0004002030008B5024B1B685B6B019308BDC6
:1079D0004002030008B5024B1B681B6C019308BDF5
:1079E0004002030008B5024B1B685B6C019308BDA5
:1079F0004002030008B5024B1B68DB6B019308BD16
:107A00004402030008B5024B1B681B68019308BDC4
:107A10001C02030008B5024B1B685B68019308BD9C
:107A20001C02030008B5024B1B685B6A019308BD8A
:107A30001C02030008B5024B1B68DB6B019308BDF9
:107A40001C02030008B5024B1B685B6C019308BD68
:107A50001C020300002240681146FFF7A3BF00226A
:107A600040681146FFF7AEBF40680022FFF7A2BF93
:107A70004068002281F00101FFF78CBF00234068BD
:107A80001A461946FFF77EBF002340681A4619467A
:107A9000FFF770BF002240681146FFF763BF002266
:107AA00040681146FFF74EBF406800220221FFF7F1
:107AB00051BF002340681A46FFF73CBF024B032228
:107AC0005A60024A1A60704784E50320E4BC0D0046
:107AD0000021FFF7B3BE0021FFF7B8BE10B5044682
:107AE00008462170FFF77AFE00236360204610BD30
:107AF00010B504460078FFF7EBFF48B920784FF641
:107B0000FF71FFF75BFE2078BDE81040FFF7E3BF91
:107B100010BD0078FFF7DFBF400830B518600024C3
:107B200018688842E5B206D90134082C02D0400812
:107B30001860F5E70725024B5B5D137030BD00BF91
:107B400018BD0D002DE9F04306468FB000780C46B5
:107B5000FFF7BEFF00281BDB35781422002109A89F
:107B600003F04AF80B23002209A92846ADF8243077
:107B7000FFF744FE9DF82D3013B19DF82C5055B100
:107B80000027B946B846012523795DB1C3B100206D
:107B90000FB0BDE8F083DDF830809DF834909DF89B
:107BA0003570F1E7002B35D1A368434508D18DF836
:107BB00020908DF82170BDF82020A3899A42E6D04C
:107BC0000023A1688DF80F300A9804AB0DF10F0265
:107BD000FFF7A2FF217985B989B9A36843450ED380
:107BE0008DF820908DF82170BDF82020A3899A424D
:107BF00005D1049B434502D1C9E70029F9D10023EF
:107C00000193637B00939DF80F20237B3078FFF76F
:107C10000DFEBCE7CDE900552B462A460121F5E7CC
:107C200008B50078FFF7D2FDC0B208BD30B587B007
:107C300004460A9D00950078FFF7E8FD3DB92078DD
:107C400002A9FFF7EBFD9DF81430DB07F7D407B06E
:107C500030BD0000054B02221A60054B054A9A60B0
:107C60000020186098809871FFF740BE98E50320C7
:107C70008CE503200000FFFF024800230360FFF7AC
:107C8000EDBC00BF9CE50320F8B506460D468F18F5
:107C90000024BD420CD0336815F8011B9B683046A8
:107CA0009847031E01DB1C44F3E7002C08BF1C4669
:107CB0002046F8BD13B50446084659B1019102F0BB
:107CC000C7FF23680199DB680246204602B0BDE881
:107CD0001040184702B010BD08B5FFF7EBFF08BD14
:107CE00003689B68184708B5FFF7E4FF08BD38B57F
:107CF0000D210546FFF7F4FF0A2104462846FFF749
:107D0000EFFF204438BD38B50546FFF7D3FF0446E2
:107D10002846FFF7ECFF204438BDFFF7F4BF30B52D
:107D20008BB000238DF82430012A98BF0A2209ACB9
:107D30000D46B1FBF2F101FB125303F0FF03092BD7
:107D400094BF30333733DBB2AA4204F8013DEFD998
:107D50002146FFF7AFFF0BB030BD00002DE9F74F14
:107D600055EC104B06460F4610EE102A10EE100A86
:107D70002B46294602F0BCFB40B153493046FFF781
:107D800099FF8246504603B0BDE8F08F25F00049C8
:107D90004E4B4FF0FF322046494602F0A9FB48B94E
:107DA0004A4B4FF0FF322046494602F083FB08B9A8
:107DB0004749E3E7474B4FF060422046294602F02F
:107DC0008DFB08B14449D9E7444B4FF0604220464F
:107DD000294602F065FB0028F4D10022002320464A
:107DE000294602F05DFBD0B12D213046FFF778FF28
:107DF00005F1004382461D463949DFF8EC904FF00B
:107E0000000B00204FF000085FFA8BF39F4208D967
:107E100042464B4602F0FCF90BF1010BF4E78246B7
:107E2000EAE722462B4601F013FF0D46044602F016
:107E30009DFB804602F048F802460B462046294644
:107E400001F004FF0A2204460D4630464146FFF782
:107E500066FF824427B123493046FFF72BFF824457
:107E6000DFF884904FF00008013FFFB2FF2F89D068
:107E700042464B462046294602F0A0F804460D46ED
:107E800002F04CFBB0F1000B1ADA2D213046FFF75F
:107E900027FFCBF1000103460A2230460193FFF78A
:107EA0003EFF019B18448244584602F01DF80246EA
:107EB0000B462046294601F0C9FE04460D46D3E78D
:107EC00059460023E8E700BF20BD0D00FFFFEF7F0C
:107ED00024BD0D00FFFFEF4128BD0D00FFFFEFC1E6
:107EE0000000E03F01B30D000000244038B5044617
:107EF00010EE100ACDB202F009F841EC100B294641
:107F00002046BDE83840FFF729BFC9B2FFF726BFBA
:107F10002DE9F04186B000AF05460E46381D14210C
:107F200014463B60FFF77EFD13280ED8391D284606
:107F3000FFF7C0FE04461EB12846FFF7D8FE0444F2
:107F400020461837BD46BDE8F08100F1080323F054
:107F50000703E846ADEB030D2246411C3B6868462B
:107F6000FFF760FD69462846FFF7A4FE0446C546B4
:107F7000E1E70000014B024A1A607047A0E50320C8
:107F80002CBD0D00024B1A68024B1A60704700BFEF
:107F900028E40320A4E503208A4210B507D0029C00
:107FA000401AE41A6043521A90FBF2F0184410BDD4
:107FB0000021FFF7A3BC0000014B00229A6070472C
:107FC000A8E50320014B1860704700BF30E4032090
:107FD00008B50B4B43B100F067F903681B6998477C
:107FE000002801DDAFF30080064B43B100F04EFAEC
:107FF00003681B699847002801DDAFF3008008BDC6
:10800000000000000000000008B5FFF7E1FFFFF7E7
:10801000FDFA014B186008BD30E703200548064A09
:10802000064908B5121A02F0D9FD054B054A1A6037
:1080300008BD00BF00F4032004F40320B8BE0D0007
:1080400000F403201E1C279A07B5002300931A464C
:108050006FF07701FFF764FC03B05DF804FB0000EC
:1080600007B543880A2B08D0502B0BD1094B1B684E
:108070004BB103B05DF804EB1847FFF7E5FF03B021
:108080005DF804FB002300931A466FF07701FFF7B9
:1080900047FCF4E7BCE5032010B512480021FFF7C8
:1080A000D1FC114B1A68114B9A42114B0CBF0122A3
:1080B00000221A7001D0FFF7B1FFFFF797FA0446CC
:1080C00002F0A2FD0B4B13B12046AFF3008000215C
:1080D0000848FFF78FFCBDE8104007480021FFF774
:1080E00015BC00BFC57F0D0000F403201E1C279A9D
:1080F000B8E503200000000061800D00704710B556
:108100001821044600F0FCFB204610BDF0B5037DAD
:10811000062B8DB00E4600F104074FF0000412D07C
:1081200000F1080515F8011D0A223046FFF7F7FD9A
:10813000AF42044419D0002CF4D02E213046FFF772
:10814000CFFD0444EEE72F236A4639460A208DF816
:108150000040FFF78BFA684602F07AFD336802466A
:10816000DB68694630469847044620460DB0F0BDAE
:1081700010B5054B0446112240F8043B002102F0E3
:108180003BFD204610BD00BF54BD0D000346074A0D
:1081900010B543F8042B01F1100251F8044B43F8D9
:1081A000044B9142F9D10A781A7010BD54BD0D00EC
:1081B00010B59DF8084044EA032343EA024242EA2C
:1081C000016104234160037510BD13B5CB780093A2
:1081D0008B784A780978FFF7EBFF02B010BD417445
:1081E00070477047704708B50021007CFFF756FBC9
:1081F00040EAE07008BD08B50121007CFFF74EFBA6
:1082000040EAE07008BD08B5007CFFF73FFB20EABC
:10821000E07008BD08B5007CFFF730FB20EAE07095
:1082200008BD13B50446007C0191FFF72FFB002821
:10823000019901DC607C20B1207CFFF737FB20EA4C
:10824000E07002B010BD007CFFF738BB10B5142100
:10825000044600F055FB204610BD000010B54FF459
:108260007A73044608460021C4E90113044B2360D5
:108270000123207463741146FFF7F0FA204610BD05
:1082800068BD0D00007C0022FFF7F0BA007CFFF70C
:108290001DBBFFF7FBBF10B514220446002102F0FE
:1082A000ABFC204610BD000010B50F4C88B003A8F1
:1082B000FFF7F1FF2178BFF35B8F11F001010FD1C0
:1082C00020460191FBF7F8FE019948B103AA07483F
:1082D000FFF7C4FF2046FBF7F4FE054802F078FCE8
:1082E000024808B010BD00BFC0E50320C4E503206C
:1082F000E3810D00004700002DE9FF4100241D46E9
:108300000F4690460646FFF761F9A5424FF0040379
:10831000ADF80D408DF80C308DF80F40A2BF9DF8E0
:1083200028308DF80E3003AC0749009443463A4696
:108330003046A8BF8DF80D50FFF740F9B0FA80F035
:10834000400904B0BDE8F081F5820D0000224068CC
:108350001146FFF707BB002240681146FFF722BB1A
:10836000002240681146FFF72DBB40680022FFF74E
:1083700021BB4068002281F00101FFF70BBB002305
:1083800040681A461946FFF7FDBA002340681A46AE
:108390001946FFF7EFBA002240681146FFF7D2BA3C
:1083A000406800220221FFF7D5BA002340681A4630
:1083B000FFF7C0BA084B10B5282422461846002102
:1083C00002F01AFC054B04804FF0FF324260042299
:1083D0005A60034A1A6010BDE0E50320D8E5032087
:1083E00098BD0D00704741747047704708B5007C18
:1083F000FFF77CF920EAE07008BD08B5007CFFF7C4
:108400004DF920EAE07008BD08B5007CFFF756F989
:1084100040EAE07008BD08B5007CFFF747F940EA84
:10842000E07008BD007CFFF751B937B5457C0446C4
:108430002DB1207C03B0BDE83040FFF727B9007CA8
:108440000191FFF753F900280199F2DC284603B0A7
:1084500030BD10B51421044600F052FA204610BD7C
:1084600010B54FF0000C0446084611464FF47A72DE
:10847000C4E901C2044A22600122207462741A46CF
:10848000FFF7FCF8204610BDD4BD0D0013B50D4C10
:108490002178BFF35B8F11F0010110D120460191CB
:1084A000FBF70AFE019950B1074B084A0848FFF74D
:1084B000D7FF2046FBF705FE064802F089FB04487B
:1084C00002B010BD08E6032090E603200CE603206E
:1084D00014E70320EB830D007047F8B506461546F8
:1084E0000C468F18BC4206D0336814F8011B9B68F9
:1084F00030469847F6E72846F8BD007C0022FFF793
:108500001DB9007C0021FFF721B9007C0021FFF795
:1085100025B9007C0021FFF729B9007C0021FFF775
:108520002DB910B51421044600F0EAF9204610BD1B
:1085300010B54FF47A73044608460021C4E90113CC
:10854000034B236020741146FFF728F9204610BD25
:1085500004BE0D00007C0022FFF7D0B80023007C91
:108560001A461946FFF7D2B87FB500221423CDE989
:108570000122ADF804300B788DF808304B68039376
:10858000CB680493007C0B7A059301A9FFF70EF9E1
:1085900007B05DF804FB1FB5003B8DF800104FF0ED
:1085A0006401039118BF0123694601928DF80830D8
:1085B000FFF7DAFF05B05DF804FB0123FFF7EBBF1F
:1085C000007C0022FFF7AAB8007C0022FFF7AEB8BB
:1085D0000121FFF7F9BF002340681A46FFF7AAB947
:1085E000406800220221FFF7B5B900224068114619
:1085F000FFF7A8B9002240681146FFF7B3B900237E
:1086000040681A461946FFF7B5B9002340681A4674
:108610001946FFF7B7B940680021FFF7DBB940689A
:108620000021FFF7DFB94068002281F00101FFF768
:10863000B1B940680022FFF7BDB900224068114679
:10864000FFF7C0B9002240681146FFF7ABB92DE92A
:10865000F043002495B016460D460746FFF788FD07
:10866000214618220EA8009402F0C6FA4023CDE954
:108670000C3421466B460CAA3046FEF76FFF0446C9
:10868000002846D1024601216868FFF76BF90221F4
:10869000804622466868FFF765F9009E81462146BC
:1086A000002E36D0002934D17368022B03D00A2B58
:1086B0000BD0F669F4E7B8F1000F04D071693846C1
:1086C0000431FFF782FD4146F3E7B9F1000F01D114
:1086D0004946EEE77469102201A802F08DFA0623DC
:1086E0008DF8143001AD04F1080318341868596886
:1086F0002A4603C20833A3421546F7D101A906A8AA
:1087000007ADFFF743FD0FCD3C1D0FC42B68237051
:10871000DEE70098FEF71AFF384615B0BDE8F08393
:10872000024B034A1A6000225A60704728E7032070
:108730002CBE0D00232813B502D9002002B010BDB5
:10874000A0F10B03022B1AD8174C2178BFF35B8FD3
:1087500011F001010BD120460191FBF7ADFC01990D
:1087600028B11248FFF7BAF92046FBF7AAFC0F4BD5
:108770001878FFF73BF80028DFD10120DEE7012859
:1087800009D800F099F80021007CFEF7FFFF80F087
:108790000100C0B2D2E709380128EED8FFF776FE13
:1087A000007CFEF79BFFF2E778E503207CE50320E1
:1087B000232838B504460D460AD8FF2908D0FFF70C
:1087C000B9FF28B129462046BDE83840FEF7D6BE9D
:1087D00038BD38B504460D46FEF7D8FEFF2810D048
:1087E000062804D84D2323FA00F0C30709D42046F5
:1087F000FFF7A0FF28B129462046BDE83840FEF724
:10880000CDBE38BD10B50446FEF7C0FE031FDBB277
:10881000012B08D92046FFF78DFF20B12046BDE887
:108820001040FEF7C3BE002010BD0D2810B5044651
:108830009CBF0E34A4B22046FFF77CFF50B1032149
:108840002046FEF793FE032804D12046BDE81040E1
:10885000FEF7C4BE002010BD10B5084C2378BFF34E
:108860005B8FDB0708D42046FBF726FC20B1FEF720
:10887000D5FE2046FBF725FC014810BD34E7032058
:1088800038E703207047000038B5002320254380D7
:10889000142304460380856005610649284600F0DC
:1088A00031F804496060284600F02CF8E06020466A
:1088B00038BD00BF60BE0D0030B50E4D2978BFF346
:1088C0005B8F11F0010487B011D12846FBF7F4FB50
:1088D00068B101A8FFF7D8FF01AA21460648FFF7B3
:1088E00027FE2846FBF7EDFB044802F071F9024829
:1088F00007B030BD3CE7032040E7032085880D002A
:10890000FBF7CDBBFBF7C9BB2DE9F04F2DED028B7B
:108910008DB057EC106B55EC114B00F0ADF9AE4B30
:10892000B0EE408AF0EE608A93F90090B9F1FF3F13
:1089300037D022462B462046294601F0D9FD8346F2
:1089400078BB32463B463046394601F0D1FD804681
:10895000002840F093804FF0000A4FF0000B3046A3
:10896000394652465B4601F091FD18B352465B46CC
:108970002046294601F08AFD0090002857D0974BE9
:10898000CDF828800122CDE90467CDE90645CDE97F
:1089900008AB02920393B9F1000F00F089809FEDBC
:1089A0008A8BB0EE480AF0EE680A0DB0BDEC028B7F
:1089B000BDE8F08FB0EE480AF0EE680A01F004F866
:1089C0008046002800F082804FF000084FF0000938
:1089D00051EC180B42464B4601F058FD0028E0D000
:1089E00047EC106B00F0F0FF0028DAD045EC104B9C
:1089F00000F0EAFF0028D4D0774B784A93F9003092
:108A0000039204210022022BCDE90467CDE906453B
:108A1000CDE9088902910A9204D002A800F0E0FF93
:108A200000284AD1FFF706F82223036045E045EC11
:108A3000104B00F0C9FF0028B3D052465B462046D9
:108A4000294601F02DFD0028ABD0634B0099634A05
:108A500093F900300A910121CDE90467CDE906457B
:108A6000CDE90212002B6FD1CDE908AB02A800F0CE
:108A7000B7FF00286ED00A9B2BB320E00022002312
:108A80002046294601F002FD00288AD09FED4E8B3A
:108A9000524BCDF828B00122B9F1020FCDE904679D
:108AA000CDE906458DED088B029203933FF479AF33
:108AB00002A800F095FF002851D00A9B1BB1FEF7D9
:108AC000B9FF0A9B03609DED088B6AE747EC106BCA
:108AD00000F07AFF00283FF477AF45EC104B00F030
:108AE00073FF00283FF470AF53EC182B18EE100AF8
:108AF000194601F0FDFC384B002840F0968093F9B0
:108B000000800A9003230293344B0393CDE904675A
:108B1000CDE90645B8F1000F26D1DFF8D0904FF02F
:108B2000604852465B4630463946CDE9088901F037
:108B3000B7FC48BB02A800F053FF00289BD1FEF70A
:108B400079FF2223036096E725490020022BCDE917
:108B500008018BD1FEF76EFF212303608BE7FEF740
:108B600069FF21230360A8E79FED197B52465B460E
:108B7000304639468DED087B01F092FC002837D154
:108B8000B8F1020FDBD0D5E7164B0022204629466C
:108B900001F014FA02460B4643EC102BCDE90023FA
:108BA00000F02AFFDDE9002351EC100B01F06EFC10
:108BB000002836D10C4B08494FF06042CDE908231C
:108BC00091F90080DCE700BF000000000000F03FEA
:108BD000000000000000F07F2CE4032064BE0D00C4
:108BE0000000F0FF0000E03FFFFFEFC7FFFFEF478F
:108BF0001C4B00222046294601F0E0F902460B46B4
:108C000043EC102BCDE9002300F0F6FEDDE9002354
:108C100051EC100B01F03AFC18B9134B0022CDE9CE
:108C20000823124B93F90080AAE793F90090104BA8
:108C3000CDF828800122CDE90467CDE90645CDE9CC
:108C40000223B9F1000F3FF40FAF52465B46504686
:108C5000594601F0DDFAB9F1020FCDE908013FF400
:108C600079AF03E70000E03F0000F0FF2CE40320B1
:108C700064BE0D00000000002DE9F04F57EC116BB1
:108C80002DED0A8B27F0004A5AEA060289B03DD042
:108C900055EC104B764925F00048884510EE102A17
:108CA000A9462CDC11EE103ABB463AD08A4526DCA8
:108CB0006F498A4521D0B9F1000F3DDB00210391B6
:108CC000002B55D16A4B9A4500F0A880694B9A4514
:108CD00000F0B680BBF1804F00F00185664B9B45EC
:108CE00046D1B9F1000F43DB45EC104B09B0BDECA8
:108CF0000A8BBDE8F04F00F099BD002BDBD008F1E6
:108D0000404808F5801858EA02030DD19FED547BC6
:108D10008DED007B9DED000B09B0BDEC0A8BBDE82D
:108D2000F08F0CB9C245C3DD544809B0BDEC0A8BC5
:108D3000BDE8F04F00F058BE51498A4500F38780E6
:108D4000A1F154718A450FDD4FEA2A51A1F2FF319A
:108D5000142940F3CE84C1F1340123FA01F000FA62
:108D600001F1994200F0208500210391002BADD044
:108D700045EC104B069200F01DFE069A8DED000B9F
:108D80005ABBB8F1000F04D03A4B29F040429A4246
:108D900023D1BBF1000F07DADDE9002335490020BC
:108DA00001F036FACDE90001B9F1000FB2DA039B08
:108DB00008F1404808F5801858EA030340F0BE84E3
:108DC000DDE900231046194600F040FF02460B463D
:108DD00001F01EFACDE900019CE7039A4FEAD9732E
:108DE000013B0693134335D0264B9A454EDD03F1E4
:108DF00004739A45244B40F3ED83984540F36B830D
:108E0000BBF1000F40F36B8317A3D3E90023104697
:108E1000194601F0D3F8CDE900017BE708F14043A2
:108E200003F5801313433FF471AF174B984540F39C
:108E30008883BBF1000FC0F25283CDE9006769E778
:108E4000BBF1000FC0F24184CDE9004562E7022189
:108E5000039135E722462B46B4E700BFAFF300800D
:108E6000000000000000F03F9C7500883CE4377E65
:108E70000000F07F0000F03F0000E03F68BE0D0002
:108E8000FFFF3F430000E041FFFFEF3FE44B09EAF3
:108E90000303002B40F01684DDE90001E14B0022C2
:108EA00001F08CF8CDE90001DDF804806FF03400AA
:108EB0004FEA2853DC49C8F31302A3F2FF3342F010
:108EC0007F5818188A42079048F4401840F3E98305
:108ED000D64B9A4240F33E849FEDBB7BB0EE47BA3F
:108EE000F0EE67BAB0EE47CAF0EE67CA9FEDB87B06
:108EF000013054EC173B0790A8F580184FF000099B
:108F0000DDE900AB44EC183B1A4650462346414687
:108F100000F09CFE53EC182B04460D46504641468B
:108F200000F096FE02460B460020C14901F070F9A0
:108F300045EC1A4B41EC190B51EC1A0B53EC192B65
:108F400001F03CF8C3464FEA680848F0005808F5BD
:108F5000002303EB09050A4600230146CDE9001270
:108F60000093DDE900890024CDE904122B46224656
:108F70004046494601F022F802460B4651EC1A0BD6
:108F800000F064FE41EC170B53EC182B20462946E9
:108F900055EC174B00F05AFE02460B465046594618
:108FA00000F054FE42464B4601F008F802460B46DC
:108FB0002046294600F04AFE53EC192B00F0FEFF34
:108FC000DDE904AB04460D4652465B465046594621
:108FD00000F0F4FF80A3D3E9002345EC1A4B0446CC
:108FE0000D4600F0EBFF7EA3D3E9002300F030FE36
:108FF00022462B4600F0E2FF7BA3D3E9002300F0DA
:1090000027FE22462B4600F0D9FF79A3D3E900239F
:1090100000F01EFE22462B4600F0D0FF76A3D3E9D7
:10902000002300F015FE22462B4600F0C7FF74A374
:10903000D3E9002300F00CFE22462B4604460D46E1
:109040001046194600F0BAFF02460B462046294654
:1090500000F0B4FF424604460D464B465046594682
:10906000CDE904AB00F0F4FD53EC1A2B00F0A6FFA1
:1090700022462B4600F0ECFD424604460D464B4688
:109080004046494600F09AFF45EC194B694B0022D7
:1090900082468B4600F0DCFD53EC192B00F0D8FD26
:1090A000009C0D4622462B464046494600F086FF6E
:1090B000604B8046894600222046294600F0C6FDC6
:1090C00052465B4600F0C2FD02460B4651EC190BBE
:1090D00000F0BCFDDDE9042300F070FF49EC188BC3
:1090E0002246804689462B4651EC1A0B00F066FF5B
:1090F00002460B464046494600F0AAFD82468B4692
:1091000052465B4651EC180B00F0A2FD009C3EA3BA
:10911000D3E9002320460D4600F050FF53EC182BF6
:10912000804689462046294600F090FD02460B46BF
:109130005046594600F08AFD35A3D3E9002300F0DC
:109140003DFF49EC198B34A3D3E9002380468946BF
:109150002046294600F032FF02460B46404649466B
:1091600000F076FD53EC1C2B00F072FD8246079850
:109170008B4600F0B9FE5246804689465B4651EC6C
:10918000190B00F065FD53EC1B2B00F061FD42460E
:109190004B4600F05DFD009C42464B4620460D4686
:1091A00000F054FD53EC1B2B00F050FD53EC192B39
:1091B00000F04CFD02460B465046594600F046FD75
:1091C00082468B4638E000BF00000000000000002F
:1091D000000000000000F03FEF4E454A287ECA3FE5
:1091E00065DBC9934A86CD3F01411DA96074D13F1B
:1091F0004D268F515555D53FFFAB6FDBB66DDB3F2D
:10920000033333333333E33F000000E009C7EE3F5D
:10921000FD033ADC09C7EE3FF5015B14E02F3EBECB
:109220000000F07F000040438E98030079B60B00E9
:109230000000F03F00000840039B069A013B1343E7
:1092400040F078819FEDC47BB0EE479AF0EE679ACC
:109250000023CDE900670093DDE9008930464246EE
:1092600039464B4600F0F2FC22462B4600F0A6FEA3
:1092700032463B4606460F465046594600F09EFE93
:1092800002460B463046394600F0E2FC4246824632
:109290008B464B462046294600F090FE06460F4678
:1092A0003B4650465946324600F0D2FCC44B9942E8
:1092B00004460D46884640F3178101F13F4303F50C
:1092C000E003034340F02A82A5A3D3E900235046DC
:1092D000594600F0BDFC324641EC180B3B46204697
:1092E000294600F0B3FC02460B4651EC180B01F086
:1092F000F5F8002840F01282C8F30A534FF48012A8
:10930000A3F2FE3342FA03F34344AE49C3F30A52D5
:10931000A2F2FF3241FA02FCC3F3130523EA0C0167
:10932000C2F1140445F48015B8F1000F0B4645FA5C
:1093300004F103914FF00000B8BF49420246B8BFA4
:1093400003913046394600F081FC06460F463B4605
:1093500050465946324600F07BFC039B1B050093A8
:109360000D46002480A3D3E900232046294600F0BF
:1093700025FE3246804689463B462046294600F077
:1093800065FC02460B465046594600F05FFC78A348
:10939000D3E9002300F012FE77A3D3E900230646A9
:1093A0000F462046294600F009FE02460B4630468D
:1093B000394600F04DFC06460F4632463B464046D5
:1093C000494600F045FC42464B4604460D4600F037
:1093D0003DFC02460B463046394600F037FC22463B
:1093E00082468B462B462046294600F0E7FD64A3C3
:1093F000D3E9002306460F4600F0E0FD62A3D3E95F
:10940000002300F023FC32463B4600F0D7FD60A36A
:10941000D3E9002300F01CFC32463B4600F0CEFDB1
:109420005DA3D3E9002300F011FC32463B4600F077
:10943000C5FD5BA3D3E9002300F00AFC32463B469E
:1094400000F0BCFD02460B462046294600F0FEFB1C
:1094500006460F4632463B462046294600F0AEFD02
:109460000022804689464FF080433046394600F05E
:10947000EDFB02460B464046494600F0C9FE524607
:1094800006460F465B462046294600F097FD5246A9
:109490005B4600F0DDFB02460B463046394600F0E5
:1094A000D5FB22462B4600F0D1FB02460B4600209E
:1094B000454900F0CBFB0B4600991944B1F5801FDC
:1094C0000246C0F26981104653EC192B00F076FD7C
:1094D000CDE900011EE4BBF1000FFFF695AC9FED56
:1094E000327B8DED007B15E4DFF8E4C021F0004312
:1094F000634540F30B81354B0B4403430AD132469D
:109500003B4600F0A3FB52465B4600F0DDFF00281F
:109510003FF4F2AE26A3D3E9002351EC190B00F07F
:109520004DFD23A3D3E9002300F048FDCDE9000160
:10953000FFF7F0BB9FED207BB0EE479AF0EE679A05
:1095400086E6BBF1000FCADA07F1004300960193EB
:10955000FFF7E0BBAFF30080000000000000F0BFA9
:10956000FE822B654715973C00000000432EE63F26
:10957000EF39FAFE422EE63F396CA80C615C20BE42
:10958000D0A4BE726937663EF16BD2C541BDBB3E09
:109590002CDE25AF6A56113F93BDBE166CC1663FE7
:1095A0003E5555555555C53F0000000000000000D0
:1095B00059F3F8C21F6EA501000000000000F03F43
:1095C000FFFF8F40FFFF0F000000F03F00346F3FB0
:1095D000FFCB90409845FFF67EAF914B98453FF703
:1095E0000FAC8F4B0022DDE9000100F02FFB78A3C8
:1095F000D3E9002304460D4600F0E0FC76A3D3E94E
:10960000002382468B462046294600F0D7FC854B36
:109610008046894600222046294600F0CFFC0246BB
:109620000B466FA1D1E9000100F010FB22462B464A
:1096300000F0C4FC02460B4600207B4900F006FB0C
:1096400022462B4604460D461046194600F0B6FC4D
:1096500002460B462046294600F0B0FC62A3D3E93F
:10966000002300F0ABFC02460B464046494600F0A2
:10967000EDFA804689465046594642464B4600F030
:10968000E7FA002452465B4620460D4600F0DEFA1B
:1096900002460B464046494600F0D8FA82468B46C1
:1096A000CAE59FED537BB0EE47BAF0EE67BAB0EE75
:1096B00047CAF0EE67CA9FED507B4FF0000954ECAB
:1096C000173B1DE40020FFF7F3BB554922462B460C
:1096D000002000F09DFDCDE90001FFF71BBB2246F5
:1096E0002B462046294600F069FCCDE90001FFF732
:1096F00011BB002B42D1C1F114014AFA01F000FA6A
:1097000001F151455AD00393FFF7E0BA464A93421C
:109710005BDCDDE900120091039122E638A3D3E976
:10972000002351EC190B00F049FC35A3D3E90023C9
:1097300000F044FCCDE90001FFF7ECBA039B012BDC
:109740007FF4E8AADDE9002101F10043CDE900231F
:10975000FFF7E0BA9FED2C7BB0EE47BAF0EE67BAA8
:109760009FED2B7BB0EE47CAF0EE67CA9FED2A7BD8
:109770004FF4802954EC173BFFF7C2BB45EC104B6C
:10978000039200F017F9039A8DED000B002A7FF485
:1097900061AB0392FFF7F5BA039843EC102B00F08E
:1097A000BFF951EC100B8FE600F00100C0F102018F
:1097B0000391002B3FF48AAAFFF7DABA00F0010008
:1097C000C0F102030393FFF781BA1B1596E500BFB2
:1097D000000000604715F73F44DF5DF80BAE543ED4
:1097E000555555555555D53FFE822B654715F73FC5
:1097F0000000000000000000000000000000F03F3A
:109800009C7500883CE4377E0000004003B8E23FCE
:1098100006D0CF43EBFD4C3E000000000000F83FB7
:109820000000F03F0000D03F0000E03F2DE9F04194
:109830005F4A57EC106BBA4300F09880002F10EE8F
:10984000104A3B464EDD39155BD0C3F31303CA07FC
:1098500043F48013A1F2FF3E03D45B0003EBD47307
:109860006400E20F4FF0000C02EB43034FEA6E0E70
:109870006400664616254FF40012B118994202DCC6
:109880005B1A8E1894445B00013D03EBD4734FEADE
:1098900052024FEA4404F0D12F4620204FF00042FC
:1098A00009E03ED0E10F01384FEA520201EB4303D9
:1098B0004FEA44043ED0B34202EB0501F1DD00293A
:1098C00001EB020509DBB0469B1BA14288BF03F1F7
:1098D000FF33641A17444646E4E7002DF3DB06F134
:1098E0000108F1E727F00042324336D0002F4DD176
:1098F0003946E20A153964051346002AF9D0D70221
:1099000051D400205B00DE02054600F10100F9D5CC
:109910001A4623468440C0F12000C3401343491B2C
:1099200093E7A142BED8002901EB0205D5DB98469A
:109930000023CEE7234312D178084FEA6C0101F1EE
:109940007F511CF0010F01F5001118BF40F00040DD
:1099500001EB0E53024643EC102BBDE8F0817B1C5B
:1099600016BF781C0CF1010C4008E6E710EE102A37
:1099700010EE100A3B46394600F020FB32463B46CB
:1099800000F066F941EC100BBDE8F08110EE102AF2
:109990003046394600F05AF902460B4600F038FCD2
:1099A00041EC100BD9E7234620204FF0FF35B4E7F8
:1099B0000000F07F51EC100B10EE102A21F0004354
:1099C00043EC102B704700BF82B08DED000B019867
:1099D00040F0004000F58010C00F02B0704700BF9B
:1099E00000207047000000009FED010B704700BF92
:1099F000000000000000F87FF0B553EC102BC3F31B
:109A00000A56A6F2FF30132810EE105A83B01946FA
:109A10004FEAD37431DC00284CDB3E4E064103EAAA
:109A2000060717432ED003EA56031D434FEA560696
:109A30000CD04FF48023132821EA060643FA00F1E4
:109A400041EA06010CBF4FF000450025324800EB0B
:109A5000C4042A46D4E900450B462046294600F0B6
:109A6000F7F8CDE90001DDE9000122462B4600F0C0
:109A7000EDF841EC100B03B0F0BD332806DDB0F576
:109A8000806F40D043EC102B03B0F0BDA6F213461C
:109A90004FF0FF30F0400242F4D015EA50024FEA96
:109AA0005003D3D04FF0804225EA030542FA06F670
:109AB0003543CBE723F000401043E3D0C3F313005A
:109AC000104345420543144800EBC400D0E9006749
:109AD000590C2D0B490405F4002545EA01033046D5
