:02000002D0002C
:1040000000400D00E8F00D00000006000D00050165
:0840100004019A080000000001
:0440180088D90D0036
:1040200009480A49884208B505D0094A824202D0A7
:10403000121A09F0D1FB0748074A0021121A09F0A9
:10404000D9FB014808BD00BFCCE303204CF00D00B4
:1040500040E4032040E40320EDE7032070B5074E61
:10406000074C05F05BF8A41BA4080025A54200D16D
:1040700070BD56F8043B98470135F7E718F00D007E
:104080003CF00D0001F0B4BA08B501F047F9BDE805
:10409000084004F0FBBF04F013BB04F011BB04F0B4
:1040A00017BB000008B5034A00210C2004F034FAC5
:1040B000FEE700BF19820D000078B0FA80F04009D9
:1040C000704701230370704710B5074C04F0ACF83B
:1040D0002368C01A162806D9044A136801331360EE
:1040E00004F0A2F8206010BD40E4032044E4032063
:1040F0002DE9F341002A1D4675F10003089F804613
:10410000144611DA0A2F0FD12D2104F08DFD6242E1
:10411000064665EB4503FFB20097404604F0C1FD3B
:10412000304402B0BDE8F08122462B460026F2E77B
:10413000F8B50C1E074616460CDA0A2A0AD12D21BC
:1041400004F072FD61420546F2B2384604F08BFD80
:104150002844F8BD21460025F6E7F8B50C1E0746B1
:1041600016460CDA0A2A0AD12D2104F05DFD6142BF
:104170000546F2B2384604F076FD2844F8BD2146E3
:104180000025F6E738B505F06DFB3649364C04F0EE
:1041900047FD05F067FB0546204601F0A7FDDFED72
:1041A000337A60EE277A17EE900A08F077FC304BEE
:1041B000002208F015FB41EC100B0221284604F008
:1041C00078FE05F04FFB2B4904F041FD05F04AFB5A
:1041D000294904F025FD05F045FB0546204601F080
:1041E000B3FDDFED267A80EE277A022128469FED87
:1041F000240A27EE000A04F04DFE05F033FB2149A6
:1042000004F025FD05F02EFB1F4904F009FD05F023
:1042100029FB9FED1E0A0546204601F071FE022192
:10422000284604F037FE05F01DFB194904F00FFD88
:1042300005F018FB174904F0F3FC05F013FB0546E5
:10424000204601F0FDFE0221284604F023FE05F081
:1042500009FB114904F0FBFC05F004FBBDE8384004
:1042600004F0E9BC9CD90D0058E403206666E63FE3
:1042700000004040ADD90D00B0D90D0080E6C54723
:1042800000003E44BCD90D00C2D90D0000507D4451
:10429000D6D90D00D9D90D00E5D90D0030B53B4D6B
:1042A0003B488BB0694602F0C9FB05F0DBFA2946B2
:1042B00004F0CDFC05F0D6FA364904F0B1FC05F067
:1042C000D1FA694604F0C3FC05F0CCFA324904F097
:1042D000A7FC05F0C7FA0A2203990446FFF728FF56
:1042E000204604F0A8FC05F0BDFA2C4904F098FC27
:1042F00005F0B8FA0A2204990446FFF719FF204690
:1043000004F099FC264C05F0ADFA264904F088FC2F
:1043100005F0A8FA9DED060A022104F0BBFD05F0A8
:10432000A1FA214604F093FC05F09CFA1E4904F022
:1043300077FC05F097FA9DED070A022104F0AAFD2B
:1043400005F090FA214604F082FC05F08BFA17493B
:1043500004F066FC05F086FA9DED080A022104F0DF
:1043600099FD05F07FFA214604F071FC05F07AFA18
:10437000294604F06CFC05F075FA0D4904F067FC61
:104380004FF4FA7004F03CFE0BB030BDE8D90D00DC
:104390009CE403200DDA0D001CDA0D002BDA0D0071
:1043A00049DA0D003ADA0D004EDA0D005DDA0D0043
:1043B00067DB0D0038B5044605F054FA4C494D4D05
:1043C00004F045FC05F04EFA4B4904F029FC05F0D9
:1043D00049FA0A22B4F90010FFF7BFFE05F042FACD
:1043E000294604F01DFC05F03DFA0A22B4F902103A
:1043F000FFF7B3FE05F036FA294604F011FC05F08C
:1044000031FA0A22B4F90410FFF7A7FE05F02AFAE0
:10441000294604F005FC05F025FA384904F000FCB3
:1044200005F020FA0A22B4F90C10FFF796FE05F009
:1044300019FA294604F0F4FB05F014FA0A22B4F93B
:104440000E10FFF78AFE05F00DFA294604F0E8FB8E
:1044500005F008FA0A22B4F91010FFF77EFE05F005
:1044600001FA294604F0DCFB05F0FCF9244904F0CC
:10447000D7FB05F0F7F90A22B4F90610FFF76DFE35
:1044800005F0F0F9294604F0CBFB05F0EBF90A2220
:10449000B4F90810FFF761FE05F0E4F9294604F0CD
:1044A000BFFB05F0DFF90A22B4F90A10FFF755FE49
:1044B00005F0D8F9294604F0B3FB05F0D3F911490A
:1044C00004F0AEFB05F0CEF90A22B4F91210FFF7A2
:1044D00044FE05F0C7F90C4904F0A2FB05F0C2F94F
:1044E000B4F914100A22BDE83840FFF736BE00BF09
:1044F0006CDA0D00FDDB0D0083DA0D0093DA0D00A0
:104500009BDA0D00A2DA0D00B2DA0D00152808B50D
:1045100006DC05F0A7F91849BDE8084004F097BB90
:10452000422803DC05F09EF91449F5E76F2803DC07
:1045300005F098F91249EFE79C2803DC05F092F9A1
:104540001049E9E7D32803DC05F08CF90E49E3E7CD
:10455000F62803DC05F086F90C49DDE7B0F5927F1B
:1045600003DA05F07FF90A49D6E7B0F5A87FD0DC79
:1045700005F078F90749CFE7C0DA0D00C2DA0D007F
:10458000C3DA0D00C5DA0D00C8DA0D00CADA0D0075
:10459000CEDA0D00CDDA0D002DE9F84305F062F911
:1045A0002E492F4DDFF8C880DFF8C89004F04FFB8C
:1045B0000124A7B22A48394603F094FC372847D192
:1045C000C8223946284603F06BFC70B905F04AF959
:1045D000494604F025FB05F045F910220646214620
:1045E00004F041FB304604F026FB0021284603F08E
:1045F00079FC372206463946284603F051FC70B94B
:1046000005F030F9414604F00BFB05F02BF91022C0
:104610000746214604F027FB384604F00CFBC82E61
:1046200016D105F01FF90F4904F011FB05F01AF936
:104630000D4904F0F5FA05F015F921460A2204F0B7
:1046400012FB05F00FF9BDE8F843084904F0FFBA82
:10465000013447F6FF739C42ABD1E7E7D0DA0D0097
:1046600018E5032017DB0D0029DB0D0040DB0D00F2
:10467000F9DA0D00DEDA0D00F7B5494B0646187879
:1046800005F0C5FB4FF4B4730093002340F6FF72AE
:104690001946054604F0A8FCB0F5B47F044670DD69
:1046A000A0F5B47403F0C0FD41F28833984230D9CC
:1046B0003C4F03F0B9FD386808F0CEF936A3D3E9D2
:1046C000002308F043FA08F039FD306005F0CAF81D
:1046D000354904F0A5FA05F0C5F80A22396804F056
:1046E000C2FA05F0BFF8314904F09AFA05F0BAF8B9
:1046F00096ED000A022104F0CDFB05F0B3F82B493A
:1047000004F08EFA05F0AEF8294904F0A0FA00236F
:104710003B6084EAE473A3EBE473052B2BDD05F027
:10472000A1F8244904F07CFA05F09CF8002D064617
:104730002CDA2D2104F078FA69420A22304604F07E
:1047400092FA05F08FF8194904F06AFA05F08AF830
:10475000002C05461CDA2D2104F066FA61420A227B
:10476000284604F080FA05F07DF8104904F058FA64
:104770002046FFF7CBFE07EE904AB8EEE70A03B0FB
:10478000F0BD0028B8BF00F5B4748BE72946D4E724
:104790002146E4E7AFF30080CDCCCCCCCCCCDC3FE1
:1047A000CCE3032044E4032047DB0D0065DB0D0070
:1047B00068DB0D006DDB0D0010B58AB001A917484C
:1047C000174C02F029FC05F04DF8164904F02FFAB9
:1047D00005F048F89DED060A022104F05BFB05F0A8
:1047E00041F8214604F023FA05F03CF89DED070A54
:1047F000022104F04FFB05F035F8214604F017FACA
:1048000005F030F89DED080A022104F043FB05F0A5
:1048100029F8054904F025FA0AB010BD9CE40320EC
:10482000A1DB0D008ADB0D0067DB0D0010B53D48F4
:104830003D4C2DED068B03F0E3FB3A48B0EE408A89
:1048400003F0F2FB3748F0EE408A03F001FC3548F4
:10485000F0EE409A03F00BFCDFED347A88EE27AAE5
:10486000B0EE409A04F0FEFF314904F0D9F904F0AB
:10487000F9FFB0EE680A022104F00CFB04F0F2FF2D
:10488000214604F0E4F904F0EDFF2A4904F0C8F9E8
:1048900004F0E8FFB0EE480A022104F0FBFA3AEE19
:1048A00028AA04F0DFFF244904F0D1F904F0DAFF6C
:1048B000224904F0B5F904F0D5FFB0EE4A0A02210E
:1048C00004F0E8FA04F0CEFF214604F0C0F904F049
:1048D000C9FF1B4904F0A4F904F0C4FFB0EE690A53
:1048E000022104F0D7FA04F0BDFF164904F0AFF935
:1048F00004F0B8FF144904F093F904F0B3FFB0EEEC
:10490000490A022104F0C6FA04F0ACFF0F4904F092
:104910009EF904F0A7FFBDEC068B0D49BDE81040E1
:1049200004F095B920E50320B4DB0D0000007A44C3
:10493000A4DB0D00B7DB0D00C7DB0D00CBDB0D00EA
:10494000DBDB0D00EBDB0D00EFDB0D00FFDB0D0013
:1049500067DB0D0012B903689B681847D2B204F0F8
:1049600082B938B50546FFF7F5FF0446284604F03E
:1049700062F9204438BD000013B50023214C8DF8A6
:1049800007300DF106020DF105018DF806308DF8A6
:1049900005301D480DF1070302F0AFF904F062FF86
:1049A000214604F054F904F05DFF184904F038F989
:1049B00004F058FF10229DF80510FFF7D2FF04F015
:1049C00051FF134904F02CF904F04CFF10229DF81C
:1049D0000610FFF7C6FF04F045FF0E4904F020F96A
:1049E00004F040FF10229DF80710FFF7BAFF04F013
:1049F00039FF214604F02BF94FF4FA7004F000FB64
:104A000002B010BD67DB0D009CE4032003DC0D0049
:104A100015DC0D0027DC0D001FB500238DF80F30CD
:104A20008DF80E308DF80D308DF80C300DF10F0330
:104A30000DF10D0203A9234800930DF10E0302F0BE
:104A40007CF904F00FFF204904F0EAF89DF80C30DF
:104A500023B904F007FF1D4904F0E2F804F002FF57
:104A60001B4904F0DDF804F0FDFE0A229DF80C104D
:104A7000FFF770FF04F0F6FE164904F0D1F804F0D9
:104A8000F1FE0A229DF80D10FFF764FF04F0EAFE24
:104A9000114904F0C5F804F0E5FE0A229DF80E1055
:104AA000FFF758FF04F0DEFE0C4904F0B9F804F0FB
:104AB000D9FE9DF80F100A22FFF74CFF05B05DF8F4
:104AC00004FB00BF9CE4032066DB0D0039DC0D0015
:104AD0003CDC0D0041DC0D0045DC0D0049DC0D0027
:104AE0002DE9F04F2DED0A8B97B000238DF80F3094
:104AF0000DF10F0300930DF10D020DF10E0303A94B
:104B0000D348D44FDFF88CB3DFF88CA39FEDD29A53
:104B100002F013F904A8CE49082202F00DFA0AA8FF
:104B2000CB49142202F008FA10A8C9490E2202F05B
:104B300003FADDE90801BCA3D3E9002308F030F94A
:104B4000B9A3D3E9002341EC180BDDE9040108F017
:104B500027F9B0EE481AF0EE681A41EC100B05F098
:104B60005BFA53EC102B10EE100A03F10041002207
:104B7000BA4B07F0EBFFAEA3D3E9002308F010F91E
:104B8000B74B002207F0E2FF08F0D8FAA6A3D3E95A
:104B900000233860DDE9080108F002F9A2A3D3E997
:104BA000002341EC180BDDE9060108F0F9F8B0EE3E
:104BB000481AF0EE681A41EC100B05F02DFA53EC90
:104BC000102B10EE100A03F100410022A34B07F056
:104BD000BDFF97A3D3E9002308F0E2F80022A04B21
:104BE00007F0B4FF08F0AAFA9E4B9F4918600646EA
:104BF000086807F053FF90A3D3E9002307F0A6FF4E
:104C0000044630460D4607F049FF8DA3D3E9002343
:104C100007F09CFF02460B462046294607F0E0FDC0
:104C200008F08CFACBF800009048006807F036FFD7
:104C300081A3D3E9002307F089FF044638680D46B5
:104C400007F02CFF7EA3D3E9002307F07FFF024685
:104C50000B462046294607F0C3FD08F06FFA844D45
:104C6000CAF8000003F0E0FA2B68824CC01A07F083
:104C7000F3FE814B002208F093F808F05FFA206001
:104C800003F0D2FA2860206807F008FFDDE90C2362
:104C900004460D4607F05AFF0F4678490646086855
:104CA00007F0FCFE32463B4607F09AFD62A3D3E9CB
:104CB000002307F04BFF674B80461868894607F0D2
:104CC000EDFE5FA3D3E9002307F040FF02460B4649
:104CD0004046494607F084FD08F030FA6749DDE9AF
:104CE0000A2308EE900A08602046294607F02EFFA6
:104CF000044663480D46006807F0D0FE22462B4666
:104D000007F06CFD4CA3D3E9002307F01FFF554AC1
:104D100080461068894607F0C1FE49A3D3E9002305
:104D200007F014FF02460B464046494607F058FD7F
:104D300008F004FA534908EE100A514880ED008A41
:104D4000086807F0ABFE32463B4607F049FD08F025
:104D5000F5F94D4F4B4E3060386807F09FFE224604
:104D60002B4607F03BFD08F0E9F9C8EE097A3860F8
:104D700017EE900A07F092FE33A3D3E9002307F061
:104D8000E5FE08F0DBF9C8EE897A404B186008EEC2
:104D9000100A17EE900A07F081FE2BA3D3E9002337
:104DA00007F0D4FE08F0CAF9394B00EE100A18607B
:104DB00008EE900A05F09EF89DED127B10EE108A29
:104DC000B0EE47AAF0EE67AAB0EE480A05F0DAF8AE
:104DD00010EE100A07F062FEB0EE680A41EC1B0B01
:104DE00005F0D0F810EE100A07F058FE9DED147B88
:104DF000B0EE480AB0EE47CAF0EE67CA06460F4664
:104E000005F078F810EE100A07F048FE0446404618
:104E10000D4607F043FEDDE9102307F097FE53EC43
:104E20001B2B8046894639E09A9999999999234094
:104E300050455254FB210940666666666666EE3F41
:104E40009A9999999999A93F1F85EB51B81E1940D4
:104E50009CE4032064E503200000B4430000E03F2D
:104E60000080764048E5032040E503205CE5032010
:104E700034E5032014E5032000408F4054E503206F
:104E800038E5032060E5032044E503204CE50320DA
:104E900068E503203CE5032058E5032051EC1A0B9C
:104EA00007F054FE32463B4607F050FE02460B46E2
:104EB0004046494607F092FC2246804689462B46EA
:104EC00051EC1C0B07F042FE32463B4607F03EFE1B
:104ED00002460B464046494607F082FC08F02EF990
:104EE0009B4B9C4E186008EE100A22462B4651EC54
:104EF0001A0B07F02BFE53EC1C2B04460D4651EC0D
:104F00001B0B07F023FE02460B462046294607F0FE
:104F100067FC08F013F9904B904C1860F0EE480ACB
:104F200000EE100A05F032FA10EE100A07F0B6FD96
:104F300083A3D3E9002307F033FF894B894F002275
:104F400007F004FE08F0FAF8206004F08BFC7EA362
:104F5000D3E900230546DDE9040107F021FF41EC18
:104F6000100B0221284603F0A4FF04F07BFC7E49CD
:104F700003F056FE04F076FC73A3D3E90023054644
:104F8000DDE9060107F00CFF41EC100B0221284679
:104F900003F08FFF04F066FC734903F041FE04F058
:104FA00061FC69A3D3E900230546DDE9080107F0A8
:104FB000F7FE41EC100B0221284603F07AFF04F0C3
:104FC00051FC694903F02CFE04F04CFC0A229DF8C8
:104FD0000E10FFF7BFFC04F045FC634903F020FE10
:104FE00004F040FC0A229DF80D10FFF7B3FC04F01A
:104FF00039FC5D4903F014FE04F034FC0A229DF8EC
:105000000F10FFF7A7FC04F02DFC574903F008FE32
:1050100004F028FC0A229DF80C10FFF79BFC04F01A
:1050200021FC514903F0FCFD04F01CFC4F4B022114
:1050300093ED000A03F02EFF04F014FC4A4903F03C
:10504000EFFD04F00FFC4A4A022192ED000A03F042
:1050500021FF04F007FC444903F0E2FD04F002FCE8
:105060009AED000A022103F015FF04F0FBFB3E4914
:1050700003F0D6FD04F0F6FB9BED000A022103F0DD
:1050800009FF04F0EFFB384903F0CAFD04F0EAFB26
:1050900096ED000A022103F0FDFE04F0E3FB324925
:1050A00003F0BEFD04F0DEFB97ED000A022103F0E1
:1050B000F1FE04F0D7FB2C4903F0B2FD04F0D2FB63
:1050C0002C4B022193ED000A03F0E4FE04F0CAFB2E
:1050D000254903F0A5FD04F0C5FB274B022193ED04
:1050E000000A03F0D7FE04F0BDFB1F4903F098FD52
:1050F00004F0B8FB94ED000A022103F0E8FED4EDC1
:10510000007A9FED1E7A1E49DBF800301D480B60C7
:1051100077EE877ADAF800300360F4EEC97AF1EEC0
:1051200010FAA8BF77EEC97AC4ED007A94ED000AB0
:1051300017B0BDEC0A8BBDE8F08F00BFAFF3008065
:105140001F85EB51B81E19409A9999999999234056
:105150004CE4032060E5032050E4032050E50320E5
:105160000080764044E503204DDC0D0064E503201B
:1051700048E5032054E5032038E5032000003443CC
:1051800040E503205CE503201FB5134B13480022C4
:105190001A7002F06BFE4021114802F0B7FE114870
:1051A00000F0D0FC04F07AFE0F4A1049CDE901214D
:1051B0004FF0FF3203460092402180220C4802F05B
:1051C000CFFD04F06BFE03460A482822372105B0C4
:1051D0005DF804EB01F05ABC54E4032018E5032009
:1051E00020E5032058E40320801A0600A086010071
:1051F000BCE403209CE4032038B5374C374D2046EF
:1052000002F058F8204602F0C8FC0023344923611C
:10521000204603F005FD284600F068FDDFED317AF9
:1052200060EE277A17EE900A07F038FC2E4B00222A
:1052300007F0D6FA41EC100B0221204603F039FEAC
:105240002A49204603F003FD2949204603F0E8FCE3
:10525000284600F079FDDFED277A80EE277A0221DB
:1052600020469FED250A27EE000A03F013FE23498E
:10527000204603F0ECFC2249204603F0D1FC2846EE
:105280009FED200A00F03CFE0221204603F002FEC2
:105290001D49204603F0DBFC1C49204603F0C0FCFE
:1052A000284600F0CDFE0221204603F0F3FD184908
:1052B000204603F0CCFC1749204603F0B1FC164B06
:1052C000204693ED000A022103F0E4FD2046BDE8EC
:1052D000384002F062BC00BFBCE4032058E4032065
:1052E0004FDC0D006666E63F0000404058DC0D00D4
:1052F0005DDC0D0080E6C54700003E44BCD90D00D2
:10530000CAD90D0000507D44D6D90D00D9D90D0061
:10531000E5D90D0067DC0D00B4E4032010B5964B11
:10532000964C187896B0012104F045FD2046FFF711
:10533000A3F98DED030A04F095FA914903F070FC8E
:1053400004F090FA8F4903F06BFC04F08BFA9DEDAA
:10535000030A022103F09EFD04F084FA884903F059
:105360005FFC04F07FFA884903F05AFC04F07AFAF3
:1053700094ED000A022103F08DFD04F073FA8049D8
:1053800003F04EFCFEF7FEFEFFF736FF7F4B18687A
:1053900003F036FE042004F027FD18B97C497D484F
:1053A00003F03EFC032004F01FFD18B97A49794848
:1053B00003F036FC022004F017FD18B97749754850
:1053C00003F02EFC0A2003F01BFE02F05DFF714883
:1053D000734C02F0E2FBFFF7EFF904F043FA714976
:1053E00003F035FC0DA9704801F016FE04F03AFAFE
:1053F0006E4903F015FC04F035FA9DED120A042104
:1054000003F048FD04F02EFA694903F009FC04F0AA
:1054100029FA9DED130A042103F03CFD04F022FA61
:10542000644903F0FDFB04F01DFA9DED140A04210C
:1054300003F030FD04F016FA5F4903F008FC04F0B5
:1054400011FA584903F003FCDDED127A9FED5B7A07
:1054500077EE877A9FED5A7AF4EEC77AF1EE10FA7A
:10546000C8BF77EEC77AC4ED007A04F0FBF955495E
:1054700003F0D6FB04F0F6F9042194ED000A524C37
:1054800003F008FDFFF72CFB84ED000A04F0EAF9B5
:105490004E4903F0C5FB04F0E5F994ED000A022142
:1054A00003F0F8FC04F0DEF9494903F0B9FB04F01D
:1054B000D9F9044603F07EFD0A2201462046FEF794
:1054C00037FE04F0CFF9434903F0AAFB04F0CAF910
:1054D0000A230093404BD3E90023FEF709FE04F0B2
:1054E000C1F9274903F09CFB04F0BCF9244903F0FF
:1054F00097FB3A4800F0FAFBDFED397A60EE277A45
:1055000017EE900A07F0CAFA364B002207F068F946
:1055100041EC100B062107A803F01BFB324B079A46
:105520001B788DF8003031493C2305A803F04EFF6D
:10553000069C7CB16368013B63605BB923682046CD
:105540009B689847A368013BA3601BB9236820466A
:10555000DB68984707A803F09FFA07A9124801F0F3
:105560003DFC07A8FEF726FFFFF760F942F2107036
:1055700003F046FD16B010BDCDE3032048E4032040
:105580009ADC0D0077DC0D0089DC0D00B8E4032007
:10559000EDDB0D00BCE4032010E10D0097DC0D00F5
:1055A000B4E4032099DC0D009CE403209CDC0D0096
:1055B000A0DC0D00A5DC0D0067DB0D000000D04273
:1055C0000000B443AADC0D00B0E40320BDDC0D00F4
:1055D000CEDC0D00DCDC0D0070E5032058E4032078
:1055E0006666E63F0000404054E40320EEDC0D0018
:1055F00070B5A2B004F036F9C04903F028FB04F0FE
:105600004DFC0146BE4802F069FD40B904F02AF99C
:10561000BC4903F01CFB0A2003F0F2FCFBE7B8488E
:10562000B94CBA4D02F075FD03F0C4FCC117C4E9D2
:10563000000104F017F9B64903F0F2FA04F012F988
:105640000A230093D4E90023FEF752FD04F00AF97F
:10565000B04903F0E5FAB04B0021187804F09AFB4A
:10566000AE4B0121187804F095FB04F0FBF8AC492F
:1056700003F0EDFA2878002104F08CFB002300935E
:1056800002224FF0FF33A749287804F013F904F001
:10569000E9F8A54903F0DBFA04F0E4F8A34903F0C4
:1056A000D6FA04F0DFF84FF4E13104F0C9F82546EA
:1056B00004F0D8F804F0CBF80028F9D09C4C04F0A2
:1056C000D1F89C4903F0CDFA04F0CCF89A4903F0E4
:1056D000BEFA01223C21204602F056FB04F0C2F83B
:1056E000964903F0B4FA204602F057FA4FF47A7064
:1056F00003F086FC204601F0DDFD204602F04DFA65
:105700000121204601F0DCFF04F0ACF88C4903F0E5
:105710009EFA0221042004F03DFB0221032004F044
:1057200039FB0221084604F035FB0121204602F036
:105730002EFA00264FF00113C4E904638149204684
:1057400003F06EFA8049204603F06AFA204602F020
:1057500024FA7E4800F079FE78BB04F083F87C4997
:1057600003F075FA04F07EF87A4903F059FA04F070
:1057700079F80446754800F0E9F910220146204600
:1057800003F071FA204603F056FA04F06BF8724900
:1057900003F046FA04F066F8704903F041FA04F0A9
:1057A00061F86F4903F03CFA04F05CF86D4903F0CE
:1057B00037FA0A2003F024FCFBE704F06FFB5021CA
:1057C0000246694802F056FB90B104F04BF8674975
:1057D00003F03DFAFEF7E0FE65480C2101F03CFACB
:1057E000044670B904F03EF8624903F019FAFEE786
:1057F00004F038F8604903F02AFA0A2003F000FCAC
:10580000FBE704F02FF8424903F00AFA04F02AF803
:105810000A230093D5E90023FEF76AFC04F022F87E
:105820003C4903F0FDF94FF47A7003F0E9FBFEF711
:1058300035FD04F003FB042202A9304602F004FD0A
:105840004B4818A901F0FAF81C9A029B9A4237D0EB
:1058500004F008F8494903F0FAF94FF4FA7003F03C
:10586000CFFB34464FF47A7003F0CAFBFEF716FD07
:10587000FFF782F801213E4801F03CF902F0D4FC28
:105880003F4B0FA918603A4801F0C6FB002C00F00E
:10589000818003F0E7FF3B49354C03F0D8F92046FF
:1058A00001F063FA002840F0B5800FA9204601F00E
:1058B000B3FBFFF7B1F84FF47A7003F0A1FBEEE70A
:1058C00003F0D0FF304903F0C2F904F0B7FA162212
:1058D00003A9042002F0B8FC03A8FEF76BFD03F057
:1058E000C1FF2A4903F0B3F903A9214801F025F9C2
:1058F00003F0B8FF264903F0AAF9B3E701DD0D0074
:1059000020E5032008DD0D0070E50320CEE3032031
:10591000DCDC0D009ADC0D00CCE30320CDE303209A
:1059200023DD0D00C9400D0040DD0D0056DD0D00EA
:10593000BCE4032064DD0D0070DD0D008DDD0D0085
:1059400098DD0D00A4DD0D00C4DD0D0058E403203A
:10595000D0DD0D0018DE0D0029DE0D0070DE0D001B
:105960009ADE0D00C4DE0D0018E50320EEDE0D000A
:105970009CE4032037DF0D00FFDE0D0074DF0D0017
:1059800034E503202CE00D00AADF0D00D8DF0D0068
:1059900006E00D0003F066FF3E493F4C3F4E404D90
:1059A00003F055F9204601F0E0F998BB0FA9204615
:1059B00001F032FB03F056FF314603F031F903F0FA
:1059C00051FF9DED140A042103F064FA03F04AFF2D
:1059D000294603F025F903F045FF9DED150A042142
:1059E00003F058FA03F03EFF2E4903F019F903F0D3
:1059F00039FF9DED160A042103F04CFAFFF70CF86D
:105A000003F030FF284903F022F94FF47A7003F0D5
:105A1000F7FAC7E703F026FF244903F018F903F06B
:105A200021FF234903F013F903F01CFF214903F080
:105A30000EF909A9184801F0D1F909A8FEF7BAFC36
:105A400003F010FF1C4903F002F918A9124800F0F6
:105A5000F5FF1C9B029304F0F1F902A90422002037
:105A600002F0FAFB04F0EAF9162209A9042002F078
:105A7000F3FB03F0F7FE114903F0E9F803F0F2FE3F
:105A80000F4903F0E4F84FF4FA7003F0B9FA22B0CA
:105A900070BD00BF5CE00D009CE403209CDC0D00A9
:105AA000A0DC0D00A5DC0D0067DB0D0076E00D002D
:105AB000ECD90D0089E00D009FE00D00C7E00D005E
:105AC000DEE00D00704710B51021044604F00AFA1C
:105AD000204610BD0EB403B503AB002153F8042BD0
:105AE000019303F003FA02B05DF804EB03B07047D2
:105AF00073B5044608462279A36832B1A3B90B49AD
:105B000002B0BDE8704003F08BB8094A267B094D0E
:105B10000949647B012E18BF2946CDE900140749C5
:105B2000FFF7D8FF02B070BD054AEFE712E10D00A4
:105B300067DB0D000EE10D000AE10D0028E10D000C
:105B400001E10D004FF0FF3303617047806870473B
:105B500013B50B4C2178BFF35B8F11F001010BD112
:105B600020460191FEF7A8FA019928B1054802F0F4
:105B70002BFE2046FEF7A5FA024802B010BD00BF7A
:105B800078E503207CE503202DE9F04190F91330FE
:105B9000013305460F4606D1FFF7DAFF3946BDE867
:105BA000F04102F0B3BE002407264FF0010895F93A
:105BB0001300002180B204F0FEF895F9110008FAF4
:105BC00006F1394080B204F0F6F895F9130001218E
:105BD00080B204F0F0F895F91200640080B2E4B2EB
:105BE00004F002F908B144F00104013EDFD220467E
:105BF000BDE8F08108B5FFF7ABFFBDE8084002F053
:105C0000FEBD07B50190FFF7A3FF019903B05DF852
:105C100004EB02F00DBE000030B590F910300133F6
:105C200085B004460D4623D10179006803F0BAFF20
:105C30002068036829469B689847206803F0BAFFEC
:105C400021792068032203F0AAFF206803685B69BA
:105C500098470502206803685B6998472843050256
:105C6000206803685B6998470543284605B030BD46
:105C700090F9133001330CD11A4B009300238DF8A7
:105C80000430194B029368460123ADF80C30FFF73E
:105C9000B8FF94F91000002180B204F08CF845F0B0
:105CA00080012046FFF770FF00212046FFF76CFFC0
:105CB000002105022046FFF767FF28430502002167
:105CC0002046FFF761FF054394F91000012180B2DF
:105CD00004F071F894F913300133C6D1FFF78AFF4D
:105CE000C3E700BF50E10D0020A1070010B5FA2165
:105CF0000446FFF791FFB0F5000F1ED0A18A9FED7B
:105D0000107A4B00C1EB2022C3EBE011B4F916303E
:105D100052435943B4F91830121353439B1303EB06
:105D2000E123E36003EB830380331B1207EE903A19
:105D3000F8EEE77A87EE870A10BD9FED020AFBE7CF
:105D40000000C8420000C07F2DE9F8430446FFF779
:105D5000CDFFF7212046FFF75FFFB0F5000F0546A6
:105D600000F0BF80E068B4F91C60B0F5FA334FEA88
:105D7000E07141F1FF32A3FB038903FB02F109EB60
:105D80004109F71706FB02F103FB0711A6FB0367A6
:105D90000F44390341EA16513003B4F91E60F71776
:105DA00006FB09FC08FB07CCA6FB086767444FEA23
:105DB000162C4CEA076C668B4FEA272E1CEB000072
:105DC0004EEB010E00304EF5004EA0FB060106FB27
:105DD0000E114E10CF1756EA070100F08580B4F976
:105DE000240000FB09FCC11708FB01CCA0FB080143
:105DF000B4F922804FEAE87908FB02F203FB09229A
:105E0000A8FB0389914461444FEA48424FEA494C58
:105E10002D111218C5F580154CEAD83CB4F9208034
:105E20004CEB010C0023E9179B184FEAC17E4FEAA7
:105E3000C5704FEAC80141EB0C0C4EEA550EC01A72
:105E400040F635436EEB0C0EA0FB030103FB0E1175
:105E500032463B4607F0D0FAB4F92A204D13460BE0
:105E600046EAC14602FB05F7D31706FB0377A2FB00
:105E700006233B44554306FB0355A2FB06232B4454
:105E8000550E45EAC315B4F92820B4F926402D185B
:105E90004FEA636641EB0606D317514300FB03113B
:105EA000A2FB00230B44D10C41EA43316D184FEAA9
:105EB000E34046EB00032A0AE51742EA036219129F
:105EC00020012B0143EA1473801843EB010107F012
:105ED00055FA9FED070A07EE900A27EE800ABDE803
:105EE000F8839FED040AFAE79FED030AF7E700BF86
:105EF0000000803B0000C07F0000000000000000A8
:105F000008B52DED028BB0EE408AFFF71DFF9FED27
:105F1000167AC0EE077AC7EE887A17EE900A06F076
:105F2000BDFD9FED0D1B41EC100B04F079F80F49FE
:105F300053EC102B002006F051FC09A3D3E90023F9
:105F400006F004FE07F0FAF8BDEC028B00EE100A32
:105F500008BD00BFAFF30080EBE2361AC05BC83F5C
:105F60000000000040A5E5400000C8420000F03FEE
:105F700030B590F91030013385B004460D461FD17D
:105F80000179006803F00EFE2068036829469B68CB
:105F90009847206803F00EFE21792068022203F062
:105FA000FEFD206803685B69984705462068036822
:105FB0005B69984740EA052085B2284605B030BDA8
:105FC00090F9133001330CD1184B009300238DF856
:105FD0000430174B029368460123ADF80C30FFF7ED
:105FE00010FE94F91000002180B203F0E4FE45F0A9
:105FF00080012046FFF7C8FD00212046FFF7C4FDC1
:10600000002105462046FFF7BFFD40EA052085B286
:1060100094F91000012180B203F0CDFE94F9133001
:106020000133CAD1FFF7E6FDC7E700BF50E10D001D
:1060300020A1070008B5FFF79BFF40BA80B208BD5A
:1060400038B50446FFF752FEFD212046FFF790FFCA
:10605000B0F5004F38D0B4F93250E268B4F93430BA
:106060002D05A2F59632C5EB803002FB130303F534
:106070008043D91394F830305343DB1203F50040CA
:1060800094F9363053439B1243439B1203F500129D
:10609000B4F92E30534303F500539B134B43DA13EB
:1060A00094F82C105243D2114A43A3EB221323EA53
:1060B000E373B3F1C85FA8BF4FF0C8531B1300EEE2
:1060C000103ABAEECB0A38BD9FED010AFBE700BFDC
:1060D0000000C07F30B590F91030013385B0044620
:1060E0000D4618D10179006803F05CFD2068036853
:1060F00029469B689847206803F05CFD2179206859
:10610000012203F04CFD206803685B699847C5B223
:10611000284605B030BD90F9133001330CD1154B32
:10612000009300238DF80430134B0293684601233B
:10613000ADF80C30FFF765FD94F91000002180B236
:1061400003F039FE45F080012046FFF71DFD0021D8
:106150002046FFF719FD054694F91000012180B291
:1061600003F029FE94F913300133D1D1FFF742FD3A
:10617000CEE700BF50E10D0020A1070008B5F321D4
:10618000FFF7A8FF00F0010008BD38B588210446DC
:10619000FFF750FF8A21A0822046FFF74BFF8C219A
:1061A000E0822046FFF746FF8E2120832046FFF73E
:1061B00041FF902160832046FFF73CFF9221A0839E
:1061C0002046FFF737FF9421E0832046FFF732FF98
:1061D000962120842046FFF72DFF982160842046D9
:1061E000FFF728FF9A21A0842046FFF723FF9C2178
:1061F000E0842046FFF71EFF9E2120852046FFF702
:1062000019FFA12160852046FFF764FFE12184F892
:106210002C002046FFF70EFFE321E0852046FFF724
:1062200059FFE42184F830002046FFF753FFE521B1
:1062300005462046FFF74EFF00F00F0343EA051026
:106240006086E6212046FFF745FFE521054620460A
:10625000FFF740FF031143EA0510A086E72120461F
:10626000FFF738FF84F8360038BD00007FB590F99D
:106270001030013304460E46154612D101790068EC
:1062800003F090FC2068036831469B6898472068BB
:10629000036829469B689847206803F08BFC04B08C
:1062A00070BD90F9133001330CD1144B00930023CF
:1062B0008DF80430124B029368460123ADF80C3080
:1062C000FFF79FFC94F91000002180B203F073FDEA
:1062D00006F07F012046FFF757FC29462046FFF7CE
:1062E00053FC94F91000012180B203F064FD94F98D
:1062F00013300133D3D1FFF77DFCD0E750E10D001F
:1063000020A10700F8B5DB0002F0070203F0380314
:10631000134343EA81139DF8186080F83C3090F8ED
:1063200040309DF81C509DF8207066F3471380F8AC
:106330004030ED0090F8383007F0070705F03805D9
:1063400023F03F033D4304461D4380F8385006F0D8
:106350000702F221FFF78AFF94F83820C2F3C20344
:1063600002F007019B0043EA411343EAD2122046A0
:10637000F521FFF77BFF94F83C20C2F3C20302F043
:1063800007019B0043EA411343EA92122046F4219D
:10639000BDE8F840FFF76ABF30B5044690F9100039
:1063A000421C85B019D1206803F0CAFBD0212046D9
:1063B000FFF790FE6028A06045D12046B622E0217C
:1063C000FFF754FF4FF4967002F01AFE2046FFF7D5
:1063D000D5FE054628B36420F6E7012180B203F01C
:1063E000EAFC94F91000012180B203F0D3FC94F987
:1063F0001300431C04D1FFF7ABFB02F0EFF9D5E724
:10640000012180B203F0C6FC94F91100012180B291
:1064100003F0C0FC94F91200002180B203F0BAFC32
:10642000C4E72046FFF7B1FE052300931A46032177
:106430002046CDE90155FFF765FF642002F0E0FD3D
:10644000012005B030BD0020FBE7772310B50371B4
:10645000044603F023FD20602046FFF79DFF30B97E
:10646000762323712046BDE81040FFF795BF10BD8D
:1064700030B50025C0E9001542819DF810109DF847
:106480000C20456141738273037330BDF0B5034640
:1064900085B04089ADF80C004FEA102E18689C7A40
:1064A0000E46174640B15B7B019303AB009301237B
:1064B00000F036FA05B0F0BD58680028FAD093F81D
:1064C00008C05D7BBCF1030F0BD12EF0010E01352E
:1064D0008DF80CE08DF80D40009503AB00F08FF9BE
:1064E000E8E7BCF1000F08D104F07F048DF80C4000
:1064F000009503AB3A463146F0E7BCF1020F02D1FA
:1065000064F07F04F2E7BCF1010F01BF9DF80C308D
:1065100003F07F0343F040038DF80C30E8E7F0B45C
:106520000B4602B9027B042A14D800F10F0543611F
:1065300084182946844209D0877BDEB227B92E70A1
:106540001B0A0135013CF5E7A673F9E72046F0BCCC
:10655000FFF79CBF0020F0BC70477FB50446857AEA
:106560000B4641890068ADF80C100E0A40B10021BD
:10657000CDE9002103A9627B00F040FA04B070BDB0
:1065800060680028FAD0217A647B03290DD146F097
:106590000106FF21CDE900218DF80C608DF80D502A
:1065A000621C03A900F05DF9E8E741B965F07F05D9
:1065B0008DF80C50FF21CDE900212246F1E7022998
:1065C00002D105F07F05F3E7012902BF9DF80C1009
:1065D00061F03F018DF80C10ECE738B502220D4652
:1065E00000F10F010446FFF7B8FF38B1A37B33B9C0
:1065F000237C1B022B80E27B13432B8038BDE37B83
:106600001B022B80227CF7E710B50446406810B1CE
:1066100003689B689847204610BD38B5044690F93A
:106620000E00012180B203F0B5FB94F90E000121A8
:1066300080B203F0C0FB256835B1284602F0CEF8E1
:10664000012084F8340038BD94F90F00012180B294
:1066500003F0A0FB637B94F90F00012B94BF294644
:10666000012180B203F0A7FB94F91000421C09D06D
:10667000012180B203F08EFB94F91000012180B259
:1066800003F099FB94F91100431CD9D0002180B28A
:1066900003F080FBD4E700002DE9F04F04460068CA
:1066A00085B00D4640B10023009313460A4602F020
:1066B00033F905B0BDE8F08F237BA068484FB7FBE6
:1066C000F0F7002B0B780CBF4FF0010B4FF0800B55
:1066D0001BEA030F01EB02030CBF4FF001094FF05F
:1066E0000009FFB20393039BAB42E2D095F800A0F0
:1066F0005E464FF0000817B1384601F08DFD637B10
:1067000013F0FD0F41D194F910305A1C0FD01AEA42
:10671000060114BF012300234B4508D06369606A5A
:106720001A6800292CD002431A604FF00109A169B0
:10673000E36A0A6813430B6017B1384601F06CFD39
:1067400094F91130013306D0E3691A68A36A1A423A
:1067500018BF46EA0808A169E36A0A6822EA030347
:106760000B6094F91130013318BF85F80080237B4A
:10677000002B32D17600F6B2002EBCD10135B2E743
:1067800022EA00021A608946D1E7A169E36A0A6831
:1067900013430B6017B1384601F03EFD94F91030F9
:1067A000013308D06369616A1A681AEA060F14BFD8
:1067B0000A438A431A60A169E36A0A6822EA03036A
:1067C0000B6094F911300133CBD0E3691A68A36AE6
:1067D0001A4218BF46EA0808C3E77608CCE700BFAC
:1067E00020A1070007B501228DF807100DF1070160
:1067F000FFF752FF9DF8070003B05DF804FB2DE999
:10680000F041044600680E4617461D4610B1616807
:1068100002F00EF894F90E00002180B203F0CBFADA
:10682000069B05EB0308454508D13744B7420BD01A
:1068300016F8011B2046FFF7D5FFF7E715F8011BF7
:106840002046FFF7CFFFEEE794F90E00012180B25A
:1068500003F0B1FA206808B101F0D1FF0120BDE8D2
:10686000F0812DE9F041044600689DF81C800E4639
:1068700017461D4610B1616801F0DAFF94F90E0069
:10688000002180B203F097FA3744BE420AD1069B3A
:10689000EE18AE420CD041462046FFF7A3FF05F8A4
:1068A000010BF6E716F8011B2046FFF79BFFECE70C
:1068B00094F90E00012180B203F07DFA206808B13E
:1068C00001F09DFF0120BDE8F081426000220272CC
:1068D00020220170C260704710B5037A044653B19C
:1068E0002178606803F05EF9606803F063F9B0FA3C
:1068F00080F0400910BD012100F003F80028EFD11D
:10690000F8E738B5044640680D4603F019F9012050
:10691000207225B12046BDE83840FFF7DDBF38BD05
:106920002DE9F843DDE908961F46C3681546324451
:106930009A420446884602D90020BDE8F8830178CF
:10694000406803F02FF97EB9606803682A46DB6867
:10695000414698478542EFD16068394603F026F9F1
:10696000B0FA80F04009E8E7B9F1000FECD06068B8
:1069700003683246DB6849469847B042DCD1E3E71A
:106980002DE9F041154604460E46D2B20178406822
:1069900003F0F3F885420DD100271FFA87F8A845C8
:1069A00007F1010709D2606803685B69984706F838
:1069B0000800F2E70020BDE8F0810120FBE72DE9A7
:1069C000F84307468846164699460025B54212D236
:1069D000FA68741B944228BF1446331BAB4294BF21
:1069E0004B460023224608EB05013846FFF7C8FF57
:1069F00010B12544EAE70120BDE8F88373B51D46D0
:106A00000023CDE900339DF81C30069E0446FFF7B5
:106A100087FF40B1012332462946204602B0BDE837
:106A20007040FFF7CCBF02B070BD08B5406803F0FE
:106A300083F8012008BD7047704700000B4610B571
:106A4000282204460021184606F0D4FE09490B22EC
:106A500006F021FF00220121C272C160E16842629A
:106A60000022016182610321C261034A4161026225
:106A700010BD00BF25E00D000AD7233C10B514213E
:106A8000044603F02FFA204610BD000073B50193B1
:106A9000094B03600023C0E902310446102016466A
:106AA000FDF7F9FA054618B1019A3146FFF70DFFD7
:106AB0002046A56002B070BD64E10D001FB5002343
:106AC000CDE900338DF80C108DF80D200123022242
:106AD00003A98068FFF724FF05B05DF804FB08B543
:106AE0000A4601743D21FFF7E9FFBDE808401E207A
:106AF00002F086BA70B50D4600210446067CFFF709
:106B0000EEFF192002F07CFA002207212046FFF751
:106B1000D5FF85B180223F212046FFF7CFFF0A2015
:106B200002F06EFA20463146FFF7D9FFBDE870400B
:106B3000142002F065BA2A46EDE770B50D46002133
:106B40000446067CFFF7CBFF192002F059FA2A7899
:106B500055212046FFF7B2FF6A7856212046FFF7FD
:106B6000ADFFAA7857212046FFF7A8FFEA78582101
:106B70002046FFF7A3FF2A7959212046FFF79EFF01
:106B80006A795A212046FFF799FFAA795B212046AE
:106B9000FFF794FFEA795C212046FFF78FFF2A7AFE
:106BA0005D212046FFF78AFF6A7A5E212046FFF7C3
:106BB00085FFAA7A5F212046FFF780FFEA7A6021ED
:106BC0002046FFF77BFF2A7B61212046FFF776FFF7
:106BD0006A7B62212046FFF771FFAA7B6321204672
:106BE000FFF76CFFEA7B64212046FFF767FF2A7CF2
:106BF00065212046FFF762FF6A7C66212046FFF789
:106C00005DFFAA7C67212046FFF758FFEA7C6821D8
:106C10002046FFF753FF2A7D69212046FFF74EFFEC
:106C20006A7D6A212046FFF749FF31462046BDE8CC
:106C30007040FFF754BF1FB501220023CDE90023A8
:106C400003AB8DF80C1080681946FFF7D7FE9DF84E
:106C50000C0005B05DF804FB70B504460E46806874
:106C60000121FFF74EFE054610B90025284670BDEC
:106C700000212046FFF7DFFFA02813D10021204686
:106C8000FFF72DFF20223F212046FFF717FF1E2090
:106C900002F0B6F900212046FFF7CDFFA0280CD066
:106CA0000A20F5E74FF47A7002F0AAF90021204695
:106CB000FFF7C1FFA028D8D1E0E7322002F0A0F909
:106CC00000223E212046FFF7F9FE0A2002F098F943
:106CD000002207212046FFF7F1FE00223F21204637
:106CE000FFF7ECFE0A2002F08BF920463146FFF751
:106CF000F6FE142002F084F9B8E7F8B50F46164600
:106D00000721002204461D46FFF7D8FE27B139218E
:106D10002046FFF790FF387026B136212046FFF756
:106D20008AFF307025B13A212046FFF784FF287092
:106D3000BDE8F840C82002F063B9F8B50E46352129
:106D4000069F15461C46FFF776FF0EB18309337088
:106D500015B1C0F301132B7014B1C0F3810323707C
:106D600017B100F003003870F8BD1FB504460DF1EF
:106D70000F0300930DF10D020DF10E0303A9FFF7B0
:106D8000DCFF237C013B092B17D8DFE803F0052249
:106D9000101E0C13160C1E109DF80E00C31E584238
:106DA000584104B010BD9DF80E30032B14D19DF84E
:106DB0000D00F3E79DF80F30F7E79DF80C30032B3B
:106DC0000AD19DF80D30032B06D19DF80E30032B10
:106DD00002D19DF80F00E1E70020E2E72DE9F04144
:106DE00004460D46FFF7C1FF0646002800F09180DB
:106DF0000021204694F81080FFF771FE192002F060
:106E0000FFF856212046FFF716FF5521074620467A
:106E1000FFF711FF40EA0720288058212046FFF79E
:106E20000AFF572107462046FFF705FF40EA0720E3
:106E300068805A212046FFF7FEFE5921074620466A
:106E4000FFF7F9FE40EA0720A8805C212046FFF703
:106E5000F2FE5B2107462046FFF7EDFE40EA0720E1
:106E6000E8805E212046FFF7E6FE5D2107462046CA
:106E7000FFF7E1FE40EA0720288160212046FFF766
:106E8000DAFE5F2107462046FFF7D5FE40EA0720DD
:106E9000688162212046FFF7CEFE61210746204629
:106EA000FFF7C9FE40EA0720A88164212046FFF7CA
:106EB000C2FE632107462046FFF7BDFE40EA0720D9
:106EC000E88166212046FFF7B6FE65210746204689
:106ED000FFF7B1FE40EA0720288268212046FFF72D
:106EE000AAFE672107462046FFF7A5FE40EA0720D5
:106EF00068826A212046FFF79EFE692107462046E8
:106F0000FFF799FE40EA0720A88241462046FFF796
:106F1000E6FD3046BDE8F0811FB58DF80C1000216C
:106F2000CDE90031134603A901228068FFF766FD11
:106F300005B05DF804FB0000F7B50D4616460021CC
:106F40001822044606F056FC00230093ADF80430E6
:106F5000284606236A463146FFF7DEFF9DF80130DA
:106F60009DF800009DF802709DF8045040EA03204F
:106F70009DF8033047EA03279DF805301A2E45EAAD
:106F8000032500B23FB22DB20DD008D80E2E0AD084
:106F9000142E08D0082E21D0204603B0F0BD282E94
:106FA0001CD02E2EF7E705F067FD194B002205F0E7
:106FB000CDFDC4E90001384605F05EFD144B00220A
:106FC00005F0C4FDC4E90201284605F055FD104B4B
:106FD000002205F0BBFDC4E90401DDE705F04CFD2E
:106FE0000C4B002205F0DCFEC4E90001384605F038
:106FF00043FD084B002205F0D3FEC4E902012846F8
:1070000005F03AFD034B002205F0CAFEE3E700BF9E
:107010000000B03F0000594030B50C4687B005462F
:1070200020220021201D06F0E5FB24232360EB68CD
:1070300063600323A36001F0F7F81A222061294658
:107040006846FFF779FFDDE9000106F077F8606137
:10705000DDE9020106F072F8A061DDE9040106F045
:107060006DF8E061012007B030BD0029F0B566DBA6
:10707000B0F90C408C4262DD002A60DBB0F90E40B2
:1070800094425CDD847E022C5AD0032C61D0012C0A
:1070900004D10489D24314440A4621B2B0F93840DD
:1070A0008C42A8BF0C460487B0F93A409442A8BF6E
:1070B00014464487B0F93C408C42B8BF0C468487E4
:1070C000B0F93E409442B8BF1446C48790F84C4093
:1070D000012C16D1012B42D0022B51D08BB9002AA2
:1070E0000589476B1446B8BFD41DE41014FB051482
:1070F00002F00706012505FA06F63D5D25EA0605BC
:107100003D5590F84C40042C19D1048914FB02F22F
:1071100002EBD27401EBD17242F34F0202EB640234
:10712000446BA05CC9074BBF03F00F0300F00F00D6
:1071300020F00F0040EA031348BF0343A354F0BDFF
:107140000489C94321444489D243224409B212B27A
:10715000A4E74489C9430C44114622B29EE7002AA1
:107160000589466B1446B8BFD41DE41014FB051402
:1071700002F007070125BD40375D3D433555C0E7A7
:10718000002A0589466B1446B8BFD41DE41014FBD1
:10719000051402F007070125BD40375D7D40EDE78E
:1071A00038B50D46114604461AB209B200F096FAF7
:1071B000069A0B4BE262079A23600023C4E9093365
:1071C000C4E90C234FF0FF33C4E910339DF91430A8
:1071D000A364049B84F84C502365204638BD00BF4F
:1071E00080E10D0038B50C4B03600446406B18B1CC
:1071F00001F06EFA00236363656A35B12846FFF734
:1072000003FA3821284602F06DFEA06A10B1102161
:1072100002F068FE204638BD80E10D0030B587B031
:10722000856A8DF80F1004467DB10023CAB2CDE9FE
:1072300000338DF814308DF815200123022205A9A2
:107240002846FFF76DFB07B030BD2946B0F8400077
:1072500002F0B1FD606A00952B4601220DF10F018D
:10726000FFF7CDFAEFE7002914BFA721A621FFF70A
:10727000D5BFF0B5856A85B004460E46174665B1A0
:1072800000230DF10F008DF80F30012300900193C2
:107290002846FFF745FB05B0F0BD2946B0F8400091
:1072A00002F089FD606A00952B463A463146FFF7A9
:1072B000A6FAF0E710B5B0F90A10038990F84C204F
:1072C00012FB03F2CB1D48BF01F10E03DB10044695
:1072D0005A43406B002106F08DFA0023A3632389F3
:1072E000013BA3876389013BE38710BD70B5436B06
:1072F00004460E4615460BB3002D33D1236D002BEB
:1073000050D01020FCF7C7FE054618B1226D31465B
:10731000FFF7DBFAA5621DB301212846FFF7F1FA5A
:10732000F0B12046FFF7C6FF0023A3632389013B8A
:10733000A3876389013BE387012012E02389B4F925
:107340000A2090F84C0010FB03F0D31D48BF02F157
:107350000E03DB10584301F0B3F960630028CBD172
:10736000002070BDA06C0028C8DB012180B202F0B3
:1073700011FDB4F84800012102F01DFD0A2001F0C2
:107380003FFEB4F84800002102F015FD0A2001F08C
:1073900037FEB4F84800012102F00DFD0A2001F08B
:1073A0002FFEABE7606A0028DAD0FFF736F9002835
:1073B000D6D0B4F84000012102F0ECFCB1E707B5EB
:1073C00081238DF80510022201A98DF80430FFF702
:1073D00050FF03B05DF804FB2DE9F04F85B01F4668
:1073E000BDF93880BDF83C30A8EB0209A7EB010AD3
:1073F000B9F1000FB8BFC9F10009BAF1000FB8BF69
:10740000CAF1000AD14583460C46154604DD3A46CA
:107410002C4647460D469046BC4205DD2A46454669
:10742000904622463C4617463E1BB2B20092A8EB5D
:107430000502002AB8BF52420192C6F3C03202FAD6
:1074400086F64545B4BF01224FF0FF327610029216
:10745000BC421CDCDBF800200393D145D2F8188035
:10746000C7BF294622462A4621465846C047019AA8
:10747000039BB61AB1B236B2002E05DA029A154451
:10748000009A56182DB236B2013424B2E0E705B0A6
:10749000BDE8F08F704710B404682469A4465DF815
:1074A000044B604730B40468BDF808500295A46BE3
:1074B000A44630BC604730B40468BDF8085002955B
:1074C000E46BA44630BC604770B4BDF90C50BDF805
:1074D00010600468CDE90356246CA44670BC604774
:1074E0002DE9F3411C460368BDF820805B69054621
:1074F0001646013C34440F4624B298472B68CDF819
:10750000048000949C6A28463B4632463946A04790
:107510002B68DB6A284602B0BDE8F04118472DE928
:10752000F3411D460368BDF820805B690446174699
:107530000E469847CDE9007822686B1E3344956A61
:1075400020461BB23A463146A8472368DB6A2046EC
:1075500002B0BDE8F04118472DE9F3471E46036825
:10756000BDF928905B69BDF82C800C46054617468E
:1075700098472644B4422B680BDACDF80080D3F844
:1075800020A021464B463A4628460134D04724B233
:10759000F0E7DB6A284602B0BDE8F047184713B5AC
:1075A00002680191B0F90E100091146CB0F90C3022
:1075B00000221146A04702B010BD2DE9F3471D4639
:1075C0000368BDF82C805B69BDF9289004460F461E
:1075D000164698472368CDF80080D3F824A0324699
:1075E0002B4639462046D0472368CDF8008009F164
:1075F000FF323244D3F824A039462B46204612B23B
:10760000D0472368CDF80080D3F820A032464B46FF
:1076100039462046D0476B1ED9192368CDF8008023
:107620001D6A20464B46324609B2A8472368DB6AEA
:10763000204602B0BDE8F047184770472DE9F743F0
:1076400099421646BDF92870BDF82C900268804614
:107650000D461C4613D1BE42C8BF3346CDF8289014
:10766000C4BF3E461F467B1C946B9B1B1BB232461D
:1076700029464046A44603B0BDE8F0436047BE42F9
:107680000AD19942C2BF0B4625461C46631CCDF861
:107690002890D46B5B1BE9E753699847CDE90079E3
:1076A000D8F8003040469F6A324623462946B847FC
:1076B000D8F80030DB6A404603B0BDE8F043184715
:1076C00001F00303B0F90A208376C907B0F9083046
:1076D00059BF8381C2818281C381704730B54281A5
:1076E000C281074A074D0181002481814FF0FF319B
:1076F000C0E905124460056004610477046230BD8E
:1077000001010001DCE60D002DE9F04F89B0CDE963
:1077100002120268BDF948800493BDF94C305269E9
:107720000593BDF850A00446904718F107024FF0AA
:10773000000648BF08F10E024FEAE20B01963546FB
:10774000039B019ABDF904109A18059B8B4212B253
:1077500027DD049B33444FF0000906930FFA89F0AC
:1077600080451FFA89F117DD4F0705BF069BC01042
:107770006D001D5C18BFEDB22B060AD5029B206878
:1077800007921944836909B21F4620465346B847F9
:10779000079A09F10109E1E7019B013301935E4476
:1077A000CEE72368DB6A204609B0BDE8F04F1847F2
:1077B0002DE9F04F2DED028B91B01646026ABDF80F
:1077C00074809DF878509DF87C4003911F46BDF869
:1077D000703004938346002A40F0C580B0F90C3025
:1077E0008B4240F34C81B0F90E30B34240F34781F5
:1077F000062313FB0513002B40F3418106EBC40362
:10780000002B40F33C81037F1BB9AF2F84BF0137AE
:10781000FFB2DBF8003058465B69984705220992B1
:1078200000220592984A07EB8703D3180C93B3B252
:107830000693059A0C9B9B5C0793ABB20B93BDF828
:107840000C300893039B02FB05F919FA83F90FFA30
:1078500089F308EE103A08230A93039B02EB030A0C
:107860004FF000090FFA8AFA079ADBF80030D207C6
:1078700052D5012D1FFA89F23ED1012C3CD19B69D2
:1078800006991F46049B0A4412B251465846B8470F
:1078900009F101034FFA83F9079B5B0807930A9BE1
:1078A000013B13F0FF030A93DED1059F01377BB242
:1078B0000593099B013B13F0FF030993B9D1049B86
:1078C00043450FD0012DDBF800303BD1012C39D1DD
:1078D0000899CDF8008005311C6A3246082309B2A8
:1078E0005846A047DBF80030DB6A584611B0BDECC3
:1078F000028BBDE8F04F1847069914FB02F20A44C8
:10790000049901910094DB6918EE101A1F4612B217
:107910002B465846B847BBE7049A4245B8D0012DDC
:107920001FFA89F207D1012C05D19B6906991F46E0
:107930000A444346A8E70699CDF8048014FB02F2F6
:107940000A44DFE70B9ACDF8048002EB8201089A23
:10795000E4000A4411460094DC6932462B4609B221
:107960005846A047BEE7137A516812680D92FF1A75
:10797000FFB201EBC70331F8372006929A780992DB
:10798000DA780B92012D93F9052093F906A00A925B
:1079900001D8012C57D9BDF9283008930FFA8AF382
:1079A0000793DBF8003058465B699847B3B24FF055
:1079B00000080E931AFA86F3C14647460F930B9BB5
:1079C0009F428FD2079B0E9A3B4403FB0423002265
:1079D00005920F9A1BB202EB070A08EE103A0FFA53
:1079E0008AFA4346099A0599914241D25A1CD2B269
:1079F0005B070C9207D1069B06990D9A01339BB247
:107A000012F80190069319F0800F12D0012DDBF8C7
:107A10000030BDF80C101AD1012C18D10A9A9B69BC
:107A20001144059A11441E465246049B09B2584619
:107A3000B047059E0136F3B24FEA490905935FFA54
:107A400089F90C9BCEE70023CDE90733A9E7059818
:107A5000089A024402FB0511049ACDE90042DB6951
:107A600018EE102A1E4609B22B465846B047E0E7EA
:107A7000099B013798445FFA88F8FFB29FE711B07D
:107A8000BDEC028BBDE8F08FD4E10D00F0B5026AC9
:107A900085B004460B46002A34D10A2908D1438A0E
:107AA0000282427E03EBC2036382012005B0F0BD77
:107AB0000D29FAD0E17E007E657E71B1B4F91060C7
:107AC000062111FB0061B4F90C60B142C1BFB4F9E9
:107AD0001210228201EBC5026282E28A0192A28A1E
:107AE0000092CDE90205B4F91220B4F91010204635
:107AF000FFF75EFE237E228A03EB430302EB430380
:107B00002382D2E70A2907D100230382137B417E17
:107B1000428A01FB0323C7E70D29C6D0157AA94283
:107B2000C3D3917A9942C0D351685D1BEDB201EB8A
:107B3000C505AF782FB3E97819B3E17E007E667E84
:107B400091B195F905103944B4F9107000FB017139
:107B5000B4F90C70B94207DD00272782B4F912107E
:107B6000127B02FB06126282E28A0192A28A0092D2
:107B7000CDE90206B4F91220B4F910102046FFF73F
:107B800017FE2979237E228A01FB0323B8E7012906
:107B900038BF01210176417670472DE9F04F044648
:107BA0008BB000F071FBB4F90A30B4F93A50B4F973
:107BB000087094F83890DA1D48BF03F10E02402394
:107BC0008DF82330C2F3C7030393A36ADB68013B3C
:107BD0009BB20493B4F93C30FFB2002DB8BF073517
:107BE00023EAE373B94507F10102C5F3C70528BFCE
:107BF000B94652FA83F305FB079A06934FF0000B40
:107C0000039B9D426BD2636B267A94F8542003EB5E
:107C10000A08069B4A449E1BA36A1111A6EB09069B
:107C2000A5F15000F6B2C0B2103102F00F02002BE5
:107C300035D08DF825008DF826101846E16A8DF8AC
:107C400027208DF824B0FEF7F0FE0123CDE900BB1C
:107C5000A06A042209A9FEF763FE9DF8103005937F
:107C6000A06AAEB1059BB34228BF33461A46012332
:107C700001930DF123030093414601230792FEF780
:107C80004FFE079AB61A9044F6B200F0FDFAE7E705
:107C9000216BFEF7CAFE0135EDB2BA44B0E78DF8AC
:107CA00024008DF82510B4F840008DF826201946E0
:107CB000059302F080F8059B0093032209A9606AEE
:107CC000FEF79DFDB4F84000012102F074F8059B19
:107CD000606A009332464146FEF791FDDBE74FF0C4
:107CE00004224FF0FF33C4E90E230BB0BDE8F08F40
:107CF00030B585B004460A9D0395099D02959DF90E
:107D00002050CDE9003513460A460121FFF748FA15
:107D1000034B23602046002384F8543005B030BD67
:107D200034E70D0010B5034B03600446FFF75AFA21
:107D3000204610BD34E70D0010B5034B0360044628
:107D4000FFF7F0FF204610BD70E90D0010B50446A6
:107D5000FFF7F2FF2046582102F0C4F8204610BD7C
:107D600030B585B004460A9D0295099D01959DF99F
:107D700020500095FFF7BCFF024B2360204605B062
:107D800030BD00BF70E90D0030B5044685B0FFF787
:107D9000ADFA2F212046FFF712FBA2682F4B9A4223
:107DA00021D1236801211B6B20469847B4F9082094
:107DB000B4F90A102023203A73390125CDE90135A1
:107DC00002EBD272732301EBD171009341F34F01A7
:107DD000234B204642F34F02FFF796FC2368002115
:107DE0001B6B20469847A368B3F1801F17D1B4F9E5
:107DF0000820B4F90A1020230120203A7339CDE974
:107E0000013002EBD272732301EBD171009342F384
:107E10004F02134B41F34F012046FFF775FC114908
:107E200016222046FFF725FA054618B900252846F0
:107E300005B030BDA368B3F1801F07D0642001F006
:107E4000DFF8AF212046FFF7E9F9F0E70649042201
:107E50002046FFF70EFA0028F0D1E7E74000800047
:107E600088E70D00C8E90D00C4E90D00002202609A
:107E70000271704773B5054610200E460192FCF75B
:107E80000AF9044618B1019A3146FEF71EFD012198
:107E900020462C602E7102B0BDE87040FEF731BD67
:107EA00030B5002385B0CDE9003349BA0546ADF8B9
:107EB0000C108DF80E2000680123032203A9FEF7A1
:107EC0002FFD60B16524013C14F0FF0407D0286841
:107ED000FEF702FD20B9012001F092F8F3E700203F
:107EE00005B030BD1FB501230022CDE9003249BAEB
:107EF00003ABADF80C10006802221946FEF77EFDB8
:107F000008B19DF80C0005B05DF804FB002202608A
:107F1000C260002241710261704710B501238AB02E
:107F2000CDE900330223016804461A4604A8FEF78F
:107F30009FFA0DF10E0104A8FEF74FFB2071BDF86A
:107F40000E00C01080000AB010BD10B501228AB02A
:107F5000CDE9002204460168022304A8FEF788FA4E
:107F60000DF10E0104A8FEF738FB2071BDF90E00DB
:107F70000AB010BD30B5012591B0CDE900550446D9
:107F800001680223052204A8FEF772FAA168022202
:107F900004A8FEF7C4FA216802230422CDE90055A3
:107FA0000AA8FEF765FA0DF10E010AA8FEF715FB07
:107FB0002071BDF90E0011B030BD30B5012591B072
:107FC000CDE90055044601680223052204A8FEF706
:107FD0004FFAA168022204A8FEF7A1FA2168022341
:107FE0000322CDE900550AA8FEF742FA0DF10E0171
:107FF0000AA8FEF7F2FA2071BDF90E0011B030BDEB
:1080000008B5FFF7A2FF04F037FD05A3D3E900236D
:1080100004F09CFD05F092F800EE100A08BD00BFC8
:108020007B14AE47E17A843F08B5FFF776FF04F092
:1080300023FD05A3D3E9002304F088FD05F07EF8B5
:1080400000EE100A08BD00BFFCA9F1D24D62503FFE
:1080500010B50446FFF78EFF07EE900AB8EEE70A68
:10806000D4ED037AF8EE677A80EE270A10BD10B5DA
:108070000446FFF7A2FF07EE900AB8EEE70AD4ED38
:10808000047A20EE270A10BD30B54FF480520A233F
:108090008FB0C0E9022301254FF080430361CDE991
:1080A0000055044601680223052202A8FEF7E0F904
:1080B000A168022202A8FEF732FA21680223CDE964
:1080C0000055002208A8FEF7D3F9022243F69F11BB
:1080D00008A8FEF724FA20710FB030BD37B5036849
:1080E000044653B910200191FBF7D5FF054618B19E
:1080F000019A6179FEF7E9FB256020680121FEF70E
:1081000000FC054610B12046FFF7BEFF284603B02D
:1081100030BD30B54FF4005214238FB0C0E90223B4
:1081200001254FF07E530361CDE9005504460168F7
:108130000223052202A8FEF79BF9A168022202A8E9
:10814000FEF7EDF921680223CDE90055002208A8C9
:10815000FEF78EF9022240F29F1108A8FEF7DFF920
:1081600020710FB030BD000008B5024B1B689B6842
:10817000019308BD6802030008B5024B1B68DB6869
:10818000019308BD6802030008B5024B1B685B68D9
:10819000019308BD2C02030008B5024B1B689B68C5
:1081A000019308BD2C02030008B5024B1B68DB6875
:1081B000019308BD2C02030008B5024B1B681B6924
:1081C000019308BD2C02030008B5024B1B685B69D4
:1081D000019308BD2C02030008B5024B1B689B6984
:1081E000019308BD2C02030008B5024B1B68DB6934
:1081F000019308BD2C02030008B5024B1B681B6BE2
:10820000019308BD2C02030008B5024B1B685B6894
:10821000019308BD1802030008B5024B1B68DB6818
:10822000019308BD1802030008B5024B1B685B6987
:10823000019308BD1802030008B5024B1B689B6A36
:10824000019308BD1802030008B5024B1B685B6C64
:10825000019308BD1802030008B5024B1B689B6C14
:10826000019308BD1802030008B5024B1B689B6D03
:10827000019308BD1802030008B5024B1B685B6E32
:10828000019308BD1802030008B5024B1B68DB68A8
:10829000019308BD4802030008B5024B1B685B6CE4
:1082A000019308BD4802030008B5024B1B685B69D7
:1082B000019308BD6402030008B5024B1B681B68EC
:1082C000019308BD3C02030008B5024B1B68DB6844
:1082D000019308BD3C02030008B5024B1B681B69F3
:1082E000019308BD3C02030008B5024B1B685B69A3
:1082F000019308BD3C02030008B5024B1B689B6953
:10830000019308BD3C02030008B5024B1B68DB6902
:10831000019308BD3C02030008B5024B1B681B6AB1
:10832000019308BD3C02030008B5024B1B689B6A21
:10833000019308BD3C02030008B5024B1B681B6893
:10834000019308BD2802030008B5024B1B68DB68D7
:10835000019308BD2802030008B5024B1B689B6906
:10836000019308BD2802030008B5024B1B68DB69B6
:10837000019308BD2802030008B5024B1B681B6A65
:10838000019308BD2802030008B5024B1B685B6A15
:10839000019308BD2802030008B5024B1B689B6AC5
:1083A000019308BD2802030008B5024B1B68DB6A75
:1083B000019308BD2802030008B5024B1B681B6B24
:1083C000019308BD2802030008B5024B1B685B6BD4
:1083D000019308BD2802030008B5024B1B681B6C03
:1083E000019308BD2802030008B5024B1B681B6DF2
:1083F000019308BD2802030008B5024B1B681B68E7
:10840000019308BD3002030008B5024B1B685B698D
:10841000019308BD3002030008B5024B1B68DB69FD
:10842000019308BD3002030008B5024B1B681B6AAC
:10843000019308BD3002030008B5024B1B685B6A5C
:10844000019308BD3002030008B5024B1B689B6A0C
:10845000019308BD3002030008B5024B1B689B6BFB
:10846000019308BD3002030008B5024B1B68DB6BAB
:10847000019308BD3002030008B5024B1B681B6C5A
:10848000019308BD3002030008B5024B1B685B6C0A
:10849000019308BD3002030008B5024B1B681B683E
:1084A000019308BD4C02030008B5024B1B685B68D2
:1084B000019308BD4C02030008B5024B1B681B6901
:1084C000019308BD4C02030008B5024B1B685B69B1
:1084D000019308BD4C02030008B5024B1B689B6961
:1084E000019308BD4C02030008B5024B1B68DB6911
:1084F000019308BD4C02030008B5024B1B681B6AC0
:10850000019308BD4C02030008B5024B1B685B6A6F
:10851000019308BD4C02030008B5024B1B685B6B5E
:10852000019308BD6002030008B5024B1B681B687D
:10853000019308BD2002030008B5024B1B685B686D
:10854000019308BD2002030008B5024B1B685B695C
:10855000019308BD2002030008B5024B1B68DB6CC9
:10856000019308BD2002030008B5024B1B685B6D38
:10857000019308BD2002030008B5024B1B689B6DE8
:10858000019308BD2002030008B5034B1B68D3F814
:108590008830019308BD00002002030008B5034B9A
:1085A0001B68D3F89430019308BD0000200203003B
:1085B00008B5024B1B685B68019308BD40020300CD
:1085C00008B5024B1B689B68019308BD400203007D
:1085D00008B5024B1B68DB68019308BD400203002D
:1085E00008B5024B1B681B69019308BD40020300DC
:1085F00008B5024B1B685B69019308BD400203008C
:1086000008B5024B1B689B69019308BD400203003B
:1086100008B5024B1B68DB69019308BD40020300EB
:1086200008B5024B1B681B6A019308BD400203009A
:1086300008B5024B1B681B6B019308BD4002030089
:1086400008B5024B1B685B6B019308BD4002030039
:1086500008B5024B1B681B6C019308BD4002030068
:1086600008B5024B1B685B6C019308BD4002030018
:1086700008B5024B1B689B68019308BD44020300C8
:1086800008B5024B1B685B69019308BD44020300F7
:1086900008B5024B1B681B6A019308BD4402030026
:1086A00008B5024B1B681B6B019308BD4402030015
:1086B00008B5024B1B68DB6B019308BD4402030045
:1086C00008B5024B1B681B68019308BD1C02030020
:1086D00008B5024B1B685B68019308BD1C020300D0
:1086E00008B5024B1B689B68019308BD1C02030080
:1086F00008B5024B1B685B6A019308BD1C020300AE
:1087000008B5024B1B68DB6A019308BD1C0203001D
:1087100008B5024B1B681B6B019308BD1C020300CC
:1087200008B5024B1B68DB6B019308BD1C020300FC
:1087300008B5024B1B685B6C019308BD1C0203006B
:10874000002240681146FFF76BBF002240681146C7
:10875000FFF776BF40680022FFF76ABF406800223B
:1087600081F00101FFF754BF002340681A46194603
:10877000FFF746BF002340681A461946FFF738BF87
:10878000002240681146FFF72BBF002240681146C7
:10879000FFF716BF406800220221FFF719BF002330
:1087A00040681A46FFF704BF024B03225A60024A90
:1087B0001A60704784E50320E8E90D000021FFF707
:1087C0005BBE0021FFF760BE10B50446084621706D
:1087D000FFF722FE00236360204610BD10B504465B
:1087E0000078FFF7EBFF48B920784FF6FF71FFF7ED
:1087F00003FE2078BDE81040FFF7E3BF10BD00780E
:10880000FFF7DFBF400830B51860002418688842C1
:10881000E5B206D90134082C02D040081860F5E70B
:108820000725024B5B5D137030BD00BF1CEA0D00D5
:108830002DE9F04306468FB000780C46FFF7BEFFE7
:1088400000281BDB35781422002109A804F0D2FF90
:108850000B23002209A92846ADF82430FFF7ECFDD0
:108860009DF82D3013B19DF82C5055B10027B94615
:10887000B846012523795DB1C3B100200FB0BDE832
:10888000F083DDF830809DF834909DF83570F1E785
:10889000002B35D1A368434508D18DF820908DF881
:1088A0002170BDF82020A3899A42E6D00023A16858
:1088B0008DF80F300A9804AB0DF10F02FFF7A2FFFD
:1088C000217985B989B9A36843450ED38DF82090E5
:1088D0008DF82170BDF82020A3899A4205D1049B10
:1088E000434502D1C9E70029F9D100230193637BF5
:1088F00000939DF80F20237B3078FFF7B5FDBCE790
:10890000CDE900552B462A460121F5E708B5007848
:10891000FFF77AFDC0B208BD30B587B004460A9DA6
:1089200000950078FFF790FD3DB9207802A9FFF788
:1089300093FD9DF81430DB07F7D407B030BD00007D
:10894000054B02221A60054B054A9A600020186008
:1089500098809871FFF7F0BD98E503208CE503201F
:108960000000FFFF10B5044604F08DFF0138231806
:108970002046834206D90278197800F8011B03F8D3
:108980000129F6E710BD70B50C46911E2229054657
:1089900022D820466DB1B5FBF2F602FB1655E9B2BE
:1089A000092D94BF30315731C9B200F8011B35464B
:1089B000F0E7024623443021934202D902F8011B1A
:1089C000FAE71A1A834238BF002200238354204654
:1089D000FFF7C8FF204670BD0020FCE72DE9F047F7
:1089E00057EC106B80460C4610EE100A0022002354
:1089F000394604F01DFB28B107F100431F462D2323
:108A000004F8013B00234FF001090A22D9B288453E
:108A100003D902FB09F90133F8E7484604F02CF8C2
:108A200032463B4604F092F806460F4604F04CFDF1
:108A300005468A4604F054F802460B46304639464D
:108A400003F0CCFE134B002204F006FB10B10135FD
:108A50004AF1000A4A462846D317514604F01CFD45
:108A60000123154621460A22FFF78DFFB8F1000FBA
:108A70000DD0204604F007FF2E23211823540A228C
:108A8000434628460131BDE8F047FFF77CBFBDE80B
:108A9000F08700BF0000E03F10B504460068FFF714
:108AA00017FE204610BD10B50446006808B1FFF758
:108AB0000FFE0023C4E90133236010BD38B504461E
:108AC0000D4600680131FFF70BFE10B1C4E9000547
:108AD000012038BD10B50368044623B143688B42BA
:108AE00001D3012010BD2046FFF7E8FF0028F9D090
:108AF000A368002BF5D122681370F2E737B50D4655
:108B0000114601920446FFF7E5FF019A28B9204675
:108B1000FFF7C9FF204603B030BDA2602946206898
:108B200004F05AFE2268A3680021D154F2E713B57D
:108B3000044659B10846019104F0A5FE0199024688
:108B40002046FFF7DBFF204602B010BDFFF7ABFF6A
:108B5000F9E710B504468AB000230846C4E900339B
:108B6000A360237301A9C0B2FFF738FF01A9204613
:108B7000FFF7DDFF20460AB010BD10B503680446BC
:108B80009B689847A368013BA3602BB923682046E4
:108B9000DB68BDE81040184710BD0B68036013B1D7
:108BA0005A6801325A60704710B50446006828B10F
:108BB0004368013B43600BB9FFF7DFFF204610BD60
:108BC000024800230360FFF767BB00BF9CE503205A
:108BD000F8B506460D468F180024BD420CD0336808
:108BE00015F8011B9B6830469847031E01DB1C44A7
:108BF000F3E7002C08BF1C462046F8BD13B5044619
:108C0000084659B1019104F03EFE23680199DB68E2
:108C10000246204602B0BDE81040184702B010BD21
:108C200008B5FFF7EBFF08BD03689B68184708B558
:108C3000FFF7E4FF08BD38B50D210546FFF7F4FF47
:108C40000A2104462846FFF7EFFF204438BD38B517
:108C50000546FFF7D3FF04462846FFF7ECFF204404
:108C600038BDFFF7F4BF30B58BB000238DF824304A
:108C7000012A98BF0A2209AC0D46B1FBF2F101FBB3
:108C8000125303F0FF03092B94BF30333733DBB2A9
:108C9000AA4204F8013DEFD92146FFF7AFFF0BB020
:108CA00030BD2DE9F04F93B019469DF87050012D5D
:108CB0004FF0000398BF0A2582468DF844301046D5
:108CC0000DF1440B5FFA85F84FF0000942464B4620
:108CD00006460F4604F0E0FB05FB106404F0FF04B9
:108CE000092C94BF303437344F45E4B208BF4645B1
:108CF0000BF8014DEAD259465046FFF77FFF13B0FB
:108D0000BDE8F08F2DE9F74F55EC104B06460F46A6
:108D100010EE102A10EE100A2B46294604F0B0F986
:108D200040B153493046FFF769FF8246504603B0D1
:108D3000BDE8F08F25F000494E4B4FF0FF32204642
:108D4000494604F09DF948B94A4B4FF0FF3220469E
:108D5000494604F077F908B94749E3E7474B4FF034
:108D600060422046294604F081F908B14449D9E718
:108D7000444B4FF060422046294604F059F9002840
:108D8000F4D1002200232046294604F051F9D0B145
:108D90002D213046FFF748FF05F1004382461D466E
:108DA0003949DFF8EC904FF0000B00204FF000083D
:108DB0005FFA8BF39F4208D942464B4603F0F0FF1F
:108DC0000BF1010BF4E78246EAE722462B4603F05B
:108DD00007FD0D46044604F091F9804603F03CFE81
:108DE00002460B462046294603F0F8FC0A220446B8
:108DF0000D4630464146FFF736FF824427B12349EE
:108E00003046FFF7FBFE8244DFF884904FF0000805
:108E1000013FFFB2FF2F89D042464B4620462946EC
:108E200003F094FE04460D4604F040F9B0F1000B47
:108E30001ADA2D213046FFF7F7FECBF10001034689
:108E40000A2230460193FFF70EFF019B184482442B
:108E5000584603F011FE02460B462046294603F011
:108E6000BDFC04460D46D3E759460023E8E700BFA2
:108E700024EA0D00FFFFEF7F28EA0D00FFFFEF411E
:108E80002CEA0D00FFFFEFC10000E03F04E00D0001
:108E90000000244038B5044610EE100ACDB203F0AD
:108EA000FDFD41EC100B29462046BDE83840FFF798
:108EB00029BFC9B2FFF726BF38B5C9B20546FFF7CB
:108EC00021FF04462846FFF7B6FE204438BD38B5DA
:108ED000044610EE100A0D4603F0E0FD41EC100BC5
:108EE00029462046BDE83840FFF7E6BF2DE9F041AE
:108EF00086B000AF05460E46381D142114463B606F
:108F0000FFF7F6FB13280ED8391D2846FFF776FE2B
:108F100004461EB12846FFF78EFE0444204618374B
:108F2000BD46BDE8F08100F1080323F00703E846E1
:108F3000ADEB030D2246411C3B686846FFF7D8FBAA
:108F400069462846FFF75AFE0446C546E1E7000099
:108F5000014B024A1A607047A0E5032030EA0D0079
:108F600008B50020FFF79CFB28B1FFF789FB80F0D4
:108F70000100C0B208BD0120FCE710B50020FFF7DA
:108F800073F90446A0B9FFF7CFFA012810D12046A3
:108F9000FFF7F2FA60B9FFF7E3FF10B9FFF768FBDC
:108FA000F9E7FFF7DDFFBDE810400020FFF75CB9EF
:108FB000204610BD1FB5FFF7E0FF102200216846D4
:108FC00004F018FC00216846FFF756F9009805B038
:108FD0005DF804FB024B1A68024B1A60704700BF31
:108FE000D0E30320A4E503208A4210B507D0029CF9
:108FF000401AE41A6043521A90FBF2F0184410BD74
:109000000021FFF7A1BA10B58368044613B103220B
:1090100001469847204610BD13B50B460246D0E9DD
:1090200000016C4684E8030093E8030082E8030033
:1090300094E8030083E8030002B010BD014B002256
:109040009A607047A8E50320014B1860704700BF85
:10905000D8E3032008B50B4B43B100F003FC0368D1
:109060001B699847002801DDAFF30080064B43B130
:1090700000F0EAFC03681B699847002801DDAFF3A4
:10908000008008BD000000000000000008B5FFF7E8
:10909000E1FFFFF7C9F8014B186008BD30E7032076
:1090A0000548064A064908B5121A04F095FB054B17
:1090B000054A1A6008BD00BF00F4032004F4032031
:1090C00048F00D0000F403201E1C279A07B500236A
:1090D00000931A466FF07701FFF760FA03B05DF86E
:1090E00004FB000007B543880A2B08D0502B0BD196
:1090F000094B1B684BB103B05DF804EB1847FFF751
:10910000E5FF03B05DF804FB002300931A466FF0FF
:109110007701FFF743FAF4E7BCE5032010B51248E6
:109120000021FFF705FB114B1A68114B9A42114BB6
:109130000CBF012200221A7001D0FFF7B1FFFFF728
:1091400063F8044604F05EFB0B4B13B12046AFF30B
:10915000008000210848FFF7ABFABDE8104007483F
:109160000021FFF711BA00BF49900D0000F4032061
:109170001E1C279AB8E5032000000000E5900D00B2
:1091800070470020704710B51021044600F0AAFE79
:10919000204610BD08B5FFF7F6FF08BD30B5002228
:1091A0004FF69C74026084808D888C800C6885806A
:1091B00004600A6030BD10B504460068FFF788FA05
:1091C000204610BD38B5C468F4B12378022B03D112
:1091D00004F10C00FFF7EFFF656835B12846FFF793
:1091E00012FF1021284600F07DFEA56835B1284603
:1091F000FFF709FF1021284600F074FE20461421D5
:10920000BDE8384000F06EBE38BD73B50E4604466A
:1092100056F8043B00930D4601A83146FFF7BDFC0C
:10922000019A009B6260236001A8002301930093D0
:10923000FFF7BAFC3046FFF7B7FC2846082100F0DC
:1092400051FE204602B070BD826810B50AB900F028
:109250004DFEBDE81040C368184708B5006800F12E
:109260001001FFF7F1FF08BD826810B50AB900F0E0
:109270003DFEBDE81040C368184708B5006800F11E
:109280001001FFF7F1FF08BD38B500230446036065
:1092900010200D46FAF7FFFE28B10123C0E9013383
:1092A000024B0360C5602060204638BD58EA0D00BF
:1092B00038B5002383608B6804460D462BB102222B
:1092C0009847EB68E360AB68A360204638BD0000B8
:1092D000F0B589B004686846FFF760FF4FF00203FD
:1092E000D4E84F2F002A03D1C4E8413F0029F7D129
:1092F00025D104F10C0569462846FFF74FFFBFF35F
:109300005B8F01236370002004F10803BFF35B8FC0
:1093100053E8006F43E80002002AF9D1BFF35B8FE6
:109320006EB1FFF719F978B129463046FFF78CFF87
:109330003046FFF768FE1021304600F0D3FD684646
:10934000FFF739FF09B0F0BD314602A8FFF7B0FFC3
:10935000E068B4F9105008B104F078FA06901020D3
:10936000ADF81C50FAF797FE0546E8B10027876074
:109370001820FAF790FE044688B10146876002A8DB
:10938000FFF74AFE049BA268A360059B049206A90E
:10939000E268E36004F110000592FFF7FFFE084B5E
:1093A000EB60084B2C60AB6006A8FFF704FF02A837
:1093B000FFF729FE002229460348FFF7D5F8B7E753
:1093C0005B920D00F1940D00959A0D002DE9F04788
:1093D0008AB005469DF848900C4617469846FFF718
:1093E0004FF907AE824638BB4FF62E73059005A99C
:1093F0003046ADF81830FFF7D1FE1420FAF74BFED7
:10940000044648B1022303700123C0E901AA437056
:1094100031460C30FFF7C2FE2846214640F8044B87
:10942000FFF732FF3046FFF7C6FE05A8FFF7C3FE81
:1094300028460AB0BDE8F0870C234FF0000A14203C
:10944000CDE908AA0793FAF726FE014628B1C0E93C
:1094500001AA80F800A080F801A004A80391FFF7FA
:1094600013FF224B08930820FAF715FE824628B115
:10947000039B40F8043B04A9FFF78FFB00965FFABB
:1094800089F3424639462046CDF824A0FFF700F97B
:10949000B8B9039B5B7803F0FF0293B94FF69C7356
:1094A00005A903A80592ADF81830FFF711FF05A82C
:1094B000FFF781FE05A80999FFF7A7FE06A8FFF7A9
:1094C00073FB039B059304A906A8FFF766FB059BA6
:1094D000069A2B606A60002306A806930593FFF79F
:1094E00063FB04A8FFF760FBA2E700BFB5950D0082
:1094F000022AF8B5054607D0032A18D0012A01D15F
:109500000B6803600020F8BD18200E68FAF7C3FD51
:10951000044650B13146FFF7CBFE3069B6F91470FE
:1095200008B104F093F92061A7822C60EAE704688F
:10953000002CE7D004F11000FFF73DFE2046FFF7B6
:1095400062FD1821204600F0CDFCDBE738B5002392
:1095500083608B6804460D462BB102229847EB6866
:10956000E360AB68A360204638BD022A70B50446AC
:1095700007D0032A12D0012A01D10B680360002012
:1095800070BD14200E68FAF786FD054620B13146FD
:10959000FFF7DCFF337C2B742560F0E70468002CB8
:1095A000EDD02046FFF72FFD1421204600F09AFC55
:1095B000E5E70000F0B589B004460D4601A8114664
:1095C000FFF723FEA4B124B21DB1284604F03EF9F2
:1095D000054601A803A90395ADF81040FFF778FEF2
:1095E00003A8FFF7E8FD02A8FFF7DEFA09B0F0BD17
:1095F000019D0123D5E84F2F002A03D1C5E8413F43
:109600000029F7D1EFD12B73BFF35B8F6B702B1D4C
:10961000BFF35B8F53E8006F43E80042002AF9D1A3
:10962000BFF35B8F002EDED02046FEF795FF074686
:1096300060B105F10C013046FFF716FE3046FFF72A
:10964000E2FC1021304600F04DFCCCE7314603A887
:10965000FFF77CFF2B7B8DF81C301020FAF71BFDE9
:109660000546D0B187601420FAF715FD044678B19D
:109670008760014603A8FFF7CFFC059BA268A360A3
:10968000069B0592E268E3609DF81C300692237405
:10969000064BEB60064B2C60AB6003A8FFF7B3FCF6
:1096A000002229460348FEF75FFFC7E77B920D00C3
:1096B0006B950D00959A0D00704710B51821044662
:1096C00000F010FC204610BDF0B5037D062B8DB0D8
:1096D0000E4600F104074FF0000412D000F1080517
:1096E00015F8011D0A223046FFF7BDFAAF420444C7
:1096F00019D0002CF4D02E213046FFF795FA0444FF
:10970000EEE72F236A4639460A208DF80040FEF71F
:10971000CBFD684604F0B7F833680246DB6869465B
:1097200030469847044620460DB0F0BD10B5054BB5
:109730000446112240F8043B002104F05BF8204667
:1097400010BD00BF74EA0D000346074A10B543F888
:10975000042B01F1100251F8044B43F8044B9142E1
:10976000F9D10A781A7010BD74EA0D0010B59DF891
:10977000084044EA032343EA024242EA0161042327
:109780004160037510BD13B5CB7800938B784A7890
:109790000978FFF7EBFF02B010BD417470477047C6
:1097A000704708B50021007CFEF796FE40EAE070A5
:1097B00008BD08B50121007CFEF78EFE40EAE0708E
:1097C00008BD08B5007CFEF77FFE20EAE07008BD0A
:1097D00008B5007CFEF770FE20EAE07008BD13B506
:1097E0000446007C0191FEF76FFE0028019901DC20
:1097F000607C20B1207CFEF777FE20EAE07002B0AA
:1098000010BD007CFEF778BE10B51421044600F0B0
:1098100069FB204610BD000010B54FF47A73044672
:1098200008460021C4E90113044B2360012320747E
:1098300063741146FEF730FE204610BD88EA0D0025
:10984000007C0022FEF730BE007CFEF75DBEFFF715
:10985000FBBF10B514220446002103F0CBFF2046C5
:1098600010BD000010B50F4C88B003A8FFF7F1FF42
:109870002178BFF35B8F11F001010FD120460191D8
:10988000FAF71AFC019948B103AA0748FFF7C4FF89
:109890002046FAF716FC054803F098FF024808B086
:1098A00010BD00BFC0E50320C4E503209F970D0055
:1098B000004700002DE9FF4100241D460F46904659
:1098C0000646FEF791FCA5424FF00403ADF80D40AB
:1098D0008DF80C308DF80F40A2BF9DF828308DF820
:1098E0000E3003AC0749009443463A463046A8BFC1
:1098F0008DF80D50FEF770FCB0FA80F0400904B00E
:10990000BDE8F081B1980D00002240681146FEF7D5
:1099100067BE002240681146FEF782BE0022406802
:109920001146FEF78DBE40680022FEF781BE4068FA
:10993000002281F00101FEF76BBE002340681A4649
:109940001946FEF75DBE002340681A461946FEF729
:109950004FBE002240681146FEF732BE406800222A
:109960000221FEF735BE002340681A46FEF720BEEE
:10997000084B10B5282422461846002103F03AFF70
:10998000054B04804FF0FF32426004225A60034AC4
:109990001A6010BDE0E50320D8E50320B8EA0D0009
:1099A000704741747047704708B5007CFEF7BCFCF7
:1099B00020EAE07008BD08B5007CFEF78DFC20EAC7
:1099C000E07008BD08B5007CFEF796FC40EAE07048
:1099D00008BD08B5007CFEF787FC40EAE07008BDD2
:1099E000007CFEF791BC37B5457C04462DB1207C48
:1099F00003B0BDE83040FEF767BC007C0191FEF784
:109A000093FC00280199F2DC284603B030BD10B564
:109A10001421044600F066FA204610BD10B54FF040
:109A2000000C0446084611464FF47A72C4E901C29C
:109A3000044A22600122207462741A46FEF73CFC3C
:109A4000204610BDF4EA0D0013B50D4C2178BFF38C
:109A50005B8F11F0010110D120460191FAF72CFB28
:109A6000019950B1074B084A0848FFF7D7FF204635
:109A7000FAF727FB064803F0A9FE044802B010BD20
:109A800008E6032090E603200CE6032014E70320F9
:109A9000A7990D0010B5836804460BB900F026FAAB
:109AA000C3689847A3681BB1032221462046984704
:109AB00020461021BDE8104000F014BA7047F8B5F8
:109AC000064615460C468F18BC4206D0336814F87B
:109AD000011B9B6830469847F6E72846F8BD007C96
