:02000002D0002C
:1040000000400D00ACF30D00000006000D0005019E
:0840100004019A080000000001
:04401800F4DA0D00C9
:1040200009480A49884208B505D0094A824202D0A7
:10403000121A09F07FFC0748074A0021121A09F0FA
:1040400087FC014808BD00BF28E303200CF30D00E6
:10405000A0E30320A0E30320EDE7032070B5074EA3
:10406000074C05F029F9A41BA4080025A54200D19E
:1040700070BD56F8043B98470135F7E7D8F20D00BC
:10408000FCF20D0001F0F2BB08B501F0A7F8BDE8A5
:10409000084005F0C9B804F04FBC04F04DBC04F072
:1040A00053BC000008B5034A00210C2004F070FB4B
:1040B000FEE700BF91840D000078B0FA80F040095F
:1040C000704701230370704710B5074C04F0E8F9FE
:1040D0002368C01A162806D9044A136801331360EE
:1040E00004F0DEF9206010BDA0E30320A4E3032068
:1040F000F8B50C1E074616460CDA0A2A0AD12D21FD
:1041000004F082FE61420546F2B2384604F097FEA2
:104110002844F8BD21460025F6E7F8B50C1E0746F1
:1041200016460CDA0A2A0AD12D2104F06DFE6142EE
:104130000546F2B2384604F082FE2844F8BD214616
:104140000025F6E7F8B5074613480E4615461C4607
:1041500001F03CFF9FED117ADFED117A0E48E0EEA1
:10416000077AC7ED007A01F05FFF9FED0E7A0A48EB
:10417000C0EE077A9FED0C7A67EE877AC6ED007A7B
:1041800002F0CEF8044885ED000A9FED080A02F01F
:1041900027F884ED000AF8BDB8E303206666E63F21
:1041A0000000004280E6C54700003E4400507D44C8
:1041B000F8B514461D460E46074605F021FC244975
:1041C00004F01EFE05F01CFC97ED000A022104F02D
:1041D0004DFF05F015FC1F4904F025FE05F010FC0D
:1041E0001D4904F00DFE05F00BFC96ED000A0221BE
:1041F00004F03CFF05F004FC184904F014FE05F03F
:10420000FFFB174904F0FCFD05F0FAFB95ED000AF1
:10421000022104F02BFF05F0F3FB124904F003FE2A
:1042200005F0EEFB104904F0EBFD05F0E9FB94ED21
:10423000000A022104F01AFF05F0E2FB0B4904F02A
:10424000F2FD05F0DDFBBDE8F84004F0E0BD00BF85
:1042500008DB0D0019DB0D001CDB0D0028DB0D0059
:104260002EDB0D0042DB0D0045DB0D0051DB0D00A8
:1042700030B53B4D3B488BB0694602F04FFD05F031
:10428000BFFB294604F0CFFD05F0BAFB364904F028
:10429000B7FD05F0B5FB694604F0C5FD05F0B0FBC0
:1042A000324904F0ADFD05F0ABFB0A220399044648
:1042B000FFF71EFF204604F0AAFD05F0A1FB2C49E4
:1042C00004F09EFD05F09CFB0A2204990446FFF7CA
:1042D0000FFF204604F09BFD264C05F091FB26497C
:1042E00004F08EFD05F08CFB9DED060A022104F022
:1042F000BDFE05F085FB214604F095FD05F080FB31
:104300001E4904F07DFD05F07BFB9DED070A0221AF
:1043100004F0ACFE05F074FB214604F084FD05F0CA
:104320006FFB174904F06CFD05F06AFB9DED080A70
:10433000022104F09BFE05F063FB214604F073FDAF
:1043400005F05EFB294604F06EFD05F059FB0D49B2
:1043500004F069FD4FF4FA7004F020FF0BB030BD9B
:1043600054DB0D002CE4032079DB0D0088DB0D000D
:1043700097DB0D00B5DB0D00A6DB0D00BADB0D00F1
:10438000C9DB0D0083DD0D0038B5044605F038FBB0
:104390004C494D4D04F047FD05F032FB4B4904F00C
:1043A0002FFD05F02DFB0A22B4F90010FFF7B5FE32
:1043B00005F026FB294604F023FD05F021FB0A2227
:1043C000B4F90210FFF7A9FE05F01AFB294604F024
:1043D00017FD05F015FB0A22B4F90410FFF79DFE46
:1043E00005F00EFB294604F00BFD05F009FB3849EA
:1043F00004F006FD05F004FB0A22B4F90C10FFF7E7
:104400008CFE05F0FDFA294604F0FAFC05F0F8FAF6
:104410000A22B4F90E10FFF780FE05F0F1FA2946E2
:1044200004F0EEFC05F0ECFA0A22B4F91010FFF7E4
:1044300074FE05F0E5FA294604F0E2FC05F0E0FA26
:10444000244904F0DDFC05F0DBFA0A22B4F9061079
:10445000FFF763FE05F0D4FA294604F0D1FC05F01D
:10446000CFFA0A22B4F90810FFF757FE05F0C8FA90
:10447000294604F0C5FC05F0C3FA0A22B4F90A1073
:10448000FFF74BFE05F0BCFA294604F0B9FC05F035
:10449000B7FA114904F0B4FC05F0B2FA0A22B4F9F3
:1044A0001210FFF73AFE05F0ABFA0C4904F0A8FC35
:1044B00005F0A6FAB4F914100A22BDE83840FFF757
:1044C0002CBE00BFD8DB0D008DDE0D00EFDB0D0034
:1044D000FFDB0D0007DC0D000EDC0D001EDC0D0007
:1044E0002DE9F04F2DED088B97B000238DF80F309C
:1044F0000DF10F0300930DF10D020DF10E0303A951
:10450000DB48DFF8A483DFF8A4A3DFF8A493DFF887
:10451000A4B39FEDD89A02F080FD04A8D4490822E4
:1045200002F07AFE0AA8D249142202F075FE10A801
:10453000CF490E2202F070FEDDE90801C2A3D3E9E3
:10454000002308F0F9FCC0A3D3E9002341EC180BC9
:10455000DDE9040108F0F0FCB0EE481AF0EE681A4C
:1045600041EC100B05F026FE53EC102B10EE100A58
:1045700003F100410022C04B08F0B4FBB4A3D3E91F
:10458000002308F0D9FCBD4B002208F0ABFB08F07B
:10459000A1FEADA3D3E90023C8F80000DDE90801BE
:1045A00008F0CAFCA8A3D3E9002341EC180BDDE90D
:1045B000060108F0C1FCB0EE481AF0EE681A41ECB2
:1045C000100B05F0F7FD53EC102B10EE100A03F161
:1045D00000410022A84B08F085FB9DA3D3E90023EE
:1045E00008F0AAFC0022A54B08F07CFB08F072FE44
:1045F000A34BCAF800000646186808F01BFB96A3F8
:10460000D3E9002308F06EFB044630460D4608F05F
:1046100011FB93A3D3E9002308F064FB02460B4689
:104620002046294608F0A8F908F054FE954908608C
:104630009548006808F0FEFA87A3D3E9002308F044
:1046400051FB0446D8F800000D4608F0F3FA84A3A5
:10465000D3E9002308F046FB02460B4620462946D4
:1046600008F08AF908F036FE884C894D206003F086
:1046700017FF2B68874CC01A08F0BAFA864B002245
:1046800008F05AFC08F026FE206003F009FF2860BD
:10469000206808F0CFFA02460B4643EC1A2BDDE9FE
:1046A0000C2308F01FFB06460F46D9F8000008F05F
:1046B000C1FA32463B4608F05FF967A3D3E900230D
:1046C00008F010FB0446D8F800000D4608F0B2FAD6
:1046D00063A3D3E9002308F005FB02460B462046FE
:1046E000294608F049F908F0F5FDDDE90A2308EE4E
:1046F000900AC9F8000051EC1A0B08F0F3FA0446CE
:104700000D46DBF8000008F095FA22462B4608F02B
:1047100031F951A3D3E9002308F0E4FA8046DAF82E
:104720000000894608F086FA4DA3D3E9002308F07B
:10473000D9FA02460B464046494608F01DF908F0F2
:10474000C9FDDFF87481CBF8000008EE100AD8F834
:10475000000008F06FFA32463B4608F00DF908F009
:10476000B9FD4E4EC8F80000306808F063FA2246E2
:104770002B4608F0FFF808F0ADFDC8EE097A30606E
:1047800017EE900A08F056FA37A3D3E9002308F091
:10479000A9FA08F09FFDC8EE897A414B186008EE2F
:1047A000100A17EE900A08F045FA2FA3D3E9002368
:1047B00008F098FA08F08EFD3A4B00EE100A1860E7
:1047C00008EE900A05F064FC10EE104AB0EE480ABC
:1047D00005F0A6FC10EE100A08F02CFAB0EE680AFC
:1047E00041EC1A0B05F09CFC10EE100A08F022FABE
:1047F0009DED147BB0EE480AB0EE47BAF0EE67BA12
:1048000006460F4605F044FC10EE100A08F012FAB6
:1048100080462046894608F00DFADDE9102308F0AD
:1048200061FADDE912AB53EC1A2B04460D465046F3
:10483000594608F057FA32463B4608F053FA02460A
:104840000B4620463AE000BF9A99999999992340DE
:1048500050455254FB210940666666666666EE3F27
:104860009A9999999999A93F1F85EB51B81E1940BA
:104870002CE403200000B4430000E03F00807640B9
:1048800018E5032014E503204CE5032048E5032048
:104890000CE50320C0E4032000408F401CE503200A
:1048A00024E5032058E5032054E5032020E50320F8
:1048B00044E5032010E5032050E50320294608F0D5
:1048C00059F8424604460D464B4651EC1B0B08F086
:1048D00009FA32463B4608F005FA02460B462046E6
:1048E000294608F049F808F0F5FC2D4B08EE100AAF
:1048F000186042464B465046594608F0F3F953ECCF
:104900001B2B04460D4651EC1A0B08F0EBF902463E
:104910000B462046294608F02FF808F0DBFC214B17
:10492000214C1860F0EE480A00EE100A05F0FAFD7E
:104930001E491F4A0B6813601E4A2368136010EE5D
:10494000100A08F077F914A3D3E9002308F0F4FA69
:10495000194B002208F0C6F908F0BCFCDFED177A0D
:10496000174B07EE100A77EE277AF4EEC97AF1EECC
:1049700010FAA8BF77EEC97AC3ED007AD3ED007ABA
:10498000FDEEE77A17EE903A98B217B0BDEC088BBF
:10499000BDE8F08FAFF300801F85EB51B81E1940C2
:1049A000ACE30320B0E3032048E5032014E5032033
:1049B00018E503204CE503200080764000003443D6
:1049C00034E5032013B5124B187805F0EEFA0446CF
:1049D000A4B205F015F80F4904F025FA05F010F817
:1049E00021460A2204F02BFA4FF4B47300930023FB
:1049F00040F6FF721946204604F0C4FB80B2B0F5C1
:104A0000B47F84BFA0F5B47080B202B010BD00BF07
:104A10002DE303202CDC0D0038B50D461449044667
:104A200004F027F9152D05DC1249204604F05AF947
:104A3000204638BD422D01DC0F49F6E76F2D01DC21
:104A40000E49F2E79C2D01DC0D49EEE7D32D01DC88
:104A50000C49EAE7F62D01DC0B49E6E7B5F5927F54
:104A600001DA0A49E1E7B5F5A87FDDDC0849DCE7B2
:104A7000B7DB0D0041DC0D0043DC0D0044DC0D0014
:104A800046DC0D0049DC0D004BDC0D004FDC0D0059
:104A90004EDC0D00F8B5054612480C461E4617467A
:104AA00003F0EAFB0F4885ED000A03F0F9FB0D481F
:104AB00084ED000A03F008FC0A4887ED000A03F0C1
:104AC00012FC069B9FED087A83ED000AD5ED006A83
:104AD000C6EE877A94ED007A77EE877AC6ED007A93
:104AE000F8BD00BFE8E4032000007A442DE9F0415E
:104AF000DDF8188014461D460E46074604F080FF78
:104B00002D4904F07DF904F07BFF97ED000A2B4F4F
:104B1000022104F0ABFA04F073FF394604F083F984
:104B200004F06EFF264904F06BF904F069FF96ED7E
:104B3000000A022104F09AFA04F062FF214904F00D
:104B400072F904F05DFF204904F05AF904F058FFAF
:104B500095ED000A022104F089FA04F051FF39466C
:104B600004F061F904F04CFF184904F049F904F02D
:104B700047FF94ED000A022104F078FA04F040FFA8
:104B8000134904F050F904F03BFF124904F038F9DE
:104B900004F036FF98ED000A022104F067FA04F0F1
:104BA0002FFF0D4904F03FF904F02AFFBDE8F04162
:104BB0000A4904F038B900BF51DC0D0061DC0D007A
:104BC00064DC0D0074DC0D0078DC0D0088DC0D0069
:104BD00098DC0D009CDC0D00ACDC0D0083DD0D00CD
:104BE00010B58AB001A92848284C02F085FB04F0D2
:104BF00007FF274904F004F904F002FF9DED060ABF
:104C0000042104F033FA04F0FBFE224904F0F8F822
:104C100004F0F6FE9DED070A042104F027FA04F0E3
:104C2000EFFE1D4904F0ECF804F0EAFE9DED080AE1
:104C3000042104F01BFA04F0E3FE184904F0F3F831
:104C400004F0DEFE164904F0EEF89FED167ADDED75
:104C5000067A77EE877AFDEEE77A17EE903A9BB206
:104C6000B3F5B47F88BFA3F5B473238004F0C8FE06
:104C70000D4904F0C5F804F0C3FE2188042204F0B5
:104C8000DEF820880AB010BD2CE4032058E403208D
:104C9000B0DC0D00B4DC0D00B9DC0D0083DD0D00CF
:104CA000BEDC0D0000000000C1DC0D0010B42AB90C
:104CB00002685DF8044B9268C9B210475DF8044B76
:104CC000D2B204F0BCB838B50546FFF7EFFF044692
:104CD000284604F09CF8204438BD00002DE9F0413E
:104CE000DDF818801D4614460E46074604F088FE7F
:104CF0002A4904F085F804F083FE3946284F0A2239
:104D0000FFF7D4FF04F07CFE394604F08CF804F081
:104D100077FE244904F074F804F072FE0A2231464A
:104D2000FFF7C4FF04F06CFE1F4904F07CF804F0A8
:104D300067FE1E4904F064F804F062FE0A22294668
:104D4000FFF7B4FF04F05CFE394604F06CF804F0A1
:104D500057FE174904F054F804F052FE0A22214687
:104D6000FFF7A4FF04F04CFE124904F05CF804F0D5
:104D700047FE114904F044F804F042FE0A2241467D
:104D8000FFF794FF04F03CFE0C4904F04CF804F0EB
:104D900037FEBDE8F0410A4904F045B8D4DC0D0007
:104DA00061DC0D00ECDC0D0074DC0D0004DD0D0099
:104DB0001CDD0D0098DC0D0034DD0D00ACDC0D00B9
:104DC00083DD0D0012B903689B681847D2B204F066
:104DD00036B838B50546FFF7F5FF0446284604F017
:104DE00016F8204438BD000013B50023214C8DF87F
:104DF00007300DF106020DF105018DF806308DF832
:104E000005301D480DF1070302F0E7F804F0F8FD46
:104E1000214604F008F804F0F3FD184903F0F0FF10
:104E200004F0EEFD10229DF80510FFF7D2FF04F00C
:104E3000E7FD134903F0E4FF04F0E2FD10229DF8C2
:104E40000610FFF7C6FF04F0DBFD0E4903F0D8FFA4
:104E500004F0D6FD10229DF80710FFF7BAFF04F00A
:104E6000CFFD214603F0DFFF4FF4FA7004F096F90E
:104E700002B010BD83DD0D002CE403204CDD0D00DD
:104E80005EDD0D0070DD0D001FB5154B15480022CD
:104E90001A7003F05BF94021134803F071F91348CD
:104EA00000F0C0FF05F0C8F8114A1249CDE9012110
:104EB0004FF0FF3203460092402180220E4803F05B
:104EC000BFF805F0B9F82822034637210B4801F056
:104ED0004DFF0B490B4805B05DF804EB03F0C9BE6C
:104EE000B4E30320E0E40320E8E40320B8E3032074
:104EF000801A0600A086010068E403202CE4032049
:104F000083DD0D00D0E403201FB500238DF80F30A2
:104F10008DF80E308DF80D308DF80C300DF10F033B
:104F20000DF10D0203A93B4800930DF10E0302F0B1
:104F300074F804F065FD384903F062FF9DF80C3009
:104F400023B904F05DFD354903F05AFF04F058FD24
:104F50003349344C03F054FF04F052FD0A229DF80B
:104F60000C10FFF72FFF04F04BFD2F4903F048FF13
:104F700004F046FD0A229DF80D10FFF723FF04F010
:104F80003FFD2A4903F03CFF04F03AFD0A229DF858
:104F90000E10FFF717FF04F033FD254903F030FF33
:104FA00004F02EFD9DF80F100A22FFF70BFF20469C
:104FB00002F0F0FA00231A492361204603F020FF93
:104FC0009DF80C100A222046FFF7FCFE16492046E9
:104FD00003F016FF9DF80D100A222046FFF7F2FE9F
:104FE0001249204603F00CFF9DF80E100A222046BD
:104FF000FFF7E8FE0E49204603F002FF9DF80F1070
:105000000A222046FFF7DEFE204602F036FF04B0FB
:1050100010BD00BF2CE4032082DD0D0084DD0D00F7
:1050200087DD0D0068E403208CDD0D0090DD0D00B0
:1050300094DD0D002DE9F84F384CDDF830908046B6
:10504000204616460F461D46DDE90ABA02F0A2FACE
:10505000204602F012FF002331492361204603F06D
:10506000CFFE0A2241462046FFF742F82D4920464E
:1050700003F0D9FE2C49204603F0C2FE0A2239462D
:105080002046FFF735F82949204603F0CCFE284991
:10509000204603F0B5FE0A2231462046FFF728F8E5
:1050A0002449204603F0BFFE2349204603F0A8FE12
:1050B0000A2229462046FFF71BF82049204603F024
:1050C000B2FE1F49204603F09BFE0A2259462046A5
:1050D000FFF70EF81B49204603F0A5FE1A492046AB
:1050E00003F08EFE0A2251462046FFF701F81749C9
:1050F000204603F098FE1649204603F081FE4946FB
:105100000A222046FEF7F4FF2046124903F08BFEE8
:105110002046BDE8F84F02F0B0BE00BF68E40320AF
:1051200098DD0D0019DB0D00A1DD0D0028DB0D0061
:1051300045DB0D0051DB0D0036DB0D0042DB0D00C1
:10514000ABDD0D0061DC0D00BADD0D0098DC0D005B
:10515000C5DD0D00ACDC0D00F8B51A4C0746204645
:1051600015460E4602F016FA204602F086FE00238F
:1051700015492361204603F043FE0A2239462046A2
:10518000FEF7B6FF1149204603F04DFE10492046B8
:1051900003F036FE3168204603F045FE0D492046F7
:1051A00003F02EFE95ED000A0221204603F05EFF7B
:1051B0002046094903F037FE2046BDE8F84002F0DA
:1051C0005CBE00BF68E40320CEDD0D00DBDD0D001A
:1051D000DEDD0D00E9DD0D00F6DD0D002DE9F04FFF
:1051E000C34BDFF8A8831878DFF8A493DFF8A4A3F3
:1051F000DFF8A4B3BF4DC04CC04FC14E93B00121E6
:1052000004F0A7FEFFF7DEFB43464A4651462880DE
:105210005846FEF797FF4A46514643465846FEF722
:10522000C7FFFFF7DDFCB74B1880FFF759F9B64A07
:10523000B64B108039462246B5480096FFF72AFC47
:1052400004F0DEFBB34903F0DBFD04F0D9FB94ED81
:10525000000A022103F00AFF04F0D2FBAE4903F07A
:10526000CFFD04F0CDFBAD4903F0CAFD04F0C8FB4F
:105270000A22298803F0E3FD04F0C2FBA64903F0EB
:10528000BFFD3846A14BA24900962246FFF72EFCEF
:10529000DBED007AA249DFF804B30A689B4BFDEE10
:1052A000E77A17EE900ADAED007ADFF8F4A2FDEE65
:1052B000E77A1044086017EE901AD9ED007ADBF80F
:1052C0000020DFF8E092FDEEE77A1144CBF8001001
:1052D00017EE901AD8ED007ADAF80020DFF8C882CD
:1052E000FDEEE77A1144CAF8001017EE901AD7EDD8
:1052F000007AD9F800208B4FFDEEE77A114417EEC3
:10530000902AD3ED007AC9F800103968D8F8003037
:10531000FDEEE77A1144396017EE901A1944C8F887
:1053200000108149D4ED007A0B681A440A60FDEE42
:10533000E77A7E4917EE900A0B68D6ED007A18449A
:105340000860FDEEE77A7A4917EE900A0B68184478
:10535000086078492B880A6813440B607649694BCA
:105360000A681B8813440B60674A744913880A68EB
:1053700013440B6003F094F8714B1B68C01A714B17
:105380001B88984240F2F0816F4B1C6803F088F84C
:1053900007EE904AF8EE677A064617EE900A07F095
:1053A00049FC6A4B002207F09DFC654A04461068E0
:1053B000301A07EE900AF8EE677A0D4617EE900A5B
:1053C00007F038FC02460B462046294607F0B4FD9C
:1053D0005F4B604E524C604D002207F083FC07F09B
:1053E00079FF5E49226808605D485E490388B2FB28
:1053F000F3F23260DBF80020DFF8B0B1B2FBF3F279
:105400002A60DAF80020DFF8A8A1B2FBF3F2CBF8AB
:105410000020D9F80020B2FBF3F20A603A68424F4C
:10542000B2FBF3F2CAF800204F4AD8F800103868EF
:10543000B1FBF3F13D4F11604C494D4DB0FBF3F022
:10544000086038683A4F4B4CB0FBF3F0286038687E
:10545000384FDFF86081B0FBF3F020603868364FDA
:10546000B0FBF3F0C8F800003868434FB0FBF3F02E
:105470003860424F31480068B0FBF3F33B6003F003
:105480000FF82F4A236810603849374A0093136891
:1054900009682A68DAF80000FFF720FC04F0B0FA87
:1054A000374903F0ADFC04F0ABFA274B0A22196828
:1054B000FFF7FCFB04F0A4FA174903F0A1FC04F089
:1054C0009FFA304903F09CFC04F09AFA0A22D9F8BA
:1054D0000010FFF7EBFB04F093FA2B4903F090FC6C
:1054E00004F08EFA0E4B0A221968FFF7DFFB63E027
:1054F0002EE303206CE503205CE403204CE403204E
:1055000028E50320C4E4032040E4032004E503204D
:1055100040E50320FBDD0D00BFDC0D0011DE0D00BA
:1055200028E4032054E403203CE5032064E4032042
:1055300030E5032074E50320CCE4032048E4032095
:105540005CE5032028E30320A4E3032000000240DD
:1055500000408F4024E4032018E40320A8E3032044
:1055600008E5032000E40320FCE4032038E50320E1
:1055700060E403202CE50320C8E4032044E4032076
:1055800028DE0D0035DE0D0053DE0D00FCE30320A8
:1055900008E4032014E4032020E403201CE4032097
:1055A00010E4032004E4032000E503200CE40320BE
:1055B00050E4032070E5032004F022FA864903F04A
:1055C0001FFC04F01DFA854B0A22198803F037FCF2
:1055D00004F016FA824903F013FC04F011FA814931
:1055E00003F00EFC04F00CFA0A223168FFF75EFBB0
:1055F00004F006FA7A4903F003FC04F001FA7A4950
:1056000003F0FEFB04F0FCF90A223178FFF7DAFB25
:1056100004F0F6F9724903F0F3FB04F0F1F9734971
:1056200003F0EEFB04F0ECF90A222968FFF73EFBD9
:1056300004F0E6F96A4903F0E3FB04F0E1F96C4990
:1056400003F0DEFB04F0DCF921680A22FFF72EFBF1
:1056500004F0D6F9624903F0D3FB238807939AF844
:10566000003006932B7805933B880493614B624985
:105670001B880393B8F800300293D1ED007A5F4D98
:105680005F49DFF85881FCEEE77A0AA8CDED097A88
:105690009DF8243001939BF8003000932B883278DA
:1056A000584D544E03F030FB04F0AAF9564903F06C
:1056B000A7FB04F0A5F90A9903F0A2FB04F0A0F9F6
:1056C000514903F09DFB514B0A9A1B788DF800302D
:1056D0004F493C230EA803F047FF0F9C7CB1636841
:1056E000013B63605BB9236820469B689847A368C9
:1056F000013BA3601BB923682046DB689847454BF4
:1057000000241C60444B2C601C60444B1C60444BC8
:105710001C60444B1C60444B1C60444B1C60444B5D
:105720001C60444B1C60444B1C6004F069F9434905
:1057300003F066FB04F064F90A22B8F8001003F0E5
:105740007EFB3B683168A8F80040194449080EA860
:10575000FFF762F90EA93A4803F0BCFA0EA803F06D
:105760003DFA0AA803F03AFA364C02F099FE236893
:10577000C01A354B1B8898421AD902F091FE20605E
:10578000324C2378FBB1324B324A1B680293324BC6
:105790001A491B680193314B31481B680093314B08
:1057A00012681B6809680068FFF744FC0023237037
:1057B0000A4A13884FF47A700133138003F0EEFC29
:1057C00013B0BDE8F08F284B0B4A18681C49FFF74F
:1057D000C3FC0123EBE700BF71DE0D0008E50320E9
:1057E000BFDC0D008FDE0D00ADDE0D00CBDE0D0049
:1057F000E8DE0D00C8E40320A8E3032018E403203A
:1058000005DF0D00A4E3032071DF0D00B4E30320E6
:1058100078DF0D0028E403201CE4032010E40320BB
:1058200004E4032054E4032064E4032030E503206F
:1058300074E50320CCE4032048E403207DDF0D0061
:10584000D0E4032068E503202AE303202CE30320AF
:105850002CE503200CE4032060E4032050E4032043
:1058600024E4032000E4032070E503202DE9F04147
:10587000A2B004F0C5F8C84903F0D5FA04F0DCFB87
:105880000146C64802F066FD40B904F0B9F8C449C3
:1058900003F0C9FA0A2003F081FCFBE7BF48C14FBF
:1058A00002F073FD03F054FCC117C7E9000104F0D6
:1058B000A7F8BD4903F0A4FA04F0A2F8D7E900451F
:1058C000002C75F10003064680F2BF802D2103F005
:1058D0009BFA624265EB45030A210091304603F0D2
:1058E000CCFA04F08DF8B149B14C03F089FAB14B10
:1058F0000021187804F01CFBAF4B0121187804F04C
:1059000017FB04F07DF8AD4903F08DFA20780021F3
:1059100004F00EFB0023009302224FF0FF33A8494E
:10592000207804F095F804F06BF8A64903F07BFAB0
:1059300004F066F8A44903F076FA04F061F84FF435
:10594000E13104F04BF804F05BF804F04EF8002865
:10595000F9D09E4C04F054F89D4903F06EFA04F01F
:105960004FF89C4903F05FFA01223C21204602F0E7
:105970007BFB04F045F8984903F055FA204602F005
:105980007CFA4FF47A7003F009FC204601F002FE25
:10599000204602F072FA0121204602F001F804F0DC
:1059A0002FF88E4903F03FFA0221042004F0C0FAD8
:1059B0000221032004F0BCFA0221084604F0B8FAE0
:1059C0000121204602F053FA00224FF00113C4E9EE
:1059D00004238349204603F013FA8249204603F04A
:1059E0000FFA204602F049FA7F4800F09EFE78BB8D
:1059F00004F006F87D4903F016FA04F001F87C493A
:105A000003F0FEF903F0FCFF0446774800F00EFABD
:105A1000102201462046FFF756F903F0F1FF7549C1
:105A200003F0EEF903F0ECFF734903F0E9F903F03A
:105A3000E7FF724903F0E4F903F0E2FF704903F075
:105A4000DFF90A2003F0AAFBFBE722462B4643E7D7
:105A500004F0F2FA502102466A4802F07BFBD0B112
:105A600003F0CEFF684903F0DEF9204601F092FD15
:105A70006649204603F0D7F9204602F0FEF9644853
:105A80000C2101F059FA064670B903F0B9FF6149DB
:105A900003F0B6F9FEE703F0B3FF5F4903F0C3F983
:105AA0000A2003F07BFBFBE703F0AAFF3E4903F06B
:105AB000A7F903F0A5FFD7E90045002C75F1000315
:105AC000804666DA2D2103F09FF9624265EB4503BB
:105AD0000A210091404603F0D0F903F091FF3349C9
:105AE00003F08EF94FF47A7003F058FBFEF7C0FB19
:105AF00004F072FA042202A9002002F0E1FC4448FA
:105B000018A901F00BF91C9A029B9A4200F08E80B2
:105B100003F076FF414903F086F94FF4FA7003F081
:105B20003DFB00264FF47A7003F038FBFEF7A0FB34
:105B3000FFF75AF90121364801F04CF902F0B0FCA8
:105B4000374B0FA91860324801F0D6FB002E00F049
:105B50008B8003F055FF33492D4C03F064F91B484B
:105B600001F018FD3049194803F05DF9174802F0BB
:105B700084F9204601F069FA002840F0B4800FA9AA
:105B8000204601F0B9FBFFF7BFF9642003F006FBE4
:105B9000EFE722462B469BE78DDF0D00E8E403206C
:105BA00094DF0D0060E50320AFDF0D00BFDC0D00CA
:105BB0002FE303202DE303202EE30320C1DF0D009C
:105BC000C9400D00DEDF0D00F4DF0D0068E40320A6
:105BD00002E00D000EE00D002BE00D0036E00D00A0
:105BE00042E00D0062E00D00B8E303206EE00D001E
:105BF000B6E00D00C7E00D000EE10D0038E10D002C
:105C000062E10D00E0E403208CE10D009DE10D0058
:105C10002CE40320E4E10D00ACE10D0021E20D00D5
:105C20000CE50320D9E20D0009E30D0003F0E8FEC6
:105C30004D4903F0F8F804F0CFF9162203A9042027
:105C400002F03EFC03A8FEF79FFB03F0D9FE474994
:105C500003F0E9F803A9464801F0DFF803F0D0FEAD
:105C6000444903F0E0F85DE703F0CAFE4249404CC6
:105C7000424E434D03F0D7F8204601F0E6F990BBC1
:105C80000FA9204601F038FB03F0BAFE314603F0BD
:105C9000B7F803F0B5FE9DED140A042103F0E6F910
:105CA00003F0AEFE294603F0ABF803F0A9FE9DED2C
:105CB000150A042103F0DAF903F0A2FE314903F0DA
:105CC0009FF803F09DFE9DED160A042103F0CEF926
:105CD000FFF71AF903F094FE2B4903F0A4F86420AF
:105CE00003F05CFAC8E703F08BFE284903F09BF849
:105CF00003F086FE264903F096F803F081FE25495D
:105D000003F091F809A91A4801F0D8F909A8FEF79B
:105D10003BFB03F075FE204903F085F818A91448F1
:105D200000F0FCFF1C9B029304F056F902A9042228
:105D3000002002F0CDFB04F04FF9162209A904203F
:105D400002F0C6FB03F05CFE144903F06CF803F0AC
:105D500057FE134903F067F84FF4FA7003F01EFA88
:105D600022B0BDE8F08100BF57E20D0085E20D00D2
:105D70002CE40320B3E20D001EE30D00B0DC0D00A7
:105D8000B4DC0D00B9DC0D0083DD0D0038E30D003F
:105D900058DB0D004BE30D0061E30D0089E30D00BE
:105DA000A0E30D00704710B51021044604F068F917
:105DB000204610BD0EB403B503AB002153F8042BED
:105DC000019303F062F902B05DF804EB03B0704791
:105DD00073B5044608462279A36832B1A3B90B49CA
:105DE00002B0BDE8704003F00BB8094A267B094DAC
:105DF0000949647B012E18BF2946CDE900140749E3
:105E0000FFF7D8FF02B070BD054AEFE7D4E30D00FD
:105E100083DD0D00D0E30D00CCE30D00EAE30D00BF
:105E2000C3E30D004FF0FF33036170478068704794
:105E300013B50B4C2178BFF35B8F11F001010BD12F
:105E400020460191FEF738F9019928B1054802F082
:105E5000F7FD2046FEF735F9024802B010BD00BF3D
:105E600078E503207CE503202DE9F04190F913301B
:105E7000013305460F4606D1FFF7DAFF3946BDE884
:105E8000F04102F07FBE002407264FF0010895F98B
:105E90001300002180B204F05CF895F9110008FAB3
:105EA00006F1394080B204F054F895F9130001214D
:105EB00080B204F04EF895F91200640080B2E4B2AA
:105EC00004F060F808B144F00104013EDFD220463E
:105ED000BDE8F08108B5FFF7ABFFBDE8084002F070
:105EE000CABD07B50190FFF7A3FF019903B05DF8A4
:105EF00004EB02F0D9BD000030B590F91030013349
:105F000085B004460D4623D10179006803F018FFDF
:105F10002068036829469B689847206803F018FFAB
:105F200021792068032203F008FF206803685B6979
:105F300098470502206803685B6998472843050273
:105F4000206803685B6998470543284605B030BD63
:105F500090F9133001330CD11A4B009300238DF8C4
:105F60000430194B029368460123ADF80C30FFF75B
:105F7000B8FF94F91000002180B203F0EAFF45F069
:105F800080012046FFF770FF00212046FFF76CFFDD
:105F9000002105022046FFF767FF28430502002184
:105FA0002046FFF761FF054394F91000012180B2FC
:105FB00003F0CFFF94F913300133C6D1FFF78AFF06
:105FC000C3E700BF10E40D0020A1070010B5FA21BF
:105FD0000446FFF791FFB0F5000F1ED0A18A9FED98
:105FE000107A4B00C1EB2022C3EBE011B4F916305C
:105FF00052435943B4F91830121353439B1303EB24
:10600000E123E36003EB830380331B1207EE903A36
:10601000F8EEE77A87EE870A10BD9FED020AFBE7EC
:106020000000C8420000C07F2DE9F8430446FFF796
:10603000CDFFF7212046FFF75FFFB0F5000F0546C3
:1060400000F0BF80E068B4F91C60B0F5FA334FEAA5
:10605000E07141F1FF32A3FB038903FB02F109EB7D
:106060004109F71706FB02F103FB0711A6FB0367C3
:106070000F44390341EA16513003B4F91E60F71793
:1060800006FB09FC08FB07CCA6FB086767444FEA40
:10609000162C4CEA076C668B4FEA272E1CEB00008F
:1060A0004EEB010E00304EF5004EA0FB060106FB44
:1060B0000E114E10CF1756EA070100F08580B4F993
:1060C000240000FB09FCC11708FB01CCA0FB080160
:1060D000B4F922804FEAE87908FB02F203FB0922B7
:1060E000A8FB0389914461444FEA48424FEA494C76
:1060F0002D111218C5F580154CEAD83CB4F9208052
:106100004CEB010C0023E9179B184FEAC17E4FEAC4
:10611000C5704FEAC80141EB0C0C4EEA550EC01A8F
:1061200040F635436EEB0C0EA0FB030103FB0E1192
:1061300032463B4607F02CFAB4F92A204D13460BA1
:1061400046EAC14602FB05F7D31706FB0377A2FB1D
:1061500006233B44554306FB0355A2FB06232B4471
:10616000550E45EAC315B4F92820B4F926402D1878
:106170004FEA636641EB0606D317514300FB031158
:10618000A2FB00230B44D10C41EA43316D184FEAC6
:10619000E34046EB00032A0AE51742EA03621912BC
:1061A00020012B0143EA1473801843EB010107F02F
:1061B000B1F99FED070A07EE900A27EE800ABDE8C5
:1061C000F8839FED040AFAE79FED030AF7E700BFA3
:1061D0000000803B0000C07F0000000000000000C5
:1061E00008B52DED028BB0EE408AFFF71DFF9FED45
:1061F000167AC0EE077AC7EE887A17EE900A06F094
:1062000019FD9FED0D1B41EC100B03F0D5FF0F495D
:1062100053EC102B002006F0ADFB09A3D3E90023BB
:1062200006F060FD07F056F8BDEC028B00EE100A98
:1062300008BD00BFAFF30080EBE2361AC05BC83F79
:106240000000000040A5E5400000C8420000F03F0B
:1062500030B590F91030013385B004460D461FD19A
:106260000179006803F06CFD2068036829469B688B
:106270009847206803F06CFD21792068022203F022
:106280005CFD206803685B699847054620680368E1
:106290005B69984740EA052085B2284605B030BDC5
:1062A00090F9133001330CD1184B009300238DF873
:1062B0000430174B029368460123ADF80C30FFF70A
:1062C00010FE94F91000002180B203F042FE45F068
:1062D00080012046FFF7C8FD00212046FFF7C4FDDE
:1062E000002105462046FFF7BFFD40EA052085B2A4
:1062F00094F91000012180B203F02BFE94F91330C1
:106300000133CAD1FFF7E6FDC7E700BF10E40D0077
:1063100020A1070008B5FFF79BFF40BA80B208BD77
:1063200038B50446FFF752FEFD212046FFF790FFE7
:10633000B0F5004F38D0B4F93250E268B4F93430D7
:106340002D05A2F59632C5EB803002FB130303F551
:106350008043D91394F830305343DB1203F50040E7
:1063600094F9363053439B1243439B1203F50012BA
:10637000B4F92E30534303F500539B134B43DA1308
:1063800094F82C105243D2114A43A3EB221323EA70
:10639000E373B3F1C85FA8BF4FF0C8531B1300EEFF
:1063A000103ABAEECB0A38BD9FED010AFBE700BFF9
:1063B0000000C07F30B590F91030013385B004463D
:1063C0000D4618D10179006803F0BAFC2068036813
:1063D00029469B689847206803F0BAFC2179206819
:1063E000012203F0AAFC206803685B699847C5B2E4
:1063F000284605B030BD90F9133001330CD1154B50
:10640000009300238DF80430134B02936846012358
:10641000ADF80C30FFF765FD94F91000002180B253
:1064200003F097FD45F080012046FFF71DFD002198
:106430002046FFF719FD054694F91000012180B2AE
:1064400003F087FD94F913300133D1D1FFF742FDFA
:10645000CEE700BF10E40D0020A1070008B5F3212E
:10646000FFF7A8FF00F0010008BD38B588210446F9
:10647000FFF750FF8A21A0822046FFF74BFF8C21B7
:10648000E0822046FFF746FF8E2120832046FFF75B
:1064900041FF902160832046FFF73CFF9221A083BB
:1064A0002046FFF737FF9421E0832046FFF732FFB5
:1064B000962120842046FFF72DFF982160842046F6
:1064C000FFF728FF9A21A0842046FFF723FF9C2195
:1064D000E0842046FFF71EFF9E2120852046FFF71F
:1064E00019FFA12160852046FFF764FFE12184F8B0
:1064F0002C002046FFF70EFFE321E0852046FFF742
:1065000059FFE42184F830002046FFF753FFE521CE
:1065100005462046FFF74EFF00F00F0343EA051043
:106520006086E6212046FFF745FFE5210546204627
:10653000FFF740FF031143EA0510A086E72120463C
:10654000FFF738FF84F8360038BD00007FB590F9BA
:106550001030013304460E46154612D10179006809
:1065600003F0EEFB2068036831469B68984720687B
:10657000036829469B689847206803F0E9FB04B04C
:1065800070BD90F9133001330CD1144B00930023EC
:106590008DF80430124B029368460123ADF80C309D
:1065A000FFF79FFC94F91000002180B203F0D1FCAA
:1065B00006F07F012046FFF757FC29462046FFF7EB
:1065C00053FC94F91000012180B203F0C2FC94F94D
:1065D00013300133D3D1FFF77DFCD0E710E40D0079
:1065E00020A10700F8B5DB0002F0070203F0380332
:1065F000134343EA81139DF8186080F83C3090F80B
:1066000040309DF81C509DF8207066F3471380F8C9
:106610004030ED0090F8383007F0070705F03805F6
:1066200023F03F033D4304461D4380F8385006F0F5
:106630000702F221FFF78AFF94F83820C2F3C20361
:1066400002F007019B0043EA411343EAD2122046BD
:10665000F521FFF77BFF94F83C20C2F3C20302F060
:1066600007019B0043EA411343EA92122046F421BA
:10667000BDE8F840FFF76ABF30B5044690F9100056
:10668000421C85B019D1206803F028FBD021204698
:10669000FFF790FE6028A06045D12046B622E02199
:1066A000FFF754FF4FF4967002F078FD2046FFF795
:1066B000D5FE054628B36420F6E7012180B203F039
:1066C00048FC94F91000012180B203F031FC94F9E8
:1066D0001300431C04D1FFF7ABFB02F0BBF9D5E775
:1066E000012180B203F024FC94F91100012180B251
:1066F00003F01EFC94F91200002180B203F018FC94
:10670000C4E72046FFF7B1FE052300931A46032194
:106710002046CDE90155FFF765FF642002F03EFDFC
:10672000012005B030BD0020FBE7772310B50371D1
:10673000044603F081FC20602046FFF79DFF30B93E
:10674000762323712046BDE81040FFF795BF10BDAA
:1067500030B50025C0E9001542819DF810109DF864
:106760000C20456141738273037330BDF0B503465D
:1067700085B04089ADF80C004FEA102E18689C7A5D
:106780000E46174640B15B7B019303AB0093012398
:1067900000F036FA05B0F0BD58680028FAD093F83A
:1067A00008C05D7BBCF1030F0BD12EF0010E01354B
:1067B0008DF80CE08DF80D40009503AB00F08FF9DB
:1067C000E8E7BCF1000F08D104F07F048DF80C401D
:1067D000009503AB3A463146F0E7BCF1020F02D117
:1067E00064F07F04F2E7BCF1010F01BF9DF80C30AB
:1067F00003F07F0343F040038DF80C30E8E7F0B47A
:106800000B4602B9027B042A14D800F10F0543613C
:1068100084182946844209D0877BDEB227B92E70BE
:106820001B0A0135013CF5E7A673F9E72046F0BCE9
:10683000FFF79CBF0020F0BC70477FB50446857A07
:106840000B4641890068ADF80C100E0A40B10021DA
:10685000CDE9002103A9627B00F040FA04B070BDCD
:1068600060680028FAD0217A647B03290DD146F0B4
:106870000106FF21CDE900218DF80C608DF80D5047
:10688000621C03A900F05DF9E8E741B965F07F05F6
:106890008DF80C50FF21CDE900212246F1E70229B5
:1068A00002D105F07F05F3E7012902BF9DF80C1026
:1068B00061F03F018DF80C10ECE738B502220D466F
:1068C00000F10F010446FFF7B8FF38B1A37B33B9DD
:1068D000237C1B022B80E27B13432B8038BDE37BA0
:1068E0001B022B80227CF7E710B50446406810B1EC
:1068F00003689B689847204610BD38B5044690F958
:106900000E00012180B203F013FB94F90E00012167
:1069100080B203F01EFB256835B1284602F09AF8D4
:10692000012084F8340038BD94F90F00012180B2B1
:1069300003F0FEFA637B94F90F00012B94BF294604
:10694000012180B203F005FB94F91000421C09D02C
:10695000012180B203F0ECFA94F91000012180B219
:1069600003F0F7FA94F91100431CD9D0002180B24A
:1069700003F0DEFAD4E700002DE9F04F044600688A
:1069800085B00D4640B10023009313460A4602F03D
:10699000FFF805B0BDE8F08F237BA068484FB7FB38
:1069A000F0F7002B0B780CBF4FF0010B4FF0800B72
:1069B0001BEA030F01EB02030CBF4FF001094FF07C
:1069C0000009FFB20393039BAB42E2D095F800A00D
:1069D0005E464FF0000817B1384601F059FD637B61
:1069E00013F0FD0F41D194F910305A1C0FD01AEA60
:1069F000060114BF012300234B4508D06369606A78
:106A00001A6800292CD002431A604FF00109A169CD
:106A1000E36A0A6813430B6017B1384601F038FD8A
:106A200094F91130013306D0E3691A68A36A1A4257
:106A300018BF46EA0808A169E36A0A6822EA030364
:106A40000B6094F91130013318BF85F80080237B67
:106A5000002B32D17600F6B2002EBCD10135B2E760
:106A600022EA00021A608946D1E7A169E36A0A684E
:106A700013430B6017B1384601F00AFD94F910304A
:106A8000013308D06369616A1A681AEA060F14BFF5
:106A90000A438A431A60A169E36A0A6822EA030387
:106AA0000B6094F911300133CBD0E3691A68A36A03
:106AB0001A4218BF46EA0808C3E77608CCE700BFC9
:106AC00020A1070007B501228DF807100DF107017D
:106AD000FFF752FF9DF8070003B05DF804FB2DE9B6
:106AE000F041044600680E4617461D4610B1616825
:106AF00001F0DAFF94F90E00002180B203F029FAC8
:106B0000069B05EB0308454508D13744B7420BD037
:106B100016F8011B2046FFF7D5FFF7E715F8011B14
:106B20002046FFF7CFFFEEE794F90E00012180B277
:106B300003F00FFA206808B101F09DFF0120BDE8C5
:106B4000F0812DE9F041044600689DF81C800E4656
:106B500017461D4610B1616801F0A6FF94F90E00BA
:106B6000002180B203F0F5F93744BE420AD1069BFA
:106B7000EE18AE420CD041462046FFF7A3FF05F8C1
:106B8000010BF6E716F8011B2046FFF79BFFECE729
:106B900094F90E00012180B203F0DBF9206808B1FE
:106BA00001F069FF0120BDE8F0814260002202721D
:106BB00020220170C260704710B5037A044653B1B9
:106BC0002178606803F0BCF8606803F0C1F8B0FA9F
:106BD00080F0400910BD012100F003F80028EFD13A
:106BE000F8E738B5044640680D4603F077F8012011
:106BF000207225B12046BDE83840FFF7DDBF38BD23
:106C00002DE9F843DDE908961F46C368154632446E
:106C10009A420446884602D90020BDE8F8830178EC
:106C2000406803F08DF87EB9606803682A46DB6827
:106C3000414698478542EFD16068394603F084F8B1
:106C4000B0FA80F04009E8E7B9F1000FECD06068D5
:106C500003683246DB6849469847B042DCD1E3E737
:106C60002DE9F041154604460E46D2B2017840683F
:106C700003F051F885420DD100271FFA87F8A84587
:106C800007F1010709D2606803685B69984706F855
:106C90000800F2E70020BDE8F0810120FBE72DE9C4
:106CA000F84307468846164699460025B54212D253
:106CB000FA68741B944228BF1446331BAB4294BF3E
:106CC0004B460023224608EB05013846FFF7C8FF74
:106CD00010B12544EAE70120BDE8F88373B51D46ED
:106CE0000023CDE900339DF81C30069E0446FFF7D3
:106CF00087FF40B1012332462946204602B0BDE855
:106D00007040FFF7CCBF02B070BD08B5406802F01C
:106D1000E1FF012008BD7047704700000B4610B529
:106D2000282204460021184606F012FE09490B22CB
:106D300006F067FE00220121C272C160E168426272
:106D40000022016182610321C261034A4161026242
:106D500010BD00BFD2E20D000AD7233C10B51421AC
:106D6000044603F08DF9204610BD000073B5019371
:106D7000094B03600023C0E9023104461020164687
:106D8000FDF789F9054618B1019A3146FFF70DFF65
:106D90002046A56002B070BD24E40D001FB500239D
:106DA000CDE900338DF80C108DF80D20012302225F
:106DB00003A98068FFF724FF05B05DF804FB08B560
:106DC0000A4601743D21FFF7E9FFBDE808401E2097
:106DD00002F0E4B970B50D4600210446067CFFF7C9
:106DE000EEFF192002F0DAF9002207212046FFF712
:106DF000D5FF85B180223F212046FFF7CFFF0A2033
:106E000002F0CCF920463146FFF7D9FFBDE87040CB
:106E1000142002F0C3B92A46EDE770B50D460021F3
:106E20000446067CFFF7CBFF192002F0B7F92A7859
:106E300055212046FFF7B2FF6A7856212046FFF71A
:106E4000ADFFAA7857212046FFF7A8FFEA7858211E
:106E50002046FFF7A3FF2A7959212046FFF79EFF1E
:106E60006A795A212046FFF799FFAA795B212046CB
:106E7000FFF794FFEA795C212046FFF78FFF2A7A1B
:106E80005D212046FFF78AFF6A7A5E212046FFF7E0
:106E900085FFAA7A5F212046FFF780FFEA7A60210A
:106EA0002046FFF77BFF2A7B61212046FFF776FF14
:106EB0006A7B62212046FFF771FFAA7B632120468F
:106EC000FFF76CFFEA7B64212046FFF767FF2A7C0F
:106ED00065212046FFF762FF6A7C66212046FFF7A6
:106EE0005DFFAA7C67212046FFF758FFEA7C6821F6
:106EF0002046FFF753FF2A7D69212046FFF74EFF0A
:106F00006A7D6A212046FFF749FF31462046BDE8E9
:106F10007040FFF754BF1FB501220023CDE90023C5
:106F200003AB8DF80C1080681946FFF7D7FE9DF86B
:106F30000C0005B05DF804FB70B504460E46806891
:106F40000121FFF74EFE054610B90025284670BD09
:106F500000212046FFF7DFFFA02813D100212046A3
:106F6000FFF72DFF20223F212046FFF717FF1E20AD
:106F700002F014F900212046FFF7CDFFA0280CD025
:106F80000A20F5E74FF47A7002F008F90021204654
:106F9000FFF7C1FFA028D8D1E0E7322002F0FEF8C9
:106FA00000223E212046FFF7F9FE0A2002F0F6F803
:106FB000002207212046FFF7F1FE00223F21204654
:106FC000FFF7ECFE0A2002F0E9F820463146FFF711
:106FD000F6FE142002F0E2F8B8E7F8B50F461646C0
:106FE0000721002204461D46FFF7D8FE27B13921AC
:106FF0002046FFF790FF387026B136212046FFF774
:107000008AFF307025B13A212046FFF784FF2870AF
:10701000BDE8F840C82002F0C1B8F8B50E463521E9
:10702000069F15461C46FFF776FF0EB183093370A5
:1070300015B1C0F301132B7014B1C0F38103237099
:1070400017B100F003003870F8BD1FB504460DF10C
:107050000F0300930DF10D020DF10E0303A9FFF7CD
:10706000DCFF237C013B092B17D8DFE803F0052266
:10707000101E0C13160C1E109DF80E00C31E584255
:10708000584104B010BD9DF80E30032B14D19DF86B
:107090000D00F3E79DF80F30F7E79DF80C30032B58
:1070A0000AD19DF80D30032B06D19DF80E30032B2D
:1070B00002D19DF80F00E1E70020E2E72DE9F04161
:1070C00004460D46FFF7C1FF0646002800F09180F8
:1070D0000021204694F81080FFF771FE192002F07D
:1070E0005DF856212046FFF716FF5521074620463A
:1070F000FFF711FF40EA0720288058212046FFF7BC
:107100000AFF572107462046FFF705FF40EA072000
:1071100068805A212046FFF7FEFE59210746204687
:10712000FFF7F9FE40EA0720A8805C212046FFF720
:10713000F2FE5B2107462046FFF7EDFE40EA0720FE
:10714000E8805E212046FFF7E6FE5D2107462046E7
:10715000FFF7E1FE40EA0720288160212046FFF783
:10716000DAFE5F2107462046FFF7D5FE40EA0720FA
:10717000688162212046FFF7CEFE61210746204646
:10718000FFF7C9FE40EA0720A88164212046FFF7E7
:10719000C2FE632107462046FFF7BDFE40EA0720F6
:1071A000E88166212046FFF7B6FE652107462046A6
:1071B000FFF7B1FE40EA0720288268212046FFF74A
:1071C000AAFE672107462046FFF7A5FE40EA0720F2
:1071D00068826A212046FFF79EFE69210746204605
:1071E000FFF799FE40EA0720A88241462046FFF7B4
:1071F000E6FD3046BDE8F0811FB58DF80C1000218A
:10720000CDE90031134603A901228068FFF766FD2E
:1072100005B05DF804FB0000F7B50D4616460021E9
:107220001822044606F094FB00230093ADF80430C6
:10723000284606236A463146FFF7DEFF9DF80130F7
:107240009DF800009DF802709DF8045040EA03206C
:107250009DF8033047EA03279DF805301A2E45EACA
:10726000032500B23FB22DB20DD008D80E2E0AD0A1
:10727000142E08D0082E21D0204603B0F0BD282EB1
:107280001CD02E2EF7E705F0C3FC194B002205F0A9
:1072900029FDC4E90001384605F0BAFC144B002270
:1072A00005F020FDC4E90201284605F0B1FC104BB1
:1072B000002205F017FDC4E90401DDE705F0A8FC94
:1072C0000C4B002205F038FEC4E90001384605F0F9
:1072D0009FFC084B002205F02FFEC4E9020128465E
:1072E00005F096FC034B002205F026FEE3E700BF05
:1072F0000000B03F0000594030B50C4687B005464D
:1073000020220021201D06F023FB24232360EB68AC
:1073100063600323A36001F0C3F81A2220612946A9
:107320006846FFF779FFDDE9000105F0D3FF6061F2
:10733000DDE9020105F0CEFFA061DDE9040105F001
:10734000C9FFE061012007B030BD0029F0B566DB60
:10735000B0F90C408C4262DD002A60DBB0F90E40CF
:1073600094425CDD847E022C5AD0032C61D0012C27
:1073700004D10489D24314440A4621B2B0F93840FA
:107380008C42A8BF0C460487B0F93A409442A8BF8B
:1073900014464487B0F93C408C42B8BF0C46848701
:1073A000B0F93E409442B8BF1446C48790F84C40B0
:1073B000012C16D1012B42D0022B51D08BB9002ABF
:1073C0000589476B1446B8BFD41DE41014FB05149F
:1073D00002F00706012505FA06F63D5D25EA0605D9
:1073E0003D5590F84C40042C19D1048914FB02F24D
:1073F00002EBD27401EBD17242F34F0202EB640252
:10740000446BA05CC9074BBF03F00F0300F00F00F3
:1074100020F00F0040EA031348BF0343A354F0BD1C
:107420000489C94321444489D243224409B212B297
:10743000A4E74489C9430C44114622B29EE7002ABE
:107440000589466B1446B8BFD41DE41014FB05141F
:1074500002F007070125BD40375D3D433555C0E7C4
:10746000002A0589466B1446B8BFD41DE41014FBEE
:10747000051402F007070125BD40375D7D40EDE7AB
:1074800038B50D46114604461AB209B200F096FA14
:10749000069A0B4BE262079A23600023C4E9093382
:1074A000C4E90C234FF0FF33C4E910339DF91430C5
:1074B000A364049B84F84C502365204638BD00BF6C
:1074C00040E40D0038B50C4B03600446406B18B126
:1074D00001F03AFA00236363656A35B12846FFF785
:1074E00003FA3821284602F0CBFDA06A10B1102122
:1074F00002F0C6FD204638BD40E40D0030B587B02F
:10750000856A8DF80F1004467DB10023CAB2CDE91B
:1075100000338DF814308DF815200123022205A9BF
:107520002846FFF76DFB07B030BD2946B0F8400094
:1075300002F00FFD606A00952B4601220DF10F014C
:10754000FFF7CDFAEFE7002914BFA721A621FFF727
:10755000D5BFF0B5856A85B004460E46174665B1BD
:1075600000230DF10F008DF80F30012300900193DF
:107570002846FFF745FB05B0F0BD2946B0F84000AE
:1075800002F0E7FC606A00952B463A463146FFF769
:10759000A6FAF0E710B5B0F90A10038990F84C206C
:1075A00012FB03F2CB1D48BF01F10E03DB100446B2
:1075B0005A43406B002106F0CBF90023A3632389D3
:1075C000013BA3876389013BE38710BD70B5436B23
:1075D00004460E4615460BB3002D33D1236D002B08
:1075E00050D01020FCF757FD054618B1226D3146EA
:1075F000FFF7DBFAA5621DB301212846FFF7F1FA78
:10760000F0B12046FFF7C6FF0023A3632389013BA7
:10761000A3876389013BE387012012E02389B4F942
:107620000A2090F84C0010FB03F0D31D48BF02F174
:107630000E03DB10584301F07FF960630028CBD1C3
:10764000002070BDA06C0028C8DB012180B202F0D0
:107650006FFCB4F84800012102F07BFC0A2001F025
:107660009DFDB4F84800002102F073FC0A2001F0EF
:1076700095FDB4F84800012102F06BFC0A2001F0EE
:107680008DFDABE7606A0028DAD0FFF736F90028F5
:10769000D6D0B4F84000012102F04AFCB1E707B5AA
:1076A00081238DF80510022201A98DF80430FFF71F
:1076B00050FF03B05DF804FB2DE9F04F85B01F4685
:1076C000BDF93880BDF83C30A8EB0209A7EB010AF0
:1076D000B9F1000FB8BFC9F10009BAF1000FB8BF86
:1076E000CAF1000AD14583460C46154604DD3A46E8
:1076F0002C4647460D469046BC4205DD2A46454687
:10770000904622463C4617463E1BB2B20092A8EB7A
:107710000502002AB8BF52420192C6F3C03202FAF3
:1077200086F64545B4BF01224FF0FF327610029233
:10773000BC421CDCDBF800200393D145D2F8188052
:10774000C7BF294622462A4621465846C047019AC5
:10775000039BB61AB1B236B2002E05DA029A15446E
:10776000009A56182DB236B2013424B2E0E705B0C3
:10777000BDE8F08F704710B404682469A4465DF832
:10778000044B604730B40468BDF808500295A46B00
:10779000A44630BC604730B40468BDF80850029578
:1077A000E46BA44630BC604770B4BDF90C50BDF822
:1077B00010600468CDE90356246CA44670BC604791
:1077C0002DE9F3411C460368BDF820805B6905463E
:1077D0001646013C34440F4624B298472B68CDF836
:1077E000048000949C6A28463B4632463946A047AE
:1077F0002B68DB6A284602B0BDE8F04118472DE946
:10780000F3411D460368BDF820805B6904461746B6
:107810000E469847CDE9007822686B1E3344956A7E
:1078200020461BB23A463146A8472368DB6A204609
:1078300002B0BDE8F04118472DE9F3471E46036842
:10784000BDF928905B69BDF82C800C4605461746AB
:1078500098472644B4422B680BDACDF80080D3F861
:1078600020A021464B463A4628460134D04724B250
:10787000F0E7DB6A284602B0BDE8F047184713B5C9
:1078800002680191B0F90E100091146CB0F90C303F
:1078900000221146A04702B010BD2DE9F3471D4656
:1078A0000368BDF82C805B69BDF9289004460F463B
:1078B000164698472368CDF80080D3F824A03246B6
:1078C0002B4639462046D0472368CDF8008009F181
:1078D000FF323244D3F824A039462B46204612B258
:1078E000D0472368CDF80080D3F820A032464B461D
:1078F00039462046D0476B1ED9192368CDF8008041
:107900001D6A20464B46324609B2A8472368DB6A07
:10791000204602B0BDE8F047184770472DE9F7430D
:1079200099421646BDF92870BDF82C900268804631
:107930000D461C4613D1BE42C8BF3346CDF8289031
:10794000C4BF3E461F467B1C946B9B1B1BB232463A
:1079500029464046A44603B0BDE8F0436047BE4216
:107960000AD19942C2BF0B4625461C46631CCDF87E
:107970002890D46B5B1BE9E753699847CDE9007900
:10798000D8F8003040469F6A324623462946B84719
:10799000D8F80030DB6A404603B0BDE8F043184732
:1079A00001F00303B0F90A208376C907B0F9083063
:1079B00059BF8381C2818281C381704730B54281C2
:1079C000C281074A074D0181002481814FF0FF31B8
:1079D000C0E905124460056004610477046230BDAB
:1079E000010100019CE90D002DE9F04F89B0CDE9BE
:1079F00002120268BDF948800493BDF94C30526907
:107A00000593BDF850A00446904718F107024FF0C7
:107A1000000648BF08F10E024FEAE20B0196354618
:107A2000039B019ABDF904109A18059B8B4212B270
:107A300027DD049B33444FF0000906930FFA89F0C9
:107A400080451FFA89F117DD4F0705BF069BC0105F
:107A50006D001D5C18BFEDB22B060AD5029B206895
:107A600007921944836909B21F4620465346B84716
:107A7000079A09F10109E1E7019B013301935E4493
:107A8000CEE72368DB6A204609B0BDE8F04F18470F
:107A90002DE9F04F2DED028B91B01646026ABDF82C
:107AA00074809DF878509DF87C4003911F46BDF886
:107AB000703004938346002A40F0C580B0F90C3042
:107AC0008B4240F34C81B0F90E30B34240F3478112
:107AD000062313FB0513002B40F3418106EBC4037F
:107AE000002B40F33C81037F1BB9AF2F84BF0137CC
:107AF000FFB2DBF8003058465B69984705220992CF
:107B000000220592984A07EB8703D3180C93B3B26F
:107B10000693059A0C9B9B5C0793ABB20B93BDF845
:107B20000C300893039B02FB05F919FA83F90FFA4D
:107B300089F308EE103A08230A93039B02EB030A29
:107B40004FF000090FFA8AFA079ADBF80030D207E3
:107B500052D5012D1FFA89F23ED1012C3CD19B69EF
:107B600006991F46049B0A4412B251465846B8472C
:107B700009F101034FFA83F9079B5B0807930A9BFE
:107B8000013B13F0FF030A93DED1059F01377BB25F
:107B90000593099B013B13F0FF030993B9D1049BA3
:107BA00043450FD0012DDBF800303BD1012C39D1FA
:107BB0000899CDF8008005311C6A3246082309B2C5
:107BC0005846A047DBF80030DB6A584611B0BDECE0
:107BD000028BBDE8F04F1847069914FB02F20A44E5
:107BE000049901910094DB6918EE101A1F4612B235
:107BF0002B465846B847BBE7049A4245B8D0012DFA
:107C00001FFA89F207D1012C05D19B6906991F46FD
:107C10000A444346A8E70699CDF8048014FB02F213
:107C20000A44DFE70B9ACDF8048002EB8201089A40
:107C3000E4000A4411460094DC6932462B4609B23E
:107C40005846A047BEE7137A516812680D92FF1A92
:107C5000FFB201EBC70331F8372006929A780992F8
:107C6000DA780B92012D93F9052093F906A00A9278
:107C700001D8012C57D9BDF9283008930FFA8AF39F
:107C80000793DBF8003058465B699847B3B24FF072
:107C900000080E931AFA86F3C14647460F930B9BD2
:107CA0009F428FD2079B0E9A3B4403FB0423002282
:107CB00005920F9A1BB202EB070A08EE103A0FFA70
:107CC0008AFA4346099A0599914241D25A1CD2B286
:107CD0005B070C9207D1069B06990D9A01339BB264
:107CE00012F80190069319F0800F12D0012DDBF8E5
:107CF0000030BDF80C101AD1012C18D10A9A9B69DA
:107D00001144059A11441E465246049B09B2584636
:107D1000B047059E0136F3B24FEA490905935FFA71
:107D200089F90C9BCEE70023CDE90733A9E7059835
:107D3000089A024402FB0511049ACDE90042DB696E
:107D400018EE102A1E4609B22B465846B047E0E707
:107D5000099B013798445FFA88F8FFB29FE711B09A
:107D6000BDEC028BBDE8F08F94E40D00F0B5026A23
:107D700085B004460B46002A34D10A2908D1438A2B
:107D80000282427E03EBC2036382012005B0F0BD94
:107D90000D29FAD0E17E007E657E71B1B4F91060E4
:107DA000062111FB0061B4F90C60B142C1BFB4F906
:107DB0001210228201EBC5026282E28A0192A28A3B
:107DC0000092CDE90205B4F91220B4F91010204652
:107DD000FFF75EFE237E228A03EB430302EB43039D
:107DE0002382D2E70A2907D100230382137B417E35
:107DF000428A01FB0323C7E70D29C6D0157AA942A1
:107E0000C3D3917A9942C0D351685D1BEDB201EBA7
:107E1000C505AF782FB3E97819B3E17E007E667EA1
:107E200091B195F905103944B4F9107000FB017156
:107E3000B4F90C70B94207DD00272782B4F912109B
:107E4000127B02FB06126282E28A0192A28A0092EF
:107E5000CDE90206B4F91220B4F910102046FFF75C
:107E600017FE2979237E228A01FB0323B8E7012923
:107E700038BF01210176417670472DE9F04F044665
:107E80008BB000F03DFBB4F90A30B4F93A50B4F9C4
:107E9000087094F83890DA1D48BF03F10E024023B1
:107EA0008DF82330C2F3C7030393A36ADB68013B59
:107EB0009BB20493B4F93C30FFB2002DB8BF073534
:107EC00023EAE373B94507F10102C5F3C70528BFEB
:107ED000B94652FA83F305FB079A06934FF0000B5D
:107EE000039B9D426BD2636B267A94F8542003EB7C
:107EF0000A08069B4A449E1BA36A1111A6EB0906B9
:107F0000A5F15000F6B2C0B2103102F00F02002B02
:107F100035D08DF825008DF826101846E16A8DF8C9
:107F200027208DF824B0FEF7F0FE0123CDE900BB39
:107F3000A06A042209A9FEF763FE9DF8103005939C
:107F4000A06AAEB1059BB34228BF33461A4601234F
:107F500001930DF123030093414601230792FEF79D
:107F60004FFE079AB61A9044F6B200F0C9FAE7E756
:107F7000216BFEF7CAFE0135EDB2BA44B0E78DF8C9
:107F800024008DF82510B4F840008DF826201946FD
:107F9000059301F0DEFF059B0093032209A9606AA7
:107FA000FEF79DFDB4F84000012101F0D2FF059BD2
:107FB000606A009332464146FEF791FDDBE74FF0E1
:107FC00004224FF0FF33C4E90E230BB0BDE8F08F5D
:107FD00030B585B004460A9D0395099D02959DF92B
:107FE0002050CDE9003513460A460121FFF748FA33
:107FF000034B23602046002384F8543005B030BD85
:10800000F4E90D0010B5034B03600446FFF75AFA7C
:10801000204610BDF4E90D0010B5034B0360044683
:10802000FFF7F0FF204610BD30EC0D0010B5044600
:10803000FFF7F2FF2046582102F022F8204610BD3B
:1080400030B585B004460A9D0295099D01959DF9BC
:1080500020500095FFF7BCFF024B2360204605B07F
:1080600030BD00BF30EC0D0030B5044685B0FFF7E1
:10807000ADFA2F212046FFF712FBA2682F4B9A4240
:1080800021D1236801211B6B20469847B4F90820B1
:10809000B4F90A102023203A73390125CDE90135BE
:1080A00002EBD272732301EBD171009341F34F01C4
:1080B000234B204642F34F02FFF796FC2368002132
:1080C0001B6B20469847A368B3F1801F17D1B4F902
:1080D0000820B4F90A1020230120203A7339CDE991
:1080E000013002EBD272732301EBD171009342F3A2
:1080F0004F02134B41F34F012046FFF775FC114926
:1081000016222046FFF725FA054618B9002528460D
:1081100005B030BDA368B3F1801F07D0642001F023
:108120003DF8AF212046FFF7E9F9F0E706490422C0
:108130002046FFF70EFA0028F0D1E7E74000800064
:1081400048EA0D0088EC0D0084EC0D00002202606E
:108150000271704773B5054610200E460192FBF779
:108160009AFF044618B1019A3146FEF71EFD01211F
:1081700020462C602E7102B0BDE87040FEF731BD84
:1081800000220260C260002241710261704710B596
:1081900001238AB0CDE900330223016804461A4660
:1081A00004A8FEF7D5FA0DF10E0104A8FEF785FB31
:1081B0002071BDF80E00C01080000AB010BD10B5CF
:1081C00001228AB0CDE9002204460168022304A8F6
:1081D000FEF7BEFA0DF10E0104A8FEF76EFB20714A
:1081E000BDF90E000AB010BD30B5012591B0CDE942
:1081F0000055044601680223052204A8FEF7A8FAE8
:10820000A168022204A8FEF7FAFA216802230422D8
:10821000CDE900550AA8FEF79BFA0DF10E010AA858
:10822000FEF74BFB2071BDF90E0011B030BD30B52B
:10823000012591B0CDE900550446016802230522CD
:1082400004A8FEF785FAA168022204A8FEF7D7FA6F
:10825000216802230322CDE900550AA8FEF778FA27
:108260000DF10E010AA8FEF728FB2071BDF90E00E2
:1082700011B030BD0000000008B5FFF7A0FF04F00A
:10828000C7FC05A3D3E9002304F02CFD05F022F878
:1082900000EE100A08BD00BF7B14AE47E17A843FB0
:1082A00008B5FFF774FF04F0B3FC05A3D3E900237E
:1082B00004F018FD05F00EF800EE100A08BD00BF2E
:1082C000FCA9F1D24D62503F10B50446FFF78CFF78
:1082D00007EE900AB8EEE70AD4ED037AF8EE677A73
:1082E00080EE270A10BD10B50446FFF7A0FF07EE89
:1082F000900AB8EEE70AD4ED047A20EE270A10BD02
:1083000030B54FF480520A238FB0C0E90223012513
:108310004FF080430361CDE9005504460168022314
:10832000052202A8FEF714FAA168022202A8FEF7AD
:1083300066FA21680223CDE90055002208A8FEF75D
:1083400007FA022243F69F1108A8FEF758FA207197
:108350000FB030BD37B50368044653B91020019102
:10836000FBF799FE054618B1019A6179FEF71DFCED
:10837000256020680121FEF734FC054610B1204637
:10838000FFF7BEFF284603B030BD30B54FF40052B2
:1083900014238FB0C0E9022301254FF07E530361FF
:1083A000CDE90055044601680223052202A8FEF724
:1083B000CFF9A168022202A8FEF721FA2168022360
:1083C000CDE90055002208A8FEF7C2F9022240F2CA
:1083D0009F1108A8FEF713FA20710FB030BD0000FE
:1083E00008B5024B1B689B68019308BD6802030037
:1083F00008B5024B1B68DB68019308BD68020300E7
:1084000008B5024B1B685B68019308BD2C02030092
:1084100008B5024B1B689B68019308BD2C02030042
:1084200008B5024B1B68DB68019308BD2C020300F2
:1084300008B5024B1B681B69019308BD2C020300A1
:1084400008B5024B1B685B69019308BD2C02030051
:1084500008B5024B1B689B69019308BD2C02030001
:1084600008B5024B1B68DB69019308BD2C020300B1
:1084700008B5024B1B681B6B019308BD2C0203005F
:1084800008B5024B1B685B68019308BD1802030026
:1084900008B5024B1B68DB68019308BD1802030096
:1084A00008B5024B1B685B69019308BD1802030005
:1084B00008B5024B1B689B6A019308BD18020300B4
:1084C00008B5024B1B685B6C019308BD18020300E2
:1084D00008B5024B1B689B6C019308BD1802030092
:1084E00008B5024B1B689B6D019308BD1802030081
:1084F00008B5024B1B685B6E019308BD18020300B0
:1085000008B5024B1B68DB68019308BD48020300F5
:1085100008B5024B1B685B6C019308BD4802030061
:1085200008B5024B1B685B69019308BD6402030038
:1085300008B5024B1B681B68019308BD3C02030091
:1085400008B5024B1B68DB68019308BD3C020300C1
:1085500008B5024B1B681B69019308BD3C02030070
:1085600008B5024B1B685B69019308BD3C02030020
:1085700008B5024B1B689B69019308BD3C020300D0
:1085800008B5024B1B68DB69019308BD3C02030080
:1085900008B5024B1B681B6A019308BD3C0203002F
:1085A00008B5024B1B689B6A019308BD3C0203009F
:1085B00008B5024B1B681B68019308BD2802030025
:1085C00008B5024B1B68DB68019308BD2802030055
:1085D00008B5024B1B689B69019308BD2802030084
:1085E00008B5024B1B68DB69019308BD2802030034
:1085F00008B5024B1B681B6A019308BD28020300E3
:1086000008B5024B1B685B6A019308BD2802030092
:1086100008B5024B1B689B6A019308BD2802030042
:1086200008B5024B1B68DB6A019308BD28020300F2
:1086300008B5024B1B681B6B019308BD28020300A1
:1086400008B5024B1B685B6B019308BD2802030051
:1086500008B5024B1B681B6C019308BD2802030080
:1086600008B5024B1B681B6D019308BD280203006F
:1086700008B5024B1B681B68019308BD300203005C
:1086800008B5024B1B685B69019308BD300203000B
:1086900008B5024B1B68DB69019308BD300203007B
:1086A00008B5024B1B681B6A019308BD300203002A
:1086B00008B5024B1B685B6A019308BD30020300DA
:1086C00008B5024B1B689B6A019308BD300203008A
:1086D00008B5024B1B689B6B019308BD3002030079
:1086E00008B5024B1B68DB6B019308BD3002030029
:1086F00008B5024B1B681B6C019308BD30020300D8
:1087000008B5024B1B685B6C019308BD3002030087
:1087100008B5024B1B681B68019308BD4C0203009F
:1087200008B5024B1B685B68019308BD4C0203004F
:1087300008B5024B1B681B69019308BD4C0203007E
:1087400008B5024B1B685B69019308BD4C0203002E
:1087500008B5024B1B689B69019308BD4C020300DE
:1087600008B5024B1B68DB69019308BD4C0203008E
:1087700008B5024B1B681B6A019308BD4C0203003D
:1087800008B5024B1B685B6A019308BD4C020300ED
:1087900008B5024B1B685B6B019308BD60020300C8
:1087A00008B5024B1B681B68019308BD200203003B
:1087B00008B5024B1B685B68019308BD20020300EB
:1087C00008B5024B1B685B69019308BD20020300DA
:1087D00008B5024B1B68DB6C019308BD2002030047
:1087E00008B5024B1B685B6D019308BD20020300B6
:1087F00008B5024B1B689B6D019308BD2002030066
:1088000008B5034B1B68D3F88830019308BD0000FE
:108810002002030008B5034B1B68D3F89430019382
:1088200008BD00002002030008B5024B1B685B680E
:10883000019308BD4002030008B5024B1B689B680A
:10884000019308BD4002030008B5024B1B68DB68BA
:10885000019308BD4002030008B5024B1B681B6969
:10886000019308BD4002030008B5024B1B685B6919
:10887000019308BD4002030008B5024B1B689B69C9
:10888000019308BD4002030008B5024B1B68DB6979
:10889000019308BD4002030008B5024B1B681B6A28
:1088A000019308BD4002030008B5024B1B681B6B17
:1088B000019308BD4002030008B5024B1B685B6BC7
:1088C000019308BD4002030008B5024B1B681B6CF6
:1088D000019308BD4002030008B5024B1B685B6CA6
:1088E000019308BD4002030008B5024B1B689B685A
:1088F000019308BD4402030008B5024B1B685B6985
:10890000019308BD4402030008B5024B1B681B6AB3
:10891000019308BD4402030008B5024B1B681B6BA2
:10892000019308BD4402030008B5024B1B68DB6BD2
:10893000019308BD4402030008B5024B1B681B6885
:10894000019308BD1C02030008B5024B1B685B685D
:10895000019308BD1C02030008B5024B1B689B680D
:10896000019308BD1C02030008B5024B1B685B6A3B
:10897000019308BD1C02030008B5024B1B68DB6AAB
:10898000019308BD1C02030008B5024B1B681B6B5A
:10899000019308BD1C02030008B5024B1B68DB6B8A
:1089A000019308BD1C02030008B5024B1B685B6CF9
:1089B000019308BD1C020300002240681146FFF726
:1089C0006BBF002240681146FFF776BF4068002267
:1089D000FFF76ABF4068002281F00101FFF754BF32
:1089E000002340681A461946FFF746BF0023406837
:1089F0001A461946FFF738BF002240681146FFF7B4
:108A00002BBF002240681146FFF716BF40680022C6
:108A10000221FFF719BF002340681A46FFF704BF81
:108A2000024B03225A60024A1A60704784E5032011
:108A3000A8EC0D000021FFF75BBE0021FFF760BE30
:108A400010B5044608462170FFF722FE002363603C
:108A5000204610BD10B504460078FFF7EBFF48B97B
:108A600020784FF6FF71FFF703FE2078BDE8104035
:108A7000FFF7E3BF10BD0078FFF7DFBF400830B558
:108A80001860002418688842E5B206D90134082C21
:108A900002D040081860F5E70725024B5B5D1370B4
:108AA00030BD00BFDCEC0D002DE9F04306468FB071
:108AB00000780C46FFF7BEFF00281BDB3578142238
:108AC000002109A804F044FF0B23002209A928462D
:108AD000ADF82430FFF7ECFD9DF82D3013B19DF873
:108AE0002C5055B10027B946B846012523795DB110
:108AF000C3B100200FB0BDE8F083DDF830809DF8F1
:108B000034909DF83570F1E7002B35D1A3684345CB
:108B100008D18DF820908DF82170BDF82020A38910
:108B20009A42E6D00023A1688DF80F300A9804AB72
:108B30000DF10F02FFF7A2FF217985B989B9A3686A
:108B400043450ED38DF820908DF82170BDF820207C
:108B5000A3899A4205D1049B434502D1C9E7002964
:108B6000F9D100230193637B00939DF80F20237BB1
:108B70003078FFF7B5FDBCE7CDE900552B462A4616
:108B80000121F5E708B50078FFF77AFDC0B208BD0E
:108B900030B587B004460A9D00950078FFF790FD38
:108BA0003DB9207802A9FFF793FD9DF81430DB074B
:108BB000F7D407B030BD0000054B02221A60054B08
:108BC000054A9A600020186098809871FFF7F0BD00
:108BD00098E503208CE503200000FFFF10B5044654
:108BE0000068FFF7B1FE204610BD10B504460068CE
:108BF00008B1FFF7A9FE0023C4E90133236010BDCB
:108C000038B504460D4600680131FFF7A5FE10B1E6
:108C1000C4E90005012038BD10B50368044623B13E
:108C200043688B4201D3012010BD2046FFF7E8FFC7
:108C30000028F9D0A368002BF5D122681370F2E761
:108C400037B50D46114601920446FFF7E5FF019A3C
:108C500028B92046FFF7C9FF204603B030BDA26007
:108C60002946206804F066FE2268A3680021D154DA
:108C7000F2E7002313B5C0E90033044683600373B1
:108C800041B10846019104F0B4FE01990246204624
:108C9000FFF7D6FF204602B010BD38B50546006884
:108CA0000C4668B16A688B689A4207D3096804F079
:108CB0007BFEA368AB600023A36038BDFFF744FED2
:108CC00023682B6063686B60A368AB600023C4E912
:108CD0000033F1E7884210B5044601D0FFF7DDFF0D
:108CE000204610BD13B5044659B10846019104F061
:108CF00080FE019902462046FFF7A2FF204602B0FF
:108D000010BDFFF772FFF9E70EB470B587B00BAD79
:108D1000044655F8042B01922B46052104A803951F
:108D2000FFF722FE0B4906462046FFF7A2FF314619
:108D30002046FFF771FF206830B1019A03952B465A
:108D4000711CFFF711FEA060204607B0BDE870401F
:108D500003B0704783DD0D0010B5036804469B68BF
:108D60009847A368013BA3602BB923682046DB68C2
:108D7000BDE81040184710BD0B68036013B15A6876
:108D800001325A60704710B50446006828B1436844
:108D9000013B43600BB9FFF7DFFF204610BD000029
:108DA000024800230360FFF7B3BB00BF9CE503202C
:108DB000F8B506460D468F180024BD420CD0336826
:108DC00015F8011B9B6830469847031E01DB1C44C5
:108DD000F3E7002C08BF1C462046F8BD13B5044637
:108DE000084659B1019104F004FE23680199DB683B
:108DF0000246204602B0BDE81040184702B010BD40
:108E000008B5FFF7EBFF08BD03689B68184738B546
:108E10000D210546FFF7F8FF0A2104462846FFF713
:108E2000F3FF204438BD38B50546FFF7D7FF0446A9
:108E30002846FFF7ECFF204438BDFFF7F4BF30B5FC
:108E40008BB000238DF82430012A98BF0A2209AC88
:108E50000D46B1FBF2F101FB125303F0FF03092BA6
:108E600094BF30333733DBB2AA4204F8013DEFD967
:108E70002146FFF7B3FF0BB030BD2DE9F04F93B0A3
:108E800019469DF87050012D4FF0000398BF0A2538
:108E900082468DF8443010460DF1440B5FFA85F898
:108EA0004FF0000942464B4606460F4604F0C0FB11
:108EB00005FB106404F0FF04092C94BF30343734F0
:108EC0004F45E4B208BF46450BF8014DEAD259467A
:108ED0005046FFF783FF13B0BDE8F08F2DE9F74F41
:108EE00055EC104B06460F4610EE102A10EE100AF5
:108EF0002B46294604F090F940B153493046FFF71C
:108F00006DFF8246504603B0BDE8F08F25F0004962
:108F10004E4B4FF0FF322046494604F07DF948B9E8
:108F20004A4B4FF0FF322046494604F057F908B942
:108F30004749E3E7474B4FF060422046294604F09B
:108F400061F908B14449D9E7444B4FF060422046EB
:108F5000294604F039F90028F4D1002200232046E4
:108F6000294604F031F9D0B12D213046FFF74CFFEE
:108F700005F1004382461D463949DFF8EC904FF079
:108F8000000B00204FF000085FFA8BF39F4208D9D6
:108F900042464B4603F0D0FF0BF1010BF4E782464B
:108FA000EAE722462B4603F0E7FC0D46044604F0B0
:108FB00071F9804603F01CFE02460B462046294606
:108FC00003F0D8FC0A2204460D4630464146FFF71E
:108FD00036FF824427B123493046FFF7FFFE824423
:108FE000DFF884904FF00008013FFFB2FF2F89D0D7
:108FF00042464B462046294603F074FE04460D4681
:1090000004F020F9B0F1000B1ADA2D213046FFF7F9
:10901000FBFECBF1000103460A2230460193FFF725
:109020000EFF019B18448244584603F0F1FD0246AE
:109030000B462046294603F09DFC04460D46D3E727
:1090400059460023E8E700BFE4EC0D00FFFFEF7F87
:10905000E8EC0D00FFFFEF41ECEC0D00FFFFEFC16E
:109060000000E03FB1E20D000000244038B50446A6
:1090700010EE100ACDB203F0DDFD41EC100B2946D5
:109080002046BDE83840FFF729BF2DE9F04186B002
:1090900000AF05460E46381D142114463B60FFF70D
:1090A00063FC13280ED8391D2846FFF797FE0446A7
:1090B0001EB12846FFF7ABFE044420461837BD46D4
:1090C000BDE8F08100F1080323F00703E846ADEBAB
:1090D000030D2246411C3B686846FFF745FC694684
:1090E0002846FFF77BFE0446C546E1E7014B024AEE
:1090F0001A607047A0E50320F0EC0D0008B50020D1
:10910000FFF70AFC28B1FFF7F7FB80F00100C0B2BF
:1091100008BD0120FCE710B50020FFF7E1F9044687
:10912000A0B9FFF73DFB012810D12046FFF760FBF7
:1091300060B9FFF7E3FF10B9FFF7D6FBF9E7FFF7D8
:10914000DDFFBDE810400020FFF7CAB9204610BD82
:109150001FB5FFF7E0FF10220021684604F0F8FB7E
:1091600000216846FFF7C4F9009805B05DF804FBDC
:10917000024B1A68024B1A60704700BF30E30320AD
:10918000A4E503208A4210B507D0029C401AE41AD5
:109190006043521A90FBF2F0184410BD0021FFF713
:1091A0000FBB10B58368044613B1032201469847EC
:1091B000204610BD13B50B460246D0E900016C46AF
:1091C00084E8030093E8030082E8030094E80300C6
:1091D00083E8030002B010BD014B00229A60704783
:1091E000A8E50320014B1860704700BF38E3032057
:1091F00008B50B4B43B100F003FC03681B699847AB
:10920000002801DDAFF30080064B43B100F0EAFC1B
:1092100003681B699847002801DDAFF3008008BD93
:10922000000000000000000008B5FFF7E1FFFFF7B5
:1092300037F9014B186008BD30E703200548064A9E
:10924000064908B5121A04F075FB054B054A1A6069
:1092500008BD00BF00F4032004F4032008F30D0050
:1092600000F403201E1C279A07B5002300931A461A
:109270006FF07701FFF7CEFA03B05DF804FB000052
:1092800007B543880A2B08D0502B0BD1094B1B681C
:109290004BB103B05DF804EB1847FFF7E5FF03B0EF
:1092A0005DF804FB002300931A466FF07701FFF787
:1092B000B1FAF4E7BCE5032010B512480021FFF72E
:1092C00073FB114B1A68114B9A42114B0CBF0122D0
:1092D00000221A7001D0FFF7B1FFFFF7D1F8044662
:1092E00004F03EFB0B4B13B12046AFF3008000218E
:1092F0000848FFF719FBBDE8104007480021FFF7B9
:109300007FBA00BFE5910D0000F403201E1C279AD0
:10931000B8E503200000000081920D007047002096
:10932000704710B51021044600F0AAFE204610BD7B
:1093300008B5FFF7F6FF08BD30B500224FF69C7464
:10934000026084808D888C800C68858004600A604F
:1093500030BD10B504460068FFF7F6FA204610BD90
:1093600038B5C468F4B12378022B03D104F10C00A2
:10937000FFF7EFFF656835B12846FFF712FF1021B0
:10938000284600F07DFEA56835B12846FFF709FFA5
:109390001021284600F074FE20461421BDE8384014
:1093A00000F06EBE38BD73B50E46044656F8043B59
:1093B00000930D4601A83146FFF7DEFC019A009BA1
:1093C0006260236001A8002301930093FFF7DBFC98
:1093D0003046FFF7D8FC2846082100F051FE204611
:1093E00002B070BD826810B50AB900F04DFEBDE84C
:1093F0001040C368184708B5006800F11001FFF776
:10940000F1FF08BD826810B50AB900F03DFEBDE865
:109410001040C368184708B5006800F11001FFF755
:10942000F1FF08BD38B500230446036010200D4647
:10943000FAF731FE28B10123C0E90133024B036082
:10944000C5602060204638BD18ED0D0038B50023FA
:1094500083608B6804460D462BB102229847EB6867
:10946000E360AB68A360204638BD0000F0B589B06A
:1094700004686846FFF760FF4FF00203D4E84F2FFF
:10948000002A03D1C4E8413F0029F7D125D104F1D6
:109490000C0569462846FFF74FFFBFF35B8F01239A
:1094A0006370002004F10803BFF35B8F53E8006F83
:1094B00043E80002002AF9D1BFF35B8F6EB1FFF7DA
:1094C00087F978B129463046FFF78CFF3046FFF721
:1094D00068FE1021304600F0D3FD6846FFF739FFE3
:1094E00009B0F0BD314602A8FFF7B0FFE068B4F95B
:1094F000105008B104F060FA06901020ADF81C502E
:10950000FAF7C9FD0546E8B1002787601820FAF789
:10951000C2FD044688B10146876002A8FFF74AFEF3
:10952000049BA268A360059B049206A9E268E3601D
:1095300004F110000592FFF7FFFE084BEB60084BAB
:109540002C60AB6006A8FFF704FF02A8FFF729FE16
:10955000002229460348FFF743F9B7E7F7930D00C8
:109560008D960D00319C0D002DE9F0478AB005461F
:109570009DF848900C4617469846FFF7BDF907AE90
:10958000824638BB4FF62E73059005A93046ADF8DC
:109590001830FFF7D1FE1420FAF77DFD044648B1DC
:1095A000022303700123C0E901AA437031460C3045
:1095B000FFF7C2FE2846214640F8044BFFF732FF72
:1095C0003046FFF7C6FE05A8FFF7C3FE28460AB0DF
:1095D000BDE8F0870C234FF0000A1420CDE908AA5B
:1095E0000793FAF758FD014628B1C0E901AA80F8AF
:1095F00000A080F801A004A80391FFF713FF224BFD
:1096000008930820FAF747FD824628B1039B40F8EB
:10961000043B04A9FFF7B0FB00965FFA89F34246CA
:1096200039462046CDF824A0FFF76EF9B8B9039B60
:109630005B7803F0FF0293B94FF69C7305A903A86A
:109640000592ADF81830FFF711FF05A8FFF781FE6E
:1096500005A80999FFF7A7FE06A8FFF794FB039B4F
:10966000059304A906A8FFF787FB059B069A2B60C4
:109670006A60002306A806930593FFF784FB04A8FD
:10968000FFF781FBA2E700BF51970D00022AF8B552
:10969000054607D0032A18D0012A01D10B680360C0
:1096A0000020F8BD18200E68FAF7F5FC044650B10A
:1096B0003146FFF7CBFE3069B6F9147008B104F0FB
:1096C0007BF92061A7822C60EAE70468002CE7D0D0
:1096D00004F11000FFF73DFE2046FFF762FD182160
:1096E000204600F0CDFCDBE738B5002383608B68B3
:1096F00004460D462BB102229847EB68E360AB6845
:10970000A360204638BD022A70B5044607D0032A5C
:1097100012D0012A01D10B680360002070BD142013
:109720000E68FAF7B8FC054620B13146FFF7DCFFBA
:10973000337C2B742560F0E70468002CEDD02046C4
:10974000FFF72FFD1421204600F09AFCE5E700000A
:10975000F0B589B004460D4601A81146FFF723FE77
:10976000A4B124B21DB1284604F026F9054601A88B
:1097700003A90395ADF81040FFF778FE03A8FFF7A3
:10978000E8FD02A8FFF7FFFA09B0F0BD019D012333
:10979000D5E84F2F002A03D1C5E8413F0029F7D172
:1097A000EFD12B73BFF35B8F6B702B1DBFF35B8F00
:1097B00053E8006F43E80042002AF9D1BFF35B8F02
:1097C000002EDED02046FFF703F8074660B105F112
:1097D0000C013046FFF716FE3046FFF7E2FC102181
:1097E000304600F04DFCCCE7314603A8FFF77CFF84
:1097F0002B7B8DF81C301020FAF74DFC0546D0B1BC
:1098000087601420FAF747FC044678B18760014668
:1098100003A8FFF7CFFC059BA268A360069B0592F7
:10982000E268E3609DF81C3006922374064BEB60FF
:10983000064B2C60AB6003A8FFF7B3FC002229465F
:109840000348FEF7CDFFC7E717940D0007970D00FB
:10985000319C0D00704710B51821044600F010FC33
:10986000204610BDF0B5037D062B8DB00E4600F1ED
:1098700004074FF0000412D000F1080515F8011D8F
:109880000A223046FFF7DBFAAF42044419D0002C1D
:10989000F4D02E213046FFF7B7FA0444EEE72F2329
:1098A0006A4639460A208DF80040FEF739FE6846C0
:1098B00004F09FF833680246DB68694630469847F3
:1098C000044620460DB0F0BD10B5054B04461122EC
:1098D00040F8043B002104F03BF8204610BD00BFD7
:1098E00034ED0D000346074A10B543F8042B01F18F
:1098F000100251F8044B43F8044B9142F9D10A7815
:109900001A7010BD34ED0D0010B59DF8084044EA02
:10991000032343EA024242EA0161042341600375E2
:1099200010BD13B5CB7800938B784A780978FFF790
:10993000EBFF02B010BD417470477047704708B527
:109940000021007CFEF704FF40EAE07008BD08B586
:109950000121007CFEF7FCFE40EAE07008BD08B57E
:10996000007CFEF7EDFE20EAE07008BD08B5007C43
:10997000FEF7DEFE20EAE07008BD13B50446007C69
:109980000191FEF7DDFE0028019901DC607C20B129
:10999000207CFEF7E5FE20EAE07002B010BD007CFE
:1099A000FEF7E6BE10B51421044600F069FB204620
:1099B00010BD000010B54FF47A730446084600212C
:1099C000C4E90113044B236001232074637411461E
:1099D000FEF79EFE204610BD48ED0D00007C0022E3
:1099E000FEF79EBE007CFEF7CBBEFFF7FBBF10B5B7
:1099F00014220446002103F0ABFF204610BD0000F6
:109A000010B50F4C88B003A8FFF7F1FF2178BFF322
:109A10005B8F11F001010FD120460191FAF74CFB49
:109A2000019948B103AA0748FFF7C4FF2046FAF797
:109A300048FB054803F078FF024808B010BD00BF9E
:109A4000C0E50320C4E503203B990D00004700005A
:109A50002DE9FF4100241D460F4690460646FEF7BD
:109A6000FFFCA5424FF00403ADF80D408DF80C301B
:109A70008DF80F40A2BF9DF828308DF80E3003AC52
:109A80000749009443463A463046A8BF8DF80D502A
:109A9000FEF7DEFCB0FA80F0400904B0BDE8F081CA
:109AA0004D9A0D00002240681146FEF7D5BE0022F7
:109AB00040681146FEF7F0BE002240681146FEF7EE
:109AC000FBBE40680022FEF7EFBE4068002281F036
:109AD0000101FEF7D9BE002340681A461946FEF779
