:02000002D0002C
:1040000000400D0048EE0D00000006000D00050107
:0840100004019A080000000001
:0440180000D70D00C0
:1040200009480A49884208B505D0094A824202D0A7
:10403000121A09F08DFA0748074A0021121A09F0EE
:1040400095FA014808BD00BFCCE30320ACED0D009C
:1040500040E4032040E40320EDE7032070B5074E61
:10406000074C04F019FFA41BA4080025A54200D1A9
:1040700070BD56F8043B98470135F7E778ED0D0021
:104080009CED0D0001F096B908B501F08DF8BDE882
:10409000084004F0B9BE04F0EFB904F0EDB904F043
:1040A000F3B9000008B5034A00210C2004F010F910
:1040B000FEE700BFD17F0D000078B0FA80F0400924
:1040C000704701230370704710B5074C03F088FF59
:1040D0002368C01A162806D9044A136801331360EE
:1040E00003F07EFF206010BD40E4032044E4032081
:1040F0002DE9F341002A1D4675F10003089F804613
:10410000144611DA0A2F0FD12D2104F069FC624206
:10411000064665EB4503FFB20097404604F099FC64
:10412000304402B0BDE8F08122462B460026F2E77B
:10413000F8B50C1E074616460CDA0A2A0AD12D21BC
:1041400004F04EFC61420546F2B2384604F063FCCE
:104150002844F8BD21460025F6E7F8B50C1E0746B1
:1041600016460CDA0A2A0AD12D2104F039FC6142E4
:104170000546F2B2384604F04EFC2844F8BD21460C
:104180000025F6E737B50023274D8DF807300DF1F0
:1041900006020DF105018DF806308DF80530234833
:1041A0000DF1070302F085FC05F01AFA294604F028
:1041B00026FC05F015FA1E4904F00EFC05F010FA75
:1041C00010229DF80510044604F025FC204604F05A
:1041D0000AFC05F005FA174904F0FEFB05F000FAA9
:1041E00010229DF80610044604F015FC204604F049
:1041F000FAFB05F0F5F9104904F0EEFB05F0F0F9D3
:1042000010229DF80710044604F005FC204604F037
:10421000EAFB05F0E5F9294604F0F1FB4FF4FA70EA
:1042200004F0ACFD03B030BD29D90D009CE403209F
:1042300014D70D0026D70D0038D70D001FB5002369
:104240008DF80F308DF80E308DF80D308DF80C3064
:104250000DF10F030DF10D0203A9234800930DF199
:104260000E0302F046FC05F0BBF9204904F0B4FB54
:104270009DF80C3023B905F0B3F91D4904F0ACFBEF
:1042800005F0AEF91B4904F0A7FB05F0A9F90A22D5
:104290009DF80C1004F0BFFB05F0A2F9164904F0DC
:1042A0009BFB05F09DF90A229DF80D1004F0B3FB6D
:1042B00005F096F9114904F08FFB05F091F90A22F7
:1042C0009DF80E1004F0A7FB05F08AF90C4904F0E4
:1042D00083FB05F085F99DF80F100A2204F09BFB83
:1042E00005B05DF804FB00BF9CE4032028D90D0055
:1042F0004AD70D004DD70D0052D70D0056D70D00EF
:104300005AD70D0038B505F06BF93649364C04F034
:1043100063FB05F065F90546204601F0C5FBDFEDBE
:10432000337A60EE277A17EE900A08F073FA304B72
:10433000002208F011F941EC100B0221284604F08C
:1043400090FC05F04DF92B4904F059FB05F048F9B4
:10435000294904F041FB05F043F90546204601F0E8
:10436000D1FBDFED267A80EE277A022128469FEDE9
:10437000240A27EE000A04F065FC05F031F9214912
:1043800004F03DFB05F02CF91F4904F025FB05F076
:1043900027F99FED1E0A0546204601F08DFC0221FB
:1043A000284604F04FFC05F01BF9194904F027FBDF
:1043B00005F016F9174904F00FFB05F011F9054651
:1043C000204601F019FD0221284604F03BFC05F0CF
:1043D00007F9114904F013FB05F002F9BDE8384074
:1043E00004F001BB5ED70D0058E403206666E63F8B
:1043F000000040406FD70D0072D70D0080E6C54722
:1044000000003E447ED70D0084D70D0000507D444F
:1044100098D70D009BD70D00A7D70D0030B53B4DA9
:104420003B488BB0694602F0E5F905F0D9F829461A
:1044300004F0E5FA05F0D4F8364904F0CDFA05F0B9
:10444000CFF8694604F0DBFA05F0CAF8324904F007
:10445000C3FA05F0C5F80A2203990446FFF768FE7F
:10446000204604F0C0FA05F0BBF82C4904F0B4FA79
:1044700005F0B6F80A2204990446FFF759FE2046D3
:1044800004F0B1FA264C05F0ABF8264904F0A4FA82
:1044900005F0A6F89DED060A022104F0D3FB05F015
:1044A0009FF8214604F0ABFA05F09AF81E4904F093
:1044B00093FA05F095F89DED070A022104F0C2FB7E
:1044C00005F08EF8214604F09AFA05F089F81749AC
:1044D00004F082FA05F084F89DED080A022104F048
:1044E000B1FB05F07DF8214604F089FA05F078F873
:1044F000294604F084FA05F073F80D4904F07FFAB8
:104500004FF4FA7004F03AFC0BB030BDAAD70D009E
:104510009CE40320CFD70D00DED70D00EDD70D00B2
:104520000BD80D00FCD70D0010D80D001FD80D00C2
:1045300029D90D0038B5044605F052F84C494D4DC7
:1045400004F05DFA05F04CF84B4904F045FA05F02B
:1045500047F80A22B4F90010FFF7FFFD05F040F814
:10456000294604F039FA05F03BF80A22B4F90210A2
:10457000FFF7F3FD05F034F8294604F02DFA05F0B5
:104580002FF80A22B4F90410FFF7E7FD05F028F828
:10459000294604F021FA05F023F8384904F01CFA02
:1045A00005F01EF80A22B4F90C10FFF7D6FD05F04D
:1045B00017F8294604F010FA05F012F80A22B4F9A7
:1045C0000E10FFF7CAFD05F00BF8294604F004FAB7
:1045D00005F006F80A22B4F91010FFF7BEFD04F04A
:1045E000FFFF294604F0F8F904F0FAFF244904F02B
:1045F000F3F904F0F5FF0A22B4F90610FFF7ADFD58
:1046000004F0EEFF294604F0E7F904F0E9FF0A227E
:10461000B4F90810FFF7A1FD04F0E2FF294604F009
:10462000DBF904F0DDFF0A22B4F90A10FFF795FD6B
:1046300004F0D6FF294604F0CFF904F0D1FF114968
:1046400004F0CAF904F0CCFF0A22B4F91210FFF703
:1046500084FD04F0C5FF0C4904F0BEF904F0C0FF6E
:10466000B4F914100A22BDE83840FFF776BD00BF48
:104670002ED80D00A5D90D0045D80D0055D80D0038
:104680005DD80D0064D80D0074D80D00152808B54C
:1046900006DC04F0A5FF1849BDE8084004F0AFB9F6
:1046A000422803DC04F09CFF1449F5E76F2803DC83
:1046B00004F096FF1249EFE79C2803DC04F090FF1A
:1046C0001049E9E7D32803DC04F08AFF0E49E3E749
:1046D000F62803DC04F084FF0C49DDE7B0F5927F97
:1046E00003DA04F07DFF0A49D6E7B0F5A87FD0DCF5
:1046F00004F076FF0749CFE782D80D0084D80D007B
:1047000085D80D0087D80D008AD80D008CD80D00F3
:1047100090D80D008FD80D002DE9F04F2DED088BAE
:1047200097B000238DF80F300DF10F0300930DF1BA
:104730000D020DF10E0303A9DB48DFF8A483DFF8B7
:10474000A4A3DFF8A493DFF8A4B39FEDD89A02F0F6
:10475000D0F904A8D449082202F0CAFA0AA8D2491A
:10476000142202F0C5FA10A8CF490E2202F0C0FAB6
:10477000DDE90801C2A3D3E9002308F0CDF9C0A305
:10478000D3E9002341EC180BDDE9040108F0C4F97A
:10479000B0EE481AF0EE681A41EC100B05F0FAFA88
:1047A00053EC102B10EE100A03F100410022C04B15
:1047B00008F088F8B4A3D3E9002308F0ADF9BD4BA5
:1047C000002208F07FF808F075FBADA3D3E90023C1
:1047D000C8F80000DDE9080108F09EF9A8A3D3E9B4
:1047E000002341EC180BDDE9060108F095F9B0EE65
:1047F000481AF0EE681A41EC100B05F0CBFA53ECB6
:10480000102B10EE100A03F100410022A84B08F013
:1048100059F89DA3D3E9002308F07EF90022A54BA7
:1048200008F050F808F046FBA34BCAF80000064613
:10483000186807F0EFFF96A3D3E9002308F042F8C9
:10484000044630460D4607F0E5FF93A3D3E9002365
:1048500008F038F802460B462046294607F07CFE51
:1048600008F028FB954908609548006807F0D2FFDA
:1048700087A3D3E9002308F025F80446D8F8000000
:104880000D4607F0C7FF84A3D3E9002308F01AF808
:1048900002460B462046294607F05EFE08F00AFB5A
:1048A000884C894D206003F09BFB2B68874CC01A15
:1048B00007F08EFF864B002208F02EF908F0FAFA76
:1048C000206003F08DFB2860206807F0A3FF0246FC
:1048D0000B4643EC1A2BDDE90C2307F0F3FF0646E9
:1048E0000F46D9F8000007F095FF32463B4607F027
:1048F00033FE67A3D3E9002307F0E4FF0446D8F8AA
:1049000000000D4607F086FF63A3D3E9002307F0FC
:10491000D9FF02460B462046294607F01DFE08F047
:10492000C9FADDE90A2308EE900AC9F8000051EC43
:104930001A0B07F0C7FF04460D46DBF8000007F02E
:1049400069FF22462B4607F005FE51A3D3E9002359
:1049500007F0B8FF8046DAF80000894607F05AFFF2
:104960004DA3D3E9002307F0ADFF02460B464046B6
:10497000494607F0F1FD08F09DFADFF87481CBF8A5
:10498000000008EE100AD8F8000007F043FF324696
:104990003B4607F0E1FD08F08DFA4E4EC8F80000E6
:1049A000306807F037FF22462B4607F0D3FD08F0AA
:1049B00081FAC8EE097A306017EE900A07F02AFFF4
:1049C00037A3D3E9002307F07DFF08F073FAC8EEA0
:1049D000897A414B186008EE100A17EE900A07F02A
:1049E00019FF2FA3D3E9002307F06CFF08F062FA48
:1049F0003A4B00EE100A186008EE900A05F038F9FC
:104A000010EE104AB0EE480A05F07AF910EE100ADE
:104A100007F000FFB0EE680A41EC1A0B05F070F9E0
:104A200010EE100A07F0F6FE9DED147BB0EE480A7A
:104A3000B0EE47BAF0EE67BA06460F4605F018F931
:104A400010EE100A07F0E6FE80462046894607F081
:104A5000E1FEDDE9102307F035FFDDE912AB53EC91
:104A60001A2B04460D465046594607F02BFF324696
:104A70003B4607F027FF02460B4620463AE000BFC0
:104A80009A9999999999234050455254FB2109408C
:104A9000666666666666EE3F9A9999999999A93F06
:104AA0001F85EB51B81E19409CE403200000B4435D
:104AB0000000E03F0080764044E5032040E503200D
:104AC00060E503205CE5032038E5032014E50320BE
:104AD00000408F4048E5032050E503206CE50320AB
:104AE00068E503204CE5032058E503203CE503205E
:104AF00064E50320294607F02DFD424604460D4695
:104B00004B4651EC1B0B07F0DDFE32463B4607F0EF
:104B1000D9FE02460B462046294607F01DFD08F047
:104B2000C9F92B4B08EE100A186042464B46504616
:104B3000594607F0C7FE53EC1B2B04460D4651ECBB
:104B40001A0B07F0BFFE02460B462046294607F027
:104B500003FD08F0AFF91F4B1F4C1860F0EE480A38
:104B600000EE100A05F0CEFA1C491D4A0B681360CE
:104B70001C4A2368136010EE100A07F04BFE12A3C4
:104B8000D3E9002307F0C8FF174B002207F09AFE75
:104B900008F090F9DFED157A154B07EE100A77EE65
:104BA000277AF4EEC97AF1EE10FAA8BF77EEC97A47
:104BB000C3ED007A93ED000A17B0BDEC088BBDE899
:104BC000F08F00BFAFF300801F85EB51B81E194076
:104BD0004CE4032050E403205CE5032040E503207F
:104BE00044E5032060E50320008076400000344364
:104BF00054E503202DE9F84304F0F2FC2E492F4D33
:104C0000DFF8C880DFF8C89003F0F9FE0124A7B2EE
:104C10002A48394603F042F8372847D1C822394696
:104C2000284603F019F870B904F0DAFC494603F09D
:104C3000D3FE04F0D5FC10220646214603F0EBFE1D
:104C4000304603F0D0FE0021284603F027F8372233
:104C500006463946284602F0FFFF70B904F0C0FC52
:104C6000414603F0B9FE04F0BBFC10220746214682
:104C700003F0D1FE384603F0B6FEC82E16D104F07C
:104C8000AFFC0F4903F0BBFE04F0AAFC0D4903F092
:104C9000A3FE04F0A5FC21460A2203F0BCFE04F0AA
:104CA0009FFCBDE8F843084903F0A9BE013447F66C
:104CB000FF739C42ABD1E7E792D80D001CE50320BF
:104CC000D9D80D00EBD80D0002D90D00BBD80D00CE
:104CD000A0D80D0000000000F7B5494B0646187833
:104CE00004F053FF4FF4B4730093002340F6FF72B7
:104CF0001946054604F036F8B0F5B47F044670DD79
:104D0000A0F5B47403F06CF941F28833984230D9BD
:104D10003C4F03F065F9386807F05AFD36A3D3E934
:104D2000002307F0CFFD08F0C5F8306004F058FC10
:104D3000354903F051FE04F053FC0A22396803F0B0
:104D40006AFE04F04DFC314903F046FE04F048FCD5
:104D500096ED000A022103F075FF04F041FC2B4997
:104D600003F03AFE04F03CFC294903F048FE00231E
:104D70003B6084EAE473A3EBE473052B2BDD04F0C2
:104D80002FFC244903F028FE04F02AFC002D0646DF
:104D90002CDA2D2103F024FE69420A22304603F06A
:104DA0003AFE04F01DFC194903F016FE04F018FC4D
:104DB000002C05461CDA2D2103F012FE61420A2266
:104DC000284603F028FE04F00BFC104903F004FE13
:104DD0002046FFF75BFC07EE904AB8EEE70A03B007
:104DE000F0BD0028B8BF00F5B4748BE72946D4E7BE
:104DF0002146E4E7AFF30080CDCCCCCCCCCCDC3F7B
:104E0000CCE3032044E4032009D90D0027D90D0089
:104E10002AD90D002FD90D0010B53D483D4C2DED80
:104E2000068B02F0C9FF3A48B0EE408A02F0D8FF84
:104E30003748F0EE408A02F0E7FF3548F0EE409A3E
:104E400002F0F1FFDFED347A88EE27AAB0EE409A47
:104E500004F0C6FB314903F0BFFD04F0C1FBB0EE26
:104E6000680A022103F0EEFE04F0BAFB214603F0CB
:104E7000C6FD04F0B5FB2A4903F0AEFD04F0B0FB1B
:104E8000B0EE480A022103F0DDFE3AEE28AA04F053
:104E9000A7FB244903F0B3FD04F0A2FB224903F071
:104EA0009BFD04F09DFBB0EE4A0A022103F0CAFE0E
:104EB00004F096FB214603F0A2FD04F091FB1B4990
:104EC00003F08AFD04F08CFBB0EE690A022103F0C6
:104ED000B9FE04F085FB164903F091FD04F080FB58
:104EE000144903F079FD04F07BFBB0EE490A02217E
:104EF00003F0A8FE04F074FB0F4903F080FD04F0FA
:104F00006FFBBDEC068B0D49BDE8104003F077BD8B
:104F100024E503205CD90D0000007A444CD90D0033
:104F20005FD90D006FD90D0073D90D0083D90D0025
:104F300093D90D0097D90D00A7D90D0029D90D00DF
:104F400010B58AB001A92948294C01F041FF04F0AD
:104F500047FB284903F040FD04F042FB9DED060AA3
:104F6000042103F06FFE04F03BFB234903F034FD02
:104F700004F036FB9DED070A042103F063FE04F004
:104F80002FFB1E4903F028FD04F02AFB9DED080AC3
:104F9000042103F057FE04F023FB194903F02FFD11
:104FA00004F01EFB174903F02AFDDDED067A9FEDA4
:104FB000167A77EE877A9FED157AF4EEC77AF1EEDE
:104FC00010FAC8BF77EEC77AC4ED007A04F008FB88
:104FD0000F4903F001FD04F003FB94ED000A0421E6
:104FE00003F030FE94ED000A0AB010BD9CE40320EB
:104FF000B4E40320ABD90D00AFD90D00B4D90D0036
:1050000029D90D00B9D90D000000D0420000B443E9
:10501000BCD90D001FB5134B134800221A7002F0C3
:1050200001FE4021114802F04DFE114800F068FCDD
:1050300004F0F2FD0F4A1049CDE901214FF0FF3293
:1050400003460092402180220C4802F065FD04F0E6
:10505000E3FD03460A482822372105B05DF804EB3A
:1050600001F0F0BB54E403201CE5032024E50320F9
:1050700058E40320801A0600A0860100BCE4032047
:105080009CE4032038B5374C374D204601F0EEFF45
:10509000204602F05EFC002334492361204603F0E1
:1050A0009BFC284600F000FDDFED317A60EE277AA8
:1050B00017EE900A07F0AEFB2E4B002207F04CFAD9
:1050C00041EC100B0221204603F0CBFD2A4920467B
:1050D00003F095FC2949204603F07EFC284600F0A9
:1050E00011FDDFED277A80EE277A022120469FED21
:1050F000250A27EE000A03F0A5FD2349204603F008
:105100007EFC2249204603F067FC28469FED200ADA
:1051100000F0D2FD0221204603F094FD1D492046F7
:1051200003F06DFC1C49204603F056FC284600F0B5
:1051300063FE0221204603F085FD1849204603F056
:105140005EFC1749204603F047FC164B204693EDC2
:10515000000A022103F076FD2046BDE8384002F047
:10516000F8BB00BFBCE4032058E40320CFD90D00F6
:105170006666E63F00004040D8D90D00DDD90D003D
:1051800080E6C54700003E447ED70D008CD70D0059
:1051900000507D4498D70D009BD70D00A7D70D0078
:1051A000E7D90D00B4E4032010B56C4B6C4C1878B3
:1051B0008AB0012104F0BDFC2046FFF78DFD8DED86
:1051C000030A04F00DFA674903F006FC04F008FA3C
:1051D000654903F001FC04F003FA9DED030A022186
:1051E00003F030FD04F0FCF95E4903F0F5FB04F038
:1051F000F7F95E4903F0F0FB04F0F2F994ED000AD0
:10520000022103F01FFD04F0EBF9564903F0E4FB23
:10521000FFF778F8FFF736FF554B186803F0AEFD3F
:10522000042004F09FFC18B95249534803F0D4FB02
:10523000032004F097FC18B950494F4803F0CCFB09
:10524000022004F08FFC18B94D494B4803F0C4FB11
:105250000A2003F093FD02F0F3FE4748494C02F0A8
:1052600078FB04F0BDF9484903F0C9FBFFF768FE7D
:10527000464B83ED000AFFF74FFA84ED000A04F075
:10528000AFF9434903F0A8FB04F0AAF994ED000A32
:10529000022103F0D7FC04F0A3F93E4903F09CFB84
:1052A00004F09EF9044603F043FD0A22014620461D
:1052B000FEF73EFF04F094F9374903F08DFB04F04C
:1052C0008FF90A230093354BD3E90023FEF710FF33
:1052D00004F086F9234903F07FFB04F081F92149AA
:1052E00003F07AFB2E4800F0DFFBDFED2E7A60EE54
:1052F000277A17EE900A07F08DFA2B4B002207F061
:105300002BF941EC100B062106A803F0FEFA274BFF
:10531000069A1B788DF8003025493C2304A803F039
:1053200013FF059C7CB16368013B63605BB9236834
:1053300020469B689847A368013BA3601BB923687C
:105340002046DB68984706A803F082FAFFF764FD61
:1053500042F2107003F012FD0AB010BDCDE303203D
:1053600048E40320BAD90D00F7D90D0009DA0D0081
:10537000B8E4032095D90D00BCE403206CDE0D00D9
:1053800017DA0D00B0E40320B9D90D0018E50320A9
:1053900019DA0D002ADA0D0038DA0D0070E5032065
:1053A00058E403206666E63F0000404054E40320D2
:1053B0004ADA0D0070B5A2B004F012F9BF4903F04B
:1053C0001EFB04F029FC0146BD4802F063FD40B914
:1053D00004F006F9BB4903F012FB0A2003F0CEFCEF
:1053E000FBE7B748B84CB94D02F06FFD03F0A0FCE5
:1053F000C117C4E9000104F0F3F8B54903F0ECFA71
:1054000004F0EEF80A230093D4E90023FEF770FEBF
:1054100004F0E6F8AF4903F0DFFAAF4B002118784B
:1054200004F076FBAD4B0121187804F071FB04F019
:10543000D7F8AB4903F0E3FA2878002104F068FBC1
:105440000023009302224FF0FF33A649287804F08E
:10545000EFF804F0C5F8A44903F0D1FA04F0C0F85D
:10546000A24903F0CCFA04F0BBF84FF4E13104F0A8
:10547000A5F8254604F0B4F804F0A7F80028F9D000
:105480009B4C04F0ADF89B4903F0C3FA04F0A8F874
:10549000994903F0B4FA01223C21204602F050FB66
:1054A00004F09EF8954903F0AAFA204602F051FA5A
:1054B0004FF47A7003F062FC204601F0D7FD2046DD
:1054C00002F047FA0121204601F0D6FF04F088F8E7
:1054D0008B4903F094FA0221042004F019FB022105
:1054E000032004F015FB0221084604F011FB012102
:1054F000204602F028FA00264FF00113C4E90463A5
:105500008049204603F068FA7F49204603F064FA98
:10551000204602F01EFA7D4800F073FE78BB04F0CE
:105520005FF87B4903F06BFA04F05AF8794903F00D
:1055300053FA04F055F80446744800F0E5F91022D7
:105540000146204603F067FA204603F04CFA04F0C7
:1055500047F8714903F040FA04F042F86F4903F04C
:105560003BFA04F03DF86E4903F036FA04F038F8DF
:105570006C4903F031FA0A2003F000FCFBE704F069
:105580004BFB50210246684802F050FB90B104F0FA
:1055900027F8664903F033FAFFF72CFB64480C2127
:1055A00001F036FA044670B904F01AF8614903F0C4
:1055B00013FAFEE704F014F85F4903F020FA0A201A
:1055C00003F0DCFBFBE704F00BF8414903F004FABD
:1055D00004F006F80A230093D5E90023FEF788FDBE
:1055E00003F0FEFF3B4903F0F7F94FF47A7003F044
:1055F000C5FBFEF713FF04F0DFFA042202A93046D0
:1056000002F0FEFC4A4818A901F0F4F81C9A029B2B
:105610009A4235D003F0E4FF484903F0F0F94FF423
:10562000FA7003F0ABFB34464FF47A7003F0A6FB3C
:10563000FEF7F4FEFEF7A6FD01213D4801F036F924
:1056400002F0CEFC3E4B0FA91860394801F0C0FBB8
:10565000002C7FD003F0C4FF3A49354C03F0CFF95A
:10566000204601F05EFA002840F0B3800FA92046E2
:1056700001F0AEFBFEF7E2FD642003F07FFBEFE7F5
:1056800003F0AEFF304903F0BAF904F095FA1622A0
:1056900003A9042002F0B4FC03A8FEF74BFF03F0BB
:1056A0009FFF2A4903F0ABF903A9214801F021F932
:1056B00003F096FF264903F0A2F9B5E75DDA0D0085
:1056C00024E5032064DA0D0070E50320CEE3032017
:1056D00038DA0D00BAD90D00CCE30320CDE3032066
:1056E0007FDA0D00C9400D009CDA0D00B2DA0D0022
:1056F000BCE40320C0DA0D00CCDA0D00E9DA0D00BD
:10570000F4DA0D0000DB0D0020DB0D0058E403206F
:105710002CDB0D0074DB0D0085DB0D00CCDB0D00F8
:10572000F6DB0D0020DC0D001CE503204ADC0D003B
:105730009CE4032093DC0D005BDC0D00D0DC0D004D
:1057400038E5032088DD0D0006DD0D0034DD0D0099
:1057500062DD0D0003F044FF3D493E4C3E4E3F4D9F
:1057600003F04DF9204601F0DCF990BB0FA920466B
:1057700001F02EFB03F034FF314603F02DF903F066
:105780002FFF9DED140A042103F05CFA03F028FFBB
:10579000294603F021F903F023FF9DED150A0421AA
:1057A00003F050FA03F01CFF2D4903F015F903F044
:1057B00017FF9DED160A042103F044FAFEF73EFDA3
:1057C00003F00EFF274903F01AF9642003F0D6FA1C
:1057D000C8E703F005FF244903F011F903F000FFC7
:1057E000224903F00CF903F0FBFE214903F007F90D
:1057F00009A9184801F0CEF909A8FEF79BFE03F0AD
:10580000EFFE1C4903F0FBF818A9124800F0F2FF64
:105810001C9B029304F0D0F902A90422002002F09C
:10582000F7FB04F0C9F9162209A9042002F0F0FBE5
:1058300003F0D6FE104903F0E2F803F0D1FE0F4961
:1058400003F0DDF84FF4FA7003F098FA22B070BD5F
:10585000B8DD0D009CE40320ABD90D00AFD90D00DD
:10586000B4D90D0029D90D00D2DD0D00AED70D0041
:10587000E5DD0D00FBDD0D0023DE0D003ADE0D0041
:10588000704710B51021044604F0EAF9204610BD17
:105890000EB403B503AB002153F8042B019303F0BE
:1058A000E3F902B05DF804EB03B0704773B504464A
:1058B00008462279A36832B1A3B90B4902B0BDE80A
:1058C000704003F089B8094A267B094D0949647B79
:1058D000012E18BF2946CDE900140749FFF7D8FF6C
:1058E00002B070BD054AEFE76EDE0D0029D90D004C
:1058F0006ADE0D0066DE0D0084DE0D005DDE0D004B
:105900004FF0FF33036170478068704713B50B4C4D
:105910002178BFF35B8F11F001010BD1204601917B
:10592000FEF7CAFB019928B1054802F029FE20467E
:10593000FEF7C7FB024802B010BD00BF78E50320A8
:105940007CE503202DE9F04190F913300133054641
:105950000F4606D1FFF7DAFF3946BDE8F04102F005
:10596000B1BE002407264FF0010895F9130000216D
:1059700080B204F0DEF895F9110008FA06F139401A
:1059800080B204F0D6F895F91300012180B204F03A
:10599000D0F895F91200640080B2E4B204F0E2F8A5
:1059A00008B144F00104013EDFD22046BDE8F08199
:1059B00008B5FFF7ABFFBDE8084002F0FCBD07B536
:1059C0000190FFF7A3FF019903B05DF804EB02F02B
:1059D0000BBE000030B590F91030013385B004469D
:1059E0000D4623D10179006803F09AFF206803680F
:1059F00029469B689847206803F09AFF2179206820
:105A0000032203F08AFF206803685B699847050258
:105A1000206803685B69984728430502206803688B
:105A20005B6998470543284605B030BD90F91330AF
:105A300001330CD11A4B009300238DF80430194B1D
:105A4000029368460123ADF80C30FFF7B8FF94F9D4
:105A50001000002180B204F06CF845F0800120466F
:105A6000FFF770FF00212046FFF76CFF00210502C1
:105A70002046FFF767FF2843050200212046FFF775
:105A800061FF054394F91000012180B204F051F840
:105A900094F913300133C6D1FFF78AFFC3E700BF83
:105AA000ACDE0D0020A1070010B5FA210446FFF777
:105AB00091FFB0F5000F1ED0A18A9FED107A4B0028
:105AC000C1EB2022C3EBE011B4F916305243594325
:105AD000B4F91830121353439B1303EBE123E36033
:105AE00003EB830380331B1207EE903AF8EEE77A5C
:105AF00087EE870A10BD9FED020AFBE70000C8424F
:105B00000000C07F2DE9F8430446FFF7CDFFF721E1
:105B10002046FFF75FFFB0F5000F054600F0BF809D
:105B2000E068B4F91C60B0F5FA334FEAE07141F176
:105B3000FF32A3FB038903FB02F109EB4109F717CD
:105B400006FB02F103FB0711A6FB03670F443903B1
:105B500041EA16513003B4F91E60F71706FB09FC41
:105B600008FB07CCA6FB086767444FEA162C4CEAF3
:105B7000076C668B4FEA272E1CEB00004EEB010EE4
:105B800000304EF5004EA0FB060106FB0E114E1034
:105B9000CF1756EA070100F08580B4F9240000FB16
:105BA00009FCC11708FB01CCA0FB0801B4F9228055
:105BB0004FEAE87908FB02F203FB0922A8FB0389FC
:105BC000914461444FEA48424FEA494C2D11121862
:105BD000C5F580154CEAD83CB4F920804CEB010C9B
:105BE0000023E9179B184FEAC17E4FEAC5704FEAC0
:105BF000C80141EB0C0C4EEA550EC01A40F6354375
:105C00006EEB0C0EA0FB030103FB0E1132463B466C
:105C100007F0AEFAB4F92A204D13460B46EAC14606
:105C200002FB05F7D31706FB0377A2FB06233B44D1
:105C3000554306FB0355A2FB06232B44550E45EAAC
:105C4000C315B4F92820B4F926402D184FEA63662D
:105C500041EB0606D317514300FB0311A2FB0023BF
:105C60000B44D10C41EA43316D184FEAE34046EB57
:105C700000032A0AE51742EA0362191220012B01E8
:105C800043EA1473801843EB010107F033FA9FEDE8
:105C9000070A07EE900A27EE800ABDE8F8839FED19
:105CA000040AFAE79FED030AF7E700BF0000803B14
:105CB0000000C07F0000000008B52DED028BB0EEA3
:105CC000408AFFF71FFF9FED167AC0EE077AC7EEF6
:105CD000887A17EE900A06F09DFD9FED0D1B41ECB2
:105CE000100B04F059F80F4953EC102B002006F06C
:105CF00031FC09A3D3E9002306F0E4FD07F0DAF84C
:105D0000BDEC028B00EE100A08BD00BFAFF30080AF
:105D1000EBE2361AC05BC83F0000000040A5E5403A
:105D20000000C8420000F03F30B590F91030013358
:105D300085B004460D461FD10179006803F0F0FDDF
:105D40002068036829469B689847206803F0F0FDA7
:105D500021792068022203F0E0FD206803685B6976
:105D600098470546206803685B69984740EA052024
:105D700085B2284605B030BD90F9133001330CD1FF
:105D8000184B009300238DF80430174B029368469C
:105D90000123ADF80C30FFF712FE94F9100000213A
:105DA00080B203F0C6FE45F080012046FFF7CAFD31
:105DB00000212046FFF7C6FD002105462046FFF7DB
:105DC000C1FD40EA052085B294F91000012180B29E
:105DD00003F0AFFE94F913300133CAD1FFF7E8FDA9
:105DE000C7E700BFACDE0D0020A1070008B5FFF734
:105DF0009BFF40BA80B208BD38B50446FFF754FE99
:105E0000FD212046FFF790FFB0F5004F38D0B4F9E0
:105E10003250E268B4F934302D05A2F59632C5EB64
:105E2000803002FB130303F58043D91394F830301C
:105E30005343DB1203F5004094F9363053439B1271
:105E400043439B1203F50012B4F92E30534303F57C
:105E500000539B134B43DA1394F82C105243D21186
:105E60004A43A3EB221323EAE373B3F1C85FA8BF4D
:105E70004FF0C8531B1300EE103ABAEECB0A38BDF0
:105E80009FED010AFBE700BF0000C07F30B590F92D
:105E90001030013385B004460D4618D101790068F1
:105EA00003F03EFD2068036829469B6898472068F8
:105EB00003F03EFD21792068012203F02EFD2068C9
:105EC00003685B699847C5B2284605B030BD90F9B4
:105ED000133001330CD1154B009300238DF804309F
:105EE000134B029368460123ADF80C30FFF767FDB2
:105EF00094F91000002180B203F01BFE45F08001F0
:105F00002046FFF71FFD00212046FFF71BFD054639
:105F100094F91000012180B203F00BFE94F91330C4
:105F20000133D1D1FFF744FDCEE700BFACDE0D0059
:105F300020A1070008B5F321FFF7A8FF00F001003A
:105F400008BD38B588210446FFF750FF8A21A0829A
:105F50002046FFF74BFF8C21E0822046FFF746FFEB
:105F60008E2120832046FFF741FF90216083204649
:105F7000FFF73CFF9221A0832046FFF737FF9421D3
:105F8000E0832046FFF732FF962120842046FFF76A
:105F90002DFF982160842046FFF728FF9A21A084D6
:105FA0002046FFF723FF9C21E0842046FFF71EFFD9
:105FB0009E2120852046FFF719FFA12160852046FC
:105FC000FFF764FFE12184F82C002046FFF70EFF65
:105FD000E321E0852046FFF759FFE42184F83000F3
:105FE0002046FFF753FFE52105462046FFF74EFF09
:105FF00000F00F0343EA05106086E6212046FFF714
:1060000045FFE52105462046FFF740FF031143EA1F
:106010000510A086E7212046FFF738FF84F83600F8
:1060200038BD00007FB590F91030013304460E46AC
:10603000154612D10179006803F072FC20680368EC
:1060400031469B6898472068036829469B689847B3
:10605000206803F06DFC04B070BD90F9133001337B
:106060000CD1144B009300238DF80430124B029393
:1060700068460123ADF80C30FFF7A1FC94F910003D
:10608000002180B203F055FD06F07F012046FFF7A6
:1060900059FC29462046FFF755FC94F910000121D0
:1060A00080B203F046FD94F913300133D3D1FFF7EA
:1060B0007FFCD0E7ACDE0D0020A10700F8B5DB00C7
:1060C00002F0070203F03803134343EA81139DF8FB
:1060D000186080F83C3090F840309DF81C509DF8D6
:1060E000207066F3471380F84030ED0090F83830A8
:1060F00007F0070705F0380523F03F033D4304464A
:106100001D4380F8385006F00702F221FFF78AFF9E
:1061100094F83820C2F3C20302F007019B0043EA5F
:10612000411343EAD2122046F521FFF77BFF94F892
:106130003C20C2F3C20302F007019B0043EA411373
:1061400043EA92122046F421BDE8F840FFF76ABF07
:1061500030B5044690F91000421C85B019D1206872
:1061600003F0ACFBD0212046FFF790FE6028A06032
:1061700045D12046B622E021FFF754FF4FF4967038
:1061800002F0FCFD2046FFF7D5FE054628B364204B
:10619000F6E7012180B203F0CCFC94F91000012154
:1061A00080B203F0B5FC94F91300431C04D1FFF74F
:1061B000ADFB02F0EFF9D5E7012180B203F0A8FCB6
:1061C00094F91100012180B203F0A2FC94F91200AD
:1061D000002180B203F09CFCC4E72046FFF7B1FE2B
:1061E000052300931A4603212046CDE90155FFF708
:1061F00065FF642002F0C2FD012005B030BD002023
:10620000FBE7772310B50371044603F005FD20601A
:106210002046FFF79DFF30B9762323712046BDE865
:106220001040FFF795BF10BD30B50025C0E900153F
:1062300042819DF810109DF80C20456141738273D6
:10624000037330BDF0B5034685B04089ADF80C004E
:106250004FEA102E18689C7A0E46174640B15B7BB9
:10626000019303AB0093012300F036FA05B0F0BDB3
:1062700058680028FAD093F808C05D7BBCF1030F82
:106280000BD12EF0010E01358DF80CE08DF80D408C
:10629000009503AB00F08FF9E8E7BCF1000F08D1DF
:1062A00004F07F048DF80C40009503AB3A4631466C
:1062B000F0E7BCF1020F02D164F07F04F2E7BCF119
:1062C000010F01BF9DF80C3003F07F0343F0400342
:1062D0008DF80C30E8E7F0B40B4602B9027B042AD3
:1062E00014D800F10F05436184182946844209D06F
:1062F000877BDEB227B92E701B0A0135013CF5E71A
:10630000A673F9E72046F0BCFFF79CBF0020F0BC65
:1063100070477FB50446857A0B4641890068ADF821
:106320000C100E0A40B10021CDE9002103A9627BC7
:1063300000F040FA04B070BD60680028FAD0217AFD
:10634000647B03290DD146F00106FF21CDE9002130
:106350008DF80C608DF80D50621C03A900F05DF9FA
:10636000E8E741B965F07F058DF80C50FF21CDE9D4
:1063700000212246F1E7022902D105F07F05F3E76B
:10638000012902BF9DF80C1061F03F018DF80C103F
:10639000ECE738B502220D4600F10F010446FFF785
:1063A000B8FF38B1A37B33B9237C1B022B80E27B7F
:1063B00013432B8038BDE37B1B022B80227CF7E745
:1063C00010B50446406810B103689B6898472046A2
:1063D00010BD38B5044690F90E00012180B203F0DB
:1063E00097FB94F90E00012180B203F0A2FB25680F
:1063F00035B1284602F0CEF8012084F8340038BDCB
:1064000094F90F00012180B203F082FB637B94F9C1
:106410000F00012B94BF2946012180B203F089FBB4
:1064200094F91000421C09D0012180B203F070FBE6
:1064300094F91000012180B203F07BFB94F9110064
:10644000431CD9D0002180B203F062FBD4E70000E6
:106450002DE9F04F0446006885B00D4640B1002399
:10646000009313460A4602F033F905B0BDE8F08FF9
:10647000237BA068484FB7FBF0F7002B0B780CBFCD
:106480004FF0010B4FF0800B1BEA030F01EB0203EF
:106490000CBF4FF001094FF00009FFB20393039BBB
:1064A000AB42E2D095F800A05E464FF0000817B16D
:1064B000384601F08DFD637B13F0FD0F41D194F957
:1064C00010305A1C0FD01AEA060114BF0123002312
:1064D0004B4508D06369606A1A6800292CD00243D2
:1064E0001A604FF00109A169E36A0A6813430B605F
:1064F00017B1384601F06CFD94F91130013306D024
:10650000E3691A68A36A1A4218BF46EA0808A16933
:10651000E36A0A6822EA03030B6094F9113001333D
:1065200018BF85F80080237B002B32D17600F6B2AD
:10653000002EBCD10135B2E722EA00021A6089467A
:10654000D1E7A169E36A0A6813430B6017B13846C3
:1065500001F03EFD94F91030013308D06369616A9F
:106560001A681AEA060F14BF0A438A431A60A1691F
:10657000E36A0A6822EA03030B6094F911300133DD
:10658000CBD0E3691A68A36A1A4218BF46EA080822
:10659000C3E77608CCE700BF20A1070007B50122BA
:1065A0008DF807100DF10701FFF752FF9DF8070066
:1065B00003B05DF804FB2DE9F041044600680E4687
:1065C00017461D4610B1616802F00EF894F90E00EE
:1065D000002180B203F0ADFA069B05EB03084545A8
:1065E00008D13744B7420BD016F8011B2046FFF7FD
:1065F000D5FFF7E715F8011B2046FFF7CFFFEEE7C1
:1066000094F90E00012180B203F093FA206808B1DA
:1066100001F0D1FF0120BDE8F0812DE9F0410446F1
:1066200000689DF81C800E4617461D4610B1616833
:1066300001F0DAFF94F90E00002180B203F079FA3C
:106640003744BE420AD1069BEE18AE420CD04146FA
:106650002046FFF7A3FF05F8010BF6E716F8011B2C
:106660002046FFF79BFFECE794F90E00012180B272
:1066700003F05FFA206808B101F09DFF0120BDE83A
:10668000F08142600022027220220170C2607047D5
:1066900010B5037A044653B12178606803F040F9DD
:1066A000606803F045F9B0FA80F0400910BD01219F
:1066B00000F003F80028EFD1F8E738B50446406849
:1066C0000D4603F0FBF80120207225B12046BDE8FD
:1066D0003840FFF7DDBF38BD2DE9F843DDE9089606
:1066E0001F46C368154632449A420446884602D97A
:1066F0000020BDE8F8830178406803F011F97EB905
:10670000606803682A46DB68414698478542EFD1B6
:106710006068394603F008F9B0FA80F04009E8E70C
:10672000B9F1000FECD0606803683246DB68494677
:106730009847B042DCD1E3E72DE9F0411546044625
:106740000E46D2B20178406803F0D5F885420DD1EB
:1067500000271FFA87F8A84507F1010709D26068EA
:1067600003685B69984706F80800F2E70020BDE877
:10677000F0810120FBE72DE9F843074688461646DD
:1067800099460025B54212D2FA68741B944228BF7C
:106790001446331BAB4294BF4B460023224608EB02
:1067A00005013846FFF7C8FF10B12544EAE701208C
:1067B000BDE8F88373B51D460023CDE900339DF88D
:1067C0001C30069E0446FFF787FF40B10123324686
:1067D0002946204602B0BDE87040FFF7CCBF02B0AA
:1067E00070BD08B5406803F065F8012008BD70472A
:1067F000704700000B4610B52822044600211846B9
:1068000006F0B4FE09490B2206F001FF0022012127
:10681000C272C160E16842620022016182610321AB
:10682000C261034A4161026210BD00BF81DD0D00FB
:106830000AD7233C10B51421044603F011FA204670
:1068400010BD000073B50193094B03600023C0E93C
:106850000231044610201646FDF71DFC054618B10E
:10686000019A3146FFF70DFF2046A56002B070BDCA
:10687000C0DE0D001FB50023CDE900338DF80C10EC
:106880008DF80D200123022203A98068FFF724FF61
:1068900005B05DF804FB08B50A4601743D21FFF719
:1068A000E9FFBDE808401E2002F068BA70B50D4649
:1068B00000210446067CFFF7EEFF192002F05EFA85
:1068C000002207212046FFF7D5FF85B180223F2116
:1068D0002046FFF7CFFF0A2002F050FA204631464B
:1068E000FFF7D9FFBDE87040142002F047BA2A46EE
:1068F000EDE770B50D4600210446067CFFF7CBFF9F
:10690000192002F03BFA2A7855212046FFF7B2FF02
:106910006A7856212046FFF7ADFFAA785721204616
:10692000FFF7A8FFEA7858212046FFF7A3FF2A794E
:1069300059212046FFF79EFF6A795A212046FFF72A
:1069400099FFAA795B212046FFF794FFEA795C2141
:106950002046FFF78FFF2A7A5D212046FFF78AFF46
:106960006A7A5E212046FFF785FFAA7A5F212046DA
:10697000FFF780FFEA7A60212046FFF77BFF2A7B42
:1069800061212046FFF776FF6A7B62212046FFF7F0
:1069900071FFAA7B63212046FFF76CFFEA7B64212D
:1069A0002046FFF767FF2A7C65212046FFF762FF3C
:1069B0006A7C66212046FFF75DFFAA7C672120469E
:1069C000FFF758FFEA7C68212046FFF753FF2A7D36
:1069D00069212046FFF74EFF6A7D6A212046FFF7B6
:1069E00049FF31462046BDE87040FFF754BF1FB550
:1069F00001220023CDE9002303AB8DF80C10806841
:106A00001946FFF7D7FE9DF80C0005B05DF804FBB2
:106A100070B504460E4680680121FFF74EFE05461C
:106A200010B90025284670BD00212046FFF7DFFF82
:106A3000A02813D100212046FFF72DFF20223F215F
:106A40002046FFF717FF1E2002F098F9002120468C
:106A5000FFF7CDFFA0280CD00A20F5E74FF47A709D
:106A600002F08CF900212046FFF7C1FFA028D8D101
:106A7000E0E7322002F082F900223E212046FFF7B3
:106A8000F9FE0A2002F07AF9002207212046FFF7DA
:106A9000F1FE00223F212046FFF7ECFE0A2002F023
:106AA0006DF920463146FFF7F6FE142002F066F934
:106AB000B8E7F8B50F4616460721002204461D46E2
:106AC000FFF7D8FE27B139212046FFF790FF387035
:106AD00026B136212046FFF78AFF307025B13A21D2
:106AE0002046FFF784FF2870BDE8F840C82002F078
:106AF00045B9F8B50E463521069F15461C46FFF7E9
:106B000076FF0EB18309337015B1C0F301132B70FA
:106B100014B1C0F38103237017B100F00300387083
:106B2000F8BD1FB504460DF10F0300930DF10D02E2
:106B30000DF10E0303A9FFF7DCFF237C013B092BBA
:106B400017D8DFE803F00522101E0C13160C1E10D8
:106B50009DF80E00C31E5842584104B010BD9DF868
:106B60000E30032B14D19DF80D00F3E79DF80F3084
:106B7000F7E79DF80C30032B0AD19DF80D30032B5D
:106B800006D19DF80E30032B02D19DF80F00E1E7EE
:106B90000020E2E72DE9F04104460D46FFF7C1FF72
:106BA0000646002800F091800021204694F81080CD
:106BB000FFF771FE192002F0E1F856212046FFF799
:106BC00016FF552107462046FFF711FF40EA072030
:106BD000288058212046FFF70AFF57210746204604
:106BE000FFF705FF40EA072068805A212046FFF79B
:106BF000FEFE592107462046FFF7F9FE40EA07202E
:106C0000A8805C212046FFF7F2FE5B210746204664
:106C1000FFF7EDFE40EA0720E8805E212046FFF7FF
:106C2000E6FE5D2107462046FFF7E1FE40EA072029
:106C3000288160212046FFF7DAFE5F2107462046C3
:106C4000FFF7D5FE40EA0720688162212046FFF762
:106C5000CEFE612107462046FFF7C9FE40EA072025
:106C6000A88164212046FFF7C2FE63210746204623
:106C7000FFF7BDFE40EA0720E88166212046FFF7C6
:106C8000B6FE652107462046FFF7B1FE40EA072021
:106C9000288268212046FFF7AAFE67210746204682
:106CA000FFF7A5FE40EA072068826A212046FFF729
:106CB0009EFE692107462046FFF799FE40EA07201D
:106CC000A88241462046FFF7E6FD3046BDE8F08148
:106CD0001FB58DF80C100021CDE90031134603A932
:106CE00001228068FFF766FD05B05DF804FB000037
:106CF000F7B50D46164600211822044606F036FC6C
:106D000000230093ADF80430284606236A46314636
:106D1000FFF7DEFF9DF801309DF800009DF802703E
:106D20009DF8045040EA03209DF8033047EA03270A
:106D30009DF805301A2E45EA032500B23FB22DB268
:106D40000DD008D80E2E0AD0142E08D0082E21D02F
:106D5000204603B0F0BD282E1CD02E2EF7E705F0FC
:106D600047FD194B002205F0ADFDC4E9000138468E
:106D700005F03EFD144B002205F0A4FDC4E902011C
:106D8000284605F035FD104B002205F09BFDC4E9B7
:106D90000401DDE705F02CFD0C4B002205F0BCFEE4
:106DA000C4E90001384605F023FD084B002205F038
:106DB000B3FEC4E90201284605F01AFD034B002288
:106DC00005F0AAFEE3E700BF0000B03F0000594015
:106DD00030B50C4687B0054620220021201D06F064
:106DE000C5FB24232360EB6863600323A36001F0E9
:106DF000F7F81A22206129466846FFF779FFDDE996
:106E0000000106F057F86061DDE9020106F052F872
:106E1000A061DDE9040106F04DF8E061012007B052
:106E200030BD0029F0B566DBB0F90C408C4262DD64
:106E3000002A60DBB0F90E4094425CDD847E022CB7
:106E40005AD0032C61D0012C04D10489D2431444BC
:106E50000A4621B2B0F938408C42A8BF0C460487DC
:106E6000B0F93A409442A8BF14464487B0F93C4078
:106E70008C42B8BF0C468487B0F93E409442B8BFFC
:106E80001446C48790F84C40012C16D1012B42D0F7
:106E9000022B51D08BB9002A0589476B1446B8BF25
:106EA000D41DE41014FB051402F00706012505FAB1
:106EB00006F63D5D25EA06053D5590F84C40042C4C
:106EC00019D1048914FB02F202EBD27401EBD172E6
:106ED00042F34F0202EB6402446BA05CC9074BBF54
:106EE00003F00F0300F00F0020F00F0040EA03133F
:106EF00048BF0343A354F0BD0489C94321444489D6
:106F0000D243224409B212B2A4E74489C9430C44D3
:106F1000114622B29EE7002A0589466B1446B8BF87
:106F2000D41DE41014FB051402F007070125BD4031
:106F3000375D3D433555C0E7002A0589466B144649
:106F4000B8BFD41DE41014FB051402F00707012597
:106F5000BD40375D7D40EDE738B50D46114604462E
:106F60001AB209B200F096FA069A0B4BE262079A3F
:106F700023600023C4E90933C4E90C234FF0FF3335
:106F8000C4E910339DF91430A364049B84F84C5079
:106F90002365204638BD00BFDCDE0D0038B50C4B44
:106FA00003600446406B18B101F06EFA002363637E
:106FB000656A35B12846FFF703FA3821284602F002
:106FC0004FFEA06A10B1102102F04AFE204638BDE3
:106FD000DCDE0D0030B587B0856A8DF80F100446F1
:106FE0007DB10023CAB2CDE900338DF814308DF89D
:106FF00015200123022205A92846FFF76DFB07B0E3
:1070000030BD2946B0F8400002F093FD606A00955B
:107010002B4601220DF10F01FFF7CDFAEFE7002912
:1070200014BFA721A621FFF7D5BFF0B5856A85B0AB
:1070300004460E46174665B100230DF10F008DF88A
:107040000F300123009001932846FFF745FB05B060
:10705000F0BD2946B0F8400002F06BFD606A009573
:107060002B463A463146FFF7A6FAF0E710B5B0F9DD
:107070000A10038990F84C2012FB03F2CB1D48BF85
:1070800001F10E03DB1004465A43406B002106F069
:107090006DFA0023A3632389013BA3876389013B26
:1070A000E38710BD70B5436B04460E4615460BB31F
:1070B000002D33D1236D002B50D01020FCF7EBFFB7
:1070C000054618B1226D3146FFF7DBFAA5621DB304
:1070D00001212846FFF7F1FAF0B12046FFF7C6FF7D
:1070E0000023A3632389013BA3876389013BE387D3
:1070F000012012E02389B4F90A2090F84C0010FB1B
:1071000003F0D31D48BF02F10E03DB10584301F01A
:10711000B3F960630028CBD1002070BDA06C0028BB
:10712000C8DB012180B202F0F3FCB4F84800012171
:1071300002F0FFFC0A2001F021FEB4F84800002113
:1071400002F0F7FC0A2001F019FEB4F84800012112
:1071500002F0EFFC0A2001F011FEABE7606A0028A4
:10716000DAD0FFF736F90028D6D0B4F84000012174
:1071700002F0CEFCB1E707B581238DF8051002229D
:1071800001A98DF80430FFF750FF03B05DF804FB50
:107190002DE9F04F85B01F46BDF93880BDF83C3071
:1071A000A8EB0209A7EB010AB9F1000FB8BFC9F1BA
:1071B0000009BAF1000FB8BFCAF1000AD1458346F1
:1071C0000C46154604DD3A462C4647460D46904689
:1071D000BC4205DD2A464546904622463C461746B7
:1071E0003E1BB2B20092A8EB0502002AB8BF524281
:1071F0000192C6F3C03202FA86F64545B4BF0122B9
:107200004FF0FF3276100292BC421CDCDBF800200B
:107210000393D145D2F81880C7BF294622462A4693
:1072200021465846C047019A039BB61AB1B236B2FE
:10723000002E05DA029A1544009A56182DB236B27D
:10724000013424B2E0E705B0BDE8F08F704710B418
:1072500004682469A4465DF8044B604730B40468B0
:10726000BDF808500295A46BA44630BC604730B40A
:107270000468BDF808500295E46BA44630BC604732
:1072800070B4BDF90C50BDF810600468CDE9035628
:10729000246CA44670BC60472DE9F3411C4603688A
:1072A000BDF820805B6905461646013C34440F4614
:1072B00024B298472B68CDF8048000949C6A284635
:1072C0003B4632463946A0472B68DB6A284602B067
:1072D000BDE8F04118472DE9F3411D460368BDF8AC
:1072E00020805B69044617460E469847CDE9007832
:1072F00022686B1E3344956A20461BB23A463146DB
:10730000A8472368DB6A204602B0BDE8F041184771
:107310002DE9F3471E460368BDF928905B69BDF867
:107320002C800C460546174698472644B4422B68E5
:107330000BDACDF80080D3F820A021464B463A4620
:1073400028460134D04724B2F0E7DB6A284602B071
:10735000BDE8F047184713B502680191B0F90E1067
:107360000091146CB0F90C3000221146A04702B015
:1073700010BD2DE9F3471D460368BDF82C805B69FD
:10738000BDF9289004460F46164698472368CDF865
:107390000080D3F824A032462B4639462046D047F9
:1073A0002368CDF8008009F1FF323244D3F824A0DD
:1073B00039462B46204612B2D0472368CDF80080CC
:1073C000D3F820A032464B4639462046D0476B1EA4
:1073D000D9192368CDF800801D6A20464B463246F5
:1073E00009B2A8472368DB6A204602B0BDE8F0472F
:1073F000184770472DE9F74399421646BDF92870A2
:10740000BDF82C90026880460D461C4613D1BE4242
:10741000C8BF3346CDF82890C4BF3E461F467B1CEC
:10742000946B9B1B1BB2324629464046A44603B0D0
:10743000BDE8F0436047BE420AD19942C2BF0B4645
:1074400025461C46631CCDF82890D46B5B1BE9E7EE
:1074500053699847CDE90079D8F8003040469F6AD3
:10746000324623462946B847D8F80030DB6A404602
:1074700003B0BDE8F043184701F00303B0F90A2058
:107480008376C907B0F9083059BF8381C2818281F0
:10749000C381704730B54281C281074A074D0181DF
:1074A000002481814FF0FF31C0E90512446005607E
:1074B00004610477046230BD0101000138E40D006D
:1074C0002DE9F04F89B0CDE902120268BDF948807C
:1074D0000493BDF94C3052690593BDF850A00446A1
:1074E000904718F107024FF0000648BF08F10E025E
:1074F0004FEAE20B01963546039B019ABDF9041051
:107500009A18059B8B4212B227DD049B33444FF03F
:10751000000906930FFA89F080451FFA89F117DDFB
:107520004F0705BF069BC0106D001D5C18BFEDB274
:107530002B060AD5029B206807921944836909B279
:107540001F4620465346B847079A09F10109E1E76B
:10755000019B013301935E44CEE72368DB6A20463A
:1075600009B0BDE8F04F18472DE9F04F2DED028B23
:1075700091B01646026ABDF874809DF878509DF867
:107580007C4003911F46BDF8703004938346002A67
:1075900040F0C580B0F90C308B4240F34C81B0F91B
:1075A0000E30B34240F34781062313FB0513002B33
:1075B00040F3418106EBC403002B40F33C81037F81
:1075C0001BB9AF2F84BF0137FFB2DBF8003058463C
:1075D0005B6998470522099200220592984A07EBB9
:1075E0008703D3180C93B3B20693059A0C9B9B5C4C
:1075F0000793ABB20B93BDF80C300893039B02FBCF
:1076000005F919FA83F90FFA89F308EE103A0823FD
:107610000A93039B02EB030A4FF000090FFA8AFA60
:10762000079ADBF80030D20752D5012D1FFA89F2F4
:107630003ED1012C3CD19B6906991F46049B0A440C
:1076400012B251465846B84709F101034FFA83F97F
:10765000079B5B0807930A9B013B13F0FF030A9308
:10766000DED1059F01377BB20593099B013B13F0E7
:10767000FF030993B9D1049B43450FD0012DDBF8DB
:1076800000303BD1012C39D10899CDF8008005316B
:107690001C6A3246082309B25846A047DBF800307E
:1076A000DB6A584611B0BDEC028BBDE8F04F1847BD
:1076B000069914FB02F20A44049901910094DB69D3
:1076C00018EE101A1F4612B22B465846B847BBE7B1
:1076D000049A4245B8D0012D1FFA89F207D1012C36
:1076E00005D19B6906991F460A444346A8E70699B7
:1076F000CDF8048014FB02F20A44DFE70B9ACDF8C0
:10770000048002EB8201089AE4000A4411460094C6
:10771000DC6932462B4609B25846A047BEE7137AC9
:10772000516812680D92FF1AFFB201EBC70331F8DE
:10773000372006929A780992DA780B92012D93F904
:10774000052093F906A00A9201D8012C57D9BDF95A
:10775000283008930FFA8AF30793DBF80030584675
:107760005B699847B3B24FF000080E931AFA86F39C
:10777000C14647460F930B9B9F428FD2079B0E9AA1
:107780003B4403FB0423002205920F9A1BB202EB39
:10779000070A08EE103A0FFA8AFA4346099A059941
:1077A000914241D25A1CD2B25B070C9207D1069B80
:1077B00006990D9A01339BB212F80190069319F0C5
:1077C000800F12D0012DDBF80030BDF80C101AD15B
:1077D000012C18D10A9A9B691144059A11441E463E
:1077E0005246049B09B25846B047059E0136F3B293
:1077F0004FEA490905935FFA89F90C9BCEE700230C
:10780000CDE90733A9E70598089A024402FB051160
:10781000049ACDE90042DB6918EE102A1E4609B22F
:107820002B465846B047E0E7099B013798445FFA7A
:1078300088F8FFB29FE711B0BDEC028BBDE8F08F76
:1078400030DF0D00F0B5026A85B004460B46002A11
:1078500034D10A2908D1438A0282427E03EBC20353
:107860006382012005B0F0BD0D29FAD0E17E007ED3
:10787000657E71B1B4F91060062111FB0061B4F9A5
:107880000C60B142C1BFB4F91210228201EBC502F3
:107890006282E28A0192A28A0092CDE90205B4F9DD
:1078A0001220B4F910102046FFF75EFE237E228AD4
:1078B00003EB430302EB43032382D2E70A2907D1F8
:1078C00000230382137B417E428A01FB0323C7E727
:1078D0000D29C6D0157AA942C3D3917A9942C0D353
:1078E00051685D1BEDB201EBC505AF782FB3E978A8
:1078F00019B3E17E007E667E91B195F90510394499
:10790000B4F9107000FB0171B4F90C70B94207DDD5
:1079100000272782B4F91210127B02FB0612628242
:10792000E28A0192A28A0092CDE90206B4F91220FD
:10793000B4F910102046FFF717FE2979237E228A1A
:1079400001FB0323B8E7012938BF01210176417605
:1079500070472DE9F04F04468BB000F071FBB4F98D
:107960000A30B4F93A50B4F9087094F83890DA1D36
:1079700048BF03F10E0240238DF82330C2F3C70342
:107980000393A36ADB68013B9BB20493B4F93C30D8
:10799000FFB2002DB8BF073523EAE373B94507F1FD
:1079A0000102C5F3C70528BFB94652FA83F305FBA8
:1079B000079A06934FF0000B039B9D426BD2636BBB
:1079C000267A94F8542003EB0A08069B4A449E1B2F
:1079D000A36A1111A6EB0906A5F15000F6B2C0B2D8
:1079E000103102F00F02002B35D08DF825008DF8F4
:1079F00026101846E16A8DF827208DF824B0FEF78E
:107A0000F0FE0123CDE900BBA06A042209A9FEF71C
:107A100063FE9DF810300593A06AAEB1059BB3429A
:107A200028BF33461A46012301930DF12303009327
:107A3000414601230792FEF74FFE079AB61A90447B
:107A4000F6B200F0FDFAE7E7216BFEF7CAFE01355A
:107A5000EDB2BA44B0E78DF824008DF82510B4F8E3
:107A600040008DF826201946059302F062F8059B28
:107A70000093032209A9606AFEF79DFDB4F8400057
:107A8000012102F056F8059B606A00933246414698
:107A9000FEF791FDDBE74FF004224FF0FF33C4E91E
:107AA0000E230BB0BDE8F08F30B585B004460A9DBB
:107AB0000395099D02959DF92050CDE900351346A7
:107AC0000A460121FFF748FA034B236020460023B2
:107AD00084F8543005B030BD90E40D0010B5034B70
:107AE00003600446FFF75AFA204610BD90E40D00EB
:107AF00010B5034B03600446FFF7F0FF204610BDAE
:107B0000CCE60D0010B50446FFF7F2FF20465821E1
:107B100002F0A6F8204610BD30B585B004460A9D97
:107B20000295099D01959DF920500095FFF7BCFF36
:107B3000024B2360204605B030BD00BFCCE60D00EF
:107B400030B5044685B0FFF7ADFA2F212046FFF788
:107B500012FBA2682F4B9A4221D1236801211B6B93
:107B600020469847B4F90820B4F90A102023203A97
:107B700073390125CDE9013502EBD272732301EB94
:107B8000D171009341F34F01234B204642F34F0242
:107B9000FFF796FC236800211B6B20469847A368DB
:107BA000B3F1801F17D1B4F90820B4F90A102023CB
:107BB0000120203A7339CDE9013002EBD2727323F0
:107BC00001EBD171009342F34F02134B41F34F018C
:107BD0002046FFF775FC114916222046FFF725FACB
:107BE000054618B90025284605B030BDA368B3F195
:107BF000801F07D0642001F0C1F8AF212046FFF7B5
:107C0000E9F9F0E7064904222046FFF70EFA0028BA
:107C1000F0D1E7E740008000E4E40D0024E70D0028
:107C200020E70D00002202600271704773B505461F
:107C300010200E460192FCF72EFA044618B1019A64
:107C40003146FEF71EFD012120462C602E7102B048
:107C5000BDE87040FEF731BD30B5002385B0CDE9F9
:107C6000003349BA0546ADF80C108DF80E200068B7
:107C70000123032203A9FEF72FFD60B16524013C17
:107C800014F0FF0407D02868FEF702FD20B9012098
:107C900001F074F8F3E7002005B030BD1FB50123F3
:107CA0000022CDE9003249BA03ABADF80C100068F0
:107CB00002221946FEF77EFD08B19DF80C0005B0C2
:107CC0005DF804FB00220260C26000224171026183
:107CD000704710B501238AB0CDE900330223016853
:107CE00004461A4604A8FEF79FFA0DF10E0104A8F7
:107CF000FEF74FFB2071BDF80E00C01080000AB0E7
:107D000010BD10B501228AB0CDE9002204460168F9
:107D1000022304A8FEF788FA0DF10E0104A8FEF76D
:107D200038FB2071BDF90E000AB010BD30B5012539
:107D300091B0CDE90055044601680223052204A84C
:107D4000FEF772FAA168022204A8FEF7C4FA2168BD
:107D500002230422CDE900550AA8FEF765FA0DF1C9
:107D60000E010AA8FEF715FB2071BDF90E0011B037
:107D700030BD30B5012591B0CDE90055044601680C
:107D80000223052204A8FEF74FFAA168022204A8E4
:107D9000FEF7A1FA216802230322CDE900550AA8C3
:107DA000FEF742FA0DF10E010AA8FEF7F2FA207171
:107DB000BDF90E0011B030BD08B5FFF7A2FF04F009
:107DC00017FD05A3D3E9002304F07CFD05F072F84C
:107DD00000EE100A08BD00BF7B14AE47E17A843F75
:107DE00008B5FFF776FF04F003FD05A3D3E90023F0
:107DF00004F068FD05F05EF800EE100A08BD00BF53
:107E0000FCA9F1D24D62503F10B50446FFF78EFF3A
:107E100007EE900AB8EEE70AD4ED037AF8EE677A37
:107E200080EE270A10BD10B50446FFF7A2FF07EE4B
:107E3000900AB8EEE70AD4ED047A20EE270A10BDC6
:107E400030B54FF480520A238FB0C0E902230125D8
:107E50004FF080430361CDE90055044601680223D9
:107E6000052202A8FEF7E0F9A168022202A8FEF7A7
:107E700032FA21680223CDE90055002208A8FEF756
:107E8000D3F9022243F69F1108A8FEF724FA2071C5
:107E90000FB030BD37B50368044653B910200191C7
:107EA000FCF7F9F8054618B1019A6179FEF7E9FB8C
:107EB000256020680121FEF700FC054610B1204630
:107EC000FFF7BEFF284603B030BD30B54FF4005277
:107ED00014238FB0C0E9022301254FF07E530361C4
:107EE000CDE90055044601680223052202A8FEF7E9
:107EF0009BF9A168022202A8FEF7EDF9216802238E
:107F0000CDE90055002208A8FEF78EF9022240F2C2
:107F10009F1108A8FEF7DFF920710FB030BD0000F7
:107F200008B5024B1B689B68019308BD68020300FB
:107F300008B5024B1B68DB68019308BD68020300AB
:107F400008B5024B1B685B68019308BD2C02030057
:107F500008B5024B1B689B68019308BD2C02030007
:107F600008B5024B1B68DB68019308BD2C020300B7
:107F700008B5024B1B681B69019308BD2C02030066
:107F800008B5024B1B685B69019308BD2C02030016
:107F900008B5024B1B689B69019308BD2C020300C6
:107FA00008B5024B1B68DB69019308BD2C02030076
:107FB00008B5024B1B681B6B019308BD2C02030024
:107FC00008B5024B1B685B68019308BD18020300EB
:107FD00008B5024B1B68DB68019308BD180203005B
:107FE00008B5024B1B685B69019308BD18020300CA
:107FF00008B5024B1B689B6A019308BD1802030079
:1080000008B5024B1B685B6C019308BD18020300A6
:1080100008B5024B1B689B6C019308BD1802030056
:1080200008B5024B1B689B6D019308BD1802030045
:1080300008B5024B1B685B6E019308BD1802030074
:1080400008B5024B1B68DB68019308BD48020300BA
:1080500008B5024B1B685B6C019308BD4802030026
:1080600008B5024B1B685B69019308BD64020300FD
:1080700008B5024B1B681B68019308BD3C02030056
:1080800008B5024B1B68DB68019308BD3C02030086
:1080900008B5024B1B681B69019308BD3C02030035
:1080A00008B5024B1B685B69019308BD3C020300E5
:1080B00008B5024B1B689B69019308BD3C02030095
:1080C00008B5024B1B68DB69019308BD3C02030045
:1080D00008B5024B1B681B6A019308BD3C020300F4
:1080E00008B5024B1B689B6A019308BD3C02030064
:1080F00008B5024B1B681B68019308BD28020300EA
:1081000008B5024B1B68DB68019308BD2802030019
:1081100008B5024B1B689B69019308BD2802030048
:1081200008B5024B1B68DB69019308BD28020300F8
:1081300008B5024B1B681B6A019308BD28020300A7
:1081400008B5024B1B685B6A019308BD2802030057
:1081500008B5024B1B689B6A019308BD2802030007
:1081600008B5024B1B68DB6A019308BD28020300B7
:1081700008B5024B1B681B6B019308BD2802030066
:1081800008B5024B1B685B6B019308BD2802030016
:1081900008B5024B1B681B6C019308BD2802030045
:1081A00008B5024B1B681B6D019308BD2802030034
:1081B00008B5024B1B681B68019308BD3002030021
:1081C00008B5024B1B685B69019308BD30020300D0
:1081D00008B5024B1B68DB69019308BD3002030040
:1081E00008B5024B1B681B6A019308BD30020300EF
:1081F00008B5024B1B685B6A019308BD300203009F
:1082000008B5024B1B689B6A019308BD300203004E
:1082100008B5024B1B689B6B019308BD300203003D
:1082200008B5024B1B68DB6B019308BD30020300ED
:1082300008B5024B1B681B6C019308BD300203009C
:1082400008B5024B1B685B6C019308BD300203004C
:1082500008B5024B1B681B68019308BD4C02030064
:1082600008B5024B1B685B68019308BD4C02030014
:1082700008B5024B1B681B69019308BD4C02030043
:1082800008B5024B1B685B69019308BD4C020300F3
:1082900008B5024B1B689B69019308BD4C020300A3
:1082A00008B5024B1B68DB69019308BD4C02030053
:1082B00008B5024B1B681B6A019308BD4C02030002
:1082C00008B5024B1B685B6A019308BD4C020300B2
:1082D00008B5024B1B685B6B019308BD600203008D
:1082E00008B5024B1B681B68019308BD2002030000
:1082F00008B5024B1B685B68019308BD20020300B0
:1083000008B5024B1B685B69019308BD200203009E
:1083100008B5024B1B68DB6C019308BD200203000B
:1083200008B5024B1B685B6D019308BD200203007A
:1083300008B5024B1B689B6D019308BD200203002A
:1083400008B5034B1B68D3F88830019308BD0000C3
:108350002002030008B5034B1B68D3F89430019347
:1083600008BD00002002030008B5024B1B685B68D3
:10837000019308BD4002030008B5024B1B689B68CF
:10838000019308BD4002030008B5024B1B68DB687F
:10839000019308BD4002030008B5024B1B681B692E
:1083A000019308BD4002030008B5024B1B685B69DE
:1083B000019308BD4002030008B5024B1B689B698E
:1083C000019308BD4002030008B5024B1B68DB693E
:1083D000019308BD4002030008B5024B1B681B6AED
:1083E000019308BD4002030008B5024B1B681B6BDC
:1083F000019308BD4002030008B5024B1B685B6B8C
:10840000019308BD4002030008B5024B1B681B6CBA
:10841000019308BD4002030008B5024B1B685B6C6A
:10842000019308BD4002030008B5024B1B689B681E
:10843000019308BD4402030008B5024B1B685B6949
:10844000019308BD4402030008B5024B1B681B6A78
:10845000019308BD4402030008B5024B1B681B6B67
:10846000019308BD4402030008B5024B1B68DB6B97
:10847000019308BD4402030008B5024B1B681B684A
:10848000019308BD1C02030008B5024B1B685B6822
:10849000019308BD1C02030008B5024B1B689B68D2
:1084A000019308BD1C02030008B5024B1B685B6A00
:1084B000019308BD1C02030008B5024B1B68DB6A70
:1084C000019308BD1C02030008B5024B1B681B6B1F
:1084D000019308BD1C02030008B5024B1B68DB6B4F
:1084E000019308BD1C02030008B5024B1B685B6CBE
:1084F000019308BD1C020300002240681146FFF7EB
:108500006BBF002240681146FFF776BF406800222B
:10851000FFF76ABF4068002281F00101FFF754BFF6
:10852000002340681A461946FFF746BF00234068FB
:108530001A461946FFF738BF002240681146FFF778
:108540002BBF002240681146FFF716BF406800228B
:108550000221FFF719BF002340681A46FFF704BF46
:10856000024B03225A60024A1A60704784E50320D6
:1085700044E70D000021FFF75BBE0021FFF760BE5E
:1085800010B5044608462170FFF722FE0023636001
:10859000204610BD10B504460078FFF7EBFF48B940
:1085A00020784FF6FF71FFF703FE2078BDE81040FA
:1085B000FFF7E3BF10BD0078FFF7DFBF400830B51D
:1085C0001860002418688842E5B206D90134082CE6
:1085D00002D040081860F5E70725024B5B5D137079
:1085E00030BD00BF78E70D002DE9F04306468FB09F
:1085F00000780C46FFF7BEFF00281BDB35781422FD
:10860000002109A804F0B2FF0B23002209A9284683
:10861000ADF82430FFF7ECFD9DF82D3013B19DF837
:108620002C5055B10027B946B846012523795DB1D4
:10863000C3B100200FB0BDE8F083DDF830809DF8B5
:1086400034909DF83570F1E7002B35D1A368434590
:1086500008D18DF820908DF82170BDF82020A389D5
:108660009A42E6D00023A1688DF80F300A9804AB37
:108670000DF10F02FFF7A2FF217985B989B9A3682F
:1086800043450ED38DF820908DF82170BDF8202041
:10869000A3899A4205D1049B434502D1C9E7002929
:1086A000F9D100230193637B00939DF80F20237B76
:1086B0003078FFF7B5FDBCE7CDE900552B462A46DB
:1086C0000121F5E708B50078FFF77AFDC0B208BDD3
:1086D00030B587B004460A9D00950078FFF790FDFD
:1086E0003DB9207802A9FFF793FD9DF81430DB0710
:1086F000F7D407B030BD0000054B02221A60054BCD
:10870000054A9A600020186098809871FFF7F0BDC4
:1087100098E503208CE503200000FFFF10B5044618
:1087200004F06DFF013823182046834206D90278F1
:10873000197800F8011B03F80129F6E710BD70B5A0
:108740000C46911E2229054622D820466DB1B5FB64
:10875000F2F602FB1655E9B2092D94BF30315731BC
:10876000C9B200F8011B3546F0E702462344302128
:10877000934202D902F8011BFAE71A1A834238BF62
:108780000022002383542046FFF7C8FF204670BD17
:108790000020FCE72DE9F04757EC106B80460C46B3
:1087A00010EE100A00220023394604F0FDFA28B129
:1087B00007F100431F462D2304F8013B00234FF02F
:1087C00001090A22D9B2884503D902FB09F901330C
:1087D000F8E7484604F00CF832463B4604F072F8DD
:1087E00006460F4604F02CFD05468A4604F034F890
:1087F00002460B463046394603F0ACFE134B0022CE
:1088000004F0E6FA10B101354AF1000A4A4628465A
:10881000D317514604F0FCFC0123154621460A22D9
:10882000FFF78DFFB8F1000F0DD0204604F0E7FEF2
:108830002E23211823540A22434628460131BDE83D
:10884000F047FFF77CBFBDE8F08700BF0000E03FC6
:1088500010B504460068FFF717FE204610BD10B59E
:108860000446006808B1FFF70FFE0023C4E9013396
:10887000236010BD38B504460D4600680131FFF78E
:108880000BFE10B1C4E90005012038BD10B5036826
:10889000044623B143688B4201D3012010BD20461A
:1088A000FFF7E8FF0028F9D0A368002BF5D1226874
:1088B0001370F2E737B50D46114601920446FFF7F3
:1088C000E5FF019A28B92046FFF7C9FF204603B00B
:1088D00030BDA2602946206804F03AFE2268A368F1
:1088E0000021D154F2E713B5044659B1084601916D
:1088F00004F085FE019902462046FFF7DBFF204683
:1089000002B010BDFFF7ABFFF9E710B504468AB01F
:1089100000230846C4E90033A360237301A9C0B251
:10892000FFF738FF01A92046FFF7DDFF20460AB018
:1089300010BD10B5036804469B689847A368013BC7
:10894000A3602BB923682046DB68BDE810401847B8
:1089500010BD0B68036013B15A6801325A6070474A
:1089600010B50446006828B14368013B43600BB969
:10897000FFF7DFFF204610BD024800230360FFF72A
:1089800067BB00BF9CE50320F8B506460D468F186F
:108990000024BD420CD0336815F8011B9B6830469B
:1089A0009847031E01DB1C44F3E7002C08BF1C465C
:1089B0002046F8BD13B50446084659B1019104F0AC
:1089C0001EFE23680199DB680246204602B0BDE81E
:1089D0001040184702B010BD08B5FFF7EBFF08BD07
:1089E00003689B68184738B50D210546FFF7F8FF67
:1089F0000A2104462846FFF7F3FF204438BD38B566
:108A00000546FFF7D7FF04462846FFF7ECFF204452
:108A100038BDFFF7F4BF30B58BB000238DF824309C
:108A2000012A98BF0A2209AC0D46B1FBF2F101FB05
:108A3000125303F0FF03092B94BF30333733DBB2FB
:108A4000AA4204F8013DEFD92146FFF7B3FF0BB06E
:108A500030BD2DE9F04F93B019469DF87050012DAF
:108A60004FF0000398BF0A2582468DF84430104627
:108A70000DF1440B5FFA85F84FF0000942464B4672
:108A800006460F4604F0C4FB05FB106404F0FF0427
:108A9000092C94BF303437344F45E4B208BF464503
:108AA0000BF8014DEAD259465046FFF783FF13B049
:108AB000BDE8F08F2DE9F74F55EC104B06460F46F9
:108AC00010EE102A10EE100A2B46294604F094F9F5
:108AD00040B153493046FFF76DFF8246504603B020
:108AE000BDE8F08F25F000494E4B4FF0FF32204695
:108AF000494604F081F948B94A4B4FF0FF3220460D
:108B0000494604F05BF908B94749E3E7474B4FF0A2
:108B100060422046294604F065F908B14449D9E786
:108B2000444B4FF060422046294604F03DF90028AE
:108B3000F4D1002200232046294604F035F9D0B1B3
:108B40002D213046FFF74CFF05F1004382461D46BC
:108B50003949DFF8EC904FF0000B00204FF000088F
:108B60005FFA8BF39F4208D942464B4603F0D4FF8D
:108B70000BF1010BF4E78246EAE722462B4603F0AD
:108B8000EBFC0D46044604F075F9804603F020FE28
:108B900002460B462046294603F0DCFC0A22044626
:108BA0000D4630464146FFF736FF824427B1234940
:108BB0003046FFF7FFFE8244DFF884904FF0000854
:108BC000013FFFB2FF2F89D042464B46204629463F
:108BD00003F078FE04460D4604F024F9B0F1000BD2
:108BE0001ADA2D213046FFF7FBFECBF100010346D8
:108BF0000A2230460193FFF70EFF019B184482447E
:108C0000584603F0F5FD02460B462046294603F080
:108C1000A1FC04460D46D3E759460023E8E700BF10
:108C200080E70D00FFFFEF7F84E70D00FFFFEF41BE
:108C300088E70D00FFFFEFC10000E03F60DD0D00A1
:108C40000000244038B5044610EE100ACDB203F0FF
:108C5000E1FD41EC100B29462046BDE83840FFF706
:108C600029BFC9B2FFF726BF2DE9F04186B000AF9A
:108C700005460E46381D142114463B60FFF714FCD0
:108C800013280ED8391D2846FFF794FE04461EB15E
:108C90002846FFF7A8FE044420461837BD46BDE825
:108CA000F08100F1080323F00703E846ADEB030D64
:108CB0002246411C3B686846FFF7F6FB694628469A
:108CC000FFF778FE0446C546E1E70000014B024A83
:108CD0001A607047A0E503208CE70D0008B500205E
:108CE000FFF7BAFB28B1FFF7A7FB80F00100C0B285
:108CF00008BD0120FCE710B50020FFF791F90446FC
:108D0000A0B9FFF7EDFA012810D12046FFF710FBBC
:108D100060B9FFF7E3FF10B9FFF786FBF9E7FFF74C
:108D2000DDFFBDE810400020FFF77AB9204610BDF6
:108D30001FB5FFF7E0FF10220021684604F016FC83
:108D400000216846FFF774F9009805B05DF804FB50
:108D5000024B1A68024B1A60704700BFD0E3032031
:108D6000A4E503208A4210B507D0029C401AE41AF9
:108D70006043521A90FBF2F0184410BD0021FFF737
:108D8000BFBA10B58368044613B103220146984761
:108D9000204610BD13B50B460246D0E900016C46D3
:108DA00084E8030093E8030082E8030094E80300EA
:108DB00083E8030002B010BD014B00229A607047A7
:108DC000A8E50320014B1860704700BFD8E30320DB
:108DD00008B50B4B43B100F003FC03681B699847CF
:108DE000002801DDAFF30080064B43B100F0EAFC40
:108DF00003681B699847002801DDAFF3008008BDB8
:108E0000000000000000000008B5FFF7E1FFFFF7D9
:108E1000E7F8014B186008BD30E703200548064A13
:108E2000064908B5121A04F093FB054B054A1A606F
:108E300008BD00BF00F4032004F40320A8ED0D00DA
:108E400000F403201E1C279A07B5002300931A463E
:108E50006FF07701FFF77EFA03B05DF804FB0000C6
:108E600007B543880A2B08D0502B0BD1094B1B6840
:108E70004BB103B05DF804EB1847FFF7E5FF03B013
:108E80005DF804FB002300931A466FF07701FFF7AB
:108E900061FAF4E7BCE5032010B512480021FFF7A2
:108EA00023FB114B1A68114B9A42114B0CBF012244
:108EB00000221A7001D0FFF7B1FFFFF781F80446D6
:108EC00004F05CFB0B4B13B12046AFF30080002194
:108ED0000848FFF7C9FABDE8104007480021FFF72E
:108EE0002FBA00BFC58D0D0000F403201E1C279A69
:108EF000B8E5032000000000618E0D0070470020DF
:108F0000704710B51021044600F0AAFE204610BD9F
:108F100008B5FFF7F6FF08BD30B500224FF69C7488
:108F2000026084808D888C800C68858004600A6073
:108F300030BD10B504460068FFF7A6FA204610BD04
:108F400038B5C468F4B12378022B03D104F10C00C6
:108F5000FFF7EFFF656835B12846FFF712FF1021D4
:108F6000284600F07DFEA56835B12846FFF709FFC9
:108F70001021284600F074FE20461421BDE8384038
:108F800000F06EBE38BD73B50E46044656F8043B7D
:108F900000930D4601A83146FFF7DBFC019A009BC8
:108FA0006260236001A8002301930093FFF7D8FCBF
:108FB0003046FFF7D5FC2846082100F051FE204638
:108FC00002B070BD826810B50AB900F04DFEBDE870
:108FD0001040C368184708B5006800F11001FFF79A
:108FE000F1FF08BD826810B50AB900F03DFEBDE88A
:108FF0001040C368184708B5006800F11001FFF77A
:10900000F1FF08BD38B500230446036010200D466B
:10901000FBF741F828B10123C0E90133024B03609B
:10902000C5602060204638BDB4E70D0038B5002388
:1090300083608B6804460D462BB102229847EB688B
:10904000E360AB68A360204638BD0000F0B589B08E
:1090500004686846FFF760FF4FF00203D4E84F2F23
:10906000002A03D1C4E8413F0029F7D125D104F1FA
:109070000C0569462846FFF74FFFBFF35B8F0123BE
:109080006370002004F10803BFF35B8F53E8006FA7
:1090900043E80002002AF9D1BFF35B8F6EB1FFF7FE
:1090A00037F978B129463046FFF78CFF3046FFF795
:1090B00068FE1021304600F0D3FD6846FFF739FF07
:1090C00009B0F0BD314602A8FFF7B0FFE068B4F97F
:1090D000105008B104F076FA06901020ADF81C503C
:1090E000FAF7D9FF0546E8B1002787601820FAF79C
:1090F000D2FF044688B10146876002A8FFF74AFE06
:10910000049BA268A360059B049206A9E268E36041
:1091100004F110000592FFF7FFFE084BEB60084BCF
:109120002C60AB6006A8FFF704FF02A8FFF729FE3A
:10913000002229460348FFF7F3F8B7E7D78F0D0061
:109140006D920D0011980D002DE9F0478AB005468B
:109150009DF848900C4617469846FFF76DF907AE04
:10916000824638BB4FF62E73059005A93046ADF800
:109170001830FFF7D1FE1420FAF78DFF044648B1EE
:10918000022303700123C0E901AA437031460C3069
:10919000FFF7C2FE2846214640F8044BFFF732FF96
:1091A0003046FFF7C6FE05A8FFF7C3FE28460AB003
:1091B000BDE8F0870C234FF0000A1420CDE908AA7F
:1091C0000793FAF768FF014628B1C0E901AA80F8C1
:1091D00000A080F801A004A80391FFF713FF224B21
:1091E00008930820FAF757FF824628B1039B40F8FE
:1091F000043B04A9FFF7ADFB00965FFA89F34246F2
:1092000039462046CDF824A0FFF71EF9B8B9039BD4
:109210005B7803F0FF0293B94FF69C7305A903A88E
:109220000592ADF81830FFF711FF05A8FFF781FE92
:1092300005A80999FFF7A7FE06A8FFF791FB039B76
:10924000059304A906A8FFF784FB059B069A2B60EB
:109250006A60002306A806930593FFF781FB04A824
:10926000FFF77EFBA2E700BF31930D00022AF8B59D
:10927000054607D0032A18D0012A01D10B680360E4
:109280000020F8BD18200E68FAF705FF044650B11B
:109290003146FFF7CBFE3069B6F9147008B104F01F
:1092A00091F92061A7822C60EAE70468002CE7D0DE
:1092B00004F11000FFF73DFE2046FFF762FD182184
:1092C000204600F0CDFCDBE738B5002383608B68D7
:1092D00004460D462BB102229847EB68E360AB6869
:1092E000A360204638BD022A70B5044607D0032A81
:1092F00012D0012A01D10B680360002070BD142038
:109300000E68FAF7C8FE054620B13146FFF7DCFFCC
:10931000337C2B742560F0E70468002CEDD02046E8
:10932000FFF72FFD1421204600F09AFCE5E700002E
:10933000F0B589B004460D4601A81146FFF723FE9B
:10934000A4B124B21DB1284604F03CF9054601A899
:1093500003A90395ADF81040FFF778FE03A8FFF7C7
:10936000E8FD02A8FFF7FCFA09B0F0BD019D01235A
:10937000D5E84F2F002A03D1C5E8413F0029F7D196
:10938000EFD12B73BFF35B8F6B702B1DBFF35B8F24
:1093900053E8006F43E80042002AF9D1BFF35B8F26
:1093A000002EDED02046FEF7B3FF074660B105F180
:1093B0000C013046FFF716FE3046FFF7E2FC1021A5
:1093C000304600F04DFCCCE7314603A8FFF77CFFA8
:1093D0002B7B8DF81C301020FAF75DFE0546D0B1CE
:1093E00087601420FAF757FE044678B1876001467B
:1093F00003A8FFF7CFFC059BA268A360069B05921C
:10940000E268E3609DF81C3006922374064BEB6023
:10941000064B2C60AB6003A8FFF7B3FC0022294683
:109420000348FEF77DFFC7E7F78F0D00E7920D00B9
:1094300011980D00704710B51821044600F010FC7B
:10944000204610BDF0B5037D062B8DB00E4600F111
:1094500004074FF0000412D000F1080515F8011DB3
:109460000A223046FFF7D7FAAF42044419D0002C45
:10947000F4D02E213046FFF7B3FA0444EEE72F2351
:109480006A4639460A208DF80040FEF7E9FD684635
:1094900004F0B5F833680246DB6869463046984701
:1094A000044620460DB0F0BD10B5054B0446112210
:1094B00040F8043B002104F059F8204610BD00BFDD
:1094C000D0E70D000346074A10B543F8042B01F11D
:1094D000100251F8044B43F8044B9142F9D10A7839
:1094E0001A7010BDD0E70D0010B59DF8084044EA91
:1094F000032343EA024242EA016104234160037507
:1095000010BD13B5CB7800938B784A780978FFF7B4
:10951000EBFF02B010BD417470477047704708B54B
:109520000021007CFEF7B4FE40EAE07008BD08B5FB
:109530000121007CFEF7ACFE40EAE07008BD08B5F2
:10954000007CFEF79DFE20EAE07008BD08B5007CB7
:10955000FEF78EFE20EAE07008BD13B50446007CDD
:109560000191FEF78DFE0028019901DC607C20B19D
:10957000207CFEF795FE20EAE07002B010BD007C72
:10958000FEF796BE10B51421044600F069FB204694
:1095900010BD000010B54FF47A7304460846002150
:1095A000C4E90113044B2360012320746374114642
:1095B000FEF74EFE204610BDE4E70D00007C0022C1
:1095C000FEF74EBE007CFEF77BBEFFF7FBBF10B57B
:1095D00014220446002103F0C9FF204610BD0000FC
:1095E00010B50F4C88B003A8FFF7F1FF2178BFF347
:1095F0005B8F11F001010FD120460191FAF75CFD5C
:10960000019948B103AA0748FFF7C4FF2046FAF7BB
:1096100058FD054803F096FF024808B010BD00BF92
:10962000C0E50320C4E503201B950D0000470000A2
:109630002DE9FF4100241D460F4690460646FEF7E1
:10964000AFFCA5424FF00403ADF80D408DF80C308F
:109650008DF80F40A2BF9DF828308DF80E3003AC76
:109660000749009443463A463046A8BF8DF80D504E
:10967000FEF78EFCB0FA80F0400904B0BDE8F0813E
:109680002D960D00002240681146FEF785BE00228F
:1096900040681146FEF7A0BE002240681146FEF762
:1096A000ABBE40680022FEF79FBE4068002281F0FA
:1096B0000101FEF789BE002340681A461946FEF7ED
:1096C0007BBE002340681A461946FEF76DBE002295
:1096D00040681146FEF750BE406800220221FEF7A6
:1096E00053BE002340681A46FEF73EBE084B10B535
:1096F000282422461846002103F038FF054B048039
:109700004FF0FF32426004225A60034A1A6010BDD3
:10971000E0E50320D8E5032014E80D00704741740C
:109720007047704708B5007CFEF7DAFC20EAE0706D
:1097300008BD08B5007CFEF7ABFC20EAE07008BD70
:1097400008B5007CFEF7B4FC40EAE07008BD08B53F
:10975000007CFEF7A5FC40EAE07008BD007CFEF747
:10976000AFBC37B5457C04462DB1207C03B0BDE8C5
:109770003040FEF785BC007C0191FEF7B1FC00286B
:109780000199F2DC284603B030BD10B5142104461F
:1097900000F066FA204610BD10B54FF0000C0446EC
:1097A000084611464FF47A72C4E901C2044A2260A5
:1097B0000122207462741A46FEF75AFC204610BD3E
:1097C00050E80D0013B50D4C2178BFF35B8F11F0FD
:1097D000010110D120460191FAF76EFC019950B1B8
:1097E000074B084A0848FFF7D7FF2046FAF769FCFD
:1097F000064803F0A7FE044802B010BD08E60320A7
:1098000090E603200CE6032014E7032023970D00C5
:1098100010B5836804460BB900F026FAC368984770
:10982000A3681BB1032221462046984720461021F9
:10983000BDE8104000F014BA7047F8B5064615466A
:109840000C468F18BC4206D0336814F8011B9B6885
:1098500030469847F6E72846F8BD007C0022FEF720
:1098600067BC007C0021FEF76BBC007C0021FEF78A
:109870006FBC007C0021FEF773BC007C0021FEF76A
:1098800077BC10B51421044600F0EAF9204610BD5B
:1098900010B54FF47A73044608460021C4E9011359
:1098A000034B236020741146FEF772FC204610BD66
:1098B00080E80D00007C0022FEF71ABC0023007C2B
:1098C0001A461946FEF71CBC7FB500221423CDE9C9
:1098D0000122ADF804300B788DF808304B68039303
:1098E000CB680493007C0B7A059301A9FEF758FC22
:1098F00007B05DF804FB1FB5003B8DF800104FF07A
:109900006401039118BF0123694601928DF8083064
:10991000FFF7DAFF05B05DF804FB0123FFF7EBBFAB
:10992000007C0022FEF7F4BB007C0022FEF7F8BBAF
:109930000121FFF7F9BF002340681A46FEF714BD66
:10994000406800220221FEF71FBD00224068114638
:10995000FEF712BD002240681146FEF71DBD002330
:1099600040681A461946FEF71FBD002340681A4694
:109970001946FEF721BD40680021FEF745BD40684D
:109980000021FEF749BD4068002281F00101FEF789
:109990001BBD40680022FEF727BD0022406811462B
:1099A000FEF72ABD002240681146FEF715BD2DE9DD
:1099B000F043002495B016460D460746FFF774FDA8
:1099C000214618220EA8009403F0D0FD4023CDE9D3
:1099D0000C3421466B460CAA3046FEF7A9FA044621
:1099E000002846D1024601216868FEF7D5FC022115
:1099F000804622466868FEF7CFFC009E81462146DD
:109A0000002E36D0002934D17368022B03D00A2BE4
:109A10000BD0F669F4E7B8F1000F04D0716938464D
:109A20000431FFF76EFD4146F3E7B9F1000F01D1B4
:109A30004946EEE77469102201A803F097FD06235A
:109A40008DF8143001AD04F1080318341868596812
:109A50002A4603C20833A3421546F7D101A906A836
:109A600007ADFFF72FFD0FCD3C1D0FC42B682370F2
:109A7000DEE70098FEF754FA384615B0BDE8F083EB
:109A8000024B034A1A6000225A60704728E70320FD
:109A9000A8E80D00232813B502D9002002B010BD9C
:109AA000A0F10B03022B1AD8174C2178BFF35B8F60
:109AB00011F001010BD120460191FAF7FDFA01994D
:109AC00028B11248FEF75CFD2046FAF7FAFA0F4B70
:109AD0001878FEF785FB0028DFD10120DEE701289A
