:02000002D0002C
:1040000000400D00B8EA0D00000006000D0005019B
:0840100004019A080000000001
:04401800F0D30D00D4
:1040200009480A49884208B505D0094A824202D0A7
:10403000121A09F005F90748074A0021121A09F077
:104040000DF9014808BD00BFD4E303201CEA0D00B0
:1040500048E4032048E40320EDE7032070B5074E51
:10406000074C04F091FDA41BA4080025A54200D133
:1040700070BD56F8043B98470135F7E7E8E90D00B5
:104080000CEA0D0001F032BA08B501F07DF8BDE888
:10409000084004F031BD04F049B804F047B804F01A
:1040A0004DB8000008B5034A00210C2003F06AFF58
:1040B000FEE700BF857C0D000078B0FA80F0400973
:1040C000704701230370704710B5074C03F0E2FD01
:1040D0002368C01A0F2806D9044A136801331360F5
:1040E00003F0D8FD206010BD4CE4032058E4032009
:1040F0002DE9F341002A1D4675F10003089F804613
:10410000144611DA0A2F0FD12D2104F0C3FA6242AE
:10411000064665EB4503FFB20097404604F0F7FA08
:10412000304402B0BDE8F08122462B460026F2E77B
:10413000F8B50C1E074616460CDA0A2A0AD12D21BC
:1041400004F0A8FA61420546F2B2384604F0C1FA1A
:104150002844F8BD21460025F6E7F8B50C1E0746B1
:1041600016460CDA0A2A0AD12D2104F093FA61428C
:104170000546F2B2384604F0ACFA2844F8BD2146B0
:104180000025F6E738B505F0A3F83649364C04F0BB
:104190007DFA05F09DF80546204601F00BFDDFEDA8
:1041A000337A60EE277A17EE900A08F0ABF9304BBD
:1041B000002208F049F841EC100B0221284604F0D7
:1041C000AEFB05F085F82B4904F077FA05F080F88E
:1041D000294904F05BFA05F07BF80546204601F01A
:1041E00017FDDFED267A80EE277A022128469FED23
:1041F000240A27EE000A04F083FB05F069F8214940
:1042000004F05BFA05F064F81F4904F03FFA05F08A
:104210005FF89FED1E0A0546204601F0D5FD0221FC
:10422000284604F06DFB05F053F8194904F045FAEF
:1042300005F04EF8174904F029FA05F049F805464B
:10424000204601F061FE0221284604F059FB05F0EA
:104250003FF8114904F031FA05F03AF8BDE838406A
:1042600004F01FBA04D40D0070E403206666E63F34
:104270000000404015D40D0018D40D0080E6C5475D
:1042800000003E4424D40D002AD40D0000507D448B
:104290003ED40D0041D40D004DD40D0030B53B4D42
:1042A0003B488BB0694602F02DFA05F011F829461B
:1042B00004F003FA05F00CF8364904F0E7F905F0CC
:1042C00007F8694604F0F9F905F002F8324904F0FC
:1042D000DDF904F0FDFF0A2203990446FFF728FFE9
:1042E000204604F0DEF904F0F3FF2C4904F0CEF987
:1042F00004F0EEFF0A2204990446FFF719FF204656
:1043000004F0CFF9264C04F0E3FF264904F0BEF98F
:1043100004F0DEFF9DED060A022104F0F1FA04F03C
:10432000D7FF214604F0C9F904F0D2FF1E4904F07A
:10433000ADF904F0CDFF9DED070A022104F0E0FA8B
:1043400004F0C6FF214604F0B8F904F0C1FF174994
:1043500004F09CF904F0BCFF9DED080A022104F072
:10436000CFFA04F0B5FF214604F0A7F904F0B0FF3E
:10437000294604F0A2F904F0ABFF0D4904F09DF9C1
:104380004FF4FA7004F072FB0BB030BD50D40D0046
:10439000B4E4032075D40D0084D40D0093D40D0033
:1043A000B1D40D00A2D40D00B6D40D00C5D40D00BB
:1043B000CED50D0038B5044604F08AFF4C494D4D6A
:1043C00004F07BF904F084FF4B4904F05FF904F03A
:1043D0007FFF0A22B4F90010FFF7BFFE04F078FF58
:1043E000294604F053F904F073FF0A22B4F90210CD
:1043F000FFF7B3FE04F06CFF294604F047F904F020
:1044000067FF0A22B4F90410FFF7A7FE04F060FF6B
:10441000294604F03BF904F05BFF384904F036F913
:1044200004F056FF0A22B4F90C10FFF796FE04F0D0
:104430004FFF294604F02AF904F04AFF0A22B4F992
:104440000E10FFF78AFE04F043FF294604F01EF920
:1044500004F03EFF0A22B4F91010FFF77EFE04F0CC
:1044600037FF294604F012F904F032FF244904F022
:104470000DF904F02DFF0A22B4F90610FFF76DFEC6
:1044800004F026FF294604F001F904F021FF0A2276
:10449000B4F90810FFF761FE04F01AFF294604F092
:1044A000F5F804F015FF0A22B4F90A10FFF755FEDB
:1044B00004F00EFF294604F0E9F804F009FF114961
:1044C00004F0E4F804F004FF0A22B4F91210FFF734
:1044D00044FE04F0FDFE0C4904F0D8F804F0F8FEA8
:1044E000B4F914100A22BDE83840FFF736BE00BF09
:1044F000D4D40D0082D40D00EBD40D00FBD40D00FC
:1045000003D50D000AD50D001AD50D00152808B5E4
:1045100006DC04F0DDFE1849BDE8084004F0CDB823
:10452000422803DC04F0D4FE1449F5E76F2803DCCD
:1045300004F0CEFE1249EFE79C2803DC04F0C8FE2D
:104540001049E9E7D32803DC04F0C2FE0E49E3E793
:10455000F62803DC04F0BCFE0C49DDE7B0F5927FE1
:1045600003DA04F0B5FE0A49D6E7B0F5A87FD0DC3F
:1045700004F0AEFE0749CFE728D50D002AD50D007F
:104580002BD50D002DD50D0030D50D0032D50D00E9
:1045900036D50D0035D50D002DE9F84304F098FE11
:1045A0002E492F4DDFF8C880DFF8C89004F085F859
:1045B0000124A7B22A48394603F0F8FA372847D130
:1045C000C8223946284603F0CFFA70B904F080FEBD
:1045D000494604F05BF804F07BFE102206462146B3
:1045E00004F077F8304604F05CF80021284603F028
:1045F000DDFA372206463946284603F0B5FA70B987
:1046000004F066FE414604F041F804F061FE102219
:104610000746214604F05DF8384604F042F8C82EFB
:1046200016D104F055FE0F4904F047F804F050FE8F
:104630000D4904F02BF804F04BFE21460A2204F049
:1046400048F804F045FEBDE8F843084904F035B8E1
:10465000013447F6FF739C42ABD1E7E738D50D0034
:1046600030E503207FD50D0091D50D00A8D50D00B4
:1046700061D50D0046D50D00F7B54F4B4F4D18785D
:104680004F4C05F0FAF84FF4B47328600093002300
:10469000194640F6FF7204F0DDF94A4BB0F5B47FDD
:1046A0001860C8BFA0F5B47020602368002BBCBFA1
:1046B00003F5B473236003F0EDFA41F288339842B6
:1046C0006AD9414E236832689B1A002BB8BF5B42FF
:1046D000052B2FDD04F0FCFD3C4903F0D7FF04F06F
:1046E000F7FD2D68002D07465CDA2D2103F0D2FF7F
:1046F00069420A22384603F0ECFF04F0E9FD344930
:1047000003F0C4FF04F0E4FD2568002D07464BDAF2
:104710002D2103F0BFFF69420A22384603F0D9FF7A
:1047200004F0D6FD2A4903F0B1FF2068FFF7EEFE42
:1047300023683360274D284E03F0ACFA286807F051
:10474000BFFE1BA3D3E9002307F034FF08F02AFAC9
:10475000306004F0BDFD214903F098FF04F0B8FD7E
:104760000A22296803F0B5FF04F0B2FD184903F0EE
:104770008DFF04F0ADFD96ED000A022104F0C0F8B3
:1047800004F0A6FD124903F081FF04F0A1FD1449D5
:1047900003F093FF00232B6094ED000AB8EEC00AEB
:1047A00003B0F0BD2946A4E72946B5E7AFF3008082
:1047B000CDCCCCCCCCCCDC3FD4E303205CE40320D8
:1047C00048E4032050E4032054E40320AFD50D0057
:1047D000CCD50D0058E4032060E40320CFD50D00B4
:1047E000EDD50D0012B903689B681847D2B203F0EB
:1047F00070BF00001FB500238DF80F308DF80E300C
:104800008DF80D308DF80C300DF10F030DF10D0208
:1048100003A9234800930DF10E0302F0F2F804F00F
:1048200057FD204903F032FF9DF80C3023B904F006
:104830004FFD1D4903F02AFF04F04AFD1B4903F018
:1048400025FF04F045FD0A229DF80C10FFF7CAFF72
:1048500004F03EFD164903F019FF04F039FD0A2269
:104860009DF80D10FFF7BEFF04F032FD114903F073
:104870000DFF04F02DFD0A229DF80E10FFF7B2FF88
:1048800004F026FD0C4903F001FF04F021FD9DF822
:104890000F100A22FFF7A6FF05B05DF804FB00BF6A
:1048A000B4E40320CDD50D00F2D50D00F5D50D00F3
:1048B000FAD50D00FED50D0002D60D000000000057
:1048C0002DE9F04F2DED088B97B0D74CD74FDFF87F
:1048D0009CB3DFF89CA39FEDD69A00238DF80F3090
:1048E0000DF10F0300930DF10D020DF10E0303A95D
:1048F000204602F086F8214604A8082202F080F93A
:1049000021460AA8142202F07BF9214610A80E22A3
:1049100002F076F9DDE90801B9A3D3E9002307F035
:1049200073FFB7A3D3E9002341EC180BDDE90401C1
:1049300007F06AFFB0EE481AF0EE681A41EC100B6F
:1049400005F0A0F853EC102B10EE100A03F1004113
:104950000022B84B07F02EFEABA3D3E9002307F0EB
:1049600053FFB54B002207F025FE08F01BF9A4A366
:10497000D3E900233860DDE9080107F045FFA0A373
:10498000D3E9002341EC180BDDE9060107F03CFFF9
:10499000B0EE481AF0EE681A41EC100B05F072F810
:1049A00053EC102B10EE100A03F100410022A14B32
:1049B00007F000FE94A3D3E9002307F025FF0022AF
:1049C0009D4B07F0F7FD08F0EDF89C4B9C491860F3
:1049D0000646086807F096FD8DA3D3E9002307F08B
:1049E000E9FD044630460D4607F08CFD8AA3D3E965
:1049F000002307F0DFFD02460B462046294607F05C
:104A000023FC08F0CFF8CBF800008E48006807F0D0
:104A100079FD7FA3D3E9002307F0CCFD0446386875
:104A20000D4607F06FFD7CA3D3E9002307F0C2FD1C
:104A300002460B462046294607F006FC08F0B2F86D
:104A4000814DCAF8000003F025F92B687F4CC01A8D
:104A500007F036FD7E4B002207F0D6FE08F0A2F8E4
:104A6000206003F017F92860206807F04BFDDDE9AE
:104A70000C2304460D4607F09DFD0F46754906467A
:104A8000086807F03FFD32463B4607F0DDFB60A3B8
:104A9000D3E9002307F08EFD644B804618688946F1
:104AA00007F030FD5CA3D3E9002307F083FD024645
:104AB0000B464046494607F0C7FB08F073F86549C6
:104AC000DDE90A2308EE900A08602046294607F02F
:104AD00071FD044660480D46006807F013FD22464C
:104AE0002B4607F0AFFB4AA3D3E9002307F062FD92
:104AF000524A80461068894607F004FD46A3D3E970
:104B0000002307F057FD02460B464046494607F092
:104B10009BFB08F047F8514908EE100A4E4880ED1B
:104B2000008A086807F0EEFC32463B4607F08CFB33
:104B300008F038F84A4F494E3060386807F0E2FC18
:104B400022462B4607F07EFB08F02CF8C8EE097AC7
:104B5000386017EE900A07F0D5FC31A3D3E90023A3
:104B600007F028FD08F01EF8C8EE897A3D4B186062
:104B700008EE100A17EE900A07F0C4FC28A3D3E948
:104B8000002307F017FD08F00DF8374B00EE100A70
:104B9000186008EE900A04F0E3FE9DED127B10EE23
:104BA000108AB0EE479AF0EE679AB0EE480A04F029
:104BB0001FFF10EE100A07F0A5FCB0EE680A41ECEA
:104BC0001A0B04F015FF10EE100A07F09BFC9DED88
:104BD000147BB0EE480AB0EE47BAF0EE67BA06466C
:104BE0000F4604F0BDFE10EE100A07F08BFC0446E1
:104BF00040460D4607F086FC3CE000BFAFF3008066
:104C00009A9999999999234050455254FB2109400A
:104C1000666666666666EE3F9A9999999999A93F84
:104C20001F85EB51B81E1940B4E4032068E503204A
:104C30000000B4430000E03F008076404CE50320D4
:104C400044E5032060E5032038E503202CE503203C
:104C500000408F4058E503203CE5032064E5032035
:104C600048E5032050E503206CE5032040E50320E0
:104C70005CE50320DDE9102307F09CFC53EC1A2BC4
:104C80008046894651EC190B07F094FC32463B46AE
:104C900007F090FC02460B464046494607F0D2FA20
:104CA0002246804689462B4651EC1B0B07F082FCBE
:104CB00032463B4607F07EFC02460B4640464946DC
:104CC00007F0C2FA07F06EFF934B944F186008EE9E
:104CD000100A22462B4651EC190B07F06BFC53ECE3
:104CE0001B2B04460D4651EC1A0B07F063FC0246E1
:104CF0000B462046294607F0A7FA07F053FF884BDA
:104D0000884D1860F0EE480A00EE100A05F072F8BF
:104D100010EE100A07F0F6FB7BA3D3E9002307F09F
:104D200073FD814B002207F045FC07F03BFF286034
:104D300004F0CEFA76A3D3E900230446DDE90401AA
:104D400007F062FD41EC100B2046784C022103F085
:104D5000E6FD04F0BDFA214603F098FC04F0B8FA31
:104D60006BA3D3E900230646DDE9060107F04CFDFD
:104D700041EC100B0221304603F0D1FD04F0A8FAFB
:104D8000214603F083FC04F0A3FA61A3D3E90023D6
:104D90000646DDE9080107F037FD41EC100B022162
:104DA000304603F0BCFD04F093FA214603F06EFC9C
:104DB00004F08EFA0A229DF80E105D4EFFF712FDE8
:104DC00004F086FA214603F061FC04F081FA0A221D
:104DD0009DF80D10FFF706FD04F07AFA214603F066
:104DE00055FC04F075FA0A229DF80F10FFF7FAFC43
:104DF00004F06EFA214603F049FC04F069FA0A2235
:104E00009DF80C10FFF7EEFC04F062FA214603F067
:104E10003DFC04F05DFA474B022193ED000A03F0DC
:104E20006FFD04F055FA214603F030FC04F050FA0F
:104E3000414A022192ED000A03F062FD04F048FAB3
:104E4000214603F023FC04F043FA9AED000A022104
:104E500003F056FD04F03CFA214603F017FC04F081
:104E600037FA9BED000A022103F04AFD04F030FA04
:104E7000214603F00BFC04F02BFA96ED000A022108
:104E800003F03EFD04F024FA214603F0FFFB04F09A
:104E90001FFA97ED000A022103F032FD04F018FA20
:104EA000214603F0F3FB04F013FA244B022193EDA7
:104EB000000A03F025FD04F00BFA214603F0E6FB9F
:104EC00004F006FA1E4B022193ED000A03F018FDD0
:104ED00004F0FEF9214603F0D9FB04F0F9F995ED51
:104EE000000A022103F029FD1649DBF800301648BC
:104EF00095ED000A0B60DAF80030036017B0BDECE6
:104F0000088BBDE8F08F00BF1F85EB51B81E19401C
:104F10009A9999999999234064E4032048E50320DC
:104F200068E4032054E503200080764006D60D0097
:104F300064E5032068E503204CE5032058E50320E1
:104F40003CE5032044E5032060E5032038B5054631
:104F5000FFF748FC0446284603F0A3FB204438BD75
:104F600013B50023214C8DF807300DF106020DF129
:104F700005018DF806308DF805301D480DF1070349
:104F800001F01FFD04F0A4F9214603F096FB04F0A4
:104F90009FF9184903F07AFB04F09AF910229DF862
:104FA0000510FFF7D3FF04F093F9134903F06EFBEC
:104FB00004F08EF910229DF80610FFF7C7FF04F0E9
:104FC00087F90E4903F062FB04F082F910229DF884
:104FD0000710FFF7BBFF04F07BF9214603F06DFBE0
:104FE0004FF4FA7003F042FD02B010BDCED50D00B3
:104FF000B4E4032008D60D001AD60D002CD60D00FF
:105000001FB5114B114800221A7002F093FD104891
:1050100000F0FCFC04F078FC0E4A0F49CDE90121B8
:105020004FF0FF3203460092402180220B4802F0ED
:10503000FBFC04F069FC034609482822372105B02F
:105040005DF804EB01F086BB6CE4032030E503203F
:1050500070E40320801A0600A0860100D4E4032037
:10506000B4E4032038B5374C374D204601F086FFB5
:10507000204602F0F6FB002334492361204603F06A
:1050800005FB284600F096FDDFED317A60EE277AC9
:1050900017EE900A07F036FA2E4B002207F0D4F8EC
:1050A00041EC100B0221204603F039FC2A4920462E
:1050B00003F003FB2949204603F0E8FA284600F0F4
:1050C000A7FDDFED277A80EE277A022120469FEDAB
:1050D000250A27EE000A03F013FC2349204603F0BB
:1050E000ECFA2249204603F0D1FA28469FED200A27
:1050F00000F06AFE0221204603F002FC1D49204612
:1051000003F0DBFA1C49204603F0C0FA284600F001
:10511000FBFE0221204603F0F3FB1849204603F072
:10512000CCFA1749204603F0B1FA164B204693ED0E
:10513000000A022103F0E4FB2046BDE8384002F0FB
:1051400090BB00BFD4E4032070E403203ED60D00E2
:105150006666E63F0000404047D60D004CD60D0085
:1051600080E6C54700003E4424D40D0032D40D0033
:1051700000507D443ED40D0041D40D004DD40D00AF
:1051800056D60D00CCE4032010B52DED028BB94BA3
:1051900094B01878012104F044FBFFF76DFA0BA9D5
:1051A000B54801F09DFDFEF7EDFFFFF75BFFB34B48
:1051B000186803F05BFC042004F04CFB18B9B049FC
:1051C000B04803F063FA032004F044FB18B9AE4979
:1051D000AC4803F05BFA022004F03CFB18B9AB4981
:1051E000A84803F053FA0A2003F040FC02F082FDC5
:1051F000A4489FEDA78AA74C02F033FB04F068F89F
:10520000A54903F04AFA04F063F89DED100A022163
:1052100038EE400A03F074FB04F05AF89F4903F09B
:105220003CFA04F055F89DED110A022103F068FBE9
:1052300004F04EF8994903F030FA04F049F89DED76
:10524000120A022103F05CFB04F042F8944903F0D7
:105250003EFA00238DF80B300DF10B030DF109021E
:1052600002A9854800930DF10A0301F0CAFB04F07E
:105270002FF88C4903F011FA04F02AF80A229DF85D
:105280000810FFF7AFFA04F023F8844903F005FA99
:1052900004F01EF80A229DF80910FFF7A3FA04F0A3
:1052A00017F87E4903F0F9F904F012F80A229DF884
:1052B0000A10FFF797FA04F00BF8784903F0EDF9BC
:1052C00004F006F80A229DF80B10FFF78BFA03F0A2
:1052D000FFFF734903F0FBF903F0FAFF724903F093
:1052E000ECF90BA9644801F0FBFC03F0F1FF6F49F6
:1052F00003F0CCF903F0ECFF9DED100A042103F05C
:10530000FFFA03F0E5FF6A4903F0C0F903F0E0FF9C
:105310009DED110A042103F0F3FA03F0D9FF65496A
:1053200003F0B4F903F0D4FF9DED120A042103F059
:10533000E7FA03F0CDFF5A4903F0BFF903F0C8FFC5
:10534000594903F0BAF99FED5C7ADDED107A77EEFA
:10535000877AF4EEC87AF1EE10FAC8BF77EEC87A11
:10536000C4ED007A03F0B4FF544903F08FF903F061
:10537000AFFF042194ED000A514C03F0C1FAFFF78E
:105380009FFA84ED000A03F0A3FF4E4903F07EF973
:1053900003F09EFF94ED000A022103F0B1FA03F03E
:1053A00097FF494903F072F903F092FF044603F0B6
:1053B00037FB0A2201462046FEF7BAFE03F088FFBB
:1053C000424903F063F903F083FF0A230093404B43
:1053D000D3E90023FEF78CFE03F07AFF3D4903F08A
:1053E00055F903F075FF3B4903F050F93A4800F0D6
:1053F000E1FBDFED3A7A60EE277A17EE900A07F0CC
:1054000081F8374B002206F01FFF41EC100B0621FC
:1054100005A803F0D4F8334B059A1B788DF80030BB
:1054200031493C2303A803F007FD049C7CB1636869
:10543000013B63605BB9236820469B689847A3687B
:10544000013BA3601BB923682046DB68984705A889
:1054500003F058F805A9084801F024FB05A8FEF759
:10546000A9FF42F2107003F001FB14B0BDEC028BF7
:1054700010BD00BFD5E30320B4E40320D0E4032033
:1054800066D60D00D4E40320DEDA0D0068D60D00E8
:105490000000B443CCE403206AD60D0078D60D009A
:1054A000CED50D007BD60D0089D60D008CD60D0013
:1054B00090D60D0095D60D0000808E439AD60D0033
:1054C000C8E40320ADD60D00BED60D00CCD60D002D
:1054D00070E503208AD60D0070E403206666E63F7F
:1054E000000040406CE40320DED60D0070B5A2B091
:1054F00003F096FAB54CC117C4E9000103F0E8FEC9
:10550000B34903F0C3F803F0E3FE0A230093D4E9A0
:105510000023FEF7EDFD03F0DBFEAE4903F0B6F825
:10552000AD4B01251D60AD4B0021187804F068F9E2
:10553000AB4B29461878AB4D04F062F903F0C8FE76
:10554000A94903F0BAF82878002104F059F900239A
:10555000009302224FF0FF33A449287803F0E0FEC5
:1055600003F0B6FEA24903F0A8F803F0B1FEA1498A
:1055700003F0A3F803F0ACFE4FF4E13103F096FE24
:10558000254603F0A5FE03F098FE0028F9D09A4CBA
:1055900003F09EFE994903F09AF803F099FE9849AA
:1055A00003F08BF801223C21204602F051FA03F06F
:1055B0008FFE944903F081F8204602F052F94FF42F
:1055C0007A7003F053FA204601F0D8FC204602F02E
:1055D00048F90121204601F0D7FE03F079FE8A49FF
:1055E00003F06BF80221042004F00AF902210320E1
:1055F00004F006F90221084604F002F901212046D0
:1056000002F029F900264FF00113C4E904637F4931
:10561000204603F03BF87E49204603F037F8204649
:1056200002F01FF97B4800F074FE78BB03F050FED7
:10563000794903F042F803F04BFE784903F026F86D
:1056400003F046FE0446734800F0E4F910220146D8
:10565000204603F03EF8204603F023F803F038FE1E
:105660006F4903F013F803F033FE6E4903F00EF8B0
:1056700003F02EFE6C4903F009F803F029FE6B4994
:1056800003F004F80A2003F0F1F9FBE704F03CF919
:1056900050210246664802F051FA90B103F018FE1C
:1056A000644903F00AF8FEF777FF63480C2101F024
:1056B00037F9044670B903F00BFE604902F0E6FFCB
:1056C000FEE703F005FE5E4902F0F7FF0A2003F053
:1056D000CDF9FBE703F0FCFD3D4902F0D7FF03F0F5
:1056E000F7FD0A230093D5E90023FEF701FD03F03F
:1056F000EFFD384902F0CAFF4FF47A7003F0B6F9B3
:10570000FEF7CCFD04F0D0F8042202A9304602F0E6
:10571000D1FA494818A900F0F5FF1C9A029B9A4259
:1057200036D003F0D5FD474902F0C7FF4FF4FA70B9
:1057300003F09CF934464FF47A7003F097F9FEF7C2
:10574000ADFDFFF70DFC01213B4801F037F802F0F9
:10575000A1FA3D4B0FA91860374801F0C1FA002C9F
:105760007CD003F0B5FD3949334C02F0A6FF20464A
:1057700001F05FF9002840F0B1800FA9204601F048
:10578000AFFAFFF737F84FF47A7003F06FF9EEE7EE
:1057900003F09EFD2E4902F090FF04F085F81622DA
:1057A00003A9042002F086FA03A8FEF703FE03F023
:1057B0008FFD284902F081FF03A91F4801F021F85D
:1057C00003F086FD244902F078FFB4E770E503207A
:1057D000CCD60D008AD60D0054E40320D4E3032078
:1057E000D5E30320D6E30320F1D60D00C9400D0018
:1057F0000ED70D0024D70D00D4E4032032D70D00BE
:105800003ED70D005BD70D0066D70D0072D70D0097
:1058100092D70D0070E403209ED70D00E6D70D004F
:10582000F7D70D003ED80D0068D80D0092D80D00B6
:1058300030E50320BCD80D00B4E4032005D90D00E9
:10584000CDD80D0042D90D0038E50320FAD90D005E
:1058500078D90D00A6D90D00D4D90D0003F038FD7C
:105860003E493F4C3F4E404D02F027FF204601F09D
:10587000E0F898BB0FA9204601F032FA03F028FDAA
:10588000314602F003FF03F023FD9DED140A0421CD
:1058900003F036F803F01CFD294602F0F7FE03F092
:1058A00017FD9DED150A042103F02AF803F010FD01
:1058B0002E4902F0EBFE03F00BFD9DED160A0421CC
:1058C00003F01EF8FEF796FF03F002FD284902F0F0
:1058D000F4FE4FF47A7003F0C9F8C7E703F0F8FC60
:1058E000244902F0EAFE03F0F3FC234902F0E5FE4E
:1058F00003F0EEFC214902F0E0FE09A9184801F08E
:10590000D1F809A8FEF756FD03F0E2FC1C4902F0AD
:10591000D4FE18A9124800F0F5FE1C9B029303F078
:10592000C3FF02A90422002002F0CCF903F0BCFF5F
:10593000162209A9042002F0C5F903F0C9FC114997
:1059400002F0BBFE03F0C4FC0F4902F0B6FE4FF4B8
:10595000FA7003F08BF822B070BD00BF2ADA0D0098
:10596000B4E403208CD60D0090D60D0095D60D0022
:10597000CED50D0044DA0D0054D40D0057DA0D00D9
:105980006DDA0D0095DA0D00ACDA0D00704710B538
:105990001021044603F0DCFF204610BD0EB403B511
:1059A00003AB002153F8042B019302F0D5FF02B0A2
:1059B0005DF804EB03B0704773B5044608462279DE
:1059C000A36832B1A3B90B4902B0BDE8704002F040
:1059D0005DBE094A267B094D0949647B012E18BF2B
:1059E0002946CDE900140749FFF7D8FF02B070BD82
:1059F000054AEFE7E0DA0D00CED50D00DCDA0D0048
:105A0000D8DA0D00F6DA0D00CFDA0D004FF0FF33D3
:105A1000036170478068704713B50B4C2178BFF362
:105A20005B8F11F001010BD120460191FEF744FB81
:105A3000019928B1054802F0FDFB2046FEF741FB25
:105A4000024802B010BD00BF78E503207CE50320CA
:105A50002DE9F04190F91330013305460F4606D188
:105A6000FFF7DAFF3946BDE8F04102F085BC0024BB
:105A700007264FF0010895F91300002180B203F0CA
:105A8000D0FE95F9110008FA06F1394080B203F012
:105A9000C8FE95F91300012180B203F0C2FE95F90A
:105AA0001200640080B2E4B203F0D4FE08B144F006
:105AB0000104013EDFD22046BDE8F08108B5FFF7C2
:105AC000ABFFBDE8084002F0D0BB07B50190FFF77F
:105AD000A3FF019903B05DF804EB02F0DFBB000007
:105AE00030B590F91030013385B004460D4623D10E
:105AF0000179006803F08CFD2068036829469B68E3
:105B00009847206803F08CFD21792068032203F078
:105B10007CFD206803685B6998470502206803687C
:105B20005B69984728430502206803685B699847CA
:105B30000543284605B030BD90F9133001330CD130
:105B40001A4B009300238DF80430194B02936846DA
:105B50000123ADF80C30FFF7B8FF94F910000021D5
:105B600080B203F05EFE45F080012046FFF770FF33
:105B700000212046FFF76CFF002105022046FFF7B9
:105B800067FF2843050200212046FFF761FF054318
:105B900094F91000012180B203F043FE94F9133010
:105BA0000133C6D1FFF78AFFC3E700BF1CDB0D003E
:105BB00020A1070010B5FA210446FFF791FFB0F5C8
:105BC000000F1ED0A18A9FED107A4B00C1EB20225E
:105BD000C3EBE011B4F9163052435943B4F918300D
:105BE000121353439B1303EBE123E36003EB8303A3
:105BF00080331B1207EE903AF8EEE77A87EE870AB9
:105C000010BD9FED020AFBE70000C8420000C07F04
:105C10002DE9F8430446FFF7CDFFF7212046FFF7B3
:105C20005FFFB0F5000F054600F0BF80E068B4F9F3
:105C30001C60B0F5FA334FEAE07141F1FF32A3FB8B
:105C4000038903FB02F109EB4109F71706FB02F197
:105C500003FB0711A6FB03670F44390341EA165102
:105C60003003B4F91E60F71706FB09FC08FB07CCEC
:105C7000A6FB086767444FEA162C4CEA076C668B54
:105C80004FEA272E1CEB00004EEB010E00304EF5C4
:105C9000004EA0FB060106FB0E114E10CF1756EA70
:105CA000070100F08580B4F9240000FB09FCC1174E
:105CB00008FB01CCA0FB0801B4F922804FEAE87987
:105CC00008FB02F203FB0922A8FB0389914461440B
:105CD0004FEA48424FEA494C2D111218C5F580157C
:105CE0004CEAD83CB4F920804CEB010C0023E917B6
:105CF0009B184FEAC17E4FEAC5704FEAC80141EBDD
:105D00000C0C4EEA550EC01A40F635436EEB0C0EE5
:105D1000A0FB030103FB0E1132463B4607F0A0F83F
:105D2000B4F92A204D13460B46EAC14602FB05F79B
:105D3000D31706FB0377A2FB06233B44554306FB20
:105D40000355A2FB06232B44550E45EAC315B4F9AF
:105D50002820B4F926402D184FEA636641EB060669
:105D6000D317514300FB0311A2FB00230B44D10CBA
:105D700041EA43316D184FEAE34046EB00032A0A3B
:105D8000E51742EA0362191220012B0143EA14735A
:105D9000801843EB010107F025F89FED070A07EE95
:105DA000900A27EE800ABDE8F8839FED040AFAE71F
:105DB0009FED030AF7E700BF0000803B0000C07FB3
:105DC000000000000000000008B52DED028BB0EED1
:105DD000408AFFF71DFF9FED167AC0EE077AC7EEE7
:105DE000887A17EE900A06F08DFB9FED0D1B41ECB3
:105DF000100B03F049FE0F4953EC102B002006F066
:105E000021FA09A3D3E9002306F0D4FB06F0CAFE69
:105E1000BDEC028B00EE100A08BD00BFAFF300809E
:105E2000EBE2361AC05BC83F0000000040A5E54029
:105E30000000C8420000F03F30B590F91030013347
:105E400085B004460D461FD10179006803F0E0FBE0
:105E50002068036829469B689847206803F0E0FBA8
:105E600021792068022203F0D0FB206803685B6977
:105E700098470546206803685B69984740EA052013
:105E800085B2284605B030BD90F9133001330CD1EE
:105E9000184B009300238DF80430174B029368468B
:105EA0000123ADF80C30FFF710FE94F9100000212B
:105EB00080B203F0B6FC45F080012046FFF7C8FD34
:105EC00000212046FFF7C4FD002105462046FFF7CC
:105ED000BFFD40EA052085B294F91000012180B28F
:105EE00003F09FFC94F913300133CAD1FFF7E6FDAC
:105EF000C7E700BF1CDB0D0020A1070008B5FFF7B6
:105F00009BFF40BA80B208BD38B50446FFF752FE89
:105F1000FD212046FFF790FFB0F5004F38D0B4F9CF
:105F20003250E268B4F934302D05A2F59632C5EB53
:105F3000803002FB130303F58043D91394F830300B
:105F40005343DB1203F5004094F9363053439B1260
:105F500043439B1203F50012B4F92E30534303F56B
:105F600000539B134B43DA1394F82C105243D21175
:105F70004A43A3EB221323EAE373B3F1C85FA8BF3C
:105F80004FF0C8531B1300EE103ABAEECB0A38BDDF
:105F90009FED010AFBE700BF0000C07F30B590F91C
:105FA0001030013385B004460D4618D101790068E0
:105FB00003F02EFB2068036829469B6898472068F9
:105FC00003F02EFB21792068012203F01EFB2068DC
:105FD00003685B699847C5B2284605B030BD90F9A3
:105FE000133001330CD1154B009300238DF804308E
:105FF000134B029368460123ADF80C30FFF765FDA3
:1060000094F91000002180B203F00BFC45F08001F0
:106010002046FFF71DFD00212046FFF719FD05462C
:1060200094F91000012180B203F0FBFB94F91330C6
:106030000133D1D1FFF742FDCEE700BF1CDB0D00DD
:1060400020A1070008B5F321FFF7A8FF00F0010029
:1060500008BD38B588210446FFF750FF8A21A08289
:106060002046FFF74BFF8C21E0822046FFF746FFDA
:106070008E2120832046FFF741FF90216083204638
:10608000FFF73CFF9221A0832046FFF737FF9421C2
:10609000E0832046FFF732FF962120842046FFF759
:1060A0002DFF982160842046FFF728FF9A21A084C5
:1060B0002046FFF723FF9C21E0842046FFF71EFFC8
:1060C0009E2120852046FFF719FFA12160852046EB
:1060D000FFF764FFE12184F82C002046FFF70EFF54
:1060E000E321E0852046FFF759FFE42184F83000E2
:1060F0002046FFF753FFE52105462046FFF74EFFF8
:1061000000F00F0343EA05106086E6212046FFF702
:1061100045FFE52105462046FFF740FF031143EA0E
:106120000510A086E7212046FFF738FF84F83600E7
:1061300038BD00007FB590F91030013304460E469B
:10614000154612D10179006803F062FA20680368ED
:1061500031469B6898472068036829469B689847A2
:10616000206803F05DFA04B070BD90F9133001337C
:106170000CD1144B009300238DF80430124B029382
:1061800068460123ADF80C30FFF79FFC94F910002E
:10619000002180B203F045FB06F07F012046FFF7A7
:1061A00057FC29462046FFF753FC94F910000121C3
:1061B00080B203F036FB94F913300133D3D1FFF7EB
:1061C0007DFCD0E71CDB0D0020A10700F8B5DB004B
:1061D00002F0070203F03803134343EA81139DF8EA
:1061E000186080F83C3090F840309DF81C509DF8C5
:1061F000207066F3471380F84030ED0090F8383097
:1062000007F0070705F0380523F03F033D43044638
:106210001D4380F8385006F00702F221FFF78AFF8D
:1062200094F83820C2F3C20302F007019B0043EA4E
:10623000411343EAD2122046F521FFF77BFF94F881
:106240003C20C2F3C20302F007019B0043EA411362
:1062500043EA92122046F421BDE8F840FFF76ABFF6
:1062600030B5044690F91000421C85B019D1206861
:1062700003F09CF9D0212046FFF790FE6028A06033
:1062800045D12046B622E021FFF754FF4FF4967027
:1062900002F0ECFB2046FFF7D5FE054628B364204C
:1062A000F6E7012180B203F0BCFA94F91000012155
:1062B00080B203F0A5FA94F91300431C04D1FFF750
:1062C000ABFB01F0C1FFD5E7012180B203F098FAE2
:1062D00094F91100012180B203F092FA94F91200AE
:1062E000002180B203F08CFAC4E72046FFF7B1FE2C
:1062F000052300931A4603212046CDE90155FFF7F7
:1063000065FF642002F0B2FB012005B030BD002023
:10631000FBE7772310B50371044603F0F5FA20601C
:106320002046FFF79DFF30B9762323712046BDE854
:106330001040FFF795BF10BD10B50446406810B17E
:1063400003689B689847204610BD38B5044690F90D
:106350000E00012180B203F053FA94F90E000121DE
:1063600080B203F05EFA256835B1284601F06CFF73
:10637000012084F8340038BD94F90F00012180B267
:1063800003F03EFA637B94F90F00012B94BF29467A
:10639000012180B203F045FA94F91000421C09D0A3
:1063A000012180B203F02CFA94F91000012180B28F
:1063B00003F037FA94F91100431CD9D0002180B2C0
:1063C00003F01EFAD4E700002DE9F04F0446006800
:1063D00085B00D4640B10023009313460A4601F0F4
:1063E000D1FF05B0BDE8F08F237BA068484FB7FB15
:1063F000F0F7002B0B780CBF4FF0010B4FF0800B28
:106400001BEA030F01EB02030CBF4FF001094FF031
:106410000009FFB20393039BAB42E2D095F800A0C2
:106420005E464FF0000817B1384601F02BFC637B45
:1064300013F0FD0F41D194F910305A1C0FD01AEA15
:10644000060114BF012300234B4508D06369606A2D
:106450001A6800292CD002431A604FF00109A16983
:10646000E36A0A6813430B6017B1384601F00AFC6F
:1064700094F91130013306D0E3691A68A36A1A420D
:1064800018BF46EA0808A169E36A0A6822EA03031A
:106490000B6094F91130013318BF85F80080237B1D
:1064A000002B32D17600F6B2002EBCD10135B2E716
:1064B00022EA00021A608946D1E7A169E36A0A6804
:1064C00013430B6017B1384601F0DCFB94F9103030
:1064D000013308D06369616A1A681AEA060F14BFAB
:1064E0000A438A431A60A169E36A0A6822EA03033D
:1064F0000B6094F911300133CBD0E3691A68A36AB9
:106500001A4218BF46EA0808C3E77608CCE700BF7E
:1065100020A1070007B501228DF807100DF1070132
:10652000FFF752FF9DF8070003B05DF804FB2DE96B
:10653000F041044600680E4617461D4610B16168DA
:1065400001F0ACFE94F90E00002180B203F069F96D
:10655000069B05EB0308454508D13744B7420BD0ED
:1065600016F8011B2046FFF7D5FFF7E715F8011BCA
:106570002046FFF7CFFFEEE794F90E00012180B22D
:1065800003F04FF9206808B101F06FFE0120BDE86B
:10659000F08142600022027220220170C2607047C6
:1065A00010B5037A044653B12178606803F030F8DF
:1065B000606803F035F8B0FA80F0400910BD0121A1
:1065C00000F003F80028EFD1F8E738B5044640683A
:1065D0000D4602F0EBFF0120207225B12046BDE8F8
:1065E0003840FFF7DDBF38BD2DE9F843DDE90896F7
:1065F0001F46C368154632449A420446884602D96B
:106600000020BDE8F8830178406803F001F87EB906
:10661000606803682A46DB68414698478542EFD1A7
:106620006068394602F0F8FFB0FA80F04009E8E708
:10663000B9F1000FECD0606803683246DB68494668
:106640009847B042DCD1E3E72DE9F0411546044616
:106650000E46D2B20178406802F0C5FF85420DD1E6
:1066600000271FFA87F8A84507F1010709D26068DB
:1066700003685B69984706F80800F2E70020BDE868
:10668000F0810120FBE72DE9F843074688461646CE
:1066900099460025B54212D2FA68741B944228BF6D
:1066A0001446331BAB4294BF4B460023224608EBF3
:1066B00005013846FFF7C8FF10B12544EAE701207D
:1066C000BDE8F88373B51D460023CDE900339DF87E
:1066D0001C30069E0446FFF787FF40B10123324677
:1066E0002946204602B0BDE87040FFF7CCBF02B09B
:1066F00070BD08B5406802F055FF012008BD704725
:10670000704700000B4610B52822044600211846A9
:1067100006F0A4FD09490B2206F0F1FD002201213B
:10672000C272C160E168426200220161826103219C
:10673000C261034A4161026210BD00BFF3D90D007E
:106740000AD7233C10B51421044603F001F9204672
:1067500010BD000073B50193094B03600023C0E92D
:106760000231044610201646FDF795FC054618B187
:10677000019A3146FFF70DFF2046A56002B070BDBB
:1067800030DB0D001FB50023CDE900338DF80C1070
:106790008DF80D200123022203A98068FFF724FF52
:1067A00005B05DF804FB08B50A4601743D21FFF70A
:1067B000E9FFBDE808401E2002F058B970B50D464B
:1067C00000210446067CFFF7EEFF192002F04EF987
:1067D000002207212046FFF7D5FF85B180223F2107
:1067E0002046FFF7CFFF0A2002F040F9204631464D
:1067F000FFF7D9FFBDE87040142002F037B92A46F0
:10680000EDE770B50D4600210446067CFFF7CBFF8F
:10681000192002F02BF92A7855212046FFF7B2FF04
:106820006A7856212046FFF7ADFFAA785721204607
:10683000FFF7A8FFEA7858212046FFF7A3FF2A793F
:1068400059212046FFF79EFF6A795A212046FFF71B
:1068500099FFAA795B212046FFF794FFEA795C2132
:106860002046FFF78FFF2A7A5D212046FFF78AFF37
:106870006A7A5E212046FFF785FFAA7A5F212046CB
:10688000FFF780FFEA7A60212046FFF77BFF2A7B33
:1068900061212046FFF776FF6A7B62212046FFF7E1
:1068A00071FFAA7B63212046FFF76CFFEA7B64211E
:1068B0002046FFF767FF2A7C65212046FFF762FF2D
:1068C0006A7C66212046FFF75DFFAA7C672120468F
:1068D000FFF758FFEA7C68212046FFF753FF2A7D27
:1068E00069212046FFF74EFF6A7D6A212046FFF7A7
:1068F00049FF31462046BDE87040FFF754BF1FB541
:1069000001220023CDE9002303AB8DF80C10806831
:106910001946FFF7D7FE9DF80C0005B05DF804FBA3
:1069200070B504460E4680680121FFF74EFE05460D
:1069300010B90025284670BD00212046FFF7DFFF73
:10694000A02813D100212046FFF72DFF20223F2150
:106950002046FFF717FF1E2002F088F8002120468E
:10696000FFF7CDFFA0280CD00A20F5E74FF47A708E
:1069700002F07CF800212046FFF7C1FFA028D8D103
:10698000E0E7322002F072F800223E212046FFF7B5
:10699000F9FE0A2002F06AF8002207212046FFF7DC
:1069A000F1FE00223F212046FFF7ECFE0A2002F014
:1069B0005DF820463146FFF7F6FE142002F056F847
:1069C000B8E7F8B50F4616460721002204461D46D3
:1069D000FFF7D8FE27B139212046FFF790FF387026
:1069E00026B136212046FFF78AFF307025B13A21C3
:1069F0002046FFF784FF2870BDE8F840C82002F069
:106A000035B8F8B50E463521069F15461C46FFF7EA
:106A100076FF0EB18309337015B1C0F301132B70EB
:106A200014B1C0F38103237017B100F00300387074
:106A3000F8BD1FB504460DF10F0300930DF10D02D3
:106A40000DF10E0303A9FFF7DCFF237C013B092BAB
:106A500017D8DFE803F00522101E0C13160C1E10C9
:106A60009DF80E00C31E5842584104B010BD9DF859
:106A70000E30032B14D19DF80D00F3E79DF80F3075
:106A8000F7E79DF80C30032B0AD19DF80D30032B4E
:106A900006D19DF80E30032B02D19DF80F00E1E7DF
:106AA0000020E2E72DE9F04104460D46FFF7C1FF63
:106AB0000646002800F091800021204694F81080BE
:106AC000FFF771FE192001F0D1FF56212046FFF794
:106AD00016FF552107462046FFF711FF40EA072021
:106AE000288058212046FFF70AFF572107462046F5
:106AF000FFF705FF40EA072068805A212046FFF78C
:106B0000FEFE592107462046FFF7F9FE40EA07201E
:106B1000A8805C212046FFF7F2FE5B210746204655
:106B2000FFF7EDFE40EA0720E8805E212046FFF7F0
:106B3000E6FE5D2107462046FFF7E1FE40EA07201A
:106B4000288160212046FFF7DAFE5F2107462046B4
:106B5000FFF7D5FE40EA0720688162212046FFF753
:106B6000CEFE612107462046FFF7C9FE40EA072016
:106B7000A88164212046FFF7C2FE63210746204614
:106B8000FFF7BDFE40EA0720E88166212046FFF7B7
:106B9000B6FE652107462046FFF7B1FE40EA072012
:106BA000288268212046FFF7AAFE67210746204673
:106BB000FFF7A5FE40EA072068826A212046FFF71A
:106BC0009EFE692107462046FFF799FE40EA07200E
:106BD000A88241462046FFF7E6FD3046BDE8F08139
:106BE0001FB58DF80C100021CDE90031134603A923
:106BF00001228068FFF766FD05B05DF804FB000028
:106C0000F7B50D46164600211822044606F026FB6D
:106C100000230093ADF80430284606236A46314627
:106C2000FFF7DEFF9DF801309DF800009DF802702F
:106C30009DF8045040EA03209DF8033047EA0327FB
:106C40009DF805301A2E45EA032500B23FB22DB259
:106C50000DD008D80E2E0AD0142E08D0082E21D020
:106C6000204603B0F0BD282E1CD02E2EF7E705F0ED
:106C700037FC194B002205F09DFCC4E900013846A1
:106C800005F02EFC144B002205F094FCC4E902012F
:106C9000284605F025FC104B002205F08BFCC4E9CA
:106CA0000401DDE705F01CFC0C4B002205F0ACFDF7
:106CB000C4E90001384605F013FC084B002205F03A
:106CC000A3FDC4E90201284605F00AFC034B00229B
:106CD00005F09AFDE3E700BF0000B03F0000594017
:106CE00030B50C4687B0054620220021201D06F055
:106CF000B5FA24232360EB6863600323A36000F0EC
:106D0000C9FF1A22206129466846FFF779FFDDE9AD
:106D1000000105F047FF6061DDE9020105F042FF77
:106D2000A061DDE9040105F03DFFE061012007B04D
:106D300030BD0029F0B566DBB0F90C408C4262DD55
:106D4000002A60DBB0F90E4094425CDD847E022CA8
:106D50005AD0032C61D0012C04D10489D2431444AD
:106D60000A4621B2B0F938408C42A8BF0C460487CD
:106D7000B0F93A409442A8BF14464487B0F93C4069
:106D80008C42B8BF0C468487B0F93E409442B8BFED
:106D90001446C48790F84C40012C16D1012B42D0E8
:106DA000022B51D08BB9002A0589476B1446B8BF16
:106DB000D41DE41014FB051402F00706012505FAA2
:106DC00006F63D5D25EA06053D5590F84C40042C3D
:106DD00019D1048914FB02F202EBD27401EBD172D7
:106DE00042F34F0202EB6402446BA05CC9074BBF45
:106DF00003F00F0300F00F0020F00F0040EA031330
:106E000048BF0343A354F0BD0489C94321444489C6
:106E1000D243224409B212B2A4E74489C9430C44C4
:106E2000114622B29EE7002A0589466B1446B8BF78
:106E3000D41DE41014FB051402F007070125BD4022
:106E4000375D3D433555C0E7002A0589466B14463A
:106E5000B8BFD41DE41014FB051402F00707012588
:106E6000BD40375D7D40EDE738B50D46114604461F
:106E70001AB209B200F096FA069A0B4BE262079A30
:106E800023600023C4E90933C4E90C234FF0FF3326
:106E9000C4E910339DF91430A364049B84F84C506A
:106EA0002365204638BD00BF4CDB0D0038B50C4BC8
:106EB00003600446406B18B101F040F9002363639E
:106EC000656A35B12846FFF737FA3821284602F0BF
:106ED0003FFDA06A10B1102102F03AFD204638BDF6
:106EE0004CDB0D0030B587B0856A8DF80F10044675
:106EF0007DB10023CAB2CDE900338DF814308DF88E
:106F000015200123022205A92846FFF76DFB07B0D3
:106F100030BD2946B0F8400002F083FC606A00955D
:106F20002B4601220DF10F01FFF701FBEFE70029CE
:106F300014BFA721A621FFF7D5BFF0B5856A85B09C
:106F400004460E46174665B100230DF10F008DF87B
:106F50000F300123009001932846FFF745FB05B051
:106F6000F0BD2946B0F8400002F05BFC606A009575
:106F70002B463A463146FFF7DAFAF0E710B5B0F99A
:106F80000A10038990F84C2012FB03F2CB1D48BF76
:106F900001F10E03DB1004465A43406B002106F05A
:106FA0005DF90023A3632389013BA3876389013B28
:106FB000E38710BD70B5436B04460E4615460BB310
:106FC000002D33D1236D002B50D01020FDF763F836
:106FD000054618B1226D3146FFF7DBFAA5621DB3F5
:106FE00001212846FFF7F1FAF0B12046FFF7C6FF6E
:106FF0000023A3632389013BA3876389013BE387C4
:10700000012012E02389B4F90A2090F84C0010FB0B
:1070100003F0D31D48BF02F10E03DB10584301F00B
:1070200085F860630028CBD1002070BDA06C0028DB
:10703000C8DB012180B202F0E3FBB4F84800012173
:1070400002F0EFFB0A2001F011FDB4F84800002126
:1070500002F0E7FB0A2001F009FDB4F84800012125
:1070600002F0DFFB0A2001F001FDABE7606A0028B7
:10707000DAD0FFF76AF90028D6D0B4F84000012131
:1070800002F0BEFBB1E707B581238DF8051002229F
:1070900001A98DF80430FFF750FF03B05DF804FB41
:1070A0002DE9F04F85B01F46BDF93880BDF83C3062
:1070B000A8EB0209A7EB010AB9F1000FB8BFC9F1AB
:1070C0000009BAF1000FB8BFCAF1000AD1458346E2
:1070D0000C46154604DD3A462C4647460D4690467A
:1070E000BC4205DD2A464546904622463C461746A8
:1070F0003E1BB2B20092A8EB0502002AB8BF524272
:107100000192C6F3C03202FA86F64545B4BF0122A9
:107110004FF0FF3276100292BC421CDCDBF80020FC
:107120000393D145D2F81880C7BF294622462A4684
:1071300021465846C047019A039BB61AB1B236B2EF
:10714000002E05DA029A1544009A56182DB236B26E
:10715000013424B2E0E705B0BDE8F08F704710B409
:1071600004682469A4465DF8044B604730B40468A1
:10717000BDF808500295A46BA44630BC604730B4FB
:107180000468BDF808500295E46BA44630BC604723
:1071900070B4BDF90C50BDF810600468CDE9035619
:1071A000246CA44670BC60472DE9F3411C4603687B
:1071B000BDF820805B6905461646013C34440F4605
:1071C00024B298472B68CDF8048000949C6A284626
:1071D0003B4632463946A0472B68DB6A284602B058
:1071E000BDE8F04118472DE9F3411D460368BDF89D
:1071F00020805B69044617460E469847CDE9007823
:1072000022686B1E3344956A20461BB23A463146CB
:10721000A8472368DB6A204602B0BDE8F041184762
:107220002DE9F3471E460368BDF928905B69BDF858
:107230002C800C460546174698472644B4422B68D6
:107240000BDACDF80080D3F820A021464B463A4611
:1072500028460134D04724B2F0E7DB6A284602B062
:10726000BDE8F047184713B502680191B0F90E1058
:107270000091146CB0F90C3000221146A04702B006
:1072800010BD2DE9F3471D460368BDF82C805B69EE
:10729000BDF9289004460F46164698472368CDF856
:1072A0000080D3F824A032462B4639462046D047EA
:1072B0002368CDF8008009F1FF323244D3F824A0CE
:1072C00039462B46204612B2D0472368CDF80080BD
:1072D000D3F820A032464B4639462046D0476B1E95
:1072E000D9192368CDF800801D6A20464B463246E6
:1072F00009B2A8472368DB6A204602B0BDE8F04720
:10730000184770472DE9F74399421646BDF9287092
:10731000BDF82C90026880460D461C4613D1BE4233
:10732000C8BF3346CDF82890C4BF3E461F467B1CDD
:10733000946B9B1B1BB2324629464046A44603B0C1
:10734000BDE8F0436047BE420AD19942C2BF0B4636
:1073500025461C46631CCDF82890D46B5B1BE9E7DF
:1073600053699847CDE90079D8F8003040469F6AC4
:10737000324623462946B847D8F80030DB6A4046F3
:1073800003B0BDE8F043184701F00303B0F90A2049
:107390008376C907B0F9083059BF8381C2818281E1
:1073A000C381704730B54281C281074A074D0181D0
:1073B000002481814FF0FF31C0E90512446005606F
:1073C00004610477046230BD01010001A8E00D00F2
:1073D0002DE9F04F89B0CDE902120268BDF948806D
:1073E0000493BDF94C3052690593BDF850A0044692
:1073F000904718F107024FF0000648BF08F10E024F
:107400004FEAE20B01963546039B019ABDF9041041
:107410009A18059B8B4212B227DD049B33444FF030
:10742000000906930FFA89F080451FFA89F117DDEC
:107430004F0705BF069BC0106D001D5C18BFEDB265
:107440002B060AD5029B206807921944836909B26A
:107450001F4620465346B847079A09F10109E1E75C
:10746000019B013301935E44CEE72368DB6A20462B
:1074700009B0BDE8F04F18472DE9F04F2DED028B14
:1074800091B01646026ABDF874809DF878509DF858
:107490007C4003911F46BDF8703004938346002A58
:1074A00040F0C580B0F90C308B4240F34C81B0F90C
:1074B0000E30B34240F34781062313FB0513002B24
:1074C00040F3418106EBC403002B40F33C81037F72
:1074D0001BB9AF2F84BF0137FFB2DBF8003058462D
:1074E0005B6998470522099200220592984A07EBAA
:1074F0008703D3180C93B3B20693059A0C9B9B5C3D
:107500000793ABB20B93BDF80C300893039B02FBBF
:1075100005F919FA83F90FFA89F308EE103A0823EE
:107520000A93039B02EB030A4FF000090FFA8AFA51
:10753000079ADBF80030D20752D5012D1FFA89F2E5
:107540003ED1012C3CD19B6906991F46049B0A44FD
:1075500012B251465846B84709F101034FFA83F970
:10756000079B5B0807930A9B013B13F0FF030A93F9
:10757000DED1059F01377BB20593099B013B13F0D8
:10758000FF030993B9D1049B43450FD0012DDBF8CC
:1075900000303BD1012C39D10899CDF8008005315C
:1075A0001C6A3246082309B25846A047DBF800306F
:1075B000DB6A584611B0BDEC028BBDE8F04F1847AE
:1075C000069914FB02F20A44049901910094DB69C4
:1075D00018EE101A1F4612B22B465846B847BBE7A2
:1075E000049A4245B8D0012D1FFA89F207D1012C27
:1075F00005D19B6906991F460A444346A8E70699A8
:10760000CDF8048014FB02F20A44DFE70B9ACDF8B0
:10761000048002EB8201089AE4000A4411460094B7
:10762000DC6932462B4609B25846A047BEE7137ABA
:10763000516812680D92FF1AFFB201EBC70331F8CF
:10764000372006929A780992DA780B92012D93F9F5
:10765000052093F906A00A9201D8012C57D9BDF94B
:10766000283008930FFA8AF30793DBF80030584666
:107670005B699847B3B24FF000080E931AFA86F38D
:10768000C14647460F930B9B9F428FD2079B0E9A92
:107690003B4403FB0423002205920F9A1BB202EB2A
:1076A000070A08EE103A0FFA8AFA4346099A059932
:1076B000914241D25A1CD2B25B070C9207D1069B71
:1076C00006990D9A01339BB212F80190069319F0B6
:1076D000800F12D0012DDBF80030BDF80C101AD14C
:1076E000012C18D10A9A9B691144059A11441E462F
:1076F0005246049B09B25846B047059E0136F3B284
:107700004FEA490905935FFA89F90C9BCEE70023FC
:10771000CDE90733A9E70598089A024402FB051151
:10772000049ACDE90042DB6918EE102A1E4609B220
:107730002B465846B047E0E7099B013798445FFA6B
:1077400088F8FFB29FE711B0BDEC028BBDE8F08F67
:10775000A0DB0D00F0B5026A85B004460B46002A96
:1077600034D10A2908D1438A0282427E03EBC20344
:107770006382012005B0F0BD0D29FAD0E17E007EC4
:10778000657E71B1B4F91060062111FB0061B4F996
:107790000C60B142C1BFB4F91210228201EBC502E4
:1077A0006282E28A0192A28A0092CDE90205B4F9CE
:1077B0001220B4F910102046FFF75EFE237E228AC5
:1077C00003EB430302EB43032382D2E70A2907D1E9
:1077D00000230382137B417E428A01FB0323C7E718
:1077E0000D29C6D0157AA942C3D3917A9942C0D344
:1077F00051685D1BEDB201EBC505AF782FB3E97899
:1078000019B3E17E007E667E91B195F90510394489
:10781000B4F9107000FB0171B4F90C70B94207DDC6
:1078200000272782B4F91210127B02FB0612628233
:10783000E28A0192A28A0092CDE90206B4F91220EE
:10784000B4F910102046FFF717FE2979237E228A0B
:1078500001FB0323B8E7012938BF012101764176F6
:1078600070472DE9F04F04468BB000F043FAB4F9AD
:107870000A30B4F93A50B4F9087094F83890DA1D27
:1078800048BF03F10E0240238DF82330C2F3C70333
:107890000393A36ADB68013B9BB20493B4F93C30C9
:1078A000FFB2002DB8BF073523EAE373B94507F1EE
:1078B0000102C5F3C70528BFB94652FA83F305FB99
:1078C000079A06934FF0000B039B9D426BD2636BAC
:1078D000267A94F8542003EB0A08069B4A449E1B20
:1078E000A36A1111A6EB0906A5F15000F6B2C0B2C9
:1078F000103102F00F02002B35D08DF825008DF8E5
:1079000026101846E16A8DF827208DF824B0FEF77E
:10791000F0FE0123CDE900BBA06A042209A9FEF70D
:1079200063FE9DF810300593A06AAEB1059BB3428B
:1079300028BF33461A46012301930DF12303009318
:10794000414601230792FEF74FFE079AB61A90446C
:10795000F6B200F0CFF9E7E7216BFEF7CAFE01357A
:10796000EDB2BA44B0E78DF824008DF82510B4F8D4
:1079700040008DF826201946059301F052FF059B23
:107980000093032209A9606AFEF7D1FDB4F8400014
:10799000012101F046FF059B606A00933246414693
:1079A000FEF7C5FDDBE74FF004224FF0FF33C4E9DB
:1079B0000E230BB0BDE8F08F30B585B004460A9DAC
:1079C0000395099D02959DF92050CDE90035134698
:1079D0000A460121FFF748FA034B236020460023A3
:1079E00084F8543005B030BD00E10D0010B5034BF4
:1079F00003600446FFF75AFA204610BD00E10D006F
:107A000010B5034B03600446FFF7F0FF204610BD9E
:107A10003CE30D0010B50446FFF7F2FF2046582165
:107A200001F096FF204610BD30B585B004460A9D92
:107A30000295099D01959DF920500095FFF7BCFF27
:107A4000024B2360204605B030BD00BF3CE30D0073
:107A500030B5044685B0FFF7ADFA2F212046FFF779
:107A600012FBA2682F4B9A4221D1236801211B6B84
:107A700020469847B4F90820B4F90A102023203A88
:107A800073390125CDE9013502EBD272732301EB85
:107A9000D171009341F34F01234B204642F34F0233
:107AA000FFF796FC236800211B6B20469847A368CC
:107AB000B3F1801F17D1B4F90820B4F90A102023BC
:107AC0000120203A7339CDE9013002EBD2727323E1
:107AD00001EBD171009342F34F02134B41F34F017D
:107AE0002046FFF775FC114916222046FFF725FABC
:107AF000054618B90025284605B030BDA368B3F186
:107B0000801F07D0642000F0B1FFAF212046FFF7AF
:107B1000E9F9F0E7064904222046FFF70EFA0028AB
:107B2000F0D1E7E74000800054E10D0094E30D0040
:107B300090E30D00002202600271704773B50546A4
:107B400010200E460192FCF7A6FA044618B1019ADD
:107B50003146FEF71EFD012120462C602E7102B039
:107B6000BDE87040FEF731BD30B5002385B0CDE9EA
:107B7000003349BA0546ADF80C108DF80E200068A8
:107B80000123032203A9FEF72FFD60B16524013C08
:107B900014F0FF0407D02868FEF702FD20B9012089
:107BA00000F064FFF3E7002005B030BD1FB50123EE
:107BB0000022CDE9003249BA03ABADF80C100068E1
:107BC00002221946FEF77EFD08B19DF80C0005B0B3
:107BD0005DF804FB08B5024B1B689B68019308BD68
:107BE0006802030008B5024B1B68DB68019308BDFF
:107BF0006802030008B5024B1B685B68019308BD6F
:107C00002C02030008B5024B1B689B68019308BD5A
:107C10002C02030008B5024B1B68DB68019308BD0A
:107C20002C02030008B5024B1B681B69019308BDB9
:107C30002C02030008B5024B1B685B69019308BD69
:107C40002C02030008B5024B1B689B69019308BD19
:107C50002C02030008B5024B1B68DB69019308BDC9
:107C60002C02030008B5024B1B681B6B019308BD77
:107C70002C02030008B5024B1B685B68019308BD2A
:107C80001802030008B5024B1B68DB68019308BDAE
:107C90001802030008B5024B1B685B69019308BD1D
:107CA0001802030008B5024B1B689B6A019308BDCC
:107CB0001802030008B5024B1B685B6C019308BDFA
:107CC0001802030008B5024B1B689B6C019308BDAA
:107CD0001802030008B5024B1B689B6D019308BD99
:107CE0001802030008B5024B1B685B6E019308BDC8
:107CF0001802030008B5024B1B68DB68019308BD3E
:107D00004802030008B5024B1B685B6C019308BD79
:107D10004802030008B5024B1B685B69019308BD6C
:107D20006402030008B5024B1B681B68019308BD81
:107D30003C02030008B5024B1B68DB68019308BDD9
:107D40003C02030008B5024B1B681B69019308BD88
:107D50003C02030008B5024B1B685B69019308BD38
:107D60003C02030008B5024B1B689B69019308BDE8
:107D70003C02030008B5024B1B68DB69019308BD98
:107D80003C02030008B5024B1B681B6A019308BD47
:107D90003C02030008B5024B1B689B6A019308BDB7
:107DA0003C02030008B5024B1B681B68019308BD29
:107DB0002802030008B5024B1B68DB68019308BD6D
:107DC0002802030008B5024B1B689B69019308BD9C
:107DD0002802030008B5024B1B68DB69019308BD4C
:107DE0002802030008B5024B1B681B6A019308BDFB
:107DF0002802030008B5024B1B685B6A019308BDAB
:107E00002802030008B5024B1B689B6A019308BD5A
:107E10002802030008B5024B1B68DB6A019308BD0A
:107E20002802030008B5024B1B681B6B019308BDB9
:107E30002802030008B5024B1B685B6B019308BD69
:107E40002802030008B5024B1B681B6C019308BD98
:107E50002802030008B5024B1B681B6D019308BD87
:107E60002802030008B5024B1B681B68019308BD7C
:107E70003002030008B5024B1B685B69019308BD23
:107E80003002030008B5024B1B68DB69019308BD93
:107E90003002030008B5024B1B681B6A019308BD42
:107EA0003002030008B5024B1B685B6A019308BDF2
:107EB0003002030008B5024B1B689B6A019308BDA2
:107EC0003002030008B5024B1B689B6B019308BD91
:107ED0003002030008B5024B1B68DB6B019308BD41
:107EE0003002030008B5024B1B681B6C019308BDF0
:107EF0003002030008B5024B1B685B6C019308BDA0
:107F00003002030008B5024B1B681B68019308BDD3
:107F10004C02030008B5024B1B685B68019308BD67
:107F20004C02030008B5024B1B681B69019308BD96
:107F30004C02030008B5024B1B685B69019308BD46
:107F40004C02030008B5024B1B689B69019308BDF6
:107F50004C02030008B5024B1B68DB69019308BDA6
:107F60004C02030008B5024B1B681B6A019308BD55
:107F70004C02030008B5024B1B685B6A019308BD05
:107F80004C02030008B5024B1B685B6B019308BDF4
:107F90006002030008B5024B1B681B68019308BD13
:107FA0002002030008B5024B1B685B68019308BD03
:107FB0002002030008B5024B1B685B69019308BDF2
:107FC0002002030008B5024B1B68DB6C019308BD5F
:107FD0002002030008B5024B1B685B6D019308BDCE
:107FE0002002030008B5024B1B689B6D019308BD7E
:107FF0002002030008B5034B1B68D3F888300193B7
:1080000008BD00002002030008B5034B1B68D3F82D
:108010009430019308BD00002002030008B5024B14
:108020001B685B68019308BD4002030008B5024B62
:108030001B689B68019308BD4002030008B5024B12
:108040001B68DB68019308BD4002030008B5024BC2
:108050001B681B69019308BD4002030008B5024B71
:108060001B685B69019308BD4002030008B5024B21
:108070001B689B69019308BD4002030008B5024BD1
:108080001B68DB69019308BD4002030008B5024B81
:108090001B681B6A019308BD4002030008B5024B30
:1080A0001B681B6B019308BD4002030008B5024B1F
:1080B0001B685B6B019308BD4002030008B5024BCF
:1080C0001B681B6C019308BD4002030008B5024BFE
:1080D0001B685B6C019308BD4002030008B5024BAE
:1080E0001B689B68019308BD4402030008B5024B5E
:1080F0001B685B69019308BD4402030008B5024B8D
:108100001B681B6A019308BD4402030008B5024BBB
:108110001B681B6B019308BD4402030008B5024BAA
:108120001B68DB6B019308BD4402030008B5024BDA
:108130001B681B68019308BD1C02030008B5024BB5
:108140001B685B68019308BD1C02030008B5024B65
:108150001B689B68019308BD1C02030008B5024B15
:108160001B685B6A019308BD1C02030008B5024B43
:108170001B68DB6A019308BD1C02030008B5024BB3
:108180001B681B6B019308BD1C02030008B5024B62
:108190001B68DB6B019308BD1C02030008B5024B92
:1081A0001B685B6C019308BD1C0203000022406841
:1081B0001146FFF76BBF002240681146FFF776BFFC
:1081C00040680022FFF76ABF4068002281F0010189
:1081D000FFF754BF002340681A461946FFF746BF11
:1081E000002340681A461946FFF738BF002240684E
:1081F0001146FFF72BBF002240681146FFF716BF5C
:10820000406800220221FFF719BF002340681A4688
:10821000FFF704BF024B03225A60024A1A607047FC
:1082200084E50320B4E30D000021FFF75BBE0021CD
:10823000FFF760BE10B5044608462170FFF722FE26
:1082400000236360204610BD10B504460078FFF798
:10825000EBFF48B920784FF6FF71FFF703FE207857
:10826000BDE81040FFF7E3BF10BD0078FFF7DFBFA8
:10827000400830B51860002418688842E5B206D975
:108280000134082C02D040081860F5E70725024B9E
:108290005B5D137030BD00BFE8E30D002DE9F043D6
:1082A00006468FB000780C46FFF7BEFF00281BDBA8
:1082B00035781422002109A804F0D0FF0B230022F6
:1082C00009A92846ADF82430FFF7ECFD9DF82D30C4
:1082D00013B19DF82C5055B10027B946B846012579
:1082E00023795DB1C3B100200FB0BDE8F083DDF8A4
:1082F00030809DF834909DF83570F1E7002B35D132
:10830000A368434508D18DF820908DF82170BDF801
:108310002020A3899A42E6D00023A1688DF80F306F
:108320000A9804AB0DF10F02FFF7A2FF217985B97E
:1083300089B9A36843450ED38DF820908DF821703C
:10834000BDF82020A3899A4205D1049B434502D160
:10835000C9E70029F9D100230193637B00939DF8BD
:108360000F20237B3078FFF7B5FDBCE7CDE9005542
:108370002B462A460121F5E708B50078FFF77AFD7C
:10838000C0B208BD30B587B004460A9D009500789C
:10839000FFF790FD3DB9207802A9FFF793FD9DF806
:1083A0001430DB07F7D407B030BD0000054B0222C4
:1083B0001A60054B054A9A600020186098809871F1
:1083C000FFF7F0BD98E503208CE503200000FFFFD8
:1083D00010B5044604F08BFF013823182046834271
:1083E00006D90278197800F8011B03F80129F6E78D
:1083F00010BD70B50C46911E2229054622D8204694
:108400006DB1B5FBF2F602FB1655E9B2092D94BF2A
:1084100030315731C9B200F8011B3546F0E702464A
:1084200023443021934202D902F8011BFAE71A1AB9
:10843000834238BF0022002383542046FFF7C8FF41
:10844000204670BD0020FCE72DE9F04757EC106B8B
:1084500080460C4610EE100A00220023394604F034
:108460001BFB28B107F100431F462D2304F8013BF5
:1084700000234FF001090A22D9B2884503D902FB33
:1084800009F90133F8E7484604F02AF832463B463A
:1084900004F090F806460F4604F04AFD05468A4669
:1084A00004F052F802460B463046394603F0CAFE45
:1084B000134B002204F004FB10B101354AF1000A0D
:1084C0004A462846D317514604F01AFD01231546A3
:1084D00021460A22FFF78DFFB8F1000F0DD020468C
:1084E00004F005FF2E23211823540A224346284670
:1084F0000131BDE8F047FFF77CBFBDE8F08700BF62
:108500000000E03F10B504460068FFF717FE204664
:1085100010BD10B50446006808B1FFF70FFE002338
:10852000C4E90133236010BD38B504460D46006828
:108530000131FFF70BFE10B1C4E90005012038BD81
:1085400010B50368044623B143688B4201D3012070
:1085500010BD2046FFF7E8FF0028F9D0A368002BE4
:10856000F5D122681370F2E737B50D461146019236
:108570000446FFF7E5FF019A28B92046FFF7C9FF37
:10858000204603B030BDA2602946206804F058FEA2
:108590002268A3680021D154F2E713B5044659B10B
:1085A0000846019104F0A3FE019902462046FFF718
:1085B000DBFF204602B010BDFFF7ABFFF9E710B5B7
:1085C00004468AB000230846C4E90033A36023733D
:1085D00001A9C0B2FFF738FF01A92046FFF7DDFF70
:1085E00020460AB010BD10B5036804469B68984742
:1085F000A368013BA3602BB923682046DB68BDE874
:108600001040184710BD0B68036013B15A6801325F
:108610005A60704710B50446006828B14368013BB2
:1086200043600BB9FFF7DFFF204610BD024800236F
:108630000360FFF767BB00BF9CE50320F8B5064663
:108640000D468F180024BD420CD0336815F8011B6D
:108650009B6830469847031E01DB1C44F3E7002C5F
:1086600008BF1C462046F8BD13B50446084659B15C
:10867000019104F03CFE23680199DB680246204624
:1086800002B0BDE81040184702B010BD08B5FFF7B2
:10869000EBFF08BD03689B68184708B5FFF7E4FFC8
:1086A00008BD38B50D210546FFF7F4FF0A21044641
:1086B0002846FFF7EFFF204438BD38B50546FFF7E1
:1086C000D3FF04462846FFF7ECFF204438BDFFF7F0
:1086D000F4BF30B58BB000238DF82430012A98BF49
:1086E0000A2209AC0D46B1FBF2F101FB125303F073
:1086F000FF03092B94BF30333733DBB2AA4204F8AF
:10870000013DEFD92146FFF7AFFF0BB030BD2DE99A
:10871000F04F93B019469DF87050012D4FF00003B3
:1087200098BF0A2582468DF8443010460DF1440B5F
:108730005FFA85F84FF0000942464B4606460F4661
:1087400004F0DEFB05FB106404F0FF04092C94BF69
:10875000303437344F45E4B208BF46450BF8014D7D
:10876000EAD259465046FFF77FFF13B0BDE8F08FBD
:108770002DE9F74F55EC104B06460F4610EE102A28
:1087800010EE100A2B46294604F0AEF940B15349C9
:108790003046FFF769FF8246504603B0BDE8F08FD0
:1087A00025F000494E4B4FF0FF322046494604F079
:1087B0009BF948B94A4B4FF0FF322046494604F036
:1087C00075F908B94749E3E7474B4FF06042204647
:1087D000294604F07FF908B14449D9E7444B4FF0EA
:1087E00060422046294604F057F90028F4D10022BF
:1087F00000232046294604F04FF9D0B12D21304600
:10880000FFF748FF05F1004382461D463949DFF86E
:10881000EC904FF0000B00204FF000085FFA8BF354
:108820009F4208D942464B4603F0EEFF0BF1010B85
:10883000F4E78246EAE722462B4603F005FD0D46A3
:10884000044604F08FF9804603F03AFE02460B46D8
:108850002046294603F0F6FC0A2204460D4630461F
:108860004146FFF736FF824427B123493046FFF7E0
:10887000FBFE8244DFF884904FF00008013FFFB216
:10888000FF2F89D042464B462046294603F092FEF0
:1088900004460D4604F03EF9B0F1000B1ADA2D2122
:1088A0003046FFF7F7FECBF1000103460A223046BF
:1088B0000193FFF70EFF019B18448244584603F0D2
:1088C0000FFE02460B462046294603F0BBFC044639
:1088D0000D46D3E759460023E8E700BFF0E30D005B
:1088E000FFFFEF7FF4E30D00FFFFEF41F8E30D0022
:1088F000FFFFEFC10000E03FD2D90D00000024408F
:1089000038B5044610EE100ACDB203F0FBFD41EC81
:10891000100B29462046BDE83840FFF729BFC9B2F1
:10892000FFF726BF38B5C9B20546FFF721FF044659
:108930002846FFF7B6FE204438BD38B5044610EE91
:10894000100A0D4603F0DEFD41EC100B29462046CF
:10895000BDE83840FFF7E6BF2DE9F04186B000AF33
:1089600005460E46381D142114463B60FFF7F6FB02
:1089700013280ED8391D2846FFF776FE04461EB18F
:108980002846FFF78EFE044420461837BD46BDE852
:10899000F08100F1080323F00703E846ADEB030D77
:1089A0002246411C3B686846FFF7D8FB69462846CB
:1089B000FFF75AFE0446C546E1E70000014B024AB4
:1089C0001A607047A0E50320FCE30D0008B5002005
:1089D000FFF79CFB28B1FFF789FB80F00100C0B2D4
:1089E00008BD0120FCE710B50020FFF773F904462D
:1089F000A0B9FFF7CFFA012810D12046FFF7F2FA0D
:108A000060B9FFF7E3FF10B9FFF768FBF9E7FFF77D
:108A1000DDFFBDE810400020FFF75CB9204610BD27
:108A20001FB5FFF7E0FF10220021684604F016FC96
:108A300000216846FFF756F9009805B05DF804FB81
:108A4000024B1A68024B1A60704700BFD8E303203C
:108A5000A4E503208A4210B507D0029C401AE41A0C
:108A60006043521A90FBF2F0184410BD0021FFF74A
:108A7000A1BA10B58368044613B103220146984792
:108A8000204610BD13B50B460246D0E900016C46E6
:108A900084E8030093E8030082E8030094E80300FD
:108AA00083E8030002B010BD014B00229A607047BA
:108AB000A8E50320014B1860704700BFE0E30320E6
:108AC00008B50B4B43B100F003FC03681B699847E2
:108AD000002801DDAFF30080064B43B100F0EAFC53
:108AE00003681B699847002801DDAFF3008008BDCB
:108AF000000000000000000008B5FFF7E1FFFFF7ED
:108B0000C9F8014B186008BD30E703200548064A44
:108B1000064908B5121A04F093FB054B054A1A6082
:108B200008BD00BF00F4032004F4032018EA0D0080
:108B300000F403201E1C279A07B5002300931A4651
:108B40006FF07701FFF760FA03B05DF804FB0000F7
:108B500007B543880A2B08D0502B0BD1094B1B6853
:108B60004BB103B05DF804EB1847FFF7E5FF03B026
:108B70005DF804FB002300931A466FF07701FFF7BE
:108B800043FAF4E7BCE5032010B512480021FFF7D3
:108B900005FB114B1A68114B9A42114B0CBF012275
:108BA00000221A7001D0FFF7B1FFFFF763F8044607
:108BB00004F05CFB0B4B13B12046AFF300800021A7
:108BC0000848FFF7ABFABDE8104007480021FFF75F
:108BD00011BA00BFB58A0D0000F403201E1C279AAD
:108BE000B8E5032000000000518B0D007047002005
:108BF000704710B51021044600F0AAFE204610BDB3
:108C000008B5FFF7F6FF08BD30B500224FF69C749B
:108C1000026084808D888C800C68858004600A6086
:108C200030BD10B504460068FFF788FA204610BD35
:108C300038B5C468F4B12378022B03D104F10C00D9
:108C4000FFF7EFFF656835B12846FFF712FF1021E7
:108C5000284600F07DFEA56835B12846FFF709FFDC
:108C60001021284600F074FE20461421BDE838404B
:108C700000F06EBE38BD73B50E46044656F8043B90
:108C800000930D4601A83146FFF7BDFC019A009BF9
:108C90006260236001A8002301930093FFF7BAFCF0
:108CA0003046FFF7B7FC2846082100F051FE204669
:108CB00002B070BD826810B50AB900F04DFEBDE883
:108CC0001040C368184708B5006800F11001FFF7AD
:108CD000F1FF08BD826810B50AB900F03DFEBDE89D
:108CE0001040C368184708B5006800F11001FFF78D
:108CF000F1FF08BD38B500230446036010200D467F
:108D0000FBF7C9F928B10123C0E90133024B036025
:108D1000C5602060204638BD24E40D0038B500232E
:108D200083608B6804460D462BB102229847EB689E
:108D3000E360AB68A360204638BD0000F0B589B0A1
:108D400004686846FFF760FF4FF00203D4E84F2F36
:108D5000002A03D1C4E8413F0029F7D125D104F10D
:108D60000C0569462846FFF74FFFBFF35B8F0123D1
:108D70006370002004F10803BFF35B8F53E8006FBA
:108D800043E80002002AF9D1BFF35B8F6EB1FFF711
:108D900019F978B129463046FFF78CFF3046FFF7C6
:108DA00068FE1021304600F0D3FD6846FFF739FF1A
:108DB00009B0F0BD314602A8FFF7B0FFE068B4F992
:108DC000105008B104F076FA06901020ADF81C504F
:108DD000FBF761F90546E8B1002787601820FBF72B
:108DE0005AF9044688B10146876002A8FFF74AFE97
:108DF000049BA268A360059B049206A9E268E36055
:108E000004F110000592FFF7FFFE084BEB60084BE2
:108E10002C60AB6006A8FFF704FF02A8FFF729FE4D
:108E2000002229460348FFF7D5F8B7E7C78C0D00A5
:108E30005D8F0D0001950D002DE9F0478AB00546C4
:108E40009DF848900C4617469846FFF74FF907AE35
:108E5000824638BB4FF62E73059005A93046ADF813
:108E60001830FFF7D1FE1420FBF715F9044648B17E
:108E7000022303700123C0E901AA437031460C307C
:108E8000FFF7C2FE2846214640F8044BFFF732FFA9
:108E90003046FFF7C6FE05A8FFF7C3FE28460AB016
:108EA000BDE8F0870C234FF0000A1420CDE908AA92
:108EB0000793FBF7F0F8014628B1C0E901AA80F852
:108EC00000A080F801A004A80391FFF713FF224B34
:108ED00008930820FBF7DFF8824628B1039B40F88F
:108EE000043B04A9FFF78FFB00965FFA89F3424623
:108EF00039462046CDF824A0FFF700F9B8B9039B06
:108F00005B7803F0FF0293B94FF69C7305A903A8A1
:108F10000592ADF81830FFF711FF05A8FFF781FEA5
:108F200005A80999FFF7A7FE06A8FFF773FB039BA7
:108F3000059304A906A8FFF766FB059B069A2B601C
:108F40006A60002306A806930593FFF763FB04A855
:108F5000FFF760FBA2E700BF21900D00022AF8B5E1
:108F6000054607D0032A18D0012A01D10B680360F7
:108F70000020F8BD18200E68FBF78DF8044650B1AC
:108F80003146FFF7CBFE3069B6F9147008B104F032
:108F900091F92061A7822C60EAE70468002CE7D0F1
:108FA00004F11000FFF73DFE2046FFF762FD182197
:108FB000204600F0CDFCDBE738B5002383608B68EA
:108FC00004460D462BB102229847EB68E360AB687C
:108FD000A360204638BD022A70B5044607D0032A94
:108FE00012D0012A01D10B680360002070BD14204B
:108FF0000E68FBF750F8054620B13146FFF7DCFF5D
:10900000337C2B742560F0E70468002CEDD02046FB
:10901000FFF72FFD1421204600F09AFCE5E7000041
:10902000F0B589B004460D4601A81146FFF723FEAE
:10903000A4B124B21DB1284604F03CF9054601A8AC
:1090400003A90395ADF81040FFF778FE03A8FFF7DA
:10905000E8FD02A8FFF7DEFA09B0F0BD019D01238B
:10906000D5E84F2F002A03D1C5E8413F0029F7D1A9
:10907000EFD12B73BFF35B8F6B702B1DBFF35B8F37
:1090800053E8006F43E80042002AF9D1BFF35B8F39
:10909000002EDED02046FEF795FF074660B105F1B1
:1090A0000C013046FFF716FE3046FFF7E2FC1021B8
:1090B000304600F04DFCCCE7314603A8FFF77CFFBB
:1090C0002B7B8DF81C301020FAF7E5FF0546D0B158
:1090D00087601420FAF7DFFF044678B18760014605
:1090E00003A8FFF7CFFC059BA268A360069B05922F
:1090F000E268E3609DF81C3006922374064BEB6037
:10910000064B2C60AB6003A8FFF7B3FC0022294696
:109110000348FEF75FFFC7E7E78C0D00D78F0D0010
:1091200001950D00704710B51821044600F010FCA1
:10913000204610BDF0B5037D062B8DB00E4600F124
:1091400004074FF0000412D000F1080515F8011DC6
:109150000A223046FFF7BDFAAF42044419D0002C72
:10916000F4D02E213046FFF795FA0444EEE72F2382
:109170006A4639460A208DF80040FEF7CBFD684666
:1091800004F0B5F833680246DB6869463046984714
:10919000044620460DB0F0BD10B5054B0446112223
:1091A00040F8043B002104F059F8204610BD00BFF0
:1091B00040E40D000346074A10B543F8042B01F1C3
:1091C000100251F8044B43F8044B9142F9D10A784C
:1091D0001A7010BD40E40D0010B59DF8084044EA37
:1091E000032343EA024242EA01610423416003751A
:1091F00010BD13B5CB7800938B784A780978FFF7C8
:10920000EBFF02B010BD417470477047704708B55E
:109210000021007CFEF796FE40EAE07008BD08B52C
:109220000121007CFEF78EFE40EAE07008BD08B523
:10923000007CFEF77FFE20EAE07008BD08B5007CE8
:10924000FEF770FE20EAE07008BD13B50446007C0E
:109250000191FEF76FFE0028019901DC607C20B1CE
:10926000207CFEF777FE20EAE07002B010BD007CA3
:10927000FEF778BE10B51421044600F069FB2046C5
:1092800010BD000010B54FF47A7304460846002163
:10929000C4E90113044B2360012320746374114655
:1092A000FEF730FE204610BD54E40D00007C002285
:1092B000FEF730BE007CFEF75DBEFFF7FBBF10B5CA
:1092C00014220446002103F0C9FF204610BD00000F
:1092D00010B50F4C88B003A8FFF7F1FF2178BFF35A
:1092E0005B8F11F001010FD120460191FAF7E4FEE6
:1092F000019948B103AA0748FFF7C4FF2046FAF7CF
:10930000E0FE054803F096FF024808B010BD00BF1C
:10931000C0E50320C4E503200B920D0000470000C8
:109320002DE9FF4100241D460F4690460646FEF7F4
:1093300091FCA5424FF00403ADF80D408DF80C30C0
:109340008DF80F40A2BF9DF828308DF80E3003AC89
:109350000749009443463A463046A8BF8DF80D5061
:10936000FEF770FCB0FA80F0400904B0BDE8F0816F
:109370001D930D00002240681146FEF767BE0022D3
:1093800040681146FEF782BE002240681146FEF793
:109390008DBE40680022FEF781BE4068002281F049
:1093A0000101FEF76BBE002340681A461946FEF71E
:1093B0005DBE002340681A461946FEF74FBE0022E4
:1093C00040681146FEF732BE406800220221FEF7D7
:1093D00035BE002340681A46FEF720BE084B10B584
:1093E000282422461846002103F038FF054B04804C
:1093F0004FF0FF32426004225A60034A1A6010BDE7
:10940000E0E50320D8E5032084E40D0070474174B3
:109410007047704708B5007CFEF7BCFC20EAE0709E
:1094200008BD08B5007CFEF78DFC20EAE07008BDA1
:1094300008B5007CFEF796FC40EAE07008BD08B570
:10944000007CFEF787FC40EAE07008BD007CFEF778
:1094500091BC37B5457C04462DB1207C03B0BDE8F6
:109460003040FEF767BC007C0191FEF793FC0028BA
:109470000199F2DC284603B030BD10B51421044632
:1094800000F066FA204610BD10B54FF0000C0446FF
:10949000084611464FF47A72C4E901C2044A2260B8
:1094A0000122207462741A46FEF73CFC204610BD6F
:1094B000C0E40D0013B50D4C2178BFF35B8F11F0A4
:1094C000010110D120460191FAF7F6FD019950B142
:1094D000074B084A0848FFF7D7FF2046FAF7F1FD87
:1094E000064803F0A7FE044802B010BD08E60320BA
:1094F00090E603200CE6032014E7032013940D00EC
:1095000010B5836804460BB900F026FAC368984783
:10951000A3681BB10322214620469847204610210C
:10952000BDE8104000F014BA7047F8B5064615467D
:109530000C468F18BC4206D0336814F8011B9B6898
:1095400030469847F6E72846F8BD007C0022FEF733
:1095500049BC007C0021FEF74DBC007C0021FEF7D9
:1095600051BC007C0021FEF755BC007C0021FEF7B9
:1095700059BC10B51421044600F0EAF9204610BD8C
:1095800010B54FF47A73044608460021C4E901136C
:10959000034B236020741146FEF754FC204610BD97
:1095A000F0E40D00007C0022FEF7FCBB0023007CF1
:1095B0001A461946FEF7FEBB7FB500221423CDE9FB
:1095C0000122ADF804300B788DF808304B68039316
:1095D000CB680493007C0B7A059301A9FEF73AFC53
:1095E00007B05DF804FB1FB5003B8DF800104FF08D
:1095F0006401039118BF0123694601928DF8083078
:10960000FFF7DAFF05B05DF804FB0123FFF7EBBFBE
:10961000007C0022FEF7D6BB007C0022FEF7DABBFE
:109620000121FFF7F9BF002340681A46FEF7F6BC98
:10963000406800220221FEF701BD00224068114669
:10964000FEF7F4BC002240681146FEF7FFBC002381
:1096500040681A461946FEF701BD002340681A46C5
:109660001946FEF703BD40680021FEF727BD40689C
:109670000021FEF72BBD4068002281F00101FEF7BA
:10968000FDBC40680022FEF709BD0022406811467B
:10969000FEF70CBD002240681146FEF7F7BC2DE92D
:1096A000F043002495B016460D460746FFF774FDBB
:1096B000214618220EA8009403F0D0FD4023CDE9E6
:1096C0000C3421466B460CAA3046FEF78BFA044652
:1096D000002846D1024601216868FEF7B7FC022146
:1096E000804622466868FEF7B1FC009E814621460E
:1096F000002E36D0002934D17368022B03D00A2BF8
:109700000BD0F669F4E7B8F1000F04D07169384660
:109710000431FFF76EFD4146F3E7B9F1000F01D1C7
:109720004946EEE77469102201A803F097FD06236D
:109730008DF8143001AD04F1080318341868596825
:109740002A4603C20833A3421546F7D101A906A849
:1097500007ADFFF72FFD0FCD3C1D0FC42B68237005
:10976000DEE70098FEF736FA384615B0BDE8F0831C
:10977000024B034A1A6000225A60704728E7032010
:1097800018E50D00232813B502D9002002B010BD42
:10979000A0F10B03022B1AD8174C2178BFF35B8F73
:1097A00011F001010BD120460191FAF785FC0199D6
:1097B00028B11248FEF73EFD2046FAF782FC0F4B17
:1097C0001878FEF767FB0028DFD10120DEE70128CB
:1097D00009D800F099F80021007CFEF72BFB80F0FF
:1097E0000100C0B2D2E709380128EED8FFF762FEC7
:1097F000007CFEF7C7FAF2E778E503207CE503205A
:10980000232838B504460D460AD8FF2908D0FFF7AB
:10981000B9FF28B129462046BDE83840FEF7F2B925
:1098200038BD38B504460D46FEF7F4F9FF2810D0D0
:10983000062804D84D2323FA00F0C30709D4204694
:10984000FFF7A0FF28B129462046BDE83840FEF7C3
:10985000E9B938BD10B50446FEF7DCF9031FDBB2E9
:10986000012B08D92046FFF78DFF20B12046BDE827
:109870001040FEF7DFB9002010BD0D2810B50446DA
:109880009CBF0E34A4B22046FFF77CFF50B10321E9
:109890002046FEF7AFF9032804D12046BDE810406A
:1098A000FEF7E0B9002010BD10B5084C2378BFF3D7
:1098B0005B8FDB0708D42046FAF7FEFB20B1FEF7EA
:1098C000F1F92046FAF7FDFB014810BD34E703200B
:1098D00038E703207047000038B500232025438077
:1098E000142304460380856005610649284600F07C
:1098F00031F804496060284600F02CF8E06020460A
:1099000038BD00BF4CE50D0030B50E4D2978BFF3D2
:109910005B8F11F0010487B011D12846FAF7CCFB18
:1099200068B101A8FFF7D8FF01AA21460648FFF752
:1099300027FE2846FAF7C5FB044803F07BFC0248E3
:1099400007B030BD3CE7032040E70320D5980D0069
:10995000FAF7A5BBFAF7A1BB08B5FEF707FC0000B4
:1099600000B510EE103A204A23F00043934283B032
:1099700019DDB3F1FF4F04DB30EE400A03B05DF8B0
:1099800004FB684601F07EFA00F00300012811D0C4
:1099900002281FD0B8B1DDED010A9DED000A0120BB
:1099A00001F072FFEAE7DFED110A01F0B5FB03B049
:1099B0005DF804FBDDED010A9DED000A01F064FF96
:1099C000B1EE400ADAE7DDED010A9DED000A01F093
:1099D000A3FBD3E7DDED010A9DED000A01F09CFB3E
:1099E000B1EE400ACAE700BFD80F493F00000000AF
:1099F00000B510EE103A214A23F00043934283B0A1
:109A00001ADDB3F1FF4F04DB30EE400A03B05DF81E
:109A100004FB684601F036FA00F00300012813D079
:109A2000022820D0B8B1DDED010A9DED000A01F059
:109A300073FBB1EE400AE9E7DFED110A002001F007
:109A400023FF03B05DF804FBDDED010A9DED000A84
:109A500001F062FBDAE7DDED010A9DED000A01206D
:109A600001F012FFD2E7DDED010A9DED000A0120B1
:109A700001F00AFFB1EE400AC8E700BFD80F493F26
:109A80000000000000F0B8B92DE9F04F2DED028B79
:109A90008DB057EC106B55EC114B00F0ADFAAE4B9E
:109AA000B0EE408AF0EE608A93F90090B9F1FF3F82
:109AB00037D022462B462046294603F015F8834628
:109AC00078BB32463B463046394603F00DF88046B7
:109AD000002840F093804FF0000A4FF0000B304612
