:02000002D0002C
:1040000000400D002CEC0D00000006000D00050125
:0840100004019A080000000001
:0440180080D50D0042
:1040200009480A49884208B505D0094A824202D0A7
:10403000121A09F0CDF90748074A0021121A09F0AF
:10404000D5F9014808BD00BFCCE303208CEB0D007F
:1040500044E4032048E40320F1E7032070B5074E51
:10406000074C04F059FEA41BA4080025A54200D16A
:1040700070BD56F8043B98470135F7E758EB0D0043
:104080007CEB0D0001F092BA08B500F0D1FFBDE85D
:10409000084004F0F9BD04F011B904F00FB904F0C0
:1040A00015B9000008B5034A00210C2004F032F8CD
:1040B000FEE700BF157E0D000078B0FA80F04009E1
:1040C000704701230370704710B5074C03F0AAFE38
:1040D0002368C01A0F2806D9044A136801331360F5
:1040E00003F0A0FE206010BD4CE4032058E4032040
:1040F0002DE9F341002A1D4675F10003089F804613
:10410000144611DA0A2F0FD12D2104F08BFB6242E5
:10411000064665EB4503FFB20097404604F0BFFB3F
:10412000304402B0BDE8F08122462B460026F2E77B
:10413000F8B50C1E074616460CDA0A2A0AD12D21BC
:1041400004F070FB61420546F2B2384604F089FB88
:104150002844F8BD21460025F6E7F8B50C1E0746B1
:1041600016460CDA0A2A0AD12D2104F05BFB6142C3
:104170000546F2B2384604F074FB2844F8BD2146E7
:104180000025F6E738B505F06BF93649364C04F0F2
:1041900045FB05F065F90546204601F077FDDFEDAA
:1041A000337A60EE277A17EE900A08F073FA304BF4
:1041B000002208F011F941EC100B0221284604F00E
:1041C00076FC05F04DF92B4904F03FFB05F048F96A
:1041D000294904F023FB05F043F90546204601F088
:1041E00083FDDFED267A80EE277A022128469FEDB7
:1041F000240A27EE000A04F04BFC05F031F92149AE
:1042000004F023FB05F02CF91F4904F007FB05F02F
:1042100027F99FED1E0A0546204601F041FE0221C6
:10422000284604F035FC05F01BF9194904F00DFB94
:1042300005F016F9174904F0F1FA05F011F90546F1
:10424000204601F0CDFE0221284604F021FC05F0B5
:1042500007F9114904F0F9FA05F002F9BDE8384010
:1042600004F0E7BA94D50D0070E403206666E63FDB
:1042700000004040A5D50D00A8D50D0080E6C5473B
:1042800000003E44B4D50D00BAD50D0000507D4469
:10429000CED50D00D1D50D00DDD50D0030B53B4D8F
:1042A0003B488BB0694602F099FA05F0D9F82946E7
:1042B00004F0CBFA05F0D4F8364904F0AFFA05F073
:1042C000CFF8694604F0C1FA05F0CAF8324904F0A3
:1042D000A5FA05F0C5F80A2203990446FFF728FF5E
:1042E000204604F0A6FA05F0BBF82C4904F096FA33
:1042F00005F0B6F80A2204990446FFF719FF204694
:1043000004F097FA264C05F0ABF8264904F086FA3B
:1043100005F0A6F89DED060A022104F0B9FB05F0B0
:104320009FF8214604F091FA05F09AF81E4904F02E
:1043300075FA05F095F89DED070A022104F0A8FB37
:1043400005F08EF8214604F080FA05F089F8174947
:1043500004F064FA05F084F89DED080A022104F0E7
:1043600097FB05F07DF8214604F06FFA05F078F828
:10437000294604F06AFA05F073F80D4904F065FA6D
:104380004FF4FA7004F03AFC0BB030BDE0D50D00EC
:10439000B4E4032005D60D0014D60D0023D60D007D
:1043A00041D60D0032D60D0046D60D0055D60D0073
:1043B000B8D70D0038B5044605F052F84C494D4DBC
:1043C00004F043FA05F04CF84B4904F027FA05F0E5
:1043D00047F80A22B4F90010FFF7BFFE05F040F8D5
:1043E000294604F01BFA05F03BF80A22B4F9021042
:1043F000FFF7B3FE05F034F8294604F00FFA05F094
:104400002FF80A22B4F90410FFF7A7FE05F028F8E8
:10441000294604F003FA05F023F8384904F0FEF9C0
:1044200005F01EF80A22B4F90C10FFF796FE05F00D
:1044300017F8294604F0F2F905F012F80A22B4F947
:104440000E10FFF78AFE05F00BF8294604F0E6F996
:1044500005F006F80A22B4F91010FFF77EFE04F00A
:10446000FFFF294604F0DAF904F0FAFF244904F0CA
:10447000D5F904F0F5FF0A22B4F90610FFF76DFE36
:1044800004F0EEFF294604F0C9F904F0E9FF0A221E
:10449000B4F90810FFF761FE04F0E2FF294604F0CA
:1044A000BDF904F0DDFF0A22B4F90A10FFF755FE4A
:1044B00004F0D6FF294604F0B1F904F0D1FF114908
:1044C00004F0ACF904F0CCFF0A22B4F91210FFF7A3
:1044D00044FE04F0C5FF0C4904F0A0F904F0C0FF4D
:1044E000B4F914100A22BDE83840FFF736BE00BF09
:1044F00064D60D0012D60D007BD60D008BD60D00B4
:1045000093D60D009AD60D00AAD60D00152808B531
:1045100006DC04F0A5FF1849BDE8084004F095B991
:10452000422803DC04F09CFF1449F5E76F2803DC04
:1045300004F096FF1249EFE79C2803DC04F090FF9B
:104540001049E9E7D32803DC04F08AFF0E49E3E7CA
:10455000F62803DC04F084FF0C49DDE7B0F5927F18
:1045600003DA04F07DFF0A49D6E7B0F5A87FD0DC76
:1045700004F076FF0749CFE7B8D60D00BAD60D0094
:10458000BBD60D00BDD60D00C0D60D00C2D60D00A5
:10459000C6D60D00C5D60D002DE9F8432D4DDFF828
:1045A000C480DFF8C4900124A7B22A48394603F03A
:1045B000C5FB372847D1C8223946284603F09CFB63
:1045C00070B904F04DFF494604F028F904F048FFA3
:1045D00010220646214604F044F9304604F029F939
:1045E0000021284603F0AAFB372206463946284612
:1045F00003F082FB70B904F033FF414604F00EF97A
:1046000004F02EFF10220746214604F02AF938460E
:1046100004F00FF9C82E16D104F022FF0E4904F061
:1046200014F904F01DFF0D4904F0F8F804F018FF28
:1046300021460A2204F015F904F012FFBDE8F84300
:10464000074904F002B901344FF6FF739C42ABD125
:10465000E7E700BF30E5032001D70D0013D70D00B9
:104660002AD70D00E3D60D00C8D60D0012B9036895
:104670009B681847D2B204F0F4B800001FB50023BD
:104680008DF80F308DF80E308DF80D308DF80C3020
:104690000DF10F030DF10D0203A9234800930DF155
:1046A0000E0302F01AFA04F0DBFE204904F0B6F81B
:1046B0009DF80C3023B904F0D3FE1D4904F0AEF888
:1046C00004F0CEFE1B4904F0A9F804F0C9FE0A224A
:1046D0009DF80C10FFF7CAFF04F0C2FE164904F063
:1046E0009DF804F0BDFE0A229DF80D10FFF7BEFFF5
:1046F00004F0B6FE114904F091F804F0B1FE0A226C
:104700009DF80E10FFF7B2FF04F0AAFE0C4904F06A
:1047100085F804F0A5FE9DF80F100A22FFF7A6FF0A
:1047200005B05DF804FB00BFB4E40320B7D70D006B
:1047300031D70D0034D70D0039D70D003DD70D000E
:1047400041D70D00000000002DE9F04F2DED088B42
:1047500097B0D74CD74FDFF89CB3DFF89CA39FED01
:10476000D69A00238DF80F300DF10F0300930DF151
:104770000D020DF10E0303A9204602F0AEF9214609
:1047800004A8082202F004FB21460AA8142202F021
:10479000FFFA214610A80E2202F0FAFADDE908011C
:1047A000B9A3D3E9002308F0F7F8B7A3D3E90023AE
:1047B00041EC180BDDE9040108F0EEF8B0EE481A00
:1047C000F0EE681A41EC100B05F024FA53EC102BB4
:1047D00010EE100A03F100410022B84B07F0B2FFBF
:1047E000ABA3D3E9002308F0D7F8B54B002207F0BC
:1047F000A9FF08F09FFAA4A3D3E900233860DDE9FC
:10480000080108F0C9F8A0A3D3E9002341EC180B74
:10481000DDE9060108F0C0F8B0EE481AF0EE681ABB
:1048200041EC100B05F0F6F953EC102B10EE100ACA
:1048300003F100410022A14B07F084FF94A3D3E9C8
:10484000002308F0A9F800229D4B07F07BFF08F039
:1048500071FA9C4B9C4918600646086807F01AFFDD
:104860008DA3D3E9002307F06DFF044630460D46C3
:1048700007F010FF8AA3D3E9002307F063FF024685
:104880000B462046294607F0A7FD08F053FACBF85F
:1048900000008E48006807F0FDFE7FA3D3E90023E7
:1048A00007F050FF044638680D4607F0F3FE7CA37E
:1048B000D3E9002307F046FF02460B46204629466F
:1048C00007F08AFD08F036FA814DCAF8000003F0BF
:1048D000A9FA2B687F4CC01A07F0BAFE7E4B002263
:1048E00008F05AF808F026FA206003F09BFA2860D6
:1048F000206807F0CFFEDDE90C2304460D4607F0E3
:1049000021FF0F4675490646086807F0C3FE324688
:104910003B4607F061FD60A3D3E9002307F012FFD7
:10492000644B80461868894607F0B4FE5CA3D3E95F
:10493000002307F007FF02460B464046494607F0B2
:104940004BFD08F0F7F96549DDE90A2308EE900A06
:1049500008602046294607F0F5FE044660480D46EB
:10496000006807F097FE22462B4607F033FD4AA366
:10497000D3E9002307F0E6FE524A804610688946D4
:1049800007F088FE46A3D3E9002307F0DBFE0246CA
:104990000B464046494607F01FFD08F0CBF9514948
:1049A00008EE100A4E4880ED008A086807F072FE93
:1049B00032463B4607F010FD08F0BCF94A4F494E1D
:1049C0003060386807F066FE22462B4607F002FD8D
:1049D00008F0B0F9C8EE097A386017EE900A07F0CF
:1049E00059FE31A3D3E9002307F0ACFE08F0A2F989
:1049F000C8EE897A3D4B186008EE100A17EE900A4F
:104A000007F048FE28A3D3E9002307F09BFE08F037
:104A100091F9374B00EE100A186008EE900A05F085
:104A200067F89DED127B10EE108AB0EE479AF0EE1B
:104A3000679AB0EE480A05F0A3F810EE100A07F0E6
:104A400029FEB0EE680A41EC1A0B05F099F810EE59
:104A5000100A07F01FFE9DED147BB0EE480AB0EE81
:104A600047BAF0EE67BA06460F4605F041F810EE79
:104A7000100A07F00FFE044640460D4607F00AFEF6
:104A80003CE000BFAFF300809A999999999923402F
:104A900050455254FB210940666666666666EE3FE5
:104AA0009A9999999999A93F1F85EB51B81E194078
:104AB000B4E4032068E503200000B4430000E03FB5
:104AC000008076404CE5032044E5032060E50320A8
:104AD00038E503202CE5032000408F4058E50320F3
:104AE0003CE5032064E5032048E5032050E503206E
:104AF0006CE5032040E503205CE50320DDE910239D
:104B000007F020FE53EC1A2B8046894651EC190B16
:104B100007F018FE32463B4607F014FE02460B46ED
:104B20004046494607F056FC2246804689462B46B9
:104B300051EC1B0B07F006FE32463B4607F002FE27
:104B400002460B464046494607F046FC08F0F2F89C
:104B5000934B944F186008EE100A22462B4651ECF6
:104B6000190B07F0EFFD53EC1B2B04460D4651ECDF
:104B70001A0B07F0E7FD02460B462046294607F0D0
:104B80002BFC08F0D7F8884B884D1860F0EE480AE7
:104B900000EE100A05F0F6F910EE100A07F07AFDA3
:104BA0007BA3D3E9002307F0F7FE814B002207F037
:104BB000C9FD08F0BFF8286004F052FC76A3D3E9E1
:104BC00000230446DDE9040107F0E6FE41EC100B8A
:104BD0002046784C022103F06AFF04F041FC214694
:104BE00003F01CFE04F03CFC6BA3D3E90023064653
:104BF000DDE9060107F0D0FE41EC100B0221304642
:104C000003F055FF04F02CFC214603F007FE04F0EE
:104C100027FC61A3D3E900230646DDE9080107F07C
:104C2000BBFE41EC100B0221304603F040FF04F0C4
:104C300017FC214603F0F2FD04F012FC0A229DF855
:104C40000E105D4EFFF712FD04F00AFC214603F042
:104C5000E5FD04F005FC0A229DF80D10FFF706FDA6
:104C600004F0FEFB214603F0D9FD04F0F9FB0A2213
:104C70009DF80F10FFF7FAFC04F0F2FB214603F059
:104C8000CDFD04F0EDFB0A229DF80C10FFF7EEFCC1
:104C900004F0E6FB214603F0C1FD04F0E1FB474BC5
:104CA000022193ED000A03F0F3FE04F0D9FB214644
:104CB00003F0B4FD04F0D4FB414A022192ED000A56
:104CC00003F0E6FE04F0CCFB214603F0A7FD04F060
:104CD000C7FB9AED000A022103F0DAFE04F0C0FBE4
:104CE000214603F09BFD04F0BBFB9BED000A022173
:104CF00003F0CEFE04F0B4FB214603F08FFD04F078
:104D0000AFFB96ED000A022103F0C2FE04F0A8FBFF
:104D1000214603F083FD04F0A3FB97ED000A022176
:104D200003F0B6FE04F09CFB214603F077FD04F08F
:104D300097FB244B022193ED000A03F0A9FE04F037
:104D40008FFB214603F06AFD04F08AFB1E4B022113
:104D500093ED000A03F09CFE04F082FB214603F071
:104D60005DFD04F07DFB95ED000A022103F0ADFE30
:104D70001649DBF80030164895ED000A0B60DAF8AA
:104D80000030036017B0BDEC088BBDE8F08F00BFAA
:104D90001F85EB51B81E19409A999999999923400A
:104DA00064E4032048E5032068E4032054E503207D
:104DB0000080764045D70D0064E5032068E50320B8
:104DC0004CE5032058E503203CE5032044E503209F
:104DD00060E5032038B50546FFF748FC0446284641
:104DE00003F027FD204438BD13B50023214C8DF876
:104DF00007300DF106020DF105018DF806308DF832
:104E000005301D480DF1070301F047FE04F028FBB3
:104E1000214603F01AFD04F023FB184903F0FEFCC1
:104E200004F01EFB10229DF80510FFF7D3FF04F0DD
:104E300017FB134903F0F2FC04F012FB10229DF85B
:104E40000610FFF7C7FF04F00BFB0E4903F0E6FC6A
:104E500004F006FB10229DF80710FFF7BBFF04F0DB
:104E6000FFFA214603F0F1FC4FF4FA7003F0C6FE9E
:104E700002B010BDB8D70D00B4E4032047D70D0031
:104E800059D70D006BD70D001FB5114B11480022EB
:104E90001A7002F017FF104800F024FE04F0FCFD29
:104EA0000E4A0F49CDE901214FF0FF32034600922F
:104EB000402180220B4802F07FFE04F0EDFD034606
:104EC00009482822372105B05DF804EB01F0AEBC9B
:104ED0006CE4032030E5032070E40320801A060010
:104EE000A0860100D4E40320B4E4032038B53D4C8F
:104EF0003D4D204602F00AF9204602F07AFD0023DB
:104F00003A492361204603F089FC284600F0BEFEA2
:104F1000DFED377A60EE277A17EE900A07F0BAFBDA
:104F2000344B002207F058FA41EC100B02212046C6
:104F300003F0BDFD3049204603F087FC2F49204691
:104F400003F06CFC284600F0CFFEDFED2D7A80EEFA
:104F5000277A022120469FED2B0A27EE000A03F054
:104F600097FD2949204603F070FC2849204603F0AC
:104F700055FC28469FED260A00F092FF02212046AC
:104F800003F086FD2349204603F05FFC22492046BA
:104F900003F044FC284601F023F80221204603F0E8
:104FA00077FD1E49204603F050FC04F059FA03F047
:104FB00040FC1B49204603F048FC04F051FA03F082
:104FC00038FC1849204603F029FC174B204693ED86
:104FD000000A022103F05CFD2046BDE8384002F0E3
:104FE00008BD00BFD4E4032070E403207DD70D008A
:104FF0006666E63F0000404086D70D008BD70D0067
:1050000080E6C54700003E44B4D50D00C2D50D0072
:1050100000507D44CED50D00D1D50D00DDD50D005D
:1050200095D70D00A6D70D00CCE4032000000000AA
:105030002DE9F0412DED028BCF4BD04D1878D04C9F
:10504000D04E9EB0012104F0B4FCCF4B187804F090
:10505000DCFC4FF4B473286000930023194640F63B
:10506000FF7203F0BFFDC94BB0F5B47F1860C8BF35
:10507000A0F5B47020602368002BBCBF03F5B473A7
:10508000236002F0CFFE3368C01AC14B1B889842E0
:1050900063D9C04F23683A689B1A002BB8BF5B42A4
:1050A000052B2CDD04F0DCF92D68002D804680F204
:1050B00055822D2103F0B6FB69420A22404603F0D7
:1050C000D0FB04F0CDF9B44903F0A8FB04F0C8F913
:1050D0002568002D804680F243822D2103F0A2FB3B
:1050E00069420A22404603F0BCFB04F0B9F9AA4920
:1050F00003F094FB2068FFF709FA23683B60A74C94
:10510000A74D206807F0A4FA99A3D3E9002307F07C
:1051100019FB07F00FFE286004F0A2F90A222168AB
:1051200003F09FFB04F09CF99B4903F077FB04F02C
:1051300097F995ED000A022103F0AAFC04F090F91A
:10514000954903F06BFB04F08BF9964903F07DFB66
:1051500002F068FE00233060236015A9924801F038
:1051600087FEFFF70FF8FFF7C1FE904B186803F0BA
:1051700045FD042004F036FC18B98D498D4803F034
:105180004DFB032004F02EFC18B98B49894803F02D
:1051900045FB022004F026FC18B98849854803F035
:1051A0003DFB0A2003F02AFD02F06CFE81489FEDD2
:1051B000848A02F01EFC04F053F9824903F035FBA7
:1051C00004F04EF99DED1A0A022138EE400A03F070
:1051D0005FFC04F045F97C4903F027FB04F040F93B
:1051E0009DED1B0A022103F053FC04F039F97649C6
:1051F00003F01BFB04F034F99DED1C0A022103F0BF
:1052000047FC04F02DF9714903F029FB664801F0D1
:1052100063FD8DED0C0B8DED0E1B8DED102B8DEDCB
:10522000123B04F01DF96A4903F0FFFA04F018F983
:105230000446DDE90C0107F07DFD022100EE100AB5
:10524000204603F025FC04F00BF95F4903F0EDFA6A
:1052500004F006F90446DDE90E0107F06BFD0221BA
:1052600000EE100A204603F013FC04F0F9F856494A
:1052700003F0DBFA04F0F4F80446DDE9100107F06E
:1052800059FD022100EE100A204603F001FC04F053
:10529000E7F84D4903F0C9FA04F0E2F80446DDE905
:1052A000120107F047FD022100EE100A204603F02C
:1052B000EFFB04F0D5F84549464C03F0D0FA002343
:1052C0008DF80F300DF10F030DF10D0203A93648D3
:1052D00000930DF10E0301F000FC04F0C1F83E490B
:1052E00003F0A3FA04F0BCF80A229DF80C10FFF7B3
:1052F000BDF904F0B5F8344903F097FA04F0B0F8BA
:105300000A229DF80D10FFF7B1F904F0A9F82E4913
:1053100003F08BFA04F0A4F80A229DF80E10FFF7B0
:10532000A5F904F09DF8284903F07FFA04F098F8F5
:105330000A229DF80F10FFF799F904F091F823491C
:1053400003F08DFA04F08CF8244903F07EFA15A9D5
:10535000154801F08DFD04F083F8214903F05EFA51
:1053600004F07EF89DED1A0A3CE000BFAFF3008028
:10537000CDCCCCCCCCCCDC3FCDE303205CE4032013
:1053800048E4032078E50320CCE3032050E4032025
:10539000D0E3032054E40320B6D70D0058E40320E3
:1053A00060E40320B9D70D00B4E40320D0E4032067
:1053B000BED70D00D4E4032051DC0D00C0D70D0092
:1053C0000000B443C2D70D00D0D70D00B8D70D00F0
:1053D000D3D70D00CCE40320E0D70D00EED70D00AD
:1053E000F1D70D00042103F053FB04F039F85D49B7
:1053F00003F014FA04F034F89DED1B0A042103F0C5
:1054000047FB04F02DF8584903F008FA04F028F897
:105410009DED1C0A042103F03BFB04F021F85349E5
:1054200003F013FA04F01CF8514903F00EFA9FED53
:10543000517ADDED1A7A77EE877AF4EEC87AF1EEDA
:1054400010FAC8BF77EEC87AC4ED007A04F008F805
:10545000494903F0E3F904F003F8042194ED000A4C
:10546000464C03F015FBFFF76FF984ED000A03F0DB
:10547000F7FF434903F0D2F903F0F2FF94ED000A7D
:10548000022103F005FB03F0EBFF3E4903F0C6F9F0
:1054900003F0E6FF044603F08BFB0A220146204698
:1054A000FEF746FE03F0DCFF374903F0B7F903F0DF
:1054B000D7FF0A230093354BD3E90023FEF718FEEC
:1054C00003F0CEFF324903F0A9F903F0C9FF3049D8
:1054D00003F0A4F92F4800F0D9FBDFED2F7A60EE3E
:1054E000277A17EE900A07F0D5F82C4B002206F029
:1054F00073FF41EC100B062106A803F028F9284B96
:10550000069A1B788DF8003026493C2304A803F046
:105510005BFD059C7CB16368013B63605BB92368FC
:1055200020469B689847A368013BA3601BB923688A
:105530002046DB68984706A803F0ACF806A91A488D
:1055400001F01CFB06A8FEF735FF42F2107003F0D5
:1055500055FB1EB0BDEC028BBDE8F0812946ACE5E1
:105560002946BEE5F5D70D00FAD70D00B8D70D00D6
:10557000EED70D0000808E43FFD70D00C8E4032056
:1055800012D80D0023D80D0031D80D0070E503208E
:10559000EFD70D0070E403206666E63F0000404050
:1055A0006CE4032043D80D00B4E4032070B5A2B02E
:1055B00003F0FEFABA4CC117C4E9000103F050FF32
:1055C000B84903F02BF903F04BFF0A230093D4E909
:1055D0000023FEF78DFD03F043FFB34903F01EF9EE
:1055E000B24B01251D60B24B0021187804F0D0F9B0
:1055F000B04B29461878B04D04F0CAF903F030FFDB
:10560000AE4903F022F92878002104F0C1F9002303
:10561000009302224FF0FF33A949287803F048FF96
:1056200003F01EFFA74903F010F903F019FFA64984
:1056300003F00BF903F014FF4FF4E13103F0FEFE29
:10564000254603F00DFF03F000FF0028F9D09F4C22
:1056500003F006FF9E4903F002F903F001FF9D49A4
:1056600003F0F3F801223C21204602F0B9FA03F0DE
:10567000F7FE994903F0E9F8204602F0BAF94FF431
:105680007A7003F0BBFA204601F040FD204602F09C
:10569000B0F90121204601F03FFF03F0E1FE8F4900
:1056A00003F0D3F80221042004F072F90221032050
:1056B00004F06EF90221084604F06AF9012120463F
:1056C00002F091F900264FF00113C4E90463844904
:1056D000204603F0A3F88349204603F09FF82046B4
:1056E00002F087F9804800F080FE78BB03F0B8FE36
:1056F0007E4903F0AAF803F0B3FE7D4903F08EF86B
:1057000003F0AEFE0446784800F0F0F9102201469E
:10571000204603F0A6F8204603F08BF803F0A0FE25
:10572000744903F07BF803F09BFE734903F076F8AD
:1057300003F096FE714903F071F803F091FE704991
:1057400003F06CF80A2003F059FAFBE704F0A4F91F
:10575000502102466B4802F0B9FAB8B103F080FE5E
:10576000694903F072F803F07BFE684903F06DF8B5
:10577000FEF712FF66480C2101F03EF9044670B9AD
:1057800003F06EFE634903F049F8FEE703F068FE9C
:10579000614903F05AF80A2003F030FAFBE703F0FE
:1057A0005FFE404903F03AF803F05AFE0A230093E3
:1057B000D5E90023FEF79CFC03F052FE3A4903F0C2
:1057C0002DF84FF47A7003F019FA0121504801F0D6
:1057D00061F8FEF763FD04F02FF9042202A93046B8
:1057E00002F030FB4A4818A900F0F8FF1C9A029B0F
:1057F0009A4236D003F034FE484903F026F84FF4BD
:10580000FA7003F0FBF934464FF47A7003F0F6F9BE
:10581000FEF744FDFFF7E8FA01213D4801F03AF8B0
:1058200002F000FB3E4B0FA91860394801F020FB45
:10583000002C7FD003F014FE3A49354C03F005F8F4
:10584000204601F062F9002840F0B4800FA92046FC
:1058500001F00EFBFEF712FF42F2107003F0CEF9DA
:10586000EEE703F0FDFD304902F0EFFF04F0E4F84D
:10587000162203A9042002F0E5FA03A8FEF79AFD18
:1058800003F0EEFD294902F0E0FF03A9204801F0F2
:1058900024F803F0E5FD264902F0D7FFB4E700BF86
:1058A00070E5032031D80D00EFD70D0054E403203C
:1058B000CCE30320CDE30320CEE3032056D80D0034
:1058C000C9400D0073D80D0089D80D00D4E4032021
:1058D00097D80D00A3D80D00C0D80D00CBD80D006F
:1058E000D7D80D00F7D80D0070E4032003D90D00C0
:1058F0004BD90D005CD90D00A3D90D00CDD90D00F9
:10590000F7D90D0030E5032021DA0D0032DA0D0061
:10591000B4E4032078DA0D0040DA0D00B5DA0D00AA
:1059200038E503206DDB0D00EBDA0D0019DB0D000F
:1059300047DB0D0003F094FD3E493F4C3F4E404D88
:1059400002F083FF204601F0E0F898BB0FA9204643
:1059500001F08EFA03F084FD314602F05FFF03F0A0
:105960007FFD9DED140A042103F092F803F078FD09
:10597000294602F053FF03F073FD9DED150A042143
:1059800003F086F803F06CFD2E4902F047FF03F0A8
:1059900067FD9DED160A042103F07AF8FEF76EFE0E
:1059A00003F05EFD284902F050FF42F2107003F050
:1059B00025F9C7E703F054FD244902F046FF03F040
:1059C0004FFD234902F041FF03F04AFD214902F057
:1059D0003CFF09A9184801F0D1F809A8FEF7EAFC34
:1059E00003F03EFD1C4902F030FF18A9124800F0F8
:1059F000F5FE1C9B029304F01FF802A9042200206C
:105A000002F028FA04F018F8162209A9042002F07E
:105A100021FA03F025FD114902F017FF03F020FDE4
:105A20000F4902F012FF4FF4FA7003F0E7F822B0CA
:105A300070BD00BF9DDB0D00B4E40320F1D70D0065
:105A4000F5D70D00FAD70D00B8D70D00B7DB0D0064
:105A5000E4D50D00CADB0D00E0DB0D0008DC0D0015
:105A60001FDC0D00704710B51021044604F038F813
:105A7000204610BD0EB403B503AB002153F8042B30
:105A8000019303F031F802B05DF804EB03B0704706
:105A900073B5044608462279A36832B1A3B90B490D
:105AA00002B0BDE8704002F0B9BE094A267B094D3C
:105AB0000949647B012E18BF2946CDE90014074926
:105AC000FFF7D8FF02B070BD054AEFE753DC0D00C9
:105AD000B8D70D004FDC0D004BDC0D0069DC0D006C
:105AE00042DC0D004FF0FF33036170478068704760
:105AF00013B50B4C2178BFF35B8F11F001010BD173
:105B000020460191FEF7D8FA019928B1054802F024
:105B100059FC2046FEF7D5FA024802B010BD00BF7E
:105B20007CE5032080E503202DE9F04190F9133056
:105B3000013305460F4606D1FFF7DAFF3946BDE8C7
:105B4000F04102F0E1BC002407264FF0010895F96E
:105B50001300002180B203F02CFF95F9110008FA20
:105B600006F1394080B203F024FF95F913000121BA
:105B700080B203F01EFF95F91200640080B2E4B217
:105B800003F030FF08B144F00104013EDFD22046AB
:105B9000BDE8F08108B5FFF7ABFFBDE8084002F0B3
:105BA0002CBC07B50190FFF7A3FF019903B05DF886
:105BB00004EB02F03BBC000030B590F9103001332B
:105BC00085B004460D4623D10179006803F0E8FD55
:105BD0002068036829469B689847206803F0E8FD21
:105BE00021792068032203F0D8FD206803685B69EF
:105BF00098470502206803685B69984728430502B7
:105C0000206803685B6998470543284605B030BDA6
:105C100090F9133001330CD11A4B009300238DF807
:105C20000430194B029368460123ADF80C30FFF79E
:105C3000B8FF94F91000002180B203F0BAFE45F0DD
:105C400080012046FFF770FF00212046FFF76CFF20
:105C5000002105022046FFF767FF284305020021C7
:105C60002046FFF761FF054394F91000012180B23F
:105C700003F09FFE94F913300133C6D1FFF78AFF7A
:105C8000C3E700BF90DC0D0020A1070010B5FA218A
:105C90000446FFF791FFB0F5000F1ED0A18A9FEDDB
:105CA000107A4B00C1EB2022C3EBE011B4F916309F
:105CB00052435943B4F91830121353439B1303EB67
:105CC000E123E36003EB830380331B1207EE903A7A
:105CD000F8EEE77A87EE870A10BD9FED020AFBE730
:105CE0000000C8420000C07F2DE9F8430446FFF7DA
:105CF000CDFFF7212046FFF75FFFB0F5000F054607
:105D000000F0BF80E068B4F91C60B0F5FA334FEAE8
:105D1000E07141F1FF32A3FB038903FB02F109EBC0
:105D20004109F71706FB02F103FB0711A6FB036706
:105D30000F44390341EA16513003B4F91E60F717D6
:105D400006FB09FC08FB07CCA6FB086767444FEA83
:105D5000162C4CEA076C668B4FEA272E1CEB0000D2
:105D60004EEB010E00304EF5004EA0FB060106FB87
:105D70000E114E10CF1756EA070100F08580B4F9D6
:105D8000240000FB09FCC11708FB01CCA0FB0801A3
:105D9000B4F922804FEAE87908FB02F203FB0922FA
:105DA000A8FB0389914461444FEA48424FEA494CB9
:105DB0002D111218C5F580154CEAD83CB4F9208095
:105DC0004CEB010C0023E9179B184FEAC17E4FEA08
:105DD000C5704FEAC80141EB0C0C4EEA550EC01AD3
:105DE00040F635436EEB0C0EA0FB030103FB0E11D6
:105DF00032463B4607F0FCF8B4F92A204D13460B17
:105E000046EAC14602FB05F7D31706FB0377A2FB60
:105E100006233B44554306FB0355A2FB06232B44B4
:105E2000550E45EAC315B4F92820B4F926402D18BB
:105E30004FEA636641EB0606D317514300FB03119B
:105E4000A2FB00230B44D10C41EA43316D184FEA09
:105E5000E34046EB00032A0AE51742EA03621912FF
:105E600020012B0143EA1473801843EB010107F072
:105E700081F89FED070A07EE900A27EE800ABDE839
:105E8000F8839FED040AFAE79FED030AF7E700BFE6
:105E90000000803B0000C07F000000000000000008
:105EA00008B52DED028BB0EE408AFFF71DFF9FED88
:105EB000167AC0EE077AC7EE887A17EE900A06F0D7
:105EC000E9FB9FED0D1B41EC100B03F0A5FE0F4904
:105ED00053EC102B002006F07DFA09A3D3E9002330
:105EE00006F030FC06F026FFBDEC028B00EE100A37
:105EF00008BD00BFAFF30080EBE2361AC05BC83FBD
:105F00000000000040A5E5400000C8420000F03F4E
:105F100030B590F91030013385B004460D461FD1DD
:105F20000179006803F03CFC2068036829469B68FF
:105F30009847206803F03CFC21792068022203F096
:105F40002CFC206803685B69984705462068036855
:105F50005B69984740EA052085B2284605B030BD08
:105F600090F9133001330CD1184B009300238DF8B6
:105F70000430174B029368460123ADF80C30FFF74D
:105F800010FE94F91000002180B203F012FD45F0DC
:105F900080012046FFF7C8FD00212046FFF7C4FD21
:105FA000002105462046FFF7BFFD40EA052085B2E7
:105FB00094F91000012180B203F0FBFC94F9133036
:105FC0000133CAD1FFF7E6FDC7E700BF90DC0D0043
:105FD00020A1070008B5FFF79BFF40BA80B208BDBB
:105FE00038B50446FFF752FEFD212046FFF790FF2B
:105FF000B0F5004F38D0B4F93250E268B4F934301B
:106000002D05A2F59632C5EB803002FB130303F594
:106010008043D91394F830305343DB1203F500402A
:1060200094F9363053439B1243439B1203F50012FD
:10603000B4F92E30534303F500539B134B43DA134B
:1060400094F82C105243D2114A43A3EB221323EAB3
:10605000E373B3F1C85FA8BF4FF0C8531B1300EE42
:10606000103ABAEECB0A38BD9FED010AFBE700BF3C
:106070000000C07F30B590F91030013385B0044680
:106080000D4618D10179006803F08AFB2068036887
:1060900029469B689847206803F08AFB217920688D
:1060A000012203F07AFB206803685B699847C5B258
:1060B000284605B030BD90F9133001330CD1154B93
:1060C000009300238DF80430134B0293684601239C
:1060D000ADF80C30FFF765FD94F91000002180B297
:1060E00003F067FC45F080012046FFF71DFD00210D
:1060F0002046FFF719FD054694F91000012180B2F2
:1061000003F057FC94F913300133D1D1FFF742FD6E
:10611000CEE700BF90DC0D0020A1070008B5F321F9
:10612000FFF7A8FF00F0010008BD38B5882104463C
:10613000FFF750FF8A21A0822046FFF74BFF8C21FA
:10614000E0822046FFF746FF8E2120832046FFF79E
:1061500041FF902160832046FFF73CFF9221A083FE
:106160002046FFF737FF9421E0832046FFF732FFF8
:10617000962120842046FFF72DFF98216084204639
:10618000FFF728FF9A21A0842046FFF723FF9C21D8
:10619000E0842046FFF71EFF9E2120852046FFF762
:1061A00019FFA12160852046FFF764FFE12184F8F3
:1061B0002C002046FFF70EFFE321E0852046FFF785
:1061C00059FFE42184F830002046FFF753FFE52112
:1061D00005462046FFF74EFF00F00F0343EA051087
:1061E0006086E6212046FFF745FFE521054620466B
:1061F000FFF740FF031143EA0510A086E721204680
:10620000FFF738FF84F8360038BD00007FB590F9FD
:106210001030013304460E46154612D1017900684C
:1062200003F0BEFA2068036831469B6898472068EF
:10623000036829469B689847206803F0B9FA04B0C0
:1062400070BD90F9133001330CD1144B009300232F
:106250008DF80430124B029368460123ADF80C30E0
:10626000FFF79FFC94F91000002180B203F0A1FB1E
:1062700006F07F012046FFF757FC29462046FFF72E
:1062800053FC94F91000012180B203F092FB94F9C1
:1062900013300133D3D1FFF77DFCD0E790DC0D0044
:1062A00020A10700F8B5DB0002F0070203F0380375
:1062B000134343EA81139DF8186080F83C3090F84E
:1062C00040309DF81C509DF8207066F3471380F80D
:1062D0004030ED0090F8383007F0070705F038053A
:1062E00023F03F033D4304461D4380F8385006F039
:1062F0000702F221FFF78AFF94F83820C2F3C203A5
:1063000002F007019B0043EA411343EAD212204600
:10631000F521FFF77BFF94F83C20C2F3C20302F0A3
:1063200007019B0043EA411343EA92122046F421FD
:10633000BDE8F840FFF76ABF30B5044690F9100099
:10634000421C85B019D1206803F0F8F9D02120460D
:10635000FFF790FE6028A06045D12046B622E021DC
:10636000FFF754FF4FF4967002F048FC2046FFF709
:10637000D5FE054628B36420F6E7012180B203F07C
:1063800018FB94F91000012180B203F001FB94F98D
:106390001300431C04D1FFF7ABFB02F01DF8D5E757
:1063A000012180B203F0F4FA94F91100012180B2C6
:1063B00003F0EEFA94F91200002180B203F0E8FA3B
:1063C000C4E72046FFF7B1FE052300931A460321D8
:1063D0002046CDE90155FFF765FF642002F00EFC71
:1063E000012005B030BD0020FBE7772310B5037115
:1063F000044603F051FB20602046FFF79DFF30B9B3
:10640000762323712046BDE81040FFF795BF10BDED
:1064100010B50446406810B103689B689847204651
:1064200010BD38B5044690F90E00012180B203F08A
:10643000AFFA94F90E00012180B203F0BAFA256890
:1064400035B1284601F0C8FF012084F8340038BD7A
:1064500094F90F00012180B203F09AFA637B94F95A
:106460000F00012B94BF2946012180B203F0A1FA4D
:1064700094F91000421C09D0012180B203F088FA7F
:1064800094F91000012180B203F093FA94F91100FD
:10649000431CD9D0002180B203F07AFAD4E700007F
:1064A0002DE9F04F0446006885B00D4640B1002349
:1064B000009313460A4602F02DF805B0BDE8F08FB0
:1064C000237BA068484FB7FBF0F7002B0B780CBF7D
:1064D0004FF0010B4FF0800B1BEA030F01EB02039F
:1064E0000CBF4FF001094FF00009FFB20393039B6B
:1064F000AB42E2D095F800A05E464FF0000817B11D
:10650000384601F087FC637B13F0FD0F41D194F90D
:1065100010305A1C0FD01AEA060114BF01230023C1
:106520004B4508D06369606A1A6800292CD0024381
:106530001A604FF00109A169E36A0A6813430B600E
:1065400017B1384601F066FC94F91130013306D0DA
:10655000E3691A68A36A1A4218BF46EA0808A169E3
:10656000E36A0A6822EA03030B6094F911300133ED
:1065700018BF85F80080237B002B32D17600F6B25D
:10658000002EBCD10135B2E722EA00021A6089462A
:10659000D1E7A169E36A0A6813430B6017B1384673
:1065A00001F038FC94F91030013308D06369616A56
:1065B0001A681AEA060F14BF0A438A431A60A169CF
:1065C000E36A0A6822EA03030B6094F9113001338D
:1065D000CBD0E3691A68A36A1A4218BF46EA0808D2
:1065E000C3E77608CCE700BF20A1070007B501226A
:1065F0008DF807100DF10701FFF752FF9DF8070016
:1066000003B05DF804FB2DE9F041044600680E4636
:1066100017461D4610B1616801F008FF94F90E009D
:10662000002180B203F0C5F9069B05EB0308454540
:1066300008D13744B7420BD016F8011B2046FFF7AC
:10664000D5FFF7E715F8011B2046FFF7CFFFEEE770
:1066500094F90E00012180B203F0ABF9206808B173
:1066600001F0CBFE0120BDE8F08142600022027201
:1066700020220170C260704710B5037A044653B1FE
:106680002178606803F08CF8606803F091F8B0FA44
:1066900080F0400910BD012100F003F80028EFD17F
:1066A000F8E738B5044640680D4603F047F8012086
:1066B000207225B12046BDE83840FFF7DDBF38BD68
:1066C0002DE9F843DDE908961F46C36815463244B4
:1066D0009A420446884602D90020BDE8F883017832
:1066E000406803F05DF87EB9606803682A46DB689D
:1066F000414698478542EFD16068394603F054F827
:10670000B0FA80F04009E8E7B9F1000FECD060681A
:1067100003683246DB6849469847B042DCD1E3E77C
:106720002DE9F041154604460E46D2B20178406884
:1067300003F021F885420DD100271FFA87F8A845FC
:1067400007F1010709D2606803685B69984706F89A
:106750000800F2E70020BDE8F0810120FBE72DE909
:10676000F84307468846164699460025B54212D298
:10677000FA68741B944228BF1446331BAB4294BF83
:106780004B460023224608EB05013846FFF7C8FFB9
:1067900010B12544EAE70120BDE8F88373B51D4632
:1067A0000023CDE900339DF81C30069E0446FFF718
:1067B00087FF40B1012332462946204602B0BDE89A
:1067C0007040FFF7CCBF02B070BD08B5406802F062
:1067D000B1FF012008BD7047704700000B4610B59F
:1067E000282204460021184606F000FE09490B2223
:1067F00006F04DFE00220121C272C160E1684262D2
:106800000022016182610321C261034A4161026287
:1068100010BD00BF66DB0D000AD7233C10B5142164
:10682000044603F05DF9204610BD000073B50193E6
:10683000094B03600023C0E90231044610201646CC
:10684000FDF729FC054618B1019A3146FFF70DFF07
:106850002046A56002B070BDA4DC0D001FB500236A
:10686000CDE900338DF80C108DF80D2001230222A4
:1068700003A98068FFF724FF05B05DF804FB08B5A5
:106880000A4601743D21FFF7E9FFBDE808401E20DC
:1068900002F0B4B970B50D4600210446067CFFF73E
:1068A000EEFF192002F0AAF9002207212046FFF787
:1068B000D5FF85B180223F212046FFF7CFFF0A2078
:1068C00002F09CF920463146FFF7D9FFBDE8704041
:1068D000142002F093B92A46EDE770B50D46002169
:1068E0000446067CFFF7CBFF192002F087F92A78CF
:1068F00055212046FFF7B2FF6A7856212046FFF760
:10690000ADFFAA7857212046FFF7A8FFEA78582163
:106910002046FFF7A3FF2A7959212046FFF79EFF63
:106920006A795A212046FFF799FFAA795B21204610
:10693000FFF794FFEA795C212046FFF78FFF2A7A60
:106940005D212046FFF78AFF6A7A5E212046FFF725
:1069500085FFAA7A5F212046FFF780FFEA7A60214F
:106960002046FFF77BFF2A7B61212046FFF776FF59
:106970006A7B62212046FFF771FFAA7B63212046D4
:10698000FFF76CFFEA7B64212046FFF767FF2A7C54
:1069900065212046FFF762FF6A7C66212046FFF7EB
:1069A0005DFFAA7C67212046FFF758FFEA7C68213B
:1069B0002046FFF753FF2A7D69212046FFF74EFF4F
:1069C0006A7D6A212046FFF749FF31462046BDE82F
:1069D0007040FFF754BF1FB501220023CDE900230B
:1069E00003AB8DF80C1080681946FFF7D7FE9DF8B1
:1069F0000C0005B05DF804FB70B504460E468068D7
:106A00000121FFF74EFE054610B90025284670BD4E
:106A100000212046FFF7DFFFA02813D100212046E8
:106A2000FFF72DFF20223F212046FFF717FF1E20F2
:106A300002F0E4F800212046FFF7CDFFA0280CD09B
:106A40000A20F5E74FF47A7002F0D8F800212046CA
:106A5000FFF7C1FFA028D8D1E0E7322002F0CEF83E
:106A600000223E212046FFF7F9FE0A2002F0C6F878
:106A7000002207212046FFF7F1FE00223F21204699
:106A8000FFF7ECFE0A2002F0B9F820463146FFF786
:106A9000F6FE142002F0B2F8B8E7F8B50F46164635
:106AA0000721002204461D46FFF7D8FE27B13921F1
:106AB0002046FFF790FF387026B136212046FFF7B9
:106AC0008AFF307025B13A212046FFF784FF2870F5
:106AD000BDE8F840C82002F091B8F8B50E4635215F
:106AE000069F15461C46FFF776FF0EB183093370EB
:106AF00015B1C0F301132B7014B1C0F381032370DF
:106B000017B100F003003870F8BD1FB504460DF151
:106B10000F0300930DF10D020DF10E0303A9FFF712
:106B2000DCFF237C013B092B17D8DFE803F00522AB
:106B3000101E0C13160C1E109DF80E00C31E58429A
:106B4000584104B010BD9DF80E30032B14D19DF8B0
:106B50000D00F3E79DF80F30F7E79DF80C30032B9D
:106B60000AD19DF80D30032B06D19DF80E30032B72
:106B700002D19DF80F00E1E70020E2E72DE9F041A6
:106B800004460D46FFF7C1FF0646002800F091803D
:106B90000021204694F81080FFF771FE192002F0C2
:106BA0002DF856212046FFF716FF552107462046AF
:106BB000FFF711FF40EA0720288058212046FFF701
:106BC0000AFF572107462046FFF705FF40EA072046
:106BD00068805A212046FFF7FEFE592107462046CD
:106BE000FFF7F9FE40EA0720A8805C212046FFF766
:106BF000F2FE5B2107462046FFF7EDFE40EA072044
:106C0000E8805E212046FFF7E6FE5D21074620462C
:106C1000FFF7E1FE40EA0720288160212046FFF7C8
:106C2000DAFE5F2107462046FFF7D5FE40EA07203F
:106C3000688162212046FFF7CEFE6121074620468B
:106C4000FFF7C9FE40EA0720A88164212046FFF72C
:106C5000C2FE632107462046FFF7BDFE40EA07203B
:106C6000E88166212046FFF7B6FE652107462046EB
:106C7000FFF7B1FE40EA0720288268212046FFF78F
:106C8000AAFE672107462046FFF7A5FE40EA072037
:106C900068826A212046FFF79EFE6921074620464A
:106CA000FFF799FE40EA0720A88241462046FFF7F9
:106CB000E6FD3046BDE8F0811FB58DF80C100021CF
:106CC000CDE90031134603A901228068FFF766FD74
:106CD00005B05DF804FB000000B52DED068B002328
:106CE00093B008AACDE9083320210823FFF7E4FF79
:106CF0009DF823309DF8220040EA032000B205F001
:106D0000B7FC0022214B05F01DFD9DF8253041EC1C
:106D10001A0B9DF8240040EA032000B205F0A8FCFD
:106D200000221A4B05F00EFD9DF8273041EC190B9F
:106D30009DF8260040EA032000B205F099FC0022ED
:106D4000124B05F0FFFC9DF8213041EC180B9DF82B
:106D5000200040EA032000B205F08AFC0B4B002221
:106D600005F0F0FCB0EE4A1AF0EE6A1AB0EE492ACD
:106D7000F0EE692A41EC100BB0EE483AF0EE683ABA
:106D800013B0BDEC068B5DF804FB00BF0000103FA4
:106D9000F7B50D46164600211822044606F026FBDC
:106DA00000230093ADF80430284606236A46314696
:106DB000FFF782FF9DF801309DF800009DF80270FA
:106DC0009DF8045040EA03209DF8033047EA03276A
:106DD0009DF805301A2E45EA032500B23FB22DB2C8
:106DE0000DD008D80E2E0AD0142E08D0082E21D08F
:106DF000204603B0F0BD282E1CD02E2EF7E705F05C
:106E000037FC194B002205F09DFCC4E9000138460F
:106E100005F02EFC144B002205F094FCC4E902019D
:106E2000284605F025FC104B002205F08BFCC4E938
:106E30000401DDE705F01CFC0C4B002205F0ACFD65
:106E4000C4E90001384605F013FC084B002205F0A8
:106E5000A3FDC4E90201284605F00AFC034B002209
:106E600005F09AFDE3E700BF0000B03F0000594085
:106E700030B50C4687B0054620220021201D06F0C3
:106E8000B5FA24232360EB6863600323A36000F05A
:106E9000C9FF1A22206129466846FFF779FFDDE91C
:106EA000000105F047FF6061DDE9020105F042FFE6
:106EB000A061DDE9040105F03DFFE061012007B0BC
:106EC00030BD0029F0B566DBB0F90C408C4262DDC4
:106ED000002A60DBB0F90E4094425CDD847E022C17
:106EE0005AD0032C61D0012C04D10489D24314441C
:106EF0000A4621B2B0F938408C42A8BF0C4604873C
:106F0000B0F93A409442A8BF14464487B0F93C40D7
:106F10008C42B8BF0C468487B0F93E409442B8BF5B
:106F20001446C48790F84C40012C16D1012B42D056
:106F3000022B51D08BB9002A0589476B1446B8BF84
:106F4000D41DE41014FB051402F00706012505FA10
:106F500006F63D5D25EA06053D5590F84C40042CAB
:106F600019D1048914FB02F202EBD27401EBD17245
:106F700042F34F0202EB6402446BA05CC9074BBFB3
:106F800003F00F0300F00F0020F00F0040EA03139E
:106F900048BF0343A354F0BD0489C9432144448935
:106FA000D243224409B212B2A4E74489C9430C4433
:106FB000114622B29EE7002A0589466B1446B8BFE7
:106FC000D41DE41014FB051402F007070125BD4091
:106FD000375D3D433555C0E7002A0589466B1446A9
:106FE000B8BFD41DE41014FB051402F007070125F7
:106FF000BD40375D7D40EDE738B50D46114604468E
:107000001AB209B200F096FA069A0B4BE262079A9E
:1070100023600023C4E90933C4E90C234FF0FF3394
:10702000C4E910339DF91430A364049B84F84C50D8
:107030002365204638BD00BFC0DC0D0038B50C4BC1
:1070400003600446406B18B101F040F9002363630C
:10705000656A35B12846FFF7DBF93821284602F08A
:107060003FFDA06A10B1102102F03AFD204638BD64
:10707000C0DC0D0030B587B0856A8DF80F1004466E
:107080007DB10023CAB2CDE900338DF814308DF8FC
:1070900015200123022205A92846FFF711FB07B09E
:1070A00030BD2946B0F8400002F083FC606A0095CC
:1070B0002B4601220DF10F01FFF7A5FAEFE700299A
:1070C00014BFA721A621FFF7D5BFF0B5856A85B00B
:1070D00004460E46174665B100230DF10F008DF8EA
:1070E0000F300123009001932846FFF7E9FA05B01D
:1070F000F0BD2946B0F8400002F05BFC606A0095E4
:107100002B463A463146FFF77EFAF0E710B5B0F964
:107110000A10038990F84C2012FB03F2CB1D48BFE4
:1071200001F10E03DB1004465A43406B002106F0C8
:107130005DF90023A3632389013BA3876389013B96
:10714000E38710BD70B5436B04460E4615460BB37E
:10715000002D33D1236D002B50D01020FCF79BFF66
:10716000054618B1226D3146FFF77FFAA5621DB3BF
:1071700001212846FFF795FAF0B12046FFF7C6FF38
:107180000023A3632389013BA3876389013BE38732
:10719000012012E02389B4F90A2090F84C0010FB7A
:1071A00003F0D31D48BF02F10E03DB10584301F07A
:1071B00085F860630028CBD1002070BDA06C00284A
:1071C000C8DB012180B202F0E3FBB4F848000121E2
:1071D00002F0EFFB0A2001F011FDB4F84800002195
:1071E00002F0E7FB0A2001F009FDB4F84800012194
:1071F00002F0DFFB0A2001F001FDABE7606A002826
:10720000DAD0FFF70EF90028D6D0B4F840000121FB
:1072100002F0BEFBB1E707B581238DF8051002220D
:1072200001A98DF80430FFF750FF03B05DF804FBAF
:107230002DE9F04F85B01F46BDF93880BDF83C30D0
:10724000A8EB0209A7EB010AB9F1000FB8BFC9F119
:107250000009BAF1000FB8BFCAF1000AD145834650
:107260000C46154604DD3A462C4647460D469046E8
:10727000BC4205DD2A464546904622463C46174616
:107280003E1BB2B20092A8EB0502002AB8BF5242E0
:107290000192C6F3C03202FA86F64545B4BF012218
:1072A0004FF0FF3276100292BC421CDCDBF800206B
:1072B0000393D145D2F81880C7BF294622462A46F3
:1072C00021465846C047019A039BB61AB1B236B25E
:1072D000002E05DA029A1544009A56182DB236B2DD
:1072E000013424B2E0E705B0BDE8F08F704710B478
:1072F00004682469A4465DF8044B604730B4046810
:10730000BDF808500295A46BA44630BC604730B469
:107310000468BDF808500295E46BA44630BC604791
:1073200070B4BDF90C50BDF810600468CDE9035687
:10733000246CA44670BC60472DE9F3411C460368E9
:10734000BDF820805B6905461646013C34440F4673
:1073500024B298472B68CDF8048000949C6A284694
:107360003B4632463946A0472B68DB6A284602B0C6
:10737000BDE8F04118472DE9F3411D460368BDF80B
:1073800020805B69044617460E469847CDE9007891
:1073900022686B1E3344956A20461BB23A4631463A
:1073A000A8472368DB6A204602B0BDE8F0411847D1
:1073B0002DE9F3471E460368BDF928905B69BDF8C7
:1073C0002C800C460546174698472644B4422B6845
:1073D0000BDACDF80080D3F820A021464B463A4680
:1073E00028460134D04724B2F0E7DB6A284602B0D1
:1073F000BDE8F047184713B502680191B0F90E10C7
:107400000091146CB0F90C3000221146A04702B074
:1074100010BD2DE9F3471D460368BDF82C805B695C
:10742000BDF9289004460F46164698472368CDF8C4
:107430000080D3F824A032462B4639462046D04758
:107440002368CDF8008009F1FF323244D3F824A03C
:1074500039462B46204612B2D0472368CDF800802B
:10746000D3F820A032464B4639462046D0476B1E03
:10747000D9192368CDF800801D6A20464B46324654
:1074800009B2A8472368DB6A204602B0BDE8F0478E
:10749000184770472DE9F74399421646BDF9287001
:1074A000BDF82C90026880460D461C4613D1BE42A2
:1074B000C8BF3346CDF82890C4BF3E461F467B1C4C
:1074C000946B9B1B1BB2324629464046A44603B030
:1074D000BDE8F0436047BE420AD19942C2BF0B46A5
:1074E00025461C46631CCDF82890D46B5B1BE9E74E
:1074F00053699847CDE90079D8F8003040469F6A33
:10750000324623462946B847D8F80030DB6A404661
:1075100003B0BDE8F043184701F00303B0F90A20B7
:107520008376C907B0F9083059BF8381C28182814F
:10753000C381704730B54281C281074A074D01813E
:10754000002481814FF0FF31C0E9051244600560DD
:1075500004610477046230BD010100011CE20D00EA
:107560002DE9F04F89B0CDE902120268BDF94880DB
:107570000493BDF94C3052690593BDF850A0044600
:10758000904718F107024FF0000648BF08F10E02BD
:107590004FEAE20B01963546039B019ABDF90410B0
:1075A0009A18059B8B4212B227DD049B33444FF09F
:1075B000000906930FFA89F080451FFA89F117DD5B
:1075C0004F0705BF069BC0106D001D5C18BFEDB2D4
:1075D0002B060AD5029B206807921944836909B2D9
:1075E0001F4620465346B847079A09F10109E1E7CB
:1075F000019B013301935E44CEE72368DB6A20469A
:1076000009B0BDE8F04F18472DE9F04F2DED028B82
:1076100091B01646026ABDF874809DF878509DF8C6
:107620007C4003911F46BDF8703004938346002AC6
:1076300040F0C580B0F90C308B4240F34C81B0F97A
:107640000E30B34240F34781062313FB0513002B92
:1076500040F3418106EBC403002B40F33C81037FE0
:107660001BB9AF2F84BF0137FFB2DBF8003058469B
:107670005B6998470522099200220592984A07EB18
:107680008703D3180C93B3B20693059A0C9B9B5CAB
:107690000793ABB20B93BDF80C300893039B02FB2E
:1076A00005F919FA83F90FFA89F308EE103A08235D
:1076B0000A93039B02EB030A4FF000090FFA8AFAC0
:1076C000079ADBF80030D20752D5012D1FFA89F254
:1076D0003ED1012C3CD19B6906991F46049B0A446C
:1076E00012B251465846B84709F101034FFA83F9DF
:1076F000079B5B0807930A9B013B13F0FF030A9368
:10770000DED1059F01377BB20593099B013B13F046
:10771000FF030993B9D1049B43450FD0012DDBF83A
:1077200000303BD1012C39D10899CDF800800531CA
:107730001C6A3246082309B25846A047DBF80030DD
:10774000DB6A584611B0BDEC028BBDE8F04F18471C
:10775000069914FB02F20A44049901910094DB6932
:1077600018EE101A1F4612B22B465846B847BBE710
:10777000049A4245B8D0012D1FFA89F207D1012C95
:1077800005D19B6906991F460A444346A8E7069916
:10779000CDF8048014FB02F20A44DFE70B9ACDF81F
:1077A000048002EB8201089AE4000A441146009426
:1077B000DC6932462B4609B25846A047BEE7137A29
:1077C000516812680D92FF1AFFB201EBC70331F83E
:1077D000372006929A780992DA780B92012D93F964
:1077E000052093F906A00A9201D8012C57D9BDF9BA
:1077F000283008930FFA8AF30793DBF800305846D5
:107800005B699847B3B24FF000080E931AFA86F3FB
:10781000C14647460F930B9B9F428FD2079B0E9A00
:107820003B4403FB0423002205920F9A1BB202EB98
:10783000070A08EE103A0FFA8AFA4346099A0599A0
:10784000914241D25A1CD2B25B070C9207D1069BDF
:1078500006990D9A01339BB212F80190069319F024
:10786000800F12D0012DDBF80030BDF80C101AD1BA
:10787000012C18D10A9A9B691144059A11441E469D
:107880005246049B09B25846B047059E0136F3B2F2
:107890004FEA490905935FFA89F90C9BCEE700236B
:1078A000CDE90733A9E70598089A024402FB0511C0
:1078B000049ACDE90042DB6918EE102A1E4609B28F
:1078C0002B465846B047E0E7099B013798445FFADA
:1078D00088F8FFB29FE711B0BDEC028BBDE8F08FD6
:1078E00014DD0D00F0B5026A85B004460B46002A8F
:1078F00034D10A2908D1438A0282427E03EBC203B3
:107900006382012005B0F0BD0D29FAD0E17E007E32
:10791000657E71B1B4F91060062111FB0061B4F904
:107920000C60B142C1BFB4F91210228201EBC50252
:107930006282E28A0192A28A0092CDE90205B4F93C
:107940001220B4F910102046FFF75EFE237E228A33
:1079500003EB430302EB43032382D2E70A2907D157
:1079600000230382137B417E428A01FB0323C7E786
:107970000D29C6D0157AA942C3D3917A9942C0D3B2
:1079800051685D1BEDB201EBC505AF782FB3E97807
:1079900019B3E17E007E667E91B195F905103944F8
:1079A000B4F9107000FB0171B4F90C70B94207DD35
:1079B00000272782B4F91210127B02FB06126282A2
:1079C000E28A0192A28A0092CDE90206B4F912205D
:1079D000B4F910102046FFF717FE2979237E228A7A
:1079E00001FB0323B8E7012938BF01210176417665
:1079F00070472DE9F04F04468BB000F043FAB4F91C
:107A00000A30B4F93A50B4F9087094F83890DA1D95
:107A100048BF03F10E0240238DF82330C2F3C703A1
:107A20000393A36ADB68013B9BB20493B4F93C3037
:107A3000FFB2002DB8BF073523EAE373B94507F15C
:107A40000102C5F3C70528BFB94652FA83F305FB07
:107A5000079A06934FF0000B039B9D426BD2636B1A
:107A6000267A94F8542003EB0A08069B4A449E1B8E
:107A7000A36A1111A6EB0906A5F15000F6B2C0B237
:107A8000103102F00F02002B35D08DF825008DF853
:107A900026101846E16A8DF827208DF824B0FEF7ED
:107AA00094FE0123CDE900BBA06A042209A9FEF7D8
:107AB00007FE9DF810300593A06AAEB1059BB34256
:107AC00028BF33461A46012301930DF12303009387
:107AD000414601230792FEF7F3FD079AB61A904438
:107AE000F6B200F0CFF9E7E7216BFEF76EFE013545
:107AF000EDB2BA44B0E78DF824008DF82510B4F843
:107B000040008DF826201946059301F052FF059B91
:107B10000093032209A9606AFEF775FDB4F84000DE
:107B2000012101F046FF059B606A00933246414601
:107B3000FEF769FDDBE74FF004224FF0FF33C4E9A5
:107B40000E230BB0BDE8F08F30B585B004460A9D1A
:107B50000395099D02959DF92050CDE90035134606
:107B60000A460121FFF748FA034B23602046002311
:107B700084F8543005B030BD74E20D0010B5034BED
:107B800003600446FFF75AFA204610BD74E20D0068
:107B900010B5034B03600446FFF7F0FF204610BD0D
:107BA000B0E40D0010B50446FFF7F2FF204658215F
:107BB00001F096FF204610BD30B585B004460A9D01
:107BC0000295099D01959DF920500095FFF7BCFF96
:107BD000024B2360204605B030BD00BFB0E40D006D
:107BE00030B5044685B0FFF7ADFA2F212046FFF7E8
:107BF00012FBA2682F4B9A4221D1236801211B6BF3
:107C000020469847B4F90820B4F90A102023203AF6
:107C100073390125CDE9013502EBD272732301EBF3
:107C2000D171009341F34F01234B204642F34F02A1
:107C3000FFF796FC236800211B6B20469847A3683A
:107C4000B3F1801F17D1B4F90820B4F90A1020232A
:107C50000120203A7339CDE9013002EBD27273234F
:107C600001EBD171009342F34F02134B41F34F01EB
:107C70002046FFF775FC114916222046FFF725FA2A
:107C8000054618B90025284605B030BDA368B3F1F4
:107C9000801F07D0642000F0B1FFAF212046FFF71E
:107CA000E9F9F0E7064904222046FFF70EFA00281A
:107CB000F0D1E7E740008000C8E20D0008E50D00C4
:107CC00004E50D00002202600271704773B505469D
:107CD00010200E460192FCF7DEF9044618B1019A15
:107CE0003146FEF7C2FC012120462C602E7102B005
:107CF000BDE87040FEF7D5BC30B5002385B0CDE9B6
:107D0000003349BA0546ADF80C108DF80E20006816
:107D10000123032203A9FEF7D3FC60B16524013CD3
:107D200014F0FF0407D02868FEF7A6FC20B9012054
:107D300000F064FFF3E7002005B030BD1FB501235C
:107D40000022CDE9003249BA03ABADF80C1000684F
:107D500002221946FEF722FD08B19DF80C0005B07D
:107D60005DF804FB08B5024B1B689B68019308BDD6
:107D70006802030008B5024B1B68DB68019308BD6D
:107D80006802030008B5024B1B685B68019308BDDD
:107D90002C02030008B5024B1B689B68019308BDC9
:107DA0002C02030008B5024B1B68DB68019308BD79
:107DB0002C02030008B5024B1B681B69019308BD28
:107DC0002C02030008B5024B1B685B69019308BDD8
:107DD0002C02030008B5024B1B689B69019308BD88
:107DE0002C02030008B5024B1B68DB69019308BD38
:107DF0002C02030008B5024B1B681B6B019308BDE6
:107E00002C02030008B5024B1B685B68019308BD98
:107E10001802030008B5024B1B68DB68019308BD1C
:107E20001802030008B5024B1B685B69019308BD8B
:107E30001802030008B5024B1B689B6A019308BD3A
:107E40001802030008B5024B1B685B6C019308BD68
:107E50001802030008B5024B1B689B6C019308BD18
:107E60001802030008B5024B1B689B6D019308BD07
:107E70001802030008B5024B1B685B6E019308BD36
:107E80001802030008B5024B1B68DB68019308BDAC
:107E90004802030008B5024B1B685B6C019308BDE8
:107EA0004802030008B5024B1B685B69019308BDDB
:107EB0006402030008B5024B1B681B68019308BDF0
:107EC0003C02030008B5024B1B68DB68019308BD48
:107ED0003C02030008B5024B1B681B69019308BDF7
:107EE0003C02030008B5024B1B685B69019308BDA7
:107EF0003C02030008B5024B1B689B69019308BD57
:107F00003C02030008B5024B1B68DB69019308BD06
:107F10003C02030008B5024B1B681B6A019308BDB5
:107F20003C02030008B5024B1B689B6A019308BD25
:107F30003C02030008B5024B1B681B68019308BD97
:107F40002802030008B5024B1B68DB68019308BDDB
:107F50002802030008B5024B1B689B69019308BD0A
:107F60002802030008B5024B1B68DB69019308BDBA
:107F70002802030008B5024B1B681B6A019308BD69
:107F80002802030008B5024B1B685B6A019308BD19
:107F90002802030008B5024B1B689B6A019308BDC9
:107FA0002802030008B5024B1B68DB6A019308BD79
:107FB0002802030008B5024B1B681B6B019308BD28
:107FC0002802030008B5024B1B685B6B019308BDD8
:107FD0002802030008B5024B1B681B6C019308BD07
:107FE0002802030008B5024B1B681B6D019308BDF6
:107FF0002802030008B5024B1B681B68019308BDEB
:108000003002030008B5024B1B685B69019308BD91
:108010003002030008B5024B1B68DB69019308BD01
:108020003002030008B5024B1B681B6A019308BDB0
:108030003002030008B5024B1B685B6A019308BD60
:108040003002030008B5024B1B689B6A019308BD10
:108050003002030008B5024B1B689B6B019308BDFF
:108060003002030008B5024B1B68DB6B019308BDAF
:108070003002030008B5024B1B681B6C019308BD5E
:108080003002030008B5024B1B685B6C019308BD0E
:108090003002030008B5024B1B681B68019308BD42
:1080A0004C02030008B5024B1B685B68019308BDD6
:1080B0004C02030008B5024B1B681B69019308BD05
:1080C0004C02030008B5024B1B685B69019308BDB5
:1080D0004C02030008B5024B1B689B69019308BD65
:1080E0004C02030008B5024B1B68DB69019308BD15
:1080F0004C02030008B5024B1B681B6A019308BDC4
:108100004C02030008B5024B1B685B6A019308BD73
:108110004C02030008B5024B1B685B6B019308BD62
:108120006002030008B5024B1B681B68019308BD81
:108130002002030008B5024B1B685B68019308BD71
:108140002002030008B5024B1B685B69019308BD60
:108150002002030008B5024B1B68DB6C019308BDCD
:108160002002030008B5024B1B685B6D019308BD3C
:108170002002030008B5024B1B689B6D019308BDEC
:108180002002030008B5034B1B68D3F88830019325
:1081900008BD00002002030008B5034B1B68D3F89C
:1081A0009430019308BD00002002030008B5024B83
:1081B0001B685B68019308BD4002030008B5024BD1
:1081C0001B689B68019308BD4002030008B5024B81
:1081D0001B68DB68019308BD4002030008B5024B31
:1081E0001B681B69019308BD4002030008B5024BE0
:1081F0001B685B69019308BD4002030008B5024B90
:108200001B689B69019308BD4002030008B5024B3F
:108210001B68DB69019308BD4002030008B5024BEF
:108220001B681B6A019308BD4002030008B5024B9E
:108230001B681B6B019308BD4002030008B5024B8D
:108240001B685B6B019308BD4002030008B5024B3D
:108250001B681B6C019308BD4002030008B5024B6C
:108260001B685B6C019308BD4002030008B5024B1C
:108270001B689B68019308BD4402030008B5024BCC
:108280001B685B69019308BD4402030008B5024BFB
:108290001B681B6A019308BD4402030008B5024B2A
:1082A0001B681B6B019308BD4402030008B5024B19
:1082B0001B68DB6B019308BD4402030008B5024B49
:1082C0001B681B68019308BD1C02030008B5024B24
:1082D0001B685B68019308BD1C02030008B5024BD4
:1082E0001B689B68019308BD1C02030008B5024B84
:1082F0001B685B6A019308BD1C02030008B5024BB2
:108300001B68DB6A019308BD1C02030008B5024B21
:108310001B681B6B019308BD1C02030008B5024BD0
:108320001B68DB6B019308BD1C02030008B5024B00
:108330001B685B6C019308BD1C02030000224068AF
:108340001146FFF76BBF002240681146FFF776BF6A
:1083500040680022FFF76ABF4068002281F00101F7
:10836000FFF754BF002340681A461946FFF746BF7F
:10837000002340681A461946FFF738BF00224068BC
:108380001146FFF72BBF002240681146FFF716BFCA
:10839000406800220221FFF719BF002340681A46F7
:1083A000FFF704BF024B03225A60024A1A6070476B
:1083B00088E5032028E50D000021FFF75BBE0021C2
:1083C000FFF760BE10B5044608462170FFF722FE95
:1083D00000236360204610BD10B504460078FFF707
:1083E000EBFF48B920784FF6FF71FFF703FE2078C6
:1083F000BDE81040FFF7E3BF10BD0078FFF7DFBF17
:10840000400830B51860002418688842E5B206D9E3
:108410000134082C02D040081860F5E70725024B0C
:108420005B5D137030BD00BF5CE50D002DE9F043CE
:1084300006468FB000780C46FFF7BEFF00281BDB16
:1084400035781422002109A804F0D0FF0B23002264
:1084500009A92846ADF82430FFF7ECFD9DF82D3032
:1084600013B19DF82C5055B10027B946B8460125E7
:1084700023795DB1C3B100200FB0BDE8F083DDF812
:1084800030809DF834909DF83570F1E7002B35D1A0
:10849000A368434508D18DF820908DF82170BDF870
:1084A0002020A3899A42E6D00023A1688DF80F30DE
:1084B0000A9804AB0DF10F02FFF7A2FF217985B9ED
:1084C00089B9A36843450ED38DF820908DF82170AB
:1084D000BDF82020A3899A4205D1049B434502D1CF
:1084E000C9E70029F9D100230193637B00939DF82C
:1084F0000F20237B3078FFF7B5FDBCE7CDE90055B1
:108500002B462A460121F5E708B50078FFF77AFDEA
:10851000C0B208BD30B587B004460A9D009500780A
:10852000FFF790FD3DB9207802A9FFF793FD9DF874
:108530001430DB07F7D407B030BD0000054B022232
:108540001A60054B054A9A6000201860988098715F
:10855000FFF7F0BD9CE5032090E503200000FFFF3E
:1085600010B5044604F08BFF0138231820468342DF
:1085700006D90278197800F8011B03F80129F6E7FB
:1085800010BD70B50C46911E2229054622D8204602
:108590006DB1B5FBF2F602FB1655E9B2092D94BF99
:1085A00030315731C9B200F8011B3546F0E70246B9
:1085B00023443021934202D902F8011BFAE71A1A28
:1085C000834238BF0022002383542046FFF7C8FFB0
:1085D000204670BD0020FCE72DE9F04757EC106BFA
:1085E00080460C4610EE100A00220023394604F0A3
:1085F0001BFB28B107F100431F462D2304F8013B64
:1086000000234FF001090A22D9B2884503D902FBA1
:1086100009F90133F8E7484604F02AF832463B46A8
:1086200004F090F806460F4604F04AFD05468A46D7
:1086300004F052F802460B463046394603F0CAFEB3
:10864000134B002204F004FB10B101354AF1000A7B
:108650004A462846D317514604F01AFD0123154611
:1086600021460A22FFF78DFFB8F1000F0DD02046FA
:1086700004F005FF2E23211823540A2243462846DE
:108680000131BDE8F047FFF77CBFBDE8F08700BFD0
:108690000000E03F10B504460068FFF717FE2046D3
:1086A00010BD10B50446006808B1FFF70FFE0023A7
:1086B000C4E90133236010BD38B504460D46006897
:1086C0000131FFF70BFE10B1C4E90005012038BDF0
:1086D00010B50368044623B143688B4201D30120DF
:1086E00010BD2046FFF7E8FF0028F9D0A368002B53
:1086F000F5D122681370F2E737B50D4611460192A5
:108700000446FFF7E5FF019A28B92046FFF7C9FFA5
:10871000204603B030BDA2602946206804F058FE10
:108720002268A3680021D154F2E713B5044659B179
:108730000846019104F0A3FE019902462046FFF786
:10874000DBFF204602B010BDFFF7ABFFF9E710B525
:1087500004468AB000230846C4E90033A3602373AB
:1087600001A9C0B2FFF738FF01A92046FFF7DDFFDE
:1087700020460AB010BD10B5036804469B689847B0
:10878000A368013BA3602BB923682046DB68BDE8E2
:108790001040184710BD0B68036013B15A680132CE
:1087A0005A60704710B50446006828B14368013B21
:1087B00043600BB9FFF7DFFF204610BD02480023DE
:1087C0000360FFF767BB00BFA0E50320F8B50646CE
:1087D0000D468F180024BD420CD0336815F8011BDC
:1087E0009B6830469847031E01DB1C44F3E7002CCE
:1087F00008BF1C462046F8BD13B50446084659B1CB
:10880000019104F03CFE23680199DB680246204692
:1088100002B0BDE81040184702B010BD08B5FFF720
:10882000EBFF08BD03689B68184708B5FFF7E4FF36
:1088300008BD38B50D210546FFF7F4FF0A210446AF
:108840002846FFF7EFFF204438BD38B50546FFF74F
:10885000D3FF04462846FFF7ECFF204438BDFFF75E
:10886000F4BF30B58BB000238DF82430012A98BFB7
:108870000A2209AC0D46B1FBF2F101FB125303F0E1
:10888000FF03092B94BF30333733DBB2AA4204F81D
:10889000013DEFD92146FFF7AFFF0BB030BD2DE909
:1088A000F04F93B019469DF87050012D4FF0000322
:1088B00098BF0A2582468DF8443010460DF1440BCE
:1088C0005FFA85F84FF0000942464B4606460F46D0
:1088D00004F0DEFB05FB106404F0FF04092C94BFD8
:1088E000303437344F45E4B208BF46450BF8014DEC
:1088F000EAD259465046FFF77FFF13B0BDE8F08F2C
:108900002DE9F74F55EC104B06460F4610EE102A96
:1089100010EE100A2B46294604F0AEF940B1534937
:108920003046FFF769FF8246504603B0BDE8F08F3E
:1089300025F000494E4B4FF0FF322046494604F0E7
:108940009BF948B94A4B4FF0FF322046494604F0A4
:1089500075F908B94749E3E7474B4FF060422046B5
:10896000294604F07FF908B14449D9E7444B4FF058
:1089700060422046294604F057F90028F4D100222D
:1089800000232046294604F04FF9D0B12D2130466E
:10899000FFF748FF05F1004382461D463949DFF8DD
:1089A000EC904FF0000B00204FF000085FFA8BF3C3
:1089B0009F4208D942464B4603F0EEFF0BF1010BF4
:1089C000F4E78246EAE722462B4603F005FD0D4612
:1089D000044604F08FF9804603F03AFE02460B4647
:1089E0002046294603F0F6FC0A2204460D4630468E
:1089F0004146FFF736FF824427B123493046FFF74F
:108A0000FBFE8244DFF884904FF00008013FFFB284
:108A1000FF2F89D042464B462046294603F092FE5E
:108A200004460D4604F03EF9B0F1000B1ADA2D2190
:108A30003046FFF7F7FECBF1000103460A2230462D
:108A40000193FFF70EFF019B18448244584603F040
:108A50000FFE02460B462046294603F0BBFC0446A7
:108A60000D46D3E759460023E8E700BF64E50D0053
:108A7000FFFFEF7F68E50D00FFFFEF416CE50D00A4
:108A8000FFFFEFC10000E03F45DB0D000000244088
:108A900038B5044610EE100ACDB203F0FBFD41ECF0
:108AA000100B29462046BDE83840FFF729BFC9B260
:108AB000FFF726BF38B5C9B20546FFF721FF0446C8
:108AC0002846FFF7B6FE204438BD38B5044610EE00
:108AD000100A0D4603F0DEFD41EC100B294620463E
:108AE000BDE83840FFF7E6BF2DE9F04186B000AFA2
:108AF00005460E46381D142114463B60FFF7F6FB71
:108B000013280ED8391D2846FFF776FE04461EB1FD
:108B10002846FFF78EFE044420461837BD46BDE8C0
:108B2000F08100F1080323F00703E846ADEB030DE5
:108B30002246411C3B686846FFF7D8FB6946284639
:108B4000FFF75AFE0446C546E1E70000014B024A22
:108B50001A607047A4E5032070E50D0008B50020F9
:108B6000FFF79CFB28B1FFF789FB80F00100C0B242
:108B700008BD0120FCE710B50020FFF773F904469B
:108B8000A0B9FFF7CFFA012810D12046FFF7F2FA7B
:108B900060B9FFF7E3FF10B9FFF768FBF9E7FFF7EC
:108BA000DDFFBDE810400020FFF75CB9204610BD96
:108BB0001FB5FFF7E0FF10220021684604F016FC05
:108BC00000216846FFF756F9009805B05DF804FBF0
:108BD000024B1A68024B1A60704700BFD4E30320AF
:108BE000A8E503208A4210B507D0029C401AE41A77
:108BF0006043521A90FBF2F0184410BD0021FFF7B9
:108C0000A1BA10B58368044613B103220146984700
:108C1000204610BD13B50B460246D0E900016C4654
:108C200084E8030093E8030082E8030094E803006B
:108C300083E8030002B010BD014B00229A60704728
:108C4000ACE50320014B1860704700BFDCE3032054
:108C500008B50B4B43B100F003FC03681B69984750
:108C6000002801DDAFF30080064B43B100F0EAFCC1
:108C700003681B699847002801DDAFF3008008BD39
:108C8000000000000000000008B5FFF7E1FFFFF75B
:108C9000C9F8014B186008BD34E703200548064AAF
:108CA000064908B5121A04F093FB054B054A1A60F1
:108CB00008BD00BF00F4032004F4032088EB0D007E
:108CC00000F403201E1C279A07B5002300931A46C0
:108CD0006FF07701FFF760FA03B05DF804FB000066
:108CE00007B543880A2B08D0502B0BD1094B1B68C2
:108CF0004BB103B05DF804EB1847FFF7E5FF03B095
:108D00005DF804FB002300931A466FF07701FFF72C
:108D100043FAF4E7C0E5032010B512480021FFF73D
:108D200005FB114B1A68114B9A42114B0CBF0122E3
:108D300000221A7001D0FFF7B1FFFFF763F8044675
:108D400004F05CFB0B4B13B12046AFF30080002115
:108D50000848FFF7ABFABDE8104007480021FFF7CD
:108D600011BA00BF458C0D0000F403201E1C279A89
:108D7000BCE5032000000000E18C0D0070470020DE
:108D8000704710B51021044600F0AAFE204610BD21
:108D900008B5FFF7F6FF08BD30B500224FF69C740A
:108DA000026084808D888C800C68858004600A60F5
:108DB00030BD10B504460068FFF788FA204610BDA4
:108DC00038B5C468F4B12378022B03D104F10C0048
:108DD000FFF7EFFF656835B12846FFF712FF102156
:108DE000284600F07DFEA56835B12846FFF709FF4B
:108DF0001021284600F074FE20461421BDE83840BA
:108E000000F06EBE38BD73B50E46044656F8043BFE
:108E100000930D4601A83146FFF7BDFC019A009B67
:108E20006260236001A8002301930093FFF7BAFC5E
:108E30003046FFF7B7FC2846082100F051FE2046D7
:108E400002B070BD826810B50AB900F04DFEBDE8F1
:108E50001040C368184708B5006800F11001FFF71B
:108E6000F1FF08BD826810B50AB900F03DFEBDE80B
:108E70001040C368184708B5006800F11001FFF7FB
:108E8000F1FF08BD38B500230446036010200D46ED
:108E9000FBF701F928B10123C0E90133024B03605C
:108EA000C5602060204638BD98E50D0038B5002328
:108EB00083608B6804460D462BB102229847EB680D
:108EC000E360AB68A360204638BD0000F0B589B010
:108ED00004686846FFF760FF4FF00203D4E84F2FA5
:108EE000002A03D1C4E8413F0029F7D125D104F17C
:108EF0000C0569462846FFF74FFFBFF35B8F012340
:108F00006370002004F10803BFF35B8F53E8006F28
:108F100043E80002002AF9D1BFF35B8F6EB1FFF77F
:108F200019F978B129463046FFF78CFF3046FFF734
:108F300068FE1021304600F0D3FD6846FFF739FF88
:108F400009B0F0BD314602A8FFF7B0FFE068B4F900
:108F5000105008B104F076FA06901020ADF81C50BD
:108F6000FBF799F80546E8B1002787601820FBF762
:108F700092F8044688B10146876002A8FFF74AFECE
:108F8000049BA268A360059B049206A9E268E360C3
:108F900004F110000592FFF7FFFE084BEB60084B51
:108FA0002C60AB6006A8FFF704FF02A8FFF729FEBC
:108FB000002229460348FFF7D5F8B7E7578E0D0082
:108FC000ED900D0091960D002DE9F0478AB0054611
:108FD0009DF848900C4617469846FFF74FF907AEA4
:108FE000824638BB4FF62E73059005A93046ADF882
:108FF0001830FFF7D1FE1420FBF74DF8044648B1B6
:10900000022303700123C0E901AA437031460C30EA
:10901000FFF7C2FE2846214640F8044BFFF732FF17
:109020003046FFF7C6FE05A8FFF7C3FE28460AB084
:10903000BDE8F0870C234FF0000A1420CDE908AA00
:109040000793FBF728F8014628B1C0E901AA80F888
:1090500000A080F801A004A80391FFF713FF224BA2
:1090600008930820FBF717F8824628B1039B40F8C5
:10907000043B04A9FFF78FFB00965FFA89F3424691
:1090800039462046CDF824A0FFF700F9B8B9039B74
:109090005B7803F0FF0293B94FF69C7305A903A810
:1090A0000592ADF81830FFF711FF05A8FFF781FE14
:1090B00005A80999FFF7A7FE06A8FFF773FB039B16
:1090C000059304A906A8FFF766FB059B069A2B608B
:1090D0006A60002306A806930593FFF763FB04A8C4
:1090E000FFF760FBA2E700BFB1910D00022AF8B5BF
:1090F000054607D0032A18D0012A01D10B68036066
:109100000020F8BD18200E68FAF7C5FF044650B1DC
:109110003146FFF7CBFE3069B6F9147008B104F0A0
:1091200091F92061A7822C60EAE70468002CE7D05F
:1091300004F11000FFF73DFE2046FFF762FD182105
:10914000204600F0CDFCDBE738B5002383608B6858
:1091500004460D462BB102229847EB68E360AB68EA
:10916000A360204638BD022A70B5044607D0032A02
:1091700012D0012A01D10B680360002070BD1420B9
:109180000E68FAF788FF054620B13146FFF7DCFF8D
:10919000337C2B742560F0E70468002CEDD020466A
:1091A000FFF72FFD1421204600F09AFCE5E70000B0
:1091B000F0B589B004460D4601A81146FFF723FE1D
:1091C000A4B124B21DB1284604F03CF9054601A81B
:1091D00003A90395ADF81040FFF778FE03A8FFF749
:1091E000E8FD02A8FFF7DEFA09B0F0BD019D0123FA
:1091F000D5E84F2F002A03D1C5E8413F0029F7D118
:10920000EFD12B73BFF35B8F6B702B1DBFF35B8FA5
:1092100053E8006F43E80042002AF9D1BFF35B8FA7
:10922000002EDED02046FEF795FF074660B105F11F
:109230000C013046FFF716FE3046FFF7E2FC102126
:10924000304600F04DFCCCE7314603A8FFF77CFF29
:109250002B7B8DF81C301020FAF71DFF0546D0B18E
:1092600087601420FAF717FF044678B1876001463B
:1092700003A8FFF7CFFC059BA268A360069B05929D
:10928000E268E3609DF81C3006922374064BEB60A5
:10929000064B2C60AB6003A8FFF7B3FC0022294605
:1092A0000348FEF75FFFC7E7778E0D0067910D005B
:1092B00091960D00704710B51821044600F010FC7F
:1092C000204610BDF0B5037D062B8DB00E4600F193
:1092D00004074FF0000412D000F1080515F8011D35
:1092E0000A223046FFF7BDFAAF42044419D0002CE1
:1092F000F4D02E213046FFF795FA0444EEE72F23F1
:109300006A4639460A208DF80040FEF7CBFD6846D4
:1093100004F0B5F833680246DB6869463046984782
:10932000044620460DB0F0BD10B5054B0446112291
:1093300040F8043B002104F059F8204610BD00BF5E
:10934000B4E50D000346074A10B543F8042B01F1BC
:10935000100251F8044B43F8044B9142F9D10A78BA
:109360001A7010BDB4E50D0010B59DF8084044EA30
:10937000032343EA024242EA016104234160037588
:1093800010BD13B5CB7800938B784A780978FFF736
:10939000EBFF02B010BD417470477047704708B5CD
:1093A0000021007CFEF796FE40EAE07008BD08B59B
:1093B0000121007CFEF78EFE40EAE07008BD08B592
:1093C000007CFEF77FFE20EAE07008BD08B5007C57
:1093D000FEF770FE20EAE07008BD13B50446007C7D
:1093E0000191FEF76FFE0028019901DC607C20B13D
:1093F000207CFEF777FE20EAE07002B010BD007C12
:10940000FEF778BE10B51421044600F069FB204633
:1094100010BD000010B54FF47A73044608460021D1
:10942000C4E90113044B23600123207463741146C3
:10943000FEF730FE204610BDC8E50D00007C00227E
:10944000FEF730BE007CFEF75DBEFFF7FBBF10B538
:1094500014220446002103F0C9FF204610BD00007D
:1094600010B50F4C88B003A8FFF7F1FF2178BFF3C8
:109470005B8F11F001010FD120460191FAF71CFE1C
:10948000019948B103AA0748FFF7C4FF2046FAF73D
:1094900018FE054803F096FF024808B010BD00BF53
:1094A000C4E50320C8E503209B930D00004700009E
:1094B0002DE9FF4100241D460F4690460646FEF763
:1094C00091FCA5424FF00403ADF80D408DF80C302F
:1094D0008DF80F40A2BF9DF828308DF80E3003ACF8
:1094E0000749009443463A463046A8BF8DF80D50D0
:1094F000FEF770FCB0FA80F0400904B0BDE8F081DE
:10950000AD940D00002240681146FEF767BE0022B0
:1095100040681146FEF782BE002240681146FEF701
:109520008DBE40680022FEF781BE4068002281F0B7
:109530000101FEF76BBE002340681A461946FEF78C
:109540005DBE002340681A461946FEF74FBE002252
:1095500040681146FEF732BE406800220221FEF745
:1095600035BE002340681A46FEF720BE084B10B5F2
:10957000282422461846002103F038FF054B0480BA
:109580004FF0FF32426004225A60034A1A6010BD55
:10959000E4E50320DCE50320F8E50D0070474174A5
:1095A0007047704708B5007CFEF7BCFC20EAE0700D
:1095B00008BD08B5007CFEF78DFC20EAE07008BD10
:1095C00008B5007CFEF796FC40EAE07008BD08B5DF
:1095D000007CFEF787FC40EAE07008BD007CFEF7E7
:1095E00091BC37B5457C04462DB1207C03B0BDE865
:1095F0003040FEF767BC007C0191FEF793FC002829
:109600000199F2DC284603B030BD10B514210446A0
:1096100000F066FA204610BD10B54FF0000C04466D
:10962000084611464FF47A72C4E901C2044A226026
:109630000122207462741A46FEF73CFC204610BDDD
:1096400034E60D0013B50D4C2178BFF35B8F11F09C
:10965000010110D120460191FAF72EFD019950B178
:10966000074B084A0848FFF7D7FF2046FAF729FDBD
:10967000064803F0A7FE044802B010BD0CE6032024
:1096800094E6032010E6032018E70320A3950D00BD
:1096900010B5836804460BB900F026FAC3689847F2
:1096A000A3681BB10322214620469847204610217B
:1096B000BDE8104000F014BA7047F8B506461546EC
:1096C0000C468F18BC4206D0336814F8011B9B6807
:1096D00030469847F6E72846F8BD007C0022FEF7A2
:1096E00049BC007C0021FEF74DBC007C0021FEF748
:1096F00051BC007C0021FEF755BC007C0021FEF728
:1097000059BC10B51421044600F0EAF9204610BDFA
:1097100010B54FF47A73044608460021C4E90113DA
:10972000034B236020741146FEF754FC204610BD05
:1097300064E60D00007C0022FEF7FCBB0023007CE9
:109740001A461946FEF7FEBB7FB500221423CDE969
:109750000122ADF804300B788DF808304B68039384
:10976000CB680493007C0B7A059301A9FEF73AFCC1
:1097700007B05DF804FB1FB5003B8DF800104FF0FB
:109780006401039118BF0123694601928DF80830E6
:10979000FFF7DAFF05B05DF804FB0123FFF7EBBF2D
:1097A000007C0022FEF7D6BB007C0022FEF7DABB6D
:1097B0000121FFF7F9BF002340681A46FEF7F6BC07
:1097C000406800220221FEF701BD002240681146D8
:1097D000FEF7F4BC002240681146FEF7FFBC0023F0
:1097E00040681A461946FEF701BD002340681A4634
:1097F0001946FEF703BD40680021FEF727BD40680B
:109800000021FEF72BBD4068002281F00101FEF728
:10981000FDBC40680022FEF709BD002240681146E9
:10982000FEF70CBD002240681146FEF7F7BC2DE99B
:10983000F043002495B016460D460746FFF774FD29
:10984000214618220EA8009403F0D0FD4023CDE954
:109850000C3421466B460CAA3046FEF78BFA0446C0
:10986000002846D1024601216868FEF7B7FC0221B4
:10987000804622466868FEF7B1FC009E814621467C
:10988000002E36D0002934D17368022B03D00A2B66
:109890000BD0F669F4E7B8F1000F04D071693846CF
:1098A0000431FFF76EFD4146F3E7B9F1000F01D136
:1098B0004946EEE77469102201A803F097FD0623DC
:1098C0008DF8143001AD04F1080318341868596894
:1098D0002A4603C20833A3421546F7D101A906A8B8
:1098E00007ADFFF72FFD0FCD3C1D0FC42B68237074
:1098F000DEE70098FEF736FA384615B0BDE8F0838B
:10990000024B034A1A6000225A6070472CE703207A
:109910008CE60D00232813B502D9002002B010BD3B
:10992000A0F10B03022B1AD8174C2178BFF35B8FE1
:1099300011F001010BD120460191FAF7BDFB01990D
:1099400028B11248FEF73EFD2046FAF7BAFB0F4B4E
:109950001878FEF767FB0028DFD10120DEE7012839
:1099600009D800F099F80021007CFEF72BFB80F06D
:109970000100C0B2D2E709380128EED8FFF762FE35
:10998000007CFEF7C7FAF2E77CE5032080E50320C0
:10999000232838B504460D460AD8FF2908D0FFF71A
:1099A000B9FF28B129462046BDE83840FEF7F2B994
:1099B00038BD38B504460D46FEF7F4F9FF2810D03F
:1099C000062804D84D2323FA00F0C30709D4204603
:1099D000FFF7A0FF28B129462046BDE83840FEF732
:1099E000E9B938BD10B50446FEF7DCF9031FDBB258
:1099F000012B08D92046FFF78DFF20B12046BDE896
:109A00001040FEF7DFB9002010BD0D2810B5044648
:109A10009CBF0E34A4B22046FFF77CFF50B1032157
:109A20002046FEF7AFF9032804D12046BDE81040D8
:109A3000FEF7E0B9002010BD10B5084C2378BFF345
:109A40005B8FDB0708D42046FAF736FB20B1FEF720
:109A5000F1F92046FAF735FB014810BD38E703203D
:109A60003CE703207047000038B5002320254380E1
:109A7000142304460380856005610649284600F0EA
:109A800031F804496060284600F02CF8E060204678
:109A900038BD00BFC0E60D0030B50E4D2978BFF3CC
:109AA0005B8F11F0010487B011D12846FAF704FB4F
:109AB00068B101A8FFF7D8FF01AA21460648FFF7C1
:109AC00027FE2846FAF7FDFA044803F07BFC02481B
:109AD00007B030BD40E7032044E70320659A0D003E
