:02000002D0002C
:1040000000400D007CE00D00000006000D000501E1
:0840100004019A080000000001
:04401800E4C90D00EA
:1040200009480A49884208B505D0094A824202D0A7
:10403000121A08F01BFC0748074A0021121A08F060
:1040400023FC014808BD00BFD8E30320DCDF0D00DE
:1040500050E4032050E40320EDE7032070B5074E41
:10406000074C04F08FFBA41BA4080025A54200D137
:1040700070BD56F8043B98470135F7E7A0DF0D0007
:10408000C4DF0D0001F092B908B500F03DFFBDE8B6
:10409000084004F02FBB04F011B804F00FB804F08E
:1040A00015B8000008B5034A00210C2003F072FF88
:1040B000FEE700BFB57C0D000078B0FA80F0400943
:1040C000704701230370704710B5074C03F0FAFDE9
:1040D0002368C01A0F2806D9044A136801331360F5
:1040E00003F0F0FD206010BD54E4032060E40320E1
:1040F000F8B50C1E074616460CDA0A2A0AD12D21FD
:1041000004F04AF961420546F2B2384604F063F918
:104110002844F8BD21460025F6E7000038B504F034
:1041200039FC3649364C04F033F904F033FC0546CB
:10413000204601F0FDFCDFED337A60EE277A17EEC2
:10414000900A07F02BFD304B002207F0C9FB41EC31
:10415000100B0221284604F034FA04F01BFC2B4912
:1041600004F02DF904F016FC294904F011F904F0CB
:1041700011FC0546204601F009FDDFED267A80EEB0
:10418000277A022128469FED240A27EE000A04F030
:1041900009FA04F0FFFB214904F011F904F0FAFBDD
:1041A0001F4904F0F5F804F0F5FB9FED1E0A0546E3
:1041B000204601F0C5FD0221284604F0F3F904F081
:1041C000E9FB194904F0FBF804F0E4FB174904F09B
:1041D000DFF804F0DFFB0546204601F051FE022126
:1041E000284604F0DFF904F0D5FB114904F0E7F8A4
:1041F00004F0D0FBBDE8384004F0D5B8F8C90D0094
:1042000074E403206666E63F0000404009CA0D00E2
:104210000CCA0D0080E6C54700003E4418CA0D00D8
:104220001ECA0D0000507D4432CA0D0035CA0D0073
:1042300041CA0D0030B58BB06946424802F01EFA03
:1042400004F0A8FB404904F0BAF804F0A3FB3F498E
:1042500004F09EF804F09EFB694604F0B0F804F008
:1042600099FB3B4904F094F804F094FB039C002C68
:10427000054663DA2D2104F08FF861420A222846B0
:1042800004F0A9F8284604F08EF804F083FB3149C5
:1042900004F07EF804F07EFB049C002C05464FDA07
:1042A0002D2104F079F861420A22284604F093F89F
:1042B000284604F078F804F06DFB274904F068F80C
:1042C00004F068FB9DED060A022104F06BF904F08E
:1042D00061FB224904F073F804F05CFB204904F010
:1042E00057F804F057FB9DED070A022104F05AF934
:1042F00004F050FB194904F062F804F04BFB194933
:1043000004F046F804F046FB9DED080A022104F093
:1043100049F904F03FFB114904F051F804F03AFB6D
:10432000094904F04CF804F035FB0F4904F047F854
:104330004FF4FA7004F0B2F90BB030BD21469DE79E
:104340002146B1E7B8E4032044CA0D0069CA0D0054
:1043500078CA0D0087CA0D0096CA0D00A5CA0D00C7
:10436000AACA0D00B9CA0D00B3CB0D0038B504467A
:1043700004F010FB4C494D4D04F021F804F00AFB09
:104380004B4904F005F804F005FB0A22B4F90010CB
:10439000FFF7AEFE04F0FEFA294603F0F9FF04F041
:1043A000F9FA0A22B4F90210FFF7A2FE04F0F2FAB9
:1043B000294603F0EDFF04F0EDFA0A22B4F90410E7
:1043C000FFF796FE04F0E6FA294603F0E1FF04F059
:1043D000E1FA384903F0DCFF04F0DCFA0A22B4F910
:1043E0000C10FFF785FE04F0D5FA294603F0D0FF44
:1043F00004F0D0FA0A22B4F90E10FFF779FE04F0A7
:10440000C9FA294603F0C4FF04F0C4FA0A22B4F939
:104410001010FFF76DFE04F0BDFA294603F0B8FF57
:1044200004F0B8FA244903F0B3FF04F0B3FA0A2207
:10443000B4F90610FFF75CFE04F0ACFA294603F06D
:10444000A7FF04F0A7FA0A22B4F90810FFF750FEFC
:1044500004F0A0FA294603F09BFF04F09BFA0A221D
:10446000B4F90A10FFF744FE04F094FA294603F069
:104470008FFF04F08FFA114903F08AFF04F08AFAE3
:104480000A22B4F91210FFF733FE04F083FA0C4944
:1044900003F07EFF04F07EFAB4F914100A22BDE89E
:1044A0003840FFF725BE00BFC8CA0D0076CA0D0010
:1044B000DFCA0D00EFCA0D00F7CA0D00FECA0D00DD
:1044C0000ECB0D00152808B506DC04F063FA184978
:1044D000BDE8084003F073BF422803DC04F05AFA39
:1044E0001449F5E76F2803DC04F054FA1249EFE7AA
:1044F0009C2803DC04F04EFA1049E9E7D32803DCDA
:1045000004F048FA0E49E3E7F62803DC04F042FA27
:104510000C49DDE7B0F5927F03DA04F03BFA0A4973
:10452000D6E7B0F5A87FD0DC04F034FA0749CFE72E
:104530001CCB0D001ECB0D001FCB0D0021CB0D00A1
:1045400024CB0D0026CB0D002ACB0D0029CB0D006E
:1045500012B903689B681847D2B203F03CBF000051
:104560001FB500238DF80F308DF80E308DF80D300B
:104570008DF80C300DF10F030DF10D0203A9234846
:1045800000930DF10E0302F0F8F904F003FA20494C
:1045900003F0FEFE9DF80C3023B904F0FBF91D4931
:1045A00003F0F6FE04F0F6F91B4903F0F1FE04F007
:1045B000F1F90A229DF80C10FFF7CAFF04F0EAF99E
:1045C000164903F0E5FE04F0E5F90A229DF80D1006
:1045D000FFF7BEFF04F0DEF9114903F0D9FE04F045
:1045E000D9F90A229DF80E10FFF7B2FF04F0D2F9B4
:1045F0000C4903F0CDFE04F0CDF99DF80F100A220E
:10460000FFF7A6FF05B05DF804FB00BFB8E4032088
:10461000B2CB0D002CCB0D002FCB0D0034CB0D00F9
:1046200038CB0D003CCB0D002DE9F04F2DED088B64
:1046300097B0D74CD74FDFF89CB3DFF89CA39FED22
:10464000D69A00238DF80F300DF10F0300930DF172
:104650000D020DF10E0303A9204602F08EF921464A
:1046600004A8082202F0E4FA21460AA8142202F063
:10467000DFFA214610A80E2202F0DAFADDE908017D
:10468000B9A3D3E9002307F00BFCB7A3D3E90023B8
:1046900041EC180BDDE9040107F002FCB0EE481A0A
:1046A000F0EE681A41EC100B04F036FD53EC102BC1
:1046B00010EE100A03F100410022B84B07F0C6FAD1
:1046C000ABA3D3E9002307F0EBFBB54B002207F0C7
:1046D000BDFA07F0B3FDA4A3D3E900233860DDE9F8
:1046E000080107F0DDFBA0A3D3E9002341EC180B80
:1046F000DDE9060107F0D4FBB0EE481AF0EE681AC7
:1047000041EC100B04F008FD53EC102B10EE100AD6
:1047100003F100410022A14B07F098FA94A3D3E9DA
:10472000002307F0BDFB00229D4B07F08FFA07F036
:1047300085FD9C4B9C4918600646086807F02EFAD8
:104740008DA3D3E9002307F081FA044630460D46D5
:1047500007F024FA8AA3D3E9002307F077FA024688
:104760000B462046294607F0BBF807F067FDCBF85B
:1047700000008E48006807F011FA7FA3D3E90023F8
:1047800007F064FA044638680D4607F007FA7CA380
:10479000D3E9002307F05AFA02460B462046294681
:1047A00007F09EF807F04AFD814DCAF8000003F0BB
:1047B00089FA2B687F4CC01A07F0CEF97E4B002295
:1047C00007F06EFB07F03AFD206003F07BFA2860EB
:1047D000206807F0E3F9DDE90C2304460D4607F0F5
:1047E00035FA0F4675490646086807F0D7F932468C
:1047F0003B4607F075F860A3D3E9002307F026FADB
:10480000644B80461868894607F0C8F95CA3D3E971
:10481000002307F01BFA02460B464046494607F0C4
:104820005FF807F00BFD6549DDE90A2308EE900A01
:1048300008602046294607F009FA044660480D46FC
:10484000006807F0ABF922462B4607F047F84AA369
:10485000D3E9002307F0FAF9524A804610688946E6
:1048600007F09CF946A3D3E9002307F0EFF90246CD
:104870000B464046494607F033F807F0DFFC514944
:1048800008EE100A4E4880ED008A086807F086F9A5
:1048900032463B4607F024F807F0D0FC4A4F494E19
:1048A0003060386807F07AF922462B4607F016F890
:1048B00007F0C4FCC8EE097A386017EE900A07F0DA
:1048C0006DF931A3D3E9002307F0C0F907F0B6FC76
:1048D000C8EE897A3D4B186008EE100A17EE900A70
:1048E00007F05CF928A3D3E9002307F0AFF907F03C
:1048F000A5FC374B00EE100A186008EE900A04F091
:1049000079FB9DED127B10EE108AB0EE479AF0EE27
:10491000679AB0EE480A04F0B5FB10EE100A07F0F3
:104920003DF9B0EE680A41EC1A0B04F0ABFB10EE57
:10493000100A07F033F99DED147BB0EE480AB0EE93
:1049400047BAF0EE67BA06460F4604F053FB10EE86
:10495000100A07F023F9044640460D4607F01EF9F9
:104960003CE000BFAFF300809A9999999999234050
:1049700050455254FB210940666666666666EE3F06
:104980009A9999999999A93F1F85EB51B81E194099
:10499000B8E403206CE503200000B4430000E03FCE
:1049A0000080764050E5032048E5032064E50320BD
:1049B0003CE5032030E5032000408F405CE5032008
:1049C00040E5032068E503204CE5032054E503207F
:1049D00070E5032044E5032060E50320DDE91023B2
:1049E00007F034F953EC1A2B8046894651EC190B29
:1049F00007F02CF932463B4607F028F902460B46F1
:104A00004046494606F06AFF2246804689462B46C4
:104A100051EC1B0B07F01AF932463B4607F016F92A
:104A200002460B464046494606F05AFF07F006FC90
:104A3000934B944F186008EE100A22462B4651EC17
:104A4000190B07F003F953EC1B2B04460D4651ECF0
:104A50001A0B07F0FBF802460B462046294606F0E3
:104A60003FFF07F0EBFB884B884D1860F0EE480ADB
:104A700000EE100A04F00AFD10EE100A07F08EF89E
:104A80007BA3D3E9002307F00BFA814B002207F048
:104A9000DDF807F0D3FB286003F07CFF76A3D3E9B1
:104AA00000230446DDE9040107F0FAF941EC100B9C
:104AB0002046784C022103F084FD03F06BFF214671
:104AC00003F066FC03F066FF6BA3D3E90023064600
:104AD000DDE9060107F0E4F941EC100B0221304654
:104AE00003F06FFD03F056FF214603F051FC03F085
:104AF00051FF61A3D3E900230646DDE9080107F071
:104B0000CFF941EC100B0221304603F05AFD03F0BF
:104B100041FF214603F03CFC03F03CFF0A229DF8D4
:104B20000E105D4EFFF714FD03F034FF214603F035
:104B30002FFC03F02FFF0A229DF80D10FFF708FD50
:104B400003F028FF214603F023FC03F023FF0A2291
:104B50009DF80F10FFF7FCFC03F01CFF214603F04B
:104B600017FC03F017FF0A229DF80C10FFF7F0FC6A
:104B700003F010FF214603F00BFC03F00BFF474B43
:104B8000022193ED000A03F00DFD03F003FF21461F
:104B900003F0FEFB03F0FEFE414A022192ED000A03
:104BA00003F000FD03F0F6FE214603F0F1FB03F0F5
:104BB000F1FE9AED000A022103F0F4FC03F0EAFE94
:104BC000214603F0E5FB03F0E5FE9BED000A022120
:104BD00003F0E8FC03F0DEFE214603F0D9FB03F00E
:104BE000D9FE96ED000A022103F0DCFC03F0D2FEB0
:104BF000214603F0CDFB03F0CDFE97ED000A022124
:104C000003F0D0FC03F0C6FE214603F0C1FB03F025
:104C1000C1FE244B022193ED000A03F0C3FC03F014
:104C2000B9FE214603F0B4FB03F0B4FE1E4B022193
:104C300093ED000A03F0B6FC03F0ACFE214603F04E
:104C4000A7FB03F0A7FE95ED000A022103F0C7FCC5
:104C50001649DBF80030164895ED000A0B60DAF8CB
:104C60000030036017B0BDEC088BBDE8F08F00BFCB
:104C70001F85EB51B81E19409A999999999923402B
:104C80006CE403204CE5032070E4032058E5032086
:104C90000080764040CB0D0068E503206CE50320E2
:104CA00050E503205CE5032040E5032048E50320B0
:104CB00064E5032038B50546FFF74AFC044628465C
:104CC00003F071FB204438BD13B50023214C8DF84F
:104CD00007300DF106020DF105018DF806308DF853
:104CE00005301D480DF1070301F027FE03F052FEC9
:104CF000214603F064FB03F04DFE184903F048FB26
:104D000003F048FE10229DF80510FFF7D3FF03F0D3
:104D100041FE134903F03CFB03F03CFE10229DF8DA
:104D20000610FFF7C7FF03F035FE0E4903F030FB16
:104D300003F030FE10229DF80710FFF7BBFF03F0D1
:104D400029FE214603F03BFB4FF4FA7003F0A6FC6A
:104D500002B010BDB3CB0D00B8E4032042CB0D0070
:104D600054CB0D0066CB0D001FB5104802F0FAFEC3
:104D70000F4800F009FE04F015F90E4A0E49CDE97E
:104D800001214FF0FF3203460092402180220B4860
:104D900002F062FE04F006F9034609482822372192
:104DA00005B05DF804EB01F091BC00BF34E50320D1
:104DB00074E40320801A0600A0860100D8E40320D2
:104DC000B8E4032038B53D4C3D4D204602F0EEF8E6
:104DD000204602F05EFD00233A492361204603F09D
:104DE000D7FA284600F0A4FEDFED377A60EE277A86
:104DF00017EE900A06F0D2FE344B002206F070FD4A
:104E000041EC100B0221204603F0DBFB3049204629
:104E100003F0D5FA2F49204603F0BAFA284600F0ED
:104E2000B5FEDFED2D7A80EE277A022120469FED38
:104E30002B0A27EE000A03F0B5FB2949204603F0B0
:104E4000BEFA2849204603F0A3FA28469FED260A19
:104E500000F076FF0221204603F0A4FB2349204600
:104E600003F0ADFA2249204603F092FA284601F0F9
:104E700007F80221204603F095FB1E49204603F067
:104E80009EFA03F087FD03F08EFA1B49204603F0DB
:104E900096FA03F07FFD03F086FA1849204603F0E6
:104EA00077FA174B204693ED000A022103F07AFBB4
:104EB0002046BDE8384002F0ECBC00BFD8E4032037
:104EC00074E4032078CB0D006666E63F00004040A6
:104ED00081CB0D0086CB0D0080E6C54700003E4427
:104EE00018CA0D0026CA0D0000507D4432CA0D00BC
:104EF00035CA0D0041CA0D0090CB0D00A1CB0D00AD
:104F0000D0E40320000000002DE9F0412DED028BDC
:104F1000CF4BD04D1878D04CD04E9CB0012103F02F
:104F2000CEFFCF4B187803F0F6FF4FF4B473286030
:104F300000930023194640F6FF7203F0A3FBC94B10
:104F4000B0F5B47F1860C8BFA0F5B47020602368C6
:104F5000002BBCBF03F5B473236002F0B3FE3368CB
:104F6000C01AC14B1B88984263D9C04F23683A6866
:104F70009B1A002BB8BF5B42052B2CDD03F00AFD0A
:104F80002D68002D804680F2FA812D2103F004FA6D
:104F900069420A22404603F01EFA03F0FBFCB449C2
:104FA00003F0F6F903F0F6FC2568002D804680F248
:104FB000E8812D2103F0F0F969420A22404603F00E
:104FC0000AFA03F0E7FCAA4903F0E2F92068FFF7C8
:104FD00079FA23683B60A74CA74D206806F0BCFD1A
:104FE00099A3D3E9002306F031FE07F027F92860E2
:104FF00003F0D0FC0A22216803F0EDF903F0CAFCAB
:105000009B4903F0C5F903F0C5FC95ED000A0221A8
:1050100003F0C8FA03F0BEFC954903F0B9F903F0B8
:10502000B9FC964903F0CBF902F04CFE0023306046
:10503000236013A9924801F06BFEFFF76FF8FFF7AA
:10504000C1FE904B186803F029FB042003F050FFC9
:1050500018B98D498D4803F09BF9032003F048FFF0
:1050600018B98B49894803F093F9022003F040FFF7
:1050700018B98849854803F08BF90A2003F00EFB24
:1050800002F040FE81489FED848A02F002FC03F0AA
:1050900081FC824903F083F903F07CFC9DED180A42
:1050A000022138EE400A03F07DFA03F073FC7C49DC
:1050B00003F075F903F06EFC9DED190A022103F06F
:1050C00071FA03F067FC764903F069F903F062FCBA
:1050D0009DED1A0A022103F065FA03F05BFC7149A9
:1050E00003F077F9664801F047FD8DED0A0B8DED71
:1050F0000C1B8DED0E2B8DED103B03F04BFC6A4924
:1051000003F04DF903F046FC0446DDE90A0107F01F
:1051100095F8022100EE100A204603F043FA03F04E
:1051200039FC5F4903F03BF903F034FC0446DDE948
:105130000C0107F083F8022100EE100A204603F06C
:1051400031FA03F027FC564903F029F903F022FC59
:105150000446DDE90E0107F071F8022100EE100AA5
:10516000204603F01FFA03F015FC4D4903F017F930
:1051700003F010FC0446DDE9100107F05FF802219E
:1051800000EE100A204603F00DFA03F003FC454937
:10519000464C03F01EF900238DF80F300DF10F037C
:1051A0000DF10D0203A9009335480DF10E0301F036
:1051B000E4FB03F0EFFB3E4903F0F1F803F0EAFBF8
:1051C0000A229DF80C10FFF7C3F903F0E3FB344902
:1051D00003F0E5F803F0DEFB0A229DF80D10FFF75F
:1051E000B7F903F0D7FB2E4903F0D9F803F0D2FB4F
:1051F0000A229DF80E10FFF7ABF903F0CBFB28490C
:1052000003F0CDF803F0C6FB0A229DF80F10FFF75C
:105210009FF903F0BFFB234903F0DBF803F0BAFB6F
:10522000244903F0CCF813A9154801F071FD03F0EF
:10523000B1FB214903F0ACF803F0ACFB9DED180A7B
:105240003CE000BFAFF30080CDCCCCCCCCCCDC3F7D
:10525000D9E3032064E4032050E4032074E5032031
:10526000D8E3032058E40320DCE303205CE40320BC
:10527000B1CB0D0060E4032068E40320B4CB0D0043
:10528000B8E40320D4E40320B9CB0D00D8E4032014
:10529000B3D00D00BBCB0D000000B443BDCB0D005F
:1052A000CBCB0D00B3CB0D00CECB0D00D0E4032053
:1052B000DBCB0D00E9CB0D00ECCB0D00042103F09E
:1052C00071F903F067FB304903F062F803F062FB09
:1052D0009DED190A042103F065F903F05BFB2B49EE
:1052E00003F056F803F056FB9DED1A0A042103F073
:1052F00059F903F04FFB264903F061F803F04AFB2C
:10530000244903F05CF89FED247ADDED187A77EEFE
:10531000877AF4EEC87AF1EE10FAC8BF77EEC87A51
:10532000C4ED007A03F036FB1C4903F031F803F0BA
:1053300031FB042194ED000A194C03F033F9FFF717
:1053400073F984ED000A03F025FB164903F020F8F9
:1053500003F020FB94ED000A022103F023F904A9D5
:10536000114801F05BFB04A8FFF700F84FF47A70D6
:1053700003F094F91CB0BDEC028BBDE8F081294626
:1053800007E6294619E600BFF0CB0D00F5CB0D006E
:10539000B3CB0D00E9CB0D0000808E43FACB0D009E
:1053A000CCE403200DCC0D00B8E403202DE9F0433C
:1053B000CF4B01241C60CF4BA3B01878002103F021
:1053C0006DFDCD4B21461878CC4C03F067FD03F002
:1053D000E1FACB4902F0F3FF2078002103F05EFDF3
:1053E0000023009302224FF0FF33C649207803F0D8
:1053F000F9FA03F0CFFAC44902F0E1FF03F0CAFA68
:10540000C24902F0DCFF03F0C5FA4FF4E13103F0CA
:10541000AFFA03F0BFFA03F0B2FA0028F9D0BC4C9F
:1054200003F0B8FABB4902F0D4FF03F0B3FABA496B
:1054300002F0C5FF01223C21204602F021FB03F0CF
:10544000A9FAB64902F0BBFF204602F022FA4FF457
:105450007A7003F023F9204601F0A8FD204602F0FF
:1054600018FA0121204601F0A7FF03F093FAAC4996
:1054700002F0A5FF0221042003F010FD0221032009
:1054800003F00CFD0221084603F008FD012120462F
:1054900002F0F9F900224FF00113C4E90423A149F5
:1054A000204602F075FFA049204602F071FF9F4997
:1054B000204602F084FF9E49204602F080FF2046ED
:1054C00002F0E7F99B4800F0E0FE78BB03F062FAD7
:1054D000994902F074FF03F05DFA984902F058FF11
:1054E00003F058FA0446934800F052FA102201469D
:1054F000204602F070FF204602F055FF03F04AFA02
:105500008F4902F045FF03F045FA8E4902F040FF53
:1055100003F040FA8C4902F03BFF03F03BFA8B4961
:1055200002F036FF0A2003F0B9F8FBE703F032FA85
:105530004FF4165103F01CFA03F02CFA844902F0E0
:105540003EFF03F027FA834902F039FF03F02AFDFA
:1055500050210246804802F009FB002868D003F081
:1055600019FA7E497C4DDFF82082DFF8209202F0A4
:1055700026FF03F00FFA7A4902F021FF0124A7B2B7
:105580003946284602F02AFB37285AD1C822394624
:10559000284602F001FB70B903F0FCF9494602F01D
:1055A000F7FE03F0F7F910220646214602F013FF3A
:1055B000304602F0F8FE0021284602F00FFB3722A9
:1055C00006463946284602F0E7FA70B903F0E2F9D8
:1055D000414602F0DDFE03F0DDF9102207462146C8
:1055E00002F0F9FE384602F0DEFEC82E29D103F0A3
:1055F000D1F95C4902F0E3FE03F0CCF95A4902F01C
:10560000C7FE03F0C7F90A22214602F0E4FE03F0C8
:10561000C1F9564902F0D3FE55480C2101F03CF97E
:105620000446A0B903F0B6F9524902F0B1FEFEE714
:1056300003F0B0F9504902F0C2FE0A2003F02EF840
:10564000FBE701344FF6FF739C4298D1D4E74FF447
:105650007A7003F023F80121454801F06BF8FEF75A
:10566000E9FD03F06FFC042202A9002002F03AFBDE
:105670003F4818A901F002F81C9A029B9A4200F0D8
:10568000878003F087F93D4902F099FE4FF4FA70E4
:1056900003F004F800244FF47A7002F0FFFFFEF7E5
:1056A000C9FDFFF711FB0121314801F043F802F079
:1056B00009FB334B0FA918602D4801F029FB002C82
:1056C00000F0848003F066F92E49294C02F077FE41
:1056D000204601F06AF9002840F0B8800FA9204662
:1056E00001F016FB4FF47A7002F0D8FFF0E700BF2C
:1056F0005CE40320D8E30320D9E30320DAE30320AA
:105700001ECC0D00C9400D003BCC0D0051CC0D004E
:10571000D8E403205FCC0D006BCC0D0088CC0D00CD
:1057200093CC0D009FCC0D00BECC0D00C9CC0D005C
:10573000D7CC0D0074E40320E6CC0D002ECD0D0077
:105740003FCD0D0086CD0D00B0CD0D00DACD0D00A2
:1057500004CE0D00B3CB0D0034E503201ACE0D00AE
:105760002BCE0D00AACE0D00BCCE0D00D3CE0D0069
:10577000B8E40320DACE0D0039CE0D0017CF0D00AE
:105780003CE50320CFCF0D008CCE0D0071CE0D0077
:1057900003F000F94D4902F012FE03F0D3FB16228C
:1057A00003A9042002F09EFA03A8FEF7DFFD03F030
:1057B000F1F8474902F003FE03A9464800F0DDFF77
:1057C00003F0E8F8444902F0FAFD64E703F0E2F878
:1057D0004249404C424E434D02F0F1FD204601F05B
:1057E000E4F898BB0FA9204601F092FA03F0D2F832
:1057F000314602F0CDFD03F0CDF89DED140A0421F1
:1058000002F0D0FE03F0C6F8294602F0C1FD03F015
:10581000C1F89DED150A042102F0C4FE03F0BAF8A8
:10582000314902F0B5FD03F0B5F89DED160A0421EB
:1058300002F0B8FEFEF794FE03F0ACF82B4902F03C
:10584000BEFD4FF47A7002F029FFC7E703F0A2F81B
:10585000274902F0B4FD03F09DF8264902F0AFFDA0
:1058600003F098F8244902F0AAFD09A9194801F0AB
:10587000D5F809A8FEF77AFD03F08CF81F4902F06D
:105880009EFD18A9134800F0F9FE1C9B029303F03B
:1058900059FB02A90422002002F02CFA03F052FB6B
:1058A000162209A9042002F025FA03F073F814491E
:1058B00002F085FD03F06EF8124902F080FD4FF40E
:1058C000FA7002F0EBFE23B0BDE8F0834DCF0D007F
:1058D0007BCF0D00B8E40320A9CF0D00FFCF0D0052
:1058E000ECCB0D00F0CB0D00F5CB0D00B3CB0D00D4
:1058F00019D00D0048CA0D002CD00D0042D00D006B
:105900006AD00D0081D00D00704710B510210446FB
:1059100003F06CFB204610BD0EB403B503AB0021B1
:1059200053F8042B019302F069FE02B05DF804EB1A
:1059300003B0704773B5044608462279A36832B1B4
:10594000A3B90B4902B0BDE8704002F021BD094A7D
:10595000267B094D0949647B012E18BF2946CDE9F4
:1059600000140749FFF7D8FF02B070BD054AEFE702
:10597000B5D00D00B3CB0D00B1D00D00ADD00D00F2
:10598000CBD00D00A4D00D004FF0FF330361704762
:105990008068704713B50B4C2178BFF35B8F11F013
:1059A00001010BD120460191FEF786FB019928B138
:1059B000054802F0EFFB2046FEF783FB024802B0E9
:1059C00010BD00BF78E503207CE503202DE9F04100
:1059D00090F91330013305460F4606D1FFF7DAFF81
:1059E0003946BDE8F04102F077BC002407264FF0AD
:1059F000010895F91300002180B203F060FA95F9CF
:105A0000110008FA06F1394080B203F058FA95F90E
:105A10001300012180B203F052FA95F912006400DC
:105A200080B2E4B203F064FA08B144F00104013E2C
:105A3000DFD22046BDE8F08108B5FFF7ABFFBDE837
:105A4000084002F0C2BB07B50190FFF7A3FF019920
:105A500003B05DF804EB02F0D1BB000030B590F963
:105A60001030013385B004460D4623D1017900681A
:105A700003F01CF92068036829469B689847206852
:105A800003F01CF921792068032203F00CF9206847
:105A900003685B6998470502206803685B6998475B
:105AA00028430502206803685B6998470543284638
:105AB00005B030BD90F9133001330CD11A4B00936F
:105AC00000238DF80430194B029368460123ADF88A
:105AD0000C30FFF7B8FF94F91000002180B203F0FA
:105AE000EEF945F080012046FFF770FF00212046C7
:105AF000FFF76CFF002105022046FFF767FF2843F0
:105B0000050200212046FFF761FF054394F91000CC
:105B1000012180B203F0D3F994F913300133C6D1D7
:105B2000FFF78AFFC3E700BFF0D00D0020A10700F8
:105B300010B5FA210446FFF791FFB0F5000F1ED013
:105B4000A18A9FED107A4B00C1EB2022C3EBE0113C
:105B5000B4F9163052435943B4F918301213534371
:105B60009B1303EBE123E36003EB830380331B12FE
:105B700007EE903AF8EEE77A87EE870A10BD9FEDC0
:105B8000020AFBE70000C8420000C07F2DE9F8438D
:105B90000446FFF7CDFFF7212046FFF75FFFB0F582
:105BA000000F054600F0BF80E068B4F91C60B0F556
:105BB000FA334FEAE07141F1FF32A3FB038903FBA3
:105BC00002F109EB4109F71706FB02F103FB07118C
:105BD000A6FB03670F44390341EA16513003B4F9B9
:105BE0001E60F71706FB09FC08FB07CCA6FB08673D
:105BF00067444FEA162C4CEA076C668B4FEA272E57
:105C00001CEB00004EEB010E00304EF5004EA0FBE9
:105C1000060106FB0E114E10CF1756EA070100F0E1
:105C20008580B4F9240000FB09FCC11708FB01CCF6
:105C3000A0FB0801B4F922804FEAE87908FB02F2E0
:105C400003FB0922A8FB0389914461444FEA4842BF
:105C50004FEA494C2D111218C5F580154CEAD83C75
:105C6000B4F920804CEB010C0023E9179B184FEA94
:105C7000C17E4FEAC5704FEAC80141EB0C0C4EEAF9
:105C8000550EC01A40F635436EEB0C0EA0FB030117
:105C900003FB0E1132463B4606F02EFCB4F92A20D7
:105CA0004D13460B46EAC14602FB05F7D31706FB28
:105CB0000377A2FB06233B44554306FB0355A2FB97
:105CC00006232B44550E45EAC315B4F92820B4F930
:105CD00026402D184FEA636641EB0606D317514361
:105CE00000FB0311A2FB00230B44D10C41EA43311A
:105CF0006D184FEAE34046EB00032A0AE51742EA33
:105D00000362191220012B0143EA1473801843EB3C
:105D1000010106F0B3FB9FED070A07EE900A27EE9C
:105D2000800ABDE8F8839FED040AFAE79FED030AB5
:105D3000F7E700BF0000803B0000C07F00000000CC
:105D400008B52DED028BB0EE408AFFF71FFF9FEDE7
:105D5000167AC0EE077AC7EE887A17EE900A05F039
:105D60001DFF9FED0D1B41EC100B03F0D9F90F49FE
:105D700053EC102B002005F0B1FD09A3D3E900235B
:105D800005F064FF06F05AFABDEC028B00EE100A33
:105D900008BD00BFAFF30080EBE2361AC05BC83F1E
:105DA0000000000040A5E5400000C8420000F03FB0
:105DB00030B590F91030013385B004460D461FD13F
:105DC0000179006802F072FF2068036829469B6829
:105DD0009847206802F072FF21792068022202F0C1
:105DE00062FF206803685B6998470546206803687E
:105DF0005B69984740EA052085B2284605B030BD6A
:105E000090F9133001330CD1184B009300238DF817
:105E10000430174B029368460123ADF80C30FFF7AE
:105E200012FE94F91000002180B203F048F845F00A
:105E300080012046FFF7CAFD00212046FFF7C6FD7E
:105E4000002105462046FFF7C1FD40EA052085B246
:105E500094F91000012180B203F031F894F9133065
:105E60000133CAD1FFF7E8FDC7E700BFF0D00D004E
:105E700020A1070008B5FFF79BFF40BA80B208BD1C
:105E800038B50446FFF754FEFD212046FFF790FF8A
:105E9000B0F5004F38D0B4F93250E268B4F934307C
:105EA0002D05A2F59632C5EB803002FB130303F5F6
:105EB0008043D91394F830305343DB1203F500408C
:105EC00094F9363053439B1243439B1203F500125F
:105ED000B4F92E30534303F500539B134B43DA13AD
:105EE00094F82C105243D2114A43A3EB221323EA15
:105EF000E373B3F1C85FA8BF4FF0C8531B1300EEA4
:105F0000103ABAEECB0A38BD9FED010AFBE700BF9D
:105F10000000C07F30B590F91030013385B00446E1
:105F20000D4618D10179006802F0C0FE20680368B0
:105F300029469B689847206802F0C0FE21792068B6
:105F4000012202F0B0FE206803685B699847C5B281
:105F5000284605B030BD90F9133001330CD1154BF4
:105F6000009300238DF80430134B029368460123FD
:105F7000ADF80C30FFF767FD94F91000002180B2F6
:105F800002F09DFF45F080012046FFF71FFD002134
:105F90002046FFF71BFD054694F91000012180B251
:105FA00002F08DFF94F913300133D1D1FFF744FD96
:105FB000CEE700BFF0D00D0020A1070008B5F32107
:105FC000FFF7A8FF00F0010008BD38B5882104469E
:105FD000FFF750FF8A21A0822046FFF74BFF8C215C
:105FE000E0822046FFF746FF8E2120832046FFF700
:105FF00041FF902160832046FFF73CFF9221A08360
:106000002046FFF737FF9421E0832046FFF732FF59
:10601000962120842046FFF72DFF9821608420469A
:10602000FFF728FF9A21A0842046FFF723FF9C2139
:10603000E0842046FFF71EFF9E2120852046FFF7C3
:1060400019FFA12160852046FFF764FFE12184F854
:106050002C002046FFF70EFFE321E0852046FFF7E6
:1060600059FFE42184F830002046FFF753FFE52173
:1060700005462046FFF74EFF00F00F0343EA0510E8
:106080006086E6212046FFF745FFE52105462046CC
:10609000FFF740FF031143EA0510A086E7212046E1
:1060A000FFF738FF84F8360038BD00007FB590F95F
:1060B0001030013304460E46154612D101790068AE
:1060C00002F0F4FD2068036831469B689847206819
:1060D000036829469B689847206802F0EFFD04B0EA
:1060E00070BD90F9133001330CD1144B0093002391
:1060F0008DF80430124B029368460123ADF80C3042
:10610000FFF7A1FC94F91000002180B202F0D7FE45
:1061100006F07F012046FFF759FC29462046FFF78D
:1061200055FC94F91000012180B202F0C8FE94F9E8
:1061300013300133D3D1FFF77FFCD0E7F0D00D004F
:1061400020A10700F8B5DB0002F0070203F03803D6
:10615000134343EA81139DF8186080F83C3090F8AF
:1061600040309DF81C509DF8207066F3471380F86E
:106170004030ED0090F8383007F0070705F038059B
:1061800023F03F033D4304461D4380F8385006F09A
:106190000702F221FFF78AFF94F83820C2F3C20306
:1061A00002F007019B0043EA411343EAD212204662
:1061B000F521FFF77BFF94F83C20C2F3C20302F005
:1061C00007019B0043EA411343EA92122046F4215F
:1061D000BDE8F840FFF76ABF30B5044690F91000FB
:1061E000421C85B019D1206802F02EFDD021204636
:1061F000FFF790FE6028A06045D12046B622E0213E
:10620000FFF754FF4FF4967002F048FA2046FFF76C
:10621000D5FE054628B36420F6E7012180B202F0DE
:106220004EFE94F91000012180B202F037FE94F97D
:106230001300431C04D1FFF7ADFB01F0B5FFD5E718
:10624000012180B202F02AFE94F91100012180B2EE
:1062500002F024FE94F91200002180B202F01EFE2A
:10626000C4E72046FFF7B1FE052300931A46032139
:106270002046CDE90155FFF765FF642002F00EFAD4
:10628000012005B030BD0020FBE7772310B5037176
:10629000044602F087FE20602046FFF79DFF30B9DC
:1062A000762323712046BDE81040FFF795BF10BD4F
:1062B00010B50446406810B103689B6898472046B3
:1062C00010BD38B5044690F90E00012180B202F0ED
:1062D000E5FD94F90E00012180B202F0F0FD256881
:1062E00035B1284601F060FF012084F8340038BD44
:1062F00094F90F00012180B202F0D0FD637B94F984
:106300000F00012B94BF2946012180B202F0D7FD76
:1063100094F91000421C09D0012180B202F0BEFDA8
:1063200094F91000012180B202F0C9FD94F9110026
:10633000431CD9D0002180B202F0B0FDD4E70000A8
:106340002DE9F04F0446006885B00D4640B10023AA
:10635000009313460A4601F0C5FF05B0BDE8F08F73
:10636000237BA068484FB7FBF0F7002B0B780CBFDE
:106370004FF0010B4FF0800B1BEA030F01EB020300
:106380000CBF4FF001094FF00009FFB20393039BCC
:10639000AB42E2D095F800A05E464FF0000817B17E
:1063A000384601F087FC637B13F0FD0F41D194F96F
:1063B00010305A1C0FD01AEA060114BF0123002323
:1063C0004B4508D06369606A1A6800292CD00243E3
:1063D0001A604FF00109A169E36A0A6813430B6070
:1063E00017B1384601F066FC94F91130013306D03C
:1063F000E3691A68A36A1A4218BF46EA0808A16945
:10640000E36A0A6822EA03030B6094F9113001334E
:1064100018BF85F80080237B002B32D17600F6B2BE
:10642000002EBCD10135B2E722EA00021A6089468B
:10643000D1E7A169E36A0A6813430B6017B13846D4
:1064400001F038FC94F91030013308D06369616AB7
:106450001A681AEA060F14BF0A438A431A60A16930
:10646000E36A0A6822EA03030B6094F911300133EE
:10647000CBD0E3691A68A36A1A4218BF46EA080833
:10648000C3E77608CCE700BF20A1070007B50122CB
:106490008DF807100DF10701FFF752FF9DF8070077
:1064A00003B05DF804FB2DE9F041044600680E4698
:1064B00017461D4610B1616801F0A0FE94F90E0068
:1064C000002180B202F0FBFC069B05EB030845456A
:1064D00008D13744B7420BD016F8011B2046FFF70E
:1064E000D5FFF7E715F8011B2046FFF7CFFFEEE7D2
:1064F00094F90E00012180B202F0E1FC206808B19D
:1065000001F063FE0120BDE8F081426000220272CA
:1065100020220170C260704710B5037A044653B15F
:106520002178606802F0C2FB606802F0C7FBB0FA35
:1065300080F0400910BD012100F003F80028EFD1E0
:10654000F8E738B5044640680D4602F07DFB0120AF
:10655000207225B12046BDE83840FFF7DDBF38BDC9
:106560002DE9F843DDE908961F46C3681546324415
:106570009A420446884602D90020BDE8F883017893
:10658000406802F093FB7EB9606803682A46DB68C6
:10659000414698478542EFD16068394602F08AFB50
:1065A000B0FA80F04009E8E7B9F1000FECD060687C
:1065B00003683246DB6849469847B042DCD1E3E7DE
:1065C0002DE9F041154604460E46D2B201784068E6
:1065D00002F057FB85420DD100271FFA87F8A84526
:1065E00007F1010709D2606803685B69984706F8FC
:1065F0000800F2E70020BDE8F0810120FBE72DE96B
:10660000F84307468846164699460025B54212D2F9
:10661000FA68741B944228BF1446331BAB4294BFE4
:106620004B460023224608EB05013846FFF7C8FF1A
:1066300010B12544EAE70120BDE8F88373B51D4693
:106640000023CDE900339DF81C30069E0446FFF779
:1066500087FF40B1012332462946204602B0BDE8FB
:106660007040FFF7CCBF02B070BD08B5406802F0C3
:10667000E7FA012008BD7047704700000B4610B5CF
:10668000282204460021184606F0FEF809490B228C
:1066900006F02EF900220121C272C160E168426257
:1066A0000022016182610321C261034A41610262E9
:1066B00010BD00BFC8CF0D000AD7233C10B5142170
:1066C000044602F093FC204610BD000073B5019310
:1066D000094B03600023C0E902310446102016462E
:1066E000FDF7D9FC054618B1019A3146FFF70DFFB9
:1066F0002046A56002B070BD04D10D001FB5002377
:10670000CDE900338DF80C108DF80D200123022205
:1067100003A98068FFF724FF05B05DF804FB08B506
:106720000A4601743D21FFF7E9FFBDE808401E203D
:1067300001F0B4BF70B50D4600210446067CFFF79A
:10674000EEFF192001F0AAFF002207212046FFF7E3
:10675000D5FF85B180223F212046FFF7CFFF0A20D9
:1067600001F09CFF20463146FFF7D9FFBDE870409D
:10677000142001F093BF2A46EDE770B50D460021C5
:106780000446067CFFF7CBFF192001F087FF2A782B
:1067900055212046FFF7B2FF6A7856212046FFF7C1
:1067A000ADFFAA7857212046FFF7A8FFEA785821C5
:1067B0002046FFF7A3FF2A7959212046FFF79EFFC5
:1067C0006A795A212046FFF799FFAA795B21204672
:1067D000FFF794FFEA795C212046FFF78FFF2A7AC2
:1067E0005D212046FFF78AFF6A7A5E212046FFF787
:1067F00085FFAA7A5F212046FFF780FFEA7A6021B1
:106800002046FFF77BFF2A7B61212046FFF776FFBA
:106810006A7B62212046FFF771FFAA7B6321204635
:10682000FFF76CFFEA7B64212046FFF767FF2A7CB5
:1068300065212046FFF762FF6A7C66212046FFF74C
:106840005DFFAA7C67212046FFF758FFEA7C68219C
:106850002046FFF753FF2A7D69212046FFF74EFFB0
:106860006A7D6A212046FFF749FF31462046BDE890
:106870007040FFF754BF1FB501220023CDE900236C
:1068800003AB8DF80C1080681946FFF7D7FE9DF812
:106890000C0005B05DF804FB70B504460E46806838
:1068A0000121FFF74EFE054610B90025284670BDB0
:1068B00000212046FFF7DFFFA02813D1002120464A
:1068C000FFF72DFF20223F212046FFF717FF1E2054
:1068D00001F0E4FE00212046FFF7CDFFA0280CD0F8
:1068E0000A20F5E74FF47A7001F0D8FE0021204627
:1068F000FFF7C1FFA028D8D1E0E7322001F0CEFE9B
:1069000000223E212046FFF7F9FE0A2001F0C6FED4
:10691000002207212046FFF7F1FE00223F212046FA
:10692000FFF7ECFE0A2001F0B9FE20463146FFF7E2
:10693000F6FE142001F0B2FEB8E7F8B50F46164691
:106940000721002204461D46FFF7D8FE27B1392152
:106950002046FFF790FF387026B136212046FFF71A
:106960008AFF307025B13A212046FFF784FF287056
:10697000BDE8F840C82001F091BEF8B50E463521BB
:10698000069F15461C46FFF776FF0EB1830933704C
:1069900015B1C0F301132B7014B1C0F38103237040
:1069A00017B100F003003870F8BD1FB504460DF1B3
:1069B0000F0300930DF10D020DF10E0303A9FFF774
:1069C000DCFF237C013B092B17D8DFE803F005220D
:1069D000101E0C13160C1E109DF80E00C31E5842FC
:1069E000584104B010BD9DF80E30032B14D19DF812
:1069F0000D00F3E79DF80F30F7E79DF80C30032BFF
:106A00000AD19DF80D30032B06D19DF80E30032BD3
:106A100002D19DF80F00E1E70020E2E72DE9F04107
:106A200004460D46FFF7C1FF0646002800F091809E
:106A30000021204694F81080FFF771FE192001F024
:106A40002DFE56212046FFF716FF5521074620460A
:106A5000FFF711FF40EA0720288058212046FFF762
:106A60000AFF572107462046FFF705FF40EA0720A7
:106A700068805A212046FFF7FEFE5921074620462E
:106A8000FFF7F9FE40EA0720A8805C212046FFF7C7
:106A9000F2FE5B2107462046FFF7EDFE40EA0720A5
:106AA000E8805E212046FFF7E6FE5D21074620468E
:106AB000FFF7E1FE40EA0720288160212046FFF72A
:106AC000DAFE5F2107462046FFF7D5FE40EA0720A1
:106AD000688162212046FFF7CEFE612107462046ED
:106AE000FFF7C9FE40EA0720A88164212046FFF78E
:106AF000C2FE632107462046FFF7BDFE40EA07209D
:106B0000E88166212046FFF7B6FE6521074620464C
:106B1000FFF7B1FE40EA0720288268212046FFF7F0
:106B2000AAFE672107462046FFF7A5FE40EA072098
:106B300068826A212046FFF79EFE692107462046AB
:106B4000FFF799FE40EA0720A88241462046FFF75A
:106B5000E6FD3046BDE8F0811FB58DF80C10002130
:106B6000CDE90031134603A901228068FFF766FDD5
:106B700005B05DF804FB000000B52DED068B002389
:106B800093B008AACDE9083320210823FFF7E4FFDA
:106B90009DF823309DF8220040EA032000B204F063
:106BA000EBFF0022214B05F051F89DF8253041EC18
:106BB0001A0B9DF8240040EA032000B204F0DCFF29
:106BC00000221A4B05F042F89DF8273041EC190BD2
:106BD0009DF8260040EA032000B204F0CDFF002219
:106BE000124B05F033F89DF8213041EC180B9DF85D
:106BF000200040EA032000B204F0BEFF0B4B00224D
:106C000005F024F8B0EE4A1AF0EE6A1AB0EE492AFE
:106C1000F0EE692A41EC100BB0EE483AF0EE683A1B
:106C200013B0BDEC068B5DF804FB00BF0000103F05
:106C3000F7B50D46164600211822044605F024FE3D
:106C400000230093ADF80430284606236A463146F7
:106C5000FFF782FF9DF801309DF800009DF802705B
:106C60009DF8045040EA03209DF8033047EA0327CB
:106C70009DF805301A2E45EA032500B23FB22DB229
:106C80000DD008D80E2E0AD0142E08D0082E21D0F0
:106C9000204603B0F0BD282E1CD02E2EF7E704F0BE
:106CA0006BFF194B002204F0D1FFC4E90001384604
:106CB00004F062FF144B002204F0C8FFC4E9020193
:106CC000284604F059FF104B002204F0BFFFC4E92E
:106CD0000401DDE704F050FF0C4B002205F0E0F862
:106CE000C4E90001384604F047FF084B002205F0D4
:106CF000D7F8C4E90201284604F03EFF034B002206
:106D000005F0CEF8E3E700BF0000B03F00005940B7
:106D100030B50C4687B0054620220021201D05F025
:106D2000B3FD24232360EB6863600323A36000F0BA
:106D3000C9FF1A22206129466846FFF779FFDDE97D
:106D4000000105F07BFA6061DDE9020105F076FAE9
:106D5000A061DDE9040105F071FAE061012007B0EE
:106D600030BD0029F0B566DBB0F90C408C4262DD25
:106D7000002A60DBB0F90E4094425CDD847E022C78
:106D80005AD0032C61D0012C04D10489D24314447D
:106D90000A4621B2B0F938408C42A8BF0C4604879D
:106DA000B0F93A409442A8BF14464487B0F93C4039
:106DB0008C42B8BF0C468487B0F93E409442B8BFBD
:106DC0001446C48790F84C40012C16D1012B42D0B8
:106DD000022B51D08BB9002A0589476B1446B8BFE6
:106DE000D41DE41014FB051402F00706012505FA72
:106DF00006F63D5D25EA06053D5590F84C40042C0D
:106E000019D1048914FB02F202EBD27401EBD172A6
:106E100042F34F0202EB6402446BA05CC9074BBF14
:106E200003F00F0300F00F0020F00F0040EA0313FF
:106E300048BF0343A354F0BD0489C9432144448996
:106E4000D243224409B212B2A4E74489C9430C4494
:106E5000114622B29EE7002A0589466B1446B8BF48
:106E6000D41DE41014FB051402F007070125BD40F2
:106E7000375D3D433555C0E7002A0589466B14460A
:106E8000B8BFD41DE41014FB051402F00707012558
:106E9000BD40375D7D40EDE738B50D4611460446EF
:106EA0001AB209B200F096FA069A0B4BE262079A00
:106EB00023600023C4E90933C4E90C234FF0FF33F6
:106EC000C4E910339DF91430A364049B84F84C503A
:106ED0002365204638BD00BF20D10D0038B50C4BCE
:106EE00003600446406B18B101F0F0F800236363BF
:106EF000656A35B12846FFF7DBF93821284602F0EC
:106F000075F8A06A10B1102102F070F8204638BD63
:106F100020D10D0030B587B0856A8DF80F1004467A
:106F20007DB10023CAB2CDE900338DF814308DF85D
:106F300015200123022205A92846FFF711FB07B0FF
:106F400030BD2946B0F8400001F0B9FF606A0095F5
:106F50002B4601220DF10F01FFF7A5FAEFE70029FB
:106F600014BFA721A621FFF7D5BFF0B5856A85B06C
:106F700004460E46174665B100230DF10F008DF84B
:106F80000F300123009001932846FFF7E9FA05B07E
:106F9000F0BD2946B0F8400001F091FF606A00950D
:106FA0002B463A463146FFF77EFAF0E710B5B0F9C6
:106FB0000A10038990F84C2012FB03F2CB1D48BF46
:106FC00001F10E03DB1004465A43406B002105F02B
:106FD0005BFC0023A3632389013BA3876389013BF7
:106FE000E38710BD70B5436B04460E4615460BB3E0
:106FF000002D33D1236D002B50D01020FDF74BF81E
:10700000054618B1226D3146FFF77FFAA5621DB320
:1070100001212846FFF795FAF0B12046FFF7C6FF99
:107020000023A3632389013BA3876389013BE38793
:10703000012012E02389B4F90A2090F84C0010FBDB
:1070400003F0D31D48BF02F10E03DB10584301F0DB
:1070500035F860630028CBD1002070BDA06C0028FB
:10706000C8DB012180B201F019FFB4F8480001210A
:1070700001F025FF0A2001F011FBB4F848000021BF
:1070800001F01DFF0A2001F009FBB4F848000121BE
:1070900001F015FF0A2001F001FBABE7606A002850
:1070A000DAD0FFF70EF90028D6D0B4F8400001215D
:1070B00001F0F4FEB1E707B581238DF80510022237
:1070C00001A98DF80430FFF750FF03B05DF804FB11
:1070D0002DE9F04F85B01F46BDF93880BDF83C3032
:1070E000A8EB0209A7EB010AB9F1000FB8BFC9F17B
:1070F0000009BAF1000FB8BFCAF1000AD1458346B2
:107100000C46154604DD3A462C4647460D46904649
:10711000BC4205DD2A464546904622463C46174677
:107120003E1BB2B20092A8EB0502002AB8BF524241
:107130000192C6F3C03202FA86F64545B4BF012279
:107140004FF0FF3276100292BC421CDCDBF80020CC
:107150000393D145D2F81880C7BF294622462A4654
:1071600021465846C047019A039BB61AB1B236B2BF
:10717000002E05DA029A1544009A56182DB236B23E
:10718000013424B2E0E705B0BDE8F08F704710B4D9
:1071900004682469A4465DF8044B604730B4046871
:1071A000BDF808500295A46BA44630BC604730B4CB
:1071B0000468BDF808500295E46BA44630BC6047F3
:1071C00070B4BDF90C50BDF810600468CDE90356E9
:1071D000246CA44670BC60472DE9F3411C4603684B
:1071E000BDF820805B6905461646013C34440F46D5
:1071F00024B298472B68CDF8048000949C6A2846F6
:107200003B4632463946A0472B68DB6A284602B027
:10721000BDE8F04118472DE9F3411D460368BDF86C
:1072200020805B69044617460E469847CDE90078F2
:1072300022686B1E3344956A20461BB23A4631469B
:10724000A8472368DB6A204602B0BDE8F041184732
:107250002DE9F3471E460368BDF928905B69BDF828
:107260002C800C460546174698472644B4422B68A6
:107270000BDACDF80080D3F820A021464B463A46E1
:1072800028460134D04724B2F0E7DB6A284602B032
:10729000BDE8F047184713B502680191B0F90E1028
:1072A0000091146CB0F90C3000221146A04702B0D6
:1072B00010BD2DE9F3471D460368BDF82C805B69BE
:1072C000BDF9289004460F46164698472368CDF826
:1072D0000080D3F824A032462B4639462046D047BA
:1072E0002368CDF8008009F1FF323244D3F824A09E
:1072F00039462B46204612B2D0472368CDF800808D
:10730000D3F820A032464B4639462046D0476B1E64
:10731000D9192368CDF800801D6A20464B463246B5
:1073200009B2A8472368DB6A204602B0BDE8F047EF
:10733000184770472DE9F74399421646BDF9287062
:10734000BDF82C90026880460D461C4613D1BE4203
:10735000C8BF3346CDF82890C4BF3E461F467B1CAD
:10736000946B9B1B1BB2324629464046A44603B091
:10737000BDE8F0436047BE420AD19942C2BF0B4606
:1073800025461C46631CCDF82890D46B5B1BE9E7AF
:1073900053699847CDE90079D8F8003040469F6A94
:1073A000324623462946B847D8F80030DB6A4046C3
:1073B00003B0BDE8F043184701F00303B0F90A2019
:1073C0008376C907B0F9083059BF8381C2818281B1
:1073D000C381704730B54281C281074A074D0181A0
:1073E000002481814FF0FF31C0E90512446005603F
:1073F00004610477046230BD010100017CD60D00F8
:107400002DE9F04F89B0CDE902120268BDF948803C
:107410000493BDF94C3052690593BDF850A0044661
:10742000904718F107024FF0000648BF08F10E021E
:107430004FEAE20B01963546039B019ABDF9041011
:107440009A18059B8B4212B227DD049B33444FF000
:10745000000906930FFA89F080451FFA89F117DDBC
:107460004F0705BF069BC0106D001D5C18BFEDB235
:107470002B060AD5029B206807921944836909B23A
:107480001F4620465346B847079A09F10109E1E72C
:10749000019B013301935E44CEE72368DB6A2046FB
:1074A00009B0BDE8F04F18472DE9F04F2DED028BE4
:1074B00091B01646026ABDF874809DF878509DF828
:1074C0007C4003911F46BDF8703004938346002A28
:1074D00040F0C580B0F90C308B4240F34C81B0F9DC
:1074E0000E30B34240F34781062313FB0513002BF4
:1074F00040F3418106EBC403002B40F33C81037F42
:107500001BB9AF2F84BF0137FFB2DBF800305846FC
:107510005B6998470522099200220592984A07EB79
:107520008703D3180C93B3B20693059A0C9B9B5C0C
:107530000793ABB20B93BDF80C300893039B02FB8F
:1075400005F919FA83F90FFA89F308EE103A0823BE
:107550000A93039B02EB030A4FF000090FFA8AFA21
:10756000079ADBF80030D20752D5012D1FFA89F2B5
:107570003ED1012C3CD19B6906991F46049B0A44CD
:1075800012B251465846B84709F101034FFA83F940
:10759000079B5B0807930A9B013B13F0FF030A93C9
:1075A000DED1059F01377BB20593099B013B13F0A8
:1075B000FF030993B9D1049B43450FD0012DDBF89C
:1075C00000303BD1012C39D10899CDF8008005312C
:1075D0001C6A3246082309B25846A047DBF800303F
:1075E000DB6A584611B0BDEC028BBDE8F04F18477E
:1075F000069914FB02F20A44049901910094DB6994
:1076000018EE101A1F4612B22B465846B847BBE771
:10761000049A4245B8D0012D1FFA89F207D1012CF6
:1076200005D19B6906991F460A444346A8E7069977
:10763000CDF8048014FB02F20A44DFE70B9ACDF880
:10764000048002EB8201089AE4000A441146009487
:10765000DC6932462B4609B25846A047BEE7137A8A
:10766000516812680D92FF1AFFB201EBC70331F89F
:10767000372006929A780992DA780B92012D93F9C5
:10768000052093F906A00A9201D8012C57D9BDF91B
:10769000283008930FFA8AF30793DBF80030584636
:1076A0005B699847B3B24FF000080E931AFA86F35D
:1076B000C14647460F930B9B9F428FD2079B0E9A62
:1076C0003B4403FB0423002205920F9A1BB202EBFA
:1076D000070A08EE103A0FFA8AFA4346099A059902
:1076E000914241D25A1CD2B25B070C9207D1069B41
:1076F00006990D9A01339BB212F80190069319F086
:10770000800F12D0012DDBF80030BDF80C101AD11B
:10771000012C18D10A9A9B691144059A11441E46FE
:107720005246049B09B25846B047059E0136F3B253
:107730004FEA490905935FFA89F90C9BCEE70023CC
:10774000CDE90733A9E70598089A024402FB051121
:10775000049ACDE90042DB6918EE102A1E4609B2F0
:107760002B465846B047E0E7099B013798445FFA3B
:1077700088F8FFB29FE711B0BDEC028BBDE8F08F37
:1077800074D10D00F0B5026A85B004460B46002A9C
:1077900034D10A2908D1438A0282427E03EBC20314
:1077A0006382012005B0F0BD0D29FAD0E17E007E94
:1077B000657E71B1B4F91060062111FB0061B4F966
:1077C0000C60B142C1BFB4F91210228201EBC502B4
:1077D0006282E28A0192A28A0092CDE90205B4F99E
:1077E0001220B4F910102046FFF75EFE237E228A95
:1077F00003EB430302EB43032382D2E70A2907D1B9
:1078000000230382137B417E428A01FB0323C7E7E7
:107810000D29C6D0157AA942C3D3917A9942C0D313
:1078200051685D1BEDB201EBC505AF782FB3E97868
:1078300019B3E17E007E667E91B195F90510394459
:10784000B4F9107000FB0171B4F90C70B94207DD96
:1078500000272782B4F91210127B02FB0612628203
:10786000E28A0192A28A0092CDE90206B4F91220BE
:10787000B4F910102046FFF717FE2979237E228ADB
:1078800001FB0323B8E7012938BF012101764176C6
:1078900070472DE9F04F04468BB000F033FAB4F98D
:1078A0000A30B4F93A50B4F9087094F83890DA1DF7
:1078B00048BF03F10E0240238DF82330C2F3C70303
:1078C0000393A36ADB68013B9BB20493B4F93C3099
:1078D000FFB2002DB8BF073523EAE373B94507F1BE
:1078E0000102C5F3C70528BFB94652FA83F305FB69
:1078F000079A06934FF0000B039B9D426BD2636B7C
:10790000267A94F8542003EB0A08069B4A449E1BEF
:10791000A36A1111A6EB0906A5F15000F6B2C0B298
:10792000103102F00F02002B35D08DF825008DF8B4
:1079300026101846E16A8DF827208DF824B0FEF74E
:1079400094FE0123CDE900BBA06A042209A9FEF739
:1079500007FE9DF810300593A06AAEB1059BB342B7
:1079600028BF33461A46012301930DF123030093E8
:10797000414601230792FEF7F3FD079AB61A904499
:10798000F6B200F0BFF9E7E7216BFEF76EFE0135B6
:10799000EDB2BA44B0E78DF824008DF82510B4F8A4
:1079A00040008DF826201946059301F088FA059BC2
:1079B0000093032209A9606AFEF775FDB4F8400040
:1079C000012101F07CFA059B606A00933246414632
:1079D000FEF769FDDBE74FF004224FF0FF33C4E907
:1079E0000E230BB0BDE8F08F30B585B004460A9D7C
:1079F0000395099D02959DF92050CDE90035134668
:107A00000A460121FFF748FA034B23602046002372
:107A100084F8543005B030BDD4D60D0010B5034BFA
:107A200003600446FFF75AFA204610BDD4D60D0075
:107A300010B5034B03600446FFF7F0FF204610BD6E
:107A400010D90D0010B50446FFF7F2FF204658216B
:107A500001F0CCFA204610BD30B585B004460A9D31
:107A60000295099D01959DF920500095FFF7BCFFF7
:107A7000024B2360204605B030BD00BF10D90D0079
:107A800030B5044685B0FFF7ADFA2F212046FFF749
:107A900012FBA2682F4B9A4221D1236801211B6B54
:107AA00020469847B4F90820B4F90A102023203A58
:107AB00073390125CDE9013502EBD272732301EB55
:107AC000D171009341F34F01234B204642F34F0203
:107AD000FFF796FC236800211B6B20469847A3689C
:107AE000B3F1801F17D1B4F90820B4F90A1020238C
:107AF0000120203A7339CDE9013002EBD2727323B1
:107B000001EBD171009342F34F02134B41F34F014C
:107B10002046FFF775FC114916222046FFF725FA8B
:107B2000054618B90025284605B030BDA368B3F155
:107B3000801F07D0642000F0B1FDAF212046FFF781
:107B4000E9F9F0E7064904222046FFF70EFA00287B
:107B5000F0D1E7E74000800028D70D0068D90D007C
:107B600064D90D00002202600271704773B50546AA
:107B700010200E460192FCF78EFA044618B1019AC5
:107B80003146FEF7C2FC012120462C602E7102B066
:107B9000BDE87040FEF7D5BC30B5002385B0CDE917
:107BA000003349BA0546ADF80C108DF80E20006878
:107BB0000123032203A9FEF7D3FC60B16524013C35
:107BC00014F0FF0407D02868FEF7A6FC20B90120B6
:107BD00000F064FDF3E7002005B030BD1FB50123C0
:107BE0000022CDE9003249BA03ABADF80C100068B1
:107BF00002221946FEF722FD08B19DF80C0005B0DF
:107C00005DF804FB08B5024B1B689B68019308BD37
:107C10006802030008B5024B1B68DB68019308BDCE
:107C20006802030008B5024B1B685B68019308BD3E
:107C30002C02030008B5024B1B689B68019308BD2A
:107C40002C02030008B5024B1B68DB68019308BDDA
:107C50002C02030008B5024B1B681B69019308BD89
:107C60002C02030008B5024B1B685B69019308BD39
:107C70002C02030008B5024B1B689B69019308BDE9
:107C80002C02030008B5024B1B68DB69019308BD99
:107C90002C02030008B5024B1B681B6B019308BD47
:107CA0002C02030008B5024B1B685B68019308BDFA
:107CB0001802030008B5024B1B68DB68019308BD7E
:107CC0001802030008B5024B1B685B69019308BDED
:107CD0001802030008B5024B1B689B6A019308BD9C
:107CE0001802030008B5024B1B685B6C019308BDCA
:107CF0001802030008B5024B1B689B6C019308BD7A
:107D00001802030008B5024B1B68DB68019308BD2D
:107D10004802030008B5024B1B685B6C019308BD69
:107D20004802030008B5024B1B685B69019308BD5C
:107D30006402030008B5024B1B681B68019308BD71
:107D40003C02030008B5024B1B68DB68019308BDC9
:107D50003C02030008B5024B1B681B69019308BD78
:107D60003C02030008B5024B1B685B69019308BD28
:107D70003C02030008B5024B1B689B69019308BDD8
:107D80003C02030008B5024B1B68DB69019308BD88
:107D90003C02030008B5024B1B681B6A019308BD37
:107DA0003C02030008B5024B1B689B6A019308BDA7
:107DB0003C02030008B5024B1B681B68019308BD19
:107DC0002802030008B5024B1B68DB68019308BD5D
:107DD0002802030008B5024B1B689B69019308BD8C
:107DE0002802030008B5024B1B68DB69019308BD3C
:107DF0002802030008B5024B1B681B6A019308BDEB
:107E00002802030008B5024B1B685B6A019308BD9A
:107E10002802030008B5024B1B689B6A019308BD4A
:107E20002802030008B5024B1B68DB6A019308BDFA
:107E30002802030008B5024B1B681B6B019308BDA9
:107E40002802030008B5024B1B685B6B019308BD59
:107E50002802030008B5024B1B681B6C019308BD88
:107E60002802030008B5024B1B681B6D019308BD77
:107E70002802030008B5024B1B681B68019308BD6C
:107E80003002030008B5024B1B685B69019308BD13
:107E90003002030008B5024B1B68DB69019308BD83
:107EA0003002030008B5024B1B681B6A019308BD32
:107EB0003002030008B5024B1B685B6A019308BDE2
:107EC0003002030008B5024B1B689B6A019308BD92
:107ED0003002030008B5024B1B689B6B019308BD81
:107EE0003002030008B5024B1B68DB6B019308BD31
:107EF0003002030008B5024B1B681B6C019308BDE0
:107F00003002030008B5024B1B685B6C019308BD8F
:107F10003002030008B5024B1B681B68019308BDC3
:107F20004C02030008B5024B1B685B68019308BD57
:107F30004C02030008B5024B1B681B69019308BD86
:107F40004C02030008B5024B1B685B69019308BD36
:107F50004C02030008B5024B1B689B69019308BDE6
:107F60004C02030008B5024B1B68DB69019308BD96
:107F70004C02030008B5024B1B681B6A019308BD45
:107F80004C02030008B5024B1B685B6A019308BDF5
:107F90004C02030008B5024B1B685B6B019308BDE4
:107FA0006002030008B5024B1B685B68019308BDC3
:107FB0002002030008B5024B1B685B69019308BDF2
:107FC0002002030008B5034B1B68D3F888300193E7
:107FD00008BD00002002030008B5034B1B68D3F85E
:107FE0009430019308BD00002002030008B5024B45
:107FF0001B685B68019308BD4002030008B5024B93
:108000001B689B68019308BD4002030008B5024B42
:108010001B68DB68019308BD4002030008B5024BF2
:108020001B681B69019308BD4002030008B5024BA1
:108030001B685B69019308BD4002030008B5024B51
:108040001B689B69019308BD4002030008B5024B01
:108050001B68DB69019308BD4002030008B5024BB1
:108060001B681B6A019308BD4002030008B5024B60
:108070001B681B6B019308BD4002030008B5024B4F
:108080001B685B6B019308BD4002030008B5024BFF
:108090001B681B6C019308BD4002030008B5024B2E
:1080A0001B685B6C019308BD4002030008B5024BDE
:1080B0001B68DB6B019308BD4402030008B5024B4B
:1080C0001B681B68019308BD1C02030008B5024B26
:1080D0001B685B68019308BD1C02030008B5024BD6
:1080E0001B685B6A019308BD1C02030008B5024BC4
:1080F0001B68DB6B019308BD1C02030008B5024B33
:108100001B685B6C019308BD1C02030000224068E1
:108110001146FFF7A3BF002240681146FFF7AEBF2C
:1081200040680022FFF7A2BF4068002281F00101F1
:10813000FFF78CBF002340681A461946FFF77EBF41
:10814000002340681A461946FFF770BF00224068B6
:108150001146FFF763BF002240681146FFF74EBF8C
:10816000406800220221FFF751BF002340681A46F1
:10817000FFF73CBF024B03225A60024A1A60704765
:1081800084E5032088D90D000021FFF7B3BE00214C
:10819000FFF7B8BE10B5044608462170FFF77AFE17
:1081A00000236360204610BD10B504460078FFF739
:1081B000EBFF48B920784FF6FF71FFF75BFE2078A0
:1081C000BDE81040FFF7E3BF10BD0078FFF7DFBF49
:1081D000400830B51860002418688842E5B206D916
:1081E0000134082C02D040081860F5E70725024B3F
:1081F0005B5D137030BD00BFBCD90D002DE9F043AD
:1082000006468FB000780C46FFF7BEFF00281BDB48
:1082100035781422002109A804F036FB0B23002234
:1082200009A92846ADF82430FFF744FE9DF82D300B
:1082300013B19DF82C5055B10027B946B846012519
:1082400023795DB1C3B100200FB0BDE8F083DDF844
:1082500030809DF834909DF83570F1E7002B35D1D2
:10826000A368434508D18DF820908DF82170BDF8A2
:108270002020A3899A42E6D00023A1688DF80F3010
:108280000A9804AB0DF10F02FFF7A2FF217985B91F
:1082900089B9A36843450ED38DF820908DF82170DD
:1082A000BDF82020A3899A4205D1049B434502D101
:1082B000C9E70029F9D100230193637B00939DF85E
:1082C0000F20237B3078FFF70DFEBCE7CDE900558A
:1082D0002B462A460121F5E708B50078FFF7D2FDC5
:1082E000C0B208BD30B587B004460A9D009500783D
:1082F000FFF7E8FD3DB9207802A9FFF7EBFD9DF8F7
:108300001430DB07F7D407B030BD0000054B022264
:108310001A60054B054A9A60002018609880987191
:10832000FFF740BE98E503208CE503200000FFFF27
:10833000024800230360FFF7EDBC00BF9CE503206B
:10834000F8B506460D468F180024BD420CD03368A0
:1083500015F8011B9B6830469847031E01DB1C443F
:10836000F3E7002C08BF1C462046F8BD13B50446B1
:10837000084659B1019104F0B3FA23680199DB680A
:108380000246204602B0BDE81040184702B010BDBA
:1083900008B5FFF7EBFF08BD03689B68184708B5F1
:1083A000FFF7E4FF08BD38B50D210546FFF7F4FFE0
:1083B0000A2104462846FFF7EFFF204438BD38B5B0
:1083C0000546FFF7D3FF04462846FFF7ECFF20449D
:1083D00038BDFFF7F4BF30B58BB000238DF82430E3
:1083E000012A98BF0A2209AC0D46B1FBF2F101FB4C
:1083F000125303F0FF03092B94BF30333733DBB242
:10840000AA4204F8013DEFD92146FFF7AFFF0BB0B8
:1084100030BD00002DE9F74F55EC104B06460F46D6
:1084200010EE102A10EE100A2B46294603F0A8FE83
:1084300040B153493046FFF799FF8246504603B09A
:10844000BDE8F08F25F000494E4B4FF0FF3220463B
:10845000494603F095FE48B94A4B4FF0FF3220469B
:10846000494603F06FFE08B94749E3E7474B4FF031
:1084700060422046294603F079FE08B14449D9E715
:10848000444B4FF060422046294603F051FE00283D
:10849000F4D1002200232046294603F049FED0B142
:1084A0002D213046FFF778FF05F1004382461D4637
:1084B0003949DFF8EC904FF0000B00204FF0000836
:1084C0005FFA8BF39F4208D942464B4603F0E8FC23
:1084D0000BF1010BF4E78246EAE722462B4603F054
:1084E000FFF90D46044603F089FE804603F034FB95
:1084F00002460B462046294603F0F0F90A220446BC
:108500000D4630464146FFF766FF824427B12349B6
:108510003046FFF72BFF8244DFF884904FF00008CD
:10852000013FFFB2FF2F89D042464B4620462946E5
:1085300003F08CFB04460D4603F038FEB0F1000B4F
:108540001ADA2D213046FFF727FFCBF10001034651
:108550000A2230460193FFF73EFF019B18448244F4
:10856000584603F009FB02460B462046294603F015
:10857000B5F904460D46D3E759460023E8E700BFA6
:10858000C4D90D00FFFFEF7FC8D90D00FFFFEF41F9
:10859000CCD90D00FFFFEFC10000E03FA7CF0D00D9
:1085A0000000244038B5044610EE100ACDB203F0A6
:1085B000F5FA41EC100B29462046BDE83840FFF79C
:1085C00029BFC9B2FFF726BF38B5C9B20546FFF7C4
:1085D00021FF04462846FFF7E6FE204438BD38B5A3
:1085E000044610EE100A0D4603F0D8FA41EC100BC9
:1085F00029462046BDE83840FFF7E6BF2DE9F041A7
:1086000086B000AF05460E46381D142114463B6067
:10861000FFF764FD13280ED8391D2846FFF7A6FE84
:1086200004461EB12846FFF7BEFE04442046183714
:10863000BD46BDE8F08100F1080323F00703E846DA
:10864000ADEB030D2246411C3B686846FFF746FD33
:1086500069462846FFF78AFE0446C546E1E7000062
:10866000014B024A1A607047A0E50320D0D90D00E3
:10867000024B1A68024B1A60704700BFE0E3032008
:10868000A4E503208A4210B507D0029C401AE41AE0
:108690006043521A90FBF2F0184410BD0021FFF71E
:1086A00089BC0000014B00229A607047A8E50320B6
:1086B000014B1860704700BFE8E3032008B50B4B7F
:1086C00043B100F067F903681B699847002801DD92
:1086D000AFF30080064B43B100F04EFA03681B690C
:1086E0009847002801DDAFF3008008BD00000000BE
:1086F0000000000008B5FFF7E1FFFFF7E3FA014BC8
:10870000186008BD30E703200548064A064908B549
:10871000121A04F0ABF8054B054A1A6008BD00BFF9
:1087200000F4032004F40320D8DF0D0000F403203C
:108730001E1C279A07B5002300931A466FF0770195
:10874000FFF74AFC03B05DF804FB000007B543885F
:108750000A2B08D0502B0BD1094B1B684BB103B02F
:108760005DF804EB1847FFF7E5FF03B05DF804FB85
:10877000002300931A466FF07701FFF72DFCF4E712
:10878000BCE5032010B512480021FFF7B7FC114BE0
:108790001A68114B9A42114B0CBF012200221A7029
:1087A00001D0FFF7B1FFFFF77DFA044604F074F83B
:1087B0000B4B13B12046AFF3008000210848FFF7B0
:1087C00075FCBDE8104007480021FFF7FBBB00BF68
:1087D000B1860D0000F403201E1C279AB8E5032083
:1087E000000000004D870D00704710B518210446A9
:1087F00000F0FCFB204610BDF0B5037D062B8DB0CC
:108800000E4600F104074FF0000412D000F10805F5
:1088100015F8011D0A223046FFF7DDFDAF42044482
:1088200019D0002CF4D02E213046FFF7B5FD0444BA
:10883000EEE72F236A4639460A208DF80040FFF7FD
:1088400071FA684604F04CF833680246DB68694602
:1088500030469847044620460DB0F0BD10B5054B94
:108860000446112240F8043B002104F00DF8204694
:1088700010BD00BFF8D90D000346074A10B543F8F4
:10888000042B01F1100251F8044B43F8044B9142C0
:10889000F9D10A781A7010BDF8D90D0010B59DF8FD
:1088A000084044EA032343EA024242EA0161042306
:1088B0004160037510BD13B5CB7800938B784A786F
:1088C0000978FFF7EBFF02B010BD417470477047A5
:1088D000704708B50021007CFFF73CFB40EAE070E0
:1088E00008BD08B50121007CFFF734FB40EAE070C9
:1088F00008BD08B5007CFFF725FB20EAE07008BD45
:1089000008B5007CFFF716FB20EAE07008BD13B540
:108910000446007C0191FFF715FB0028019901DC5A
:10892000607C20B1207CFFF71DFB20EAE07002B0E4
:1089300010BD007CFFF71EBB10B51421044600F0EB
:1089400055FB204610BD000010B54FF47A73044665
:1089500008460021C4E90113044B2360012320745D
:1089600063741146FFF7D6FA204610BD0CDA0D00ED
:10897000007C0022FFF7D6BA007CFFF703BBFFF7AD
:10898000FBBF10B514220446002103F07DFF2046F2
:1089900010BD000010B50F4C88B003A8FFF7F1FF21
:1089A0002178BFF35B8F11F001010FD120460191B7
:1089B000FBF782FB019948B103AA0748FFF7C4FF00
:1089C0002046FBF77EFB054803F04AFF024808B04B
:1089D00010BD00BFC0E50320C4E50320CF880D0013
:1089E000004700002DE9FF4100241D460F46904638
:1089F0000646FFF747F9A5424FF00403ADF80D40D6
:108A00008DF80C308DF80F40A2BF9DF828308DF8FE
:108A10000E3003AC0749009443463A463046A8BF9F
:108A20008DF80D50FFF726F9B0FA80F0400904B038
:108A3000BDE8F081E1890D00002240681146FFF792
:108A4000EDBA002240681146FFF708BB00224068DB
:108A50001146FFF713BB40680022FFF707BB4068D1
:108A6000002281F00101FFF7F1BA002340681A46A5
:108A70001946FFF7E3BA002340681A461946FFF784
:108A8000D5BA002240681146FFF7B8BA4068002204
:108A90000221FFF7BBBA002340681A46FFF7A6BAC7
:108AA000084B10B5282422461846002103F0ECFE9E
:108AB000054B04804FF0FF32426004225A60034AA3
:108AC0001A6010BDE0E50320D8E503203CDA0D0074
:108AD000704741747047704708B5007CFFF762F932
:108AE00020EAE07008BD08B5007CFFF733F920EA02
:108AF000E07008BD08B5007CFFF73CF940EAE07083
:108B000008BD08B5007CFFF72DF940EAE07008BD0C
:108B1000007CFFF737B937B5457C04462DB1207C82
:108B200003B0BDE83040FFF70DB9007C0191FFF7BD
:108B300039F900280199F2DC284603B030BD10B5A0
:108B40001421044600F052FA204610BD10B54FF033
:108B5000000C0446084611464FF47A72C4E901C27B
:108B6000044A22600122207462741A46FFF7E2F878
:108B7000204610BD78DA0D0013B50D4C2178BFF3F7
:108B80005B8F11F0010110D120460191FBF794FA9F
:108B9000019950B1074B084A0848FFF7D7FF204614
:108BA000FBF78FFA064803F05BFE044802B010BDE5
:108BB00008E6032090E603200CE6032014E70320D8
:108BC000D78A0D007047F8B5064615460C468F1833
:108BD000BC4206D0336814F8011B9B6830469847A6
:108BE000F6E72846F8BD007C0022FFF703B9007CB9
:108BF0000021FFF707B9007C0021FFF70BB9007CCB
:108C00000021FFF70FB9007C0021FFF713B910B561
:108C10001421044600F0EAF9204610BD10B54FF4C7
:108C20007A73044608460021C4E90113034B23600C
:108C300020741146FFF70EF9204610BDA8DA0D008A
:108C4000007C0022FFF7B6B80023007C1A461946C4
:108C5000FFF7B8B87FB500221423CDE90122ADF8A3
:108C600004300B788DF808304B680393CB6804937D
:108C7000007C0B7A059301A9FFF7F4F807B05DF8C3
:108C800004FB1FB5003B8DF800104FF06401039109
:108C900018BF0123694601928DF80830FFF7DAFF0B
:108CA00005B05DF804FB0123FFF7EBBF007C002259
:108CB000FFF790B8007C0022FFF794B80121FFF77E
:108CC000F9BF002340681A46FFF790B940680022B8
:108CD0000221FFF79BB9002240681146FFF78EB9C9
:108CE000002240681146FFF799B9002340681A46F0
:108CF0001946FFF79BB9002340681A461946FFF74B
:108D00009DB940680021FFF7C1B940680021FFF715
:108D1000C5B94068002281F00101FFF797B94068AA
:108D20000022FFF7A3B9002240681146FFF7A6B959
:108D3000002240681146FFF791B92DE9F043002465
:108D400095B016460D460746FFF788FD21461822C6
:108D50000EA8009403F098FD4023CDE90C34214681
:108D60006B460CAA3046FEF755FF0446002846D154
:108D7000024601216868FFF751F902218046224628
:108D80006868FFF74BF9009E81462146002E36D0D9
:108D9000002934D17368022B03D00A2B0BD0F6695B
:108DA000F4E7B8F1000F04D0716938460431FFF7D9
:108DB00082FD4146F3E7B9F1000F01D14946EEE7E4
:108DC0007469102201A803F05FFD06238DF81430AA
:108DD00001AD04F108031834186859682A4603C223
:108DE0000833A3421546F7D101A906A807ADFFF73E
:108DF00043FD0FCD3C1D0FC42B682370DEE70098A8
:108E0000FEF700FF384615B0BDE8F083024B034A79
:108E10001A6000225A60704728E70320D0DA0D005C
:108E2000232813B502D9002002B010BDA0F10B0316
:108E3000022B1AD8174C2178BFF35B8F11F0010178
:108E40000BD120460191FBF737F9019928B112485F
:108E5000FFF7A0F92046FBF734F90F4B1878FFF71E
:108E600021F80028DFD10120DEE7012809D800F031
:108E700099F80021007CFEF7E5FF80F00100C0B208
:108E8000D2E709380128EED8FFF776FE007CFEF71E
:108E900081FFF2E778E503207CE50320232838B53D
:108EA00004460D460AD8FF2908D0FFF7B9FF28B1BC
:108EB00029462046BDE83840FEF7BCBE38BD38B56F
:108EC00004460D46FEF7BEFEFF2810D0062804D843
:108ED0004D2323FA00F0C30709D42046FFF7A0FF73
:108EE00028B129462046BDE83840FEF7B3BE38BD5C
:108EF00010B50446FEF7A6FE031FDBB2012B08D90E
:108F00002046FFF78DFF20B12046BDE81040FEF758
:108F1000A9BE002010BD0D2810B504469CBF0E341C
:108F2000A4B22046FFF77CFF50B103212046FEF794
:108F300079FE032804D12046BDE81040FEF7AABE02
:108F4000002010BD10B5084C2378BFF35B8FDB0702
:108F500008D42046FBF7B0F820B1FEF7BBFE204650
:108F6000FBF7AFF8014810BD34E7032038E70320D2
:108F70007047000038B500232025438014230446A1
:108F80000380856005610649284600F031F80449F0
:108F90006060284600F02CF8E060204638BD00BF35
:108FA00004DB0D0030B50E4D2978BFF35B8F11F057
:108FB000010487B011D12846FBF77EF868B101A8FB
:108FC000FFF7D8FF01AA21460648FFF727FE2846EB
:108FD000FBF777F8044803F043FC024807B030BDC4
:108FE0003CE7032040E70320718F0D00FBF757B8E3
:108FF000FBF753B800B510EE103A204A23F00043B7
:10900000934283B019DDB3F1FF4F04DB30EE400A29
:1090100003B05DF804FB684601F080FA00F003003D
:10902000012811D002281FD0B8B1DDED010A9DED55
:10903000000A012001F074FFEAE7DFED110A01F0F8
:10904000B7FB03B05DF804FBDDED010A9DED000AFE
:1090500001F066FFB1EE400ADAE7DDED010A9DEDB1
:10906000000A01F0A5FBD3E7DDED010A9DED000A42
:1090700001F09EFBB1EE400ACAE700BFD80F493F9E
:109080000000000000B510EE103A214A23F0004322
:10909000934283B01ADDB3F1FF4F04DB30EE400A98
:1090A00003B05DF804FB684601F038FA00F00300F5
:1090B000012813D0022820D0B8B1DDED010A9DEDC2
:1090C000000A01F075FBB1EE400AE9E7DFED110A95
:1090D000002001F025FF03B05DF804FBDDED010A7F
:1090E0009DED000A01F064FBDAE7DDED010A9DED7C
:1090F000000A012001F014FFD2E7DDED010A9DED29
:10910000000A012001F00CFFB1EE400AC8E700BFE1
:10911000D80F493F0000000000F0BAB9000000007D
:109120002DE9F04F2DED028B8DB057EC106B55EC07
:10913000114B00F0ADFAAE4BB0EE408AF0EE608A13
:1091400093F90090B9F1FF3F37D022462B462046D5
:10915000294603F015F8834678BB32463B46304635
:10916000394603F00DF88046002840F093804FF018
:10917000000A4FF0000B3046394652465B4602F07B
:10918000CDFF18B352465B462046294602F0C6FF83
:109190000090002857D0974BCDF828800122CDE9C8
:1091A0000467CDE90645CDE908AB02920393B9F116
:1091B000000F00F089809FED8A8BB0EE480AF0EE38
:1091C000680A0DB0BDEC028BBDE8F08FB0EE480A26
:1091D000F0EE680A02F0AAF88046002800F08280CB
:1091E0004FF000084FF0000951EC180B42464B4677
:1091F00002F094FF0028E0D047EC106B02F096F8E4
:109200000028DAD045EC104B02F090F80028D4D0BA
:10921000774B784A93F90030039204210022022B05
:10922000CDE90467CDE90645CDE9088902910A92A6
:1092300004D002A802F086F800284AD1FEF756FFB3
:109240002223036045E045EC104B02F06FF8002844
:10925000B3D052465B462046294602F069FF0028FB
:10926000ABD0634B0099634A93F900300A91012116
:10927000CDE90467CDE90645CDE90212002B6FD197
:10928000CDE908AB02A802F05DF800286ED00A9B79
:109290002BB320E0002200232046294602F03EFFA7
:1092A00000288AD09FED4E8B524BCDF828B001227A
:1092B000B9F1020FCDE90467CDE906458DED088BC4
:1092C000029203933FF479AF02A802F03BF8002822
:1092D00051D00A9B1BB1FEF709FF0A9B03609DED6D
:1092E000088B6AE747EC106B02F020F800283FF487
:1092F00077AF45EC104B02F019F800283FF470AF3F
:1093000053EC182B18EE100A194602F039FF384BAF
:10931000002840F0968093F900800A90032302937E
:10932000344B0393CDE90467CDE90645B8F1000F4E
:1093300026D1DFF8D0904FF0604852465B46304669
:109340003946CDE9088902F0F3FE48BB02A801F0D6
:10935000F9FF00289BD1FEF7C9FE2223036096E7A0
:1093600025490020022BCDE908018BD1FEF7BEFE76
:10937000212303608BE7FEF7B9FE21230360A8E7F2
:109380009FED197B52465B46304639468DED087B92
:1093900002F0CEFE002837D1B8F1020FDBD0D5E7BE
:1093A000164B00222046294602F050FC02460B468E
:1093B00043EC102BCDE9002301F0CEFFDDE90023C3
:1093C00051EC100B02F0AAFE002836D10C4B0849D4
:1093D0004FF06042CDE9082391F90080DCE700BF3F
:1093E000000000000000F03F000000000000F07FDF
:1093F000E4E3032008DB0D000000F0FF0000E03F85
:10940000FFFFEFC7FFFFEF471C4B00222046294616
:1094100002F01CFC02460B4643EC102BCDE9002366
:1094200001F09AFFDDE9002351EC100B02F076FE0B
:1094300018B9134B0022CDE90823124B93F9008091
:10944000AAE793F90090104BCDF828800122CDE9CE
:109450000467CDE90645CDE90223B9F1000F3FF4D9
:109460000FAF52465B465046594602F019FDB9F11E
:10947000020FCDE908013FF479AF03E70000E03FB8
:109480000000F0FFE4E3032008DB0D0000F09EBFC6
:1094900051EC110B2DE9F0474342794E034321F083
:1094A000004C4CEAD373B34255EC104B82B047D812
:1094B0006342234325F0004A4AEAD373B34210EED5
:1094C00010EAA9463CD801F1404303F58013034359
:1094D0004CD04FEAA17808F002085AEA040348EA9F
:1094E000D57838D05CEA000348D0B4455DD0B245A9
:1094F00044D0AAEB0C0CBCF1747F4FEA2C534FDA2A
:10950000002961DA3C335FDA9FED4F7B8DED007B04
:10951000B8F1010F78D0B8F1020F64D0B8F1000FA4
:1095200014D04BA3D3E90023DDE9000102F0D6F902
:1095300049A3D3E9002302F0D1F9CDE9000105E008
:1095400022462B4602F0CCF9CDE900019DED000B3F
:1095500002B0BDE8F087B8F1020F17D0B8F1030FE1
:1095600009D19FED3F7B8DED007BEFE702B0BDE8B9
:10957000F04701F01DBD8DED000BE7E7B9F1000FDD
:1095800009DB9FED397B8DED007BDFE79FED327BC3
:109590008DED007BDAE79FED367B8DED007BD5E727
:1095A0009FED317B8DED007BB2E7E24508F1FF389E
:1095B00032D0B8F1020F3AD8324B03EBC80898ED1D
:1095C000007B8DED007BC1E702460B462046294615
:1095D00002F066FC41EC100B01F09EFE01F0E8FC8D
:1095E0008DED000B94E71AA3D3E90023DDE9000118
:1095F00002F074F902460B4617A1D1E9000102F00E
:109600006DF9CDE90001A1E7DDE90023019901F140
:109610000043CDE9002399E7B8F1020F0CD81A4BAB
:1096200003EBC80898ED007B8DED007B8EE79FED86
:10963000067B8DED007B89E79FED0F7B8DED007B39
:1096400084E700BFAFF300800000000000000000CE
:10965000075C143326A6A13C182D4454FB21094075
:10966000182D4454FB2109C0182D4454FB21F93F07
:10967000182D4454FB21F9BF182D4454FB21E93F18
:109680000000F07F28DB0D0010DB0D000000000063
:109690002DE9F04F57EC116B2DED0A8B27F0004AA6
:1096A0005AEA060289B03DD055EC104B764925F0B8
:1096B0000048884510EE102AA9462CDC11EE103A1D
:1096C000BB463AD08A4526DC6F498A4521D0B9F19C
:1096D000000F3DDB00210391002B55D16A4B9A45C9
:1096E00000F0A880694B9A4500F0B680BBF1804F2E
:1096F00000F00185664B9B4546D1B9F1000F43DB75
:1097000045EC104B09B0BDEC0A8BBDE8F04F00F002
:1097100099BD002BDBD008F1404808F5801858EAC5
:1097200002030DD19FED547B8DED007B9DED000B71
:1097300009B0BDEC0A8BBDE8F08F0CB9C245C3DDA2
:10974000544809B0BDEC0A8BBDE8F04F01F0FCBDF8
:1097500051498A4500F38780A1F154718A450FDD94
:109760004FEA2A51A1F2FF31142940F3CE84C1F10E
:10977000340123FA01F000FA01F1994200F020854A
:1097800000210391002BADD045EC104B069201F067
:10979000C3FD069A8DED000B5ABBB8F1000F04D043
:1097A0003A4B29F040429A4223D1BBF1000F07DA2D
:1097B000DDE900233549002002F072FBCDE900010C
:1097C000B9F1000FB2DA039B08F1404808F58018A0
:1097D00058EA030340F0BE84DDE900231046194631
:1097E00002F07CF802460B4602F05AFBCDE900017C
:1097F0009CE7039A4FEAD973013B0693134335D094
:10980000264B9A454EDD03F104739A45244B40F3F1
:10981000ED83984540F36B83BBF1000F40F36B83FE
:1098200017A3D3E900231046194602F00FFACDE939
:1098300000017BE708F1404303F5801313433FF435
:1098400071AF174B984540F38883BBF1000FC0F20E
:109850005283CDE9006769E7BBF1000FC0F2418494
:10986000CDE9004562E70221039135E722462B4608
:10987000B4E700BFAFF30080000000000000F03F3D
:109880009C7500883CE4377E0000F07F0000F03FCC
:109890000000E03F40DB0D00FFFF3F430000E041E0
:1098A000FFFFEF3FE44B09EA0303002B40F016846F
:1098B000DDE90001E14B002202F0C8F9CDE9000129
:1098C000DDF804806FF034004FEA2853DC49C8F318
:1098D0001302A3F2FF3342F07F5818188A42079010
:1098E00048F4401840F3E983D64B9A4240F33E8453
:1098F0009FEDBB7BB0EE47BAF0EE67BAB0EE47CA59
:10990000F0EE67CA9FEDB87B013054EC173B07902F
:10991000A8F580184FF00009DDE900AB44EC183BD6
:109920001A4650462346414601F0D8FF53EC182B07
:1099300004460D465046414601F0D2FF02460B4612
:109940000020C14902F0ACFA45EC1A4B41EC190B6E
:1099500051EC1A0B53EC192B02F078F9C3464FEA7D
:10996000680848F0005808F5002303EB09050A468B
:1099700000230146CDE900120093DDE900890024AF
:10998000CDE904122B4622464046494602F05EF9D4
:1099900002460B4651EC1A0B01F0A0FF41EC170BED
:1099A00053EC182B2046294655EC174B01F096FF37
:1099B00002460B465046594601F090FF42464B4640
:1099C00002F044F902460B462046294601F086FF84
:1099D00053EC192B02F03AF9DDE904AB04460D46CD
:1099E00052465B465046594602F030F980A3D3E90F
:1099F000002345EC1A4B04460D4602F027F97EA3DE
:109A0000D3E9002301F06CFF22462B4602F01EF939
:109A10007BA3D3E9002301F063FF22462B4602F02B
:109A200015F979A3D3E9002301F05AFF22462B460A
:109A300002F00CF976A3D3E9002301F051FF22468E
:109A40002B4602F003F974A3D3E9002301F048FF89
:109A500022462B4604460D461046194602F0F6F8FB
:109A600002460B462046294602F0F0F842460446DC
:109A70000D464B4650465946CDE904AB01F030FF48
:109A800053EC1A2B02F0E2F822462B4601F028FF95
:109A9000424604460D464B464046494602F0D6F83B
:109AA00045EC194B694B002282468B4601F018FFAA
:109AB00053EC192B01F014FF009C0D4622462B4657
:109AC0004046494602F0C2F8604B80468946002273
:109AD0002046294601F002FF52465B4601F0FEFE99
